:100000000C9486040C94B7040C94B7040C94B704B5
:100010000C94B7040C94B7040C94B7040C94B70474
:100020000C94B7040C94D30E0C94D30E0C94D30EF2
:100030000C94B7040C94B7040C94B7040C94992551
:100040000C94B7040C946B250C94B7040C94B7046F
:100050000C94F2250C94B7040C94B7040C948E46BF
:100060000C94B7040C94A0230C9476230C94B7043E
:100070000C94B7040C94B7040C94B7040C94B70414
:100080000C943D250C94B7040C94B7040C94B7045D
:100090000C94B7040C94B7040C94B7040C94B704F4
:1000A0000C94B7040C94B7040C940F250C94B7046B
:1000B0000C94B7040C94B7040C94B7040C94E1248A
:1000C0000C94B7040C94B7040C94B7040C94B704C4
:1000D0000C94B7040C94B7040C94B7040C94B704B4
:1000E0000C94B7048D0B900B7F0B830B890BC70B04
:1000F000940B980B9E0BA20BA60BAC0BB00BB40B86
:10010000C70BBA0BBE0BC20BFC34013506351035DC
:100110001A35933524352C3534353E35483552352E
:1001200061356B35933575357F358935BB36C836C6
:10013000D136DA36E736F036F53AF53AF53AF53AA9
:10014000F53AFD360A371737F53A24372D37363763
:1001500043374C3755375E3767377037F53A79375D
:1001600082378B37F53AF53AF53A94379D37A6370B
:10017000F53AF53AAF37BC37F53AF53AF53AC937BB
:10018000D637E337F53AF037F9370238F53AF53A2A
:10019000F53A0B3814381D38F53A2A3837384438D0
:1001A000F53AF53AF53A51385E386B38F53A783821
:1001B00085389238F53AF53AF53A9F38AC38B9387F
:1001C000F53AC638CF38D838F53AF53AF53AFC382A
:1001D00009391639F53A233930393D39F53AF53AC6
:1001E000F53A4A3953395C39F53AF53AF53AF53A80
:1001F000F53AF53AF53A65396E397739F53A803995
:1002000089399239F53AF53AF53A9B39A839B53931
:10021000F53AC239CF39DC39F53AF53AF53AE939E8
:10022000F639033AF53A103A193A223AF53AF53ADC
:10023000F53A2B3A343A3D3AF53AF53AF53AF53A89
:10024000F53AF53AF53AF53AF53AF53AF53AE1384C
:10025000EA38F338F53AF53AF53AF53AF53AF53A37
:10026000F53AF53AF53AF53AF53AF53AF53AF53A16
:10027000F53AF53AF53AF53AF53AF53AF53AF53A06
:10028000F53AF53AF53AF53AF53AF53AF53AF53AF6
:10029000F53AF53AF53AF53AF53AF53AF53AF53AE6
:1002A000F53AF53AF53AF53AF53AF53AF53AF53AD6
:1002B000F53AF53AF53AF53AF53AF53AF53A463A75
:1002C0004F3A5C3AF53A693A723A7F3AF53AF53A7A
:1002D000F53A8C3A953AA23AF53AAF3AB83AC53A75
:1002E000F53AF53AF53AD23ADB3AE83A0C949239D3
:1002F0000C946D060C9436180C9479370C9465396F
:100300000C9416050C94F9370C94CF390C941A35CB
:100310000C94693A0C94C8360C94F6390C94650622
:100320000C94112D0C94CF1D0C9494370C94A83977
:100330000C94DD200C948D0B0C94721D0C942435C0
:100340000C9466060C9406350C94FD360C949F387C
:100350000C942B060C94FC380C9434350C943D39D9
:100360000C942E050C94E7360C94D31D0C941805B0
:100370000C949D370C94EA380C941B2D0C94301877
:100380000C946C060C9455370C9423390C94CB1DAB
:100390000C94E22C0C94F6210C94F0360C946135FC
:1003A0000C9468060C9419180C94A6370C94BE0B88
:1003B0000C944F3A0C9470060C9414050C94B31FD3
:1003C0000C9414380C9437380C943E180C940E226C
:1003D0000C9452350C9426050C94161D0C9436374B
:1003E0000C942B3A0C945C390C94220A0C948039AE
:1003F0000C941A050C9448350C9416180C94723A07
:100400000C94BB1F0C942A380C94E1380C94B90559
:100410000C940C2D0C941C050C9410350C941E0B94
:100420000C9444180C94AC0B0C94E81F0C945D05D0
:100430000C947F3A0C9430390C94AF370C942C0503
:100440000C9467370C9469060C9485380C94D01D75
:100450000C94F2050C9402380C94D1360C94E83AC2
:100460000C94C9370C9434180C946E060C94F1213A
:100470000C94343A0C940B380C946C050C940135A4
:100480000C94FC340C946A1C0C9424050C944A20A3
:100490000C9404220C9428050C94CC1D0C941E057D
:1004A0000C947A180C9440180C9467060C94CA1D8E
:1004B0000C946B380C943E050C94DA360C94C53AC7
:1004C0000C946E390C94A60B0C94D8380C94C23949
:1004D0000C943D3A0C94A20B0C942D080C946A1EBB
:1004E0000C9427090C947F350C94DB3A0C94533907
:1004F0000C94BA0B0C94890B0C94D6370C94B90459
:100500000C944C370C94D21D0C9464060C94A23AB3
:100510000C943E350C94D6040C94352C0C94D11DBF
:100520000C94F53A0C9477390C94193A0C949B3945
:100530000C94B83A0C94900B0C941E080C94AC38A4
:100540000C94C6380C940A200C9438180C946F063E
:100550000C94E3370C94B9380C9451380C947037E0
:100560000C940A370C9475350C946A060C94CE1DC5
:100570000C94F72C0C94BB360C9489350C94783879
:100580000C949E0B0C94D21F0C942C350C94CF38E9
:100590000C945C3A0C94B40B0C94980B0C94163994
:1005A0000C94103A0C94FB210C946B350C944B1862
:1005B0000C9422050C94162D0C9420050C94463AAC
:1005C0000C943A180C94C20B0C94011E0C945E37D8
:1005D0000C94B5390C942A050C94101E0C943C18FC
:1005E0000C94B71E0C944A390C94362C0C94940B32
:1005F0000C9442180C94F3380C941D380C94243746
:100600000C942D370C94AF3A0C94F0370C94223A9A
:100610000C948C3A0C94830B0C94B00B0C94DC3936
:100620000C9406520C9493350C9432180C94321E90
:100630000C9482370C94C91D0C94953A0C946B065B
:100640000C94BC370C9409390C94C70B0C94241EE1
:100650000C942C200C9444380C945E380C94D23AB0
:100660000C9489390C94CD1D0C948B370C947F0B12
:100670000C9443370C9492380C9417370C94033A2B
:100680000C94E9394E414E494E495459494E46CD94
:10069000CCCC3D0AD7233C17B7D13877CC2B329539
:1006A00095E6241FB14F0A000020410000C8420017
:1006B000401C4620BCBE4CCA1B0E5AAEC59D7400E1
:1006C000407A10F35A00A0724E18090010A5D4E821
:1006D0000000E87648170000E40B54020000CA9AB4
:1006E0003B000000E1F50500008096980000004006
:1006F000420F000000A0860100000010270000004B
:1007000000E803000000006400000000000A000090
:100710000000000100000000002C76D888DC674F44
:100720000823DFC1DFAE59E1B1B796E5E3E453C674
:100730003AE651997696E8E6C28426EB898C9B626C
:10074000ED407C6FFCEFBC9C9F40F2BAA56FA5F416
:1007500090055A2AF75C936B6CF9676DC11BFCE03E
:10076000E40D47FEF520E6B500D0ED902E03009491
:100770003577050080841E080000204E0A00000026
:10078000C80C333333330F986E12831141EF8D2130
:1007900014893BE65516CFFEE6DB18D1844B381B97
:1007A000F77C1D901DA4BBE424203284725E22815C
:1007B00000C9F124ECA1E53D270000210024002719
:1007C000002A002D00300033000101000004010761
:1007D000010A0100000A0B02090C0D0E08070304B0
:1007E0000100000000000000000000000000000008
:1007F00000000000000000000000000000000012E7
:1008000011100000000000000000000000000000C7
:1008100000000000000000000000000000000000D8
:100820000000000000000000000102102020080865
:100830001020401020408002010201080402010142
:10084000020408102040808040201008040201802B
:100850000402018040201008040201080402010182
:10086000020408102040800102040810204080107B
:1008700008040880102040044080102040048000BC
:100880000020002300260029002C002F0032000049
:1008900001000003010601090100002200250028D3
:1008A000002B002E00310034000201000005010879
:1008B000010B0105050505070508080808020202E5
:1008C000020A0A08080404040401010101010101EB
:1008D000010303030303030303040707070C0C0CC2
:1008E0000C0C0C0C0C02020202060606060606069A
:1008F000060B0B0B0B0B0B0B0B07070A0A0A0A0A5A
:100900000A050505040404080800065211241FBE48
:10091000CFEFD1E2DEBFCDBF00E00CBF18E0A0E01A
:10092000B2E0EEE0F8EB00E00BBF02C007900D92E2
:10093000A633B107D9F72FE0A6E3B8E001C01D92B6
:10094000AD30B207E1F714E0C6E8D4E000E006C03D
:1009500021970109802FFE010E94DB59C538D1077C
:1009600080E00807A9F70E94D8460C94055C0C9417
:100970000000EF92FF920F931F93CF93DF93FB0141
:10098000E2A8F3A802A113A1C68DD78D0E94A035BD
:100990009701A801BE010E94B93480E090E0DF9188
:1009A000CF911F910F91FF90EF9008954F925F921A
:1009B0006F927F92AF92BF92CF92DF92EF92FF92AF
:1009C0000F931F93CF93DF93FB01E2A8F3A846A4F4
:1009D00057A460A871A8C6A0D7A0A2A0B3A0068DF6
:1009E000178D0E94A035EC019701A501B8010E9466
:1009F000B934C301B2010E9448109701A601B801A1
:100A0000CE010E94B93480E090E0DF91CF911F9138
:100A10000F91FF90EF90DF90CF90BF90AF907F90BD
:100A20006F905F904F9008950C9445530C944553EC
:100A30000C9445530C9445530C9445530C944553D6
:100A40000C9445530C9445530C9445530C944553C6
:100A50000C9445530C9445530C944553CF93DF931A
:100A6000FB01D2A9C68D0E94A0356D2F8C2F0E944C
:100A7000390F80E090E0DF91CF9108950F931F939D
:100A8000CF93DF93FB0102A913A9C68DD78D0E94D6
:100A9000A035A801BE010E944D3480E090E0DF91B6
:100AA000CF911F910F910895662319F08AE794E082
:100AB00002C083E794E00C941B0CCF93DF93FB01FF
:100AC000C68DD78D0E94BC2DBE010E945D2D80E099
:100AD00090E0DF91CF910895CF92DF92EF92FF9255
:100AE0000F931F93CF93DF93FB01C2A0D3A0E4A089
:100AF000F5A0068D178D0E94BC2DEC018A819B818B
:100B00008F30F7E29F0724F401969B838A8302C00B
:100B10001B821A82B801CE010E9408368823B1F0E8
:100B2000F801EE0FFF1FEE0FFF1FE45CF74FC082CE
:100B3000D182E282F382A7019601B801CE010E9420
:100B4000202DB801CE010E945D2D04C08DE695E0F8
:100B50000E941B0C0E9420340E94EB3380E090E046
:100B6000DF91CF911F910F91FF90EF90DF90CF9089
:100B700008958F929F92AF92BF92CF92DF92EF92A1
:100B8000FF920F931F930E94501C62E070E00E943E
:100B9000013B892BD1F40E94501C21E02F931F921E
:100BA0001F921F921F92812C912CA12CB12CC12C31
:100BB000D12C760197018601B701A6010E9482100F
:100BC0000F900F900F900F900F9080E090E01F918A
:100BD0000F91FF90EF90DF90CF90BF90AF909F90DC
:100BE0008F9008958F929F92AF92BF92CF92DF9293
:100BF000EF92FF920F931F930E94501C61E070E0F0
:100C00000E94013B892BD1F40E94501C1F9221E0CD
:100C10002F931F921F921F92812C912CA12CB12CEB
:100C2000C12CD12C760197018601B701A6010E9443
:100C300082100F900F900F900F900F9080E090E037
:100C40001F910F91FF90EF90DF90CF90BF90AF90EA
:100C50009F908F9008958F929F92AF92BF92CF9264
:100C6000DF92EF92FF920F931F930E94501C60E05F
:100C700070E00E94013B892BD1F40E94501C1F920E
:100C80001F9221E02F931F921F92812C912CA12C57
:100C9000B12CC12CD12C760197018601B701A60198
:100CA0000E9482100F900F900F900F900F9080E095
:100CB00090E01F910F91FF90EF90DF90CF90BF9049
:100CC000AF909F908F900895089508950895089586
:100CD000089508950895089508950895089508952C
:100CE0000895EF92FF920F931F93CF93DF93CDB7A9
:100CF000DEB72E970FB6F894DEBF0FBECDBF8C01C6
:100D00000E947D0C6FE875E0C8010E94602360912D
:100D100038087091390880913A0890913B082AE090
:100D2000AE014F5F5F4F7A010E940854F7010190B6
:100D30000020E9F73197AF014E195F09B701C801EB
:100D40000E9402236EEE74E0C8010E946023C80175
:100D50002E960FB6F894DEBF0FBECDBFDF91CF91B8
:100D60001F910F91FF90EF9008958FE895E00E94FA
:100D70001B0C609138087091390880913A08909165
:100D80003B080E94220C8EEE94E00C941B0C0F93F7
:100D90001F93CF93DF93EC0182E995E00E941B0C37
:100DA00086E995E00E941B0C04EC1CE0F8016081D0
:100DB000CE010E9454058AE995E00E941B0CF801BF
:100DC0006181CE010E9454058EE995E00E941B0CC2
:100DD000F8016281CE010E94540582EA95E00E94EA
:100DE0001B0CF8016381CE010E94540586EA95E050
:100DF0000E941B0CF8016481CE010E9454058AEA0E
:100E000095E00E941B0CF8016581CE010E945405FB
:100E1000CE01DF91CF911F910F910C94B506CF9227
:100E2000DF92EF92FF92CF93DF93EC01888199815B
:100E3000AA81BB81181619061A061B0644F081E028
:100E400090E0A0E0B0E088839983AA83BB838C8183
:100E50009D81AE81BF81181619061A061B0644F043
:100E600081E090E0A0E0B0E08C839D83AE83BF83FF
:100E700088859985AA85BB85181619061A061B064A
:100E800044F081E090E0A0E0B0E088879987AA87ED
:100E9000BB878EEA95E00E941B0C82EF96E00E94D1
:100EA0001B0C6091F40E7091F50E8091F60E9091EE
:100EB000F70E0E9436586B017C01688179818A8126
:100EC0009B810E9436589B01AC01C701B6010E946C
:100ED000505A42E00E94A60C82E097E00E941B0C50
:100EE0006091E10E7091E20E8091E30E9091E40E1C
:100EF0000E9436586B017C016C817D818E819F81BF
:100F00000E9436589B01AC01C701B6010E94505A9D
:100F100042E00E94A60C82E197E00E941B0C6091C7
:100F2000F80E7091F90E8091FA0E9091FB0E0E94CE
:100F300036586B017C01688579858A859B850E947E
:100F400036589B01AC01C701B6010E94505A42E0DD
:100F50000E94A60CCE01DF91CF91FF90EF90DF9021
:100F6000CF900C94B506CF92DF92EF92FF926A0178
:100F70007B0182EB95E00E941B0CC701B6010E9429
:100F8000220C8EEE94E00E94C80BC092E10ED0922B
:100F9000E20EE092E30EF092E40EFF90EF90DF900D
:100FA000CF9008958091C20C9091C30C892B09F0C9
:100FB00040C08FE090E00E94AD52FC0181E090E0E3
:100FC000A0E0B0E080839183A283B3838483958380
:100FD000A683B78380879187A287B38715861486F7
:100FE00016861092F40E1092F50E1092F60E1092D4
:100FF000F70E1092E10E1092E20E1092E30E109294
:10100000E40E1092F80E1092F90E1092FA0E109251
:10101000FB0E109238081092390810923A0810927C
:101020003B081092370810923608F093C30CE093F7
:10103000C20C8091C20C9091C30C08950E94BC2DEB
:101040000E94A02D89EB95E00E941B0C0E94D20704
:101050000E94B50680E090E008952F923F924F9253
:101060005F926F927F928F929F92AF92BF92CF9238
:10107000DF92EF92FF920F931F93CF93DF93CDB741
:10108000DEB72A970FB6F894DEBF0FBECDBF0E9421
:10109000BC2D8091080990910909019729F486EFE8
:1010A0009FEF9E838D8304C0AAE0B0E0BE83AD8332
:1010B0000E94D2076091F40E7091F50E8091F60EA9
:1010C0009091F70E0E9436586B017C010E94BC2D56
:1010D000609118097091190980911A0990911B0962
:1010E0000E9436589B01AC01C701B6010E94505ABC
:1010F00069837A838B839C830E94D2076091E10E7F
:101100007091E20E8091E30E9091E40E0E943658A9
:101110006B017C010E94BC2D60911C0970911D091E
:1011200080911E0990911F090E9436589B01AC01C5
:10113000C701B6010E94505A2B013C01212C312CD1
:101140008D819E81092E000CAA0BBB0B8D839E8383
:10115000AF83B88791E02916310449F0A2E02A163E
:10116000310419F10E94501CB1E0BF9322C00E94CB
:10117000501C9A8789876D817E818F8198850E9416
:1011800036586B017C011F921F921F921F921F9273
:10119000812C912CA12CB12C9301820149815A817F
:1011A0006B817C8189859A8515C00E94501CE1E085
:1011B000EF931F921F921F921F92812C912CA12CB2
:1011C000B12CC12CD12C76019301820149815A8125
:1011D0006B817C810E9482100F900F900F900F9076
:1011E0000F900E94D20780913608909137089A8715
:1011F00089870E94D207DC011E968C9181110CC058
:10120000E985FA85EF2B41F4FFEF2F1A3F0A23E01F
:101210002216310409F09ECF80E090E02A960FB6A6
:10122000F894DEBF0FBECDBFDF91CF911F910F911C
:10123000FF90EF90DF90CF90BF90AF909F908F90F6
:101240007F906F905F904F903F902F9008952F92D6
:101250003F924F925F926F927F928F929F92AF9246
:10126000BF92CF92DF92EF92FF920F931F93CF9393
:10127000DF93CDB7DEB72A970FB6F894DEBF0FBE67
:10128000CDBF0E94BC2D809108099091090901975A
:1012900029F486EF9FEF9E838D8304C0AAE0B0E01F
:1012A000BE83AD830E94D2076091F40E7091F50E5B
:1012B0008091F60E9091F70E0E9436582B013C015A
:1012C0000E94BC2D609118097091190980911A092A
:1012D00090911B090E9436589B01AC01C301B201D9
:1012E0000E94505A69837A838B839C830E94D20721
:1012F0006091F80E7091F90E8091FA0E9091FB0EAC
:101300000E9436582B013C010E94BC2D609120099F
:101310007091210980912209909123090E943658E9
:101320009B01AC01C301B2010E94505A2B013C0148
:10133000212C312C8D819E81092E000CAA0BBB0B18
:101340008D839E83AF83B88791E02916310451F0D5
:10135000A2E02A16310421F10E94501C1F92B1E034
:10136000BF9323C00E94501C9A8789876D817E811C
:101370008F8198850E9436588B019C011F921F9285
:101380001F921F921F92812C912CA12CB12C7301C2
:10139000620149815A816B817C8189859A8515C05A
:1013A0000E94501C1F92E1E0EF931F921F921F9228
:1013B000812C912CA12CB12C7301620100E010E072
:1013C000980149815A816B817C810E9482100F9023
:1013D0000F900F900F900F900E94D20780913608C7
:1013E000909137089A8789870E94D207DC011E9660
:1013F0008C9181110CC0E985FA85EF2B41F4FFEF48
:101400002F1A3F0A23E02216310409F09DCF80E015
:1014100090E02A960FB6F894DEBF0FBECDBFDF91E5
:10142000CF911F910F91FF90EF90DF90CF90BF90E1
:10143000AF909F908F907F906F905F904F903F9074
:101440002F9008952F923F924F925F926F927F92CA
:101450008F929F92AF92BF92CF92DF92EF92FF92C4
:101460000F931F93CF93DF93CDB7DEB72A970FB6B5
:10147000F894DEBF0FBECDBF0E94BC2D809108093D
:1014800090910909019729F486EF9FEF9E838D8340
:1014900004C0AAE0B0E0BE83AD830E94D207609191
:1014A000E10E7091E20E8091E30E9091E40E0E94A5
:1014B00036582B013C010E94BC2D60911C09709193
:1014C0001D0980911E0990911F090E9436589B01A9
:1014D000AC01C301B2010E94505A69837A838B83A5
:1014E0009C830E94D2076091F80E7091F90E809152
:1014F000FA0E9091FB0E0E9436582B013C010E947F
:10150000BC2D609120097091210980912209909150
:1015100023090E9436589B01AC01C301B2010E940D
:10152000505A2B013C01212C312C8D819E81092E9A
:10153000000CAA0BBB0B8D839E83AF83B88791E011
:101540002916310459F0A2E02A16310429F10E942B
:10155000501C1F921F92B1E0BF9324C00E94501CE8
:101560009A8789876D817E818F8198850E94365800
:10157000AB01BC011F921F921F921F921F92812CE0
:10158000912CA12CB12C7301620109811A812B814C
:101590003C8189859A8515C00E94501C1F921F921C
:1015A000E1E0EF931F921F92812C912CA12CB12C82
:1015B0007301620109811A812B813C8140E050E076
:1015C000BA010E9482100F900F900F900F900F9011
:1015D0000E94D20780913608909137089A878987B0
:1015E0000E94D207DC011E968C9181110CC0E98506
:1015F000FA85EF2B41F4FFEF2F1A3F0A23E0221662
:10160000310409F09CCF80E090E02A960FB6F89460
:10161000DEBF0FBECDBFDF91CF911F910F91FF9025
:10162000EF90DF90CF90BF90AF909F908F907F9082
:101630006F905F904F903F902F9008950E94D20737
:10164000FC01168680E090E00895CF93DF938FE34E
:101650000E94DD0EEC010E94D20781E0CD2B09F43F
:1016600080E08093C40C80E40E94DD0EEC010E94B7
:10167000D20781E0CD2B09F480E08093C50C8EE089
:101680000E94DD0EEC010E94D20781E0CD2B09F40F
:1016900080E08093C60C8FE00E94DD0EEC010E947A
:1016A000D20781E0CD2B09F480E08093C70C8CE059
:1016B0000E94DD0EEC010E94D20781E0CD2B09F4DF
:1016C00080E08093C80C89E00E94DD0EEC010E944E
:1016D000D20781E0CD2B09F480E08093C90CDF9123
:1016E000CF91089590E0FC013197E231F10508F0C7
:1016F0004EC08827EE58FF4F8F4F0C94DB598091D6
:1017000080008F7703C0809180008F7D8093800060
:10171000089580918000877FF9CF84B58F7702C0CC
:1017200084B58F7D84BD08958091B0008F7703C00C
:101730008091B0008F7D8093B000089580919000DB
:101740008F7707C0809190008F7D03C080919000BB
:10175000877F8093900008958091A0008F7707C0C5
:101760008091A0008F7D03C08091A000877F80932F
:10177000A0000895809120018F7707C080912001FB
:101780008F7D03C080912001877F80932001089581
:10179000009769F0FC0101900020E9F73197AF0153
:1017A000481B590BBC018BEC9CE00C94D31D80E0D2
:1017B00090E008958F929F92AF92BF920F931F93E4
:1017C000CF93DF93CDB7DEB7A1970FB6F894DEBF06
:1017D0000FBECDBF19A2423008F44AE08E010F5D62
:1017E0001F4F842E912CA12CB12CA50194010E9495
:1017F0009E59E62FB901CA0101501109EA3014F4CB
:10180000E05D01C0E95CD801EC93232B242B252B50
:1018100061F7C8010E94C80BA1960FB6F894DEBF0D
:101820000FBECDBFDF91CF911F910F91BF90AF90B1
:101830009F908F9008950C94C80B682F8BEC9CE0C0
:101840000C946A1ECF92DF92EF92FF92CF93DF93B8
:1018500097FF19C06B017C018DE20E941D0CEC0109
:1018600066277727CB016C197D098E099F094AE00D
:101870000E94DA0B8C0F9D1FDF91CF91FF90EF90AC
:10188000DF90CF9008954AE0DF91CF91FF90EF90E5
:10189000DF90CF900C94DA0BEF92FF920F931F938F
:1018A000CF93DF93CDB7DEB764970FB6F894DEBF62
:1018B0000FBECDBF7C01CB01BA018E010F5F1F4F60
:1018C00022E044E00E948D52FC0101900020E9F7E3
:1018D0003197AF01481B590BBC01C7010E9402237D
:1018E00064960FB6F894DEBF0FBECDBFDF91CF91E7
:1018F0001F910F91FF90EF900895CF93DF93EC012C
:10190000198218821B821A821D821C8260E070E09C
:101910000E94DB222881398181110FC021153105F8
:1019200019F0C9010E944553198218821D821C8238
:101930001B821A82DF91CF9108951D821C8260EF75
:1019400074E0C901DF91CF910C94FE5B8F929F925E
:10195000AF92BF92CF92DF92EF92FF920F931F93BD
:10196000CF93DF936B017C01142F9B01AC010E948C
:10197000FD5A882319F08DEB95E027C046015701E9
:10198000E894B7F82FEF3FEF4FE75FE7C501B401E9
:101990000E94FD5A81110DC02FEF3FEF4FE75FE727
:1019A000C501B4010E942F5818161CF481EC95E073
:1019B0000CC02FEF3FEF4FE75FE4C701B6010E9475
:1019C000F85A181684F485EC95E0DF91CF911F91B9
:1019D0000F91FF90EF90DF90CF90BF90AF909F90CE
:1019E0008F900C94C80B2FEF3FEF4FE75FECC701D0
:1019F000B6010E942F5887FDE6CF20E030E0A90114
:101A0000C701B6010E942F5887FF09C08DE20E94CE
:101A10001D0CEC01F7FAF094F7F8F09402C0C0E066
:101A2000D0E000E060E070E080E09FE3101741F05C
:101A300020E030E040E251E40E94505A0F5FF6CFC0
:101A4000A70196010E94E4596B017C010E94C95ACA
:101A50004B015C014AE00E94DA0BC80FD91F112329
:101A6000A9F1C501B4010E9434589B01AC01C70122
:101A7000B6010E94E3596B017C018EE20E941D0CAD
:101A8000C80FD91F20E030E040E251E4C701B601A1
:101A90000E9495584B015C010E94C95A6B01E12CD0
:101AA000F12C4AE0C701B6010E94DA0BC80FD91F1A
:101AB000C701B6010E9434589B01AC01C501B401B5
:101AC0000E94E3596B017C011150E1F6CE01DF91D8
:101AD000CF911F910F91FF90EF90DF90CF90BF902B
:101AE000AF909F908F900895BC01990F880B990B30
:101AF0000C94220CDC0152968C91529760FB84F975
:101B000052968C935297282F53963C915397549604
:101B10008C915497482F437050E0ED91FC911197B0
:101B20000190F081E02D60E0CD01199460317105E4
:101B300009F441C088F46230710509F454C020F4FE
:101B4000672B09F458C008956430710509F443C047
:101B500068307105C1F1089560347105E1F020F439
:101B60006032710501F108956038710561F0611509
:101B7000714009F048C0DC01ED91FC910288F389C5
:101B8000E02D60E03FC0DC01ED91FC910288F3891B
:101B9000E02D61E037C0DC01ED91FC910288F38912
:101BA000E02D62E02FC0DC01ED91FC910288F38909
:101BB000E02D63E027C0DC01ED91FC910288F38900
:101BC000E02D64E01FC0DC01ED91FC910288F389F7
:101BD000E02D65E017C0DC01ED91FC910288F389EE
:101BE000E02D66E00FC0DC01ED91FC910288F389E5
:101BF000E02D67E007C0DC01ED91FC910288F389DC
:101C0000E02D68E019940895CF92DF92EF92FF9251
:101C10001F93CF93DF93EC0180E090E00E94345853
:101C200025ED34E045E352E40E94955820E030E091
:101C30004AE754E40E94505A6B017C012AE037EDD8
:101C400043EA5CE369857A858B859C850E94E4592B
:101C5000A70196010E94955826E636E646EA5EE31D
:101C60000E94505A20E030E040E85FE30E94E359D0
:101C70000E94C95A162FE881F9810480F581E02D70
:101C8000603108F561E0CE0119952AE037ED43EAAD
:101C90005CE369857A858B859C850E94E459A70160
:101CA00096010E9495582CEE31E548E35EE30E94D0
:101CB000505A20E030E040E85FE30E94E3590E9480
:101CC000C95A162F03C060E0CE011995103208F0F2
:101CD0001FE1912F9F718B81807E892B8B832A81BD
:101CE000382F8C81482F4F7050E0E881F9810190A6
:101CF000F081E02D60E1CE011995612F70E080E068
:101D000090E00E9436582D853E854F8558890E9467
:101D100095580E94C95A6F718A81807E682B6A83A8
:101D2000262F3B818C81482F4F7050E0E881F9814C
:101D30000190F081E02D60E1CE01DF91CF911F9104
:101D4000FF90EF90DF90CF901994DC01ED91FC9122
:101D50000280F381E02D6CE61994CF92DF92EF922E
:101D6000FF92FC01C12C92E1D92E9AE7E92EF12CC9
:101D700020E04C155D056E057F0540F4F694E79470
:101D8000D794C7942F5F2630A1F727E091E09227E0
:101D9000292F286B2695208391709183FF90EF90D7
:101DA000DF90CF9008951F920F920FB60F921124DB
:101DB0000F900FBE0F901F901895CF93DF93282F91
:101DC00030E0F901ED52F84F8491F901E75DF74FEA
:101DD000D491F901ED54F74FC491CC2391F08111C6
:101DE0000E94720BEC2FF0E0EE0FFF1FE158F74F4F
:101DF000A591B491EC91ED2381E090E021F480E095
:101E000002C080E090E0DF91CF9108951F93CF93BF
:101E1000DF93282F30E0F901ED52F84F8491F9015A
:101E2000E75DF74FD491F901ED54F74FC491CC23FE
:101E3000C1F0162F81110E94720BEC2FF0E0EE0F13
:101E4000FF1FE756F74FA591B4919FB7F894111172
:101E500004C08C91D095D82302C0EC91DE2BDC938A
:101E60009FBFDF91CF911F910895FC0181A90C9430
:101E7000060FCF93DF9390E0FC01E75DF74F2491CD
:101E8000FC01ED54F74F8491882361F190E0880FB5
:101E9000991FFC01E754F84FC591D491FC01E75616
:101EA000F74FA591B491611109C09FB7F89488814B
:101EB000209582238883EC912E230BC0623061F43D
:101EC0009FB7F8948881322F309583238883EC91D3
:101ED0002E2B2C939FBF06C08FB7F894E8812E2B32
:101EE00028838FBFDF91CF9108950F931F93CF93D6
:101EF000DF93EC0161E089A90E94390F61E0CE0116
:101F00000E94350F0BA91CA90115110509F456C033
:101F100061E0F80180810E94390F61E0F80184815D
:101F20000E94390F62E0F80182810E94390FF801A6
:101F300040815181FA01ED54F74FE491F0E0EE0F4A
:101F4000FF1FE756F74F85919491F801928781879B
:101F500022813381F901ED54F74FE491F0E0EE0F67
:101F6000FF1FE158F74F85919491F801948783877B
:101F700084819581FC01ED54F74FE491F0E0EE0F80
:101F8000FF1FE756F74FA591B491F801B687A587D3
:101F9000FA01E75DF74F4491F8014683F901E75DE7
:101FA000F74F2491F8012783FC01E75DF74F9491E7
:101FB000F80190878C91E92FE82BEC932A893B89D3
:101FC0008C89482F437050E0E881F9810190F081BD
:101FD000E02D60E0CE0119952AA13BA14CA15DA1A5
:101FE000E881F9810190F081E02D6CE6CE01199530
:101FF0002EA13FA148A559A55170E881F981019012
:10200000F081E02D6DE6CE0119952DA53EA58FA599
:10201000482F4F7350E0E881F9810190F081E02D65
:1020200060E7CE0119952A813B818C81482F4F7042
:1020300050E0E881F9810190F081E02D60E1CE016E
:1020400019958AA1807F88608AA32AA13BA14CA10F
:102050005DA1E881F9810190F081E02D6CE6CE016F
:102060001995E881F9810688F789E02D61E0CE01B4
:10207000DF91CF911F910F9119948230910538F023
:10208000880F991F880F991F05970197F1F70895F9
:102090008F929F92AF92BF92CF92DF92EF92FF9278
:1020A0006B017C010E945D464B015C01C114D104AF
:1020B000E104F104F1F00E945D46DC01CB018819D6
:1020C0009909AA09BB09883E9340A105B10570F39F
:1020D00021E0C21AD108E108F10888EE880E83E0F9
:1020E000981EA11CB11CC114D104E104F10419F71C
:1020F000DDCFFF90EF90DF90CF90BF90AF909F909B
:102100008F9008952F923F924F925F926F927F929D
:102110008F929F92AF92BF92CF92DF92EF92FF92F7
:102120000F931F93CF93DF93CDB7DEB7E3970FB62F
:10213000F894DEBF0FBECDBF3C014F83588769873F
:102140007A87098B1A8B2B8B3C8BCD8ADE8AEF8AA0
:10215000F88E2B960EAD1FAD2B970E9482466E8F88
:102160007F8F88A399A30E948246698F7A8F8B8F75
:102170009C8FF301EC5DFD4F118210823B96A11400
:10218000B10479F0C501A0E0B0E0408151816281E5
:10219000738184179507A607B7072CF4AC01BD011E
:1021A00002C040815181F301ED5CFD4F8114910427
:1021B00079F0A12CB12C80819181A281B381881604
:1021C0009906AA06BB0614F4D501C401BC0102C0DD
:1021D00060817181F301E95CFD4F0115110571F01A
:1021E00020E030E080819181A281B3810817190736
:1021F0002A073B072CF4D901C80102C080819181D4
:102200009301205F3F4F3E872D878A0120E030E019
:10221000F30106A717A720AB31AB1301F0E92F0E8E
:10222000311CAB0160E070E0F101468F578F60A375
:1022300071A32301F0EF4F1AFEEF5F0AA0E0B0E0B8
:10224000F201868F978FA0A3B1A3E257FE4F1082B1
:1022500011821282138234961082118212821382AA
:102260003496108211821282138234961182108267
:102270003296118210823296118210820E94D20709
:102280008091F40E9091F50EA091F60EB091F70E9C
:102290004301F0E58F1AFDEF9F0AF40180839183DB
:1022A000A283B3830E94D2078091E10E9091E20E47
:1022B000A091E30EB091E40EF301EC54FD4F808346
:1022C0009183A283B3830E94D2078091F80E9091EC
:1022D000F90EA091FA0EB091FB0EF301E854FD4FF8
:1022E00080839183A283B3835301FEE6AF1AFDEF8F
:1022F000BF0AF50160817181828193810E94365805
:102300002F81388549855A850E9495580E94C25A66
:102310008B019C01F40140815181628173812C9673
:10232000EFAC2C978D859E850E94742F8823F1F049
:1023300083E793E00E941B0C82EF96E00E941B0C47
:10234000F301E85AFF4F6081718182819381F50129
:1023500020813181428153810E946C59CA01B901A7
:102360000E94220C0E94D2070E94B50689EC95E0DB
:102370000E941B0C6301FAE6CF1AFDEFDF0AF6019B
:1023800060817181828193810E94365829893A89BE
:102390004B895C890E9495580E94C25A8B019C010E
:1023A000F301EC54FD4F40815181628173812D9680
:1023B000EFAC2D97C1010E94742F8823F1F08FE6B6
:1023C00093E00E941B0C82E097E00E941B0CF3013B
:1023D000E852FF4F6081718182819381F6012081F3
:1023E0003181428153810E946C59CA01B9010E9416
:1023F000220C0E94D2070E94B50687ED95E00E944C
:102400001B0C6301F6E6CF1AFDEFDF0AF6016081CF
:102410007181828193810E9436582D893E894F892E
:10242000588D0E9495580E94C25A8B019C01F3015D
:10243000E854FD4F40815181628173812E96EFAC4B
:102440002E97C2010E94742F8823F1F08BE693E04F
:102450000E941B0C82E197E00E941B0CF301E85ADA
:10246000FE4F6081718182819381F60120813181EB
:10247000428153810E946C59CA01B9010E94220C09
:102480000E94D2070E94B506F301158AEB56FF4F52
:102490001082E058FF4F1082C3010E942C44C301F8
:1024A0000E9430448D859E850E946C33C1010E943C
:1024B0006C33C2010E946C3381E090E0F301EA5D6D
:1024C000FD4F918380837301F8EDEF1AFDEFFF0A52
:1024D000F701918380838301065D1D4FF80191838D
:1024E000808341E050E06D857E85C3010E94BE1B64
:1024F000F70140815181B101C3010E94BE1BF80167
:1025000040815181B201C3010E94BE1B81E0F301F1
:10251000E150FD4F80838D859E850E945F2FC10114
:102520000E945F2FC2010E945F2F64E670E080E08E
:1025300090E00E9448102C96FFAD2C97F1110EC030
:102540002D962FAD2D97211105C02E963FAD2E97BC
:102550003323B1F0F301EB58FF4F10822D964FADAE
:102560002D97411104C0F301EB50FF4F10822E96BE
:102570005FAD2E97511104C0F301EB58FE4F10824E
:102580008D859E850E94F730C1010E94F730C201FF
:102590000E94F7308D859E850E943930C1010E94CE
:1025A0003930C2010E9439300E94D207FC01868571
:1025B0008D8F18861F8293012B583F4F3A8B298BA2
:1025C000A3014B505F4F5E8B4D8BC3018B589E4FC9
:1025D000988B8F87F301EA5DFD4FFDA3ECA32D548B
:1025E0003E4F3FA32EA34B5C5E4F59A748A78D5F7C
:1025F00091099BA38AA3EC54FF4FFBA7EAA72A5596
:102600003F4F3DA72CA74B535F4F5FA74EA78C5B57
:102610009D4F99AB88ABBA97FBABEAABE989FA89D6
:10262000808181110AC0ED89FE898081811105C0F8
:10263000EF85F8898081882321F0FD8DFF2309F43F
:10264000EBC08301025E1D4FF80180819181892BCF
:1026500021F0C3010E94BF40F7CF89E096E00E94BD
:102660001B0C2C96FFAD2C97FF23F9F02F8138859A
:10267000232B09F041C03D8D311124C087E693E042
:102680000E941B0C0E94D2070E94B5062D964FADEA
:102690002D97442309F495C483E693E00E941B0C14
:1026A0000E94D2070E94B5068CC42D968FAD2D973F
:1026B000882369F0EF81F885EF2B19F5FD8DF11175
:1026C00020C0EACF2D963FAD2D9731111AC02E961E
:1026D0002FAD2E972223A9F04F815885452B89F4E1
:1026E0005D8D51110EC08FE593E00E941B0C0E947E
:1026F000D2070E94B50605C02D964FAD2D974423F5
:1027000031F343018AED881A8DEF980A85E090E055
:10271000F401918380835301F8EDAF1AFDEFBF0AF6
:10272000F501918380838301065D1D4FF80191833C
:10273000808345E050E06D857E85C3010E94BE1B0D
:10274000F50140815181B101C3010E94BE1BF80116
:1027500040815181B201C3010E94BE1BF301E150CF
:10276000FD4F1082EE58F1098081811104C08D85E2
:102770009E850E944B2FF301EE58FD4F8081811101
:1027800003C0C1010E944B2FF301ED58FD4F808122
:10279000811103C0C2010E944B2F64E670E080E00B
:1027A00090E00E944810C3010E943444C3010E947B
:1027B0002C44C3010E9430440E94D2070E940F079C
:1027C000F40111821082F50111821082F801118248
:1027D000108240E050E06D857E85C3010E94BE1BE3
:1027E000F50140815181B101C3010E94BE1BF80176
:1027F00040815181B201C3010E94BE1BFD8DFF23A8
:1028000009F4E6C30E94D20721E0FC01268721E0FB
:1028100030E038872F83DCC34CA15DA16D857E85B8
:10282000C3010E94171C4EA15FA1B101C3010E9408
:10283000171C48A559A5B201C3010E94171CEAA1A3
:10284000FBA180818823E1F08D859E850E94F73071
:102850008AA49BA4ACA4BDA4CEA4DFA4E8A8F9A834
:102860000AA91BA9930122563D4FA30140575E4F71
:102870006D857E85C3010E94E72BEAA1FBA1108232
:10288000930128503F4F3C872B87F9018081882393
:1028900039F1C1010E94F7304301F5E28F1AFDEFD3
:1028A0009F0A53012EE2A21A2DEFB20A63013FE004
:1028B000C31A3DEFD30A730140E4E41A4DEFF40A62
:1028C00083010C541D4F93012E553D4FA3014254DB
:1028D0005E4FB101C3010E94E72BEB85FC8510829E
:1028E000930128583E4F3C872B87F901808188232C
:1028F00039F1C2010E94F7304301F4E28F1AFDEF73
:102900009F0A53012AE2A21A2DEFB20A63013DE0A9
:10291000C31A3DEFD30A73014CE3E41A4DEFF40AF6
:10292000830108541D4F93012A553D4FA301445183
:102930005E4FB201C3010E94E72BEB85FC8510823C
:10294000E989FA8980818823D1F1F301E853FD4FA9
:1029500060817181072E000C880B990B0E943658FC
:102960009B01AC01F301E256FD4F608171818281D0
:1029700093810E94F85A181614F5E989FA89108291
:1029800061EF74E08301065E1D4FC8010E94602361
:1029900062E276E0C8010E9460236EEE74E0C80136
:1029A0000E9460232C96FFAD2C97FF2309F482C16F
:1029B000F301EC5AFF4F1082118212821382ED89CB
:1029C000FE8980818823D1F1F301E653FD4F6081B8
:1029D0007181072E000C880B990B0E9436589B01C1
:1029E000AC01F301EE55FD4F6081718182819381CD
:1029F0000E94F85A181614F5ED89FE89108261EFCD
:102A000074E08301065E1D4FC8010E9460236AE4E2
:102A100076E0C8010E9460236EEE74E0C8010E9457
:102A200060232D96FFAD2D97FF2309F448C1F301D4
:102A3000EC52FF4F1082118212821382EF85F889C7
:102A400080818823D1F1F301E453FD4F60817181CE
:102A5000072E000C880B990B0E9436589B01AC0185
:102A6000F301EA55FD4F60817181828193810E945B
:102A7000F85A181614F5EF85F889108261EF74E0A2
:102A80008301065E1D4FC8010E94602362E776E065
:102A9000C8010E9460236EEE74E0C8010E946023AA
:102AA0002E96FFAD2E97FF2309F40EC1F301EC5AC9
:102AB000FE4F1082118212821382F301EA58FF4FF7
:102AC00060818D859E850E94E72F882351F0F30158
:102AD000EC5AFF4F1082118212821382E989FA891F
:102AE0001082F301EA50FF4F6081C1010E94E72F7D
:102AF000882351F0F301EC52FF4F108211821282B1
:102B00001382ED89FE891082F301EA58FE4F60813D
:102B1000C2010E94E72F882351F0F301EC5AFE4FC7
:102B20001082118212821382EF85F8891082C3010C
:102B30000E943444C3010E942C44E989FA898081AF
:102B40008823E9F00E9482464B015C012E8D3F8D67
:102B500048A159A1821A930AA40AB50AF301EA57B7
:102B6000FD4F2081318142815381A8EEB3E00E9464
:102B70008B59681579058A059B0508F4AAC0ED896B
:102B8000FE8980818823E9F00E9482464B015C0126
:102B90002E8D3F8D48A159A1821A930AA40AB50A25
:102BA000F301E657FD4F2081318142815381A8EE28
:102BB000B3E00E948B59681579058A059B0508F4D6
:102BC000A2C0EF85F88980818823E9F00E948246BF
:102BD0004B015C012E8D3F8D48A159A1821A930AA9
:102BE000A40AB50AF301E257FD4F208131814281E9
:102BF0005381A8EEB3E00E948B59681579058A05C8
:102C00009B0508F49AC08BEC9CE00E94321E1816BB
:102C100019063CF58BEC9CE00E94101E8F7D8534DC
:102C20009105F9F464EE75E0C301865E9D4F0E9444
:102C3000602386EA93E00E941B0C0E94D2070E9448
:102C4000B506E989FA891082ED89FE891082EF853F
:102C5000F8891082F1E0FD8F21E030E038872F8382
:102C600004C04F815885452B39F069EF75E0C301E9
:102C7000865E9D4F0E946023C3010E94BF400E9458
:102C80008246DC01CB01298D3A8D4B8D5C8D821BF8
:102C9000930BA40BB50B8B3F9105A105B10508F46F
:102CA000BDCCF301E25EFD4F80819181892B09F457
:102CB0005EC0B4CC2FE130E038872F8380CE20E295
:102CC00030E038872F83BACE21E230E038872F8377
:102CD000F4CEE989FA89108262EB73E08301065E23
:102CE0001D4FC8010E9460236EEE74E0C8010E946F
:102CF00060236AE976E0C8010E94602322E030E0A8
:102D000038872F833CCFED89FE8910826EEA73E00D
:102D10008301065E1D4FC8010E9460236EEE74E0C1
:102D2000C8010E9460236FEA76E0C8010E94602318
:102D300022E030E038872F8344CFEF85F889108276
:102D40006AEA73E08301065E1D4FC8010E9460239A
:102D50006EEE74E0C8010E94602364EC76E0C80166
:102D60000E94602322E030E038872F834CCFF301AC
:102D7000EC5DFD4F808191818130910509F0F0C0BB
:102D80000E94D2078C01FC0180819181A281B381D4
:102D9000181619061A061B0644F081E090E0A0E020
:102DA000B0E080839183A283B383F801848195810D
:102DB000A681B781181619061A061B0644F081E091
:102DC00090E0A0E0B0E084839583A683B783F80108
:102DD00080859185A285B385181619061A061B06EB
:102DE00044F081E090E0A0E0B0E080879187A28786
:102DF000B387CE0101960E947D0C6EEA75E0CE018C
:102E000001960E94602362EF76E0CE0101960E9457
:102E100060236091F40E7091F50E8091F60E909102
:102E2000F70E0E9436586B017C01F80160817181B8
:102E3000828193810E9436589B01AC01C701B60183
:102E40000E94505AAB01BC01CE0101960E944C0C6D
:102E500062E077E0CE0101960E9460236091E10E6E
:102E60007091E20E8091E30E9091E40E0E9436582C
:102E70006B017C01F80164817581868197810E94D4
:102E800036589B01AC01C701B6010E94505AAB01F4
:102E9000BC01CE0101960E944C0C62E177E0CE01AC
:102EA00001960E9460236091F80E7091F90E809156
:102EB000FA0E9091FB0E0E9436586B017C01F801CE
:102EC00060857185828593850E9436589B01AC018F
:102ED000C701B6010E94505AAB01BC01CE01019658
:102EE0000E944C0CBE016F5F7F4F8301065E1D4F39
:102EF000C8010E946F2389819A810E9445530AC0AC
:102F0000892BC9F462EA73E08301065E1D4FC80194
:102F10000E9460230E94D207BC01CE0101960E944C
:102F20007106BE016F5F7F4FC8010E946F238981C8
:102F30009A810E944553F301EC5DFD4F80819181A0
:102F40000196833091051CF49183808302C0118225
:102F500010820E948246698F7A8F8B8F9C8F5ECB06
:102F60008230910569F665E076E08301065E1D4FCB
:102F7000C8010E94602362EF76E0C8010E946023CE
:102F80008D859E850E949033BC01C8010E9430232C
:102F900062E077E0C8010E946023C1010E94903383
:102FA000BC01C8010E94302362E177E0C8010E94A1
:102FB0006023C2010E949033BC01C8010E943023EB
:102FC000A9CF2E965FAD2E97552309F49ACB8BCBC4
:102FD00087E196E00E941B0C8F8198850E94740DFA
:102FE0008EEE94E00E941B0C0E94D2074F81588500
:102FF0005093370840933608CA01E3960FB6F89409
:10300000DEBF0FBECDBFDF91CF911F910F91FF901B
:10301000EF90DF90CF90BF90AF909F908F907F9078
:103020006F905F904F903F902F9008958FEF9FEF9C
:10303000089589ED96E00E941B0C82E993E00E94BE
:103040001B0C87E793E00E941B0C80EF94E00E942A
:103050001B0C0E94D2070E94B50680E090E0089504
:103060000C9445530C9445530C9445530C94455380
:103070000C9445530C9445530C9445530C94455370
:103080000C9445530C9445530E94D2070E940F079D
:1030900080E090E008958EED96E00E941B0C0E9467
:1030A000D2070E94250B0E94D2070E94C7060E94E9
:1030B000A03540E050E068E070E00E944D340E948E
:1030C000A03540E050E069E070E00E944D340E947D
:1030D000A03540E050E06AE070E00E944D340E946C
:1030E000A03540E050E06DE070E00E944D3480E09B
:1030F00090E008950F931F93CF93DF93FB0102A1FC
:1031000013A1C68DD78D0E941B26C530D105E1F0D5
:1031100064F4249771F56DE070E08BEF9DE00E9400
:103120005924B8018BEF9DE022C0C630D105B1F023
:103130002B97F9F464E070E084E09EE00E9459244B
:10314000B80184E09EE013C06BE070E08EEF9DE07C
:103150000E945924B8018EEF9DE009C06AE070E03A
:1031600081E09EE00E945924B80181E09EE00E9427
:10317000D62380E090E0DF91CF911F910F910895C9
:10318000CF93DF93EC0186E390E09C8F8B8F87E3F6
:1031900090E09E8F8D8F86E290E098A38F8F8AE1DA
:1031A00090E09AA389A38CE190E09CA38BA388E193
:1031B00090E09EA38DA38FE390E098A78FA380E477
:1031C00090E09AA789A7FE01E057FF4F8CE390E0BB
:1031D000948783878DE390E09687858788E390E0E6
:1031E000908B8787128A118A148A138A168A158A05
:1031F0008EE090E0908F878B8FE090E0928F818FB0
:10320000E058FF4F8BE290E09487838780E390E063
:10321000968785878AE390E0908B8787128A118A48
:10322000148A138A168A158A8CE090E0908F878B17
:1032300089E090E0928F818FEA5EFE4F11821082CA
:10324000329611821082329611821082CE010E9433
:103250002E26CE010E947044FE01EB50FD4F80816E
:10326000918172974081518162817381E355F14070
:10327000DE01A352BD4F2D913C91358F248F448B9D
:10328000558B668B778B019719F48FEF9FEF02C0F8
:1032900081E090E0978F868FFE01E950FD4F80819D
:1032A000918170974081518162817381E952F1402F
:1032B000DE01A152BD4F2D913C91358F248F448B5F
:1032C000558B668B778B019719F48FEF9FEF02C0B8
:1032D00081E090E0978F868FFE01E750FD4F80815F
:1032E00091813E974081518162817381EF5FF10945
:1032F000CF51DD4F28813981358F248F448B558BF9
:10330000668B778B019719F48FEF9FEF02C081E0F6
:1033100090E0978F868FDF91CF9108952F923F9203
:103320004F925F926F927F928F929F92AF92BF92D5
:10333000CF92DF92EF92FF920F931F93CF93DF9381
:10334000CDB7DEB7C058D1090FB6F894DEBF0FBEB7
:10335000CDBF8C01FC011082118212821382148273
:10336000158216821782108611861286138614869D
:103370001586168617864C01F0E18F0E911CC4014C
:103380000E946B43580180E9A80EB11CC5010E9440
:103390006B436801E0EFCE1AEEEFDE0AC6010E9431
:1033A0006B437801F0E7EF1AFEEFFF0AC7010E94B6
:1033B000972E380182E4681A8EEF780AC3010E94C2
:1033C000972E2801E4E14E1AEEEF5E0AC2010E9438
:1033D000972EC801865E9D4F0E947D0CF801E05E2D
:1033E000FD4F118210823296118210823296118224
:1033F0001082329611821082329611821082329699
:10340000118210823296108231961082319610828B
:1034100031961082118212821382349610821182A8
:103420001282138234961082118212821382349691
:1034300010821182128213823496108211821282BB
:103440001382349610821182128213823496108273
:103450001182128213823496108211821282138298
:103460003496108211821282138234961082118255
:103470001282138234961082118212821382349641
:103480001082118212821382349610823196108239
:1034900031961082319610821182128213823496F4
:1034A000108211821282138234961082118212824B
:1034B00013823496108231961082319610823196A2
:1034C0001082319610823196108231961082319698
:1034D0001082319610823196108231961082319688
:1034E0001082319610823196108231961082319678
:1034F0001082319610823196108231961082319668
:103500001082319610823196108231961082319657
:1035100010823196108211821282138234961082A8
:1035200011821282138234961082118212821382C7
:10353000D801AE56BD4F8CE0E6E8F3E001900D9265
:103540008A95E1F7F801E256FD4F1082118212824E
:103550001382349610821182128213823496108262
:103560001182128213823496118210823296118255
:10357000108232961182108232961082118212824B
:103580001382349610821182128213823496108232
:103590001182128213823496108211821282138257
:1035A0003496108211821282138234961082118214
:1035B0001282138234961182108232961182108206
:1035C00032961182108232961082118212821382F8
:1035D00034961082118212821382349610821182E4
:1035E00012821382349610823196108231961082A4
:1035F0003196118210823296118210823296118297
:1036000010823296108211821282138234961082B6
:1036100011821282138234961082118212821382D6
:103620003496118210823296118210823296118263
:103630001082329611821082329611821082329656
:10364000118210823296118210823296118210827B
:103650001801F1E02F1AFDEF3F0AF1011082CE01AF
:1036600001960E946B4380E8FE013196D4010190DF
:103670000D928A95E1F7CE0101960E946B4380E896
:10368000FE013196D50101900D928A95E1F7CE01A8
:1036900001960E946B4380E8FE013196D6010190AD
:1036A0000D928A95E1F788E5F801848BEC56FF4F7F
:1036B00089E58083E058FF4F8AE58083CE0101963B
:1036C0000E94972E8EE2FE013196D70101900D9255
:1036D0008A95E1F7CE0101960E94972E8EE2FE01B7
:1036E0003196D30101900D928A95E1F7CE010196B2
:1036F0000E94972E8EE2FE013196D20101900D922A
:103700008A95E1F7C8010E94C018F1011082C058E3
:10371000DF4F0FB6F894DEBF0FBECDBFDF91CF9164
:103720001F910F91FF90EF90DF90CF90BF90AF90DF
:103730009F908F907F906F905F904F903F902F90D1
:1037400008950F931F93CF93DF938B01EA018EE9C6
:1037500093E00E941B0C8CED96E00E941B0CF8017C
:1037600084810E941D0CCE010E94740D0E94D2071C
:10377000DF91CF911F910F910C94B506CF92DF92FC
:10378000EF92FF920F931F93CF93DF93CDB7DEB7E6
:1037900028970FB6F894DEBF0FBECDBF8B016A012C
:1037A000865E9D4F7C016AE973E00E9460236CEDA8
:1037B00076E0C7010E946023F801848189831A8220
:1037C00041E050E08E010F5F1F4FB801C7010E941A
:1037D00002234AE0B801C6010E94FD53F80101909E
:1037E0000020E9F73197AF01401B510BB801C70129
:1037F0000E9402230E94D207BC01C8010E947106E8
:10380000B801C7010E946F2389819A810E944553A4
:1038100028960FB6F894DEBF0FBECDBFDF91CF91D3
:103820001F910F91FF90EF90DF90CF900895FC01D2
:10383000DB01A759BF4F8C91882319F022E030E0BB
:1038400002C020E030E0DB01A559BF4F8C918823F6
:1038500011F023E030E0DB01A659BF4F8C918823A3
:1038600011F024E030E0DB01A459BF4F8C91882394
:1038700011F026E030E0DA018D919C91281739078C
:1038800021F091E0121613060CF090E0DA012D936E
:103890003C93992321F0A901CF010C94BE1B0895FC
:1038A000CF93DF938091E50E9091E60E892B59F42A
:1038B00080E093E00E94AD52EC010E948E19D093FB
:1038C000E60EC093E50E8091E50E9091E60EDF9135
:1038D000CF9108954F925F926F927F928F929F92B5
:1038E000AF92BF92CF92DF92EF92FF920F931F930E
:1038F000CF93DF9300D01F92CDB7DEB70E94BC2DCF
:10390000409018095090190960901A0970901B098D
:103910000E94BC2D80901C0990901D09A0901E094A
:10392000B0901F090E94D207C090F40ED090F50EFF
:10393000E090F60EF090F70E0E94D207C701B60194
:103940000E9436586B017C01C301B2010E943658B7
:103950009B01AC01C701B6010E94505A2B013C01EA
:103960006091E10E7091E20E8091E30E9091E40E71
:103970000E9436586B017C01C501B4010E94365883
:103980009B01AC01C701B6010E94505A69837A833A
:103990008B839C830E94501C1F921F921F921F9228
:1039A0001F92812C912CA12CB12CC12CD12C7601F1
:1039B00009811A812B813C81B301A2010E948210EE
:1039C0000E94501C1F921F921F921F921F929701DC
:1039D0008601B301A2010E9482100E94501C1F9216
:1039E0001F921F921F921F9297018601B701A60195
:1039F0000E9482100FB6F894DEBF0FBECDBF80E0EC
:103A000090E00F900F900F900F90DF91CF911F914A
:103A10000F91FF90EF90DF90CF90BF90AF909F906D
:103A20008F907F906F905F904F9008954F925F922C
:103A30006F927F928F929F92AF92BF92CF92DF92BE
:103A4000EF92FF920F931F93CF93DF9300D000D09C
:103A5000CDB7DEB7FB0126892D8387898E838288C7
:103A60009388A684B784C284D384E484F584468092
:103A700057806084718482819381A481B581898318
:103A80009A83AB83BC830E94501C1F921F921F928B
:103A9000AE81AF93BD81BF939301820149815A8169
:103AA0006B817C810E9482100F900F900F900F907D
:103AB0000F9080E090E026960FB6F894DEBF0FBE20
:103AC000CDBFDF91CF911F910F91FF90EF90DF90CD
:103AD000CF90BF90AF909F908F907F906F905F90AE
:103AE0004F900895CF93DF93EB0120E030E040E862
:103AF0005FE36A817B818C819D810E942F588111B7
:103B00000DC085EE96E00E941B0C0E94501C8C5A42
:103B10009F4FFC01108211821282138220E030E05C
:103B200040E85FE36E817F81888599850E942F58E8
:103B300081110DC085EF96E00E941B0C0E94501C65
:103B40008C529F4FFC01108211821282138220E05E
:103B500030E040E85FE36A857B858C859D850E9427
:103B60002F5881110DC085E097E00E941B0C0E9428
:103B7000501C8C5A9E4FFC011082118212821382BB
:103B80000E94D2070E94B50680E090E0DF91CF91BD
:103B9000089508950895089508950895089508953D
:103BA000089508950895CF92DF92EF92FF920F93B8
:103BB0001F93CF93DF936C017A018B01C0E0D0E0BB
:103BC000CE15DF0581F0D8016D918D01D601ED9103
:103BD000FC910190F081E02DC6011995892B11F01F
:103BE0002196EECF7E01C701DF91CF911F910F91FA
:103BF000FF90EF90DF90CF900895089580E090E0DF
:103C00000895FC01538D448D252F30E0842F90E0E2
:103C1000821B930B541710F0CF96089501970895C7
:103C2000FC01918D828D981761F0828DDF01A80FC4
:103C3000B11D5D968C91928D9F5F9F73928F90E0E6
:103C400008958FEF9FEF0895FC01918D828D981755
:103C500031F0828DE80FF11D858D90E008958FEF92
:103C60009FEF0895FC01918D228D892F90E0805C5B
:103C70009F4F821B91098F73992708958BEC9CE0CD
:103C80000E94321E21E0892B09F420E0822F089542
:103C9000FC01848DDF01A80FB11DA35ABF4F2C91E9
:103CA000848D90E001968F739927848FA689B789B8
:103CB0002C93A089B1898C91837080648C93938DAF
:103CC000848D981306C00288F389E02D80818F7D52
:103CD00080830895EF92FF920F931F93CF93DF930A
:103CE000EC0181E0888F9B8D8C8D981305C0E8894D
:103CF000F989808185FD26C0F62E0B8D10E00F5FBF
:103D00001F4F0F731127E02E8C8DE8120CC00FB6D9
:103D100007FCFACFE889F989808185FFF5CFCE01CC
:103D20000E94481EF1CF8B8DFE01E80FF11DE35A72
:103D3000FF4FF0829FB7F8940B8FEA89FB8980814F
:103D400080620AC09FB7F894EE89FF896083E88992
:103D5000F98980818370806480839FBF81E090E0D7
:103D6000DF91CF911F910F91FF90EF900895CF9326
:103D7000DF93EC01888D8823C9F0EA89FB89808173
:103D800085FD05C0A889B9898C9186FD0FC00FB645
:103D900007FCF5CF808185FFF2CFA889B9898C9186
:103DA00085FFEDCFCE010E94481EE7CFDF91CF9176
:103DB000089580E090E0892B21F00E943E1E811141
:103DC00025C080E090E0892B41F080E090E0892BD5
:103DD00021F00E94000081111CC080E090E0892B3E
:103DE00041F080E090E0892B21F00E9400008111D9
:103DF00013C080E090E0892BA1F080E090E0892B57
:103E000081F00E94000081110AC008950E94000004
:103E1000D8CF0E940000E1CF0E940000EACF0C94AE
:103E200000000895CF93DF93FC01A585B6859C9192
:103E30008085809589238C9327E030E080E0C62F31
:103E4000D0E0722FA185B2859681AE01022E02C00C
:103E5000559547950A94E2F740FF03C04C91942B87
:103E600003C04C91909594239C93A585B6854C9165
:103E70009085942B9C93A385B4854C919781942332
:103E800041E050E011F440E050E001C0440F7A9569
:103E9000EAF7842BA585B6854C919085909594235F
:103EA0009C932150310969F6A185B28596812C91A8
:103EB00060FF02C0922B02C0909592239C93A5852F
:103EC000B6852C919085922B9C93A385B4852C91DB
:103ED0009781922321E009F420E0822BDF91CF919A
:103EE00008950F931F93CF93DF938C01D62F672FE5
:103EF0000E94121FC82F6D2FC8010E94121F2C2F65
:103F000030E0322F2227A901482BCA01DF91CF913F
:103F10001F910F91089508950CB405FC0DC09EBD2E
:103F200000000DB407FEFDCF9EB58EBD00000DB4A0
:103F300007FEFDCF8EB508958EBD00000DB407FEBF
:103F4000FDCF8EB59EBD00000DB407FEFDCF9EB522
:103F500008958EBD00000DB407FEFDCF8EB5089507
:103F60008CBD9DBD0895DC01ED91FC910280F38133
:103F7000E02D6FE619946F70DC0195962C91959762
:103F8000207F622B95966C93959792962D913D91FB
:103F90004D915C919597ED91FC910190F081E02D10
:103FA0006CE61994DC0194962C91949760FB21F9AE
:103FB00094962C93949792962D913D914D915C916E
:103FC0009597ED91FC910190F081E02D6CE61994AC
:103FD000DC0193968C91939760FB87F993968C9371
:103FE00093976695617094968C9194978E7F682BC9
:103FF00094966C93949792962D913D914D915C91EE
:104000009597ED91FC9111970190F081E02D6CE670
:10401000CD011994DC0192968C91929760FB87F9FF
:1040200092968C9392976695677093968C919397DE
:10403000887F682B93966C93939792962D913D91E0
:104040004D915C919597ED91FC9111970190F081C4
:10405000E02D6CE6CD011994DC016770962F9295E6
:10406000907F92966C9192976F78692B92966C9351
:10407000929792962D913D914D915C919597ED91EE
:10408000FC9111970190F081E02D6CE6CD0119941F
:104090000E94E75B4F925F926F927F928F929F9206
:1040A000AF92BF92FF920F931F93CF93DF931F9214
:1040B0001F92CDB7DEB78C0149015A016068F62E18
:1040C000FC0183A994A9250166247724892B99F101
:1040D00060E0C8010E94350F6F2DF80183A994A9F3
:1040E0000E94121FF801818BB20183A994A90E943A
:1040F000711FB401F80183A994A90E94711FFF24C4
:10410000F394F80185A9F8160CF043C060E070E064
:1041100083A994A90E94711F60E070E0F80183A94F
:1041200094A90E94711F60E0F80183A994A90E94DC
:10413000121FF394E6CF40E854E86EE170E0CE0140
:1041400001960E94AD0E89819A810E94B01F60E0A5
:10415000C8010E94350F8F2D0E94A91FF801818B85
:10416000C2010E948C1FC4010E948C1FFF24F39483
:10417000F80185A9F8166CF480E090E00E948C1F8D
:1041800080E090E00E948C1F80E00E94A91FF394C1
:10419000EFCF61E0C8010E94350F0F900F90DF91C3
:1041A000CF911F910F91FF90BF90AF909F908F90F4
:1041B0007F906F905F904F900895CF92DF92EF9233
:1041C000FF920F931F93CF93DF931F921F92CDB750
:1041D000DEB78C01E62EFC0183A994A9892B09F492
:1041E00084C060E0C8010E94350F6E2DF80183A9DC
:1041F00094A90E94121F60E070E0F80183A994A9BD
:104200000E94711F60E070E0F80183A994A90E94E8
:10421000711FFF24F394F80185A9F816ACF460E04F
:1042200070E083A994A90E94711F60E070E0F8011A
:1042300083A994A90E94711F60E0F80183A994A941
:104240000E94121FF394E7CF61E0C8010E94350F6E
:1042500060E0C8010E94350F2091CA0CF80183A9C3
:1042600094A9F2169CF460E070E00E94711F60E077
:1042700070E0F80183A994A90E94711F60E0F80121
:1042800083A994A90E94121FF394E6CF6E2D0E9479
:10429000121FF801818B60E083A994A90E94121F6C
:1042A000C82ED12CE12CF12CFE2CED2CDC2CCC24B6
:1042B00060E0F80183A994A90E94121FC82AFE2C6D
:1042C000ED2CDC2CCC2460E0F80183A994A90E9499
:1042D000121FC82AFE2CED2CDC2CCC2460E0F80147
:1042E00083A994A90E94121F6AC040E854E86EE1B5
:1042F00070E0CE0101960E94AD0E89819A810E94E4
:10430000B01F60E0C8010E94350F8E2D0E94A91FCA
:1043100080E090E00E948C1F80E090E00E948C1F63
:10432000FF24F394F80185A9F8166CF480E090E07E
:104330000E948C1F80E090E00E948C1F80E00E9411
:10434000A91FF394EFCF61E0C8010E94350F60E030
:10435000C8010E94350F8091CA0CF8166CF480E0F9
:1043600090E00E948C1F80E090E00E948C1F80E013
:104370000E94A91FF394EFCF8E2D0E94A91FF80170
:10438000818B80E00E94A91FC82ED12CE12CF12C3A
:10439000FE2CED2CDC2CCC2480E00E94A91FC82A26
:1043A000FE2CED2CDC2CCC2480E00E94A91FC82A16
:1043B000FE2CED2CDC2CCC2480E00E94A91FC82A06
:1043C00061E0C8010E94350FC701B6010F900F9040
:1043D000DF91CF911F910F91FF90EF90DF90CF90E1
:1043E00008950E94A50E892F8F7008950E94A50E32
:1043F0008695817008950E94A50E771F7727771FF5
:104400008170880F872B08950E94A50E862F881F24
:104410008827881F7770770F872B08950E94A50E35
:10442000862F829587700895CF92DF92EF92FF9248
:104430000F931F93CF93DF936C018B017A01EC01F3
:10444000C651D14F888187FF04C0FB0111821082C1
:1044500024C02CE02C9DC0012D9D900D112428819D
:10446000AC01420F511D27FD5A952091FA0D30E005
:104470004217530794F42881AC01420F511D27FDC8
:104480005A959A01FA01EE0FFF1F2E0F3F1FF901F7
:10449000E659F24F208126FD19C088818F5F8883FD
:1044A0002CE02C9DC0012D9D900D11242881AC0184
:1044B000420F511D27FD5A952091FA0D30E0421709
:1044C0005307BCF428812C3044F113C02881820F9B
:1044D000911D27FD9A95FC01EE0FFF1F8E0F9F1F68
:1044E000FC01E659F24F808160E08F730E94060F55
:1044F000D4CFF80180819181049680349C4918F4CE
:1045000080E49CE904C0F801808191810496F70160
:10451000918380838FEF888345C0F801408151816A
:104520002881BC01620F711D27FD7A959B01FB015B
:10453000EE0FFF1F2E0F3F1FF901E659F24F2181A9
:104540003281240F351FF701318320832881AC018C
:10455000420F511D27FD5A959A01FA01EE0FFF1FD8
:104560002E0F3F1FF901E659F24F208126FF1AC096
:104570002881820F911D27FD9A95FC01EE0FFF1FE8
:104580008E0F9F1FFC01E659F24F808161E08F730F
:10459000DF91CF911F910F91FF90EF90DF90CF901F
:1045A0000C94060FDF91CF911F910F91FF90EF9028
:1045B000DF90CF9008950F931F93CF93DF93EC017B
:1045C00088819981009729F02A813B812617370736
:1045D00088F48B016F5F7F4F0E94025B009761F050
:1045E000998388831B830A832C813D81232B11F4BB
:1045F000FC01108281E001C080E0DF91CF911F912A
:104600000F910895EF92FF920F931F93CF93DF9333
:104610006115710511F480E01CC041155105C1F010
:104620007B01EC018C819D818A01080F191FB80163
:10463000CE010E94DB22882371F3288139818C818D
:104640009D81B701820F931F0E94FE5B1D830C8327
:1046500081E0DF91CF911F910F91FF90EF9008952E
:10466000EF92FF920F931F93CF93DF93CDB7DEB7F7
:1046700027970FB6F894DEBF0FBECDBF7C01CB01EC
:104680004AE08E010F5F1F4FB8010E943954F801B4
:1046900001900020E9F73197AF01401B510BB801A1
:1046A000C7010E94022327960FB6F894DEBF0FBE03
:1046B000CDBFDF91CF911F910F91FF90EF900895A3
:1046C0006115710551F0FB0101900020E9F7319768
:1046D000AF01461B570B0C94022380E00895FB01A9
:1046E00044815581608171810C9402231F920F9245
:1046F0000FB60F9211240BB60F922F933F934F9347
:104700005F936F937F938F939F93AF93BF93EF9339
:10471000FF938BEC9CE00E94481EFF91EF91BF91AC
:10472000AF919F918F917F916F915F914F913F9149
:104730002F910F900BBE0F900FBE0F901F901895EA
:104740001F920F920FB60F9211240BB60F922F9358
:104750008F939F93EF93FF93E091DB0CF091DC0C30
:104760008081E091E10CF091E20C82FD12C0908119
:104770008091E40C8F5F8F732091E50C821751F0CC
:10478000E091E40CF0E0E553F34F958F8093E40C57
:1047900001C08081FF91EF919F918F912F910F9098
:1047A0000BBE0F900FBE0F901F901895CF92DF9207
:1047B000EF92FF92CF93DF93EC01603282E07807B3
:1047C0000CF03DC077FD06C0653B71052CF064EB35
:1047D00070E002C060E070E0898128E830E06901A3
:1047E000C81AD10887FDD394CC0CDD1CCC0CDD1C81
:1047F0000D2C000CEE08FF088A8128E532E0281B0A
:10480000310987FD3395220F331F220F331FC90152
:10481000330FAA0BBB0B9C01AD012C193D094E09AE
:104820005F09DB010E94965924EB30E040E050E044
:104830000E946C59C20ED31EE41EF51EB6013881CB
:10484000303380F5298188E890E0821B910927FDAB
:104850009395880F991F880F991F6817790784F01F
:104860008A8148E552E0481B510987FD5395440F62
:10487000551F440F551FCB01461757070CF4CA01AB
:104880000297880F991F4FB7F894232F30E0F90152
:10489000EE0FFF1F2E0F3F1FF901E659F24F9283D3
:1048A00081834FBFDF91CF91FF90EF90DF90CF904A
:1048B00008951F93CF93DF93EC01162F88818033E7
:1048C00008F04EC061E0812F0E94390F8881E82FE7
:1048D000F0E09F01220F331FE20FF31FE659F24F62
:1048E0001F739081907C192B108319821A826CE0BF
:1048F0000E94CF599CE0899FB001112440E050E014
:104900009B01240F351FF901EE0FFF1F2E0F3F1FD4
:10491000F901E659F24F908196FD16C04F5F5F4F47
:104920004C30510569F7813001F51092800082E02A
:10493000809381001092850010928400B19A80913A
:104940006F00826080936F00E881F0E0CF01880FF4
:10495000991FE80FF91FE659F24F80818064808328
:104960008881DF91CF911F910895823061F4109278
:10497000900080939100109295001092940088BB53
:1049800080937100E1CF833069F41092A00082E03F
:104990008093A1001092A5001092A40089BB80937F
:1049A0007200D2CF8111D0CF1092200182E080938B
:1049B000210110922501109224018ABB809373007B
:1049C000C3CF1F920F920FB60F9211240BB60F9206
:1049D0002F933F934F935F936F937F938F939F9307
:1049E000AF93BF93EF93FF9348E251E064E271E02D
:1049F00080E090E00E941422FF91EF91BF91AF916F
:104A00009F918F917F916F915F914F913F912F91E6
:104A10000F900BBE0F900FBE0F901F9018951F9216
:104A20000F920FB60F9211240BB60F922F933F9354
:104A30004F935F936F937F938F939F93AF93BF93A6
:104A4000EF93FF9348EA50E064EA70E083E090E07F
:104A50000E941422FF91EF91BF91AF919F918F918E
:104A60007F916F915F914F913F912F910F900BBE6E
:104A70000F900FBE0F901F9018951F920F920FB6B8
:104A80000F9211240BB60F922F933F934F935F9386
:104A90006F937F938F939F93AF93BF93EF93FF9306
:104AA00048E950E064E970E082E090E00E9414225E
:104AB000FF91EF91BF91AF919F918F917F916F91F6
:104AC0005F914F913F912F910F900BBE0F900FBEB2
:104AD0000F901F9018951F920F920FB60F921124EE
:104AE0000BB60F922F933F934F935F936F937F93E8
:104AF0008F939F93AF93BF93EF93FF9348E850E05A
:104B000064E870E081E090E00E941422FF91EF9150
:104B1000BF91AF919F918F917F916F915F914F91D5
:104B20003F912F910F900BBE0F900FBE0F901F90D3
:104B300018951F920F920FB60F9211240BB60F9279
:104B4000EF92FF920F931F932F933F934F935F9397
:104B50006F937F938F939F93AF93BF93CF93DF9385
:104B6000EF93FF938091E90E811123C081E0809340
:104B7000E90E0E94501CEC017C0180E1E80EF11C62
:104B8000C7010E94E4308E0100571F4FC8010E94E8
:104B9000E430C05FDE4FCE010E94E430C7010E94C6
:104BA000A130C8010E94A130CE010E94A130109214
:104BB000E90EFF91EF91DF91CF91BF91AF919F915E
:104BC0008F917F916F915F914F913F912F911F91A5
:104BD0000F91FF90EF900F900BBE0F900FBE0F90B4
:104BE0001F9018951F920F920FB60F9211240BB6BB
:104BF0000F922F933F934F935F936F937F938F9376
:104C00009F93AF93BF93EF93FF93E0E0F0E019958C
:104C1000FF91EF91BF91AF919F918F917F916F9194
:104C20005F914F913F912F910F900BBE0F900FBE50
:104C30000F901F9018958091E70E9091E80E892BA8
:104C400041F481E090E00E94AD529093E80E809391
:104C5000E70E8091E70E9091E80E08952F923F9213
:104C60004F925F926F927F928F929F92AF92BF927C
:104C7000CF92DF92EF92FF920F931F93CF93DF9328
:104C8000CDB7DEB765970FB6F894DEBF0FBECDBFC8
:104C90008C010E94BC2DF801E45DFD4F81E0409144
:104CA00008095091090960910A0970910B09452B77
:104CB000462B472B09F480E080830E94BC2DF8012D
:104CC000E35DFD4F81E040910C0950910D09609129
:104CD0000E0970910F09452B462B472B09F480E0F4
:104CE00080830E94BC2DF801E25DFD4F81E0409180
:104CF0001009509111096091120970911309452B07
:104D0000462B472B09F480E080830E94BC2D8091C4
:104D1000580990915909A0915A09B0915B09F8017D
:104D2000E15DFD4F80839183A283B3830E94BC2DFC
:104D300080915C0990915D09A0915E09B0915F0935
:104D4000F801ED5CFD4F80839183A283B3830E94C1
:104D5000BC2D8091600990916109A0916209B09188
:104D60006309F801E95CFD4F80839183A283B383DB
:104D70000E94BC2D8091300990913109A091320997
:104D8000B0913309F801E55CFD4F80839183A283E4
:104D9000B3830E94BC2D8091340990913509A09174
:104DA0003609B0913709F801E15CFD4F80839183AA
:104DB000A283B3830E94BC2D809138099091390958
:104DC000A0913A09B0913B09F801ED5BFD4F80835A
:104DD0009183A283B3830E94BC2D8091400990915E
:104DE0004109A0914209B0914309F801E95BFD4FE7
:104DF00080839183A283B3830E94BC2D8091440958
:104E000090914509A0914609B0914709F801E55BE9
:104E1000FD4F80839183A283B3830E94BC2D809138
:104E2000480990914909A0914A09B0914B09F801AC
:104E3000E15BFD4F80839183A283B3830E94BC2DED
:104E40008091E0089091E108A091E208B091E30818
:104E5000F801ED5AFD4F80839183A283B3830E94B2
:104E6000BC2D8091E4089091E508A091E608B091EE
:104E7000E708F801E95AFD4F80839183A283B38349
:104E80000E94BC2D8091E8089091E908A091EA0861
:104E9000B091EB08F801E55AFD4F80839183A2831E
:104EA000B3830E94BC2DF801E15AFD4F81E02091AF
:104EB000B8083091B9082130310509F080E08083CD
:104EC0000E94BC2DF801E05AFD4F81E02091BC0802
:104ED0003091BD082130310509F080E080830E94C7
:104EE000BC2DF801EF59FD4F81E02091C0083091B1
:104EF000C1082130310509F080E080830E94BC2D7B
:104F0000F801E358FD4F81E04091900850919108DD
:104F10006091920870919308452B462B472B09F41A
:104F200080E080830E94BC2DF801E258FD4F81E0B3
:104F30004091940850919508609196087091970857
:104F4000452B462B472B09F480E080830E94BC2D23
:104F5000F801E158FD4F81E040919808509199087F
:104F600060919A0870919B08452B462B472B09F4BA
:104F700080E080830E94BC2DF801E058FD4F81E065
:104F8000409168095091690960916A0970916B09B3
:104F9000452B462B472B09F480E080830E94BC2DD3
:104FA000F801EF57FD4F81E040916C0950916D0978
:104FB00060916E0970916F09452B462B472B09F4C0
:104FC00080E080830E94BC2DF801EE57FD4F81E008
:104FD0004091700950917109609172097091730943
:104FE000452B462B472B09F480E080830E94BC2D83
:104FF000F801ED57FD4F81E02091A0083091A10804
:105000002130310509F080E080830E94BC2DF80139
:10501000EC57FD4F81E02091A4083091A508213084
:10502000310509F080E080830E94BC2DF801EB5728
:10503000FD4F81E02091A8083091A9082130310569
:1050400009F080E080830E94BC2D809168089091D7
:105050006908A0916A08B0916B08F801EA57FD4F02
:1050600080839183A283B3830E94BC2D80916C08BE
:1050700090916D08A0916E08B0916F08F801E65705
:10508000FD4F80839183A283B3830E94BC2D8091C6
:10509000700890917108A0917208B0917308F8019E
:1050A000E257FD4F80839183A283B3830E94BC2D7E
:1050B000F801EF58FD4F81E0409178085091790850
:1050C00060917A0870917B08452B462B472B09F499
:1050D00080E080830E94BC2DF801EE58FD4F81E0F6
:1050E00040917C0850917D0860917E0870917F0806
:1050F000452B462B472B09F480E080830E94BC2D72
:10510000F801ED58FD4F81E04091800850918108F1
:105110006091820870918308452B462B472B09F438
:1051200080E080830E94BC2D8091700A9091710A6A
:10513000A091720AB091730AF801EE59FD4F808375
:105140009183A283B3830E94BC2D8091740A9091B5
:10515000750AA091760AB091770AF801EA59FD4FD5
:1051600080839183A283B3830E94BC2D8091780AAF
:105170009091790AA0917A0AB0917B0AF801E659D8
:10518000FD4F80839183A283B3830E94BC2DF801DD
:10519000EC58FD4F81E02091D0083091D1082130AA
:1051A000310509F080E08083F801EB58FD4F108253
:1051B000319610820E94BC2DF801E958FD4F81E024
:1051C0002091CC083091CD082130310509F080E0E4
:1051D0008083F801E858FD4F1082319610820E94BA
:1051E000BC2DF801E658FD4F81E02091F008309188
:1051F000F1082130310509F080E080830E94BC2D48
:10520000F801E558FD4F81E02091F4083091F50850
:105210002130310509F080E080830E94BC2DF80127
:10522000E458FD4F81E02091F8083091F9082130D1
:10523000310509F080E080830E94BC2DF801E2591D
:10524000FD4F81E02091800A3091810A21303105A3
:1052500009F080E080830E94BC2DF801E159FD4FE8
:1052600081E02091840A3091850A2130310509F0CE
:1052700080E080830E94BC2DF801E059FD4F81E061
:105280002091880A3091890A2130310509F080E0A7
:1052900080830E94BC2D38012EE6621A2DEF720A1F
:1052A0008091180990911909A0911A09B0911B09D0
:1052B000F30180839183A283B3830E94BC2D5801A4
:1052C000FAE6AF1AFDEFBF0A80911C0990911D0903
:1052D000A0911E09B0911F09F50180839183A283DB
:1052E000B3830E94BC2D8091200990912109A09147
:1052F0002209B0912309980126563D4FF901808378
:105300009183A283B383F3014081518162817381D0
:10531000141615061606170644F041E050E060E04A
:1053200070E04083518362837383F5014081518132
:1053300062817381141615061606170644F041E0C3
:1053400050E060E070E040835183628373831816FD
:1053500019061A061B064CF081E090E0A0E0B0E0D0
:10536000F90180839183A283B383D901CD90DD902D
:10537000ED90FC90F50180809180A280B380D301F4
:105380004D905D906D907C900E94D207FC01408210
:1053900051826282738284829582A682B782C0869D
:1053A000D186E286F386F801E259FD4FB081B983D8
:1053B0003C9780819181A281B3818A8B9B8BAC8B3E
:1053C000BD8B789690819E83399630803F97A081DF
:1053D000AA87339620803996B081BF873397208182
:1053E0002B877E973081F3972081E65AFF4F4081CB
:1053F000518162817381F397C080D180E280F38014
:105400003C9780809180A280B3803C9740805180FF
:10541000628073803C9780819181A281B381F80181
:1054200086A797A7A0ABB1AB42AA53AA64AA75AA54
:1054300086AA97AAA0AEB1AEC2AED3AEE4AEF5AE28
:10544000FE96408351836283738334962083319622
:1054500030832B85F80123A78F8584A735A6EA5BC7
:10546000FF4F80E490E0A0E0B0E080839183A283CE
:10547000B3833297208231969A8590833596AE8198
:10548000A08331968A899B89AC89BD898083918369
:10549000A283B383349699819083E05EFD4FA0810F
:1054A000A983399780819181A281B3818E839F8363
:1054B000A887B987759690819A873996A081AA8323
:1054C0003F97B081BB87339620812F873996208004
:1054D000339730807E973081F3972081E35AFF4FD6
:1054E00080819181A281B381F39740815181628152
:1054F00073813C97C080D180E280F3803C978080AC
:105500009180A280B380EF5AF140F98BE88BED5582
:10551000FE4F4080518062807380E889F989468E11
:10552000578E60A271A282A293A2A4A2B5A2C6A223
:10553000D7A2E0A6F1A642A753A764A775A786A79E
:1055400097A7A0ABB1AB22AB33AB338E248E2A81AD
:10555000258F80E490E0A0E0B0E086AB97ABA0AFF1
:10556000B1AF2F8524AB8B8585AB9A8592AF8E81A9
:105570009F81A885B98583AF94AFA5AFB6AF2981C8
:1055800027AFF801E059FD4F8081898336978081EC
:105590009181A281B3818E839F83A887B9877296F8
:1055A00090819A87399630803F97A081AA8333965D
:1055B00020803996C0803397D0807E973081F397D2
:1055C0002081E05AFF4F80819181A281B3818B8736
:1055D0009C87AD87BE87F39780819181A281B3813B
:1055E0003C9740815181628173813C97808091809A
:1055F000A280B3807801E0EFEE1AEEEFFE0AF80128
:10560000E95CFD4F4080518062807380F701468ED7
:10561000578E60A271A282A293A2A4A2B5A246A3B1
:1056200057A360A771A782A793A7A4A7B5A78B8547
:105630009C85AD85BE8586A797A7A0ABB1AB22ABF5
:1056400033ABD38EC48E358E80E490E0A0E0B0E022
:1056500086AB97ABA0AFB1AF24AA2A8125AB8A85D0
:1056600082AF8E819F81A885B98583AF94AFA5AFA6
:10567000B6AF298127AF680180E1C80ED11CC601F1
:105680000E942043888999890E942043C7010E9473
:1056900020430E94BC2DA0908009B09081090E94F7
:1056A000BC2D80909009909091090E94BC2D209172
:1056B000A8093091A909A401B501C6010E941C41A5
:1056C0000E94BC2DA0908409B09085090E94BC2D39
:1056D00080909409909095090E94BC2D2091AC096E
:1056E0003091AD09A401B501888999890E941C41B6
:1056F0000E94BC2DA0908809B09089090E94BC2D01
:1057000080909809909099090E94BC2D2091B00931
:105710003091B109A401B501C7010E941C41F801F3
:10572000EF58FD4F8081882321F0C6010E945F2F32
:1057300003C0C6010E944B2FF801EE58FD4F808137
:10574000882329F0888999890E945F2F04C088895D
:1057500099890E944B2FF801ED58FD4F80818823D5
:10576000D9F0C70165960FB6F894DEBF0FBECDBF66
:10577000DF91CF911F910F91FF90EF90DF90CF902D
:10578000BF90AF909F908F907F906F905F904F9061
:105790003F902F900C945F2FC70165960FB6F89439
:1057A000DEBF0FBECDBFDF91CF911F910F91FF9054
:1057B000EF90DF90CF90BF90AF909F908F907F90B1
:1057C0006F905F904F903F902F900C944B2F8F9243
:1057D0009F92CF92DF92EF92FF920F931F93CF93FE
:1057E000DF93CDB7DEB7D4018C91882399F178018E
:1057F00069018B01FB0180819181DC01ED91FC91BC
:105800000084F185E02D19950C5B1F4F90FF18C0A7
:1058100020E030E040E85FE3F60160817181828141
:1058200093810E94E459D6016D937D938D939C934F
:105830001397F70180819181A281B381F80106C09D
:10584000F80180819181A281B381F70180839183E6
:10585000A283B383DF91CF911F910F91FF90EF90BF
:10586000DF90CF909F908F900895089508950F93A3
:105870001F93CF93DF938C01C0E0D0E0BE01C8013D
:105880000E940836882321F0BE01C8010E94B0366C
:105890002196C13ED10591F780E090E0DF91CF9154
:1058A0001F910F9108954F925F926F927F928F9206
:1058B0009F92AF92BF92CF92DF92EF92FF920F939F
:1058C0001F93CF93DF938B01EB01CC0FDD1FCE0134
:1058D0000E945659882E912CA12CB12CCE010196F4
:1058E0000E945659C82ED12CE12CF12C0D581109CB
:1058F0000330110588F5CE0144960E945659482E72
:10590000512C612C712CCE0145960E945659482F7E
:1059100050E060E070E08FEF4816510461047104BC
:10592000A9F44F3F51056105710581F48FEF881689
:105930009104A104B10481F48FEFC816D104E104ED
:10594000F10451F46FEF7FEFCB012BC040385105CC
:10595000610571056CF0F6CF80E8C816D104E1044A
:10596000F10484F740E050E0BA01412C512C32019F
:10597000FE2CED2CDC2CCC248C0C9D1CAE1CBF1CF6
:10598000320155244424840C951CA61CB71C742F8A
:10599000662755274427CB01BA01680D791D8A1D5A
:1059A0009B1DDF91CF911F910F91FF90EF90DF90A2
:1059B000CF90BF90AF909F908F907F906F905F90AF
:1059C0004F900895CF93DF93EC018F81882331F0BE
:1059D00061E089890E94060F1F8206C060E0898904
:1059E0000E94060F81E08F83DF91CF910895CF93BE
:1059F000DF93EC018E81882331F061E08B850E947A
:105A0000060F1E8206C060E08B850E94060F81E0B3
:105A10008E83DF91CF91089560E0FC0181890C9421
:105A2000060F60E0FC0183850C94060F61E0FC0129
:105A300081890C94060F61E0FC0183850C94060FAC
:105A4000CF92DF92EF92FF920F931F93CF93DF934A
:105A50008B0169017A01EB01CC0FDD1F6C2DCE01AA
:105A60000E945E599927F7FC9A958F2D7E2D6D2DFA
:105A7000CE0101960E945E590D581109033011059F
:105A800088F4B701992777FD9095892FCE01449628
:105A90000E945E596F2D772788279927CE0145965A
:105AA0000E945E5980E090E0DF91CF911F910F91AD
:105AB000FF90EF90DF90CF900895CF92DF92EF921A
:105AC000FF92CF93DF93EB010E940836882359F1B0
:105AD000FE01EE0FFF1FEE0FFF1FE45CF74FC080CB
