:100000000C9489040C94BA040C94BA040C94BA04A9
:100010000C94BA040C94BA040C94BA040C94BA0468
:100020000C94BA040C94BE1F0C94BE1F0C94BE1FFB
:100030000C94BA040C94BA040C94BA040C946F197E
:100040000C94BA040C94DA440C94BA040C94BA04D8
:100050000C94B6160C94BA040C94BA040C94B245E1
:100060000C94BA040C940F430C94E5420C94BA041B
:100070000C94BA040C94BA040C94BA040C94BA0408
:100080000C94AC440C94BA040C94BA040C94BA04C6
:100090000C94BA040C94BA040C94BA040C94BA04E8
:1000A0000C94BA040C94BA040C947E440C94BA04D4
:1000B0000C94BA040C94BA040C94BA040C945044F2
:1000C0000C94BA040C94BA040C94BA040C94BA04B8
:1000D0000C94BA040C94BA040C94BA040C94BA04A8
:1000E0000C94BA04570C640C6D0C760C830C8C0CBD
:1000F00099109910991099109910990CA60CB30C9D
:100100009910C00CCD0CDA0CE70CF00CF90C020DB8
:100110000B0D140D99101D0D260D2F0D9910991012
:100120009910380D410D4A0D99109910530D600D1D
:100130009910991099106D0D7A0D870D9910940DE5
:100140009D0DA60D991099109910AF0DB80DC10D08
:100150009910CE0DDB0DE80D991099109910F50D41
:10016000020E0F0E99101C0E290E360E99109910C2
:100170009910430E500E5D0E99106A0E730E7C0E90
:10018000991099109910A00EAD0EBA0E9910C70EC5
:10019000D40EE10E991099109910EE0EF70E000F83
:1001A0009910991099109910991099109910090F98
:1001B000120F1B0F9910240F2D0F360F9910991045
:1001C00099103F0F4C0F590F9910660F730F800F46
:1001D0009910991099108D0F9A0FA70F9910B40FBD
:1001E000BD0FC60F991099109910CF0FD80FE10FBE
:1001F00099109910991099109910991099109910B7
:10020000991099109910850E8E0E970E99109910CD
:100210009910991099109910991099109910991096
:100220009910991099109910991099109910991086
:100230009910991099109910991099109910991076
:100240009910991099109910991099109910991066
:100250009910991099109910991099109910991056
:100260009910991099109910991099109910991046
:10027000991099109910EA0FF30F001099100D10B2
:10028000161023109910991099103010391046103B
:10029000991053105C1069109910991099107610EC
:1002A0007F108C107B1C7E1C6D1C711C771CB51C78
:1002B000821C861C8C1C901C941C9A1C9E1CA21CCC
:1002C000B51CA81CAC1CB01C1A341F3424342E34AA
:1002D0003834B13442344A3452345C346634703485
:1002E0007F348934B13493349D34A7340C94730F24
:1002F0000C94BE060C94CA040C94BA0E0C94F90C1F
:100300000C94FB040C94C60F0C943F0F0C947F10BC
:100310000C94410D0C94B51C0C9478160C947F34FD
:100320000C94A1400C94A21C0C94850E0C9489345E
:100330000C9423100C9466110C949C050C94A81C2E
:100340000C94020E0C94DA0C0C940D100C940B0D02
:100350000C942F0D0C94D9130C94B9060C948D1693
:100360000C946D0C0C94E80D0C94B8060C940010D1
:100370000C94660F0C946E110C94590F0C946D1C18
:100380000C94AC160C944A340C94C2060C94C0061F
:100390000C944A0D0C949D0D0C94500E0C94C604B4
:1003A0000C94CD0C0C945B140C94C70E0C94B306F7
:1003B0000C94CE0D0C94D40E0C940C140C94B60624
:1003C0000C946D080C947A060C94A7160C942314C4
:1003D0000C945C340C9408060C945F160C94B134A5
:1003E0000C94360E0C9453100C941C0E0C94F00CC0
:1003F0000C941D0C0C94CC110C94D80F0C945E052D
:100400000C94F50D0C941D0D0C94DB0D0C941B50ED
:100410000C94CC040C94CE040C94D2040C940F0EC7
:100420000C94260D0C9441060C948C1C0C94DB133C
:100430000C942E340C9441050C94B40F0C949D3400
:100440000C94AF0D0C94870D0C94D8130C946D0D77
:100450000C94830C0C941F340C948C100C94F70E99
:100460000C94EA0F0C946C110C9439140C945234C3
:100470000C94AC050C94BD0F0C94941C0C94BB050F
:100480000C9470400C94DA130C949A090C9470112B
:100490000C94821C0C94BE040C94530D0C94C10655
:1004A0000C94430E0C9470340C9426410C94E70C7D
:1004B0000C94090F0C945A160C949A1C0C94B406C4
:1004C0000C94BC060C941B0F0C94A00E0C94991069
:1004D0000C94861C0C946A0E0C94AE140C94730E3F
:1004E0000C9441150C9468160C94800F0C94600DBC
:1004F0000C94140D0C94240F0C94D6130C94C20479
:100500000C94EE0E0C94C8040C94BA060C94C00C17
:100510000C94C0040C94DA040C9453110C94020D46
:100520000C947F400C94E10E0C948E0E0C947B1C6A
:100530000C94B1160C94640C0C9469100C94771CF8
:100540000C94000F0C9476100C9455160C94C10D5D
:100550000C947D140C94B01C0C94B5060C946A1188
:100560000C94A5100C947E1C0C94DC040C94D00408
:100570000C94A7340C94A60C0C94711C0C941A3493
:100580000C9468110C947C0E0C9429130C94243454
:100590000C94BC040C94D8040C94AD0E0C94470835
:1005A0000C94990C0C94B7060C94940D0C94BD0605
:1005B0000C94B30C0C94E10F0C94D6040C948C0C9A
:1005C0000C94901C0C94380D0C945C100C944240CC
:1005D0000C9499140C9446100C9439100C94BF068A
:1005E0000C94BB060C94D4040C94C90B0C943010DE
:1005F0000C949A140C9438340C94D9400C946211D5
:100600000C94290E0C9493400C94F30F0C945D0EF3
:100610000C94570C0C942D0F0C9440080C944234FD
:100620000C94120F0C9416100C94B00A0C94041431
:100630000C94D5130C947A0D0C949E1C0C94721689
:100640000C94A60D0C944C0F0C948D0F0C94360F3B
:100650000C94A2160C94AC1C0C9480500C94933403
:100660000C94D7130C94760C0C94C4040C9466343C
:100670000C94B80D0C94970E0C949A0F0C94A70F31
:100680000C9464110C94CF0F4E414E494E4954596D
:10069000494E46CDCCCC3D0AD7233C17B7D138774D
:1006A000CC2B329595E6241FB14F0A000020410063
:1006B00000C84200401C4620BCBE4CCA1B0E5AAEAD
:1006C000C59D7400407A10F35A00A0724E180900BC
:1006D00010A5D4E80000E87648170000E40B5402A7
:1006E0000000CA9A3B000000E1F5050000809698E2
:1006F00000000040420F000000A086010000001032
:100700002700000000E80300000000640000000073
:10071000000A00000000000100000000002C76D854
:1007200088DC674F0823DFC1DFAE59E1B1B796E53A
:10073000E3E453C63AE651997696E8E6C28426EB9E
:10074000898C9B62ED407C6FFCEFBC9C9F40F2BAB1
:10075000A56FA5F490055A2AF75C936B6CF9676D49
:10076000C11BFCE0E40D47FEF520E6B500D0ED909E
:100770002E0300943577050080841E080000204E6B
:100780000A000000C80C333333330F986E12831104
:1007900041EF8D2114893BE65516CFFEE6DB18D1DB
:1007A000844B381BF77C1D901DA4BBE424203284AD
:1007B000725E228100C9F124ECA1E53D27000021F1
:1007C00000240027002A002D003000330001010022
:1007D00000040107010A0100000A0B02090C0D0EBA
:1007E00008070304010000000000000000000000F2
:1007F00000000000000000000000000000000000F9
:1008000000000012111000000000000000000000B5
:1008100000000000000000000000000000000000D8
:1008200000000000000000000000000000010210B5
:1008300020200808102040102040800201020108FA
:1008400004020101020408102040808040201008AA
:100850000402018004020180402010080402010803
:100860000402010102040810204080010204081063
:100870002040801008040880102040044080102090
:10088000400480000020002300260029002C002FB7
:1008900000320000010000030106010901000022EE
:1008A00000250028002B002E00310034000201003A
:1008B00000050108010B01050505050705080808E5
:1008C00008020202020A0A080804040404010101E1
:1008D00001010101010303030303030303040707E9
:1008E000070C0C0C0C0C0C0C0C0202020206060687
:1008F00006060606060B0B0B0B0B0B0B0B07070A6A
:100900000A0A0A0A0A0505050404040808008050BA
:100910001B5011241FBECFEFD1E2DEBFCDBF00E0E0
:100920000CBF17E0A0E0B2E0ECE2F5EB00E00BBF9B
:1009300002C007900D92AE35B107D9F72EE0AEE5B3
:10094000B7E001C01D92AB33B207E1F714E0C8E88D
:10095000D4E000E006C021970109802FFE010E942B
:100960005A58C738D10780E00807A9F70E94FC450C
:100970000C94845A0C9400000C94C4510C94C451EF
:100980000C94C4510C94C4510C94C4510C94C45193
:100990000C94C4510C94C4510C94C4510C94C45183
:1009A0000C94C4510C94C4510C94C4510C94C45173
:1009B0000C94C4510C94C4510F931F93CF93DF93A5
:1009C000FB0102A913A9C68DD78D0E94BE34A801D0
:1009D000BE010E946B3380E090E0DF91CF911F91C8
:1009E0000F910895662319F083EC93E002C08CEB1D
:1009F00093E00C94091D0F931F93CF93DF93FB019A
:100A000002A113A1C68DD78D0E94F632C530D10543
:100A1000E1F064F4249771F56DE070E084E09EE00D
:100A20000E94C843B80184E09EE022C0C630D105D0
:100A3000B1F02B97F9F464E070E08DE09EE00E9445
:100A4000C843B8018DE09EE013C06BE070E087E022
:100A50009EE00E94C843B80187E09EE009C06AE0BA
:100A600070E08AE09EE00E94C843B8018AE09EE000
:100A70000E94454380E090E0DF91CF911F910F915C
:100A80000895EF92FF920F931F93CF93DF93FB0193
:100A9000E2A8F3A802A113A1C68DD78D0E94BE348F
:100AA0009701A801BE010E94D73380E090E0DF915A
:100AB000CF911F910F91FF90EF9008954F925F9209
:100AC0006F927F92AF92BF92CF92DF92EF92FF929E
:100AD0000F931F93CF93DF93FB01E2A8F3A846A4E3
:100AE00057A460A871A8C6A0D7A0A2A0B3A0068DE5
:100AF000178D0E94BE34EC019701A501B8010E9438
:100B0000D733C301B2010E9433219701A601B80176
:100B1000CE010E94D73380E090E0DF91CF911F910A
:100B20000F91FF90EF90DF90CF90BF90AF907F90AC
:100B30006F905F904F900895CF93DF93FB01D2A900
:100B4000C68D0E94BE346D2F8C2F0E94242080E021
:100B500090E0DF91CF910895CF93DF93FB01C68D95
:100B6000D78D0E94A312BE010E94601280E090E027
:100B7000DF91CF910895CF92DF92EF92FF920F9382
:100B80001F93CF93DF93FB01C2A0D3A0E4A0F5A0F5
:100B9000068D178D0E94A312EC018A819B818F30F4
:100BA000F7E29F0724F401969B838A8302C01B828D
:100BB0001A82B801CE010E9426358823B1F0F801CF
:100BC000EE0FFF1FEE0FFF1FEC59F84FC082D182CE
:100BD000E282F382A7019601B801CE010E9423129E
:100BE000B801CE010E94601204C086EB94E00E941E
:100BF000091D0E943E330E94093380E090E0DF919E
:100C0000CF911F910F91FF90EF90DF90CF900895BB
:100C10008F929F92AF92BF92CF92DF92EF92FF920C
:100C20000F931F930E94DC3262E070E00E94BF3A93
:100C3000892BD1F40E94DC3221E02F931F921F9266
:100C40001F921F92812C912CA12CB12CC12CD12C44
:100C5000760197018601B701A6010E946D210F90D0
:100C60000F900F900F900F9080E090E01F910F91E8
:100C7000FF90EF90DF90CF90BF90AF909F908F90BC
:100C800008958F929F92AF92BF92CF92DF92EF9290
:100C9000FF920F931F930E94DC3261E070E00E948C
:100CA000BF3A892BD1F40E94DC321F9221E02F93AE
:100CB0001F921F921F92812C912CA12CB12CC12C20
:100CC000D12C760197018601B701A6010E946D2102
:100CD0000F900F900F900F900F9080E090E01F9179
:100CE0000F91FF90EF90DF90CF90BF90AF909F90CB
:100CF0008F9008958F929F92AF92BF92CF92DF9282
:100D0000EF92FF920F931F930E94DC3260E070E03D
:100D10000E94BF3A892BD1F40E94DC321F921F92AD
:100D200021E02F931F921F92812C912CA12CB12C8A
:100D3000C12CD12C760197018601B701A6010E9432
:100D40006D210F900F900F900F900F9080E090E02A
:100D50001F910F91FF90EF90DF90CF90BF90AF90D9
:100D60009F908F9008950895089508950895089587
:100D7000089508950895089508950895089508958B
:100D8000089508950895EF92FF920F931F93CF93C4
:100D9000DF93CDB7DEB72E970FB6F894DEBF0FBE48
:100DA000CDBF8C010E943C1D68ED74E0C8010E941B
:100DB000CF426091600770916107809162079091C6
:100DC00063072AE0AE014F5F5F4F7A010E948752AE
:100DD000F70101900020E9F73197AF014E195F0943
:100DE000B701C8010E94714262EB73E0C8010E9422
:100DF000CF42C8012E960FB6F894DEBF0FBECDBF0E
:100E0000DF91CF911F910F91FF90EF90089588EDA2
:100E100094E00E94091D60916007709161078091C4
:100E20006207909163070E946A1D82EB93E00C9425
:100E3000091D0F931F93CF93DF93EC018BED94E08B
:100E40000E94091D8FED94E00E94091D0CEE1BE02D
:100E5000F8016081CE010E94F20483EE94E00E94CA
:100E6000091DF8016181CE010E94F20487EE94E031
:100E70000E94091DF8016281CE010E94F2048BEEEE
:100E800094E00E94091DF8016381CE010E94F204E2
:100E90008FEE94E00E94091DF8016481CE010E944A
:100EA000F20483EF94E00E94091DF8016581CE01F0
:100EB0000E94F204CE01DF91CF911F910F910C940B
:100EC0000707CF92DF92EF92FF92CF93DF93EC016F
:100ED00088819981AA81BB81181619061A061B06FA
:100EE00044F081E090E0A0E0B0E088839983AA8399
:100EF000BB838C819D81AE81BF81181619061A06AD
:100F00001B0644F081E090E0A0E0B0E08C839D837C
:100F1000AE83BF8388859985AA85BB851816190677
:100F20001A061B0644F081E090E0A0E0B0E088875C
:100F30009987AA87BB8787EF94E00E94091D88E103
:100F400095E00E94091D60911A0E70911B0E809110
:100F50001C0E90911D0E0E94B5566B017C0168819C
:100F600079818A819B810E94B5569B01AC01C701A2
:100F7000B6010E94CF5842E00E94941D88E295E09D
:100F80000E94091D60911E0E70911F0E8091200E0F
:100F90009091210E0E94B5566B017C016C817D8180
:100FA0008E819F810E94B5569B01AC01C701B6019D
:100FB0000E94CF5842E00E94941D88E395E00E9471
:100FC000091D6091220E7091230E8091240E909144
:100FD000250E0E94B5566B017C01688579858A854E
:100FE0009B850E94B5569B01AC01C701B6010E94CA
:100FF000CF5842E00E94941DCE01DF91CF91FF9027
:10100000EF90DF90CF900C9407078091EA0B9091BE
:10101000EB0B892B81F58FE090E00E942C51FC01B5
:1010200015861486168610921A0E10921B0E1092B8
:101030001C0E10921D0E10921E0E10921F0E10927A
:10104000200E1092210E1092220E1092230E10925A
:10105000240E1092250E10926007109261071092D4
:1010600062071092630710925F0710925E079093D9
:10107000EB0B8093EA0B8091EA0B9091EB0B0895B8
:101080000E9405080E94610780E090E008950F9398
:101090001F93CF93DF930E94A3128C01C0E0D0E096
:1010A000BE01C8010E942635882321F0BE01C80177
:1010B0000E9460122196C13ED10591F78BEF94E01A
:1010C0000E94091D0E9405080E94070780E090E029
:1010D000DF91CF911F910F9108952F923F924F92E0
:1010E0005F926F927F928F929F92AF92BF92CF92B8
:1010F000DF92EF92FF920F931F93CF93DF93CDB7C1
:10110000DEB72A970FB6F894DEBF0FBECDBF0E94A0
:10111000DC3221E02F931F921F921F921F92812C8D
:10112000912CA12CB12CC12CD12C760197018601D8
:10113000B701A6010E946D210E94A3120F900F908B
:101140000F900F900F908091300890913108019787
:1011500029F486EF9FEF9E838D8304C0AAE0B0E060
:10116000BE83AD830E94050860911A0E70911B0E1C
:1011700080911C0E90911D0E0E94B5566B017C0152
:101180000E94A3126091400870914108809142082A
:10119000909143080E94B5569B01AC01C701B6016E
:1011A0000E94CF5869837A838B839C830E940508B1
:1011B00060911E0E70911F0E8091200E9091210E55
:1011C0000E94B5566B017C010E94A31260914408F5
:1011D0007091450880914608909147080E94B55645
:1011E0009B01AC01C701B6010E94CF582B013C0105
:1011F000212C312C8D819E81092E000CAA0BBB0B5A
:101200008D839E83AF83B88793E02916310411F153
:101210004CF4B1E02B163104E9F0E2E02E16310473
:1012200079F009C0F5E02F163104A1F074F086E0E2
:101230002816310469F10E94DC32A1E0AF932CC082
:101240000E94DC32B1E0BF9327C00E94DC32E1E0B3
:10125000EF9322C00E94DC329A8789876D817E815C
:101260008F8198850E94B5566B017C011F921F9259
:101270001F921F921F92812C912CA12CB12C9301B3
:10128000820149815A816B817C8189859A8515C04B
:101290000E94DC32F1E0FF931F921F921F921F9277
:1012A000812C912CA12CB12CC12CD12C7601930135
:1012B000820149815A816B817C810E946D210F904E
:1012C0000F900F900F900F900E94050880915E077D
:1012D00090915F079A8789870E940508DC011E9616
:1012E0008C9181110CC0E985FA85EF2B41F4FFEF59
:1012F0002F1A3F0A27E02216310409F085CF80E03B
:1013000090E02A960FB6F894DEBF0FBECDBFDF91F6
:10131000CF911F910F91FF90EF90DF90CF90BF90F2
:10132000AF909F908F907F906F905F904F903F9085
:101330002F9008952F923F924F925F926F927F92DB
:101340008F929F92AF92BF92CF92DF92EF92FF92D5
:101350000F931F93CF93DF93CDB7DEB72A970FB6C6
:10136000F894DEBF0FBECDBF0E94A312809130085B
:1013700090913108019729F486EF9FEF9E838D832A
:1013800004C0AAE0B0E0BE83AD830E94050860916E
:101390001A0E70911B0E80911C0E90911D0E0E94D2
:1013A000B5562B013C010E94A31260914008709138
:1013B000410880914208909143080E94B5569B01D4
:1013C000AC01C301B2010E94CF5869837A838B8339
:1013D0009C830E9405086091220E7091230E8091DB
:1013E000240E9091250E0E94B5562B013C010E94BF
:1013F000A312609148087091490880914A08909121
:101400004B080E94B5569B01AC01C301B2010E947A
:10141000CF582B013C01212C312C8D819E81092E2E
:10142000000CAA0BBB0B8D839E83AF83B88793E020
:101430002916310429F14CF4B1E02B16310401F1E5
:10144000E2E02E16310481F009C0F5E02F163104D8
:10145000B9F084F086E02816310481F10E94DC3274
:101460001F92A1E0AF932FC00E94DC321F92B1E027
:10147000BF9329C00E94DC321F92E1E0EF9323C0AA
:101480000E94DC329A8789876D817E818F81988561
:101490000E94B5568B019C011F921F921F921F92B2
:1014A0001F92812C912CA12CB12C730162014981D6
:1014B0005A816B817C8189859A8515C00E94DC32B6
:1014C0001F92F1E0FF931F921F921F92812C912C8B
:1014D000A12CB12C7301620100E010E09801498158
:1014E0005A816B817C810E946D210F900F900F902B
:1014F0000F900F900E94050880915E0790915F0702
:101500009A8789870E940508DC011E968C918111BB
:101510000CC0E985FA85EF2B41F4FFEF2F1A3F0A43
:1015200027E02216310409F082CF80E090E02A966D
:101530000FB6F894DEBF0FBECDBFDF91CF911F91E4
:101540000F91FF90EF90DF90CF90BF90AF909F9062
:101550008F907F906F905F904F903F902F90089565
:101560002F923F924F925F926F927F928F929F92B3
:10157000AF92BF92CF92DF92EF92FF920F931F93A1
:10158000CF93DF93CDB7DEB72A970FB6F894DEBFBF
:101590000FBECDBF0E94A3128091300890913108F8
:1015A000019729F486EF9FEF9E838D8304C0AAE004
:1015B000B0E0BE83AD830E94050860911E0E70915D
:1015C0001F0E8091200E9091210E0E94B5562B0186
:1015D0003C010E94A31260914408709145088091DB
:1015E0004608909147080E94B5569B01AC01C30183
:1015F000B2010E94CF5869837A838B839C830E94B7
:1016000005086091220E7091230E8091240E909116
:10161000250E0E94B5562B013C010E94A312609139
:1016200048087091490880914A0890914B080E949F
:10163000B5569B01AC01C301B2010E94CF582B01EA
:101640003C01212C312C8D819E81092E000CAA0B8E
:10165000BB0B8D839E83AF83B88793E0291631043B
:1016600041F14CF4B1E02B16310419F1E2E02E16F1
:10167000310489F009C0F5E02F163104D1F094F05F
:1016800086E02816310499F10E94DC321F921F92E5
:10169000A1E0AF9332C00E94DC321F921F92B1E0F2
:1016A000BF932BC00E94DC321F921F92E1E0EF93A8
:1016B00024C00E94DC329A8789876D817E818F8168
:1016C00098850E94B556AB01BC011F921F921F92D4
:1016D0001F921F92812C912CA12CB12C73016201BD
:1016E00009811A812B813C8189859A8515C00E94C8
:1016F000DC321F921F92F1E0FF931F921F92812C08
:10170000912CA12CB12C7301620109811A812B81CA
:101710003C8140E050E0BA010E946D210F900F9093
:101720000F900F900F900E94050880915E07909196
:101730005F079A8789870E940508DC011E968C91B5
:1017400081110CC0E985FA85EF2B41F4FFEF2F1AC8
:101750003F0A27E02216310409F07FCF80E090E0B5
:101760002A960FB6F894DEBF0FBECDBFDF91CF91A2
:101770001F910F91FF90EF90DF90CF90BF90AF90AF
:101780009F908F907F906F905F904F903F902F90A1
:1017900008950E940508FC01168680E090E00895F7
:1017A000CF93DF938FE30E94C81FEC010E940508CE
:1017B00081E0CD2B09F480E08093EC0B80E40E9463
:1017C000C81FEC010E94050881E0CD2B09F480E0E0
:1017D0008093ED0B8EE00E94C81FEC010E9405086B
:1017E00081E0CD2B09F480E08093EE0B8FE00E9426
:1017F000C81FEC010E94050881E0CD2B09F480E0B0
:101800008093EF0B8CE00E94C81FEC010E9405083A
:1018100081E0CD2B09F480E08093F00B89E00E94F9
:10182000C81FEC010E94050881E0CD2B09F480E07F
:101830008093F10BDF91CF9108958FEF94E00E9498
:10184000091D0E9405080E94D00B0E9405080E94F5
:1018500019070E94BE3440E050E068E070E00E944A
:101860006B330E94BE3440E050E069E070E00E94BB
:101870006B330E94BE3440E050E06AE070E00E94AA
:101880006B330E94BE3440E050E06DE070E00E9497
:101890006B3380E090E00895603E710508F049C424
:1018A000FB018827EE58FF4F8F4F0C945A5881E068
:1018B00090E0A0E0B0E08093640790936507A09368
:1018C0006607B0936707089510926807109269073A
:1018D00010926A0710926B07089510926C0710928D
:1018E0006D0710926E0710926F07089581E090E0E7
:1018F000A0E0B0E08093700790937107A093720707
:10190000B0937307089510927407109275071092A0
:10191000760710927707089583E090E0A0E0B0E0AA
:101920008093780790937907A0937A07B0937B0709
:10193000089588E790E0A0E0B0E08093900790934E
:101940009107A0939207B0939307089588E790E0DA
:10195000A0E0B0E08093940790939507A09396073A
:10196000B0939707089588E790E0A0E0B0E08093F7
:10197000980790939907A0939A07B0939B070895AF
:1019800081E090E0A0E0B0E08093A0079093A107F1
:10199000A093A207B093A307089581E090E0A0E090
:1019A000B0E08093A4079093A507A093A607B093F7
:1019B000A707089581E090E0A0E0B0E08093A80739
:1019C0009093A907A093AA07B093AB07089510922C
:1019D000AC071092AD071092AE071092AF070895B2
:1019E0001092B0071092B1071092B2071092B3078D
:1019F00008951092B4071092B5071092B60710928E
:101A0000B70708951092B8071092B9071092BA0755
:101A10001092BB0708951092BC071092BD07109258
:101A2000BE071092BF0708951092C0071092C10719
:101A30001092C2071092C30708951092C80710921F
:101A4000C9071092CA071092CB0708951092CC07CD
:101A50001092CD071092CE071092CF0708951092E2
:101A6000D0071092D1071092D2071092D307089591
:101A70001092E0071092E1071092E2071092E3073C
:101A800008951092E4071092E5071092E60710926D
:101A9000E70708951092E8071092E9071092EA0705
:101AA0001092EB07089581E090E0A0E0B0E0809311
:101AB000F4079093F507A093F607B093F7070895FE
:101AC00081E090E0A0E0B0E08093F8079093F90700
:101AD000A093FA07B093FB0708958CE291E0A0E091
:101AE000B0E08093080890930908A0930A08B09387
:101AF0000B0808958CE291E0A0E0B0E080930C0820
:101B000090930D08A0930E08B0930F0808958CE2EF
:101B100091E0A0E0B0E08093100890931108A093AA
:101B20001208B0931308089510921808109219081B
:101B300010921A0810921B08089510921C08109217
:101B40001D0810921E0810921F0808951092200878
:101B500010922108109222081092230808951092E2
:101B6000300810923108109232081092330808950C
:101B700010923408109235081092360810923708E7
:101B8000089581E090E0A0E0B0E080933808909361
:101B90003908A0933A08B0933B08089585E090E097
:101BA000A0E0B0E08093400890934108A0934208E1
:101BB000B0934308089585E090E0A0E0B0E0809302
:101BC000440890934508A0934608B09347080895A9
:101BD00089E190E0A0E0B0E0809348089093490844
:101BE000A0934A08B0934B08089582E390E0A0E0E8
:101BF000B0E08093580890935908A0935A08B09386
:101C00005B08089582E390E0A0E0B0E080935C0878
:101C100090935D08A0935E08B0935F08089582E3F7
:101C200090E0A0E0B0E08093600890936108A093FA
:101C30006208B0936308089582E390E0A0E0B0E00A
:101C40008093680890936908A0936A08B0936B0822
:101C5000089582E390E0A0E0B0E080936C08909358
:101C60006D08A0936E08B0936F08089582E390E02A
:101C7000A0E0B0E08093700890937108A093720880
:101C8000B0937308089580E991E0A0E0B0E08093FC
:101C9000800890938108A0938208B09383080895E8
:101CA00080E991E0A0E0B0E08093840890938508FB
:101CB000A0938608B0938708089580E991E0A0E09A
:101CC000B0E08093880890938908A0938A08B09325
:101CD0008B08089510929008109291081092920823
:101CE00010929308089510929408109295081092FB
:101CF00096081092970808951092980810929908E3
:101D000010929A0810929B0808951092A8091092B8
:101D1000A9091092AA091092AB0908951092AC0972
:101D20001092AD091092AE091092AF090895109269
:101D3000B0091092B1091092B2091092B309089536
:101D400088E592E0A0E0B0E08093A8089093A9080D
:101D5000A093AA08B093AB08089588E592E0A0E0AC
:101D6000B0E08093AC089093AD08A093AE08B09318
:101D7000AF08089588E592E0A0E0B0E08093B00855
:101D80009093B108A093B208B093B30808958EE180
:101D900090E0A0E0B0E08093B8089093B908A093D9
:101DA000BA08B093BB0808958EE190E0A0E0B0E0DF
:101DB0008093BC089093BD08A093BE08B093BF0861
:101DC00008958EE190E0A0E0B0E08093C008909389
:101DD000C108A093C208B093C30808951092D00818
:101DE0001092D1081092D2081092D3080895109240
:101DF000D4081092D5081092D6081092D7080895EA
:101E00001092D8081092D9081092DA081092DB08C4
:101E100008951092F8081092F9081092FA0810929A
:101E2000FB0808951092FC081092FD081092FE081D
:101E30001092FF0808951092000910920109109263
:101E400002091092030908951092080910920909D5
:101E500010920A0910920B09089510920C09109221
:101E60000D0910920E0910920F0908951092100991
:101E7000109211091092120910921309089585E029
:101E800090E0A0E0B0E08093200990932109A09316
:101E90002209B0932309089585E090E0A0E0B0E026
:101EA0008093240990932509A0932609B0932709CC
:101EB000089585E090E0A0E0B0E080932809909339
:101EC0002909A0932A09B0932B09089584EB95E181
:101ED000A0E0B0E08093300990933109A0933209DB
:101EE000B0933309089584EB95E1A0E0B0E08093CE
:101EF000340990933509A0933609B09337090895B2
:101F000084EB95E1A0E0B0E0809338099093390923
:101F1000A0933A09B0933B09089585E090E0A0E0D2
:101F2000B0E08093480990934909A0934A09B0937F
:101F30004B09089585E090E0A0E0B0E080934C0963
:101F400090934D09A0934E09B0934F09089585E0F1
:101F500090E0A0E0B0E08093500990935109A093E5
:101F60005209B093530908951092580910925909D3
:101F700010925A0910925B09089510925C09109210
:101F80005D0910925E0910925F0908951092600930
:101F900010926109109262091092630908951092DB
:101FA00070091092710910927209109273090895C4
:101FB000109274091092750910927609109277099F
:101FC0000895109278091092790910927A09109266
:101FD0007B0908951092880A1092890A10928A0A41
:101FE00010928B0A08958CE390E0A0E0B0E080931B
:101FF0008C0A90938D0AA0938E0AB0938F0A08954D
:1020000081E090E0A0E0B0E08093900A9093910A84
:10201000A093920AB093930A08951092980A10928E
:10202000990A10929A0A10929B0A08958CE390E004
:10203000A0E0B0E080939C0A90939D0AA0939E0A32
:10204000B0939F0A089581E090E0A0E0B0E0809313
:10205000A00A9093A10AA093A20AB093A30A08959C
:102060001092B00A1092B10A1092B20A1092B30AFA
:1020700008958CE390E0A0E0B0E08093B40A9093E0
:10208000B50AA093B60AB093B70A089581E090E02C
:10209000A0E0B0E08093B80A9093B90AA093BA0A7E
:1020A000B093BB0A08951092C00A1092C10A109210
:1020B000C20A1092C30A08958CE390E0A0E0B0E059
:1020C0008093C40A9093C50AA093C60AB093C70A26
:1020D000089581E090E0A0E0B0E08093C80A90937A
:1020E000C90AA093CA0AB093CB0A08951092D80ADD
:1020F0001092D90A1092DA0A1092DB0A08958CE342
:1021000090E0A0E0B0E08093DC0A9093DD0AA09319
:10211000DE0AB093DF0A089581E090E0A0E0B0E02D
:102120008093E00A9093E10AA093E20AB093E30A55
:102130000895660F771F660F771FFB01EC59F84F64
:10214000108211821282138208958FEF9FEF0895FB
:102150000F931F93CF93DF938C01C0E0D0E0BE01BB
:10216000C8010E942635882321F0BE01C8010E94C3
:102170004C0C2196C13ED10591F780E090E0DF91B3
:10218000CF911F910F9108954F925F926F927F921E
:102190008F929F92AF92BF92CF92DF92EF92FF9277
:1021A0000F931F93CF93DF938B01EB01CC0FDD1FB8
:1021B000CE010E94D557882E912CA12CB12CCE0196
:1021C00001960E94D557C82ED12CE12CF12C0D5828
:1021D00011090330110588F5CE0144960E94D557A8
:1021E000482E512C612C712CCE0145960E94D5575A
:1021F000482F50E060E070E08FEF48165104610412
:102200007104A9F44F3F51056105710581F48FEF09
:1022100088169104A104B10481F48FEFC816D1048B
:10222000E104F10451F46FEF7FEFCB012BC0403894
:102230005105610571056CF0F6CF80E8C816D10430
:10224000E104F10484F740E050E0BA01412C512C44
:102250003201FE2CED2CDC2CCC248C0C9D1CAE1CF5
:10226000BF1C320155244424840C951CA61CB71CA9
:10227000742F662755274427CB01BA01680D791DB5
:102280008A1D9B1DDF91CF911F910F91FF90EF90C1
:10229000DF90CF90BF90AF909F908F907F906F9086
:1022A0005F904F90089586E095E00E94091D85E1BA
:1022B00093E00E94091D0E9405080E94070780E024
:1022C00090E008950C94C4510C94C4510C94C451E2
:1022D0000C94C4510C94C4510C94C4510C94C4512A
:1022E0004F925F926F927F928F929F92AF92BF9226
:1022F000CF92DF92EF92FF920F931F93CF93DF93D2
:1023000000D000D0CDB7DEB7FB0126892D838789A9
:102310008E8382889388A684B784C284D384E4841D
:10232000F584468057806084718482819381A48182
:10233000B58189839A83AB83BC830E94DC321F9270
:102340001F921F92AE81AF93BD81BF939301820113
:1023500049815A816B817C810E946D210F900F9081
:102360000F900F900F9080E090E026960FB6F894B3
:10237000DEBF0FBECDBFDF91CF911F910F91FF90B8
:10238000EF90DF90CF90BF90AF909F908F907F9015
:102390006F905F904F900895CF93DF93EB0120E013
:1023A00030E040E85FE36A817B818C819D810E94FF
:1023B000AE5681110DC08BE095E00E94091D0E9470
:1023C000DC328C5A9F4FFC011082118212821382E0
:1023D00020E030E040E85FE36E817F818885998569
:1023E0000E94AE5681110DC08BE195E00E94091D3F
:1023F0000E94DC328C529F4FFC01108211821282AB
:10240000138220E030E040E85FE36A857B858C85BD
:102410009D850E94AE5681110DC08BE295E00E9411
:10242000091D0E94DC328C5A9E4FFC0110821182E1
:10243000128213820E9405080E94070780E090E044
:10244000DF91CF910895CF92DF92EF92FF920F9399
:102450001F93CF93DF938B0169017A01EB01CC0FBE
:10246000DD1F6C2DCE010E94DD579927F7FC9A9550
:102470008F2D7E2D6D2DCE0101960E94DD570D58BA
:1024800011090330110588F4B701992777FD90955C
:10249000892FCE0144960E94DD576F2D772788271C
:1024A0009927CE0145960E94DD5780E090E0DF91AC
:1024B000CF911F910F91FF90EF90DF90CF900895F3
:1024C000CF92DF92EF92FF92CF93DF93EB010E94C6
:1024D0002635882359F1FE01EE0FFF1FEE0FFF1F77
:1024E000EC59F84FC080D180E280F3808BE395E017
:1024F0000E94091D89E095E00E94091D8FE395E087
:102500000E94091DCE010E94621E89E095E00E9492
:10251000091D84EB94E00E94091DC701B6010E94C9
:102520006A1D0E9405080E94070704C086EB94E01C
:102530000E94091D80E090E0DF91CF91FF90EF9025
:10254000DF90CF900895EF92FF920F931F93CF9358
:10255000DF938091F20B9091F30B892B09F06EC001
:1025600084E090E00E942C51EC0160E070E00E9459
:10257000C410161617060CF1CE010E94A81094E69E
:10258000E92E97E0F92E00E010E0B801CE010E949C
:102590002635882349F0F70120813181428153811A
:1025A000B801CE010E9423120F5F1F4FF4E0EF0E1F
:1025B000F11C0639110549F73DC063E070E0CE011A
:1025C0000E94C410613071058105910581F584E692
:1025D000E82E87E0F82E00E010E0B801CE010E945E
:1025E00026358823D9F0B801CE010E94C410F70126
:1025F00060837183828393836F3F7F4F8F4F9F4FA1
:1026000069F4B801CE010E944C0CF70120813181A0
:1026100042815381B801CE010E9423120F5F1F4FE8
:10262000F4E0EF0EF11C013E1105B9F603C0CE0136
:102630000E94A810D093F30BC093F20B8091F20B81
:102640009091F30BDF91CF911F910F91FF90EF903D
:1026500008954F925F926F927F928F929F92AF9266
:10266000BF92CF92DF92EF92FF920F931F93CF937F
:10267000DF9300D01F92CDB7DEB70E94A312409027
:1026800040085090410860904208709043080E94B2
:10269000A3128090440890904508A0904608B090FE
:1026A00047080E940508C0901A0ED0901B0EE090BB
:1026B0001C0EF0901D0E0E940508C701B6010E9475
:1026C000B5566B017C01C301B2010E94B5569B0156
:1026D000AC01C701B6010E94CF582B013C016091AB
:1026E0001E0E70911F0E8091200E9091210E0E945F
:1026F000B5566B017C01C501B4010E94B5569B0122
:10270000AC01C701B6010E94CF5869837A838B83DD
:102710009C830E94DC321F921F921F921F921F9275
:10272000812C912CA12CB12CC12CD12C76010981AA
:102730001A812B813C81B301A2010E946D210E946C
:10274000DC321F921F921F921F921F9297018601E7
:10275000B301A2010E946D210E94DC321F921F92E0
:102760001F921F921F9297018601B701A6010E9436
:102770006D210FB6F894DEBF0FBECDBF80E090E0B4
:102780000F900F900F900F90DF91CF911F910F91AD
:10279000FF90EF90DF90CF90BF90AF909F908F9081
:1027A0007F906F905F904F900895089508950895D9
:1027B000089508950895089508950CB405FC0DC07A
:1027C0009EBD00000DB407FEFDCF9EB58EBD00007E
:1027D0000DB407FEFDCF8EB508958EBD00000DB47B
:1027E00007FEFDCF8EB59EBD00000DB407FEFDCFE8
:1027F0009EB508958EBD00000DB407FEFDCF8EB5C9
:1028000008958CBD9DBD0895DC01ED91FC91028081
:10281000F381E02D6FE619946F70DC0195962C9191
:102820009597207F622B95966C93959792962D9114
:102830003D914D915C919597ED91FC910190F081C6
:10284000E02D6CE61994DC0194962C91949760FB32
:1028500021F994962C93949792962D913D914D91B8
:102860005C919597ED91FC910190F081E02D6CE6E3
:102870001994DC0193968C91939760FB87F993965A
:102880008C9393976695617094968C9194978E7FB4
:10289000682B94966C93949792962D913D914D91BF
:1028A0005C919597ED91FC9111970190F081E02D4D
:1028B0006CE6CD011994DC0192968C91929760FBA5
:1028C00087F992968C9392976695677093968C9100
:1028D0009397887F682B93966C93939792962D91FC
:1028E0003D914D915C919597ED91FC9111970190DF
:1028F000F081E02D6CE6CD011994DC016770962F14
:102900009295907F92966C9192976F78692B9296A0
:102910006C93929792962D913D914D915C919597E4
:10292000ED91FC9111970190F081E02D6CE6CD01C5
:10293000199408950895FC01EB59FF4F208122233B
:1029400061F0709780819181A281B3810196A11D70
:10295000B11D80839183A283B38308954F925F92C8
:102960006F927F928F929F92AF92BF92FF920F933E
:102970001F93CF93DF931F921F92CDB7DEB78C01C9
:1029800049015A016068F62EFC0183A994A925012A
:1029900066247724892B99F160E0C8010E942020E9
:1029A0006F2DF80183A994A90E940845F801818B35
:1029B000B20183A994A90E946745B401F80183A9D3
:1029C00094A90E946745FF24F394F80185A9F8169D
:1029D0000CF043C060E070E083A994A90E946745B1
:1029E00060E070E0F80183A994A90E94674560E067
:1029F000F80183A994A90E940845F394E6CF40E822
:102A000054E86EE170E0CE0101960E94981F898122
:102A10009A810E94011460E0C8010E9420208F2D3D
:102A20000E94FA13F801818BC2010E94DD13C401D8
:102A30000E94DD13FF24F394F80185A9F8166CF4C5
:102A400080E090E00E94DD1380E090E00E94DD13C2
:102A500080E00E94FA13F394EFCF61E0C8010E9476
:102A600020200F900F90DF91CF911F910F91FF9039
:102A7000BF90AF909F908F907F906F905F904F909E
:102A80000895CF92DF92EF92FF920F931F93CF930F
:102A9000DF931F921F92CDB7DEB78C01E62EFC01AB
:102AA00083A994A9892B09F484C060E0C8010E941D
:102AB00020206E2DF80183A994A90E94084560E0AA
:102AC00070E0F80183A994A90E94674560E070E076
:102AD000F80183A994A90E946745FF24F394F801A3
:102AE00085A9F816ACF460E070E083A994A90E946F
:102AF000674560E070E0F80183A994A90E946745EA
:102B000060E0F80183A994A90E940845F394E7CFF7
:102B100061E0C8010E94202060E0C8010E942020DE
:102B20002091F50BF80183A994A9F2169CF460E0BA
:102B300070E00E94674560E070E0F80183A994A905
:102B40000E94674560E0F80183A994A90E940845A6
:102B5000F394E6CF6E2D0E940845F801818B60E06A
:102B600083A994A90E940845C82ED12CE12CF12CF0
:102B7000FE2CED2CDC2CCC2460E0F80183A994A978
:102B80000E940845C82AFE2CED2CDC2CCC2460E0E9
:102B9000F80183A994A90E940845C82AFE2CED2CAF
:102BA000DC2CCC2460E0F80183A994A90E9408459C
:102BB0006AC040E854E86EE170E0CE0101960E94E0
:102BC000981F89819A810E94011460E0C8010E94C7
:102BD00020208E2D0E94FA1380E090E00E94DD13E9
:102BE00080E090E00E94DD13FF24F394F80185A9B2
:102BF000F8166CF480E090E00E94DD1380E090E035
:102C00000E94DD1380E00E94FA13F394EFCF61E09D
:102C1000C8010E94202060E0C8010E94202080910D
:102C2000F50BF8166CF480E090E00E94DD1380E074
:102C300090E00E94DD1380E00E94FA13F394EFCF3E
:102C40008E2D0E94FA13F801818B80E00E94FA1306
:102C5000C82ED12CE12CF12CFE2CED2CDC2CCC241C
:102C600080E00E94FA13C82AFE2CED2CDC2CCC2428
:102C700080E00E94FA13C82AFE2CED2CDC2CCC2418
:102C800080E00E94FA13C82A61E0C8010E94202057
:102C9000C701B6010F900F90DF91CF911F910F9157
:102CA000FF90EF90DF90CF9008950E94901F892FA2
:102CB0008F7008950E94901F8695817008950E94DC
:102CC000901F771F7727771F8170880F872B0895B4
:102CD0000E94901F862F881F8827881F7770770F84
:102CE000872B08950E94901F862F829587700895E4
:102CF000CF93DF93EC018F81882331F061E08989E4
:102D00000E94F11F1F8206C060E089890E94F11FA6
:102D100081E08F83DF91CF910895CF93DF93EC0112
:102D20008E81882331F061E08B850E94F11F1E8225
:102D300006C060E08B850E94F11F81E08E83DF91E9
:102D4000CF91089560E0FC0181890C94F11F60E04F
:102D5000FC0183850C94F11F61E0FC0181890C94D6
:102D6000F11F61E0FC0183850C94F11F1F920F920B
:102D70000FB60F9211240BB60F922F933F934F93E0
:102D80005F936F937F938F939F93AF93BF93EF93D3
:102D9000FF93E0E0F0E01995FF91EF91BF91AF91C3
:102DA0009F918F917F916F915F914F913F912F9163
:102DB0000F900BBE0F900FBE0F901F901895CF92E3
:102DC000DF92EF92FF920F931F93CF93DF93FC015B
:102DD0006489758986899789C68DD78D603127E288
:102DE00072078105910529F01616170618061906AF
:102DF00044F02089318942895389DE010E941558A7
:102E00002AC08F010E94B55620E030E44CE156E420
:102E10000E94CF586B017C01F801608F718F828F07
:102E2000938F60897189828993890E94B556A70121
:102E300096010E9414576B017C01BE01DD0F880BC7
:102E4000990B0E94B5569B01AC01C701B6010E94C7
:102E500014570E944159DF91CF911F910F91FF901C
:102E6000EF90DF90CF900895FC01118210821582BF
:102E70001482108A118A128A138A158E148E80E1A8
:102E800097E2A0E0B0E0848B958BA68BB78B12867F
:102E9000108614861586168617860895CF93DF93BD
:102EA000EC01FC01E159FF4F1082379781E08083EC
:102EB00060E08B850E94F11F8D899E89892B31F0FE
:102EC00060E08989DF91CF910C94F11FDF91CF9160
:102ED0000895CF93DF93EC01898D0E94C81F2C8D3C
:102EE00030E08217930711F48D8D01C080E0DF91EF
:102EF000CF910895CF93DF93EC018F890E94C81F73
:102F00002C8D30E08217930711F48D8D01C080E085
:102F1000DF91CF910895CF93DF93EC012BA98881A6
:102F20009981222311F061E001C060E00E94681ED7
:102F30008C81883579F42CA98A819B81222329F000
:102F40002DA9222311F061E001C060E0DF91CF9153
:102F50000C94681EDF91CF910895CF93DF93EC011D
:102F60002BA988819981222311F060E001C061E0E2
:102F70000E94681E8C81883579F42CA98A819B81F6
:102F8000222329F02DA9222311F060E001C061E085
:102F9000DF91CF910C94681EDF91CF910895CF936C
:102FA000DF93EC0161E08F850E94F11F8CA98823DB
:102FB00021F061E08D890E94F11FC359DF4F188213
:102FC000DF91CF910895CF93DF93EC0160E08F857F
:102FD0000E94F11F8CA9882321F060E08D890E9456
:102FE000F11FC359DF4F81E08883DF91CF910895AE
:102FF000CF92DF92EF92FF920F931F93CF93DF93C5
:10300000FC01DC01A05CBF4F4D935D936D937C93FD
:10301000139714964D935D936D937C931397EC01E6
:10302000C85BDF4F088319832A833B831896EC9291
:1030300082AD882381F082A9811108C037FF0BC0BF
:10304000188219821A821B8221E006C0101611060E
:1030500012061306ACF320E0C3ACD4ACE5ACF6AC7E
:103060001C141D041E041F0434F587AD882319F1B8
:10307000488159816A817B81C601D7FE04C08827B7
:1030800099278C199D09DA0157FF04C0AA27BB278D
:10309000A41BB50B8A179B0774F477FF03C09195A7
:1030A00081959109092E000CAA0BBB0B888399838B
:1030B000AA83BB8321E0DF01AB5ABF4F1D921D9253
:1030C0001D921C921397EB59FF4F81E08083822F52
:1030D000DF91CF911F910F91FF90EF90DF90CF90F4
:1030E00008950F931F93CF93DF938C01D62FFC018C
:1030F000838D81110BC0C8010E947A17C82FC801A7
:103100000E946917D1110AC08C2F08C0C8010E9403
:103110006917C82FC8010E947A17F4CFDF91CF91A9
:103120001F910F910895CF93DF93EC01FC01E159BA
:10313000FF4F81E0808339978081B297882341F0E7
:1031400080819181A281B3810196A11DB11D07C02B
:1031500080819181A281B3810197A109B109808306
:103160009183A283B38361E08B850E94F11F8D89D7
:103170009E89892B31F061E08989DF91CF910C9490
:10318000F11FDF91CF9108958F929F92AF92BF92DE
:10319000CF92DF92EF92FF920F931F93CF93DF9323
:1031A000EC01FC01EB5AFF4F6081718182819381B8
:1031B0000E94B3566B017C016EA97FA988AD99ADC1
:1031C0000E94B5569B01AC0160E074E284E799E48B
:1031D0000E94CF584B015C01FE01EF59FF4F608107
:1031E0007181828193810E94B3569B01AC01C5011C
:1031F000B4010E94CF584B015C018E01075A1F4F4A
:1032000020E030E040E05FE30E941457A701960100
:103210000E9463580E944859F80160837183828339
:103220009383C35ADF4FA5019401C701B6010E94E1
:1032300063580E944859688379838A839B83DF910E
:10324000CF911F910F91FF90EF90DF90CF90BF90A3
:10325000AF909F908F9008950F931F93CF93DF931C
:10326000FC01E159FF4F20812223C9F07A970081A8
:10327000118122813381389640815181628173812D
:10328000041715072607370728F1EC010E944E178F
:10329000CE01DF91CF911F910F910C94C418FC01C6
:1032A000EB59FF4F20812223A9F0709700811181F3
:1032B0002281338134964081518162817381041768
:1032C00015072607370730F0DF91CF911F910F9137
:1032D0000C949318DF91CF911F910F9108951F9235
:1032E0000F920FB60F9211240BB60F92EF92FF922E
:1032F0000F931F932F933F934F935F936F937F93FE
:103300008F939F93AF93BF93CF93DF93EF93FF93ED
:103310008091F40B811123C081E08093F40B0E9413
:10332000DC32EC017C0180E1E80EF11CC7010E9457
:103330009B148E0100571F4FC8010E949B14C05F51
:10334000DE4FCE010E949B14C7010E942C19C801B8
:103350000E942C19CE010E942C191092F40BFF919F
:10336000EF91DF91CF91BF91AF919F918F917F911D
:103370006F915F914F913F912F911F910F91FF900E
:10338000EF900F900BBE0F900FBE0F901F901895EF
:103390002F923F924F925F926F927F928F929F9265
:1033A000AF92BF92CF92DF92EF92FF920F931F9353
:1033B000CF93DF93CDB7DEB762970FB6F894DEBF39
:1033C0000FBECDBFFC019C01245B3F4FD9014C9146
:1033D0008A599F4FBF0169597F4F3B0118972D01B3
:1033E0006F517109442339F042A9DC014C9381E00B
:1033F000D3018C9327C08D909D90AD90BC90DB0144
:10340000CD90DD90ED90FC9041E08C149D04AE04D5
:10341000BF040CF040E0DC014C93A40197FE04C013
:103420004427552748195909C601D7FE04C08827E3
:1034300099278C199D0911E0481759070CF410E0E1
:10344000D3011C93D2018D919D910D90BC91A02D23
:103450008D879E87AF87B88B892B8A2B8B2B69F43E
:10346000C2A0D3A0E4A0F5A0CF018F599F4FDC01EB
:10347000CD92DD92ED92FC921397DB014D915D911F
:103480006D917C918F01005C1F4FD801CD90DD9034
:10349000ED90FC900B5D1F4FC416D506E606F706AF
:1034A00054F48D859E85AF85B88984179507A60746
:1034B000B707A4F00EC04C155D056E057F054CF4F2
:1034C0008D859E85AF85B889481759076A077B07A0
:1034D0002CF0D9012C91222309F457C1D8012C9149
:1034E000222309F452C182A493A4A4A4B5A4868D76
:1034F000978DA0A1B1A189839A83AB83BC8382A15C
:1035000093A1A4A1B5A18D839E83AF83B8879F01AA
:1035100027593F4FD9011C922F5F3F4FD9011C9271
:103520003F01BBE66B0E711CD3011C922F01BCE660
:103530004B0E511CD2011C922C5F3F4FD9011C92A3
:103540009A012C193D0937FF03C0319521953109A6
:10355000C901330FAA0BBB0B89879A87AB87BC873E
:10356000C416D506E606F7065CF42D853E854F8524
:1035700058892C193D094E095F0969017A0108C073
:10358000CD84DE84EF84F888C41AD50AE60AF70AE7
:103590008F0149855A856B857C857595679557950B
:1035A00047954D875E876F87788BBF0162597F4F44
:1035B0001B01F7FC09C089859A85AB85BC858C15F4
:1035C0009D05AE05BF0554F4D80196960D90BC91AB
:1035D000A02DBA8BA98B81E0F201ADC02D853E856F
:1035E0004F8558892C153D054E055F050CF449C0E3
:1035F0008C149D04AE04BF043CF449815A814F5F92
:103600005F4F5A8B498B4FC0C701B6010E94B55618
:103610002B013C01C501B4010E94B5569B01AC01D0
:10362000C301B2010E94CF582B013C0169817A810C
:103630008B819C812D813E814F815885621B730B4C
:10364000840B950B0E94B5569B01AC01C301B201DE
:103650000E9414572B013C016D817E818F819885DA
:103660000E94B5569B01AC01C301B2010E94635890
:103670000E9441597A8B698B81E0F801E759FF4F2D
:103680005AC089859A85AB85BC8588199909AA098C
:10369000BB09C816D906EA06FB065CF4E981FA8183
:1036A0003296FA8BE98B81E0D3018C93F101808310
:1036B00045C069857A858B859C856C197D098E0945
:1036C0009F090E94B5562B013C01C501B4010E941F
:1036D000B5569B01AC01C301B2010E94CF582B012A
:1036E0003C0169817A818B819C812D813E814F8152
:1036F0005885621B730B840B950B0E94B5569B017A
:10370000AC01C301B2010E9414572B013C016D8131
:103710007E818F8198850E94B5569B01AC01C301C3
:10372000B2010E9463580E9441597A8B698B81E0F3
:10373000F801E659FF4F8083D1018C93F80182850F
:103740008823B1F00E94A645D80118964D905C9050
:103750001997052C000C66087708DC01CB01841949
:103760009509A609B709893E9340A105B10580F4E2
:10377000F801EF59FF4F29893A89C901A0E0B0E06B
:1037800080839183A283B3835EC0D8011C925BC007
:103790000E94A645F801718760878AE394E00E9441
:1037A000091D81E495E00E94091D60E070E0CB01F5
:1037B0000E946A1D87E495E00E94091DC701B601B9
:1037C0000E946A1D8DE495E00E94091D69857A8535
:1037D0008B859C850E946A1D83E595E00E94091DEA
:1037E0006D857E858F8598890E946A1D8AE595E0A2
:1037F0000E94091DC501B4010E946A1D80E695E082
:103800000E94091D6D817E818F8198850E946A1DAD
:1038100086E695E00E94091D69817A818B819C81F1
:103820000E946A1D8CE695E00E94091D89E095E0E2
:103830000E94091D89899A890E94621E82EB93E089
:103840000E94091D95CF62960FB6F894DEBF0FBE99
:10385000CDBFDF91CF911F910F91FF90EF90DF903F
:10386000CF90BF90AF909F908F907F906F905F9020
:103870004F903F902F9008950F931F93FC01E45BAE
:10388000FF4F2081211110C03897008111812281C2
:103890003381349640815181628173810417150709
:1038A000260737074CF404C0FC0122A9222321F08B
:1038B0001F910F910C94AD171F910F910C948B17C2
:1038C00090E0FC013197E231F10508F04EC0882705
:1038D000EE5AFE4F8F4F0C945A58809180008F778C
:1038E00003C0809180008F7D809380000895809137
:1038F0008000877FF9CF84B58F7702C084B58F7D34
:1039000084BD08958091B0008F7703C08091B0008E
:103910008F7D8093B0000895809190008F7707C0CD
:10392000809190008F7D03C080919000877F80936D
:10393000900008958091A0008F7707C08091A0002B
:103940008F7D03C08091A000877F8093A0000895A1
:10395000809120018F7707C0809120018F7D03C067
:1039600080912001877F809320010895009769F05E
:10397000FC0101900020E9F73197AF01481B590B7A
:10398000BC0186EF9BE00C94424080E090E00895FB
:103990008F929F92AF92BF920F931F93CF93DF931B
:1039A000CDB7DEB7A1970FB6F894DEBF0FBECDBF7F
:1039B00019A2423008F44AE08E010F5D1F4F842E99
:1039C000912CA12CB12CA50194010E941D58E62F29
:1039D000B901CA0101501109EA3014F4E05D01C0D7
:1039E000E95CD801EC93232B242B252B61F7C8012C
:1039F0000E94B61CA1960FB6F894DEBF0FBECDBFD5
:103A0000DF91CF911F910F91BF90AF909F908F90BA
:103A100008950C94B61CEF92FF920F931F93CF93CF
:103A2000DF93CDB7DEB764970FB6F894DEBF0FBE55
:103A3000CDBF7C01CB01BA018E010F5F1F4F22E089
:103A400044E00E940C51FC0101900020E9F73197FD
:103A5000AF01481B590BBC01C7010E94714264961B
:103A60000FB6F894DEBF0FBECDBFDF91CF911F918F
:103A70000F91FF90EF900895CF93DF93EC0119829F
:103A800018821B821A821D821C8260E070E00E94F4
:103A90004A422881398181110FC02115310519F061
:103AA000C9010E94C451198218821D821C821B8286
:103AB0001A82DF91CF9108951D821C8264EB73E01E
:103AC000C901DF91CF910C947D5A682F86EF9BE05E
:103AD0000C94D940CF92DF92EF92FF92CF93DF9375
:103AE00097FF19C06B017C018DE20E94651DEC01FE
:103AF00066277727CB016C197D098E099F094AE05B
:103B00000E94C81C8C0F9D1FDF91CF91FF90EF90FA
:103B1000DF90CF9008954AE0DF91CF91FF90EF9032
:103B2000DF90CF900C94C81C8F929F92AF92BF925F
:103B3000CF92DF92EF92FF920F931F93CF93DF9379
:103B40006B017C01142F9B01AC010E947C598823DE
:103B500019F082E795E027C046015701E894B7F8CD
:103B60002FEF3FEF4FE75FE7C501B4010E947C599B
:103B700081110DC02FEF3FEF4FE75FE7C501B401A3
:103B80000E94AE5618161CF486E795E00CC02FEF85
:103B90003FEF4FE75FE4C701B6010E94775918165F
:103BA00084F48AE795E0DF91CF911F910F91FF9008
:103BB000EF90DF90CF90BF90AF909F908F900C943C
:103BC000B61C2FEF3FEF4FE75FECC701B6010E9435
:103BD000AE5687FDE6CF20E030E0A901C701B6016F
:103BE0000E94AE5687FF09C08DE20E94651DEC0160
:103BF000F7FAF094F7F8F09402C0C0E0D0E000E0EB
:103C000060E070E080E09FE3101741F020E030E0DA
:103C100040E251E40E94CF580F5FF6CFA701960112
:103C20000E9463586B017C010E9448594B015C0162
:103C30004AE00E94C81CC80FD91F1123A9F1C50171
:103C4000B4010E94B3569B01AC01C701B6010E94AA
:103C500062586B017C018EE20E94651DC80FD91F5E
:103C600020E030E040E251E4C701B6010E94145761
:103C70004B015C010E9448596B01E12CF12C4AE098
:103C8000C701B6010E94C81CC80FD91FC701B601E1
:103C90000E94B3569B01AC01C501B4010E94625859
:103CA0006B017C011150E1F6CE01DF91CF911F91A4
:103CB0000F91FF90EF90DF90CF90BF90AF909F90CB
:103CC0008F900895BC01990F880B990B0C946A1D75
:103CD000DC0152968C91529760FB84F952968C933A
:103CE0005297282F53963C91539754968C91549702
:103CF000482F437050E0ED91FC9111970190F081B5
:103D0000E02D60E0CD0119946031710509F441C0E6
:103D100088F46230710509F454C020F4672B09F46B
:103D200058C008956430710509F443C068307105C6
:103D3000C1F1089560347105E1F020F4603271053D
:103D400001F108956038710561F06115714009F065
:103D500048C0DC01ED91FC910288F389E02D60E020
:103D60003FC0DC01ED91FC910288F389E02D61E018
:103D700037C0DC01ED91FC910288F389E02D62E00F
:103D80002FC0DC01ED91FC910288F389E02D63E006
:103D900027C0DC01ED91FC910288F389E02D64E0FD
:103DA0001FC0DC01ED91FC910288F389E02D65E0F4
:103DB00017C0DC01ED91FC910288F389E02D66E0EB
:103DC0000FC0DC01ED91FC910288F389E02D67E0E2
:103DD00007C0DC01ED91FC910288F389E02D68E0D9
:103DE00019940895CF92DF92EF92FF921F93CF9391
:103DF000DF93EC0180E090E00E94B35625ED34E0C3
:103E000045E352E40E94145720E030E04AE754E4CE
:103E10000E94CF586B017C012AE037ED43EA5CE356
:103E200069857A858B859C850E946358A7019601D8
:103E30000E94145726E636E646EA5EE30E94CF5813
:103E400020E030E040E85FE30E9462580E94485959
:103E5000162FE881F9810480F581E02D603108F5A5
:103E600061E0CE0119952AE037ED43EA5CE369850C
:103E70007A858B859C850E946358A70196010E94D4
:103E800014572CEE31E548E35EE30E94CF5820E062
:103E900030E040E85FE30E9462580E944859162FC4
:103EA00003C060E0CE011995912F9F718B81807EB8
:103EB000892B8B832A81382F8C81482F4F7050E0BB
:103EC000E881F9810190F081E02D60E1CE01199542
:103ED000612F70E080E090E00E94B5562D853E8510
:103EE0004F8558890E9414570E9448596F718A81E2
:103EF000807E682B6A83262F3B818C81482F4F70F0
:103F000050E0E881F9810190F081E02D60E1CE017F
:103F1000DF91CF911F91FF90EF90DF90CF90199498
:103F2000DC01ED91FC910280F381E02D6CE61994A7
:103F3000CF92DF92EF92FF92FC01C12C92E1D92E39
:103F40009AE7E92EF12C20E04C155D056E057F0502
:103F500040F4F694E794D794C7942F5F2630A1F7E6
:103F600027E091E09227292F286B269520839170D6
:103F70009183FF90EF90DF90CF9008951F920F9262
:103F80000FB60F9211240F900FBE0F901F9018952F
:103F9000CF93DF93282F30E0F901E952F84F849155
:103FA000F901E35DF74FD491F901E954F74FC4915A
:103FB000CC2391F081110E94601CEC2FF0E0EE0FF9
:103FC000FF1FED57F74FA591B491EC91ED2381E0E0
:103FD00090E021F480E002C080E090E0DF91CF919A
:103FE00008951F93CF93DF93282F30E0F901E95212
:103FF000F84F8491F901E35DF74FD491F901E95449
:10400000F74FC491CC23C1F0162F81110E94601C80
:10401000EC2FF0E0EE0FFF1FE356F74FA591B491A0
:104020009FB7F894111104C08C91D095D82302C089
:10403000EC91DE2BDC939FBFDF91CF911F91089510
:10404000FC0181A90C94F11FCF93DF9390E0FC0158
:10405000E35DF74F2491FC01E954F74F84918823E5
:1040600061F190E0880F991FFC01E354F84FC5916E
:10407000D491FC01E356F74FA591B491611109C0A9
:104080009FB7F8948881209582238883EC912E2312
:104090000BC0623061F49FB7F8948881322F30955D
:1040A00083238883EC912E2B2C939FBF06C08FB760
:1040B000F894E8812E2B28838FBFDF91CF9108954C
:1040C0000F931F93CF93DF93EC0161E089A90E94C6
:1040D000242061E0CE010E9420200BA91CA901151B
:1040E000110509F456C061E0F80180810E94242086
:1040F00061E0F80184810E94242062E0F80182815D
:104100000E942420F80140815181FA01E954F74FBF
:10411000E491F0E0EE0FFF1FE356F74F8591949185
:10412000F8019287818722813381F901E954F74FA1
:10413000E491F0E0EE0FFF1FED57F74F859194915A
:10414000F8019487838784819581FC01E954F74FB6
:10415000E491F0E0EE0FFF1FE356F74FA591B49105
:10416000F801B687A587FA01E35DF74F4491F8019E
:104170004683F901E35DF74F2491F8012783FC01A1
:10418000E35DF74F9491F80190878C91E92FE82B2C
:10419000EC932A893B898C89482F437050E0E88151
:1041A000F9810190F081E02D60E0CE0119952AA1FE
:1041B0003BA14CA15DA1E881F9810190F081E02D46
:1041C0006CE6CE0119952EA13FA148A559A55170C5
:1041D000E881F9810190F081E02D6DE6CE0119951D
:1041E0002DA53EA58FA5482F4F7350E0E881F9819A
:1041F0000190F081E02D60E7CE0119952A813B8185
:104200008C81482F4F7050E0E881F9810190F08156
:10421000E02D60E1CE0119958AA1807F88608AA394
:104220002AA13BA14CA15DA1E881F9810190F08117
:10423000E02D6CE6CE011995E881F9810688F789B1
:10424000E02D61E0CE01DF91CF911F910F91199484
:104250008230910538F0880F991F880F991F0597B4
:104260000197F1F708958F929F92AF92BF92CF92EC
:10427000DF92EF92FF926B017C010E9481454B011E
:104280005C01C114D104E104F104F1F00E94814504
:10429000DC01CB0188199909AA09BB09883E934022
:1042A000A105B10570F321E0C21AD108E108F108B7
:1042B00088EE880E83E0981EA11CB11CC114D104A5
:1042C000E104F10419F7DDCFFF90EF90DF90CF907C
:1042D000BF90AF909F908F9008952F923F924F92F2
:1042E0005F926F927F928F929F92AF92BF92CF9286
:1042F000DF92EF92FF920F931F93CF93DF93CDB78F
:10430000DEB7E3970FB6F894DEBF0FBECDBF3C011A
:104310004F83588769877A87098B1A8B2B8B3C8B45
:10432000CD8ADE8AEF8AF88E2B960EAD1FAD2B97C5
:104330000E94A6456E8F7F8F88A399A30E94A645F1
:10434000698F7A8F8B8F9C8FF301E650FE4F11821D
:1043500010823B96A114B10479F0C501A0E0B0E051
:10436000408151816281738184179507A607B70741
:104370002CF4AC01BD0102C040815181F301E75F23
:10438000FD4F8114910479F0A12CB12C8081918191
:10439000A281B38188169906AA06BB0614F4D5013A
:1043A000C401BC0102C060817181F301E35FFD4F74
:1043B0000115110571F020E030E080819181A2812A
:1043C000B381081719072A073B072CF4D901C80144
:1043D00002C0808191819301205F3F4F3E872D87EE
:1043E0008A0120E030E0F30106A717A720AB31AB2C
:1043F0001301F0E92F0E311CAB0160E070E0F10118
:10440000468F578F60A371A32301F0EF4F1AFEEF81
:104410005F0AA0E0B0E0F201868F978FA0A3B1A35E
:10442000EC59FE4F10821182128213823496108250
:1044300011821282138234961082118212821382A8
:104440003496118210823296118210823296118235
:1044500010820E94050880911A0E90911B0EA09167
:104460001C0EB0911D0E4301FAE78F1AFDEF9F0A53
:10447000F40180839183A283B3830E940508809115
:104480001E0E90911F0EA091200EB091210EF301EF
:10449000E657FD4F80839183A283B3830E94050872
:1044A0008091220E9091230EA091240EB091250EA2
:1044B000F301E257FD4F80839183A283B3835301BD
:1044C000F8E9AF1AFDEFBF0AF501608171818281C1
:1044D00093810E94B5562F81388549855A850E945F
:1044E00014570E9441598B019C01F4014081518174
:1044F000628173812C96EFAC2C978D859E850E94EE
:10450000F8178823F1F086E793E00E94091D88E1FF
:1045100095E00E94091DF301E85AFF4F6081718107
:1045200082819381F50120813181428153810E94F2
:10453000EB57CA01B9010E946A1D0E9405080E943A
:1045400007076301F4E9CF1AFDEFDF0AF601608186
:104550007181828193810E94B55629893A894B895C
:104560005C890E9414570E9441598B019C01F30100
:10457000E657FD4F40815181628173812D96EFACEA
:104580002D97C1010E94F8178823F1F082E793E08C
:104590000E94091D88E295E00E94091DF301E8527E
:1045A000FF4F6081718182819381F6012081318189
:1045B000428153810E94EB57CA01B9010E946A1DD2
:1045C0000E9405080E9407076301F0E9CF1AFDEF7A
:1045D000DF0AF60160817181828193810E94B55664
:1045E0002D893E894F89588D0E9414570E94415948
:1045F0008B019C01F301E257FD4F408151816281A3
:1046000073812E96EFAC2E97C2010E94F817882373
:10461000F1F08EE693E00E94091D88E395E00E9488
:10462000091DF301E85AFE4F6081718182819381F7
:10463000F60120813181428153810E94EB57CA01EA
:10464000B9010E946A1D0E9405080E940707F30134
:10465000158AEB56FF4F1082E058FF4F1082C301BE
:104660000E948A38C3010E948E388D859E850E94E3
:104670003C1CC1010E943C1CC2010E943C1C81E008
:1046800090E0F301E450FE4F918380837301F2E0E8
:10469000EF1AFEEFFF0AF7019183808383011E5F0B
:1046A000F8019183808341E050E06D857E85C301F0
:1046B0000E944A32F70140815181B101C3010E9439
:1046C0004A32F80140815181B201C3010E944A324D
:1046D00081E0F301EB52FD4F80838D859E850E9422
:1046E000E317C1010E94E317C2010E94E31764E6C9
:1046F00070E080E090E00E9433212C96FFAD2C9773
:10470000F1110EC02D962FAD2D97211105C02E96BB
:104710003FAD2E973323B1F0F301EB58FF4F1082DA
:104720002D964FAD2D97411104C0F301EB50FF4F73
:1047300010822E965FAD2E97511104C0F301EB58F5
:10474000FE4F10828D859E850E94C819C1010E946E
:10475000C819C2010E94C8198D859E850E94C4187F
:10476000C1010E94C418C2010E94C4180E94050819
:10477000FC0186858D8F18861F8293012B583F4F31
:104780003A8B298BA3014B505F4F5E8B4D8BC3013E
:104790008B589E4F988B8F87F301E450FE4FFDA3FB
:1047A000ECA327573E4F3FA32EA3455F5E4F59A76B
:1047B00048A78D5F91099BA38AA3EC54FF4FFBA7E9
:1047C000EAA72A553F4F3DA72CA74B535F4F5FA742
:1047D0004EA7865E9D4F99AB88ABBA97FBABEAAB11
:1047E000E989FA89808181110AC0ED89FE89808179
:1047F000811105C0EF85F8898081882321F0FD8D26
:10480000FF2309F4EAC083010C501E4FF801808198
:104810009181892B21F0C3010E94E53FF7CF83EA04
:1048200095E00E94091D2C96FFAD2C97FF23F9F00F
:104830002F813885232B09F041C03D8D311124C0D3
:104840008EE593E00E94091D0E9405080E9407075B
:104850002D964FAD2D97442309F494C48AE593E037
:104860000E94091D0E9405080E9407078BC42D960F
:104870008FAD2D97882369F0EF81F885EF2B19F51F
:10488000FD8DF11120C0EACF2D963FAD2D9731114E
:104890001AC02E962FAD2E972223A9F04F8158854E
:1048A000452B89F45D8D51110EC086E593E00E9481
:1048B000091D0E9405080E94070705C02D964FADEF
:1048C0002D97442331F3430184E0881A8EEF980A30
:1048D00085E090E0F401918380835301F2E0AF1A08
:1048E000FEEFBF0AF5019183808383011E5FF8010B
:1048F0009183808345E050E06D857E85C3010E94F1
:104900004A32F50140815181B101C3010E944A320E
:10491000F80140815181B201C3010E944A32F30182
:10492000EB52FD4F1082EE58F1098081811104C0D5
:104930008D859E850E94CF17F301E85BFD4F808136
:10494000811103C0C1010E94CF17F301E75BFD4F46
:104950008081811103C0C2010E94CF1764E670E01C
:1049600080E090E00E943321C3010E949238C3018D
:104970000E948A38C3010E948E380E9405080E9456
:104980006107F40111821082F50111821082F80191
:104990001182108240E050E06D857E85C3010E9447
:1049A0004A32F50140815181B101C3010E944A326E
:1049B000F80140815181B201C3010E944A32FD8D4C
:1049C000FF2309F4E6C30E94050821E0FC012687C5
:1049D00021E030E038872F83DCC34CA15DA16D85D9
:1049E0007E85C3010E94A3324EA15FA1B101C30124
:1049F0000E94A33248A559A5B201C3010E94A33267
:104A0000EAA1FBA180818823E1F08D859E850E942B
:104A1000C8198AA49BA4ACA4BDA4CEA4DFA4E8A812
:104A2000F9A80AA91BA993012C583D4FA30140578F
:104A30005E4F6D857E85C3010E94B02EEAA1FBA169
:104A40001082930128503F4F3C872B87F9018081CA
:104A5000882339F1C1010E94C8194301FFE48F1A6C
:104A6000FDEF9F0A530128E5A21A2DEFB20A630158
:104A700039E3C31A3DEFD30A73014AE6E41A4DEF56
:104A8000F40A830106571D4F930128583D4FA30197
:104A900040555E4FB101C3010E94B02EEB85FC85ED
:104AA0001082930128583E4F3C872B87F901808163
:104AB000882339F1C2010E94C8194301FEE48F1A0C
:104AC000FDEF9F0A530124E5A21A2DEFB20A6301FC
:104AD00037E3C31A3DEFD30A730146E6E41A4DEFFC
:104AE000F40A830102571D4F930124583D4FA3013F
:104AF00040535E4FB201C3010E94B02EEB85FC858E
:104B00001082E989FA8980818823D1F1F301E25684
:104B1000FD4F60817181072E000C880B990B0E945C
:104B2000B5569B01AC01F301EC58FD4F60817181DA
:104B3000828193810E947759181614F5E989FA89C0
:104B400010826AE374E0830100511E4FC8010E9485
:104B5000CF426CEB75E0C8010E94CF4262EB73E07C
:104B6000C8010E94CF422C96FFAD2C97FF2309F479
:104B700082C1F301EC5AFF4F10821182128213821C
:104B8000ED89FE8980818823D1F1F301E056FD4F44
:104B900060817181072E000C880B990B0E94B5561D
:104BA0009B01AC01F301E858FD4F60817181828166
:104BB00093810E947759181614F5ED89FE891082A9
:104BC0006AE374E0830100511E4FC8010E94CF4286
:104BD00064EE75E0C8010E94CF4262EB73E0C80149
:104BE0000E94CF422D96FFAD2D97FF2309F448C1B7
:104BF000F301EC52FF4F1082118212821382EF8573
:104C0000F88980818823D1F1F301EE55FD4F608151
:104C10007181072E000C880B990B0E94B5569B01E1
:104C2000AC01F301E458FD4F608171818281938171
:104C30000E947759181614F5EF85F88910826AE3F7
:104C400074E0830100511E4FC8010E94CF426CE006
:104C500076E0C8010E94CF4262EB73E0C8010E9477
:104C6000CF422E96FFAD2E97FF2309F40EC1F3011C
:104C7000EC5AFE4F1082118212821382F301EA581D
:104C8000FF4F60818D859E850E947118882351F0A9
:104C9000F301EC5AFF4F1082118212821382E989CC
:104CA000FA891082F301EA50FF4F6081C1010E942E
:104CB0007118882351F0F301EC52FF4F10821182DA
:104CC00012821382ED89FE891082F301EA58FE4FA9
:104CD0006081C2010E947118882351F0F301EC5ADF
:104CE000FE4F1082118212821382EF85F8891082A2
:104CF000C3010E949238C3010E948A38E989FA8967
:104D000080818823E9F00E94A6454B015C012E8D2D
:104D10003F8D48A159A1821A930AA40AB50AF3014A
:104D2000E45AFD4F2081318142815381A8EEB3E0E6
:104D30000E940A58681579058A059B0508F4AAC0DF
:104D4000ED89FE8980818823E9F00E94A6454B0108
:104D50005C012E8D3F8D48A159A1821A930AA40AA5
:104D6000B50AF301E05AFD4F208131814281538120
:104D7000A8EEB3E00E940A58681579058A059B05DC
:104D800008F4A2C0EF85F88980818823E9F00E94A9
:104D9000A6454B015C012E8D3F8D48A159A1821A79
:104DA000930AA40AB50AF301EC59FD4F2081318121
:104DB00042815381A8EEB3E00E940A586815790534
:104DC0008A059B0508F49AC086EF9BE00E94A140EB
:104DD000181619063CF586EF9BE00E947F408F7DF8
:104DE00085349105F9F46EE775E0C30180519E4F5B
:104DF0000E94CF4282E993E00E94091D0E940508AB
:104E00000E940707E989FA891082ED89FE891082DC
:104E1000EF85F8891082F1E0FD8F21E030E03887DE
:104E20002F8304C04F815885452B39F063E975E025
:104E3000C30180519E4F0E94CF42C3010E94E53FB3
:104E40000E94A645DC01CB01298D3A8D4B8D5C8DEE
:104E5000821B930BA40BB50B8B3F9105A105B105EC
:104E600008F4BECCF301EC50FE4F80819181892B78
:104E700009F45EC0B5CC23E030E038872F8380CEC4
:104E800023E030E038872F83BACE23E030E0388744
:104E90002F83F4CEE989FA8910826AE673E08301F0
:104EA00000511E4FC8010E94CF4262EB73E0C8015F
:104EB0000E94CF4264E376E0C8010E94CF4222E024
:104EC00030E038872F833CCFED89FE89108266E67B
:104ED00073E0830100511E4FC8010E94CF4262EB74
:104EE00073E0C8010E94CF4269E476E0C8010E94E5
:104EF000CF4222E030E038872F8344CFEF85F88916
:104F0000108262E673E0830100511E4FC8010E94C7
:104F1000CF4262EB73E0C8010E94CF426EE576E0BB
:104F2000C8010E94CF4222E030E038872F834CCF67
:104F3000F301E650FE4F808191818130910509F0A7
:104F4000F0C00E9405088C01FC0180819181A28142
:104F5000B381181619061A061B0644F081E090E08A
:104F6000A0E0B0E080839183A283B383F8018481C1
:104F70009581A681B781181619061A061B0644F0FA
:104F800081E090E0A0E0B0E084839583A683B783BE
:104F9000F80180859185A285B385181619061A0631
:104FA0001B0644F081E090E0A0E0B0E080879187AC
:104FB000A287B387CE0101960E943C1D67EF74E083
:104FC000CE0101960E94CF4268E175E0CE010196C4
:104FD0000E94CF4260911A0E70911B0E80911C0EA0
:104FE00090911D0E0E94B5566B017C01F801608105
:104FF0007181828193810E94B5569B01AC01C701EA
:10500000B6010E94CF58AB01BC01CE0101960E94AF
:105010000B1D68E275E0CE0101960E94CF426091BF
:105020001E0E70911F0E8091200E9091210E0E94F5
:10503000B5566B017C01F801648175818681978189
:105040000E94B5569B01AC01C701B6010E94CF5822
:10505000AB01BC01CE0101960E940B1D68E375E017
:10506000CE0101960E94CF426091220E7091230ED4
:105070008091240E9091250E0E94B5566B017C0103
:10508000F80160857185828593850E94B5569B01E4
:10509000AC01C701B6010E94CF58AB01BC01CE01E3
:1050A00001960E940B1DBE016F5F7F4F830100516F
:1050B0001E4FC8010E94DE4289819A810E94C4511C
:1050C0000AC0892BC9F46EE873E0830100511E4FBA
:1050D000C8010E94CF420E940508BC01CE01019682
:1050E0000E94C306BE016F5F7F4FC8010E94DE426F
:1050F00089819A810E94C451F301E650FE4F80815C
:1051000091810196833091051CF49183808302C0C4
:10511000118210820E94A645698F7A8F8B8F9C8F97
:105120005FCB8230910569F66FE975E0830100512C
:105130001E4FC8010E94CF4268E175E0C8010E947D
:10514000CF428D859E850E94C535BC01C8010E9455
:105150009F4268E275E0C8010E94CF42C1010E94EF
:10516000C535BC01C8010E949F4268E375E0C801D3
:105170000E94CF42C2010E94C535BC01C8010E94F5
:105180009F42A9CF2E965FAD2E97552309F49BCB56
:105190008CCB81EB95E00E94091D8F8198850E9440
:1051A000621E82EB93E00E94091D0E9405084F8158
:1051B000588550935F0740935E07CA01E3960FB688
:1051C000F894DEBF0FBECDBFDF91CF911F910F913D
:1051D000FF90EF90DF90CF90BF90AF909F908F9017
:1051E0007F906F905F904F903F902F9008952F92F7
:1051F0003F924F925F926F927F928F929F92AF9267
:10520000BF92CF92DF92EF92FF920F931F93CF93B3
:10521000DF93CDB7DEB765970FB6F894DEBF0FBE4C
:10522000CDBF8C010E94A312F801EE5FFD4F81E01B
:1052300040913008509131086091320870913308E4
:10524000452B462B472B09F480E080830E94A31254
:10525000F801ED5FFD4F81E0409134085091350831
:105260006091360870913708452B462B472B09F47F
:1052700080E080830E94A312F801EC5FFD4F81E083
:10528000409138085091390860913A0870913B0874
:10529000452B462B472B09F480E080830E94A31204
:1052A0008091800890918108A0918208B091830834
:1052B000F801EB5FFD4F80839183A283B3830E944B
:1052C000A3128091840890918508A0918608B091DE
:1052D0008708F801E75FFD4F80839183A283B38342
:1052E0000E94A3128091880890918908A0918A0851
:1052F000B0918B08F801E35FFD4F80839183A28317
:10530000B3830E94A3128091580890915908A091EC
:105310005A08B0915B08F801EF5EFD4F80839183DE
:10532000A283B3830E94A31280915C0890915D08D0
:10533000A0915E08B0915F08F801EB5EFD4F80839D
:105340009183A283B3830E94A312809160089091FD
:105350006108A0916208B0916308F801E75EFD4F13
:1053600080839183A283B3830E94A31280916808F3
:1053700090916908A0916A08B0916B08F801E35E0A
:10538000FD4F80839183A283B3830E94A3128091F7
:105390006C0890916D08A0916E08B0916F08F801AB
:1053A000EF5DFD4F80839183A283B3830E94A3129C
:1053B0008091700890917108A0917208B091730863
:1053C000F801EB5DFD4F80839183A283B3830E943C
:1053D000A3128091080890910908A0910A08B09141
:1053E0000B08F801E75DFD4F80839183A283B383AF
:1053F0000E94A31280910C0890910D08A0910E08B4
:10540000B0910F08F801E35DFD4F80839183A28383
:10541000B3830E94A3128091100890911108A0916B
:105420001208B0911308F801EF5CFD4F808391835F
:10543000A283B3830E94A312F801EB5CFD4F81E0CD
:105440002091E0073091E1072130310509F080E03B
:1054500080830E94A312F801EA5CFD4F81E0209155
:10546000E4073091E5072130310509F080E08083C1
:105470000E94A312F801E95CFD4F81E02091E8074A
:105480003091E9072130310509F080E080830E94E6
:10549000A312F801ED5AFD4F81E04091B8075091F9
:1054A000B9076091BA077091BB07452B462B472B74
:1054B00009F480E080830E94A312F801EC5AFD4FAA
:1054C00081E04091BC075091BD076091BE0770918B
:1054D000BF07452B462B472B09F480E080830E94B1
:1054E000A312F801EB5AFD4F81E04091C0075091A3
:1054F000C1076091C2077091C307452B462B472B0C
:1055000009F480E080830E94A312F801EA5AFD4F5B
:1055100081E04091900850919108609192087091BB
:105520009308452B462B472B09F480E080830E948B
:10553000A312F801E95AFD4F81E04091940850917F
:1055400095086091960870919708452B462B472B3C
:1055500009F480E080830E94A312F801E85AFD4F0D
:1055600081E0409198085091990860919A08709153
:105570009B08452B462B472B09F480E080830E9433
:10558000A312F801E75AFD4F81E02091C80730913E
:10559000C9072130310509F080E080830E94A31201
:1055A000F801E65AFD4F81E02091CC073091CD07FC
:1055B0002130310509F080E080830E94A312F801B8
:1055C000E55AFD4F81E02091D0073091D10721307D
:1055D000310509F080E080830E94A312809190073A
:1055E00090919107A0919207B0919307F801E45A26
:1055F000FD4F80839183A283B3830E94A312809185
:10560000940790919507A0919607B0919707F8019C
:10561000E05AFD4F80839183A283B3830E94A3123B
:105620008091980790919907A0919A07B0919B0754
:10563000F801EC59FD4F80839183A283B3830E94CC
:10564000A312F801E95BFD4F81E04091A007509162
:10565000A1076091A2077091A307452B462B472B0A
:1056600009F480E080830E94A312F801E85BFD4FFB
:1056700081E04091A4075091A5076091A607709121
:10568000A707452B462B472B09F480E080830E9417
:10569000A312F801E75BFD4F81E04091A80750910C
:1056A000A9076091AA077091AB07452B462B472BA2
:1056B00009F480E080830E94A31280919809909160
:1056C0009909A0919A09B0919B09F801E85CFD4FF6
:1056D00080839183A283B3830E94A31280919C094B
:1056E00090919D09A0919E09B0919F09F801E45CF9
:1056F000FD4F80839183A283B3830E94A312809184
:10570000A0099091A109A091A209B091A309F80163
:10571000E05CFD4F80839183A283B3830E94A31238
:10572000F801E65BFD4F81E02091F8073091F90721
:105730002130310509F080E08083F801E55BFD4F01
:105740001082319610820E94A312F801E35BFD4F94
:1057500081E02091F4073091F5072130310509F0FF
:1057600080E08083F801E25BFD4F10823196108269
:105770000E94A312F801E05BFD4F81E02091180820
:10578000309119082130310509F080E080830E94B2
:10579000A312F801EF5AFD4F81E020911C083091CF
:1057A0001D082130310509F080E080830E94A3129A
:1057B000F801EE5AFD4F81E0209120083091210838
:1057C0002130310509F080E080830E94A312F801A6
:1057D000EC5BFD4F81E02091A8093091A9092130AF
:1057E000310509F080E080830E94A312F801EB5B91
:1057F000FD4F81E02091AC093091AD092130310598
:1058000009F080E080830E94A312F801EA5BFD4F5B
:1058100081E02091B0093091B1092130310509F0C2
:1058200080E080830E94A312380128E9621A2DEFDC
:10583000720A8091400890914108A0914208B0916D
:105840004308F30180839183A283B3830E94A31250
:105850005801F4E9AF1AFDEFBF0A80914408909116
:105860004508A0914608B0914708F50180839183CF
:10587000A283B3830E94A3128091480890914908A3
:10588000A0914A08B0914B08980120593D4FF90169
:1058900080839183A283B383F3014081518162812C
:1058A0007381141615061606170644F041E050E001
:1058B00060E070E04083518362837383F50140812F
:1058C000518162817381141615061606170644F07D
:1058D00041E050E060E070E0408351836283738375
:1058E000181619061A061B064CF081E090E0A0E09D
:1058F000B0E0F90180839183A283B383D901CD9075
:10590000DD90ED90FC90F50180809180A280B380C5
:10591000D3014D905D906D907C900E940508FC0134
:10592000408251826282738284829582A682B7828B
:10593000C086D186E286F386F801EC5BFD4FB0812C
:10594000B9833C9780819181A281B3818A8B9B8BA3
:10595000AC8BBD8B789690819E83399630803F9733
:10596000A081AA87339620803996B081BF8733976C
:1059700020812B877E973081F3972081E65AFF4F55
:105980004081518162817381F397C080D180E28030
:10599000F3803C9780809180A280B3803C974080C8
:1059A0005180628073803C9780819181A281B38114
:1059B000F80186A797A7A0ABB1AB42AA53AA64AAE5
:1059C00075AA86AA97AAA0AEB1AEC2AED3AEE4AE17
:1059D000F5AEFE96408351836283738334962083B1
:1059E000319630832B85F80123A78F8584A735A6B0
:1059F000EA5BFF4F80E490E0A0E0B0E08083918319
:105A0000A283B3833297208231969A85908335960C
:105A1000AE81A08331968A899B89AC89BD898083B8
:105A20009183A283B383349699819083EA50FE4F89
:105A3000A081A983399780819181A281B3818E83CE
:105A40009F83A887B987759690819A873996A08198
:105A5000AA833F97B081BB87339620812F873996E1
:105A60002080339730807E973081F3972081E35AEE
:105A7000FF4F80819181A281B381F3974081518151
:105A8000628173813C97C080D180E280F3803C9733
:105A900080809180A280B380E558F140F98BE88B3B
:105AA000E758FE4F4080518062807380E889F98911
:105AB000468E578E60A271A282A293A2A4A2B5A222
:105AC000C6A2D7A2E0A6F1A642A753A764A775A7CE
:105AD00086A797A7A0ABB1AB22AB33AB338E248E96
