:100000000C9486040C94B7040C94B7040C94B704B5
:100010000C94B7040C94B7040C94B7040C94B70474
:100020000C94B7040C943A180C943A180C943A189F
:100030000C94B7040C94B7040C94B7040C94F131ED
:100040000C94B7040C94B6450C94B7040C94B70404
:100050000C944A320C94B7040C94B7040C948E465A
:100060000C94B7040C94EB430C94C1430C94B70468
:100070000C94B7040C94B7040C94B7040C94B70414
:100080000C9488450C94B7040C94B7040C94B704F2
:100090000C94B7040C94B7040C94B7040C94B704F4
:1000A0000C94B7040C94B7040C945A450C94B70400
:1000B0000C94B7040C94B7040C94B7040C942C451E
:1000C0000C94B7040C94B7040C94B7040C94B704C4
:1000D0000C94B7040C94B7040C94B7040C94B704B4
:1000E0000C94B704C90BD60BDF0BE80BF50BFE0B1A
:1000F000031003100310031003100B0C180C250C35
:100100000310320C3B0C440C510C5A0C630C6C0C5D
:10011000750C7E0C0310870C900C990C03100310C7
:100120000310A20CAB0CB40C03100310BD0CCA0CD2
:10013000031003100310D70CE40CF10C0310FE0C99
:10014000070D100D031003100310190D220D2B0DB8
:100150000310380D450D520D0310031003105F0DF1
:100160006C0D790D0310860D930DA00D0310031077
:100170000310AD0DBA0DC70D0310D40DDD0DE60D46
:100180000310031003100A0E170E240E0310310E75
:100190003E0E4B0E031003100310580E610E6A0E34
:1001A0000310031003100310031003100310730E49
:1001B0007C0E850E03108E0E970EA00E03100310FA
:1001C0000310A90EB60EC30E0310D00EDD0EEA0EFC
:1001D000031003100310F70E040F110F03101E0F6E
:1001E000270F300F031003100310390F420F4B0F6E
:1001F0000310031003100310031003100310031067
:10020000031003100310EF0DF80D010E031003107F
:100210000310031003100310031003100310031046
:100220000310031003100310031003100310031036
:100230000310031003100310031003100310031026
:100240000310031003100310031003100310031016
:100250000310031003100310031003100310031006
:1002600003100310031003100310031003100310F6
:10027000031003100310540F5D0F6A0F0310770F64
:10028000800F8D0F0310031003109A0FA30FB00FF0
:100290000310BD0FC60FD30F031003100310E00FA0
:1002A000E90FF60FF414F714E614EA14F0142E15FF
:1002B000FB14FF14051509150D15131517151B153E
:1002C0002E1521152515291597339C33A133AB33F2
:1002D000B5332E34BF33C733CF33D933E333ED33A4
:1002E000FC3306342E3410341A3424340C94912107
:1002F0000C9409150C94A00D0C94860D0C944C4193
:100300000C94FF070C945A0C0C9466060C94442F22
:100310000C941E0F0C9430270C94AA210C94A1333A
:100320000C9493210C942E340C94580E0C94F714C6
:100330000C947E0C0C94100D0C94A00E0C9475264D
:100340000C94A30F0C94310E0C940E080C944C2FAB
:100350000C9475210C9469060C94520D0C94B00FFA
:100360000C942F270C942B060C9417150C945D0FEE
:100370000C942E270C94C90B0C941E410C941E0552
:100380000C94C30E0C942E150C946C050C94792FC0
:100390000C94930D0C94440C0C94F60F0C944B0E8F
:1003A0000C94630C0C94390F0C94FC330C94B541F1
:1003B0000C945B410C94FE0B0C94F4140C94C92522
:1003C0000C94B9050C94632F0C94180C0C94170E14
:1003D0000C94790D0C943E0E0C94A20C0C946F416D
:1003E0000C94AB0C0C94BF330C94D9210C945F0D7E
:1003F0000C94EA140C94D6040C94E6140C94B904EE
:100400000C942C270C9405150C942C050C94770F48
:100410000C946A0F0C94EB100C947D410C949A0F81
:100420000C94F2050C94B60E0C948A310C94DF0BEC
:100430000C946A0B0C946B060C94250C0C94F80D20
:100440000C946A0E0C94320C0C949F210C94BC10EA
:100450000C94970E0C94220D0C94E60D0C94730ED4
:100460000C9478210C94F0100C94BA0D0C94ED338C
:100470000C94FE0C0C94CF330C94D1260C94D60B18
:100480000C94300F0C94610E0C94380D0C943B09B5
:100490000C946F060C94A1210C94850E0C94EF0D16
:1004A0000C9464060C9410100C942B270C94420F9F
:1004B0000C946A060C94540F0C94800F0C943E0517
:1004C0000C942A270C9406340C94BD2F0C94F50B35
:1004D0000C9416050C9420050C9499210C949331DE
:1004E0000C943B0C0C948D0F0C946C0D0C949B2174
:1004F0000C94040F0C941A050C94F70E0C94180528
:100500000C9413150C9497210C94E6100C942E0562
:100510000C9414050C946C060C948E0E0C94FB1425
:100520000C94DD0D0C94C60F0C94C70D0C94870C25
:100530000C94CA0C0C9402420C94070D0C942A05DE
:100540000C94DD0E0C94900C0C94E00F0C94450D63
:100550000C9485310C9428270C94EA0E0C94510AC3
:100560000C9495210C94F5100C94BD0F0C94270F4E
:100570000C949D210C949B2F0C94110F0C94190D2D
:100580000C941C050C94C7330C94D9330C94B533DC
:100590000C949D310C94F0140C94F10C0C941B15DC
:1005A0000C94A90E0C9468060C9467060C94E33323
:1005B0000C9429150C9429270C94D70C0C94CB522D
:1005C0000C9426050C941A340C942D270C946E066A
:1005D0000C945D050C948F210C94AB330C94240582
:1005E0000C9497330C94B40C0C946D060C94243436
:1005F0000C9431270C94D92F0C94E80B0C94FF1415
:100600000C94D1100C94010E0C949C330C948031FA
:100610000C94D00E0C940A0E0C947C0E0C946C0C62
:100620000C94510C0C9403100C946C300C944B0FE4
:100630000C94D30F0C94BD0C0C94D40D0C94750C2D
:100640000C940B0C0C9410340C94AD0D0C94E40C25
:100650000C94A3210C9422050C94240E0C94650692
:100660000C94990C0C9470060C9428050C9421158C
:100670000C940D150C94E90F0C942B0D0C940F1089
:100680000C9425154E414E494E495459494E46CD7C
:10069000CCCC3D0AD7233C17B7D13877CC2B329539
:1006A00095E6241FB14F0A000020410000C8420017
:1006B000401C4620BCBE4CCA1B0E5AAEC59D7400E1
:1006C000407A10F35A00A0724E18090010A5D4E821
:1006D0000000E87648170000E40B54020000CA9AB4
:1006E0003B000000E1F50500008096980000004006
:1006F000420F000000A0860100000010270000004B
:1007000000E803000000006400000000000A000090
:100710000000000100000000002C76D888DC674F44
:100720000823DFC1DFAE59E1B1B796E5E3E453C674
:100730003AE651997696E8E6C28426EB898C9B626C
:10074000ED407C6FFCEFBC9C9F40F2BAA56FA5F416
:1007500090055A2AF75C936B6CF9676DC11BFCE03E
:10076000E40D47FEF520E6B500D0ED902E03009491
:100770003577050080841E080000204E0A00000026
:10078000C80C333333330F986E12831141EF8D2130
:1007900014893BE65516CFFEE6DB18D1844B381B97
:1007A000F77C1D901DA4BBE424203284725E22815C
:1007B00000C9F124ECA1E53D270000210024002719
:1007C000002A002D00300033000101000004010761
:1007D000010A0100000A0B02090C0D0E08070304B0
:1007E0000100000000000000000000000000000008
:1007F00000000000000000000000000000000012E7
:1008000011100000000000000000000000000000C7
:1008100000000000000000000000000000000000D8
:100820000000000000000000000102102020080865
:100830001020401020408002010201080402010142
:10084000020408102040808040201008040201802B
:100850000402018040201008040201080402010182
:10086000020408102040800102040810204080107B
:1008700008040880102040044080102040048000BC
:100880000020002300260029002C002F0032000049
:1008900001000003010601090100002200250028D3
:1008A000002B002E00310034000201000005010879
:1008B000010B0105050505070508080808020202E5
:1008C000020A0A08080404040401010101010101EB
:1008D000010303030303030303040707070C0C0CC2
:1008E0000C0C0C0C0C02020202060606060606069A
:1008F000060B0B0B0B0B0B0B0B07070A0A0A0A0A5A
:100900000A050505040404080800CB5211241FBE83
:10091000CFEFD1E2DEBFCDBF00E00CBF18E0A0E01A
:10092000B2E0E8E9F9EB00E00BBF02C007900D92DE
:10093000A235B107D9F72FE0A2E5B8E001C01D92BA
:10094000A932B207E1F714E0C6E8D4E000E006C03F
:1009500021970109802FFE010E94A05AC538D107B6
:1009600080E00807A9F70E94D8460C94CA5C0C9452
:100970000000EF92FF920F931F93CF93DF93FB0141
:10098000E2A8F3A802A113A1C68DD78D0E943B3423
:100990009701A801BE010E94543380E090E0DF91EE
:1009A000CF911F910F91FF90EF9008954F925F921A
:1009B0006F927F92AF92BF92CF92DF92EF92FF92AF
:1009C0000F931F93CF93DF93FB01E2A8F3A846A4F4
:1009D00057A460A871A8C6A0D7A0A2A0B3A0068DF6
:1009E000178D0E943B34EC019701A501B8010E94CC
:1009F0005433C301B2010E94AF199701A601B80197
:100A0000CE010E94543380E090E0DF91CF911F919E
:100A10000F91FF90EF90DF90CF90BF90AF907F90BD
:100A20006F905F904F9008950C940A540C940A5460
:100A30000C940A540C940A540C940A540C940A54BE
:100A40000C940A540C940A540C940A540C940A54AE
:100A50000C940A540C940A540C940A54CF93DF93C8
:100A6000FB01D2A9C68D0E943B346D2F8C2F0E94B2
:100A7000A01880E090E0DF91CF9108950F931F932D
:100A8000CF93DF93FB0102A913A9C68DD78D0E94D6
:100A90003B34A801BE010E94E83280E090E0DF9183
:100AA000CF911F910F910895662319F087EB94E081
:100AB00002C080EB94E00C948215CF93DF93FB018E
:100AC000C68DD78D0E949611BE010E94371180E01D
:100AD00090E0DF91CF910895CF92DF92EF92FF9255
:100AE0000F931F93CF93DF93FB01C2A0D3A0E4A089
:100AF000F5A0068D178D0E949611EC018A819B81CD
:100B00008F30F7E29F0724F401969B838A8302C00B
:100B10001B821A82B801CE010E94A3348823B1F04F
:100B2000F801EE0FFF1FEE0FFF1FE85AF74FC082CC
:100B3000D182E282F382A7019601B801CE010E9420
:100B4000FA10B801CE010E94371104C08AEA95E07C
:100B50000E9482150E94BB320E94863280E090E0A3
:100B6000DF91CF911F910F91FF90EF90DF90CF9089
:100B700008958F929F92AF92BF92CF92DF92EF92A1
:100B8000FF920F931F930E94AF2562E070E00E94D6
:100B9000FD3A892BD1F40E94AF2521E02F931F92BB
:100BA0001F921F921F92812C912CA12CB12CC12C31
:100BB000D12C760197018601B701A6010E94E9199F
:100BC0000F900F900F900F900F9080E090E01F918A
:100BD0000F91FF90EF90DF90CF90BF90AF909F90DC
:100BE0008F9008958F929F92AF92BF92CF92DF9293
:100BF000EF92FF920F931F930E94AF2561E070E088
:100C00000E94FD3A892BD1F40E94AF251F9221E06A
:100C10002F931F921F921F92812C912CA12CB12CEB
:100C2000C12CD12C760197018601B701A6010E9443
:100C3000E9190F900F900F900F900F9080E090E0C7
:100C40001F910F91FF90EF90DF90CF90BF90AF90EA
:100C50009F908F9008958F929F92AF92BF92CF9264
:100C6000DF92EF92FF920F931F930E94AF2560E0F7
:100C700070E00E94FD3A892BD1F40E94AF251F92AB
:100C80001F9221E02F931F921F92812C912CA12C57
:100C9000B12CC12CD12C760197018601B701A60198
:100CA0000E94E9190F900F900F900F900F9080E025
:100CB00090E01F910F91FF90EF90DF90CF90BF9049
:100CC000AF909F908F900895089508950895089586
:100CD000089508950895089508950895089508952C
:100CE0000895EF92FF920F931F93CF93DF93CDB7A9
:100CF000DEB72E970FB6F894DEBF0FBECDBF8C01C6
:100D00000E94B5156CEC75E0C8010E94AB43609180
:100D100054087091550880915608909157082AE020
:100D2000AE014F5F5F4F7A010E94CD54F7010190F1
:100D30000020E9F73197AF014E195F09B701C801EB
:100D40000E944D436BE275E0C8010E94AB43C801AD
:100D50002E960FB6F894DEBF0FBECDBFDF91CF91B8
:100D60001F910F91FF90EF9008958CEC95E00E94F9
:100D700082156091540870915508809156089091A1
:100D800057080E94E3158BE295E00C9482150F93AF
:100D90001F93CF93DF93EC018FEC95E00E948215B7
:100DA00083ED95E00E94821500EE1CE0F801608161
:100DB000CE010E94540587ED95E00E948215F8014E
:100DC0006181CE010E9454058BED95E00E94821551
:100DD000F8016281CE010E9454058FED95E00E94DA
:100DE0008215F8016381CE010E94540583EE95E0DF
:100DF0000E948215F8016481CE010E94540587EE9D
:100E000095E00E948215F8016581CE010E9454058B
:100E1000CE01DF91CF911F910F910C94B506CF9227
:100E2000DF92EF92FF92CF93DF93EC01888199815B
:100E3000AA81BB81181619061A061B0644F081E028
:100E400090E0A0E0B0E088839983AA83BB838C8183
:100E50009D81AE81BF81181619061A061B0644F043
:100E600081E090E0A0E0B0E08C839D83AE83BF83FF
:100E700088859985AA85BB85181619061A061B064A
:100E800044F081E090E0A0E0B0E088879987AA87ED
:100E9000BB878BEE95E00E94821583E197E00E946C
:100EA00082156091010F7091020F8091030F909154
:100EB000040F0E94FB586B017C01688179818A8153
:100EC0009B810E94FB589B01AC01C701B6010E94A7
:100ED000155B42E00E940D1683E297E00E948215A6
:100EE0006091050F7091060F8091070F9091080F88
:100EF0000E94FB586B017C016C817D818E819F81FA
:100F00000E94FB589B01AC01C701B6010E94155B12
:100F100042E00E940D1683E397E00E9482156091E3
:100F2000090F70910A0F80910B0F90910C0F0E9486
:100F3000FB586B017C01688579858A859B850E94B9
:100F4000FB589B01AC01C701B6010E94155B42E052
:100F50000E940D16CE01DF91CF91FF90EF90DF90B0
:100F6000CF900C94B5068091DE0C9091DF0C892B0C
:100F700009F040C08FE090E00E947253FC0181E0D4
:100F800090E0A0E0B0E080839183A283B383848368
:100F90009583A683B78380879187A287B3871586B9
:100FA000148616861092010F1092020F1092030FF2
:100FB0001092040F1092050F1092060F1092070F57
:100FC0001092080F1092090F10920A0F10920B0F37
:100FD00010920C0F10925408109255081092560857
:100FE000109257081092530810925208F093DF0C99
:100FF000E093DE0C8091DE0C9091DF0C08950E944E
:1010000096110E947A118FEE95E00E9482150E943F
:10101000B3070E94B50680E090E008952F923F92BA
:101020004F925F926F927F928F929F92AF92BF92F8
:10103000CF92DF92EF92FF920F931F93CF93DF93A4
:10104000CDB7DEB72A970FB6F894DEBF0FBECDBF7F
:101050000E94AF2521E02F931F921F921F921F9293
:10106000812C912CA12CB12CC12CD12C7601970173
:101070008601B701A6010E94E9190E9496110F90FE
:101080000F900F900F900F90809124099091250957
:10109000019729F486EF9FEF9E838D8304C0AAE019
:1010A000B0E0BE83AD830E94B3076091010F7091E1
:1010B000020F8091030F9091040F0E94FB586B0167
:1010C0007C010E94961160913409709135098091DC
:1010D0003609909137090E94FB589B01AC01C7016A
:1010E000B6010E94155B69837A838B839C830E947F
:1010F000B3076091050F7091060F8091070F9091D3
:10110000080F0E94FB586B017C010E9496116091B0
:1011100038097091390980913A0990913B090E94F0
:10112000FB589B01AC01C701B6010E94155B2B0166
:101130003C01212C312C8D819E81092E000CAA0BA3
:10114000BB0B8D839E83AF83B88793E02916310450
:1011500011F14CF4B1E02B163104E9F0E2E02E1667
:10116000310479F009C0F5E02F163104A1F074F0D4
:1011700086E02816310469F10E94AF25A1E0AF9303
:101180002CC00E94AF25B1E0BF9327C00E94AF25BD
:10119000E1E0EF9322C00E94AF259A8789876D8195
:1011A0007E818F8198850E94FB586B017C011F9284
:1011B0001F921F921F921F92812C912CA12CB12C57
:1011C0009301820149815A816B817C8189859A854D
:1011D00015C00E94AF25F1E0FF931F921F921F924E
:1011E0001F92812C912CA12CB12CC12CD12C7601D9
:1011F0009301820149815A816B817C810E94E919A6
:101200000F900F900F900F900F900E94B307809156
:101210005208909153089A8789870E94B307DC018E
:101220001E968C9181110CC0E985FA85EF2B41F453
:10123000FFEF2F1A3F0A27E02216310409F085CF6D
:1012400080E090E02A960FB6F894DEBF0FBECDBFC7
:10125000DF91CF911F910F91FF90EF90DF90CF9092
:10126000BF90AF909F908F907F906F905F904F90C6
:101270003F902F9008952F923F924F925F926F92DE
:101280007F928F929F92AF92BF92CF92DF92EF9216
:10129000FF920F931F93CF93DF93CDB7DEB72A97BB
:1012A0000FB6F894DEBF0FBECDBF0E94961180919D
:1012B000240990912509019729F486EF9FEF9E83D9
:1012C0008D8304C0AAE0B0E0BE83AD830E94B30763
:1012D0006091010F7091020F8091030F9091040FA4
:1012E0000E94FB582B013C010E9496116091340929
:1012F0007091350980913609909137090E94FB5809
:101300009B01AC01C301B2010E94155B69837A8322
:101310008B839C830E94B3076091090F70910A0F21
:1013200080910B0F90910C0F0E94FB582B013C01F8
:101330000E94961160913C0970913D0980913E098F
:1013400090913F090E94FB589B01AC01C301B2017F
:101350000E94155B2B013C01212C312C8D819E813B
:10136000092E000CAA0BBB0B8D839E83AF83B8871D
:1013700093E02916310429F14CF4B1E02B16310425
:1013800001F1E2E02E16310481F009C0F5E02F16DC
:101390003104B9F084F086E02816310481F10E940E
:1013A000AF251F92A1E0AF932FC00E94AF251F92DF
:1013B000B1E0BF9329C00E94AF251F92E1E0EF93F7
:1013C00023C00E94AF259A8789876D817E818F8196
:1013D00098850E94FB588B019C011F921F921F92BF
:1013E0001F921F92812C912CA12CB12C73016201B0
:1013F00049815A816B817C8189859A8515C00E94BB
:10140000AF251F92F1E0FF931F921F921F92812C34
:10141000912CA12CB12C7301620100E010E0980125
:1014200049815A816B817C810E94E9190F900F904C
:101430000F900F900F900E94B307809152089091E7
:1014400053089A8789870E94B307DC011E968C9106
:1014500081110CC0E985FA85EF2B41F4FFEF2F1ABB
:101460003F0A27E02216310409F082CF80E090E0A5
:101470002A960FB6F894DEBF0FBECDBFDF91CF9195
:101480001F910F91FF90EF90DF90CF90BF90AF90A2
:101490009F908F907F906F905F904F903F902F9094
:1014A00008952F923F924F925F926F927F928F9208
:1014B0009F92AF92BF92CF92DF92EF92FF920F93E3
:1014C0001F93CF93DF93CDB7DEB72A970FB6F8946B
:1014D000DEBF0FBECDBF0E9496118091240990916E
:1014E0002509019729F486EF9FEF9E838D8304C021
:1014F000AAE0B0E0BE83AD830E94B3076091050F00
:101500007091060F8091070F9091080F0E94FB5871
:101510002B013C010E9496116091380970913909A4
:1015200080913A0990913B090E94FB589B01AC01C4
:10153000C301B2010E94155B69837A838B839C830C
:101540000E94B3076091090F70910A0F80910B0FF1
:1015500090910C0F0E94FB582B013C010E949611A8
:1015600060913C0970913D0980913E0990913F093D
:101570000E94FB589B01AC01C301B2010E94155BA4
:101580002B013C01212C312C8D819E81092E000CD8
:10159000AA0BBB0B8D839E83AF83B88793E029167C
:1015A000310441F14CF4B1E02B16310419F1E2E0C1
:1015B0002E16310489F009C0F5E02F163104D1F060
:1015C00094F086E02816310499F10E94AF251F920D
:1015D0001F92A1E0AF9332C00E94AF251F921F92CD
:1015E000B1E0BF932BC00E94AF251F921F92E1E094
:1015F000EF9324C00E94AF259A8789876D817E81F1
:101600008F8198850E94FB58AB01BC011F921F92ED
:101610001F921F921F92812C912CA12CB12C73012F
:10162000620109811A812B813C8189859A8515C0C7
:101630000E94AF251F921F92F1E0FF931F921F920D
:10164000812C912CA12CB12C7301620109811A818A
:101650002B813C8140E050E0BA010E94E9190F90D3
:101660000F900F900F900F900E94B3078091520837
:10167000909153089A8789870E94B307DC011E96D0
:101680008C9181110CC0E985FA85EF2B41F4FFEFB5
:101690002F1A3F0A27E02216310409F07FCF80E09D
:1016A00090E02A960FB6F894DEBF0FBECDBFDF9153
:1016B000CF911F910F91FF90EF90DF90CF90BF904F
:1016C000AF909F908F907F906F905F904F903F90E2
:1016D0002F9008950E94B307FC01168680E090E0E9
:1016E0000895CF93DF938FE30E944418EC010E948A
:1016F000B30781E0CD2B09F480E08093E00C80E417
:101700000E944418EC010E94B30781E0CD2B09F43C
:1017100080E08093E10C8EE00E944418EC010E946E
:10172000B30781E0CD2B09F480E08093E20C8FE0D9
:101730000E944418EC010E94B30781E0CD2B09F40C
:1017400080E08093E30C8CE00E944418EC010E943E
:10175000B30781E0CD2B09F480E08093E40C89E0AD
:101760000E944418EC010E94B30781E0CD2B09F4DC
:1017700080E08093E50CDF91CF910895603E710584
:1017800008F041C4FB018827EE58FF4F8F4F0C949F
:10179000A05A81E090E0A0E0B0E0809358089093D8
:1017A0005908A0935A08B0935B08089510925C08FA
:1017B00010925D0810925E0810925F0808951092D2
:1017C00060081092610810926208109263080895F0
:1017D00081E090E0A0E0B0E0809364089093650819
:1017E000A0936608B0936708089510926808109255
:1017F000690810926A0810926B08089583E090E0DF
:10180000A0E0B0E080936C0890936D08A0936E0800
:10181000B0936F08089588E790E0A0E0B0E080936F
:10182000840890938508A0938608B093870808954C
:1018300088E790E0A0E0B0E0809388089093890862
:10184000A0938A08B0938B08089588E790E0A0E001
:10185000B0E080938C0890938D08A0938E08B0938D
:101860008F08089510929408109295081092960887
:101870001092970808951092980810929908109263
:101880009A0810929B08089581E090E0A0E0B0E0F3
:1018900080939C0890939D08A0939E08B0939F0806
:1018A00008951092A0081092A1081092A208109218
:1018B000A30808951092A4081092A5081092A608F3
:1018C0001092A70808951092A8081092A9081092E3
:1018D000AA081092AB0808951092AC081092AD08B7
:1018E0001092AE081092AF0808951092B0081092AE
:1018F000B1081092B2081092B30808951092B4087B
:101900001092B5081092B6081092B7080895109278
:10191000BC081092BD081092BE081092BF0808952E
:101920001092C0081092C1081092C2081092C30809
:1019300008951092C4081092C5081092C60810921B
:10194000C70808951092D4081092D5081092D608AE
:101950001092D70808951092D8081092D9081092C2
:10196000DA081092DB0808951092DC081092DD0866
:101970001092DE081092DF08089581E090E0A0E068
:10198000B0E08093E8089093E908A093EA08B09348
:10199000EB08089581E090E0A0E0B0E08093EC08CF
:1019A0009093ED08A093EE08B093EF0808958CE2B1
:1019B00091E0A0E0B0E08093FC089093FD08A09334
:1019C000FE08B093FF0808958CE291E0A0E0B0E03B
:1019D0008093000990930109A0930209B093030931
:1019E00008958CE291E0A0E0B0E080930409909328
:1019F0000509A0930609B0930709089510920C09F0
:101A000010920D0910920E0910920F09089510926C
:101A100010091092110910921209109213090895D9
:101A200010921409109215091092160910921709B4
:101A300008951092240910922509109226091092F7
:101A400027090895109228091092290910922A094D
:101A500010922B09089581E090E0A0E0B0E080931F
:101A60002C0990932D09A0932E09B0932F09089566
:101A700085E090E0A0E0B0E08093340990933509D0
:101A8000A0933609B0933709089585E090E0A0E06F
:101A9000B0E08093380990933909A0933A09B09344
:101AA0003B09089589E190E0A0E0B0E080933C0913
:101AB00090933D09A0933E09B0933F09089582E3B6
:101AC00090E0A0E0B0E080934C0990934D09A09382
:101AD0004E09B0934F09089582E390E0A0E0B0E092
:101AE0008093500990935109A0935209B0935309E0
:101AF000089582E390E0A0E0B0E0809354099093D1
:101B00005509A0935609B0935709089582E390E0D0
:101B1000A0E0B0E080935C0990935D09A0935E091A
:101B2000B0935F09089582E390E0A0E0B0E0809375
:101B3000600990936109A0936209B09363090895C5
:101B400082E390E0A0E0B0E080936409909365099F
:101B5000A0936609B0936709089580E991E0A0E039
:101B6000B0E08093740990937509A0937609B093BF
:101B70007709089580E991E0A0E0B0E080937809CA
:101B800090937909A0937A09B0937B09089580E92D
:101B900091E0A0E0B0E080937C0990937D09A09350
:101BA0007E09B0937F0908951092840910928509E7
:101BB0001092860910928709089510928809109250
:101BC000890910928A0910928B09089510928C0944
:101BD00010928D0910928E0910928F09089510921B
:101BE0009C0A10929D0A10929E0A10929F0A0895D4
:101BF0001092A00A1092A10A1092A20A1092A30AAF
:101C000008951092A40A1092A50A1092A60A1092A2
:101C1000A70A089588E592E0A0E0B0E080939C09CF
:101C200090939D09A0939E09B0939F09089588E51C
:101C300092E0A0E0B0E08093A0099093A109A09366
:101C4000A209B093A309089588E592E0A0E0B0E06E
:101C50008093A4099093A509A093A609B093A7091E
:101C600008958EE190E0A0E0B0E08093AC099093FD
:101C7000AD09A093AE09B093AF0908958EE190E04D
:101C8000A0E0B0E08093B0099093B109A093B209AD
:101C9000B093B30908958EE190E0A0E0B0E08093A6
:101CA000B4099093B509A093B609B093B709089504
:101CB0001092C4091092C5091092C6091092C70962
:101CC00008951092C8091092C9091092CA09109279
:101CD000CB0908951092CC091092CD091092CE092B
:101CE0001092CF0908951092EC091092ED0910920C
:101CF000EE091092EF0908951092F0091092F1097F
:101D00001092F2091092F30908951092F4091092BA
:101D1000F5091092F6091092F70908951092FC093E
:101D20001092FD091092FE091092FF090895109279
:101D3000000A1092010A1092020A1092030A0895F2
:101D40001092040A1092050A1092060A1092070ACD
:101D5000089585E090E0A0E0B0E08093140A9093AD
:101D6000150AA093160AB093170A089585E090E02B
:101D7000A0E0B0E08093180A9093190AA0931A0A81
:101D8000B0931B0A089585E090E0A0E0B0E0809356
:101D90001C0A90931D0AA0931E0AB0931F0A08956F
:101DA00084EB95E1A0E0B0E08093240A9093250AAB
:101DB000A093260AB093270A089584EB95E1A0E04A
:101DC000B0E08093280A9093290AA0932A0AB0933E
:101DD0002B0A089584EB95E1A0E0B0E080932C0AF3
:101DE00090932D0AA0932E0AB0932F0A089585E0B0
:101DF00090E0A0E0B0E080933C0A90933D0AA0936D
:101E00003E0AB0933F0A089585E090E0A0E0B0E07C
:101E10008093400A9093410AA093420AB093430AE8
:101E2000089585E090E0A0E0B0E08093440A9093AC
:101E3000450AA093460AB093470A089510924C0AA7
:101E400010924D0A10924E0A10924F0A0895109265
:101E5000500A1092510A1092520A1092530A089591
:101E60001092540A1092550A1092560A1092570A6C
:101E700008951092640A1092650A1092660A1092F0
:101E8000670A08951092680A1092690A10926A0A05
:101E900010926B0A089510926C0A10926D0A1092BB
:101EA0006E0A10926F0A089510927C0B10927D0BAF
:101EB00010927E0B10927F0B08958CE390E0A0E0CF
:101EC000B0E08093800B9093810BA093820BB09332
:101ED000830B089581E090E0A0E0B0E08093840B54
:101EE0009093850BA093860BB093870B0895109267
:101EF0008C0B10928D0B10928E0B10928F0B0895FD
:101F00008CE390E0A0E0B0E08093900B9093910B75
:101F1000A093920BB093930B089581E090E0A0E022
:101F2000B0E08093940B9093950BA093960BB09395
:101F3000970B08951092A40B1092A50B1092A60B6C
:101F40001092A70B08958CE390E0A0E0B0E080939E
:101F5000A80B9093A90BA093AA0BB093AB0B089579
:101F600081E090E0A0E0B0E08093AC0B9093AD0BEB
:101F7000A093AE0BB093AF0B08951092B40B1092D8
:101F8000B50B1092B60B1092B70B08958CE390E04E
:101F9000A0E0B0E08093B80B9093B90BA093BA0B7C
:101FA000B093BB0B089581E090E0A0E0B0E0809397
:101FB000BC0B9093BD0BA093BE0BB093BF0B0895C9
:101FC0001092CC0B1092CD0B1092CE0B1092CF0B27
:101FD00008958CE390E0A0E0B0E08093D00B909364
:101FE000D10BA093D20BB093D30B089581E090E076
:101FF000A0E0B0E08093D40B9093D50BA093D60BC8
:10200000B093D70B0895660F771F660F771FFB01FC
:10201000E85AF74F108211821282138208950895B0
:1020200008950F931F93CF93DF938C01C0E0D0E00E
:10203000BE01C8010E94A334882321F0BE01C8015B
:102040000E94BE0B2196C13ED10591F780E090E041
:10205000DF91CF911F910F9108954F925F926F92F0
:102060007F928F929F92AF92BF92CF92DF92EF9228
:10207000FF920F931F93CF93DF938B01EB01CC0F54
:10208000DD1FCE010E941B5A882E912CA12CB12C51
:10209000CE0101960E941B5AC82ED12CE12CF12CA6
:1020A0000D5811090330110588F5CE0144960E94A0
:1020B0001B5A482E512C612C712CCE0145960E9442
:1020C0001B5A482F50E060E070E08FEF4816510433
:1020D00061047104A9F44F3F51056105710581F454
:1020E0008FEF88169104A104B10481F48FEFC81614
:1020F000D104E104F10451F46FEF7FEFCB012BC069
:1021000040385105610571056CF0F6CF80E8C816BE
:10211000D104E104F10484F740E050E0BA01412C1D
:10212000512C3201FE2CED2CDC2CCC248C0C9D1C73
:10213000AE1CBF1C320155244424840C951CA61CE3
:10214000B71C742F662755274427CB01BA01680DA9
:10215000791D8A1D9B1DDF91CF911F910F91FF90DB
:10216000EF90DF90CF90BF90AF909F908F907F9037
:102170006F905F904F900895CF93DF93EC018F8124
:10218000882331F061E089890E946D181F8206C0A2
:1021900060E089890E946D1881E08F83DF91CF9183
:1021A0000895CF93DF93EC018E81882331F061E0B5
:1021B0008B850E946D181E8206C060E08B850E9490
:1021C0006D1881E08E83DF91CF91089560E0FC016E
:1021D00081890C946D1860E0FC0183850C946D1866
:1021E00061E0FC0181890C946D1861E0FC0183853C
:1021F0000C946D18CF92DF92EF92FF920F931F9382
:10220000CF93DF938B0169017A01EB01CC0FDD1FC6
:102210006C2DCE010E94235A9927F7FC9A958F2D99
:102220007E2D6D2DCE0101960E94235A0D58110965
:102230000330110588F4B701992777FD9095892F10
:10224000CE0144960E94235A6F2D7727882799271D
:10225000CE0145960E94235A80E090E0DF91CF9115
:102260001F910F91FF90EF90DF90CF900895CF9244
:10227000DF92EF92FF92CF93DF93EB010E94A334A2
:10228000882359F1FE01EE0FFF1FEE0FFF1FE85AE2
:10229000F74FC080D180E280F38083EF95E00E9409
:1022A00082158DEF96E00E94821587EF95E00E94DF
:1022B0008215CE010E94DB168DEF96E00E948215FA
:1022C00088EA95E00E948215C701B6010E94E315D5
:1022D0000E94B3070E94B50604C08AEA95E00E94F6
:1022E000821580E090E0DF91CF91FF90EF90DF903A
:1022F000CF9008950F931F93CF93DF938C01C0E08D
:10230000D0E0BE01C8010E94A334882321F0BE01A1
:10231000C8010E9437112196C13ED10591F780E096
:1023200090E0DF91CF911F910F910895EF92FF926E
:102330000F931F93CF93DF938091E60C9091E70C5E
:10234000892B09F06EC084E090E00E947253EC018A
:1023500060E070E00E942D10161617060CF1CE01F9
:102360000E94111098E5E92E98E0F92E00E010E0A7
:10237000B801CE010E94A334882349F0F7012081DF
:10238000318142815381B801CE010E94FA100F5F62
:102390001F4FF4E0EF0EF11C0639110549F73DC05F
:1023A00063E070E0CE010E942D106130710581055F
:1023B000910581F588E5E82E88E0F82E00E010E030
:1023C000B801CE010E94A3348823D9F0B801CE0110
:1023D0000E942D10F70160837183828393836F3F86
:1023E0007F4F8F4F9F4F69F4B801CE010E94BE0B03
:1023F000F7012081318142815381B801CE010E94D1
:10240000FA100F5F1F4FF4E0EF0EF11C013E1105B3
:10241000B9F603C0CE010E941110D093E70CC0930F
:10242000E60C8091E60C9091E70CDF91CF911F9123
:102430000F91FF90EF900895CF92DF92EF92FF926D
:102440000F931F93CF93DF93FC016489758986896D
:102450009789C68DD78D603127E272078105910576
:1024600029F0161617061806190644F02089318936
:1024700042895389DE010E945B5A2AC08F010E9463
:10248000FB5820E030E44CE156E40E94155B6B0100
:102490007C01F801608F718F828F938F60897189C1
:1024A000828993890E94FB58A70196010E945A597C
:1024B0006B017C01BE01DD0F880B990B0E94FB585C
:1024C0009B01AC01C701B6010E945A590E94875B6B
:1024D000DF91CF911F910F91FF90EF90DF90CF9000
:1024E0000895FC01118210821382128215821482D7
:1024F0001782168210861186128613861486158618
:1025000016861786108A118A128A138A108E118EE7
:10251000128E138E158E148E178E168E10A211A287
:1025200012A213A214A215A216A217A210A611A6F7
:1025300012A613A614A615A680E197E2A0E0B0E0CB
:10254000848B958BA68BB78B0895CF93DF93EC018B
:10255000FC01E159FF4F1082379781E0808360E0F2
:102560008B850E946D188D899E89892B31F060E0E2
:102570008989DF91CF910C946D18DF91CF910895E7
:10258000CF93DF93EC01898D0E9444182C8D30E0AD
:102590008217930711F48D8D01C080E0DF91CF91F8
:1025A0000895CF93DF93EC018F890E9444182C8DFE
:1025B00030E08217930711F48D8D01C080E0DF9128
:1025C000CF910895CF93DF93EC012BA98881998156
:1025D000222311F061E001C060E00E94E1168C81CD
:1025E000883579F42CA98A819B81222329F02DA991
:1025F000222311F061E001C060E0DF91CF910C94E3
:10260000E116DF91CF910895CF93DF93EC012BA9D1
:1026100088819981222311F060E001C061E00E946D
:10262000E1168C81883579F42CA98A819B8122233B
:1026300029F02DA9222311F060E001C061E0DF91B3
:10264000CF910C94E116DF91CF910895CF93DF9352
:10265000EC0161E08F850E946D188CA9882321F020
:1026600061E08D890E946D18C359DF4F1882DF9198
:10267000CF910895CF93DF93EC0160E08F850E94A6
:102680006D188CA9882321F060E08D890E946D1857
:10269000C359DF4F81E08883DF91CF910895CF92B6
:1026A000DF92EF92FF920F931F93CF93DF93FC0182
:1026B000DC01A05CBF4F4D935D936D937C931397AA
:1026C00014964D935D936D937C931397EC01C85BC7
:1026D000DF4F088319832A833B831896EC9282ADDF
:1026E000882381F082A9811108C037FF0BC01882AE
:1026F00019821A821B8221E006C0101611061206EA
:102700001306ACF320E0C3ACD4ACE5ACF6AC1C14BF
:102710001D041E041F0434F587AD882319F1488178
:1027200059816A817B81C601D7FE04C08827992719
:102730008C199D09DA0157FF04C0AA27BB27A41BE7
:10274000B50B8A179B0774F477FF03C091958195A9
:102750009109092E000CAA0BBB0B88839983AA83CD
:10276000BB8321E0DF01AB5ABF4F1D921D921D922A
:102770001C921397EB59FF4F81E08083822FDF91EA
:10278000CF911F910F91FF90EF90DF90CF90089520
:102790000F931F93CF93DF938C01D62FFC01838D72
:1027A00081110BC0C8010E94D112C82FC8010E941C
:1027B000C012D1110AC08C2F08C0C8010E94C012DB
:1027C000C82FC8010E94D112F4CFDF91CF911F9181
:1027D0000F910895CF93DF93EC01FC01E159FF4F76
:1027E00081E0808339978081B297882341F080818E
:1027F0009181A281B3810196A11DB11D07C0808185
:102800009181A281B3810197A109B109808391834C
:10281000A283B38361E08B850E946D188D899E89A8
:10282000892B31F061E08989DF91CF910C946D188B
:10283000DF91CF9108958F929F92AF92BF92CF92E6
:10284000DF92EF92FF920F931F93CF93DF93EC01F0
:10285000FC01EB5AFF4F60817181828193810E945C
:10286000F9586B017C016EA97FA988AD99AD0E94D2
:10287000FB589B01AC0160E074E284E799E40E949C
:10288000155B4B015C01FE01EF59FF4F60817181C7
:10289000828193810E94F9589B01AC01C501B4016A
:1028A0000E94155B4B015C018E01075A1F4F20E00F
:1028B00030E040E05FE30E945A59A70196010E9470
:1028C000A95A0E948E5BF80160837183828393838F
:1028D000C35ADF4FA5019401C701B6010E94A95A4E
:1028E0000E948E5B688379838A839B83DF91CF917B
:1028F0001F910F91FF90EF90DF90CF90BF90AF901E
:102900009F908F9008950F931F93CF93DF93FC01B7
:10291000E159FF4F20812223C9F07A97008111816C
:1029200022813381389640815181628173810417FD
:1029300015072607370728F1EC010E94A512CE01E2
:10294000DF91CF911F910F910C941B14FC01EB5957
:10295000FF4F20812223A9F07097008111812281ED
:102960003381349640815181628173810417150748
:102970002607370730F0DF91CF911F910F910C940C
:10298000EA13DF91CF911F910F910895FC01EB594C
:10299000FF4F2081222361F0709780819181A28175
:1029A000B3810196A11DB11D80839183A283B3835E
:1029B000089590E0FC013197E231F10508F04EC036
:1029C0008827EE5AFE4F8F4F0C94A05A80918000BA
:1029D0008F7703C0809180008F7D80938000089561
:1029E00080918000877FF9CF84B58F7702C084B54E
:1029F0008F7D84BD08958091B0008F7703C0809152
:102A0000B0008F7D8093B0000895809190008F7703
:102A100007C0809190008F7D03C080919000877FD8
:102A20008093900008958091A0008F7707C08091D7
:102A3000A0008F7D03C08091A000877F8093A000BD
:102A40000895809120018F7707C0809120018F7DAC
:102A500003C080912001877F809320010895009713
:102A600069F0FC0101900020E9F73197AF01481BA4
:102A7000590BBC0189EE9CE00C941E4180E090E073
:102A800008958F929F92AF92BF920F931F93CF930F
:102A9000DF93CDB7DEB7A1970FB6F894DEBF0FBEB8
:102AA000CDBF19A2423008F44AE08E010F5D1F4FDE
:102AB000842E912CA12CB12CA50194010E94635A63
:102AC000E62FB901CA0101501109EA3014F4E05DA2
:102AD00001C0E95CD801EC93232B242B252B61F753
:102AE000C8010E942F15A1960FB6F894DEBF0FBE45
:102AF000CDBFDF91CF911F910F91BF90AF909F906D
:102B00008F9008950C942F15EF92FF920F931F93BF
:102B1000CF93DF93CDB7DEB764970FB6F894DEBFDF
:102B20000FBECDBF7C01CB01BA018E010F5F1F4FDD
:102B300022E044E00E945253FC0101900020E9F79A
:102B40003197AF01481B590BBC01C7010E944D438F
:102B500064960FB6F894DEBF0FBECDBFDF91CF9164
:102B60001F910F91FF90EF900895CF93DF93EC01A9
:102B7000198218821B821A821D821C8260E070E01A
:102B80000E9426432881398181110FC0211531050A
:102B900019F0C9010E940A54198218821D821C82F0
:102BA0001B821A82DF91CF9108951D821C826DE2F3
:102BB00075E0C901DF91CF910C94C35C682F89EE59
:102BC0009CE00C94B541CF92DF92EF92FF92CF93AD
:102BD000DF9397FF19C06B017C018DE20E94DE1527
:102BE000EC0166277727CB016C197D098E099F09B7
:102BF0004AE00E9441158C0F9D1FDF91CF91FF90FD
:102C0000EF90DF90CF9008954AE0DF91CF91FF9051
:102C1000EF90DF90CF900C9441158F929F92AF92DE
:102C2000BF92CF92DF92EF92FF920F931F93CF93B9
:102C3000DF936B017C01142F9B01AC010E94C25BEE
:102C4000882319F089EF95E027C046015701E894E1
:102C5000B7F82FEF3FEF4FE75FE7C501B4010E94E0
:102C6000C25B81110DC02FEF3FEF4FE75FE7C5015A
:102C7000B4010E94F45818161CF48DEF95E00CC0B6
:102C80002FEF3FEF4FE75FE4C701B6010E94BD5B46
:102C9000181684F481E096E0DF91CF911F910F9197
:102CA000FF90EF90DF90CF90BF90AF909F908F906C
:102CB0000C942F152FEF3FEF4FE75FECC701B601E4
:102CC0000E94F45887FDE6CF20E030E0A901C7015B
:102CD000B6010E94F45887FF09C08DE20E94DE15FC
:102CE000EC01F7FAF094F7F8F09402C0C0E0D0E0FD
:102CF00000E060E070E080E09FE3101741F020E02A
:102D000030E040E251E40E94155B0F5FF6CFA7016F
:102D100096010E94A95A6B017C010E948E5B4B01B7
:102D20005C014AE00E944115C80FD91F1123A9F187
:102D3000C501B4010E94F9589B01AC01C701B6015D
:102D40000E94A85A6B017C018EE20E94DE15C80F1A
:102D5000D91F20E030E040E251E4C701B6010E94F3
:102D60005A594B015C010E948E5B6B01E12CF12CE6
:102D70004AE0C701B6010E944115C80FD91FC7011B
:102D8000B6010E94F9589B01AC01C501B4010E9433
:102D9000A85A6B017C011150E1F6CE01DF91CF9171
:102DA0001F910F91FF90EF90DF90CF90BF90AF9069
:102DB0009F908F900895BC01990F880B990B0C94EC
:102DC000E315DC0152968C91529760FB84F9529680
:102DD0008C935297282F53963C91539754968C91ED
:102DE0005497482F437050E0ED91FC91119701905A
:102DF000F081E02D60E0CD0119946031710509F496
:102E000041C088F46230710509F454C020F4672B86
:102E100009F458C008956430710509F443C068305E
:102E20007105C1F1089560347105E1F020F460325C
:102E3000710501F108956038710561F06115714007
:102E400009F048C0DC01ED91FC910288F389E02D86
:102E500060E03FC0DC01ED91FC910288F389E02D38
:102E600061E037C0DC01ED91FC910288F389E02D2F
:102E700062E02FC0DC01ED91FC910288F389E02D26
:102E800063E027C0DC01ED91FC910288F389E02D1D
:102E900064E01FC0DC01ED91FC910288F389E02D14
:102EA00065E017C0DC01ED91FC910288F389E02D0B
:102EB00066E00FC0DC01ED91FC910288F389E02D02
:102EC00067E007C0DC01ED91FC910288F389E02DF9
:102ED00068E019940895CF92DF92EF92FF921F93CA
:102EE000CF93DF93EC0180E090E00E94F95825ED4C
:102EF00034E045E352E40E945A5920E030E04AE7CA
:102F000054E40E94155B6B017C012AE037ED43EA33
:102F10005CE369857A858B859C850E94A95AA70107
:102F200096010E945A5926E636E646EA5EE30E947A
:102F3000155B20E030E040E85FE30E94A85A0E9461
:102F40008E5B162FE881F9810480F581E02D6031D8
:102F500008F561E0CE0119952AE037ED43EA5CE31C
:102F600069857A858B859C850E94A95AA70196015F
:102F70000E945A592CEE31E548E35EE30E94155B4E
:102F800020E030E040E85FE30E94A85A0E948E5B98
:102F9000162F03C060E0CE011995103208F01FE132
:102FA000912F9F718B81807E892B8B832A81382F73
:102FB0008C81482F4F7050E0E881F9810190F081B9
:102FC000E02D60E1CE011995612F70E080E090E086
:102FD0000E94FB582D853E854F8558890E945A597D
:102FE0000E948E5B6F718A81807E682B6A83262F98
:102FF0003B818C81482F4F7050E0E881F98101902E
:10300000F081E02D60E1CE01DF91CF911F91FF9023
:10301000EF90DF90CF901994DC01ED91FC9102804C
:10302000F381E02D6CE61994CF92DF92EF92FF923C
:10303000FC01C12C92E1D92E9AE7E92EF12C20E077
:103040004C155D056E057F0540F4F694E794D79422
:10305000C7942F5F2630A1F727E091E09227292F10
:10306000286B2695208391709183FF90EF90DF90DD
:10307000CF9008951F920F920FB60F9211240F90C8
:103080000FBE0F901F901895CF93DF93282F30E03D
:10309000F901ED52F84F8491F901E75DF74FD491B2
:1030A000F901ED54F74FC491CC2391F081110E94A6
:1030B000D914EC2FF0E0EE0FFF1FE158F74FA59168
:1030C000B491EC91ED2381E090E021F480E002C026
:1030D00080E090E0DF91CF9108951F93CF93DF932D
:1030E000282F30E0F901ED52F84F8491F901E75DA6
:1030F000F74FD491F901ED54F74FC491CC23C1F0AF
:10310000162F81110E94D914EC2FF0E0EE0FFF1F53
:10311000E756F74FA591B4919FB7F894111104C0E9
:103120008C91D095D82302C0EC91DE2BDC939FBF0D
:10313000DF91CF911F910895FC0181A90C946D1826
:10314000CF93DF9390E0FC01E75DF74F2491FC0102
:10315000ED54F74F8491882361F190E0880F991F17
:10316000FC01E754F84FC591D491FC01E756F74FA5
:10317000A591B491611109C09FB7F89488812095F9
:1031800082238883EC912E230BC0623061F49FB7B9
:10319000F8948881322F309583238883EC912E2BED
:1031A0002C939FBF06C08FB7F894E8812E2B2883FD
:1031B0008FBFDF91CF9108950F931F93CF93DF932C
:1031C000EC0161E089A90E94A01861E0CE010E9493
:1031D0009C180BA91CA90115110509F456C061E042
:1031E000F80180810E94A01861E0F80184810E94AA
:1031F000A01862E0F80182810E94A018F8014081C5
:103200005181FA01ED54F74FE491F0E0EE0FFF1F0A
:10321000E756F74F85919491F80192878187228133
:103220003381F901ED54F74FE491F0E0EE0FFF1F09
:10323000E158F74F85919491F801948783878481B1
:103240009581FC01ED54F74FE491F0E0EE0FFF1F84
:10325000E756F74FA591B491F801B687A587FA0113
:10326000E75DF74F4491F8014683F901E75DF74FB9
:103270002491F8012783FC01E75DF74F9491F80151
:1032800090878C91E92FE82BEC932A893B898C89D4
:10329000482F437050E0E881F9810190F081E02DE2
:1032A00060E0CE0119952AA13BA14CA15DA1E88166
:1032B000F9810190F081E02D6CE6CE0119952EA1E7
:1032C0003FA148A559A55170E881F9810190F0818D
:1032D000E02D6DE6CE0119952DA53EA58FA5482FB1
:1032E0004F7350E0E881F9810190F081E02D60E7B3
:1032F000CE0119952A813B818C81482F4F7050E077
:10330000E881F9810190F081E02D60E1CE0119950D
:103310008AA1807F88608AA32AA13BA14CA15DA1DC
:10332000E881F9810190F081E02D6CE6CE011995DC
:10333000E881F9810688F789E02D61E0CE01DF910F
:10334000CF911F910F9119948230910538F0880F19
:10335000991F880F991F05970197F1F708958F928C
:103360009F92AF92BF92CF92DF92EF92FF926B014A
:103370007C010E945D464B015C01C114D104E10453
:10338000F104F1F00E945D46DC01CB018819990936
:10339000AA09BB09883E9340A105B10570F321E05D
:1033A000C21AD108E108F10888EE880E83E0981E61
:1033B000A11CB11CC114D104E104F10419F7DDCF43
:1033C000FF90EF90DF90CF90BF90AF909F908F9045
:1033D00008952F923F924F925F926F927F928F92B9
:1033E0009F92AF92BF92CF92DF92EF92FF920F9394
:1033F0001F93CF93DF93CDB7DEB7E3970FB6F89463
:10340000DEBF0FBECDBF3C014F83588769877A87E7
:10341000098B1A8B2B8B3C8BCD8ADE8AEF8AF88E38
:103420002B960EAD1FAD2B970E9482466E8F7F8F1D
:1034300088A399A30E948246698F7A8F8B8F9C8F75
:10344000F301EC5DFD4F118210823B96A114B10493
:1034500079F0C501A0E0B0E04081518162817381C3
:1034600084179507A607B7072CF4AC01BD0102C06D
:1034700040815181F301ED5CFD4F8114910479F09D
:10348000A12CB12C80819181A281B38188169906EB
:10349000AA06BB0614F4D501C401BC0102C06081B8
:1034A0007181F301E95CFD4F0115110571F020E018
:1034B00030E080819181A281B381081719072A0722
:1034C0003B072CF4D901C80102C08081918193018E
:1034D000205F3F4F3E872D878A0120E030E0F301D7
:1034E00006A717A720AB31AB1301F0E92F0E311C53
:1034F000AB0160E070E0F101468F578F60A371A3CC
:103500002301F0EF4F1AFEEF5F0AA0E0B0E0F201F6
:10351000868F978FA0A3B1A3E257FE4F108211822E
:103520001282138234961082118212821382349690
:103530001082118212821382349611821082329686
:10354000118210823296118210820E94B3078091FC
:10355000010F9091020FA091030FB091040F43014E
:10356000F0E58F1AFDEF9F0AF40180839183A28317
:10357000B3830E94B3078091050F9091060FA0912D
:10358000070FB091080FF301EC54FD4F8083918336
:10359000A283B3830E94B3078091090F90910A0F11
:1035A000A0910B0FB0910C0FF301E854FD4F8083F5
:1035B0009183A283B3835301FEE6AF1AFDEFBF0AE6
:1035C000F50160817181828193810E94FB582F8176
:1035D000388549855A850E945A590E94875B8B011C
:1035E0009C01F40140815181628173812C96EFAC82
:1035F0002C978D859E850E944F138823F1F083E7D9
:1036000093E00E94821583E197E00E948215F30106
:10361000E85AFF4F6081718182819381F501208199
:103620003181428153810E94315ACA01B9010E94FD
:10363000E3150E94B3070E94B5066301FAE6CF1AAC
:10364000FDEFDF0AF60160817181828193810E9422
:10365000FB5829893A894B895C890E945A590E94F2
:10366000875B8B019C01F301EC54FD4F408151813C
:10367000628173812D96EFAC2D97C1010E944F138B
:103680008823F1F08FE693E00E94821583E297E0B1
:103690000E948215F301E852FF4F6081718182819F
:1036A0009381F60120813181428153810E94315AF8
:1036B000CA01B9010E94E3150E94B3070E94B50632
:1036C0006301F6E6CF1AFDEFDF0AF6016081718132
:1036D000828193810E94FB582D893E894F89588DA4
:1036E0000E945A590E94875B8B019C01F301E854A8
:1036F000FD4F40815181628173812E96EFAC2E97F0
:10370000C2010E944F138823F1F08BE693E00E94E0
:10371000821583E397E00E948215F301E85AFE4F79
:103720006081718182819381F601208131814281A2
:1037300053810E94315ACA01B9010E94E3150E94C7
:10374000B3070E94B506F301158AEB56FF4F1082AE
:10375000E058FF4F1082C3010E94E72CC3010E9472
:10376000EB2C8D859E850E94A629C1010E94A62969
:10377000C2010E94A62981E090E0F301EA5DFD4FBD
:10378000918380837301F8EDEF1AFDEFFF0AF701D3
:10379000918380838301065D1D4FF80191838083AF
:1037A00041E050E06D857E85C3010E941D25F70133
:1037B00040815181B101C3010E941D25F801408162
:1037C0005181B201C3010E941D2581E0F301E15046
:1037D000FD4F80838D859E850E943A13C1010E9412
:1037E0003A13C2010E943A1364E670E080E090E070
:1037F0000E94AF192C96FFAD2C97F1110EC02D969B
:103800002FAD2D97211105C02E963FAD2E97332356
:10381000B1F0F301EB58FF4F10822D964FAD2D976D
:10382000411104C0F301EB50FF4F10822E965FADA3
:103830002E97511104C0F301EB58FE4F10828D8575
:103840009E850E943227C1010E943227C2010E9438
:1038500032278D859E850E941B14C1010E941B1476
:10386000C2010E941B140E94B307FC0186858D8F44
:1038700018861F8293012B583F4F3A8B298BA30147
:103880004B505F4F5E8B4D8BC3018B589E4F988B77
:103890008F87F301EA5DFD4FFDA3ECA32D543E4F4E
:1038A0003FA32EA34B5C5E4F59A748A78D5F91099C
:1038B0009BA38AA3EC54FF4FFBA7EAA72A553F4FCF
:1038C0003DA72CA74B535F4F5FA74EA78C5B9D4F27
:1038D00099AB88ABBA97FBABEAABE989FA898081EF
:1038E00081110AC0ED89FE898081811105C0EF85B3
:1038F000F8898081882321F0FD8DFF2309F4EBC036
:103900008301025E1D4FF80180819181892B21F096
:10391000C3010E94C140F7CF8AE296E00E9482155F
:103920002C96FFAD2C97FF23F9F02F813885232BA0
:1039300009F041C03D8D311124C087E693E00E941B
:1039400082150E94B3070E94B5062D964FAD2D97A4
:10395000442309F495C483E693E00E9482150E94F3
:10396000B3070E94B5068CC42D968FAD2D97882382
:1039700069F0EF81F885EF2B19F5FD8DF11120C06D
:10398000EACF2D963FAD2D9731111AC02E962FAD4F
:103990002E972223A9F04F815885452B89F45D8D00
:1039A00051110EC08FE593E00E9482150E94B3076B
:1039B0000E94B50605C02D964FAD2D97442331F3D7
:1039C00043018AED881A8DEF980A85E090E0F401B2
:1039D000918380835301F8EDAF1AFDEFBF0AF50123
:1039E000918380838301065D1D4FF801918380835D
:1039F00045E050E06D857E85C3010E941D25F501DF
:103A000040815181B101C3010E941D25F80140810F
:103A10005181B201C3010E941D25F301E150FD4F08
:103A20001082EE58F1098081811104C08D859E8538
:103A30000E942613F301EE58FD4F8081811103C0CF
:103A4000C1010E942613F301ED58FD4F80818111C1
:103A500003C0C2010E94261364E670E080E090E09B
:103A60000E94AF19C3010E94EF2CC3010E94E72CF2
:103A7000C3010E94EB2C0E94B3070E940F07F401C0
:103A800011821082F50111821082F80111821082D8
:103A900040E050E06D857E85C3010E941D25F50143
:103AA00040815181B101C3010E941D25F80140816F
:103AB0005181B201C3010E941D25FD8DFF2309F430
:103AC000E6C30E94B30721E0FC01268721E030E035
:103AD00038872F83DCC34CA15DA16D857E85C30132
:103AE0000E9476254EA15FA1B101C3010E947625F7
:103AF00048A559A5B201C3010E947625EAA1FBA100
:103B000080818823E1F08D859E850E9432278AA4DA
:103B10009BA4ACA4BDA4CEA4DFA4E8A8F9A80AA9DC
:103B20001BA9930122563D4FA30140575E4F6D855F
:103B30007E85C3010E94AF3AEAA1FBA110829301E6
:103B400028503F4F3C872B87F9018081882339F12A
:103B5000C1010E9432274301F5E28F1AFDEF9F0A4F
:103B600053012EE2A21A2DEFB20A63013FE0C31AFD
:103B70003DEFD30A730140E4E41A4DEFF40A8301E8
:103B80000C541D4F93012E553D4FA30142545E4FDF
:103B9000B101C3010E94AF3AEB85FC85108293010D
:103BA00028583E4F3C872B87F9018081882339F1C3
:103BB000C2010E9432274301F4E28F1AFDEF9F0AEF
:103BC00053012AE2A21A2DEFB20A63013DE0C31AA3
:103BD0003DEFD30A73014CE3E41A4DEFF40A83017D
:103BE00008541D4F93012A553D4FA30144515E4F88
:103BF000B201C3010E94AF3AEB85FC851082E989CE
:103C0000FA8980818823D1F1F301E853FD4F608167
:103C10007181072E000C880B990B0E94FB589B01A9
:103C2000AC01F301E256FD4F608171818281938185
:103C30000E94BD5B181614F5E989FA8910826EE2BC
:103C400075E08301065E1D4FC8010E94AB4363E42B
:103C500076E0C8010E94AB436BE275E0C8010E94A8
:103C6000AB432C96FFAD2C97FF2309F482C1F301DF
:103C7000EC5AFF4F1082118212821382ED89FE8965
:103C800080818823D1F1F301E653FD4F608171817A
:103C9000072E000C880B990B0E94FB589B01AC016E
:103CA000F301EE55FD4F60817181828193810E9405
:103CB000BD5B181614F5ED89FE8910826EE275E081
:103CC0008301065E1D4FC8010E94AB436BE676E0A0
:103CD000C8010E94AB436BE275E0C8010E94AB4390
:103CE0002D96FFAD2D97FF2309F448C1F301EC5247
:103CF000FF4F1082118212821382EF85F889808132
:103D00008823D1F1F301E453FD4F60817181072EC7
:103D1000000C880B990B0E94FB589B01AC01F3012E
:103D2000EA55FD4F60817181828193810E94BD5B64
:103D3000181614F5EF85F88910826EE275E083019C
:103D4000065E1D4FC8010E94AB4363E976E0C801DF
:103D50000E94AB436BE275E0C8010E94AB432E9614
:103D6000FFAD2E97FF2309F40EC1F301EC5AFE4F6D
:103D70001082118212821382F301EA58FF4F608190
:103D80008D859E850E94C813882351F0F301EC5A5B
:103D9000FF4F1082118212821382E989FA89108200
:103DA000F301EA50FF4F6081C1010E94C8138823CC
:103DB00051F0F301EC52FF4F1082118212821382F4
:103DC000ED89FE891082F301EA58FE4F6081C2013D
:103DD0000E94C813882351F0F301EC5AFE4F108261
:103DE000118212821382EF85F8891082C3010E942A
:103DF000EF2CC3010E94E72CE989FA89808188238E
:103E0000E9F00E9482464B015C012E8D3F8D48A156
:103E100059A1821A930AA40AB50AF301EA57FD4F81
:103E20002081318142815381A8EEB3E00E94505A33
:103E3000681579058A059B0508F4AAC0ED89FE89F5
:103E400080818823E9F00E9482464B015C012E8D1F
:103E50003F8D48A159A1821A930AA40AB50AF30119
:103E6000E657FD4F2081318142815381A8EEB3E0B6
:103E70000E94505A681579058A059B0508F4A2C06E
:103E8000EF85F88980818823E9F00E9482464B0102
:103E90005C012E8D3F8D48A159A1821A930AA40A74
:103EA000B50AF301E257FD4F2081318142815381F0
:103EB000A8EEB3E00E94505A681579058A059B0563
:103EC00008F49AC089EE9CE00E947D4118161906FC
:103ED0003CF589EE9CE00E945B418F7D8534910525
:103EE000F9F465E076E0C301865E9D4F0E94AB4326
:103EF00085EA93E00E9482150E94B3070E94B506EE
:103F0000E989FA891082ED89FE891082EF85F889A6
:103F10001082F1E0FD8F21E030E038872F8304C06C
:103F20004F815885452B39F06AE176E0C301865E02
:103F30009D4F0E94AB43C3010E94C1400E94824634
:103F4000DC01CB01298D3A8D4B8D5C8D821B930B4F
:103F5000A40BB50B8B3F9105A105B10508F4BDCCB1
:103F6000F301E25EFD4F80819181892B09F45EC0EF
:103F7000B4CC23E030E038872F8380CE23E030E0DC
:103F800038872F83BACE23E030E038872F83F4CEF2
:103F9000E989FA89108261EB73E08301065E1D4FA7
:103FA000C8010E94AB436BE275E0C8010E94AB43BD
:103FB0006BEB76E0C8010E94AB4322E030E038872B
:103FC0002F833CCFED89FE8910826DEA73E0830177
:103FD000065E1D4FC8010E94AB436BE275E0C8014D
:103FE0000E94AB4360ED76E0C8010E94AB4322E043
:103FF00030E038872F8344CFEF85F889108269EA53
:1040000073E08301065E1D4FC8010E94AB436BE263
:1040100075E0C8010E94AB4365EE76E0C8010E94DE
:10402000AB4322E030E038872F834CCFF301EC5DC7
:10403000FD4F808191818130910509F0F0C00E948F
:10404000B3078C01FC0180819181A281B381181694
:1040500019061A061B0644F081E090E0A0E0B0E0EB
:1040600080839183A283B383F80184819581A681A3
:10407000B781181619061A061B0644F081E090E075
:10408000A0E0B0E084839583A683B783F8018085A0
:104090009185A285B385181619061A061B0644F0E9
:1040A00081E090E0A0E0B0E080879187A287B387AD
:1040B000CE0101960E94B5156BEE75E0CE0101961A
:1040C0000E94AB4363E177E0CE0101960E94AB43CF
:1040D0006091010F7091020F8091030F9091040F76
:1040E0000E94FB586B017C01F80160817181828123
:1040F00093810E94FB589B01AC01C701B6010E944D
:10410000155BAB01BC01CE0101960E94841563E2F0
:1041100077E0CE0101960E94AB436091050F70914C
:10412000060F8091070F9091080F0E94FB586B01BA
:104130007C01F80164817581868197810E94FB581A
:104140009B01AC01C701B6010E94155BAB01BC012C
:10415000CE0101960E94841563E377E0CE010196BB
:104160000E94AB436091090F70910A0F80910B0F71
:1041700090910C0F0E94FB586B017C01F801608547
:104180007185828593850E94FB589B01AC01C70114
:10419000B6010E94155BAB01BC01CE0101960E94E5
:1041A0008415BE016F5F7F4F8301065E1D4FC801FE
:1041B0000E94BA4389819A810E940A540AC0892BBD
:1041C000C9F461EA73E08301065E1D4FC8010E94D5
:1041D000AB430E94B307BC01CE0101960E94710659
:1041E000BE016F5F7F4FC8010E94BA4389819A81E7
:1041F0000E940A54F301EC5DFD4F8081918101968C
:10420000833091051CF49183808302C01182108257
:104210000E948246698F7A8F8B8F9C8F5ECB823013
:10422000910569F666E276E08301065E1D4FC801DE
:104230000E94AB4363E177E0C8010E94AB438D85E8
:104240009E850E94CA29BC01C8010E947B4363E28B
:1042500077E0C8010E94AB43C1010E94CA29BC019A
:10426000C8010E947B4363E377E0C8010E94AB432F
:10427000C2010E94CA29BC01C8010E947B43A9CF88
:104280002E965FAD2E97552309F49ACB8BCB88E3FE
:1042900096E00E9482158F8198850E94DB168BE242
:1042A00095E00E9482150E94B3074F815885509374
:1042B000530840935208CA01E3960FB6F894DEBF44
:1042C0000FBECDBFDF91CF911F910F91FF90EF9067
:1042D000DF90CF90BF90AF909F908F907F906F9026
:1042E0005F904F903F902F9008958FEF9FEF08952C
:1042F0008AEF96E00E94821582E993E00E9482157F
:1043000087E793E00E9482158DE295E00E94821576
:104310000E94B3070E94B50680E090E008950C94D7
:104320000A540C940A540C940A540C940A540C9495
:104330000A540C940A540C940A540C940A540C9485
:104340000A540C940A540E94B3070E940F0780E09D
:1043500090E008958FEF96E00E9482150E94B307C7
:104360000E94710B0E94B3070E94C7060E943B3453
:1043700040E050E068E070E00E94E8320E943B3488
:1043800040E050E069E070E00E94E8320E943B3477
:1043900040E050E06AE070E00E94E8320E943B3466
:1043A00040E050E06DE070E00E94E83280E090E094
:1043B00008950F931F93CF93DF93FB0102A113A1E5
:1043C000C68DD78D0E947332C530D105E1F064F4FB
:1043D000249771F56DE070E089E19EE00E94A444AD
:1043E000B80189E19EE022C0C630D105B1F02B971B
:1043F000F9F464E070E082E29EE00E94A444B80117
:1044000082E29EE013C06BE070E08CE19EE00E94CF
:10441000A444B8018CE19EE009C06AE070E08FE13D
:104420009EE00E94A444B8018FE19EE00E942144D6
:1044300080E090E0DF91CF911F910F910895CF938D
:10444000DF93EC0186E390E09C8F8B8F87E390E015
:104450009E8F8D8F86E290E098A38F8F8AE190E007
:104460009AA389A38CE190E09CA38BA388E190E0C0
:104470009EA38DA38FE390E098A78FA380E490E0A4
:104480009AA789A7FE01E057FF4F8CE390E094873D
:1044900083878DE390E09687858788E390E0908B13
:1044A0008787128A118A148A138A168A158A8EE0DF
:1044B00090E0908F878B8FE090E0928F818FE05813
:1044C000FF4F8BE290E09487838780E390E09687AC
:1044D00085878AE390E0908B8787128A118A148AF5
:1044E000138A168A158A8CE090E0908F878B89E07A
:1044F00090E0928F818FEA5EFE4F11821082329699
:1045000011821082329611821082CE010E944B35A8
:10451000CE010E942F2DFE01EB50FD4F8081918135
:1045200072974081518162817381E355F140DE01D0
:10453000A352BD4F2D913C91358F248F448B558BC9
:10454000668B778B019719F48FEF9FEF02C081E0A4
:1045500090E0978F868FFE01E950FD4F8081918119
:1045600070974081518162817381E952F140DE018F
:10457000A152BD4F2D913C91358F248F448B558B8B
:10458000668B778B019719F48FEF9FEF02C081E064
:1045900090E0978F868FFE01E750FD4F80819181DB
:1045A0003E974081518162817381EF5FF109CF5164
:1045B000DD4F28813981358F248F448B558B668B55
:1045C000778B019719F48FEF9FEF02C081E090E0A5
:1045D000978F868FDF91CF9108952F923F924F92C0
:1045E0005F926F927F928F929F92AF92BF92CF9283
:1045F000DF92EF92FF920F931F93CF93DF93CDB78C
:10460000DEB7C058D1090FB6F894DEBF0FBECDBFDC
:104610008C01FC0110821182128213821482158295
:1046200016821782108611861286138614861586C6
:10463000168617864C01F0E18F0E911CC4010E9472
:10464000262C580180E9A80EB11CC5010E94262C19
:104650006801E0EFCE1AEEEFDE0AC6010E94262CBA
:104660007801F0E7EF1AFEEFFF0AC7010E9471120E
:10467000380182E4681A8EEF780AC3010E94711231
:104680002801E4E14E1AEEEF5E0AC2010E947112A7
:10469000C801865E9D4F0E94B515F801E05EFD4F92
:1046A000118210823296118210823296118210820B
:1046B00032961182108232961182108232961182C5
:1046C0001082329610823196108231961082319685
:1046D0001082118212821382349610821182128209
:1046E00013823496108211821282138234961082C1
:1046F00011821282138234961082118212821382E6
:1047000034961082118212821382349610821182A2
:10471000128213823496108211821282138234968E
:1047200010821182128213823496108211821282B8
:104730001382349610821182128213823496108270
:104740001182128213823496108231961082319631
:104750001082319610821182128213823496108256
:104760001182128213823496108211821282138275
:1047700034961082319610823196108231961082D2
:1047800031961082319610823196108231961082C5
:1047900031961082319610823196108231961082B5
:1047A00031961082319610823196108231961082A5
:1047B0003196108231961082319610823196108295
:1047C0003196108231961082319610823196108285
:1047D00031961082118212821382349610821182D5
:1047E0001282138234961082118212821382D801AF
:1047F000AE56BD4F8CE0E6E8F3E001900D928A954D
:10480000E1F7F801E256FD4F108211821282138205
:104810003496108211821282138234961082118291
:104820001282138234961182108232961182108283
:104830003296118210823296108211821282138275
:104840003496108211821282138234961082118261
:10485000128213823496108211821282138234964D
:104860001082118212821382349610821182128277
:1048700013823496118210823296118210823296FF
:104880001182108232961082118212821382349623
:104890001082118212821382349610821182128247
:1048A000138234961082319610823196108231969E
:1048B00011821082329611821082329611821082F9
:1048C00032961082118212821382349610821182E3
:1048D00012821382349610821182128213823496CD
:1048E00011821082329611821082329611821082C9
:1048F0003296118210823296118210823296118283
:104900001082329611821082329611821082180122
:10491000F1E02F1AFDEF3F0AF1011082CE0101965E
:104920000E94262C80E8FE013196D40101900D9260
:104930008A95E1F7CE0101960E94262C80E8FE01BF
:104940003196D50101900D928A95E1F7CE0101963D
:104950000E94262C80E8FE013196D60101900D922E
:104960008A95E1F788E5F801848BEC56FF4F89E5DD
:104970008083E058FF4F8AE58083CE0101960E9434
:1049800071128EE2FE013196D70101900D928A9547
:10499000E1F7CE0101960E9471128EE2FE0131967E
:1049A000D30101900D928A95E1F7CE0101960E9404
:1049B00071128EE2FE013196D20101900D928A951C
:1049C000E1F7C8010E941F22F1011082C058DF4F99
:1049D0000FB6F894DEBF0FBECDBFDF91CF911F9110
:1049E0000F91FF90EF90DF90CF90BF90AF909F908E
:1049F0008F907F906F905F904F903F902F90089591
:104A00000F931F93CF93DF938B01EA018DE993E01E
:104A10000E9482158DEF96E00E948215F801848134
:104A20000E94DE15CE010E94DB160E94B307DF91C3
:104A3000CF911F910F910C94B506CF92DF92EF9218
:104A4000FF920F931F93CF93DF93CDB7DEB72897D5
:104A50000FB6F894DEBF0FBECDBF8B016A01865E34
:104A60009D4F7C0169E973E00E94AB436DEF76E0F6
:104A7000C7010E94AB43F801848189831A8241E017
:104A800050E08E010F5F1F4FB801C7010E944D43D8
:104A90004AE0B801C6010E94C254F801019000200A
:104AA000E9F73197AF01401B510BB801C7010E94D4
:104AB0004D430E94B307BC01C8010E947106B801B2
:104AC000C7010E94BA4389819A810E940A5428969C
:104AD0000FB6F894DEBF0FBECDBFDF91CF911F910F
:104AE0000F91FF90EF90DF90CF900895FC01DB01D4
:104AF000A759BF4F8C91882319F022E030E002C003
:104B000020E030E0DB01A559BF4F8C91882311F0E4
:104B100023E030E0DB01A659BF4F8C91882311F0D0
:104B200024E030E0DB01A459BF4F8C91882311F0C1
:104B300026E030E0DA018D919C912817390721F0A9
:104B400091E0121613060CF090E0DA012D933C93DD
:104B5000992321F0A901CF010C941D250895CF932D
:104B6000DF938091FF0E9091000F892B59F480E024
:104B700093E00E947253EC010E94ED22D093000F4B
:104B8000C093FF0E8091FF0E9091000FDF91CF91A7
:104B900008954F925F926F927F928F929F92AF9201
:104BA000BF92CF92DF92EF92FF920F931F93CF931A
:104BB000DF9300D01F92CDB7DEB70E9496114090D0
:104BC00034095090350960903609709037090E9479
:104BD00096118090380990903909A0903A09B090C8
:104BE0003B090E94B307C090010FD090020FE090E4
:104BF000030FF090040F0E94B307C701B6010E9493
:104C0000FB586B017C01C301B2010E94FB589B0160
:104C1000AC01C701B6010E94155B2B013C016091FC
:104C2000050F7091060F8091070F9091080F0E9459
:104C3000FB586B017C01C501B4010E94FB589B012C
:104C4000AC01C701B6010E94155B69837A838B832F
:104C50009C830E94AF251F921F921F921F921F924A
:104C6000812C912CA12CB12CC12CD12C7601098145
:104C70001A812B813C81B301A2010E94E9190E9493
:104C8000AF251F921F921F921F921F9297018601BC
:104C9000B301A2010E94E9190E94AF251F921F9241
:104CA0001F921F921F9297018601B701A6010E94D1
:104CB000E9190FB6F894DEBF0FBECDBF80E090E0DB
:104CC0000F900F900F900F90DF91CF911F910F9148
:104CD000FF90EF90DF90CF90BF90AF909F908F901C
:104CE0007F906F905F904F9008954F925F926F9278
:104CF0007F928F929F92AF92BF92CF92DF92EF926C
:104D0000FF920F931F93CF93DF9300D000D0CDB7C6
:104D1000DEB7FB0126892D8387898E83828893885D
:104D2000A684B784C284D384E484F5844680578003
:104D30006084718482819381A481B58189839A83FF
:104D4000AB83BC830E94AF251F921F921F92AE813E
:104D5000AF93BD81BF939301820149815A816B81D9
:104D60007C810E94E9190F900F900F900F900F9087
:104D700080E090E026960FB6F894DEBF0FBECDBF60
:104D8000DF91CF911F910F91FF90EF90DF90CF9027
:104D9000BF90AF909F908F907F906F905F904F905B
:104DA0000895CF93DF93EB0120E030E040E85FE32C
:104DB0006A817B818C819D810E94F45881110DC094
:104DC00086E097E00E9482150E94AF258C5A9F4F83
:104DD000FC01108211821282138220E030E040E850
:104DE0005FE36E817F81888599850E94F4588111E7
:104DF0000DC086E197E00E9482150E94AF258C527B
:104E00009F4FFC01108211821282138220E030E059
:104E100040E85FE36A857B858C859D850E94F45818
:104E200081110DC086E297E00E9482150E94AF2595
:104E30008C5A9E4FFC0110821182128213820E94B2
:104E4000B3070E94B50680E090E0DF91CF9108950E
:104E5000089508950895089508950895089508956A
:104E6000089508952F923F924F925F926F927F9292
:104E70008F929F92AF92BF92CF92DF92EF92FF926A
:104E80000F931F93CF93DF93CDB7DEB762970FB623
:104E9000F894DEBF0FBECDBFFC019C01245B3F4FE9
:104EA000D9014C918A599F4FBF0169597F4F3B01EE
:104EB00018972D016F517109442339F042A9DC0183
:104EC0004C9381E0D3018C9327C08D909D90AD9041
:104ED000BC90DB01CD90DD90ED90FC9041E08C1416
:104EE0009D04AE04BF040CF040E0DC014C93A4012F
:104EF00097FE04C04427552748195909C601D7FE13
:104F000004C0882799278C199D0911E04817590773
:104F10000CF410E0D3011C93D2018D919D910D9062
:104F2000BC91A02D8D879E87AF87B88B892B8A2B4C
:104F30008B2B69F4C2A0D3A0E4A0F5A0CF018F59B8
:104F40009F4FDC01CD92DD92ED92FC921397DB0135
:104F50004D915D916D917C918F01005C1F4FD80147
:104F6000CD90DD90ED90FC900B5D1F4FC416D506E3
:104F7000E606F70654F48D859E85AF85B8898417BB
:104F80009507A607B707A4F00EC04C155D056E0582
:104F90007F054CF48D859E85AF85B88948175907E4
:104FA0006A077B072CF0D9012C91222309F457C101
:104FB000D8012C91222309F452C182A493A4A4A461
:104FC000B5A4868D978DA0A1B1A189839A83AB8367
:104FD000BC8382A193A1A4A1B5A18D839E83AF833D
:104FE000B8879F0127593F4FD9011C922F5F3F4F30
:104FF000D9011C923F01BBE66B0E711CD3011C92C0
:105000002F01BCE64B0E511CD2011C922C5F3F4F6E
:10501000D9011C929A012C193D0937FF03C0319523
:1050200021953109C901330FAA0BBB0B89879A87D8
:10503000AB87BC87C416D506E606F7065CF42D855B
:105040003E854F8558892C193D094E095F09690134
:105050007A0108C0CD84DE84EF84F888C41AD50AAA
:10506000E60AF70A8F0149855A856B857C85759517
:105070006795579547954D875E876F87788BBF01FA
:1050800062597F4F1B01F7FC09C089859A85AB8562
:10509000BC858C159D05AE05BF0554F4D8019696C8
:1050A0000D90BC91A02DBA8BA98B81E0F201ADC00F
:1050B0002D853E854F8558892C153D054E055F058C
:1050C0000CF449C08C149D04AE04BF043CF4498127
:1050D0005A814F5F5F4F5A8B498B4FC0C701B60152
:1050E0000E94FB582B013C01C501B4010E94FB58F2
:1050F0009B01AC01C301B2010E94155B2B013C0175
:1051000069817A818B819C812D813E814F81588577
:10511000621B730B840B950B0E94FB589B01AC0127
:10512000C301B2010E945A592B013C016D817E815D
:105130008F8198850E94FB589B01AC01C301B2018D
:105140000E94A95A0E94875B7A8B698B81E0F801E3
:10515000E759FF4F5AC089859A85AB85BC85881968
:105160009909AA09BB09C816D906EA06FB065CF428
:10517000E981FA813296FA8BE98B81E0D3018C9335
:10518000F101808345C069857A858B859C856C1982
:105190007D098E099F090E94FB582B013C01C50126
:1051A000B4010E94FB589B01AC01C301B2010E94F3
:1051B000155B2B013C0169817A818B819C812D815A
:1051C0003E814F815885621B730B840B950B0E94A7
:1051D000FB589B01AC01C301B2010E945A592B013B
:1051E0003C016D817E818F8198850E94FB589B01D7
:1051F000AC01C301B2010E94A95A0E94875B7A8B5D
:10520000698B81E0F801E659FF4F8083D1018C93CF
:10521000F80182858823B1F00E948246D801189651
:105220004D905C901997052C000C66087708DC01FE
:10523000CB0184199509A609B709893E9340A105B8
:10524000B10580F4F801EF59FF4F29893A89C90166
:10525000A0E0B0E080839183A283B3835EC0D801D5
:105260001C925BC00E948246F801718760878EE2C3
:1052700095E00E94821586E397E00E94821560E027
:1052800070E0CB010E94E3158CE397E00E94821549
:10529000C701B6010E94E31582E497E00E948215DF
:1052A00069857A858B859C850E94E31588E497E063
:1052B0000E9482156D857E858F8598890E94E315F1
:1052C0008FE497E00E948215C501B4010E94E315A6
:1052D00085E597E00E9482156D817E818F8198859A
:1052E0000E94E3158BE597E00E94821569817A811F
:1052F0008B819C810E94E31581E697E00E948215D4
:105300008DEF96E00E94821589899A890E94DB16AA
:105310008BE295E00E94821595CF62960FB6F894C5
:10532000DEBF0FBECDBFDF91CF911F910F91FF90D8
:10533000EF90DF90CF90BF90AF909F908F907F9035
:105340006F905F904F903F902F9008950F931F9311
:10535000FC01E45BFF4F2081211110C038970081D0
:105360001181228133813496408151816281738120
:1053700004171507260737074CF404C0FC0122A9BF
:10538000222321F01F910F910C9404131F910F9170
:105390000C94E212DC018D919C91DC01ED91FC9169
:1053A0000084F185E02D1995CB01937008957F92CB
:1053B0008F929F92AF92BF92CF92DF92EF92FF9225
:1053C0000F931F93CF93DF93EC016B01042F7901AF
:1053D00088819981812C912CA12C2FE3B22EDC01A4
:1053E0001D968D929D92AD92BC9250970E946B1724
:1053F000B701888199810E94FD1660E088819981BA
:105400000E94E116A881B9819F968C919F97846034
:105410009F968C939F979D962C919D979E963C91DD
:105420009E97482F4F7350E0ED91FC91119701909A
:10543000F081E02D60E7CD011995A881B98195969D
:105440008C919597806195968C93959792962D91D6
:105450003D914D915C919597ED91FC911197019043
:10546000F081E02D6CE6CD011995A881B9810F7707
:1054700098964C9198974078402B98964C93989793
:1054800096962C91969797963C91979799965C91C2
:1054900099975170ED91FC9111970190F081E02D59
:1054A0006DE6CD011995A881B9811FEF55961C9322
:1054B000559756961C93569757968C9157978F6091
:1054C00057968C935797ED91FC9111970190F0812D
:1054D000E02D2FEF3FEF4FE050E064E1CD01199553
:1054E000A881B98152968C9152978B7F52968C935A
:1054F0005297282F53963C91539754968C915497DA
:10550000482F437050E0ED91FC9111970190F0818C
:10551000E02D60E0CD011995A881B98153968C9159
:105520005397816053968C93539752962C91529730
:10553000382F54968C915497482F437050E0ED913A
:10554000FC9111970190F081E02D60E0CD0119955B
:10555000A881B98114968C911497807F8A601496E3
:105560008C93149712962C91129713963C91139743
:10557000482F4F7050E0ED91FC9111970190F08110
:10558000E02D60E1CD0119958881998130E8732E75
:10559000FC0175820190F081E02D0190F081E02DF9
:1055A00020E830E040E050E061E119958C818835D9
:1055B00009F0F3C08A819B81DC011D968D929D923A
:1055C000AD92BC925097B6010E946B17B7018A81C9
:1055D0009B810E94FD1660E08A819B810E94E116FA
:1055E000AA81BB819F968C919F9784609F968C9394
:1055F0009F979D962C919D979E963C919E97482FA4
:105600004F7350E0ED91FC9111970190F081E02DE6
:1056100060E7CD011995AA81BB8195968C919597EC
:10562000806195968C93959792962D913D914D9191
:105630005C919597ED91FC9111970190F081E02D8F
:105640006CE6CD011995AA81BB8198964C919897EB
:105650004078402B98964C93989796962C919697D5
:1056600097963C91979799965C9199975170ED9187
:10567000FC9111970190F081E02D6DE6CD01199517
:10568000AA81BB8155961C93559756961C935697A5
:1056900057968C9157978F6057968C935797ED91AB
:1056A000FC9111970190F081E02D2FEF3FEF4FE03B
:1056B00050E064E1CD011995AA81BB8152968C918D
:1056C00052978B7F52968C935297282F53963C91EA
:1056D000539754968C915497482F437050E0ED9116
:1056E000FC9111970190F081E02D60E0CD011995BA
:1056F000AA81BB8153968C915397816053968C936A
:10570000539752962C915297382F54968C915497C8
:10571000482F437050E0ED91FC9111970190F0817A
:10572000E02D60E0CD011995AA81BB8114968C9182
:105730001497807F8A6014968C93149712962C91FC
:10574000129713963C911397482F4F7050E0ED91AC
:10575000FC9111970190F081E02D60E1CD01199548
:105760008A819B81FC0175820190F081E02D01907E
:10577000F081E02D20E830E040E050E061E1DF9191
:10578000CF911F910F91FF90EF90DF90CF90BF903E
:10579000AF909F908F907F901994DF91CF911F9140
:1057A0000F91FF90EF90DF90CF90BF90AF909F90C0
:1057B0008F907F900895CF93DF93EC018C81883593
:1057C00049F487EC9EE09983888385E29EE09B8381
:1057D0008A830BC0893519F481E99EE004C08A35BB
:1057E00021F48BE59EE099838883888199810E94CA
:1057F000DC188C81883521F48A819B810E94DC1819
:10580000FE01E059FF4F81ED90E191838083329654
:105810001182108232968CEB90E1918380833296D4
:105820001182108232968FE090E1918380833296CC
:1058300011821082329680E190E191838083C25878
:10584000DF4F19821882DF91CF910895FC0181E02A
:10585000868387831186108612868CE291E0A0E011
:10586000B0E0868F978FA0A3B1A342E350E060E041
:1058700070E042A353A364A375A346A357A360A7F4
:1058800071A782A793A7A4A7B5A788E790E0A0E097
:10589000B0E086A797A7A0ABB1AB12AA13AA14AA2F
:1058A00015AA84E690E0A0E0B0E086AB97ABA0AF8D
:1058B000B1AF12AE13AE14AE15AE16AE17AEDF0119
:1058C000A05CBF4F1D921D921D921C9213971496BF
:1058D0001D921D921D921C92139714961D921D925B
:1058E0001D921C92139714961C9211961D921D9254
:1058F0001D921C92139714961D921D921D921C923C
:10590000139714961D921D921D921C921397149634
:105910001D921D921D921C92139714961D921D921A
:105920001D921C92139714961D921D921D921C920B
:10593000139714961C9211961C9211961C92119614
:105940001C9211961C9211961C9211961C92119603
:105950001C9211961C9211961C9211961C92148600
:10596000138616861586108A1786128A118A148A5B
:10597000138A168A158A108E178A128E118E119626
:1059800085EF90E111969C938E93129611961C923E
:105990001E92129680EF90E111969C938E93129630
:1059A00011961C921E9212968BEE90E111969C938A
:1059B0008E93129611961C921E92129686EE90E18C
:1059C0008D939C93E258FF4F1182108208950E949C
:1059D000B3070C94710B0E94B3070C94C706CF92C7
:1059E000DF92EF92FF92CF93DF93EC01FC01EC5A30
:1059F000FF4FC080D180E280F3800E94B307C09245
:105A0000010FD092020FE092030FF092040FFE01FB
:105A1000EC52FF4FC080D180E280F3800E94B30738
:105A2000C092050FD092060FE092070FF092080F78
:105A3000CC5ADE4FC880D980EA80FB800E94B30731
:105A4000C092090FD0920A0FE0920B0FF0920C0F48
:105A5000DF91CF91FF90EF90DF90CF9008952F923C
:105A60003F924F925F926F927F928F929F92AF92EE
:105A7000BF92CF92DF92EF92FF920F931F93CF933B
:105A8000DF93EC010E949611FE01E853FD4F8091D7
:105A9000140A9091150A918380830E949611FE0149
:105AA000E653FD4F8091180A9091190A91838083E3
:105AB0000E949611FE01E453FD4F80911C0A9091C3
:105AC0001D0A918380830E9496118E0102531D4FFF
:105AD00060913C0A70913D0A80913E0A90913F0A84
