:100000000C9486040C94B7040C94B7040C94B704B5
:100010000C94B7040C94B7040C94B7040C94B70474
:100020000C94B7040C941F0F0C941F0F0C941F0F0B
:100030000C94B7040C94B7040C94B7040C94DD250D
:100040000C94B7040C94AF250C94B7040C94B7042B
:100050000C9436260C94B7040C94B7040C94E34625
:100060000C94B7040C94E4230C94BA230C94B704B6
:100070000C94B7040C94B7040C94B7040C94B70414
:100080000C9481250C94B7040C94B7040C94B70419
:100090000C94B7040C94B7040C94B7040C94B704F4
:1000A0000C94B7040C94B7040C9453250C94B70427
:1000B0000C94B7040C94B7040C94B7040C94252545
:1000C0000C94B7040C94B7040C94B7040C94B704C4
:1000D0000C94B7040C94B7040C94B7040C94B704B4
:1000E0000C94B704D90BDC0BCB0BCF0BD50B130C3B
:1000F000E00BE40BEA0BEE0BF20BF80BFC0B000C25
:10010000130C060C0A0C0E0C47354C3551355B357B
:100110006535DE356F3577357F35893593359D35D6
:10012000AC35B635DE35C035CA35D435063713376C
:100130001C37253732373B37403B403B403B403B49
:10014000403B483755376237403B6F377837813708
:100150008E379737A037A937B237BB37403BC43704
:10016000CD37D637403B403B403BDF37E837F137B0
:10017000403B403BFA370738403B403B403B14385C
:1001800021382E38403B3B3844384D38403B403BCB
:10019000403B56385F386838403B753882388F3876
:1001A000403B403B403B9C38A938B638403BC338C5
:1001B000D038DD38403B403B403BEA38F738043923
:1001C000403B11391A392339403B403B403B4739CA
:1001D00054396139403B6E397B398839403B403B6B
:1001E000403B95399E39A739403B403B403B403B23
:1001F000403B403B403BB039B939C239403BCB3939
:10020000D439DD39403B403B403BE639F339003AD5
:10021000403B0D3A1A3A273A403B403B403B343A88
:10022000413A4E3A403B5B3A643A6D3A403B403B80
:10023000403B763A7F3A883A403B403B403B403B2C
:10024000403B403B403B403B403B403B403B2C39EC
:1002500035393E39403B403B403B403B403B403BD7
:10026000403B403B403B403B403B403B403B403BB6
:10027000403B403B403B403B403B403B403B403BA6
:10028000403B403B403B403B403B403B403B403B96
:10029000403B403B403B403B403B403B403B403B86
:1002A000403B403B403B403B403B403B403B403B76
:1002B000403B403B403B403B403B403B403B913A16
:1002C0009A3AA73A403BB43ABD3ACA3A403B403B1F
:1002D000403BD73AE03AED3A403BFA3A033B103B19
:1002E000403B403B403B1D3B263B333B0C94DD39C0
:1002F0000C946D060C94C4370C94B0390C9416050C
:100300000C9444380C941A3A0C9465350C94871666
:100310000C94B43A0C9413370C9488160C94413A0C
:100320000C9465060C94552D0C94F6100C94DF3744
:100330000C94F3390C9421210C94D90B0C946F3547
:100340000C9466060C9451350C9485160C94483721
:100350000C94EA380C942B060C9447390C947F3596
:100360000C9486160C9488390C942E050C940E0867
:100370000C9432370C94171E0C9418050C94E83723
:100380000C9435390C945F2D0C943B090C946C063D
:100390000C94A0370C946E390C94510A0C94262DB1
:1003A0000C943A220C943B370C94F4100C94AC351A
:1003B0000C9468060C94F1370C940A0C0C94CE1033
:1003C0000C949A3A0C9470060C9414050C94EA1050
:1003D0000C94F71F0C945F380C9482380C948A1696
:1003E0000C9452220C949D350C9426050C94813764
:1003F0000C94763A0C94A7390C94CB390C941A05CA
:100400000C9493350C94BD3A0C94FF1F0C947538E2
:100410000C942C390C94B9050C94502D0C941C059B
:100420000C94CE150C945B350C94F80B0C942C208A
:100430000C945D050C94CA3A0C947B390C942A16E2
:100440000C94FA370C942C050C94F2100C94B237DF
:100450000C9469060C94D0380C94F2050C944D3829
:100460000C941C370C94333B0C9414380C946E068B
:100470000C94EE100C9435220C947F3A0C94563860
:100480000C946C050C944C350C9447350C94240555
:100490000C948E200C9448220C9428050C941E0574
:1004A0000C9467060C9482160C9432110C94B63896
:1004B0000C943E050C94FF070C9425370C94EC101B
:1004C0000C94103B0C94B9390C9483160C94F20BD9
:1004D0000C9423390C940D3A0C9403110C94883A23
:1004E0000C94EE0B0C94AE1E0C94CA350C94263B67
:1004F0000C949E390C94060C0C94D50B0C9421385A
:100500000C94B9040C94E8100C9497370C9464067E
:100510000C94ED3A0C9489350C94D6040C94792CF7
:100520000C94403B0C94C2390C94643A0C94E63918
:100530000C94FC100C94D1100C94033B0C94DC0B29
:100540000C94F7380C9411390C944E200C946F06CF
:100550000C942E380C9404390C9489160C949C3805
:100560000C94BB370C9455370C94C0350C94FA108E
:100570000C9422150C946A060C943B2D0C940637AF
:100580000C94D4350C94C3380C94EA0B0C94841658
:100590000C9416200C9477350C941A390C94A73AC5
:1005A0000C94000C0C94E40B0C9461390C945B3AA1
:1005B0000C943F220C94F0100C9481160C94B635D8
:1005C0000C9422050C945A2D0C9420050C94913A0D
:1005D0000C940E0C0C94451E0C94A9370C94F81036
:1005E0000C94003A0C942A050C94541E0C94FB1E97
:1005F0000C9495390C947A2C0C94E00B0C943E39A5
:100600000C9468380C946F370C9478370C94FA3A41
:100610000C943B380C946D3A0C94D73A0C94CF0B55
:100620000C94FC0B0C94273A0C9457520C94DE3526
:100630000C94761E0C94CD370C94E03A0C946B0617
:100640000C9407380C9454390C94130C0C94681EB9
:100650000C9470200C948F380C94A9380C941D3B8A
:100660000C94D4390C946A0B0C94D6370C94CB0BA5
:100670000C948E370C94DD380C9462370C944E3AFF
:100680000C94343A4E414E494E495459494E46CD48
:10069000CCCC3D0AD7233C17B7D13877CC2B329539
:1006A00095E6241FB14F0A000020410000C8420017
:1006B000401C4620BCBE4CCA1B0E5AAEC59D7400E1
:1006C000407A10F35A00A0724E18090010A5D4E821
:1006D0000000E87648170000E40B54020000CA9AB4
:1006E0003B000000E1F50500008096980000004006
:1006F000420F000000A0860100000010270000004B
:1007000000E803000000006400000000000A000090
:100710000000000100000000002C76D888DC674F44
:100720000823DFC1DFAE59E1B1B796E5E3E453C674
:100730003AE651997696E8E6C28426EB898C9B626C
:10074000ED407C6FFCEFBC9C9F40F2BAA56FA5F416
:1007500090055A2AF75C936B6CF9676DC11BFCE03E
:10076000E40D47FEF520E6B500D0ED902E03009491
:100770003577050080841E080000204E0A00000026
:10078000C80C333333330F986E12831141EF8D2130
:1007900014893BE65516CFFEE6DB18D1844B381B97
:1007A000F77C1D901DA4BBE424203284725E22815C
:1007B00000C9F124ECA1E53D270000210024002719
:1007C000002A002D00300033000101000004010761
:1007D000010A0100000A0B02090C0D0E08070304B0
:1007E0000100000000000000000000000000000008
:1007F00000000000000000000000000000000012E7
:1008000011100000000000000000000000000000C7
:1008100000000000000000000000000000000000D8
:100820000000000000000000000102102020080865
:100830001020401020408002010201080402010142
:10084000020408102040808040201008040201802B
:100850000402018040201008040201080402010182
:10086000020408102040800102040810204080107B
:1008700008040880102040044080102040048000BC
:100880000020002300260029002C002F0032000049
:1008900001000003010601090100002200250028D3
:1008A000002B002E00310034000201000005010879
:1008B000010B0105050505070508080808020202E5
:1008C000020A0A08080404040401010101010101EB
:1008D000010303030303030303040707070C0C0CC2
:1008E0000C0C0C0C0C02020202060606060606069A
:1008F000060B0B0B0B0B0B0B0B07070A0A0A0A0A5A
:100900000A050505040404080800575211241FBEF7
:10091000CFEFD1E2DEBFCDBF00E00CBF18E0A0E01A
:10092000B2E0E0EBF8EB00E00BBF02C007900D92E5
:10093000A431B107D9F72EE0A4E1B8E001C01D92BF
:10094000AB3EB207E1F714E0C6E8D4E000E006C031
:1009500021970109802FFE010E942C5AC538D1072A
:1009600080E00807A9F70E942D470C94565C0C9470
:100970000000EF92FF920F931F93CF93DF93FB0141
:10098000E2A8F3A802A113A1C68DD78D0E94EB3572
:100990009701A801BE010E94043580E090E0DF913C
:1009A000CF911F910F91FF90EF9008954F925F921A
:1009B0006F927F92AF92BF92CF92DF92EF92FF92AF
:1009C0000F931F93CF93DF93FB01E2A8F3A846A4F4
:1009D00057A460A871A8C6A0D7A0A2A0B3A0068DF6
:1009E000178D0E94EB35EC019701A501B8010E941B
:1009F0000435C301B2010E9494109701A601B80109
:100A0000CE010E94043580E090E0DF91CF911F91EC
:100A10000F91FF90EF90DF90CF90BF90AF907F90BD
:100A20006F905F904F9008950C9496530C9496534A
:100A30000C9496530C9496530C9496530C94965392
:100A40000C9496530C9496530C9496530C94965382
:100A50000C9496530C9496530C949653CF93DF9327
:100A6000FB01D2A9C68D0E94EB356D2F8C2F0E9401
:100A7000850F80E090E0DF91CF9108950F931F9351
:100A8000CF93DF93FB0102A913A9C68DD78D0E94D6
:100A9000EB35A801BE010E94983480E090E0DF9120
:100AA000CF911F910F910895662319F089E794E083
:100AB00002C082E794E00C94670CCF93DF93FB01B4
:100AC000C68DD78D0E94002EBE010E94A12D80E010
:100AD00090E0DF91CF910895CF92DF92EF92FF9255
:100AE0000F931F93CF93DF93FB01C2A0D3A0E4A089
:100AF000F5A0068D178D0E94002EEC018A819B8146
:100B00008F30F7E29F0724F401969B838A8302C00B
:100B10001B821A82B801CE010E9453368823B1F09D
:100B2000F801EE0FFF1FEE0FFF1FE65EF74FC082CA
:100B3000D182E282F382A7019601B801CE010E9420
:100B4000642DB801CE010E94A12D04C08CE695E071
:100B50000E94670C0E946B340E94363480E090E063
:100B6000DF91CF911F910F91FF90EF90DF90CF9089
:100B700008958F929F92AF92BF92CF92DF92EF92A1
:100B8000FF920F931F930E94081562E070E00E948D
:100B90004C3B892BD1F40E94081521E02F931F9222
:100BA0001F921F921F92812C912CA12CB12CC12C31
:100BB000D12C760197018601B701A6010E948B1600
:100BC0000F900F900F900F900F9080E090E01F918A
:100BD0000F91FF90EF90DF90CF90BF90AF909F90DC
:100BE0008F9008958F929F92AF92BF92CF92DF9293
:100BF000EF92FF920F931F930E94081561E070E03F
:100C00000E944C3B892BD1F40E9408151F9221E0D1
:100C10002F931F921F921F92812C912CA12CB12CEB
:100C2000C12CD12C760197018601B701A6010E9443
:100C30008B160F900F900F900F900F9080E090E028
:100C40001F910F91FF90EF90DF90CF90BF90AF90EA
:100C50009F908F9008958F929F92AF92BF92CF9264
:100C6000DF92EF92FF920F931F930E94081560E0AE
:100C700070E00E944C3B892BD1F40E9408151F9212
:100C80001F9221E02F931F921F92812C912CA12C57
:100C9000B12CC12CD12C760197018601B701A60198
:100CA0000E948B160F900F900F900F900F9080E086
:100CB00090E01F910F91FF90EF90DF90CF90BF9049
:100CC000AF909F908F900895089508950895089586
:100CD000089508950895089508950895089508952C
:100CE0000895EF92FF920F931F93CF93DF93CDB7A9
:100CF000DEB72E970FB6F894DEBF0FBECDBF8C01C6
:100D00000E949A0C6EE875E0C8010E94A4236091CD
:100D100016087091170880911808909119082AE018
:100D2000AE014F5F5F4F7A010E945954F701019065
:100D30000020E9F73197AF014E195F09B701C801EB
:100D40000E9446236DEE74E0C8010E94A423C801EE
:100D50002E960FB6F894DEBF0FBECDBFDF91CF91B8
:100D60001F910F91FF90EF9008958EE895E00E94FB
:100D7000670C60911608709117088091180890917F
:100D800019080E94C80C8DEE94E00C94670C0F9328
:100D90001F93CF93DF93EC0181E995E00E94670CEC
:100DA00085E995E00E94670C02EA1CE0F801608189
:100DB000CE010E94540589E995E00E94670CF80174
:100DC0006181CE010E9454058DE995E00E94670C77
:100DD000F8016281CE010E94540581EA95E00E94EB
:100DE000670CF8016381CE010E94540585EA95E005
:100DF0000E94670CF8016481CE010E94540589EAC3
:100E000095E00E94670CF8016581CE010E945405AF
:100E1000CE01DF91CF911F910F910C94B506CF9227
:100E2000DF92EF92FF92CF93DF93EC01888199815B
:100E3000AA81BB81181619061A061B0644F081E028
:100E400090E0A0E0B0E088839983AA83BB838C8183
:100E50009D81AE81BF81181619061A061B0644F043
:100E600081E090E0A0E0B0E08C839D83AE83BF83FF
:100E700088859985AA85BB85181619061A061B064A
:100E800044F081E090E0A0E0B0E088879987AA87ED
:100E9000BB878DEA95E00E94670C8AED95E00E9481
:100EA000670C6091CE0E7091CF0E8091D00E909114
:100EB000D10E0E9487586B017C01688179818A81FB
:100EC0009B810E9487589B01AC01C701B6010E941B
:100ED000A15A42E00E94F20C8AEE95E00E94670C53
:100EE0006091D20E7091D30E8091D40E9091D50E58
:100EF0000E9487586B017C016C817D818E819F816E
:100F00000E9487589B01AC01C701B6010E94A15AFB
:100F100042E00E94F20C8AEF95E00E94670C60911B
:100F2000D60E7091D70E8091D80E9091D90E0E9456
:100F300087586B017C01688579858A859B850E942D
:100F400087589B01AC01C701B6010E94A15A42E03B
:100F50000E94F20CCE01DF91CF91FF90EF90DF90D5
:100F6000CF900C94B5068091A00C9091A10C892B88
:100F700009F040C08FE090E00E94FE52FC0181E049
:100F800090E0A0E0B0E080839183A283B383848368
:100F90009583A683B78380879187A287B3871586B9
:100FA000148616861092CE0E1092CF0E1092D00E8E
:100FB0001092D10E1092D20E1092D30E1092D40E27
:100FC0001092D50E1092D60E1092D70E1092D80E07
:100FD0001092D90E10921608109217081092180845
:100FE000109219081092150810921408F093A10C91
:100FF000E093A00C8091A00C9091A10C08950E9408
:10100000002E0E94E42D81EB95E00E94670C0E9467
:10101000B3070E94B50680E090E008952F923F92BA
:101020004F925F926F927F928F929F92AF92BF92F8
:10103000CF92DF92EF92FF920F931F93CF93DF93A4
:10104000CDB7DEB72A970FB6F894DEBF0FBECDBF7F
:101050000E94081521E02F931F921F921F921F924A
:10106000812C912CA12CB12CC12CD12C7601970173
:101070008601B701A6010E948B160E94002E0F90D8
:101080000F900F900F900F908091E6089091E708D5
:10109000019729F486EF9FEF9E838D8304C0AAE019
:1010A000B0E0BE83AD830E94B3076091CE0E709115
:1010B000CF0E8091D00E9091D10E0E9487586B0177
:1010C0007C010E94002E6091F6087091F7088091D3
:1010D000F8089091F9080E9487589B01AC01C7015C
:1010E000B6010E94A15A69837A838B839C830E94F4
:1010F000B3076091D20E7091D30E8091D40E90916F
:10110000D50E0E9487586B017C010E94002E6091D1
:10111000FA087091FB088091FC089091FD080E94EC
:1011200087589B01AC01C701B6010E94A15A2B014F
:101130003C01212C312C8D819E81092E000CAA0BA3
:10114000BB0B8D839E83AF83B88793E02916310450
:1011500011F14CF4B1E02B163104E9F0E2E02E1667
:10116000310479F009C0F5E02F163104A1F074F0D4
:1011700086E02816310469F10E940815A1E0AF93BA
:101180002CC00E940815B1E0BF9327C00E9408152B
:10119000E1E0EF9322C00E9408159A8789876D814C
:1011A0007E818F8198850E9487586B017C011F92F8
:1011B0001F921F921F921F92812C912CA12CB12C57
:1011C0009301820149815A816B817C8189859A854D
:1011D00015C00E940815F1E0FF931F921F921F9205
:1011E0001F92812C912CA12CB12CC12CD12C7601D9
:1011F0009301820149815A816B817C810E948B1607
:101200000F900F900F900F900F900E94B307809156
:101210001408909115089A8789870E94B307DC010A
:101220001E968C9181110CC0E985FA85EF2B41F453
:10123000FFEF2F1A3F0A27E02216310409F085CF6D
:1012400080E090E02A960FB6F894DEBF0FBECDBFC7
:10125000DF91CF911F910F91FF90EF90DF90CF9092
:10126000BF90AF909F908F907F906F905F904F90C6
:101270003F902F9008952F923F924F925F926F92DE
:101280007F928F929F92AF92BF92CF92DF92EF9216
:10129000FF920F931F93CF93DF93CDB7DEB72A97BB
:1012A0000FB6F894DEBF0FBECDBF0E94002E809116
:1012B000E6089091E708019729F486EF9FEF9E8357
:1012C0008D8304C0AAE0B0E0BE83AD830E94B30763
:1012D0006091CE0E7091CF0E8091D00E9091D10E74
:1012E0000E9487582B013C010E94002E6091F60855
:1012F0007091F7088091F8089091F9080E9487583A
:101300009B01AC01C301B2010E94A15A69837A8397
:101310008B839C830E94B3076091D60E7091D70E89
:101320008091D80E9091D90E0E9487582B013C01D4
:101330000E94002E6091FE087091FF0880910009C4
:10134000909101090E9487589B01AC01C301B20131
:101350000E94A15A2B013C01212C312C8D819E81B0
:10136000092E000CAA0BBB0B8D839E83AF83B8871D
:1013700093E02916310429F14CF4B1E02B16310425
:1013800001F1E2E02E16310481F009C0F5E02F16DC
:101390003104B9F084F086E02816310481F10E940E
:1013A00008151F92A1E0AF932FC00E9408151F924D
:1013B000B1E0BF9329C00E9408151F92E1E0EF93AE
:1013C00023C00E9408159A8789876D817E818F814D
:1013D00098850E9487588B019C011F921F921F9233
:1013E0001F921F92812C912CA12CB12C73016201B0
:1013F00049815A816B817C8189859A8515C00E94BB
:1014000008151F92F1E0FF931F921F921F92812CEB
:10141000912CA12CB12C7301620100E010E0980125
:1014200049815A816B817C810E948B160F900F90AD
:101430000F900F900F900E94B30780911408909125
:1014400015089A8789870E94B307DC011E968C9144
:1014500081110CC0E985FA85EF2B41F4FFEF2F1ABB
:101460003F0A27E02216310409F082CF80E090E0A5
:101470002A960FB6F894DEBF0FBECDBFDF91CF9195
:101480001F910F91FF90EF90DF90CF90BF90AF90A2
:101490009F908F907F906F905F904F903F902F9094
:1014A00008952F923F924F925F926F927F928F9208
:1014B0009F92AF92BF92CF92DF92EF92FF920F93E3
:1014C0001F93CF93DF93CDB7DEB72A970FB6F8946B
:1014D000DEBF0FBECDBF0E94002E8091E608909126
:1014E000E708019729F486EF9FEF9E838D8304C060
:1014F000AAE0B0E0BE83AD830E94B3076091D20E34
:101500007091D30E8091D40E9091D50E0E94875881
:101510002B013C010E94002E6091FA087091FB089B
:101520008091FC089091FD080E9487589B01AC01B6
:10153000C301B2010E94A15A69837A838B839C8381
:101540000E94B3076091D60E7091D70E8091D80E8D
:101550009091D90E0E9487582B013C010E94002EC9
:101560006091FE087091FF08809100099091010937
:101570000E9487589B01AC01C301B2010E94A15A8D
:101580002B013C01212C312C8D819E81092E000CD8
:10159000AA0BBB0B8D839E83AF83B88793E029167C
:1015A000310441F14CF4B1E02B16310419F1E2E0C1
:1015B0002E16310489F009C0F5E02F163104D1F060
:1015C00094F086E02816310499F10E9408151F92C4
:1015D0001F92A1E0AF9332C00E9408151F921F9284
:1015E000B1E0BF932BC00E9408151F921F92E1E04B
:1015F000EF9324C00E9408159A8789876D817E81A8
:101600008F8198850E948758AB01BC011F921F9261
:101610001F921F921F92812C912CA12CB12C73012F
:10162000620109811A812B813C8189859A8515C0C7
:101630000E9408151F921F92F1E0FF931F921F92C4
:10164000812C912CA12CB12C7301620109811A818A
:101650002B813C8140E050E0BA010E948B160F9034
:101660000F900F900F900F900E94B3078091140875
:10167000909115089A8789870E94B307DC011E960E
:101680008C9181110CC0E985FA85EF2B41F4FFEFB5
:101690002F1A3F0A27E02216310409F07FCF80E09D
:1016A00090E02A960FB6F894DEBF0FBECDBFDF9153
:1016B000CF911F910F91FF90EF90DF90CF90BF904F
:1016C000AF909F908F907F906F905F904F903F90E2
:1016D0002F9008950E94B307FC01168680E090E0E9
:1016E0000895CF93DF938FE30E94290FEC010E94AE
:1016F000B30781E0CD2B09F480E08093A20C80E455
:101700000E94290FEC010E94B30781E0CD2B09F460
:1017100080E08093A30C8EE00E94290FEC010E94D0
:10172000B30781E0CD2B09F480E08093A40C8FE017
:101730000E94290FEC010E94B30781E0CD2B09F430
:1017400080E08093A50C8CE00E94290FEC010E94A0
:10175000B30781E0CD2B09F480E08093A60C89E0EB
:101760000E94290FEC010E94B30781E0CD2B09F400
:1017700080E08093A70CDF91CF91089590E0FC0169
:101780003197E231F10508F04EC08827EE58FF4F3F
:101790008F4F0C942C5A809180008F7703C08091DA
:1017A00080008F7D80938000089580918000877FE6
:1017B000F9CF84B58F7702C084B58F7D84BD08953D
:1017C0008091B0008F7703C08091B0008F7D8093AF
:1017D000B0000895809190008F7707C080919000AD
:1017E0008F7D03C080919000877F80939000089543
:1017F0008091A0008F7707C08091A0008F7D03C0EB
:101800008091A000877F8093A0000895809120019F
:101810008F7707C0809120018F7D03C080912001C8
:10182000877F809320010895009769F0FC01019063
:101830000020E9F73197AF01481B590BBC0189EA39
:101840009CE00C94171E80E090E008958F929F9288
:10185000AF92BF920F931F93CF93DF93CDB7DEB7B5
:10186000A1970FB6F894DEBF0FBECDBF19A24230CC
:1018700008F44AE08E010F5D1F4F842E912CA12C9D
:10188000B12CA50194010E94EF59E62FB901CA01BC
:1018900001501109EA3014F4E05D01C0E95CD8019F
:1018A000EC93232B242B252B61F7C8010E94140CE9
:1018B000A1960FB6F894DEBF0FBECDBFDF91CF91DA
:1018C0001F910F91BF90AF909F908F9008950C94AF
:1018D000140CEF92FF920F931F93CF93DF93CDB72A
:1018E000DEB764970FB6F894DEBF0FBECDBF7C01A4
:1018F000CB01BA018E010F5F1F4F22E044E00E942E
:10190000DE52FC0101900020E9F73197AF01481B3E
:10191000590BBC01C7010E94462364960FB6F89488
:10192000DEBF0FBECDBFDF91CF911F910F91FF9012
:10193000EF900895CF93DF93EC01198218821B82F8
:101940001A821D821C8260E070E00E941F232881A1
:10195000398181110FC02115310519F0C9010E948B
:101960009653198218821D821C821B821A82DF9173
:10197000CF9108951D821C826FEE74E0C901DF9142
:10198000CF910C944F5C682F89EA9CE00C94AE1EBA
:10199000CF92DF92EF92FF92CF93DF9397FF19C020
:1019A0006B017C018DE20E94C30CEC016627772756
:1019B000CB016C197D098E099F094AE00E94260C13
:1019C0008C0F9D1FDF91CF91FF90EF90DF90CF9014
:1019D00008954AE0DF91CF91FF90EF90DF90CF9094
:1019E0000C94260C8F929F92AF92BF92CF92DF926F
:1019F000EF92FF920F931F93CF93DF936B017C01C4
:101A0000142F9B01AC010E944E5B882319F085EBDB
:101A100095E027C046015701E894B7F82FEF3FEF54
:101A20004FE75FE7C501B4010E944E5B81110DC015
:101A30002FEF3FEF4FE75FE7C501B4010E948058E9
:101A400018161CF489EB95E00CC02FEF3FEF4FE721
:101A50005FE4C701B6010E94495B181684F48DEB60
:101A600095E0DF91CF911F910F91FF90EF90DF9064
:101A7000CF90BF90AF909F908F900C94140C2FEF4D
:101A80003FEF4FE75FECC701B6010E94805887FD2A
:101A9000E6CF20E030E0A901C701B6010E948058DE
:101AA00087FF09C08DE20E94C30CEC01F7FAF094A5
:101AB000F7F8F09402C0C0E0D0E000E060E070E031
:101AC00080E09FE3101741F020E030E040E251E475
:101AD0000E94A15A0F5FF6CFA70196010E94355AC6
:101AE0006B017C010E941A5B4B015C014AE00E9481
:101AF000260CC80FD91F1123A9F1C501B4010E94FA
:101B000085589B01AC01C701B6010E94345A6B0194
:101B10007C018EE20E94C30CC80FD91F20E030E088
:101B200040E251E4C701B6010E94E6584B015C0156
:101B30000E941A5B6B01E12CF12C4AE0C701B6014F
:101B40000E94260CC80FD91FC701B6010E948558F4
:101B50009B01AC01C501B4010E94345A6B017C01A8
:101B60001150E1F6CE01DF91CF911F910F91FF90BF
:101B7000EF90DF90CF90BF90AF909F908F9008959F
:101B8000BC01990F880B990B0C94C80CDC01529680
:101B90008C91529760FB84F952968C935297282F20
:101BA00053963C91539754968C915497482F437079
:101BB00050E0ED91FC9111970190F081E02D60E0F3
:101BC000CD0119946031710509F441C088F4623087
:101BD000710509F454C020F4672B09F458C0089526
:101BE0006430710509F443C068307105C1F108958E
:101BF00060347105E1F020F46032710501F108955F
:101C00006038710561F06115714009F048C0DC0170
:101C1000ED91FC910288F389E02D60E03FC0DC018A
:101C2000ED91FC910288F389E02D61E037C0DC0181
:101C3000ED91FC910288F389E02D62E02FC0DC0178
:101C4000ED91FC910288F389E02D63E027C0DC016F
:101C5000ED91FC910288F389E02D64E01FC0DC0166
:101C6000ED91FC910288F389E02D65E017C0DC015D
:101C7000ED91FC910288F389E02D66E00FC0DC0154
:101C8000ED91FC910288F389E02D67E007C0DC014B
:101C9000ED91FC910288F389E02D68E01994089594
:101CA000CF92DF92EF92FF921F93CF93DF93EC01DD
:101CB00080E090E00E94855825ED34E045E352E451
:101CC0000E94E65820E030E04AE754E40E94A15A1E
:101CD0006B017C012AE037ED43EA5CE369857A8594
:101CE0008B859C850E94355AA70196010E94E65873
:101CF00026E636E646EA5EE30E94A15A20E030E09E
:101D000040E85FE30E94345A0E941A5B162FE88174
:101D1000F9810480F581E02D603108F561E0CE01A4
:101D200019952AE037ED43EA5CE369857A858B856E
:101D30009C850E94355AA70196010E94E6582CEE18
:101D400031E548E35EE30E94A15A20E030E040E83C
:101D50005FE30E94345A0E941A5B162F03C060E0B2
:101D6000CE011995103208F01FE1912F9F718B81E0
:101D7000807E892B8B832A81382F8C81482F4F704E
:101D800050E0E881F9810190F081E02D60E1CE0121
:101D90001995612F70E080E090E00E9487582D85B2
:101DA0003E854F8558890E94E6580E941A5B6F71E4
:101DB0008A81807E682B6A83262F3B818C81482F05
:101DC0004F7050E0E881F9810190F081E02D60E1F1
:101DD000CE01DF91CF911F91FF90EF90DF90CF90D8
:101DE0001994DC01ED91FC910280F381E02D6CE609
:101DF0001994CF92DF92EF92FF92FC01C12C92E1F5
:101E0000D92E9AE7E92EF12C20E04C155D056E05E0
:101E10007F0540F4F694E794D794C7942F5F26305B
:101E2000A1F727E091E09227292F286B26952083A0
:101E300091709183FF90EF90DF90CF9008951F9263
:101E40000F920FB60F9211240F900FBE0F901F909C
:101E50001895CF93DF93282F30E0F901ED52F84F1A
:101E60008491F901E75DF74FD491F901ED54F74FF3
:101E7000C491CC2391F081110E94BE0BEC2FF0E0B5
:101E8000EE0FFF1FE158F74FA591B491EC91ED23B0
:101E900081E090E021F480E002C080E090E0DF91FA
:101EA000CF9108951F93CF93DF93282F30E0F9014E
:101EB000ED52F84F8491F901E75DF74FD491F901A4
:101EC000ED54F74FC491CC23C1F0162F81110E941D
:101ED000BE0BEC2FF0E0EE0FFF1FE756F74FA5917A
:101EE000B4919FB7F894111104C08C91D095D82368
:101EF00002C0EC91DE2BDC939FBFDF91CF911F914D
:101F00000895FC0181A90C94520FCF93DF9390E0C8
:101F1000FC01E75DF74F2491FC01ED54F74F8491EC
:101F2000882361F190E0880F991FFC01E754F84F76
:101F3000C591D491FC01E756F74FA591B491611179
:101F400009C09FB7F8948881209582238883EC91FB
:101F50002E230BC0623061F49FB7F8948881322F32
:101F6000309583238883EC912E2B2C939FBF06C042
:101F70008FB7F894E8812E2B28838FBFDF91CF9104
:101F800008950F931F93CF93DF93EC0161E089A92C
:101F90000E94850F61E0CE010E94810F0BA91CA950
:101FA0000115110509F456C061E0F80180810E9415
:101FB000850F61E0F80184810E94850F62E0F801DD
:101FC00082810E94850FF80140815181FA01ED5410
:101FD000F74FE491F0E0EE0FFF1FE756F74F8591C2
:101FE0009491F8019287818722813381F901ED5420
:101FF000F74FE491F0E0EE0FFF1FE158F74F8591A6
:102000009491F8019487838784819581FC01ED5434
:10201000F74FE491F0E0EE0FFF1FE756F74FA59161
:10202000B491F801B687A587FA01E75DF74F4491AF
:10203000F8014683F901E75DF74F2491F801278302
:10204000FC01E75DF74F9491F80190878C91E92F9F
:10205000E82BEC932A893B898C89482F437050E008
:10206000E881F9810190F081E02D60E0CE011995C1
:102070002AA13BA14CA15DA1E881F9810190F081E9
:10208000E02D6CE6CE0119952EA13FA148A559A5DA
:102090005170E881F9810190F081E02D6DE6CE016B
:1020A00019952DA53EA58FA5482F4F7350E0E881C7
:1020B000F9810190F081E02D60E7CE0119952A8128
:1020C0003B818C81482F4F7050E0E881F98101906D
:1020D000F081E02D60E1CE0119958AA1807F8860B2
:1020E0008AA32AA13BA14CA15DA1E881F9810190BD
:1020F000F081E02D6CE6CE011995E881F981068822
:10210000F789E02D61E0CE01DF91CF911F910F9112
:1021100019948230910538F0880F991F880F991F04
:1021200005970197F1F708958F929F92AF92BF9212
:10213000CF92DF92EF92FF926B017C010E94B24638
:102140004B015C01C114D104E104F104F1F00E94DF
:10215000B246DC01CB0188199909AA09BB09883E5E
:102160009340A105B10570F321E0C21AD108E1083E
:10217000F10888EE880E83E0981EA11CB11CC114E2
:10218000D104E104F10419F7DDCFFF90EF90DF9067
:10219000CF90BF90AF909F908F9008958FEF9FEF5B
:1021A000089581EC95E00E94670C8AE793E00E9415
:1021B000670C8FE593E00E94670C8FEE94E00E941D
:1021C000670C0E94B3070E94B50680E090E0089576
:1021D0000C9496530C9496530C9496530C949653DB
:1021E0000C9496530C9496530C9496530C949653CB
:1021F0000C9496530C9496530E94B3070E940F07B9
:1022000080E090E0089586EC95E00E94670C0E94C3
:10221000B3070E94710B0E94B3070E94C7060E9479
:10222000EB3540E050E068E070E00E9498340E9496
:10223000EB3540E050E069E070E00E9498340E9485
:10224000EB3540E050E06AE070E00E9498340E9474
:10225000EB3540E050E06DE070E00E94983480E0A3
:1022600090E008950F931F93CF93DF93FB0102A19A
:1022700013A1C68DD78D0E945F26C530D105E1F030
:1022800064F4249771F56DE070E089ED9DE00E94A3
:102290009D24B80189ED9DE022C0C630D105B1F082
:1022A0002B97F9F464E070E082EE9DE00E949D249B
:1022B000B80182EE9DE013C06BE070E08CED9DE014
:1022C0000E949D24B8018CED9DE009C06AE070E099
:1022D0008FED9DE00E949D24B8018FED9DE00E944E
:1022E0001A2480E090E0DF91CF911F910F91089523
:1022F000CF93DF93EC0186E390E09C8F8B8F87E395
:1023000090E09E8F8D8F86E290E098A38F8F8AE178
:1023100090E09AA389A38CE190E09CA38BA388E131
:1023200090E09EA38DA38FE390E098A78FA380E415
:1023300090E09AA789A7FE01E057FF4F8CE390E059
:10234000948783878DE390E09687858788E390E084
:10235000908B8787128A118A148A138A168A158AA3
:102360008EE090E0908F878B8FE090E0928F818F4E
:10237000E058FF4F8BE290E09487838780E390E002
:10238000968785878AE390E0908B8787128A118AE7
:10239000148A138A168A158A8CE090E0908F878BB6
:1023A00089E090E0928F818FEA5EFE4F1182108269
:1023B000329611821082329611821082CE010E94D2
:1023C0007226CE010E94C544FE01EB50FD4F808174
:1023D000918172974081518162817381E355F1400F
:1023E000DE01A352BD4F2D913C91358F248F448B3C
:1023F000558B668B778B019719F48FEF9FEF02C097
:1024000081E090E0978F868FFE01E950FD4F80813B
:10241000918170974081518162817381E952F140CD
:10242000DE01A152BD4F2D913C91358F248F448BFD
:10243000558B668B778B019719F48FEF9FEF02C056
:1024400081E090E0978F868FFE01E750FD4F8081FD
:1024500091813E974081518162817381EF5FF109E3
:10246000CF51DD4F28813981358F248F448B558B97
:10247000668B778B019719F48FEF9FEF02C081E095
:1024800090E0978F868FDF91CF9108952F923F92A2
:102490004F925F926F927F928F929F92AF92BF9274
:1024A000CF92DF92EF92FF920F931F93CF93DF9320
:1024B000CDB7DEB7C058D1090FB6F894DEBF0FBE56
:1024C000CDBF8C01FC011082118212821382148212
:1024D000158216821782108611861286138614863C
:1024E0001586168617864C01F0E18F0E911CC401EB
:1024F0000E94BC43580180E9A80EB11CC5010E948E
:10250000BC436801E0EFCE1AEEEFDE0AC6010E947E
:10251000BC437801F0E7EF1AFEEFFF0AC7010E9403
:10252000DB2E380182E4681A8EEF780AC3010E941C
:10253000DB2E2801E4E14E1AEEEF5E0AC2010E9492
:10254000DB2EC801865E9D4F0E949A0CF801E05E6A
:10255000FD4F1182108232961182108232961182C2
:102560001082329611821082329611821082329637
:10257000118210823296108231961082319610822A
:102580003196108211821282138234961082118247
:102590001282138234961082118212821382349630
:1025A000108211821282138234961082118212825A
:1025B0001382349610821182128213823496108212
:1025C0001182128213823496108211821282138237
:1025D00034961082118212821382349610821182F4
:1025E00012821382349610821182128213823496E0
:1025F00010821182128213823496108231961082D8
:102600003196108231961082118212821382349692
:1026100010821182128213823496108211821282E9
:102620001382349610823196108231961082319640
:102630001082319610823196108231961082319636
:102640001082319610823196108231961082319626
:102650001082319610823196108231961082319616
:102660001082319610823196108231961082319606
:1026700010823196108231961082319610823196F6
:102680001082319610821182128213823496108247
:102690001182128213823496108211821282138266
:1026A000D801AE56BD4F8CE0EEE6F3E001900D92FE
:1026B0008A95E1F7F801E256FD4F108211821282ED
:1026C0001382349610821182128213823496108201
:1026D00011821282138234961182108232961182F4
:1026E00010823296118210823296108211821282EA
:1026F00013823496108211821282138234961082D1
:1027000011821282138234961082118212821382F5
:1027100034961082118212821382349610821182B2
:1027200012821382349611821082329611821082A4
:102730003296118210823296108211821282138296
:102740003496108211821282138234961082118282
:102750001282138234961082319610823196108242
:102760003196118210823296118210823296118235
:102770001082329610821182128213823496108255
:102780001182128213823496108211821282138275
:102790003496118210823296118210823296118202
:1027A00010823296118210823296118210823296F5
:1027B000118210823296118210823296118210821A
:1027C0001801F1E02F1AFDEF3F0AF1011082CE014E
:1027D00001960E94BC4380E8FE013196D40101902D
:1027E0000D928A95E1F7CE0101960E94BC4380E8E4
:1027F000FE013196D50101900D928A95E1F7CE0147
:1028000001960E94BC4380E8FE013196D6010190FA
:102810000D928A95E1F788E5F801848BEC56FF4F1D
:1028200089E58083E058FF4F8AE58083CE010196D9
:102830000E94DB2E8EE2FE013196D70101900D92AF
:102840008A95E1F7CE0101960E94DB2E8EE2FE0111
:102850003196D30101900D928A95E1F7CE01019650
:102860000E94DB2E8EE2FE013196D20101900D9284
:102870008A95E1F7C8010E947811F1011082C058D1
:10288000DF4F0FB6F894DEBF0FBECDBFDF91CF9103
:102890001F910F91FF90EF90DF90CF90BF90AF907E
:1028A0009F908F907F906F905F904F903F902F9070
:1028B00008950F931F93CF93DF938B01EA0185E86F
:1028C00093E00E94670C84EC95E00E94670CF8018D
:1028D00084810E94C30CCE010E94C00D0E94B307E8
:1028E000DF91CF911F910F910C94B506CF92DF929B
:1028F000EF92FF920F931F93CF93DF93CDB7DEB785
:1029000028970FB6F894DEBF0FBECDBF8B016A01CA
:10291000865E9D4F7C0161E873E00E94A42364EC15
:1029200075E0C7010E94A423F801848189831A827B
:1029300041E050E08E010F5F1F4FB801C7010E94B8
:1029400046234AE0B801C6010E944E54F8010190A6
:102950000020E9F73197AF01401B510BB801C701C7
:102960000E9446230E94B307BC01C8010E94710661
:10297000B801C7010E94B32389819A810E949653AE
:1029800028960FB6F894DEBF0FBECDBFDF91CF9172
:102990001F910F91FF90EF90DF90CF900895FC0171
:1029A000DB01A759BF4F8C91882319F022E030E05A
:1029B00002C020E030E0DB01A559BF4F8C91882395
:1029C00011F023E030E0DB01A659BF4F8C91882342
:1029D00011F024E030E0DB01A459BF4F8C91882333
:1029E00011F026E030E0DA018D919C91281739072B
:1029F00021F091E0121613060CF090E0DA012D930D
:102A00003C93992321F0A901CF010C9476140895E9
:102A1000CF93DF938091BF0E9091C00E892B59F414
:102A200080E093E00E94FE52EC010E944612D09397
:102A3000C00EC093BF0E8091BF0E9091C00EDF916B
:102A4000CF9108954F925F926F927F928F929F9253
:102A5000AF92BF92CF92DF92EF92FF920F931F93AC
:102A6000CF93DF9300D01F92CDB7DEB70E94002E28
:102A70004090F6085090F7086090F8087090F908B8
:102A80000E94002E8090FA089090FB08A090FC080D
:102A9000B090FD080E94B307C090CE0ED090CF0E2C
:102AA000E090D00EF090D10E0E94B307C701B6019E
:102AB0000E9487586B017C01C301B2010E948758B4
:102AC0009B01AC01C701B6010E94A15A2B013C0138
:102AD0006091D20E7091D30E8091D40E9091D50E4C
:102AE0000E9487586B017C01C501B4010E94875880
:102AF0009B01AC01C701B6010E94A15A69837A8388
:102B00008B839C830E9408151F921F921F921F9215
:102B10001F92812C912CA12CB12CC12CD12C76018F
:102B200009811A812B813C81B301A2010E948B167D
:102B30000E9408151F921F921F921F921F929701C9
:102B40008601B301A2010E948B160E9408151F92F4
:102B50001F921F921F921F9297018601B701A60133
:102B60000E948B160FB6F894DEBF0FBECDBF80E07B
:102B700090E00F900F900F900F90DF91CF911F91E9
:102B80000F91FF90EF90DF90CF90BF90AF909F900C
:102B90008F907F906F905F904F9008954F925F92CB
:102BA0006F927F928F929F92AF92BF92CF92DF925D
:102BB000EF92FF920F931F93CF93DF9300D000D03B
:102BC000CDB7DEB7FB0126892D8387898E83828866
:102BD0009388A684B784C284D384E484F584468031
:102BE00057806084718482819381A481B5818983B7
:102BF0009A83AB83BC830E9408151F921F921F9279
:102C0000AE81AF93BD81BF939301820149815A8107
:102C10006B817C810E948B160F900F900F900F900C
:102C20000F9080E090E026960FB6F894DEBF0FBEBE
:102C3000CDBFDF91CF911F910F91FF90EF90DF906B
:102C4000CF90BF90AF909F908F907F906F905F904C
:102C50004F900895CF93DF93EB0120E030E040E800
:102C60005FE36A817B818C819D810E948058811104
:102C70000DC08DEC95E00E94670C0E9408158C5ADF
:102C80009F4FFC01108211821282138220E030E0FB
:102C900040E85FE36E817F81888599850E94805836
:102CA00081110DC08DED95E00E94670C0E94081502
:102CB0008C529F4FFC01108211821282138220E0FD
:102CC00030E040E85FE36A857B858C859D850E94C6
:102CD000805881110DC08DEE95E00E94670C0E9416
:102CE00008158C5A9E4FFC011082118212821382A9
:102CF0000E94B3070E94B50680E090E0DF91CF917B
:102D000008950895089508950895089508950895DB
:102D10000895089508952F923F924F925F926F9277
:102D20007F928F929F92AF92BF92CF92DF92EF925B
:102D3000FF920F931F93CF93DF93CDB7DEB7E39747
:102D40000FB6F894DEBF0FBECDBF3C014F8358874E
:102D500069877A87098B1A8B2B8B3C8BCD8ADE8A0D
:102D6000EF8AF88E2B960EAD1FAD2B970E94D7469B
:102D70006E8F7F8F88A399A30E94D746698F7A8F21
:102D80008B8F9C8FF301EC5DFD4F118210823B967F
:102D9000A114B10479F0C501A0E0B0E040815181F7
:102DA0006281738184179507A607B7072CF4AC01DD
:102DB000BD0102C040815181F301ED5CFD4F8114E2
:102DC000910479F0A12CB12C80819181A281B381F1
:102DD00088169906AA06BB0614F4D501C401BC01E5
:102DE00002C060817181F301E95CFD4F011511059D
:102DF00071F020E030E080819181A281B3810817D9
:102E000019072A073B072CF4D901C80102C08081A9
:102E100091819301205F3F4F3E872D878A0120E0FB
:102E200030E0F30106A717A720AB31AB1301F0E99F
:102E30002F0E311CAB0160E070E0F101468F578F1F
:102E400060A371A32301F0EF4F1AFEEF5F0AA0E029
:102E5000B0E0F201868F978FA0A3B1A3E257FE4F97
:102E60001082118212821382349610821182128291
:102E70001382349610821182128213823496118248
:102E800010823296118210823296118210820E9434
:102E9000B3078091CE0E9091CF0EA091D00EB0913D
:102EA000D10E4301F0E58F1AFDEF9F0AF4018083F4
:102EB0009183A283B3830E94B3078091D20E909135
:102EC000D30EA091D40EB091D50EF301EC54FD4F6A
:102ED00080839183A283B3830E94B3078091D60E2F
:102EE0009091D70EA091D80EB091D90EF301E8546D
:102EF000FD4F80839183A283B3835301FEE6AF1A13
:102F0000FDEFBF0AF50160817181828193810E948A
:102F100087582F81388549855A850E94E6580E9436
:102F2000135B8B019C01F4014081518162817381AB
:102F30002C96EFAC2C978D859E850E94B92F882307
:102F4000F1F08DE993E00E94670C8AED95E00E9414
:102F5000670CF301E85AFF4F608171818281938190
:102F6000F50120813181428153810E94BD59CA01FE
:102F7000B9010E94C80C0E94B3070E94B506630104
:102F8000FAE6CF1AFDEFDF0AF601608171818281D6
:102F900093810E94875829893A894B895C890E94CC
:102FA000E6580E94135B8B019C01F301EC54FD4F2A
:102FB00040815181628173812D96EFAC2D97C101C3
:102FC0000E94B92F8823F1F089E993E00E94670CF1
:102FD0008AEE95E00E94670CF301E852FF4F608192
:102FE000718182819381F6012081318142815381F7
:102FF0000E94BD59CA01B9010E94C80C0E94B307C2
:103000000E94B5066301F6E6CF1AFDEFDF0AF6016E
:1030100060817181828193810E9487582D893E89C8
:103020004F89588D0E94E6580E94135B8B019C01CA
:10303000F301E854FD4F40815181628173812E96E6
:10304000EFAC2E97C2010E94B92F8823F1F085E9D9
:1030500093E00E94670C8AEF95E00E94670CF301F1
:10306000E85AFE4F6081718182819381F60120814F
:103070003181428153810E94BD59CA01B9010E9428
:10308000C80C0E94B3070E94B506F301158AEB56DF
:10309000FF4F1082E058FF4F1082C3010E947D4411
:1030A000C3010E9481448D859E850E94B733C10172
:1030B0000E94B733C2010E94B73381E090E0F30170
:1030C000EA5DFD4F918380837301F8EDEF1AFDEF08
:1030D000FF0AF701918380838301065D1D4FF8018C
:1030E0009183808341E050E06D857E85C3010E941D
:1030F0007614F70140815181B101C3010E94761419
:10310000F80140815181B201C3010E94761481E02F
:10311000F301E150FD4F80838D859E850E94A42F91
:10312000C1010E94A42FC2010E94A42F64E670E096
:1031300080E090E00E9494102C96FFAD2C97F11146
:103140000EC02D962FAD2D97211105C02E963FADA7
:103150002E973323B1F0F301EB58FF4F10822D96D9
:103160004FAD2D97411104C0F301EB50FF4F10827A
:103170002E965FAD2E97511104C0F301EB58FE4F10
:1031800010828D859E850E944331C1010E9443318A
:10319000C2010E9443318D859E850E948530C10108
:1031A0000E948530C2010E9485300E94B307FC0155
:1031B00086858D8F18861F8293012B583F4F3A8B3F
:1031C000298BA3014B505F4F5E8B4D8BC3018B58F6
:1031D0009E4F988B8F87F301EA5DFD4FFDA3ECA313
:1031E0002D543E4F3FA32EA34B5C5E4F59A748A7DB
:1031F0008D5F91099BA38AA3EC54FF4FFBA7EAA71D
:103200002A553F4F3DA72CA74B535F4F5FA74EA7B3
:103210008C5B9D4F99AB88ABBA97FBABEAABE98966
:10322000FA89808181110AC0ED89FE89808181112E
:1032300005C0EF85F8898081882321F0FD8DFF236B
:1032400009F4EBC08301025E1D4FF801808191817A
:10325000892B21F0C3010E941041F7CF82E296E052
:103260000E94670C2C96FFAD2C97FF23F9F02F815D
:103270003885232B09F041C03D8D311124C081E9EF
:1032800093E00E94670C0E94B3070E94B5062D963A
:103290004FAD2D97442309F495C48DE893E00E9427
:1032A000670C0E94B3070E94B5068CC42D968FADA3
:1032B0002D97882369F0EF81F885EF2B19F5FD8DA7
:1032C000F11120C0EACF2D963FAD2D9731111AC0D4
:1032D0002E962FAD2E972223A9F04F815885452B8E
:1032E00089F45D8D51110EC089E893E00E94670C4E
:1032F0000E94B3070E94B50605C02D964FAD2D97CD
:10330000442331F343018AED881A8DEF980A85E052
:1033100090E0F401918380835301F8EDAF1AFDEF43
:10332000BF0AF501918380838301065D1D4FF8017B
:103330009183808345E050E06D857E85C3010E94C6
:103340007614F50140815181B101C3010E947614C8
:10335000F80140815181B201C3010E947614F3014A
:10336000E150FD4F1082EE58F1098081811104C0B7
:103370008D859E850E94902FF301EE58FD4F808130
:10338000811103C0C1010E94902FF301ED58FD4F40
:103390008081811103C0C2010E94902F64E670E019
:1033A00080E090E00E949410C3010E948544C30114
:1033B0000E947D44C3010E9481440E94B3070E9481
:1033C0000F07F40111821082F50111821082F801B9
:1033D0001182108240E050E06D857E85C3010E941D
:1033E0007614F50140815181B101C3010E94761428
:1033F000F80140815181B201C3010E947614FD8D14
:10340000FF2309F4E6C30E94B30721E0FC012687ED
:1034100021E030E038872F83DCC34CA15DA16D85AE
:103420007E85C3010E94CF144EA15FA1B101C301EB
:103430000E94CF1448A559A5B201C3010E94CF1420
:10344000EAA1FBA180818823E1F08D859E850E9401
:1034500043318AA49BA4ACA4BDA4CEA4DFA4E8A855
:10346000F9A80AA91BA9930122563D4FA301405771
:103470005E4F6D857E85C3010E942B2CEAA1FBA1C6
:103480001082930128503F4F3C872B87F9018081A0
:10349000882339F1C1010E9443314301F5E28F1ABB
:1034A000FDEF9F0A53012EE2A21A2DEFB20A63012B
:1034B0003FE0C31A3DEFD30A730140E4E41A4DEF35
:1034C000F40A83010C541D4F93012E553D4FA30167
:1034D00042545E4FB101C3010E942B2CEB85FC8549
:1034E0001082930128583E4F3C872B87F901808139
:1034F000882339F1C2010E9443314301F4E28F1A5B
:10350000FDEF9F0A53012AE2A21A2DEFB20A6301CE
:103510003DE0C31A3DEFD30A73014CE3E41A4DEFCB
:10352000F40A830108541D4F93012A553D4FA3010E
:1035300044515E4FB201C3010E942B2CEB85FC85E8
:103540001082E989FA8980818823D1F1F301E85357
:10355000FD4F60817181072E000C880B990B0E9432
:1035600087589B01AC01F301E256FD4F60817181E8
:10357000828193810E94495B181614F5E989FA89C2
:10358000108260EF74E08301065E1D4FC8010E9447
:10359000A4236BE376E0C8010E94A4236DEE74E0DF
:1035A000C8010E94A4232C96FFAD2C97FF2309F499
:1035B00082C1F301EC5AFF4F1082118212821382F2
:1035C000ED89FE8980818823D1F1F301E653FD4F17
:1035D00060817181072E000C880B990B0E9487581F
:1035E0009B01AC01F301EE55FD4F60817181828139
:1035F00093810E94495B181614F5ED89FE891082AB
:1036000060EF74E08301065E1D4FC8010E94A42391
:1036100063E676E0C8010E94A4236DEE74E0C80161
:103620000E94A4232D96FFAD2D97FF2309F448C1D6
:10363000F301EC52FF4F1082118212821382EF8548
:10364000F88980818823D1F1F301E453FD4F608133
:103650007181072E000C880B990B0E9487589B01E3
:10366000AC01F301EA55FD4F608171818281938144
:103670000E94495B181614F5EF85F889108260EFF7
:1036800074E08301065E1D4FC8010E94A4236BE80D
:1036900076E0C8010E94A4236DEE74E0C8010E9488
:1036A000A4232E96FFAD2E97FF2309F40EC1F3013C
:1036B000EC5AFE4F1082118212821382F301EA58F3
:1036C000FF4F60818D859E850E943230882351F0A6
:1036D000F301EC5AFF4F1082118212821382E989A2
:1036E000FA891082F301EA50FF4F6081C1010E9404
:1036F0003230882351F0F301EC52FF4F10821182D7
:1037000012821382ED89FE891082F301EA58FE4F7E
:103710006081C2010E943230882351F0F301EC5ADB
:10372000FE4F1082118212821382EF85F889108277
:10373000C3010E948544C3010E947D44E989FA893E
:1037400080818823E9F00E94D7464B015C012E8DD1
:103750003F8D48A159A1821A930AA40AB50AF30120
:10376000EA57FD4F2081318142815381A8EEB3E0B9
:103770000E94DC59681579058A059B0508F4AAC0E2
:10378000ED89FE8980818823E9F00E94D7464B01AC
:103790005C012E8D3F8D48A159A1821A930AA40A7B
:1037A000B50AF301E657FD4F2081318142815381F3
:1037B000A8EEB3E00E94DC59681579058A059B05DF
:1037C00008F4A2C0EF85F88980818823E9F00E947F
:1037D000D7464B015C012E8D3F8D48A159A1821A1D
:1037E000930AA40AB50AF301E257FD4F2081318103
:1037F00042815381A8EEB3E00E94DC596815790537
:103800008A059B0508F49AC089EA9CE00E94761E0E
:10381000181619063CF589EA9CE00E94541E8F7D1B
:1038200085349105F9F46DEF75E0C301865E9D4F17
:103830000E94A42385EA93E00E94670C0E94B307CC
:103840000E94B506E989FA891082ED89FE89108205
:10385000EF85F8891082F1E0FD8F21E030E03887B4
:103860002F8304C04F815885452B39F062E176E003
:10387000C301865E9D4F0E94A423C3010E94104194
:103880000E94D746DC01CB01298D3A8D4B8D5C8D92
:10389000821B930BA40BB50B8B3F9105A105B105C2
:1038A00008F4BDCCF301E25EFD4F80819181892B4C
:1038B00009F45EC0B4CC2FE130E038872F8380CE8E
:1038C00020E230E038872F83BACE21E230E038871B
:1038D0002F83F4CEE989FA89108261EB73E08301CA
:1038E000065E1D4FC8010E94A4236DEE74E0C8015E
:1038F0000E94A42363EB76E0C8010E94A42322E087
:1039000030E038872F833CCFED89FE8910826DEA45
:1039100073E08301065E1D4FC8010E94A4236DEE73
:1039200074E0C8010E94A42368EC76E0C8010E94FC
:10393000A42322E030E038872F8344CFEF85F88935
:10394000108269EA73E08301065E1D4FC8010E9480
:10395000A4236DEE74E0C8010E94A4236DED76E00F
:10396000C8010E94A42322E030E038872F834CCF87
:10397000F301EC5DFD4F808191818130910509F06B
:10398000F0C00E94B3078C01FC0180819181A2816B
:10399000B381181619061A061B0644F081E090E060
:1039A000A0E0B0E080839183A283B383F801848197
:1039B0009581A681B781181619061A061B0644F0D0
:1039C00081E090E0A0E0B0E084839583A683B78394
:1039D000F80180859185A285B385181619061A0607
:1039E0001B0644F081E090E0A0E0B0E08087918782
:1039F000A287B387CE0101960E949A0C6DEA75E00A
:103A0000CE0101960E94A4236AED75E0CE010196D5
:103A10000E94A4236091CE0E7091CF0E8091D00EA3
:103A20009091D10E0E9487586B017C01F801608152
:103A30007181828193810E9487589B01AC01C701EB
:103A4000B6010E94A15AAB01BC01CE0101960E94B1
:103A5000690C6AEE75E0CE0101960E94A423609184
:103A6000D20E7091D30E8091D40E9091D50E0E94FB
:103A700087586B017C01F80164817581868197818B
:103A80000E9487589B01AC01C701B6010E94A15A50
:103A9000AB01BC01CE0101960E94690C6AEF75E092
:103AA000CE0101960E94A4236091D60E7091D70E8C
:103AB0008091D80E9091D90E0E9487586B017C019D
:103AC000F80160857185828593850E9487589B01E6
:103AD000AC01C701B6010E94A15AAB01BC01CE01E5
:103AE00001960E94690CBE016F5F7F4F8301065EE5
:103AF0001D4FC8010E94B32389819A810E94965369
:103B00000AC0892BC9F461EA73E08301065E1D4F88
:103B1000C8010E94A4230E94B307BC01CE010196F4
:103B20000E947106BE016F5F7F4FC8010E94B323E0
:103B300089819A810E949653F301EC5DFD4F80814B
:103B400091810196833091051CF49183808302C09A
:103B5000118210820E94D746698F7A8F8B8F9C8F3B
:103B60005ECB8230910569F66EE176E08301065EF8
:103B70001D4FC8010E94A4236AED75E0C8010E9490
:103B8000A4238D859E850E94DB33BC01C8010E9461
:103B900074236AEE75E0C8010E94A423C1010E944B
:103BA000DB33BC01C8010E9474236AEF75E0C801D1
:103BB0000E94A423C2010E94DB33BC01C8010E9401
:103BC0007423A9CF2E965FAD2E97552309F49ACB77
:103BD0008BCB80E396E00E94670C8F8198850E94D2
:103BE000C00D8DEE94E00E94670C0E94B3074F81D8
:103BF00058855093150840931408CA01E3960FB6F0
:103C0000F894DEBF0FBECDBFDF91CF911F910F9112
:103C1000FF90EF90DF90CF90BF90AF909F908F90EC
:103C20007F906F905F904F903F902F900895CF922C
:103C3000DF92EF92FF920F931F93CF93DF936C016C
:103C40007A018B01C0E0D0E0CE15DF0581F0D8010C
:103C50006D918D01D601ED91FC910190F081E02DE7
:103C6000C6011995892B11F02196EECF7E01C7016F
:103C7000DF91CF911F910F91FF90EF90DF90CF9048
:103C80000895089580E090E00895FC01538D448DDF
:103C9000252F30E0842F90E0821B930B541710F0F7
:103CA000CF96089501970895FC01918D828D981704
:103CB00061F0828DDF01A80FB11D5D968C91928D10
:103CC0009F5F9F73928F90E008958FEF9FEF08950D
:103CD000FC01918D828D981731F0828DE80FF11DD6
:103CE000858D90E008958FEF9FEF0895FC01918DF1
:103CF000228D892F90E0805C9F4F821B91098F73EA
:103D00009927089589EA9CE00E94761E21E0892B7C
:103D100009F420E0822F0895FC01848DDF01A80FB3
:103D2000B11DA35ABF4F2C91848D90E001968F73E3
:103D30009927848FA689B7892C93A089B1898C9102
:103D4000837080648C93938D848D981306C0028851
:103D5000F389E02D80818F7D80830895EF92FF921B
:103D60000F931F93CF93DF93EC0181E0888F9B8D9E
:103D70008C8D981305C0E889F989808185FD26C05E
:103D8000F62E0B8D10E00F5F1F4F0F731127E02EE3
:103D90008C8DE8120CC00FB607FCFACFE889F989C0
:103DA000808185FFF5CFCE010E948C1EF1CF8B8DD7
:103DB000FE01E80FF11DE35AFF4FF0829FB7F89420
:103DC0000B8FEA89FB89808180620AC09FB7F894D3
:103DD000EE89FF896083E889F98980818370806436
:103DE00080839FBF81E090E0DF91CF911F910F9181
:103DF000FF90EF900895CF93DF93EC01888D882397
:103E0000C9F0EA89FB89808185FD05C0A889B98947
:103E10008C9186FD0FC00FB607FCF5CF808185FF22
:103E2000F2CFA889B9898C9185FFEDCFCE010E9490
:103E30008C1EE7CFDF91CF91089580E090E0892B31
:103E400021F00E94821E811125C080E090E0892B24
:103E500041F080E090E0892B21F00E940000811168
:103E60001CC080E090E0892B41F080E090E0892B3D
:103E700021F00E940000811113C080E090E0892BA6
:103E8000A1F080E090E0892B81F00E940000811178
:103E90000AC008950E940000D8CF0E940000E1CF20
:103EA0000E940000EACF0C9400000895CF93DF93A6
:103EB000FC01A585B6859C918085809589238C938E
:103EC00027E030E080E0C62FD0E0722FA185B285D8
:103ED0009681AE01022E02C0559547950A94E2F7ED
:103EE00040FF03C04C91942B03C04C9190959423B8
:103EF0009C93A585B6854C919085942B9C93A38526
:103F0000B4854C919781942341E050E011F440E056
:103F100050E001C0440F7A95EAF7842BA585B68559
:103F20004C919085909594239C932150310969F68A
:103F3000A185B28596812C9160FF02C0922B02C0B0
:103F4000909592239C93A585B6852C919085922B74
:103F50009C93A385B4852C919781922321E009F449
:103F600020E0822BDF91CF9108950F931F93CF9381
:103F7000DF938C01D62F672F0E94561FC82F6D2FFD
:103F8000C8010E94561F2C2F30E0322F2227A90192
:103F9000482BCA01DF91CF911F910F910895089589
:103FA0000CB405FC0DC09EBD00000DB407FEFDCF96
:103FB0009EB58EBD00000DB407FEFDCF8EB50895F1
:103FC0008EBD00000DB407FEFDCF8EB59EBD000076
:103FD0000DB407FEFDCF9EB508958EBD00000DB453
:103FE00007FEFDCF8EB508958CBD9DBD0895DC0103
:103FF000ED91FC910280F381E02D6FE619946F70D2
:10400000DC0195962C919597207F622B95966C9369
:10401000959792962D913D914D915C919597ED914B
:10402000FC910190F081E02D6CE61994DC019496EE
:104030002C91949760FB21F994962C9394979296E7
:104040002D913D914D915C919597ED91FC91019051
:10405000F081E02D6CE61994DC0193968C91939796
:1040600060FB87F993968C9393976695617094960D
:104070008C9194978E7F682B94966C9394979296DC
:104080002D913D914D915C919597ED91FC911197FA
:104090000190F081E02D6CE6CD011994DC0192963F
:1040A0008C91929760FB87F992968C939297669584
:1040B000677093968C919397887F682B93966C93F7
:1040C000939792962D913D914D915C919597ED919D
:1040D000FC9111970190F081E02D6CE6CD011994CF
:1040E000DC016770962F9295907F92966C919297D3
:1040F0006F78692B92966C93929792962D913D9141
:104100004D915C919597ED91FC9111970190F08103
:10411000E02D6CE6CD0119940E94385C4F925F92BD
:104120006F927F928F929F92AF92BF92FF920F9366
:104130001F93CF93DF931F921F92CDB7DEB78C01F1
:1041400049015A016068F62EFC0183A994A9250152
:1041500066247724892B99F160E0C8010E94810FC1
:104160006F2DF80183A994A90E94561FF801818B35
:10417000B20183A994A90E94B51FB401F80183A9D3
:1041800094A90E94B51FFF24F394F80185A9F8169D
:104190000CF043C060E070E083A994A90E94B51FB1
:1041A00060E070E0F80183A994A90E94B51F60E067
:1041B000F80183A994A90E94561FF394E6CF40E822
:1041C00054E86EE170E0CE0101960E94F90E8981FB
:1041D0009A810E94F41F60E0C8010E94810F8F2D18
:1041E0000E94ED1FF801818BC2010E94D01FC40103
:1041F0000E94D01FFF24F394F80185A9F8166CF4EF
:1042000080E090E00E94D01F80E090E00E94D01FEC
:1042100080E00E94ED1FF394EFCF61E0C8010E949F
:10422000810F0F900F90DF91CF911F910F91FF9011
:10423000BF90AF909F908F907F906F905F904F90C6
:104240000895CF92DF92EF92FF920F931F93CF9337
:10425000DF931F921F92CDB7DEB78C01E62EFC01D3
:1042600083A994A9892B09F484C060E0C8010E9445
:10427000810F6E2DF80183A994A90E94561F60E05A
:1042800070E0F80183A994A90E94B51F60E070E076
:10429000F80183A994A90E94B51FFF24F394F801A3
:1042A00085A9F816ACF460E070E083A994A90E9497
:1042B000B51F60E070E0F80183A994A90E94B51FC2
:1042C00060E0F80183A994A90E94561FF394E7CFF8
:1042D00061E0C8010E94810F60E0C8010E94810F67
:1042E0002091A80CF80183A994A9F2169CF460E02F
:1042F00070E00E94B51F60E070E0F80183A994A906
:104300000E94B51F60E0F80183A994A90E94561F7E
:10431000F394E6CF6E2D0E94561FF801818B60E06A
:1043200083A994A90E94561FC82ED12CE12CF12CF0
:10433000FE2CED2CDC2CCC2460E0F80183A994A9A0
:104340000E94561FC82AFE2CED2CDC2CCC2460E0E9
:10435000F80183A994A90E94561FC82AFE2CED2CAF
:10436000DC2CCC2460E0F80183A994A90E94561F9C
:104370006AC040E854E86EE170E0CE0101960E9408
:10438000F90E89819A810E94F41F60E0C8010E94A1
:10439000810F8E2D0E94ED1F80E090E00E94D01FC3
:1043A00080E090E00E94D01FFF24F394F80185A9DB
:1043B000F8166CF480E090E00E94D01F80E090E05E
:1043C0000E94D01F80E00E94ED1FF394EFCF61E0C8
:1043D000C8010E94810F60E0C8010E94810F809196
:1043E000A80CF8166CF480E090E00E94D01F80E0EA
:1043F00090E00E94D01F80E00E94ED1FF394EFCF69
:104400008E2D0E94ED1FF801818B80E00E94ED1F30
:10441000C82ED12CE12CF12CFE2CED2CDC2CCC2444
:1044200080E00E94ED1FC82AFE2CED2CDC2CCC2451
:1044300080E00E94ED1FC82AFE2CED2CDC2CCC2441
:1044400080E00E94ED1FC82A61E0C8010E94810F30
:10445000C701B6010F900F90DF91CF911F910F917F
:10446000FF90EF90DF90CF9008950E94F10E892F7A
:104470008F7008950E94F10E8695817008950E94B4
:10448000F10E771F7727771F8170880F872B08958C
:104490000E94F10E862F881F8827881F7770770F5C
:1044A000872B08950E94F10E862F829587700895BC
:1044B000CF92DF92EF92FF920F931F93CF93DF93F0
:1044C0006C018B017A01EC01CC53D14F888187FFBD
:1044D00004C0FB011182108224C02CE02C9DC0017D
:1044E0002D9D900D11242881AC01420F511D27FDF7
:1044F0005A952091D80D30E04217530794F4288143
:10450000AC01420F511D27FD5A959A01FA01EE0F99
:10451000FF1F2E0F3F1FF901E85BF24F208126FDA0
:1045200019C088818F5F88832CE02C9DC0012D9D50
:10453000900D11242881AC01420F511D27FD5A9581
:104540002091D80D30E042175307BCF428812C305D
:1045500044F113C02881820F911D27FD9A95FC011B
:10456000EE0FFF1F8E0F9F1FFC01E85BF24F808153
:1045700060E08F730E94520FD4CFF8018081918147
:10458000049680349C4918F480E49CE904C0F80146
:10459000808191810496F701918380838FEF8883D6
:1045A00045C0F801408151812881BC01620F711D15
:1045B00027FD7A959B01FB01EE0FFF1F2E0F3F1F7A
:1045C000F901E85BF24F21813281240F351FF70199
:1045D000318320832881AC01420F511D27FD5A955C
:1045E0009A01FA01EE0FFF1F2E0F3F1FF901E85B42
:1045F000F24F208126FF1AC02881820F911D27FDCE
:104600009A95FC01EE0FFF1F8E0F9F1FFC01E85BC8
:10461000F24F808161E08F73DF91CF911F910F91F5
:10462000FF90EF90DF90CF900C94520FDF91CF91DD
:104630001F910F91FF90EF90DF90CF9008950F930F
:104640001F93CF93DF93EC0188819981009729F024
:104650002A813B812617370788F48B016F5F7F4FD4
:104660000E94535B009761F0998388831B830A83C0
:104670002C813D81232B11F4FC01108281E001C0CB
:1046800080E0DF91CF911F910F910895EF92FF92FB
:104690000F931F93CF93DF936115710511F480E0A1
:1046A0001CC041155105C1F07B01EC018C819D813D
:1046B0008A01080F191FB801CE010E941F23882309
:1046C00071F3288139818C819D81B701820F931FFD
:1046D0000E944F5C1D830C8381E0DF91CF911F917D
:1046E0000F91FF90EF900895EF92FF920F931F9319
:1046F000CF93DF93CDB7DEB727970FB6F894DEBF21
:104700000FBECDBF7C01CB014AE08E010F5F1F4F72
:10471000B8010E948A54F80101900020E9F731970E
:10472000AF01401B510BB801C7010E9446232796D9
:104730000FB6F894DEBF0FBECDBFDF91CF911F91B2
:104740000F91FF90EF9008956115710551F0FB01F5
:1047500001900020E9F73197AF01461B570B0C94ED
:10476000462380E00895FB01448155816081718179
:104770000C9446231F920F920FB60F9211240BB682
:104780000F922F933F934F935F936F937F938F93EA
:104790009F93AF93BF93EF93FF9389EA9CE00E94AE
:1047A0008C1EFF91EF91BF91AF919F918F917F915F
:1047B0006F915F914F913F912F910F900BBE0F9092
:1047C0000FBE0F901F9018951F920F920FB60F9269
:1047D00011240BB60F922F938F939F93EF93FF9318
:1047E000E091B90CF091BA0C8081E091BF0CF0918E
:1047F000C00C82FD12C090818091C20C8F5F8F73BC
:104800002091C30C821751F0E091C20CF0E0E75503
:10481000F34F958F8093C20C01C08081FF91EF917F
:104820009F918F912F910F900BBE0F900FBE0F9005
:104830001F901895CF92DF92EF92FF92CF93DF9364
:10484000EC01603282E078070CF03DC077FD06C0D5
:10485000653B71052CF064EB70E002C060E070E035
:10486000898128E830E06901C81AD10887FDD3940E
:10487000CC0CDD1CCC0CDD1C0D2C000CEE08FF0854
:104880008A8128E532E0281B310987FD3395220F04
:10489000331F220F331FC901330FAA0BBB0B9C011F
:1048A000AD012C193D094E095F09DB010E94E75952
:1048B00024EB30E040E050E00E94BD59C20ED31E10
:1048C000E41EF51EB6013881303380F5298188E871
:1048D00090E0821B910927FD9395880F991F880FFF
:1048E000991F6817790784F08A8148E552E0481BD0
:1048F000510987FD5395440F551F440F551FCB0198
:10490000461757070CF4CA010297880F991F4FB733
:10491000F894232F30E0F901EE0FFF1F2E0F3F1FF9
:10492000F901E85BF24F928381834FBFDF91CF9112
:10493000FF90EF90DF90CF9008951F93CF93DF9378
:10494000EC01162F8881803308F04EC061E0812F82
:104950000E94850F8881E82FF0E09F01220F331F0E
:10496000E20FF31FE85BF24F1F739081907C192BCD
:10497000108319821A826CE00E94205A9CE0899F61
:10498000B001112440E050E09B01240F351FF901D4
:10499000EE0FFF1F2E0F3F1FF901E85BF24F9081D2
:1049A00096FD16C04F5F5F4F4C30510569F781305F
:1049B00001F51092800082E08093810010928500C2
:1049C00010928400B19A80916F00826080936F0092
:1049D000E881F0E0CF01880F991FE80FF91FE85B2D
:1049E000F24F8081806480838881DF91CF911F9115
:1049F0000895823061F4109290008093910010929B
:104A000095001092940088BB80937100E1CF8330B1
:104A100069F41092A00082E08093A1001092A5009A
:104A20001092A40089BB80937200D2CF8111D0CFA5
:104A30001092200182E080932101109225011092B2
:104A400024018ABB80937300C3CF1F920F920FB6CD
:104A50000F9211240BB60F922F933F934F935F93B6
:104A60006F937F938F939F93AF93BF93EF93FF9336
:104A700048E251E064E271E080E090E00E94582258
:104A8000FF91EF91BF91AF919F918F917F916F9126
:104A90005F914F913F912F910F900BBE0F900FBEE2
:104AA0000F901F9018951F920F920FB60F9211241E
:104AB0000BB60F922F933F934F935F936F937F9318
:104AC0008F939F93AF93BF93EF93FF9348EA50E088
:104AD00064EA70E083E090E00E945822FF91EF9139
:104AE000BF91AF919F918F917F916F915F914F9106
:104AF0003F912F910F900BBE0F900FBE0F901F9004
:104B000018951F920F920FB60F9211240BB60F92A9
:104B10002F933F934F935F936F937F938F939F93C5
:104B2000AF93BF93EF93FF9348E950E064E970E0DF
:104B300082E090E00E945822FF91EF91BF91AF91E7
:104B40009F918F917F916F915F914F913F912F91A5
:104B50000F900BBE0F900FBE0F901F9018951F92D5
:104B60000F920FB60F9211240BB60F922F933F9313
:104B70004F935F936F937F938F939F93AF93BF9365
:104B8000EF93FF9348E850E064E870E081E090E044
:104B90000E945822FF91EF91BF91AF919F918F9109
:104BA0007F916F915F914F913F912F910F900BBE2D
:104BB0000F900FBE0F901F9018951F920F920FB677
:104BC0000F9211240BB60F92EF92FF920F931F9347
:104BD0002F933F934F935F936F937F938F939F9305
:104BE000AF93BF93CF93DF93EF93FF938091C30E67
:104BF000811123C081E08093C30E0E940815EC014F
:104C00007C0180E1E80EF11CC7010E9430318E0169
:104C100000571F4FC8010E943031C05FDE4FCE01E8
:104C20000E943031C7010E94ED30C8010E94ED3072
:104C3000CE010E94ED301092C30EFF91EF91DF91F3
:104C4000CF91BF91AF919F918F917F916F915F9124
:104C50004F913F912F911F910F91FF90EF900F90E7
:104C60000BBE0F900FBE0F901F9018951F920F92C2
:104C70000FB60F9211240BB60F922F933F934F93C1
:104C80005F936F937F938F939F93AF93BF93EF93B4
:104C9000FF93E0E0F0E01995FF91EF91BF91AF91A4
:104CA0009F918F917F916F915F914F913F912F9144
:104CB0000F900BBE0F900FBE0F901F901895809114
:104CC000C10E9091C20E892B41F481E090E00E94C8
:104CD000FE529093C20E8093C10E8091C10E9091AE
:104CE000C20E08952F923F924F925F926F927F92E1
:104CF0008F929F92AF92BF92CF92DF92EF92FF92EC
:104D00000F931F93CF93DF93CDB7DEB765970FB6A1
:104D1000F894DEBF0FBECDBF8C010E94002EF801BB
:104D2000E45DFD4F81E04091E6085091E708609115
:104D3000E8087091E908452B462B472B09F480E0E1
:104D400080830E94002EF801E35DFD4F81E04091D9
:104D5000EA085091EB086091EC087091ED08452B42
:104D6000462B472B09F480E080830E94002EF80137
:104D7000E25DFD4F81E04091EE085091EF086091B7
:104D8000F0087091F108452B462B472B09F480E081
:104D900080830E94002E8091360990913709A0915E
:104DA0003809B0913909F801E15DFD4F80839183A5
:104DB000A283B3830E94002E80913A0990913B090F
:104DC000A0913C09B0913D09F801ED5CFD4F808355
:104DD0009183A283B3830E94002E80913E0990911B
:104DE0003F09A0914009B0914109F801E95CFD4FEC
:104DF00080839183A283B3830E94002E80910E0949
:104E000090910F09A0911009B0911109F801E55C8A
:104E1000FD4F80839183A283B3830E94002E8091F3
:104E2000120990911309A0911409B0911509F80184
:104E3000E15CFD4F80839183A283B3830E94002EA7
:104E40008091160990911709A0911809B09119093C
:104E5000F801ED5BFD4F80839183A283B3830E94B1
:104E6000002E80911E0990911F09A0912009B091F8
:104E70002109F801E95BFD4F80839183A283B3830D
:104E80000E94002E8091220990912309A09124096B
:104E9000B0912509F801E55BFD4F80839183A283E2
:104EA000B3830E94002E8091260990912709A0913A
:104EB0002809B0912909F801E15BFD4F80839183B6
:104EC000A283B3830E94002E8091BE089091BF08F8
:104ED000A091C008B091C108F801ED5AFD4F808340
:104EE0009183A283B3830E94002E8091C208909187
:104EF000C308A091C408B091C508F801E95AFD4F54
:104F000080839183A283B3830E94002E8091C60880
:104F10009091C708A091C808B091C908F801E55A56
:104F2000FD4F80839183A283B3830E94002EF801FA
:104F3000E15AFD4F81E02091960830919708213089
:104F4000310509F080E080830E94002EF801E05ACC
:104F5000FD4F81E020919A0830919B082130310566
:104F600009F080E080830E94002EF801EF59FD4F88
:104F700081E020919E0830919F082130310509F091
:104F800080E080830E94002EF801E358FD4F81E00D
:104F900040916E0850916F0860917008709171088F
:104FA000452B462B472B09F480E080830E94002E7E
:104FB000F801E258FD4F81E040917208509173086A
:104FC0006091740870917508452B462B472B09F4A6
:104FD00080E080830E94002EF801E158FD4F81E0BF
:104FE000409176085091770860917808709179081F
:104FF000452B462B472B09F480E080830E94002E2E
:10500000F801E058FD4F81E0409146095091470971
:105010006091480970914909452B462B472B09F4AB
:1050200080E080830E94002EF801EF57FD4F81E061
:1050300040914A0950914B0960914C0970914D097A
:10504000452B462B472B09F480E080830E94002EDD
:10505000F801EE57FD4F81E040914E0950914F0904
:105060006091500970915109452B462B472B09F44B
:1050700080E080830E94002EF801ED57FD4F81E013
:1050800020917E0830917F082130310509F080E0C1
:1050900080830E94002EF801EC57FD4F81E02091A3
:1050A0008208309183082130310509F080E0808347
:1050B0000E94002EF801EB57FD4F81E020918608F9
:1050C000309187082130310509F080E080830E940B
:1050D000002E8091460890914708A0914808B09111
:1050E0004908F801EA57FD4F80839183A283B38377
:1050F0000E94002E80914A0890914B08A0914C0884
:10510000B0914D08F801E657FD4F80839183A2834B
:10511000B3830E94002E80914E0890914F08A09179
:105120005008B0915108F801E257FD4F80839183F8
:10513000A283B3830E94002EF801EF58FD4F81E057
:10514000409156085091570860915808709159083D
:10515000452B462B472B09F480E080830E94002ECC
:10516000F801EE58FD4F81E040915A0850915B08DC
:1051700060915C0870915D08452B462B472B09F424
:1051800080E080830E94002EF801ED58FD4F81E001
:1051900040915E0850915F086091600870916108CD
:1051A000452B462B472B09F480E080830E94002E7C
:1051B00080914E0A90914F0AA091500AB091510AE5
:1051C000F801EE59FD4F80839183A283B3830E943F
:1051D000002E8091520A9091530AA091540AB091E6
:1051E000550AF801EA59FD4F80839183A283B38366
:1051F0000E94002E8091560A9091570AA091580A59
:10520000B091590AF801E659FD4F80839183A2833A
:10521000B3830E94002EF801EC58FD4F81E02091ED
:10522000AE083091AF082130310509F080E080836D
:10523000F801EB58FD4F1082319610820E94002E2B
:10524000F801E958FD4F81E02091AA083091AB08A0
:105250002130310509F080E08083F801E858FD4FE6
:105260001082319610820E94002EF801E658FD4F00
:1052700081E02091CE083091CF082130310509F02E
:1052800080E080830E94002EF801E558FD4F81E008
:105290002091D2083091D3082130310509F080E007
:1052A00080830E94002EF801E458FD4F81E0209198
:1052B000D6083091D7082130310509F080E080838D
:1052C0000E94002EF801E259FD4F81E020915E0A14
:1052D00030915F0A2130310509F080E080830E941F
:1052E000002EF801E159FD4F81E02091620A3091D2
:1052F000630A2130310509F080E080830E94002E8E
:10530000F801E059FD4F81E02091660A3091670A6B
:105310002130310509F080E080830E94002E3801A1
:105320002EE6621A2DEF720A8091F6089091F70826
:10533000A091F808B091F908F30180839183A283CA
:10534000B3830E94002E5801FAE6AF1AFDEFBF0AA0
:105350008091FA089091FB08A091FC08B091FD089B
:10536000F50180839183A283B3830E94002E8091F4
:10537000FE089091FF08A0910009B09101099801E1
:1053800026563D4FF90180839183A283B383F301B5
:105390004081518162817381141615061606170625
:1053A00044F041E050E060E070E04083518362836C
:1053B0007383F50140815181628173811416150652
:1053C0001606170644F041E050E060E070E04083CC
:1053D000518362837383181619061A061B064CF054
:1053E00081E090E0A0E0B0E0F90180839183A283A6
:1053F000B383D901CD90DD90ED90FC90F5018080D4
:105400009180A280B380D3014D905D906D907C908F
:105410000E94B307FC0140825182628273828482BF
:105420009582A682B782C086D186E286F386F8018D
:10543000E259FD4FB081B9833C9780819181A2816F
:10544000B3818A8B9B8BAC8BBD8B789690819E832E
:10545000399630803F97A081AA873396208039966D
:10546000B081BF87339720812B877E973081F39758
:105470002081E65AFF4F4081518162817381F39709
:10548000C080D180E280F3803C9780809180A280B0
:10549000B3803C9740805180628073803C978081CC
:1054A0009181A281B381F80186A797A7A0ABB1AB88
:1054B00042AA53AA64AA75AA86AA97AAA0AEB1AEB8
:1054C000C2AED3AEE4AEF5AEFE96408351836283A6
:1054D000738334962083319630832B85F80123A77C
:1054E0008F8584A735A6EA5BFF4F80E490E0A0E0BB
:1054F000B0E080839183A283B38332972082319678
:105500009A8590833596AE81A08331968A899B894E
:10551000AC89BD8980839183A283B38334969981BA
:105520009083E05EFD4FA081A983399780819181AE
:10553000A281B3818E839F83A887B9877596908156
:105540009A873996A081AA833F97B081BB8733960B
:1055500020812F8739962080339730807E97308145
:10556000F3972081E35AFF4F80819181A281B3811B
:10557000F39740815181628173813C97C080D180D3
:10558000E280F3803C9780809180A280B380EF5AC4
:10559000F140F98BE88BED55FE4F408051806280E1
:1055A0007380E889F989468E578E60A271A282A223
:1055B00093A2A4A2B5A2C6A2D7A2E0A6F1A642A732
:1055C00053A764A775A786A797A7A0ABB1AB22ABDB
:1055D00033AB338E248E2A81258F80E490E0A0E0C7
:1055E000B0E086AB97ABA0AFB1AF2F8524AB8B8576
:1055F00085AB9A8592AF8E819F81A885B98583AF4F
:1056000094AFA5AFB6AF298127AFF801E059FD4FA0
:1056100080818983369780819181A281B3818E8335
:105620009F83A887B987729690819A873996308030
:105630003F97A081AA83339620803996C080339704
:10564000D0807E973081F3972081E05AFF4F808190
:105650009181A281B3818B879C87AD87BE87F397A9
:1056600080819181A281B3813C9740815181628187
:1056700073813C9780809180A280B3807801E0EFB5
:10568000EE1AEEEFFE0AF801E95CFD4F4080518012
:1056900062807380F701468E578E60A271A282A24B
:1056A00093A2A4A2B5A246A357A360A771A782A7FD
:1056B00093A7A4A7B5A78B859C85AD85BE8586A736
:1056C00097A7A0ABB1AB22AB33ABD38EC48E358ED4
:1056D00080E490E0A0E0B0E086AB97ABA0AFB1AFC4
:1056E00024AA2A8125AB8A8582AF8E819F81A885D5
:1056F000B98583AF94AFA5AFB6AF298127AF680155
:1057000080E1C80ED11CC6010E9471438889998925
:105710000E947143C7010E9471430E94002EA09015
:105720005E09B0905F090E94002E80906E099090F3
:105730006F090E94002E2091860930918709A401EB
:10574000B501C6010E946D410E94002EA090620921
:10575000B09063090E94002E8090720990907309A6
:105760000E94002E20918A0930918B09A401B50175
:10577000888999890E946D410E94002EA090660937
:10578000B09067090E94002E80907609909077096A
:105790000E94002E20918E0930918F09A401B5013D
:1057A000C7010E946D41F801EF58FD4F80818823A9
:1057B00021F0C6010E94A42F03C0C6010E94902FB1
:1057C000F801EE58FD4F8081882329F08889998956
:1057D0000E94A42F04C0888999890E94902FF80103
:1057E000ED58FD4F80818823D9F0C70165960FB62B
:1057F000F894DEBF0FBECDBFDF91CF911F910F9107
:10580000FF90EF90DF90CF90BF90AF909F908F90E0
:105810007F906F905F904F903F902F900C94A42FAB
:10582000C70165960FB6F894DEBF0FBECDBFDF91FE
:10583000CF911F910F91FF90EF90DF90CF90BF908D
:10584000AF909F908F907F906F905F904F903F9020
:105850002F900C94902F8F929F92CF92DF92EF9285
:10586000FF920F931F93CF93DF93CDB7DEB7D40191
:105870008C91882399F1780169018B01FB0180816A
:105880009181DC01ED91FC910084F185E02D199569
:105890000C5B1F4F90FF18C020E030E040E85FE352
:1058A000F60160817181828193810E94355AD6010F
:1058B0006D937D938D939C931397F70180819181D4
:1058C000A281B381F80106C0F80180819181A28193
:1058D000B381F70180839183A283B383DF91CF915A
:1058E0001F910F91FF90EF90DF90CF909F908F903E
:1058F0000895089508950F931F93CF93DF938C011C
:10590000C0E0D0E0BE01C8010E945336882321F0D8
:10591000BE01C8010E94FB362196C13ED10591F718
:1059200080E090E0DF91CF911F910F9108954F9209
:105930005F926F927F928F929F92AF92BF92CF921F
:10594000DF92EF92FF920F931F93CF93DF938B0120
:10595000EB01CC0FDD1FCE010E94A759882E912CA0
:10596000A12CB12CCE0101960E94A759C82ED12C92
:10597000E12CF12C0D5811090330110588F5CE01E9
:1059800044960E94A759482E512C612C712CCE01AF
:1059900045960E94A759482F50E060E070E08FEFD5
:1059A0004816510461047104A9F44F3F5105610583
:1059B000710581F48FEF88169104A104B10481F47C
:1059C0008FEFC816D104E104F10451F46FEF7FEFBB
:1059D000CB012BC040385105610571056CF0F6CF45
:1059E00080E8C816D104E104F10484F740E050E0F7
:1059F000BA01412C512C3201FE2CED2CDC2CCC2494
:105A00008C0C9D1CAE1CBF1C320155244424840CFC
:105A1000951CA61CB71C742F662755274427CB015D
:105A2000BA01680D791D8A1D9B1DDF91CF911F91D1
:105A30000F91FF90EF90DF90CF90BF90AF909F902D
:105A40008F907F906F905F904F900895CF93DF93EA
:105A5000EC018F81882331F061E089890E94520F27
:105A60001F8206C060E089890E94520F81E08F8307
:105A7000DF91CF910895CF93DF93EC018E8188233E
:105A800031F061E08B850E94520F1E8206C060E0FB
:105A90008B850E94520F81E08E83DF91CF91089514
:105AA00060E0FC0181890C94520F60E0FC01838569
:105AB0000C94520F61E0FC0181890C94520F61E05B
:105AC000FC0183850C94520FCF92DF92EF92FF92EC
:105AD0000F931F93CF93DF938B0169017A01EB0141
