:100000009EC10000CDC10000CBC10000C9C10000ED
:10001000C7C10000C5C10000C3C10000C1C10000CC
:10002000BFC10000BDC10000BBC10000B9C10000DC
:10003000B7C10000B5C10000B3C100000C943F413E
:10004000AFC100000C941141ABC10000A9C1000078
:100050000C948241A5C10000A3C100000C943D4056
:100060009FC100000C9407400C94DD3F99C1000033
:1000700097C1000095C1000093C1000091C100002C
:100080000C94E3408DC100008BC1000089C10000C9
:1000900087C1000085C1000083C1000081C100004C
:1000A0007FC100007DC100000C94B54079C1000003
:1000B00077C1000075C1000073C100000C94874037
:1000C0006FC100006DC100006BC1000069C100007C
:1000D00067C1000065C1000063C1000061C100008C
:1000E0005FC100004E414E494E495459494E46CDDC
:1000F000CCCC3D0AD7233C17B7D13877CC2B3295DF
:1001000095E6241FB14F0A000020410000C84200BC
:10011000401C4620BCBE4CCA1B0E5AAEC59D740086
:10012000407A10F35A00A0724E18090010A5D4E8C6
:100130000000E87648170000E40B54020000CA9A59
:100140003B000000E1F505000080969800000040AB
:10015000420F000000A086010000001027000000F0
:1001600000E803000000006400000000000A000036
:100170000000000100000000002C76D888DC674FEA
:100180000823DFC1DFAE59E1B1B796E5E3E453C61A
:100190003AE651997696E8E6C28426EB898C9B6212
:1001A000ED407C6FFCEFBC9C9F40F2BAA56FA5F4BC
:1001B00090055A2AF75C936B6CF9676DC11BFCE0E4
:1001C000E40D47FEF520E6B500D0ED902E03009437
:1001D0003577050080841E080000204E0A000000CC
:1001E000C80C333333330F986E12831141EF8D21D6
:1001F00014893BE65516CFFEE6DB18D1844B381B3D
:10020000F77C1D901DA4BBE424203284725E228101
:1002100000C9F124ECA1E53D2700002100240027BE
:10022000002A002D00300033000101000004010706
:10023000010A0100002200250028002B002E0031B9
:1002400000340002010000050108010B010000203C
:10025000002300260029002C002F0032000001009E
:100260000003010601090105050505070508080841
:1002700008020202020A0A08080404040401010137
:10028000010101010103030303030303030407073F
:10029000070C0C0C0C0C0C0C0C02020202060606DD
:1002A00006060606060B0B0B0B0B0B0B0B010210C5
:1002B0002020080810204010204080020102010880
:1002C0000402010102040810204080804020100830
:1002D0000402018004020180402010080402010889
:1002E00004020101020408102040800102040810E9
:1002F00020408000000A0B02090C0D0E08070304C1
:1003000001000000000000000000000000000000EC
:1003100000000000000000000000000000000012CB
:1003200011100000000000000000000000000000AC
:10033000000000000000000000007942324D11244E
:100340001FBECFEFD1E2DEBFCDBF00E00CBF17E094
:10035000A0E0B2E0ECE1FDEA00E00BBF02C00790D4
:100360000D92A432B107D9F72FE0A4E2B7E001C0A3
:100370001D92AF31B207E1F711E0CEE9D1E000E024
:1003800006C021970109802FFE010E947D55CD39BD
:10039000D10780E00807A9F70E941E430C947D5600
:1003A0002FCE0CB405FC0DC01EBC00000DB407FE22
:1003B000FDCF9EB51EBC00000DB407FEFDCF8EB56F
:1003C00008951EBC00000DB407FEFDCF8EB51EBC07
:1003D00000000DB407FEFDCF9EB5089527E030E084
:1003E00060E0A82FB0E0722FE091E10BF091E20BFA
:1003F0009091DE0BAD01022E02C0559547950A94EF
:10040000E2F7808140FF2BC0982B9083E091E50BB1
:10041000F091E60B80819091E00B892B8083E09135
:10042000E30BF091E40B80819091DF0B892341E095
:1004300050E009F440E001C0440F7A95EAF7642BDC
:10044000E091E50BF091E60B80819091E00B9095A7
:10045000982390832150310930F6862F0895909586
:100460009823D3CFCF9380E0B9DFC82F80E0B6DFE9
:100470009C2FCF9108959C01803E910508F021C5E5
:10048000FC018827E95BFD4F8F4F0C947D552703B6
:1004900034033D03460353035C03610761076107AF
:1004A000610761076903760383036107900399037A
:1004B000A203AF03B803C103CA03D303DC0361077C
:1004C000E503EE03F7036107610761070004090410
:1004D0001204610761071B042804610761076107B3
:1004E000350442044F0461075C0465046E0461072F
:1004F0006107610777048004890461079604A304F7
:10050000B004610761076107BD04CA04D70461072D
:10051000E404F104FE046107610761070B05180597
:100520002505610732053B05440561076107610741
:1005300068057505820561078F059C05A90561079A
:1005400061076107B605BF05C80561076107610757
:100550006107610761076107D105DA05E3056107F6
:10056000EC05F505FE05610761076107070614063E
:10057000210661072E063B064806610761076107F1
:10058000550662066F0661077C0685068E066107C2
:10059000610761079706A006A90661076107610761
:1005A000610761076107610761076107610761070B
:1005B0004D0556055F056107610761076107610722
:1005C00061076107610761076107610761076107EB
:1005D00061076107610761076107610761076107DB
:1005E00061076107610761076107610761076107CB
:1005F00061076107610761076107610761076107BB
:1006000061076107610761076107610761076107AA
:10061000610761076107610761076107610761079A
:10062000B206BB06C8066107D506DE06EB06610703
:1006300061076107F80601070E0761071B0724071A
:1006400031076107610761073E074707540781E0EB
:1006500090E0A0E0B0E08093540890935508A093F8
:100660005608B093570808951092580810925908E8
:1006700010925A0810925B08089510925C0810922C
:100680005D0810925E0810925F08089581E090E086
:10069000A0E0B0E08093600890936108A0936208A6
:1006A000B093630808951092640810926508109240
:1006B000660810926708089583E090E0A0E0B0E03B
:1006C0008093680890936908A0936A08B0936B08B8
:1006D000089588E790E0A0E0B0E0809380089093D0
:1006E0008108A0938208B0938308089588E790E07A
:1006F000A0E0B0E08093840890938508A0938608DA
:10070000B0938708089588E790E0A0E0B0E0809378
:10071000880890938908A0938A08B0938B0808955D
:1007200010929008109291081092920810929308DB
:1007300008951092940810929508109296081092BD
:100740009708089581E090E0A0E0B0E080939808D9
:1007500090939908A0939A08B0939B0808951092DB
:100760009C0810929D0810929E0810929F08089570
:100770001092A0081092A1081092A2081092A3084B
:1007800008951092A4081092A5081092A60810923D
:10079000A70808951092A8081092A9081092AA0814
:1007A0001092AB0808951092AC081092AD08109208
:1007B000AE081092AF0808951092B0081092B108D8
:1007C0001092B2081092B30808951092B8081092CF
:1007D000B9081092BA081092BB0808951092BC088C
:1007E0001092BD081092BE081092BF080895109292
:1007F000C0081092C1081092C2081092C308089550
:100800001092D0081092D1081092D2081092D308FA
:1008100008951092D4081092D5081092D60810921C
:10082000D70808951092D8081092D9081092DA08C3
:100830001092DB08089581E090E0A0E0B0E08093A2
:10084000E4089093E508A093E608B093E7080895BC
:1008500081E090E0A0E0B0E08093E8089093E908A0
:10086000A093EA08B093EB0808958CE291E0A0E031
:10087000B0E08093F8089093F908A093FA08B09339
:10088000FB0808958CE291E0A0E0B0E08093FC08C2
:100890009093FD08A093FE08B093FF0808958CE2A2
:1008A00091E0A0E0B0E08093000990930109A0934B
:1008B0000209B093030908951092080910920909DA
:1008C00010920A0910920B09089510920C091092C7
:1008D0000D0910920E0910920F0908951092100937
:1008E0001092110910921209109213090895109292
:1008F00020091092210910922209109223090895CB
:1009000010922409109225091092260910922709A5
:10091000089581E090E0A0E0B0E0809328099093F2
:100920002909A0932A09B0932B09089585E090E046
:10093000A0E0B0E08093300990933109A093320990
:10094000B0933309089585E090E0A0E0B0E0809393
:10095000340990933509A0933609B0933709089567
:1009600089E190E0A0E0B0E08093380990933909E4
:10097000A0933A09B0933B09089582E390E0A0E088
:10098000B0E08093480990934909A0934A09B09335
:100990004B09089582E390E0A0E0B0E080934C0919
:1009A00090934D09A0934E09B0934F09089582E3A7
:1009B00090E0A0E0B0E08093500990935109A0939B
:1009C0005209B0935309089582E390E0A0E0B0E0AB
:1009D0008093580990935909A0935A09B0935B09E1
:1009E000089582E390E0A0E0B0E080935C099093EA
:1009F0005D09A0935E09B0935F09089582E390E0DA
:100A0000A0E0B0E08093600990936109A09362092F
:100A1000B0936309089580E991E0A0E0B0E080938D
:100A2000700990937109A0937209B09373090895A6
:100A300080E991E0A0E0B0E080937409909375099B
:100A4000A0937609B0937709089580E991E0A0E03A
:100A5000B0E08093780990937909A0937A09B093D4
:100A60007B090895109280091092810910928209E1
:100A700010928309089510928409109285091092AA
:100A800086091092870908951092880910928909A1
:100A900010928A0910928B0908951092980A109268
:100AA000990A10929A0A10929B0A089510929C0A31
:100AB00010929D0A10929E0A10929F0A0895109219
:100AC000A00A1092A10A1092A20A1092A30A0895F5
:100AD00088E592E0A0E0B0E08093980990939909AE
:100AE000A0939A09B0939B09089588E592E0A0E04D
:100AF000B0E080939C0990939D09A0939E09B093C8
:100B00009F09089588E592E0A0E0B0E08093A009F5
:100B10009093A109A093A209B093A30908958EE12F
:100B200090E0A0E0B0E08093A8099093A909A09379
:100B3000AA09B093AB0908958EE190E0A0E0B0E07F
:100B40008093AC099093AD09A093AE09B093AF091F
:100B500008958EE190E0A0E0B0E08093B00990931A
:100B6000B109A093B209B093B30908951092C009D6
:100B70001092C1091092C2091092C30908951092EF
:100B8000C4091092C5091092C6091092C7090895A8
:100B90001092C8091092C9091092CA091092CB0983
:100BA00008951092E8091092E9091092EA0910924A
:100BB000EB0908951092EC091092ED091092EE09DC
:100BC0001092EF0908951092F0091092F109109215
:100BD000F2091092F30908951092F8091092F90998
:100BE0001092FA091092FB0908951092FC091092D4
:100BF000FD091092FE091092FF0908951092000A53
:100C00001092010A1092020A1092030A089585E0D8
:100C100090E0A0E0B0E08093100A9093110AA093B6
:100C2000120AB093130A089585E090E0A0E0B0E0C6
:100C30008093140A9093150AA093160AB093170A8A
:100C4000089585E090E0A0E0B0E08093180A9093CA
:100C5000190AA0931A0AB0931B0A089584EB95E130
:100C6000A0E0B0E08093200A9093210AA093220A8A
:100C7000B093230A089584EB95E1A0E0B0E080935F
:100C8000240A9093250AA093260AB093270A089570
:100C900084EB95E1A0E0B0E08093280A9093290AC4
:100CA000A0932A0AB0932B0A089585E090E0A0E073
:100CB000B0E08093380A9093390AA0933A0AB0932F
:100CC0003B0A089585E090E0A0E0B0E080933C0A04
:100CD00090933D0AA0933E0AB0933F0A089585E0A1
:100CE00090E0A0E0B0E08093400A9093410AA09386
:100CF000420AB093430A08951092480A1092490A92
:100D000010924A0A10924B0A089510924C0A1092BF
:100D10004D0A10924E0A10924F0A08951092500AEE
:100D20001092510A1092520A1092530A089510928A
:100D3000600A1092610A1092620A1092630A089582
:100D40001092640A1092650A1092660A1092670A5D
:100D500008951092680A1092690A10926A0A109215
:100D60006B0A08951092780B1092790B10927A0BFF
:100D700010927B0B08958CE390E0A0E0B0E08093AC
:100D80007C0B90937D0BA0937E0BB0937F0B08950B
:100D900081E090E0A0E0B0E08093800B9093810B25
:100DA000A093820BB093830B08951092880B10923E
:100DB000890B10928A0B10928B0B08958CE390E0B4
:100DC000A0E0B0E080938C0B90938D0BA0938E0BE2
:100DD000B0938F0B089581E090E0A0E0B0E08093A5
:100DE000900B9093910BA093920BB093930B08955B
:100DF0001092A00B1092A10B1092A20B1092A30BB9
:100E000008958CE390E0A0E0B0E08093A40B909371
:100E1000A50BA093A60BB093A70B089581E090E0DB
:100E2000A0E0B0E08093A80B9093A90BA093AA0B2D
:100E3000B093AB0B08951092B00B1092B10B1092BF
:100E4000B20B1092B30B08958CE390E0A0E0B0E0F9
:100E50008093B40B9093B50BA093B60BB093B70BE4
:100E6000089581E090E0A0E0B0E08093B80B90930B
:100E7000B90BA093BA0BB093BB0B08951092C80B9B
:100E80001092C90B1092CA0B1092CB0B08958CE3F1
:100E900090E0A0E0B0E08093CC0B9093CD0BA093BA
:100EA000CE0BB093CF0B089581E090E0A0E0B0E0CE
:100EB0008093D00B9093D10BA093D20BB093D30B14
:100EC0000895220F331F220F331FF901EC5AF74FF9
:100ED00010821182128213820895883591050CF0D8
:100EE0004BC085359105CCF4803391054CF58D329E
:100EF00091059CF48C319105BCF4893191056CF419
:100F00008E30910564F48B3091053CF4009729F004
:100F100097FD08C00297049728F481E008950F9781
:100F20000997D8F380E00895863291053CF4843225
:100F300091059CF74F970397A8F7EFCF8997FBCFC1
:100F4000843491056CF4813491053CF78A33910522
:100F50002CF4873391050CF7C397EDCFCD97EBCFEA
:100F60008E34910534F48B349105BCF68754910985
:100F7000E2CF81559109DFCF863891051CF5833882
:100F800091055CF68237910584F48F3691052CF635
:100F9000883691053CF4853691050CF0BECF8B5513
:100FA0009109C9CF89569109C6CF8C3791053CF478
:100FB000893791050CF0B1CF83579109BCCF8D577C
:100FC0009109B9CF803D91058CF48D3C91050CF0D1
:100FD000A4CF843991053CF4813991050CF09DCF63
:100FE0008D589109A8CF895C9109A5CF8A3D9105BB
:100FF0003CF4873D91050CF090CF835D91099BCF28
:101000008D5D910998CFAF92BF92CF92DF92EF9210
:10101000FF920F931F93CF93DF936C017B018B01A2
:10102000040F151FEB015E01AE18BF08C017D107F2
:1010300059F06991D601ED91FC910190F081E02D7C
:10104000C6011995892B79F7C501DF91CF911F91C1
:101050000F91FF90EF90DF90CF90BF90AF900895E9
:10106000FC01538D448D252F30E0842F90E0821BAE
:10107000930B541710F0CF96089501970895FC0133
:10108000918D828D981761F0A28DAE0FBF2FB11D8B
:101090005D968C91928D9F5F9F73928F90E00895E3
:1010A0008FEF9FEF0895FC01918D828D981731F09D
:1010B000828DE80FF11D858D90E008958FEF9FEFF1
:1010C0000895FC01918D228D892F90E0805C9F4FC7
:1010D000821B91098F739927089581EF9BE0F1DFBF
:1010E00021E0892B09F420E0822F0895FC01A48DD2
:1010F000A80FB92FB11DA35ABF4F2C91848D90E03A
:1011000001968F739927848FA689B7892C93A0891C
:10111000B1898C91837080648C93938D848D9813A6
:1011200006C00288F389E02D80818F7D8083089539
:10113000EF92FF920F931F93CF93DF93EC0181E027
:10114000888F9B8D8C8D98131AC0E889F9898081CE
:1011500085FF15C09FB7F894EE89FF896083E88901
:10116000F98980818370806480839FBF81E090E0F3
:10117000DF91CF911F910F91FF90EF900895F62E80
:101180000B8D10E00F5F1F4F0F731127E02E8C8D1A
:101190008E110BC00FB607FCFACFE889F989808160
:1011A00085FFF5CFCE01A2DFF2CFEB8DEC0FFD2F47
:1011B000F11DE35AFF4FF0829FB7F8940B8FEA8935
:1011C000FB8980818062D0CF682F81EF9BE0B0CF18
:1011D000CF93DF93EC01888D8823B1F0AA89BB8976
:1011E000E889F9898C9185FD03C0808186FD0CC05A
:1011F0000FB607FCF7CF8C9185FFF2CF808185FF7A
:10120000EDCFCE0173DFEACFDF91CF91089580E07B
:1012100090E0892B21F061DF81110E94000080E0C5
:1012200090E0892B49F080E090E0892B29F00E9422
:10123000000081110E94000080E090E0892B49F0BD
:1012400080E090E0892B29F00E94000081110E942B
:10125000000080E090E0892B49F080E090E0892B4D
:1012600029F00E94000081110C9400000895815023
:10127000823108F05AC0E82FF0E08827ED5BF64F86
:101280008F4F0C947D556309670955095B095F0908
:1012900095096A09700974097A097E098209880921
:1012A0008C099509900996099A09809180008F7799
:1012B000809380000895809180008F7DF9CF809188
:1012C0008000877FF5CF84B58F7784BD089584B57E
:1012D0008F7DFBCF8091B0008F778093B000089511
:1012E0008091B0008F7DF9CF809190008F778093AF
:1012F00090000895809190008F7DF9CF80919000AB
:10130000877FF5CF8091A0008F778093A00008950C
:101310008091A0008F7DF9CF8091A000877FF5CFCD
:10132000809120018F778093200108958091200182
:101330008F7DF9CF80912001877FF5CFCF93DF9309
:10134000282F30E0F901ED50FD4F8491F901E3556C
:10135000FD4FD491F901E959FD4FC491CC2399F087
:10136000811185DFEC2FF0E0EE0FFF1FE35BFD4FF7
:10137000A591B491EC91ED2381E090E009F480E037
:10138000DF91CF91089580E090E0FACF1F93CF9343
:10139000DF93282F30E0F901ED50FD4F8491F901E2
:1013A000E355FD4FD491F901E959FD4FC491CC2388
:1013B000A1F0162F81115BDFEC2FF0E0EE0FFF1F85
:1013C000ED5CFD4FA591B4918FB7F894EC9111119C
:1013D00008C0D095DE23DC938FBFDF91CF911F91A2
:1013E0000895DE2BF8CFCF93DF9390E0FC01E35517
:1013F000FD4F249189599D4FFC0184918823C9F0A8
:1014000090E0880F991FFC01E75EFD4FA591B49114
:10141000FC01ED5CFD4FC591D49161110DC09FB7EA
:10142000F8948C91209582238C938881282328839B
:101430009FBFDF91CF910895623051F49FB7F89428
:101440003C91822F809583238C93E8812E2BEFCFC4
:101450008FB7F894EC912E2B2C938FBFEACF82306C
:10146000910538F0880F991F880F991F05970197EC
:10147000F1F708953FB7F89480913B0790913C07AE
:10148000A0913D07B0913E0726B5A89B05C02F3F10
:1014900019F00196A11DB11D3FBFBA2FA92F982F9A
:1014A0008827BC01CD01620F711D811D911D42E095
:1014B000660F771F881F991F4A95D1F708958F925D
:1014C0009F92AF92BF92CF92DF92EF92FF926B0109
:1014D0007C01D0DF4B015C01C114D104E104F104B3
:1014E000B1F0C8DF681979098A099B09683E734021
:1014F0008105910588F321E0C21AD108E108F108BD
:1015000088EE880E83E0981EA11CB11CE5CFFF90E9
:10151000EF90DF90CF90BF90AF909F908F90089505
:101520002FB7F89460913707709138078091390789
:1015300090913A072FBF0895CF92DF92EF92FF92DA
:10154000CF93DF93EC01603282E07807CCF5653B06
:10155000710514F064EB70E0898128E830E0281B05
:10156000310987FD3395220F331F220F331F690185
:10157000330FEE08FF088A8128E532E0281B310985
:1015800087FD3395220F331F220F331F032E000CCC
:10159000440B550B2C193D094E095F09DB0177FF00
:1015A00002C0B0E0A0E00E94255424EB30E040E00F
:1015B00050E00E94FF53C20ED31EE41EF51EB6017A
:1015C000E881E03370F5298188E890E0821B910979
:1015D00027FD9395880F991F880F991F6817790722
:1015E0007CF02A8188E592E0821B910927FD939582
:1015F000880F991F880F991F681779070CF4CB0182
:101600000297880F991F4FB7F8942E2F30E0F901F9
:10161000EE0FFF1FE20FF31FE658F14F9283818315
:101620004FBFDF91CF91FF90EF90DF90CF90089563
:101630001F93CF93DF93EC01162F8881803308F03E
:101640004DC061E0812FCFDE8881282F30E0F90185
:10165000EE0FFF1FE20FF31FE658F14F1F7360817B
:10166000607C612B608319821A822CE0622F0E94B9
:101670007155829FB001112430E020E0AB01420F90
:10168000531FFA01EE0FFF1FE40FF51FE658F14F4D
:10169000908196FD16C02F5F3F4F2C30310571F7BA
:1016A000813009F51092800082E0809381001092D1
:1016B000850010928400B19A80916F0082608093BF
:1016C0006F00E8818E2F90E0FC01EE0FFF1FE80F06
:1016D000F91FE658F14F8081806480838881DF9113
:1016E000CF911F910895823061F410929000809301
:1016F0009100109295001092940088BB8093710025
:10170000E0CF833069F41092A00082E08093A100C2
:101710001092A5001092A40089BB80937200D1CFD3
:101720008111CFCF1092200182E08093210110928D
:101730002501109224018ABB80937300C2CFAF921F
:10174000BF92CF92DF92EF92FF920F931F93CF93AE
:10175000DF936B017A01EC01CE5CD84F28813CE02D
:10176000389F8001399F100D1124A0900A0FB12CD1
:1017700027FF1FC0FB011182108288818F5F888341
:1017800088819801280F311D87FD3A95F6012A15A9
:101790003B051CF488818C30BCF1808191810496DA
:1017A00080349C4908F471C0F601808191810496CF
:1017B0006EC088819801280F311D87FD3A952A1542
:1017C0003B05DCF68881A801480F511D87FD5A951D
:1017D000FA01EE0FFF1FE40FF51FE658F14F80816D
:1017E00086FFCBCF8881F801E80FF11D87FDFA95C0
:1017F000CF01EE0FFF1FE80FF91FE658F14F808170
:1018000060E08F73C3DDB9CF808191812881A80109
:10181000420F511D27FD5A959A01FA01EE0FFF1F45
:10182000E20FF31FE658F14F21813281820F931F9F
:10183000F7019183808388819801280F311D87FDEE
:101840003A95F901EE0FFF1FE20FF31FE658F14F33
:10185000808186FF21C08881080F111D87FD1A95A0
:10186000F801EE0FFF1FE00FF11FE658F14F8081E6
:1018700061E08F73DF91CF911F910F91FF90EF90F7
:10188000DF90CF90BF90AF9081CD80E49CE9F701CD
:10189000918380838FEF8883DF91CF911F910F9188
:1018A000FF90EF90DF90CF90BF90AF9008958EBDE6
:1018B00000000DB407FEFDCF8EB50895CF92DF92E4
:1018C000EF92FF920F931F93CF93DF938C01D62E4D
:1018D000EA01E62EF12CEE0CEF2CEE1CFF08FC01C9
:1018E000E858FF4F8081882309F46DC060E0F8015B
:1018F00082854CDD8D2D0E94EE01F8018483EF2856
:10190000C1F08B810E94EE018A810E94EE018981E3
:101910000E94EE0188810E94EE0161E0F80182855B
:10192000DF91CF911F910F91FF90EF90DF90CF90BB
:101930002DCD0E9432020E94320261E0F8018285C0
:1019400025DD60E0F801828521DD8D2D0E94EE010C
:1019500080E00E94EE0190E0B0E0A0E0BA2FA92F55
:10196000982F882788839983AA83BB8380E00E946D
:10197000EE01488159816A817B81482B762F652F42
:10198000542F4427488359836A837B8380E00E94D5
:10199000EE01488159816A817B81482B762F652F22
:1019A000542F4427488359836A837B8380E00E94B5
:1019B000EE01488159816A817B81482B4883598394
:1019C0006A837B83AACFCFB6F894809131078111C7
:1019D00023C0ECE9F2E08491E2EEF2E09491E82F8A
:1019E000F0E0EE0FFF1FE75EFD4FA591B491EC9183
:1019F000E92319F461E085E3C9DC61E085E3F3DC08
:101A00008CB580618CBD8CB580648CBD61E084E355
:101A1000EADC61E083E3E7DC809131078F5F80934C
:101A20003107CFBE8DE58CBD81E08DBD60E0F80152
:101A30008285ACDC8D2D3BDFF8018483EF2849F0F3
:101A40008B8135DF8A8133DF898131DF88812FDF28
:101A500064CF0E94D1010E94D10161E0F80182852A
:101A600095DC60E0F801828591DC8D2D20DF80E03F
:101A70001EDF90E0B0E0A0E0BA2FA92F982F8827B2
:101A800088839983AA83BB8380E011DF48815981D1
:101A90006A817B81482B762F652F542F44274883FA
:101AA00059836A837B8380E002DF488159816A81A0
:101AB0007B81482B762F652F542F442748835983E9
:101AC0006A837B8380E0F3DE74CF8F929F92AF9224
:101AD000BF92CF92DF92EF92FF920F931F93CF931B
:101AE000DF93F7016081662399F179016A01EC01C6
:101AF000888199815C01F2E6AF0EB11CF50110827C
:101B0000118212821382A5016FE6D8DEF501808171
:101B10009181A281B381CC5BDF4FB0FF26C020E072
:101B200030E040E85FE3F60160817181828193815A
:101B30000E945D54F6016083718382839383F70171
:101B400080819181A281B38188839983AA83BB8399
:101B5000DF91CF911F910F91FF90EF90DF90CF9089
:101B6000BF90AF909F908F900895F60180809180F4
:101B7000A280B38020E030E0A901C501B4010E9439
:101B80005A55181674F4F80120813181428153812D
:101B9000C501B4010E945C54F601608371838283A5
:101BA000938388819981AA81BB81F7018083918386
:101BB000A283B383CDCF8F929F92AF92BF92DF92D9
:101BC000EF92FF920F931F93CF93DF93EC017B0172
:101BD0008EEA97E4A1EEBDE388839983AA83BB8351
:101BE00090E080E00E94D15225ED34E045E352E4DC
:101BF0000E94325320E030E04AE754E40E94C1548E
:101C00004B015C0128EB3EE145E05EE30E9432536C
:101C100026E636E646EA5EE30E94C15420E030E064
:101C200040E85FE30E945C540E942E55D62E8E0140
:101C30000E5A1F4F8FE08D1508F478C0F80180818F
:101C40009181A281B381A26080839183A283B383B7
:101C5000A8016CEECE0132DE2AE037ED43EA5CE308
:101C6000688179818A819B810E945D54A5019401DC
:101C70000E9432532CEE31E548E35EE30E94C154EA
:101C800020E030E040E85FE30E945C540E942E5563
:101C9000D62E8A899B89AC89BD89907E4D2D50E0D6
:101CA00070E060E0762F652F542F442744275F7142
:101CB00066277727842B952BA62BB72B8A8B9B8B9C
:101CC000AC8BBD8B8E010E5E1F4FA80160E9CE016B
:101CD000F5DD6D2D70E090E080E00E94D35220E0B1
:101CE00030E040E05FE30E9432530E942E556F7156
:101CF0008A899B89AC89BD89807E862B8A8B9B8B48
:101D0000AC8BBD8BA80160E9CE01D8DDCA58DF4F8E
:101D1000F982E882DF91CF911F910F91FF90EF90B0
:101D2000DF90BF90AF909F908F900895A8016CE6D0
:101D3000CE01C4DDF80180819181A281B381A1FF30
:101D4000A8CFAD7F80839183A283B383A8016CEE7B
:101D5000CE01B4DD9ECF0F931F93062FFC01468565
:101D60005785608971894F7E10E030E020E0A4E063
:101D7000000F111F221F331FAA95D1F7402B512BA3
:101D8000622B732B46875787608B718BAC01425F48
:101D90005F4F60E81F910F9191CD0F931F93AC019E
:101DA0004E5A5F4FFA010081118122813381307FC9
:101DB000362B00831183228333836CEE1F910F91A6
:101DC0007DCD6031710529F170F46230710539F112
:101DD00018F4672B31F1089564307105F1F0683023
:101DE0007105C9F008956034710579F020F460320E
:101DF000710569F008956038710529F06115714029
:101E000091F460E0CACF61E0FDCF62E0FBCF63E018
:101E1000F9CF64E0F7CF65E0F5CF66E0F3CF67E098
:101E2000F1CF68E0EFCF08950F931F93CF93DF9327
:101E3000EC0168EC70E080E090E041DB8E819F81F6
:101E40008F3F980729F061E0CEDA61E08E819EDA5B
:101E50008C859D858F3F980711F061E0C4DA8885F5
:101E600099858F3F980729F061E0BDDA60E08885A9
:101E70008DDA61E08A85B7DA61E08A8587DAFE016A
:101E8000E858FF4F8081882309F457C061E08091B2
:101E9000D80BA9DA61E08091DC0BA5DA62E08091D1
:101EA000DA0BA1DA4091D80B5091D90BFA01E35526
:101EB000FD4FE491E093DE0B2091DA0B3091DB0BC8
:101EC000F901E355FD4FE491E093DF0B8091DC0BCA
:101ED0009091DD0BFC01E355FD4FE491E093E00BA5
:101EE000FA01E959FD4FE491F0E0EE0FFF1FED5CC0
:101EF000FD4F459154915093E20B4093E10BF90152
:101F0000E959FD4FE491F0E0EE0FFF1FE35BFD4F59
:101F1000259134913093E40B2093E30BFC01E959B4
:101F2000FD4FE491F0E0EE0FFF1FED5CFD4F85915A
:101F300094919093E60B8093E50BAE01425F5F4F67
:101F400060E8CE01BBDCAE014E5E5F4F60E9CE01C2
:101F5000B5DCAE014A595F4FFA0180819181A281BF
:101F6000B3819927AA27BB2780839183A283B38358
:101F700061E9CE01A3DCAE01465E5F4F63E9CE01AD
:101F80009DDCAE01425E5F4F64E9CE0197DCAE019D
:101F90004E5D5F4F65E9CE0191DCAE014A5D5F4F5A
:101FA0006DEACE018BDCAE01465D5F4F63EBCE0187
:101FB00085DC8E010E5A1F4FA8016CEECE017EDC2F
:101FC000AE014A5A5F4F6DEECE0178DCAE01425A47
:101FD0005F4F60EFCE0172DCAE0146595F4FFA01F0
:101FE00080819181A281B3819927AA27BB27808311
:101FF0009183A283B38362EFCE0160DCF80180811C
:102000009181A281B381807F886080839183A28344
:10201000B383A8016CEECE0151DCF801808191817F
:10202000A281B3819F77AE7F906880839183A283E2
:10203000B383A8016CEECE01DF91CF911F910F9178
:102040003DCC4F925F926F927F928F929F92AF9210
:10205000BF92CF92DF92EF92FF92CF93DF93EC018A
:102060006C897D898E899F8988889988AA88BB8890
:10207000CE8CDF8C0D2C000CEE08FF08603127E2BF
:1020800072078105910529F016161706180619061C
:10209000ACF0A7019601C501B4010E946255DF9121
:1020A000CF91FF90EF90DF90CF90BF90AF909F9037
:1020B0008F907F906F905F904F9008950E94D352C1
:1020C00020E030E44CE156E40E94C1542B013C0175
:1020D000488E598E6A8E7B8EC501B4010E94D35200
:1020E000A30192010E9432534B015C01C701B6016A
:1020F0000E94D3529B01AC01C501B4010E9432532E
:102100000E942955CCCFFC0181E090E097A786A7DB
:102110001182108215821482108A118A128A138AFF
:10212000158E148E80E197E2A0E0B0E0848B958B51
:10213000A68BB78B12861086148615861686178690
:10214000089508950895CF93DF93EC0189899F81C5
:10215000992331F061E01AD91F82DF91CF91089560
:1021600060E014D981E08F83F8CFCF93DF93EC0147
:102170008B859E81992331F061E008D91E82DF9121
:10218000CF91089560E002D981E08E83F8CFEBE033
:10219000F1E08081877F80830895EBE0F1E080812A
:1021A0008860808308958E9808958E9A0895149873
:1021B0000895149A089588980895889A089560E07B
:1021C000FC018189E3C860E0FC018385DFC861E030
:1021D000FC018189DBC861E0FC018385D7C8CF930E
:1021E000DF93EC01FC01ED58FF4F1082379781E03F
:1021F000808360E08B85CAD88D899E89892B29F0E0
:1022000060E08989DF91CF91C1C8DF91CF910895B6
:10221000CF93DF93EC01898D91D82C8D2817190667
:1022200021F48D8DDF91CF91089580E0FBCFCF9386
:10223000DF93EC018F8982D82C8D2817190621F4A1
:102240008D8DDF91CF91089580E0FBCFCF93DF9309
:10225000EC01888199812BA961E0211101C060E026
:102260007ADD8A819B812CA9222321F02DA961E0AE
:10227000211101C060E0DF91CF916DCDCF93DF934D
:10228000EC01888199812BA960E0211101C061E0F6
:1022900062DD8A819B812CA9222321F02DA960E097
:1022A000211101C061E0DF91CF9155CDCF93DF9334
:1022B000EC0161E08F856AD88CA9882319F061E070
:1022C0008D8964D8CF58DF4F1882DF91CF91089560
:1022D000CF93DF93EC0160E08F8558D88CA98823D9
:1022E00019F060E08D8952D8CF58DF4F81E08883A4
:1022F000DF91CF910895CF92DF92EF92FF920F93EB
:102300001F93CF93DF93FC01DC01A05CBF4F4D9383
:102310005D936D937C93139714964D935D936D939A
:102320007C93139714960D931D932D933C931397C1
:10233000EC01C45BDF4FE88282AD882351F092A9A3
:1023400091114CC037FF50C01D921D921D921C92DE
:10235000139743AD54AD65AD76AD1416150616064C
:1023600017063CF597AD992321F10D911D912D9103
:102370003C9113976801790137FF07C0CC24DD2415
:102380007601C01AD10AE20AF30A4C155D056E0502
:102390007F057CF437FF07C0709560955095419597
:1023A0005F4F6F4F7F4F4D935D936D937C9313976A
:1023B000892FDF01A75ABF4F1D921D921D921C92BB
:1023C0001397E759FF4F91E09083DF91CF911F91D1
:1023D0000F91FF90EF90DF90CF90089510161106A7
:1023E000120613060CF4B0CF80E0B3CF0F931F9307
:1023F000CF93DF93EC01062F8B8D81110DC0CE01A1
:1024000016DF182FCE0104DF0111182F812FDF9165
:10241000CF911F910F910895CE01FADE182FCE01B2
:1024200006DFF2CFCF93DF93EC01FC01ED58FF4FB5
:1024300081E08083AE014C5B5F4FFA018081918126
:10244000A281B3819E0126593F4FF90120812223A9
:1024500009F440C00196A11DB11DFA01808391834A
:10246000A283B383FE01EA58FF4F20813181C90165
:10247000959587958C0F9D1F32970190F081E02DE7
:1024800020FF08C0DC012D913C91E20FF31F019069
:10249000F081E02D19958D899E89892BF9F0FE0137
:1024A000E658FF4F20813181C901959587958C0FA2
:1024B0009D1FC858DF4FE881F98120FF08C0DC016B
:1024C0002D913C91E20FF31F0190F081E02DDF91FF
:1024D000CF9119940197A109B109BFCFDF91CF9195
:1024E00008958F929F92AF92BF92CF92DF92EF9218
:1024F000FF920F931F93CF93DF93EC01FC01E75AF8
:10250000FF4F60817181828193810E94D1526B0162
:102510007C016EA97FA988AD99AD0E94D3529B0121
:10252000AC0160E074E284E799E40E94C1544B017D
:102530005C01FE01EB59FF4F6081718182819381C3
:102540000E94D1529B01AC01C501B4010E94C1544B
:102550004B015C018E01035A1F4F20E030E040E048
:102560005FE30E943253A70196010E945D540E94CE
:102570002E55F8016083718382839383CF59DF4F97
:10258000A5019401C701B6010E945D540E942E5519
:10259000688379838A839B83DF91CF911F910F9109
:1025A000FF90EF90DF90CF90BF90AF909F908F9073
:1025B00008950F931F93CF93DF93FC01ED58FF4FC6
:1025C00020812223B9F07A97008111812281338101
:1025D000389640815181628173810417150726075F
:1025E000370710F1EC01FBDDCE01DF91CF911F9198
:1025F0000F9177CFFC01E759FF4F20812223A1F0F3
:1026000070970081118122813381349640815181FC
:1026100062817381041715072607370728F0DF91B9
:10262000CF911F910F91FECEDF91CF911F910F910E
:102630000895FC01E759FF4F2081222361F0709734
:1026400080819181A281B3810196A11DB11D8083FA
:102650009183A283B38308950F931F93FC01E45BDE
:10266000FF4F2081211112C03897008111812281F2
:10267000338134964081518162817381041715073B
:10268000260737073CF41F910F91F8CDFC0122A9D2
:102690002111F9CF1F910F91D9CDCF93DF93FC0179
:1026A00080819181EC01CE59DF4F188219821A8204
:1026B0001B82AE016FE602D9888199819370DF9108
:1026C000CF9108954F925F926F927F92AF92BF9297
:1026D000CF92DF92EF92FF920F931F93CF93DF93EE
:1026E000EC015B01C42E89018881998164DAB8010B
:1026F0008881998166DB88819981AC014E5A5F4F50
:10270000FA014080518062807380689456F840825C
:102710005182628273826CEED1D888819981FC01EA
:102720004685578560897189516046875787608BD8
:10273000718BAC01425F5F4F60E8C0D8888199819E
:102740000C2C000CDD08EE08FF087601DD24CC24FB
:10275000CC24DD24E894E7F8FF24AC014A5A5F4F0B
:10276000FA014080518062807380F0E86F224C282B
:102770005D286E287F28FA0140825182628273822E
:102780006DEE9CD860E088819981E5DA8C8188358E
:1027900009F051C0B5018A819B810DDAB8018A81A7
:1027A0009B810FDB8A819B81AC014E5A5F4FFA01FE
:1027B000008111812281338110640083118322837F
:1027C00033836CEE7BD88A819B81FC0146855785DB
:1027D00060897189516046875787608B718BAC0126
:1027E000425F5F4F60E86AD88A819B81AC014A5A98
:1027F0005F4FFA0100811181228133812078C02A44
:10280000D12AE22AF32AC082D182E282F3826DEEDB
:1028100055D860E08A819B81DF91CF911F910F9104
:10282000FF90EF90DF90CF90BF90AF907F906F9030
:102830005F904F9090CADF91CF911F910F91FF90C1
:10284000EF90DF90CF90BF90AF907F906F905F90B0
:102850004F900895CF93DF93EC018C818835B9F5C3
:1028600081E09EE09983888386E99CE09B838A834C
:1028700088819981D9DA8C81883519F48A819B8184
:10288000D3DAFE01EC58FF4F85EB90E19183808312
:10289000329611821082329683EA90E1918380838E
:1028A000329611821082329681EA90E19183808380
:1028B000329611821082329682EA90E1918380836F
:1028C000CE57DF4F19821882DF91CF910895893555
:1028D00029F488E89DE099838883CACF8A3541F638
:1028E0008FE09DE0F8CFFC0181E08683878311862D
:1028F00010861286DF01A35BBF4F1D921D921D92B1
:102900001C9213971486138616861586108A1786CE
:10291000128A118A148A138A168A158A108E178AC7
:10292000128E118E5C961C9299971D921D921D928B
:102930001C92139714961D921D921D921C92139730
:1029400014961D921D921D921C92139714961C9220
:102950005E961C9211961C9212961C9211961C92D5
:1029600011961C9211961C9211961C9211961C9213
:1029700011961C9211968BEE90E111969C938E937A
:10298000129611961C921E92129687EE90E1119665
:102990009C938E93129611961C921E92129683EE21
:1029A00090E111969C938E93129611961C921E9212
:1029B00012968FED90E18D939C93EE57FF4F11820D
:1029C00010820895CF93DF93EC01FC01EE5DFC4F84
:1029D0001082EE58F1098081811103C0CE0140962A
:1029E00065DCFE01EB56FD4F8081811104C0CE01F4
:1029F0008C569F4F5BDCFE01EA56FD4F80818111B2
:102A000004C0CE01885E9E4F51DC64E670E080E039
:102A100090E0DF91CF910C945F0A0F931F93CF93B7
:102A2000DF938B01EA01AB01415051094433510559
:102A300008F0ECC02230310508F0E8C048E3429FBE
:102A4000F001439FF00D1124E80FF91FE60FF71F67
:102A500081E080836C2F232B09F4D4C061E0802FA8
:102A60000E94F309209751F460E0802F0E94C6096C
:102A7000CE01DF91CF911F910F910895CF3FD105E6
:102A800011F461E0BFC0F801ED50FD4FE491E15059
:102A9000E23108F0B2C0F0E08827EE5AFA4E8F4FCC
:102AA0000C947D5564156B1570157A158415FD15FC
:102AB0008E1596159E15A815B215BC15CB15D515F6
:102AC000FD15DF15E915F31584B5806884BDC7BD14
:102AD000D0E0C0E0CDCF84B5806284BDC8BDF8CF62
:102AE00080918000806880938000D0938900C0939B
:102AF0008800EECF80918000806280938000D09328
:102B00008B00C0938A00E4CF80918000886080931E
:102B10008000D0938D00C0938C00DACF8091B000FC
:102B200080688093B000C093B300D2CF8091B00092
:102B300080628093B000C093B400CACF80919000AF
:102B4000806880939000D0939900C0939800C0CF84
:102B500080919000806280939000D0939B00C093FE
:102B60009A00B6CF80919000886080939000D093B7
:102B70009D00C0939C00ACCF8091A00080688093A2
:102B8000A0008091A0008F7B8093A000D093A9002B
:102B9000C093A8009DCF8091A00080628093A00088
:102BA000D093AB00C093AA0093CF8091A00088601F
:102BB0008093A000D093AD00C093AC0089CF8091EA
:102BC0002001806880932001D0932901C0932801BF
:102BD0007FCF80912001806280932001D0932B01D0
:102BE000C0932A0175CF80912001886080932001D5
:102BF000D0932D01C0932C016BCF60E0C038D1057C
:102C00000CF03FCF802F0E94C60962CFC1E0D0E018
:102C10002FCFCF93DF93D0E0C0E0CE010E946D07AD
:102C2000882319F0CE010E943B022196C13ED105B6
:102C3000A1F7DF91CF91089508958FEF9FEF089549
:102C4000089508950895089508950895089508959C
:102C5000089508950895089508950895089508958C
:102C60000895089508950895089580912C079091EE
:102C70002D07892B41F481E090E00E94544D909300
:102C80002D0780932C0780912C0790912D07089594
:102C90000F931F93CF93DF938B01E7DFF801C2A15E
:102CA000D3A1868D978D8530910529F14CF4049739
:102CB000B1F090E080E0DF91CF911F910F910895E6
:102CC0008630910511F10B97A1F767E070E084E180
:102CD0009FE00E94180BBE0184E19FE009C064E000
:102CE00070E08BE09FE00E94180BBE018BE09FE03C
:102CF0000E949C0ADECF65E070E08EE09FE00E94BB
:102D0000180BBE018EE09FE0F3CF66E070E081E13A
:102D10009FE00E94180BBE0181E19FE0E9CF809106
:102D2000280790912907892B91F480E790E00E9471
:102D3000544DFC0131969C012B5C3F4F119217AA18
:102D4000E217F307D9F7909329078093280780911A
:102D500028079091290708954F925F926F927F9272
:102D6000AF92BF92CF92DF92EF92FF920F931F9399
:102D7000CF93DF93EB01D3DF8C01CAA8DBA84EA46D
:102D80005FA468A879A8AEA0BFA0EE8CFF8C4AA172
:102D90005BA19601B70141DEC301B2010E945F0A47
:102DA0009601A501B701C80138DE90E080E0DF910F
:102DB000CF911F910F91FF90EF90DF90CF90BF9038
:102DC000AF907F906F905F904F900895CF93DF9377
:102DD000EB01A5DF6AA98E8D0E94F30990E080E0E7
:102DE000DF91CF910895CF93DF93EB0198DF2AA96C
:102DF0003BA94AA15BA16E8D7F8D0FDE90E080E044
:102E0000DF91CF9108958091240790912507892B18
:102E100081F58FE090E00E94544DFC0115861486E8
:102E2000168610926B0710926C0710926D07109225
:102E30006E0710926F071092700710927107109230
:102E40007207109273071092740710927507109210
:102E500076071092E70B1092E80B1092E90B109294
:102E6000EA0B10926A0710926907909325078093E6
:102E7000240780912407909125070895C4DF85E4F5
:102E80000E949E0921E0892B09F420E02093EB0B9E
:102E9000BADF84E40E949E0921E0892B09F420E036
:102EA0002093EC0BB0DF83E40E949E0921E0892B84
:102EB00009F420E02093ED0BA6DF82E40E949E0936
:102EC00021E0892B09F420E02093EE0B9CDF81E4C4
:102ED0000E949E0921E0892B09F420E02093EF0B4A
:102EE00092DF80E40E949E0921E0892B09F420E012
:102EF0002093F00B089587DFC1CF85DFFC01168694
:102F000090E080E00895FC0101900020E9F73197FE
:102F1000AF01481B590BBC0181EF9BE00C940308E7
:102F20008F929F92AF92BF920F931F93CF93DF9395
:102F3000CDB7DEB7A1970FB6F894DEBF0FBECDBFF9
:102F400019A2423008F44AE08E010F5D1F4F842E13
:102F5000912CB12CA12CA50194010E942B54E62F99
:102F6000B901CA01EA30ECF4E05DD801EE938D01BD
:102F7000232B242B252B79F790E080E0109711F07C
:102F8000CD01C1DFA1960FB6F894DEBF0FBECDBF55
:102F9000DF91CF911F910F91BF90AF909F908F9035
:102FA0000895E95CE2CFCF92DF92EF92FF92CF9348
:102FB000DF9397FF18C06B017C018DE20E94E4084B
:102FC000EC0166277727CB016C197D098E099F09D3
:102FD0004AE0A6DF8C0F9D1FDF91CF91FF90EF900D
:102FE000DF90CF9008954AE0DF91CF91FF90EF906E
:102FF000DF90CF9095CFBC01990F880B990BD3CF61
:1030000082CF882319F087E696E0FACF80E696E033
:10301000FCCF86E793E0F4DF6091E70B7091E80B5B
:103020008091E90B9091EA0BBEDF86E596E0E8CF50
:103030000F931F93CF93DF938C01EB0188E593E00F
:10304000DFDF8DED93E0DCDFF80184810E94E4088E
:10305000CE01D1DFD8DEDF91CF911F910F91D9CF73
:10306000EF92FF920F931F93CF93DF93182F092FA7
:103070007B016115710569F50E949E0931E020E030
:10308000019709F030E0C32FD22F82E0E816F10457
:1030900008F045C089E793E0B3DF8DED93E0B0DF42
:1030A0008DE793E0ADDF812F902FA5DF8DED93E0CD
:1030B000A7DF81E297E0A4DFCE019DDFA4DEA9DFD8
:1030C00090E080E0DF91CF911F910F91FF90EF9002
:1030D0000895D0E0C0E061307105B9F6812F163354
:1030E00010F08AEC810F20917B00982F9870277F39
:1030F000922B90937B008770806480937C008091FA
:103100007A00806480937A0080917A0086FDFCCFFB
:1031100080917800C0917900DC2FC82FB6CF81E074
:1031200090E0D0CF0F931F93CF93DF93FC012081CA
:10313000318121153105C1F1EC01822F0E949E09D8
:1031400021E0892B09F420E02B876A85261701F1FD
:103150001E821F82188619860E811F812885398557
:103160008A819B81AC81BD81081719072A073B071B
:10317000DCF081E0682788810E94C609D0DD70E01C
:1031800060E088819981DF91CF911F910F9168CF85
:103190008E819F81A885B9850196A11DB11D8E8361
:1031A0009F83A887B987D8CFDF91CF911F910F91C7
:1031B0000895CF93DF93EB01B2DD6AA97BA98E8DD1
:1031C0009F8D4EDF90E080E0DF91CF9108952F92A8
:1031D0003F924F925F926F927F928F929F92AF92A7
:1031E000BF92CF92DF92EF92FF920F931F93CF93F4
:1031F000DF93CDB7DEB762970FB6F894DEBF0FBE90
:10320000CDBF1C018C010C5B1F4F1E870D87D801A1
:103210004D915D916D917C917C01B8E4EB0EF11CB8
:10322000F70180819181A281B3816101FCE4CF0E1D
:10323000D11CF60120810A5D1F4F58017F964F0176
:103240002223A1F1F10122A9F801208321E0F40158
:103250002083411551056105710559F4F10102A161
:1032600013A124A135A1EB59FF4F008311832283C1
:1032700033838101005C1F4FF801408051806280E0
:103280007380910127593F4F5901481659066A0624
:103290007B06B4F5481759076A077B07DCF1D601AE
:1032A0008C91811137C0D5011C923AC121E0481799
:1032B00059076A077B070CF020E0F50120832A01FB
:1032C0003B0177FF07C0442455243201441A550AB4
:1032D000660A770A8C019D01B7FF07C000271127F6
:1032E0009801081B190B2A0B3B0BBB24B394401607
:1032F0005106620673060CF4B12CF401B082A9CF1A
:1033000084159505A605B70554F684179507A607F5
:10331000B7072CF6F5018081882329F2D6018C911C
:1033200081110DC0F60180818111BDCFD4016C9156
:1033300081E06827C1015AD88111B5CF05C060E08E
:10334000C10154D88111EECFD1019A962D913D91B2
:103350004D915C919D9729833A834B835C835E9664
:103360002D913D914D915C9191972D833E834F839B
:10337000588792962D913D914D915C919597298713
:103380003A874B875C87F70180819181A281B38165
:10339000ED85FE85C080D180E280F380F801408118
:1033A000518162817381F101E359FF4F108231969F
:1033B00010823101FFE66F0E711CF3011082910142
:1033C00020593F4FF9011082329610824C015D0165
:1033D000841A950AA60AB70AB7FE08C0B094A0944A
:1033E00090948094811C911CA11CB11C4817590712
:1033F0006A077B072CF0C81AD90AEA0AFB0A04C03C
:10340000C41AD50AE60AF70AD501C401B595A795ED
:10341000979587958D879E87AF87B88B81010E58CA
:103420001F4F8C149D04AE04BF0408F09FC0D1014F
:1034300096960D90BC91A02DBA8BA98B81E0F901D5
:103440008083D8018C93F1018285882309F45CC0C4
:103450000E94900AD10118960D911C91012E000C2A
:10346000220B330B601B710B820B930B693E734075
:103470008105910508F448C00E94900AF101718706
:1034800060878FE793E0BCDD83E893E0B9DD60E01F
:1034900070E0CB0188DD89E893E0B2DDC701B601B9
:1034A00082DD8FE893E0ACDDC501B4017CDD85E908
:1034B00093E0A6DD4AE06D857E858F85988930DDB5
:1034C0008CE993E09DDD69817A818B819C816BDD44
:1034D00082EA93E095DD69857A858B859C8563DD3D
:1034E00088EA93E08DDD6D817E818F8198855BDD3B
:1034F0008EEA93E085DD8DED93E082DD89899A89FE
:103500007ADD86E596E07CDDF101EB59FF4F098914
:103510001A89C801B0E0A0E080839183A283B383BD
:1035200060E0C1010E94F611882339F0F101EC5BE3
:10353000FF4F108211821282138262960FB6F894A6
:10354000DEBF0FBECDBFDF91CF911F910F91FF90D6
:10355000EF90DF90CF90BF90AF909F908F907F9033
:103560006F905F904F903F902F9008952D853E85EE
:103570004F8558892C153D054E055F0508F450C050
:1035800089819A81AB81BC818C159D05AE05BF05F3
:1035900044F4AD81BE811196BA8BA98B81E0F30111
:1035A0004FCFC701B6010E94D3522B013C01698164
:1035B0007A818B819C810E94D3529B01AC01C30113
:1035C000B2010E94C1542B013C016D817E818F812B
:1035D000988529853A854B855C85621B730B840B26
:1035E000950B0E94D3529B01AC01C301B2010E9412
:1035F00032532B013C0169857A858B859C850E941D
:10360000D3529B01AC01C301B2010E945D540E94E0
:1036100029557A8B698B81E0F101E359FF4F10CF77
:10362000D501C40129813A814B815C81821B930BB6
:10363000A40BB50BC816D906EA06FB065CF44D814F
:103640005E814E5F5F4F5A8B498B81E0F101E159FA
:10365000FF4FF6CEC501B4016C197D098E099F0993
:103660000E94D3522B013C0169817A818B819C811C
:103670000E94D3529B01AC01C301B2010E94C1540C
:103680002B013C016D817E818F81988529853A854A
:103690004B855C85621B730B840B950B0E94D35288
:1036A0009B01AC01C301B2010E9432532B013C01CA
:1036B00069857A858B859C850E94D3529B01AC01DC
:1036C000C301B2010E945D540E9429557A8B698B17
:1036D00081E0F101E259FF4FB3CECF92DF92EF923A
:1036E000FF92CF93DF93EB01CB010E946D078823FC
:1036F00051F1FE01EE0FFF1FEE0FFF1FEC5AF74FC7
:10370000C080D180E280F38084EB93E079DC8DEDA2
:1037100093E076DC8DE793E073DCCE016CDC8DED1D
:1037200093E06EDC81E297E06BDCC701B6013BDC25
:103730006ADB6FDC90E080E0DF91CF91FF90EF904B
:10374000DF90CF90089588EB93E05ADCF3CF8AEDB9
:1037500093E056DC88E092E053DC55DB5ADC90E0E5
:1037600080E00895CF93DF938FED93E049DC83EE03
:1037700093E046DCCBEEDBE0888143DC87EE93E030
:103780003FDC89813EDC8BEE93E03ADC8A8139DCD8
:103790008FEE93E035DC8B8134DC83EF93E030DC1B
:1037A0008C812FDC87EF93E02BDC8D812ADCDF918D
:1037B000CF912FCC28DBD6CF8BEF93E021DC23DB1E
:1037C0005DDB21DBCFDFABDA70E060E088E090E02A
:1037D00047DCA5DA70E060E089E090E041DC9FDA48
:1037E00070E060E08AE090E03BDC99DA70E060E055
:1037F0008DE090E035DC90E080E008954F925F929C
:103800006F927F928F929F92AF92BF92CF92DF92F0
:10381000EF92FF920F931F93CF936B017C01742E55
:10382000AC019B010E945E55882391F082E094E0F8
:10383000CF911F910F91FF90EF90DF90CF90BF90AD
:10384000AF909F908F907F906F905F904F905BCBE9
:1038500046015701E894B7F82FEF3FEF4FE75FE7D6
:10386000C501B4010E945E5581110DC02FEF3FEFDD
:103870004FE75FE7C501B4010E94CD5218161CF452
:1038800086E094E0D5CF2FEF3FEF4FE75FE4C7012D
:10389000B6010E945A5518161CF48AE094E0C8CF6D
:1038A0002FEF3FEF4FE75FECC701B6010E94CD520B
:1038B00087FDF3CF20E030E0A901C701B6010E94E7
:1038C000CD5210E000E087FF08C08DE20E94E408BE
:1038D0008C01F7FAF094F7F8F094C0E060E070E043
:1038E00080E09FE37C1641F020E030E040E251E4CC
:1038F0000E94C154CF5FF6CFA70196010E945D548C
:103900002B013C010E942E554B015C014AE008DB73
:103910007C01E00EF11ECC23A9F1C501B4010E9487
:10392000D1529B01AC01C301B2010E945C544B0116
:103930005C018EE20E94E408E80EF91EC15010F10D
:1039400020E030E040E251E4C501B4010E9432536E
:103950002B013C010E942E554B01B12CA12C4AE0B9
:10396000C501B401DDDAE80EF91EC501B4010E94FB
:10397000D1529B01AC01C301B2010E945C544B01C6
:103980005C01DCCFC701CF911F910F91FF90EF90A9
:10399000DF90CF90BF90AF909F908F907F906F906F
:1039A0005F904F9008958F929F92AF92BF92CF9267
:1039B000DF92EF92FF920F931F93CF93DF93EC016F
:1039C00086E292E01DDB83E294E01ADB6E0184E67E
:1039D000C81A8EEFD80AC6010E9421100E94D35245
:1039E0004B015C01FE01EB54FD4F608171818281CE
:1039F00093810E94D3529B01AC01C501B4010E9486
:103A0000C15442E0FBDE83E394E0FADA7E01E4E3B2
:103A1000EE1AEEEFFE0AC7010E9421100E94D35257
:103A20004B015C01FE01E754FD4F60817181828191
:103A300093810E94D3529B01AC01C501B4010E9445
:103A4000C15442E0DBDE83E494E0DADA8E01045014
:103A50001E4FC8010E9421100E94D3524B015C01ED
:103A6000C354DD4F688179818A819B810E94D35242
:103A70009B01AC01C501B4010E94C15442E0BEDE0D
:103A8000C2D9C7DA82E292E0BBDA83E294E0B8DA24
:103A9000F601A68DB78D20893189428953890E940C
:103AA000255481DA83E394E0ABDAF701A68DB78D74
:103AB00020893189428953890E94255474DA83E42C
:103AC00094E09EDAF801A68DB78D2089318942896C
:103AD00053890E94255467DA96D9DF91CF911F91BF
:103AE0000F91FF90EF90DF90CF90BF90AF909F909D
:103AF0008F908FCACF92DF92EF92FF92CF93DF9396
:103B0000EC0188819981AA81BB81181619061A06D1
:103B10001B0644F081E090E0A0E0B0E08883998348
:103B2000AA83BB838C819D81AE81BF811816190643
:103B30001A061B0644F081E090E0A0E0B0E08C8320
:103B40009D83AE83BF8388859985AA85BB8518161A
:103B500019061A061B0644F081E090E0A0E0B0E0F0
:103B600088879987AA87BB878EE094E049DA83E249
:103B700094E046DA60916B0770916C0780916D0755
:103B800090916E070E94D3526B017C01688179810C
:103B90008A819B810E94D3529B01AC01C701B6016F
:103BA0000E94C15442E02ADE83E394E029DA609166
:103BB0006F077091700780917107909172070E9452
:103BC000D3526B017C016C817D818E819F810E942B
:103BD000D3529B01AC01C701B6010E94C15442E01F
:103BE0000DDE83E494E00CDA609173077091740742
:103BF00080917507909176070E94D3526B017C01EA
:103C0000688579858A859B850E94D3529B01AC018A
:103C1000C701B6010E94C15442E0F0DDDF91CF91AF
:103C2000FF90EF90DF90CF90F4C9EDD863DF90E084
:103C300080E008950C94F04D0C94F04D0C94F04DF0
:103C40000C94F04D0C94F04D0C94F04D0C94F04D00
:103C50000C94F04D0C94F04D0C94F04D0C94F04DF0
:103C60000C94F04D0C94F04D0C94F04D0C94F04DE0
:103C70000C94F04D0C94F04D0C94F04D0C94F04DD0
:103C80000C94F04D0C94F04D0C94F04D0C94F04DC0
:103C9000CF92DF92EF92FF920F931F93CF93DF9318
:103CA0008C016A017B01EC01CC0FDD1F642FCE017A
:103CB0000E94F1539927F7FC9A958F2D7E2D6D2D3B
:103CC000CE0101960E94F1530D58110903301105E0
:103CD00088F4B701992777FD9095892FCE014496F6
:103CE0000E94F1536F2D772788279927CE0145969B
:103CF0000E94F15390E080E0DF91CF911F910F91EE
:103D0000FF90EF90DF90CF9008954F925F926F9267
:103D10007F928F929F92AF92BF92CF92DF92EF925B
:103D2000FF920F931F93CF93DF938C01EC01CC0F85
:103D3000DD1FCE010E94E953882E912CB12CA12CBD
:103D4000CE0101960E94E953C82ED12CF12CE12C12
:103D50000D5811090330110508F05AC0CE014496E0
:103D60000E94E953482E512C712C612CCE014596AE
:103D70000E94E953082F10E030E020E08FEF481652
:103D800051046104710429F50F3F11052105310526
:103D900001F58FEF88169104A104B104C9F58FEFE6
:103DA000C816D104E104F10499F56FEF7FEFCB0160
:103DB000DF91CF911F910F91FF90EF90DF90CF9007
:103DC000BF90AF909F908F907F906F905F904F903B
:103DD000089500381105210531053CF7FE2CED2C26
:103DE000DC2CCC24C701B601680D791D8A1D9B1DF2
:103DF000320155244424640D751D861D971D302FF6
:103E0000222711270027600F711F821F931FD0CF19
:103E100000E010E09801412C512C320180E8C816D6
:103E2000D104E104F104D4F2C0CFEF92FF920F93DA
:103E30001F93CF93DF938091260790912707892BBB
:103E400051F584E090E00E94544D7C0190E080E0C8
:103E50005CDF1616170654F1C7010E940916D0E060
:103E6000C0E0CE010E946D07882369F0FE01EE0FCD
:103E7000FF1FEE0FFF1FEC5AF74F40815181628107
:103E80007381CE0105DF2196C639D10551F7F09235
:103E90002707E09226078091260790912707DF9158
:103EA000CF911F910F91FF90EF90089583E090E0E4
:103EB0002CDF613071058105910531F504E518E0CD
:103EC000D0E0C0E0CE010E946D078823B1F0CE01A2
:103ED0001CDFF80160837183828393836F3F7F4F80
:103EE0008F4F9F4F51F4CE010E943B02F801408159
:103EF000518162817381CE01CBDE21960C5F1F4F11
:103F0000C13ED105F9F6C3CFC7010E940916BFCF44
:103F10002F923F924F925F926F927F928F929F92D9
:103F2000AF92BF92CF92DF92EF92FF920F931F93C7
:103F3000CF93DF93EC0179DFFE01E551FD4F8091D6
:103F4000100A9091110A918380836FDFFE01E35183
:103F5000FD4F8091140A9091150A9183808365DF4B
:103F6000FE01E151FD4F8091180A9091190A918349
:103F700080835BDF8E010F501D4F6091380A709176
:103F8000390A80913A0A90913B0A0E94D352F80173
:103F9000608371838283938348DF1E01FBE02F1AC5
:103FA000FDEF3F0A60913C0A70913D0A80913E0A04
:103FB00090913F0A0E94D352F10160837183828302
:103FC000938333DF20E030E048EC52E4F801608175
:103FD0007181828193810E94C1542B013C0120E0B8
:103FE00030E048EC52E4F10160817181828193817B
:103FF0000E94C1544B015C016091400A7091410ADA
:104000008091420A9091430A0E94D35220E030E00E
:1040100048EC52E40E94C1546B017C012AE037ED68
:1040200043E25CE3C301B2010E945A5518160CF03A
:104030002AC120E030E046EC52E4C301B2010E9404
:10404000CD5287FD06C0412C512C56EC652E52E412
:10405000752EF80140825182628273822AE037ED28
:1040600043E25CE3C501B4010E945A5518160CF0F6
:1040700013C120E030E046EC52E4C501B4010E94D7
:10408000CD5287FD06C0812C912C36ECA32E32E454
:10409000B32EF10180829182A282B3822AE037EDB1
:1040A00043E25CE3C701B6010E945A5518160CF0B2
:1040B000FCC020E030E046EC52E4C701B6010E94AB
:1040C000CD5287FD06C0C12CD12C96ECE92E92E48E
:1040D000F92EFE01E750FD4FC082D182E282F382C9
:1040E000A4DE8091F8099091F909FE01FD5F9183AA
:1040F00080839BDE8091FC099091FD09FE01EE5FBB
:10410000FC4F9183808391DE8091000A9091010A97
:10411000FE01EC5FFC4F9183808387DE8091200A53
:104120009091210AA091220AB091230AFE01EA5F30
:10413000FC4F80839183A283B38377DE8091240A2E
:104140009091250AA091260AB091270AFE01E65F08
:10415000FC4F80839183A283B38367DE8091280A1A
:104160009091290AA0912A0AB0912B0AFE01E25FE0
:10417000FC4F80839183A283B38357DE8091480AEA
:104180009091490AFE01EE5EFC4F918380834DDEE3
:1041900080914C0A90914D0AFE01EC5EFC4F918398
:1041A000808343DE8091500A9091510AFE01EA5EBD
:1041B000FC4F9183808339DE8091600A9091610A7F
:1041C000FE01E85EFC4F918380832FDE8091640ABC
:1041D0009091650AFE01E65EFC4F9183808325DEA7
:1041E0008091680A9091690AFE01E45EFC4F918318
:1041F00080831BDE8091E8099091E909A091EA098A
:10420000B091EB09FE01E350FD4F0197A105B10507
:1042100009F054C081E0808308DE8091EC09909120
:10422000ED09A091EE09B091EF09FE01E250FD4FBA
:104230000197A105B10509F043C081E08083F5DD58
:104240008091F0099091F109A091F209B091F309E0
:10425000C150DD4F0197A105B105A1F581E088832B
:10426000DF91CF911F910F91FF90EF90DF90CF9052
:10427000BF90AF909F908F907F906F905F904F9086
:104280003F902F9008954AE0442E47ED542E43E28C
:10429000642E4CE3742EDDCE2AE0822E27ED922E82
:1042A00023E2A22E2CE3B22EF4CE8AE0C82E87EDB4
:1042B000D82E83E2E82E8CE3F82E0BCF1082ACCF01
:1042C0001082BDCF1882CCCFEF92FF920F931F9335
:1042D000CF93DF93EC01A9DD009198091091990922
:1042E000A4DDE090A809F090A9099FDD2091C00904
:1042F0003091C109A701B801CE0140960E94621316
:1043000094DD00919C0910919D098FDDE090AC092E
:10431000F090AD098ADD2091C4093091C509A7014B
:10432000B801CE018C569F4F0E9462137EDD009132
:10433000A0091091A10979DDE090B009F090B109D0
:1043400074DD2091C8093091C909A701B801CE01D7
:10435000885E9E4FDF91CF911F910F91FF90EF905C
:104360000C9462132F923F924F925F926F927F92C2
:104370008F929F92AF92BF92CF92DF92EF92FF9275
:104380000F931F93CF93DF93CDB7DEB765970FB62B
:10439000F894DEBF0FBECDBF998B888B46DDE889D0
:1043A000F989ED5BFD4F81E0409120095091210991
:1043B0006091220970912309452B462B472B09F464
:1043C00080E0808332DDE889F989EC5BFD4F81E094
:1043D000409124095091250960912609709127097F
:1043E000452B462B472B09F480E080831EDDE889AE
:1043F000F989EB5BFD4F81E0409128095091290933
:1044000060912A0970912B09452B462B472B09F403
:1044100080E080830ADD8091700990917109A091FC
:104420007209B0917309E889F989EA5BFD4F8083CD
:104430009183A283B383F9DC80917409909175090B
:10444000A0917609B0917709E889F989E65BFD4F7B
:1044500080839183A283B383E8DC80917809909173
:104460007909A0917A09B0917B09E889F989E25B21
:10447000FD4F80839183A283B383D7DC8091480969
:1044800090914909A0914A09B0914B09E889F989AD
:10449000E25AFD4F80839183A283B383C6DC80916F
:1044A0004C0990914D09A0914E09B0914F09E889AE
:1044B000F989EE59FD4F80839183A283B383B5DCE4
:1044C0008091500990915109A0915209B0915309DE
:1044D000E889F989EA59FD4F80839183A283B383E8
:1044E000A4DC8091580990915909A0915A09B09182
:1044F0005B09E889F989E659FD4F80839183A2839E
:10450000B38393DC80915C0990915D09A0915E0971
:10451000B0915F09E889F989E259FD4F8083918361
:10452000A283B38382DC8091600990916109A0919C
:104530006209B0916309E889F989EE58FD4F8083DB
:104540009183A283B38371DC8091F8089091F9087C
:10455000A091FA08B091FB08E889F989EA58FD4F63
:1045600080839183A283B38360DC8091FC08909167
:10457000FD08A091FE08B091FF08E889F989E65886
:10458000FD4F80839183A283B3834FDC8091000928
:1045900090910109A0910209B0910309E889F98974
:1045A000E258FD4F80839183A283B3833EDCE88988
:1045B000F989EE57FD4F81E02091D0083091D10864
:1045C0002130310509F080E080832FDCE889F9890A
:1045D000ED57FD4F81E02091D4083091D50821306E
:1045E000310509F080E0808320DCE889F989EC5707
:1045F000FD4F81E02091D8083091D9082130310554
:1046000009F080E0808311DCE889F989E056FD4FEC
:1046100081E04091A8085091A9086091AA08709182
:10462000AB08452B462B472B09F480E08083FDDB4C
:10463000E889F989EF55FD4F81E04091AC08509130
:10464000AD086091AE087091AF08452B462B472B03
:1046500009F480E08083E9DBE889F989EE55FD4FB4
:1046600081E04091B0085091B1086091B20870911A
:10467000B308452B462B472B09F480E08083D5DB1C
:10468000E889F989ED55FD4F81E04091800950910D
:1046900081096091820970918309452B462B472B34
:1046A00009F480E08083C1DBE889F989EC55FD4F8E
:1046B00081E040918409509185096091860970914B
:1046C0008709452B462B472B09F480E08083ADDB1F
:1046D000E889F989EB55FD4F81E0409188095091B7
:1046E000890960918A0970918B09452B462B472BCC
:1046F00009F480E0808399DBE889F989EA55FD4F68
:1047000081E02091B8083091B9082130310509F0D5
:1047100080E080838ADBE889F989E955FD4F81E0F3
:104720002091BC083091BD082130310509F080E0AE
:1047300080837BDBE889F989E855FD4F81E0209192
:10474000C0083091C1082130310509F080E0808334
:104750006CDB8091800890918108A0918208B091D3
:104760008308E889F989E755FD4F80839183A28307
:10477000B3835BDB8091840890918508A0918608C3
:10478000B0918708E889F989E355FD4F80839183CB
:10479000A283B3834ADB8091880890918908A09115
:1047A0008A08B0918B08E889F989EF54FD4F80831E
:1047B0009183A283B38339DBE889F989EC56FD4FF5
:1047C00081E0409190085091910860919208709119
:1047D0009308452B462B472B09F480E0808325DB8B
:1047E000E889F989EB56FD4F81E04091940850919A
:1047F00095086091960870919708452B462B472B9A
:1048000009F480E0808311DBE889F989EA56FD4FDD
:1048100081E0409198085091990860919A087091B0
:104820009B08452B462B472B09F480E08083FDDA5B
:104830008091880A9091890AA0918A0AB0918B0A86
:10484000E889F989EB57FD4F80839183A283B38375
:10485000ECDA80918C0A90918D0AA0918E0AB09129
:104860008F0AE889F989E757FD4F80839183A283F6
:10487000B383DBDA8091900A9091910AA091920A19
:10488000B091930AE889F989E357FD4F80839183BA
:10489000A283B383CADAE889F989E956FD4F81E03A
:1048A0002091E8083091E9082130310509F080E0D5
:1048B0008083E889F989E856FD4F1082E889F989F3
:1048C000E756FD4F1082B1DAE889F989E656FD4FC7
:1048D00081E02091E4083091E5082130310509F0AC
:1048E00080E08083E889F989E556FD4F1082E889E8
:1048F000F989E456FD4F108298DAE889F989E35680
:10490000FD4F81E0209108093091090921303105DE
:1049100009F080E0808389DAE889F989E256FD4F61
:1049200081E020910C0930910D092130310509F009
:1049300080E080837ADAE889F989E156FD4F81E0E9
:1049400020911009309111092130310509F080E0E2
:1049500080836BDAE889F989EF56FD4F81E0209179
:10496000980A3091990A2130310509F080E080835E
:104970005CDAE889F989EE56FD4F81E020919C0AC6
:1049800030919D0A2130310509F080E080834DDAB5
:10499000E889F989ED56FD4F81E02091A00A309118
:1049A000A10A2130310509F080E080833EDA0889D0
:1049B00019890B541D4F8091300990913109A091B4
:1049C0003209B0913309F80180839183A283B383C4
:1049D0002CDAE888F988F7E4EF1AFDEFFF0A8091F6
:1049E000340990913509A0913609B0913709F70142
:1049F00080839183A283B38318DA809138099091E0
:104A00003909A0913A09B0913B09C888D988F3E4E3
:104A1000CF1AFDEFDF0AF60180839183A283B3836F
:104A2000F8014081518162817381141615061606C2
:104A3000170644F041E050E060E070E040835183AD
:104A400062837383F70140815181628173811416FF
:104A500015061606170644F041E050E060E070E0ED
:104A60004083518362837383181619061A061B0646
:104A70004CF081E090E0A0E0B0E0F601808391830B
:104A8000A283B3830E940317FC01D6018D909D90F1
:104A9000AD90BC90D7014D915D916D917C91D80105
:104AA0000D911D912D913C910083118322833383BD
:104AB000448355836683778380869186A286B386F6
:104AC000E889F9897096FB83EA83E889F989EF56CA
:104AD000FD4F20812983E889F989EB57FD4F8081BB
:104AE0009181A281B381E889F989E356FD4F208144
:104AF0002D83E889F989EA55FD4F20812C83E889C7
:104B0000F989E956FD4F20812987E889F989E65618
:104B1000FD4F20812A87E889F989ED55FD4F2081D5
:104B20002E87E889F989E056FD4F20812F87E88993
:104B3000F989EE57FD4F2080E889F989ED5BFD4F3B
:104B40003080E889F989E755FD4F408151816281C4
:104B50007381E889F989EA58FD4F0081118122812A
:104B60003381E889F989E659FD4FC080D180E28020
:104B7000F380E889F989E25AFD4F80809180A28014
:104B8000B380E889F989EA5BFD4F408051806280FB
:104B90007380E889F98946A657A660AA71AA82AAF5
:104BA00093AAA4AAB5AAC6AAD7AAE0AEF1AE02AF4C
:104BB00013AF24AF35AFFE96408351836283738376
:104BC000E889F989EE5BFF4F3082E889F989ED5B6E
:104BD000FF4F20822F85E889F98923A72E8524A7F6
:104BE0002C8125A740E450E060E070E0EA5BFF4FD5
:104BF0004083518362837383E889F989EC5BFF4FBB
:104C00002A852083E889F989EB5BFF4F298520837A
:104C1000E889F989E65BFF4F2D812083E889F989CE
:104C2000E55BFF4F80839183A283B383E889F98991
:104C3000E15BFF4F89818083A889B9895B968D915B
:104C40009C915C978633910509F037C28DED90E118
:104C5000FD01EC57FF4F91838083329611821082C1
:104C60008BED90E13696918380833296118210828B
:104C7000E889F98981A192A14A97D1F489ED90E15F
:104C8000E857FF4F91838083E889F989E657FF4F02
:104C90001182108287ED90E1E889F989E057FF4F92
:104CA00091838083E889F989EE56FF4F1182108243
:104CB000088919890C561F4FE889F989EE56FD4F6E
:104CC00020812983E889F989E757FD4F8081918107
:104CD000A281B3818D839E83AF83B887E889F989E8
:104CE000E256FD4F90819C83E889F989E955FD4F93
:104CF000A081A987E889F989E856FD4FB081BA8774
:104D0000E889F989E556FD4F20812E87E889F989E0
:104D1000EC55FD4F2080E889F989EF55FD4F308033
:104D2000E889F989ED57FD4F3081E889F989EC5B15
:104D3000FD4F2081E889F989E355FD4F80819181FC
:104D4000A281B381E889F989E658FD4F40815181FC
:104D500062817381E889F989E259FD4FC080D18071
:104D6000E280F380E889F989EE59FD4F80809180D7
:104D7000A280B380E889F989E65BFD4F40805180CD
:104D800062807380F801468E578E60A271A282A263
:104D900093A2A4A2B5A2C6A2D7A2E0A6F1A642A75A
:104DA00053A764A775A786A797A7A0ABB1AB22AB03
:104DB00033AB338E248E2985258F80E490E0A0E0EC
:104DC000B0E086AB97ABA0AFB1AF2E8524AB8A85A0
:104DD00085AB9C8192AF8D819E81AF81B88583AF79
:104DE00094AFA5AFB6AF298127AF8385948586336D
:104DF000910509F094C18DED90E1E889F989E85FAA
:104E0000FE4F91838083E889F989E65FFE4F118226
:104E100010828BED90E1E889F989E05FFE4F918384
:104E20008083E889F989EE5EFE4F11821082D801F5
:104E300051968D919C914A97E1F489ED90E1E88932
:104E4000F989E45FFE4F91838083E889F989E25F05
:104E5000FE4F1182108287ED90E1E889F989EC5EBE
:104E6000FE4F91838083E889F989EA5EFE4F1182C3
:104E70001082E888F988B8EEEB1ABEEFFB0AE889E1
:104E8000F989ED56FD4F20812983E889F989E35797
:104E9000FD4F80819181A281B3818D839E83AF83F9
:104EA000B887E889F989E156FD4F90819C83E889AC
:104EB000F989E855FD4F3080E889F989E756FD4FBB
:104EC000A081A987E889F989E456FD4F2080E88907
:104ED000F989EB55FD4FC080E889F989EE55FD4F02
:104EE000D080E889F989EC57FD4F3081E889F9894C
:104EF000EB5BFD4F2081E889F989EF54FD4F8081FC
:104F00009181A281B3818A8B9B8BAC8BBD8BE8890D
:104F1000F989E258FD4F4081518162817381E889AE
:104F2000F989EE58FD4F80809180A280B380E88996
:104F3000F989EA59FD4F4080518062807380E88989
:104F4000F989E25BFD4F80819181A281B381F701F4
:104F5000868F978FA0A3B1A342A253A264A275A289
:104F600086A297A2A0A6B1A642A753A764A775A739
:104F70008A899B89AC89BD8986A797A7A0ABB1AB6D
:104F800022AB33ABD38EC48E358E80E490E0A0E0AC
:104F9000B0E086AB97ABA0AFB1AF24AA298525AB13
:104FA0008C8182AF8D819E81AF81B88583AF94AFB4
:104FB000A5AFB6AF298127AF838594858633910548
:104FC00009F0D5C08DED90E1E889F989E457FE4FED
:104FD00091838083E889F989E257FE4F118210821C
:104FE0008BED90E1E889F989EC56FE4F918380833F
:104FF000E889F989EA56FE4F11821082D70151964D
:105000008D919C914A97E1F489ED90E1E889F989C5
:10501000E057FE4F91838083E889F989EE56FE4F71
:105020001182108287ED90E1E889F989E856FE4FF8
:1050300091838083E889F989E656FE4F11821082B8
:105040008889998941D9E889F989EC56FD4F808191
:10505000882309F4B4C08A819B810E946811E88981
:10506000F989EB56FD4F8081882309F4ADC0C80152
:105070000E946811E889F989EA56FD4F80818823EA
:1050800009F4A6C0C70165960FB6F894DEBF0FBE3F
:10509000CDBFDF91CF911F910F91FF90EF90DF90E7
:1050A000CF90BF90AF909F908F907F906F905F90C8
:1050B0004F903F902F900C9468118C339105D9F448
:1050C00085ED90E1E889F989EC57FF4F9183808362
:1050D000E889F989EA57FF4F1182108283ED90E148
:1050E000E889F989E457FF4F91838083E889F9893A
:1050F000E257FF4FBBCD8E9709F0BACD8DEC90E112
:10510000E889F989EC57FF4F91838083E889F98911
:10511000EA57FF4F1182108287EC90E1E1CF8C3388
:10512000910589F485ED90E1E889F989E85FFE4F02
:1051300091838083E889F989E65FFE4F11821082AE
:1051400083ED90E168CE8E9709F071CE8DEC90E101
:10515000E889F989E85FFE4F91838083E889F989BE
:10516000E65FFE4F1182108287EC90E154CE8C33C3
:10517000910589F485ED90E1E889F989E457FE4FBE
:1051800091838083E889F989E257FE4F118210826A
:1051900083ED90E127CF8E9709F030CF8DEC90E131
:1051A000E889F989E457FE4F91838083E889F9897A
:1051B000E257FE4F1182108287EC90E113CF8A8173
:1051C0009B810E9456114BCFC8010E94561152CFAD
:1051D000C70165960FB6F894DEBF0FBECDBFDF9155
:1051E000CF911F910F91FF90EF90DF90CF90BF90E4
:1051F000AF909F908F907F906F905F904F903F9077
:105200002F900C945611AF92BF92CF92DF92EF92F3
:10521000FF920F931F93CF93DF93EC018AE190E00D
:105220009C8F8B8F8BE190E09E8F8D8F89E190E03A
:1052300098A38F8F8FE090E09AA389A38EE190E0EE
:105240009CA38BA38EE090E09EA38DA385E490E0C9
:1052500098A78FA384E490E09AA789A7FE01EC5653
:10526000FF4F80E290E09487838781E290E0968709
:1052700085878FE190E0908B8787128A118A148A44
:10528000138A168A158A83E490E0908F878B82E4D4
:1052900090E0928F818FEC57FF4F83E290E09487EC
:1052A000838784E290E09687858782E290E0908B06
:1052B0008787128A118A148A138A168A158A81E4CA
:1052C00090E0908F878B80E490E0928F818FEB5DF0
:1052D000FE4F118210823296118210823296118214
:1052E0001082CE013FD8CE010E94881FCE01845685
:1052F0009E4F41E050E0FC0157A746A7DE01A453B2
:10530000BE4F24E030E09F963C932E939E975E0123
:10531000F4E0AF1AFEEFBF0A28E030E0F50137A74E
:1053200026A720E130E0FC013183208321E130E039
:10533000358324832FEF3FEF338322833783268304
:10534000628560876385618767E170E011967C9371
:105350006E9368E170E015967C936E9314971396A4
:105360003C932E93129717963C932E9316971A966A
:105370006C911A9718966C9318971B966C911B97C3
:1053800019966C9319976DE170E0F5017183608354
:105390006CE170E0758364833383228337832683D3
:1053A0006285608763856187BE01685E7C4FFB0113
:1053B000608171818E010A5F1C4FF801C080D1802D
:1053C000E280F38006501109F80100811181FC018F
:1053D000158F048FC48AD58AE68AF78A61307105F1
:1053E00009F04EC0378F268FCE01865E9C4FFC01A0
:1053F000808191819E01265F3C4FF901408151815E
:105400006281738128503109F901208131815D96D3
:105410003C932E935C9754964D935D936D937C9340
:105420005797019781F58FEF9FEF5F969C938E932F
:105430005E97DE01A45EBC4F8D919C9111971E97E3
:105440004D915D916D917C91CC5FDC4F28813981CC
:10545000F501358F248F448B558B668B778B0197A5
:10546000A9F48FEF9FEF978F868FDF91CF911F91D8
:105470000F91FF90EF90DF90CF90BF90AF90089585
:10548000578F468FB1CF81E090E0CFCF81E090E0A1
:10549000EACFCF92DF92EF92FF920F931F93CF93B9
:1054A000DF937C016B018A01E9010E94151FF6015F
:1054B000EE0FFF1FEE0FFF1FEC5AF74F8081918117
:1054C000F701918380830E94151F000F111F000FA9
:1054D000111FF801EC5AF74F81E040815181628140
:1054E0007381413051056105710509F080E0F701D4
:1054F00082870E94151FCC0FDD1FCC0FDD1FCC5AF9
:10550000D74F88819981AA81BB81F70182839383D8
:10551000A483B5831682178210861186DF91CF91FE
:105520001F910F91FF90EF90DF90CF900895CF9350
:10553000DF93EC012AEC30E04BEC50E069EC70E0DA
:10554000A8DF2EEC30E04FEC50E06DEC70E0CE01C7
:105550000C969FDF24ED30E045ED50E063ED70E008
:10556000CE01489696DF28ED30E049ED50E067ED3A
:1055700070E0CE0184968DDF2EED30E04FED50E0EF
:105580006DED70E0CE01C096DF91CF9182CFCF93C9
:10559000DF9380912A0790912B07892BA1F48CE34C
:1055A00090E00E94544DEC01198218821D861C86E1
:1055B000198E188E1DA21CA219AA18AAB8DFD093A2
:1055C0002B07C0932A0780912A0790912B07DF9120
:1055D000CF910895CF92DF92EF92FF920F931F9396
:1055E000CF93DF938B010E94151FEC01F801C2A03D
:1055F000D3A0E4A0F5A0068D178D8A819B818F3002
:10560000F7E29F074CF501969B838A83C8010E94AD
:105610006D07882321F1F801EE0FFF1FEE0FFF1F2A
:10562000EC5AF74FC082D182E282F382B701A60121
:10563000C8010E94481EB801CE010E946D1BA7DF61
:1056400076DF90E080E0DF91CF911F910F91FF9086
:10565000EF90DF90CF9008951B821A82D7CF88EB0E
:1056600093E00E940018EBCFCF93DF93EB010E94F1
:10567000151F6E8D7F8D0E946D1B90E080E0DF9185
:10568000CF9108950F931F93CF93DF930E94151F1F
:105690008C01D0E0C0E0CE010E946D07882321F08C
:1056A000BE01C8010E946D1B2196C13ED10599F72C
:1056B00082E194E00E9400180E9403170E940918DA
:1056C00090E080E0DF91CF911F910F9108950F93AB
:1056D0001F93CF93DF93EC0188819981009759F054
:1056E0002A813B812617370730F081E0DF91CF9187
:1056F0001F910F9108958B016F5F7F4F0E94855519
:10570000009759F0998388831B830A832C813D81FC
:10571000232B59F7FC011082E8CF80E0E7CF0F93ED
:105720001F93CF93DF93EC018B01D1DF2881398167
:10573000811112C02115310519F0C9010E94F04DE7
:10574000198218821D821C821B821A82CE01DF916F
:10575000CF911F910F9108951D830C8368E576E02A
:10576000C9010E947656F2CFFC0111821082138289
:1057700012821582148270E060E0D1CF2F923F92A6
:105780004F925F926F927F928F929F92AF92BF9251
:10579000CF92DF92EF92FF920F931F93CF93DF93FD
:1057A000CDB7DEB7C458D1090FB6F894DEBF0FBE2F
:1057B000CDBF8C01FC0110821182128213821482EF
:1057C0001582168217821086118612861386148619
:1057D0001586168617864C01F0E18F0E911CC401C8
:1057E0000E947314580184E9A80EB11CC5010E94DF
:1057F00073146801E8EECE1AEEEFDE0AC6010E94CD
:1058000073147801F4E6EF1AFEEFFF0AC7010E9455
:105810008310380184E3681A8EEF780AC3010E946E
:1058200083102801E4E04E1AEEEF5E0AC2010E94E6
:105830008310C801845D9D4F97DFF801EE5CFD4F3A
:105840001182108232961182108232961182108259
:1058500032961182108232961082319610823196E1
:105860001082319611821082329611821082329605
:1058700011821082329610823196108231961082F7
:105880003196108211821282138234961082118214
:1058900012821382349610821182128213823496FD
:1058A0001082118212821382349610821182128227
:1058B00013823496108211821282138234961082DF
:1058C0001182128213823496108211821282138204
:1058D00034961082118212821382349610821182C1
:1058E00012821382349610821182128213823496AD
:1058F00010821182128213823496108211821282D7
:10590000138234961082118212821382349610828E
:10591000118212821382349610823196108231964F
:105920001082319610821182128213823496108274
:105930001182128213823496108211821282138293
:1059400034961082319610823196108231961082F0
:1059500031961082319610823196108231961082E3
:1059600031961082319610823196108231961082D3
:1059700031961082319610823196108231961082C3
:1059800031961082319610823196108231961082B3
:1059900031961082319610823196108231961082A3
:1059A00031961082118212821382349610821182F3
:1059B0001282138234961082118212821382D801CD
:1059C000AB54BD4F8CE0E1E1F2E001900D928A957D
:1059D000E1F7F801EF53FD4F10821182128213821A
:1059E00034961082118212821382349610821182B0
:1059F00012821382349611821082329611821082A2
:105A00003296118210823296108211821282138293
:105A1000349610821182128213823496108211827F
:105A2000128213823496108211821282138234966B
:105A30001082118212821382349610821182128295
:105A4000138234961182108232961182108232961D
:105A50001182108232961082118212821382349641
:105A60001082118212821382349610821182128265
:105A700013823496108231961082319610823196BC
:105A80001182108232961182108232961182108217
:105A90003296108211821282138234961082118201
:105AA00012821382349610821182128213823496EB
:105AB00011821082329611821082329611821082E7
:105AC00032961182108232961182108232961182A1
:105AD0001082329611821082329611821082180141
