:100000000C9489040C94BA040C94BA040C94BA04A9
:100010000C94BA040C94BA040C94BA040C94BA0468
:100020000C94BA040C94AD200C94AD200C94AD202B
:100030000C94BA040C94BA040C94BA040C94511A9B
:100040000C94BA040C946A170C94BA040C94BA0475
:100050000C9498170C94BA040C94BA040C94B245FE
:100060000C94BA040C944B450C9421450C94BA049E
:100070000C94BA040C94BA040C94BA040C94BA0408
:100080000C943C170C94BA040C94BA040C94BA0463
:100090000C94BA040C94BA040C94BA040C94BA04E8
:1000A0000C94BA040C94BA040C940E170C94BA0471
:1000B0000C94BA040C94BA040C94BA040C94E01690
:1000C0000C94BA040C94BA040C94BA040C94BA04B8
:1000D0000C94BA040C94BA040C94BA040C94BA04A8
:1000E0000C94BA04570C640C6D0C760C830C8C0CBD
:1000F00099109910991099109910990CA60CB30C9D
:100100009910C00CCD0CDA0CE70CF00CF90C020DB8
:100110000B0D140D99101D0D260D2F0D9910991012
:100120009910380D410D4A0D99109910530D600D1D
:100130009910991099106D0D7A0D870D9910940DE5
:100140009D0DA60D991099109910AF0DB80DC10D08
:100150009910CE0DDB0DE80D991099109910F50D41
:10016000020E0F0E99101C0E290E360E99109910C2
:100170009910430E500E5D0E99106A0E730E7C0E90
:10018000991099109910A00EAD0EBA0E9910C70EC5
:10019000D40EE10E991099109910EE0EF70E000F83
:1001A0009910991099109910991099109910090F98
:1001B000120F1B0F9910240F2D0F360F9910991045
:1001C00099103F0F4C0F590F9910660F730F800F46
:1001D0009910991099108D0F9A0FA70F9910B40FBD
:1001E000BD0FC60F991099109910CF0FD80FE10FBE
:1001F00099109910991099109910991099109910B7
:10020000991099109910850E8E0E970E99109910CD
:100210009910991099109910991099109910991096
:100220009910991099109910991099109910991086
:100230009910991099109910991099109910991076
:100240009910991099109910991099109910991066
:100250009910991099109910991099109910991056
:100260009910991099109910991099109910991046
:10027000991099109910EA0FF30F001099100D10B2
:10028000161023109910991099103010391046103B
:10029000991053105C1069109910991099107610EC
:1002A0007F108C106A1D6D1D5C1D601D661DA41DD8
:1002B000711D751D7B1D7F1D831D891D8D1D911D4C
:1002C000A41D971D9B1D9F1D09350E3513351D352A
:1002D0002735A0353135393541354B3555355F3505
:1002E0006E357835A03582358C3596350C94730F84
:1002F0000C94BE060C94CA040C94BA0E0C94F90C1F
:100300000C94FB040C9470150C94DF420C94C60FF3
:100310000C943F0F0C947F100C94410D0C947114AD
:100320000C94A41D0C946E350C9483410C94911D77
:100330000C94850E0C9478350C9423100C94661153
:100340000C949C050C94971D0C94020E0C94DA0CE2
:100350000C940D100C940B0D0C942F0D0C94D913C0
:100360000C94B9060C946D0C0C94E80D0C94B80622
:100370000C9400100C94660F0C946E110C94590F91
:100380000C945C1D0C9439350C94C2060C94C00678
:100390000C944A0D0C949D0D0C94500E0C94C604B4
:1003A0000C94CD0C0C94C70E0C94B3060C94CE0D8B
:1003B0000C94D40E0C94B6060C946D080C947A062A
:1003C0000C944B350C9408060C9486140C94A035B0
:1003D0000C94360E0C9453100C94E4130C941C0ED5
:1003E0000C94F00C0C941D0C0C94CC110C94D80FA4
:1003F0000C945E050C94F50D0C941D0D0C94DB0D06
:100400000C9437500C94CC040C94CE040C94D2046D
:100410000C940F0E0C94260D0C9441060C947B1D2D
:100420000C94DB130C9485150C941D350C9441052C
:100430000C94DC130C94B40F0C948C350C94AF0D0D
:100440000C94870D0C94D8130C946D0D0C94830CA4
:100450000C940E350C948C100C9490140C94F70E94
:100460000C94EA0F0C946C110C9441350C94AC056F
:100470000C94BD0F0C94831D0C94BB050C9452413D
:100480000C94DA130C949A090C9470110C94711D4D
:100490000C94BE040C94530D0C94C1060C94430EA2
:1004A0000C945F350C9408420C94E70C0C94090FE3
:1004B0000C94891D0C94B4060C94BC060C94111475
:1004C0000C941B0F0C94A00E0C9499100C94751D99
:1004D0000C946A0E0C94730E0C9472140C94800F8E
:1004E0000C94600D0C94140D0C94240F0C949A151C
:1004F0000C94D6130C94C2040C94EE0E0C94C80405
:100500000C94A3140C94BA060C94C00C0C94C00464
:100510000C94DA040C9453110C94020D0C94614168
:100520000C94E10E0C948E0E0C946A1D0C94640CC9
:100530000C9469100C94661D0C948B140C94000F91
:100540000C9476100C94C10D0C9433140C949F1DD4
:100550000C94B5060C946A110C94A5100C946D1DA6
:100560000C94DC040C9455140C94D0040C94963523
:100570000C94A60C0C94601D0C9409350C94681115
:100580000C947C0E0C9429130C9413350C94BC041D
:100590000C94D8040C94AD0E0C9447080C94990C50
:1005A0000C94B7060C94940D0C94BD060C94B30CEB
:1005B0000C94E10F0C94D6040C9472430C948C0CA4
:1005C0000C947F1D0C94380D0C945C100C942441F9
:1005D0000C9499140C9446100C9439100C94BF068A
:1005E0000C94BB060C94D4040C94C90B0C943010DE
:1005F0000C9427350C94BB410C9462110C94290E79
:100600000C9475410C94F30F0C945D0E0C94570CE4
:100610000C942D0F0C9440080C9431350C94120F4F
:100620000C9416100C94B00A0C949F150C94D513CE
:100630000C947A0D0C94FB130C948D1D0C94A60D48
:100640000C944C0F0C948D0F0C94A9150C94360F30
:100650000C949B1D0C949C500C94A4150C94823506
:100660000C94D7130C94760C0C94C4040C9455354C
:100670000C94B80D0C94970E0C949A0F0C94A70F31
:100680000C9464110C94CF0F4E414E494E4954596D
:10069000494E46CDCCCC3D0AD7233C17B7D138774D
:1006A000CC2B329595E6241FB14F0A000020410063
:1006B00000C84200401C4620BCBE4CCA1B0E5AAEAD
:1006C000C59D7400407A10F35A00A0724E180900BC
:1006D00010A5D4E80000E87648170000E40B5402A7
:1006E0000000CA9A3B000000E1F5050000809698E2
:1006F00000000040420F000000A086010000001032
:100700002700000000E80300000000640000000073
:10071000000A00000000000100000000002C76D854
:1007200088DC674F0823DFC1DFAE59E1B1B796E53A
:10073000E3E453C63AE651997696E8E6C28426EB9E
:10074000898C9B62ED407C6FFCEFBC9C9F40F2BAB1
:10075000A56FA5F490055A2AF75C936B6CF9676D49
:10076000C11BFCE0E40D47FEF520E6B500D0ED909E
:100770002E0300943577050080841E080000204E6B
:100780000A000000C80C333333330F986E12831104
:1007900041EF8D2114893BE65516CFFEE6DB18D1DB
:1007A000844B381BF77C1D901DA4BBE424203284AD
:1007B000725E228100C9F124ECA1E53D27000021F1
:1007C00000240027002A002D003000330001010022
:1007D00000040107010A0100000A0B02090C0D0EBA
:1007E00008070304010000000000000000000000F2
:1007F00000000000000000000000000000000000F9
:1008000000000012111000000000000000000000B5
:1008100000000000000000000000000000000000D8
:1008200000000000000000000000000000010210B5
:1008300020200808102040102040800201020108FA
:1008400004020101020408102040808040201008AA
:100850000402018004020180402010080402010803
:100860000402010102040810204080010204081063
:100870002040801008040880102040044080102090
:10088000400480000020002300260029002C002FB7
:1008900000320000010000030106010901000022EE
:1008A00000250028002B002E00310034000201003A
:1008B00000050108010B01050505050705080808E5
:1008C00008020202020A0A080804040404010101E1
:1008D00001010101010303030303030303040707E9
:1008E000070C0C0C0C0C0C0C0C0202020206060687
:1008F00006060606060B0B0B0B0B0B0B0B07070A6A
:100900000A0A0A0A0A0505050404040808009C509E
:10091000375011241FBECFEFD1E2DEBFCDBF00E0C4
:100920000CBF17E0A0E0B2E0E4E6F5EB00E00BBF9F
:1009300002C007900D92AE35B107D9F72EE0AEE5B3
:10094000B7E001C01D92AB33B207E1F714E0C8E88D
:10095000D4E000E006C021970109802FFE010E942B
:100960007658C738D10780E00807A9F70E94FC45F0
:100970000C94A05A0C9400000C94E0510C94E0519B
:100980000C94E0510C94E0510C94E0510C94E05123
:100990000C94E0510C94E0510C94E0510C94E05113
:1009A0000C94E0510C94E0510C94E0510C94E05103
:1009B0000C94E0510C94E0510F931F93CF93DF936D
:1009C000FB0102A913A9C68DD78D0E94AD35A801E0
:1009D000BE010E945A3480E090E0DF91CF911F91D8
:1009E0000F910895662319F083EC93E002C08CEB1D
:1009F00093E00C94F81D0F931F93CF93DF93FB01AB
:100A000002A113A1C68DD78D0E94E533C530D10553
:100A1000E1F064F4249771F56DE070E088E09EE009
:100A20000E945816B80188E09EE022C0C630D10569
:100A3000B1F02B97F9F464E070E081E19EE00E9450
:100A40005816B80181E19EE013C06BE070E08BE0C6
:100A50009EE00E945816B8018BE09EE009C06AE053
:100A600070E08EE09EE00E945816B8018EE09EE095
:100A70000E94D51580E090E0DF91CF911F910F91FA
:100A80000895EF92FF920F931F93CF93DF93FB0193
:100A9000E2A8F3A802A113A1C68DD78D0E94AD359F
:100AA0009701A801BE010E94C63480E090E0DF916A
:100AB000CF911F910F91FF90EF9008954F925F9209
:100AC0006F927F92AF92BF92CF92DF92EF92FF929E
:100AD0000F931F93CF93DF93FB01E2A8F3A846A4E3
:100AE00057A460A871A8C6A0D7A0A2A0B3A0068DE5
:100AF000178D0E94AD35EC019701A501B8010E9448
:100B0000C634C301B2010E9422229701A601B80196
:100B1000CE010E94C63480E090E0DF91CF911F911A
:100B20000F91FF90EF90DF90CF90BF90AF907F90AC
:100B30006F905F904F900895CF93DF93FB01D2A900
:100B4000C68D0E94AD356D2F8C2F0E94132180E041
:100B500090E0DF91CF910895CF93DF93FB01C68D95
:100B6000D78D0E94A312BE010E94601280E090E027
:100B7000DF91CF910895CF92DF92EF92FF920F9382
:100B80001F93CF93DF93FB01C2A0D3A0E4A0F5A0F5
:100B9000068D178D0E94A312EC018A819B818F30F4
:100BA000F7E29F0724F401969B838A8302C01B828D
:100BB0001A82B801CE010E9415368823B1F0F801DF
:100BC000EE0FFF1FEE0FFF1FEC59F84FC082D182CE
:100BD000E282F382A7019601B801CE010E9423129E
:100BE000B801CE010E94601204C086EB94E00E941E
:100BF000F81D0E942D340E94F83380E090E0DF91D0
:100C0000CF911F910F91FF90EF90DF90CF900895BB
:100C10008F929F92AF92BF92CF92DF92EF92FF920C
:100C20000F931F930E94CB3362E070E00E94A13BC0
:100C3000892BD1F40E94CB3321E02F931F921F9276
:100C40001F921F92812C912CA12CB12CC12CD12C44
:100C5000760197018601B701A6010E945C220F90E0
:100C60000F900F900F900F9080E090E01F910F91E8
:100C7000FF90EF90DF90CF90BF90AF909F908F90BC
:100C800008958F929F92AF92BF92CF92DF92EF9290
:100C9000FF920F931F930E94CB3361E070E00E949C
:100CA000A13B892BD1F40E94CB331F9221E02F93DB
:100CB0001F921F921F92812C912CA12CB12CC12C20
:100CC000D12C760197018601B701A6010E945C2212
:100CD0000F900F900F900F900F9080E090E01F9179
:100CE0000F91FF90EF90DF90CF90BF90AF909F90CB
:100CF0008F9008958F929F92AF92BF92CF92DF9282
:100D0000EF92FF920F931F930E94CB3360E070E04D
:100D10000E94A13B892BD1F40E94CB331F921F92DA
:100D200021E02F931F921F92812C912CA12CB12C8A
:100D3000C12CD12C760197018601B701A6010E9432
:100D40005C220F900F900F900F900F9080E090E03A
:100D50001F910F91FF90EF90DF90CF90BF90AF90D9
:100D60009F908F9008950895089508950895089587
:100D7000089508950895089508950895089508958B
:100D8000089508950895EF92FF920F931F93CF93C4
:100D9000DF93CDB7DEB72E970FB6F894DEBF0FBE48
:100DA000CDBF8C010E942B1E68ED74E0C8010E942B
:100DB0000B45609160077091610780916207909187
:100DC00063072AE0AE014F5F5F4F7A010E94A35292
:100DD000F70101900020E9F73197AF014E195F0943
:100DE000B701C8010E94AD4462EB73E0C8010E94E4
:100DF0000B45C8012E960FB6F894DEBF0FBECDBFCF
:100E0000DF91CF911F910F91FF90EF90089588EDA2
:100E100094E00E94F81D60916007709161078091D5
:100E20006207909163070E94591E82EB93E00C9435
:100E3000F81D0F931F93CF93DF93EC018BED94E09C
:100E40000E94F81D8FED94E00E94F81D0CEE1BE04F
:100E5000F8016081CE010E94F20483EE94E00E94CA
:100E6000F81DF8016181CE010E94F20487EE94E042
:100E70000E94F81DF8016281CE010E94F2048BEEFF
:100E800094E00E94F81DF8016381CE010E94F204F3
:100E90008FEE94E00E94F81DF8016481CE010E945B
:100EA000F20483EF94E00E94F81DF8016581CE0101
:100EB0000E94F204CE01DF91CF911F910F910C940B
:100EC0000707CF92DF92EF92FF92CF93DF93EC016F
:100ED00088819981AA81BB81181619061A061B06FA
:100EE00044F081E090E0A0E0B0E088839983AA8399
:100EF000BB838C819D81AE81BF81181619061A06AD
:100F00001B0644F081E090E0A0E0B0E08C839D837C
:100F1000AE83BF8388859985AA85BB851816190677
:100F20001A061B0644F081E090E0A0E0B0E088875C
:100F30009987AA87BB8787EF94E00E94F81D88E114
:100F400095E00E94F81D60911E0E70911F0E809119
:100F5000200E9091210E0E94D1566B017C01688178
:100F600079818A819B810E94D1569B01AC01C70186
:100F7000B6010E94EB5842E00E94831E88E295E091
:100F80000E94F81D6091220E7091230E8091240E14
:100F90009091250E0E94D1566B017C016C817D8160
:100FA0008E819F810E94D1569B01AC01C701B60181
:100FB0000E94EB5842E00E94831E88E395E00E9465
:100FC000F81D6091260E7091270E8091280E909149
:100FD000290E0E94D1566B017C01688579858A852E
:100FE0009B850E94D1569B01AC01C701B6010E94AE
:100FF000EB5842E00E94831ECE01DF91CF91FF901B
:10100000EF90DF90CF900C9407078091EA0B9091BE
:10101000EB0B892B81F58FE090E00E944851FC0199
:1010200015861486168610921E0E10921F0E1092B0
:10103000200E1092210E1092220E1092230E10926A
:10104000240E1092250E1092260E1092270E10924A
:10105000280E1092290E10926007109261071092CC
:1010600062071092630710925F0710925E079093D9
:10107000EB0B8093EA0B8091EA0B9091EB0B0895B8
:101080000E9405080E94610780E090E008950F9398
:101090001F93CF93DF930E94A3128C01C0E0D0E096
:1010A000BE01C8010E941536882321F0BE01C80187
:1010B0000E9460122196C13ED10591F78BEF94E01A
:1010C0000E94F81D0E9405080E94070780E090E03A
:1010D000DF91CF911F910F9108952F923F924F92E0
:1010E0005F926F927F928F929F92AF92BF92CF92B8
:1010F000DF92EF92FF920F931F93CF93DF93CDB7C1
:10110000DEB72A970FB6F894DEBF0FBECDBF0E94A0
:10111000CB3321E02F931F921F921F921F92812C9D
:10112000912CA12CB12CC12CD12C760197018601D8
:10113000B701A6010E945C220E94A3120F900F909B
:101140000F900F900F908091300890913108019787
:1011500029F486EF9FEF9E838D8304C0AAE0B0E060
:10116000BE83AD830E94050860911E0E70911F0E14
:101170008091200E9091210E0E94D1566B017C012E
:101180000E94A3126091400870914108809142082A
:10119000909143080E94D1569B01AC01C701B60152
:1011A0000E94EB5869837A838B839C830E94050895
:1011B0006091220E7091230E8091240E9091250E45
:1011C0000E94D1566B017C010E94A31260914408D9
:1011D0007091450880914608909147080E94D15629
:1011E0009B01AC01C701B6010E94EB582B013C01E9
:1011F000212C312C8D819E81092E000CAA0BBB0B5A
:101200008D839E83AF83B88793E02916310411F153
:101210004CF4B1E02B163104E9F0E2E02E16310473
:1012200079F009C0F5E02F163104A1F074F086E0E2
:101230002816310469F10E94CB33A1E0AF932CC092
:101240000E94CB33B1E0BF9327C00E94CB33E1E0D3
:10125000EF9322C00E94CB339A8789876D817E816C
:101260008F8198850E94D1566B017C011F921F923D
:101270001F921F921F92812C912CA12CB12C9301B3
:10128000820149815A816B817C8189859A8515C04B
:101290000E94CB33F1E0FF931F921F921F921F9287
:1012A000812C912CA12CB12CC12CD12C7601930135
:1012B000820149815A816B817C810E945C220F905E
:1012C0000F900F900F900F900E94050880915E077D
:1012D00090915F079A8789870E940508DC011E9616
:1012E0008C9181110CC0E985FA85EF2B41F4FFEF59
:1012F0002F1A3F0A27E02216310409F085CF80E03B
:1013000090E02A960FB6F894DEBF0FBECDBFDF91F6
:10131000CF911F910F91FF90EF90DF90CF90BF90F2
:10132000AF909F908F907F906F905F904F903F9085
:101330002F9008952F923F924F925F926F927F92DB
:101340008F929F92AF92BF92CF92DF92EF92FF92D5
:101350000F931F93CF93DF93CDB7DEB72A970FB6C6
:10136000F894DEBF0FBECDBF0E94A312809130085B
:1013700090913108019729F486EF9FEF9E838D832A
:1013800004C0AAE0B0E0BE83AD830E94050860916E
:101390001E0E70911F0E8091200E9091210E0E94C2
:1013A000D1562B013C010E94A3126091400870911C
:1013B000410880914208909143080E94D1569B01B8
:1013C000AC01C301B2010E94EB5869837A838B831D
:1013D0009C830E9405086091260E7091270E8091D3
:1013E000280E9091290E0E94D1562B013C010E949B
:1013F000A312609148087091490880914A08909121
:101400004B080E94D1569B01AC01C301B2010E945E
:10141000EB582B013C01212C312C8D819E81092E12
:10142000000CAA0BBB0B8D839E83AF83B88793E020
:101430002916310429F14CF4B1E02B16310401F1E5
:10144000E2E02E16310481F009C0F5E02F163104D8
:10145000B9F084F086E02816310481F10E94CB3384
:101460001F92A1E0AF932FC00E94CB331F92B1E037
:10147000BF9329C00E94CB331F92E1E0EF9323C0BA
:101480000E94CB339A8789876D817E818F81988571
:101490000E94D1568B019C011F921F921F921F9296
:1014A0001F92812C912CA12CB12C730162014981D6
:1014B0005A816B817C8189859A8515C00E94CB33C6
:1014C0001F92F1E0FF931F921F921F92812C912C8B
:1014D000A12CB12C7301620100E010E09801498158
:1014E0005A816B817C810E945C220F900F900F903B
:1014F0000F900F900E94050880915E0790915F0702
:101500009A8789870E940508DC011E968C918111BB
:101510000CC0E985FA85EF2B41F4FFEF2F1A3F0A43
:1015200027E02216310409F082CF80E090E02A966D
:101530000FB6F894DEBF0FBECDBFDF91CF911F91E4
:101540000F91FF90EF90DF90CF90BF90AF909F9062
:101550008F907F906F905F904F903F902F90089565
:101560002F923F924F925F926F927F928F929F92B3
:10157000AF92BF92CF92DF92EF92FF920F931F93A1
:10158000CF93DF93CDB7DEB72A970FB6F894DEBFBF
:101590000FBECDBF0E94A3128091300890913108F8
:1015A000019729F486EF9FEF9E838D8304C0AAE004
:1015B000B0E0BE83AD830E9405086091220E709159
:1015C000230E8091240E9091250E0E94D1562B015E
:1015D0003C010E94A31260914408709145088091DB
:1015E0004608909147080E94D1569B01AC01C30167
:1015F000B2010E94EB5869837A838B839C830E949B
:1016000005086091260E7091270E8091280E90910A
:10161000290E0E94D1562B013C010E94A312609119
:1016200048087091490880914A0890914B080E949F
:10163000D1569B01AC01C301B2010E94EB582B01B2
:101640003C01212C312C8D819E81092E000CAA0B8E
:10165000BB0B8D839E83AF83B88793E0291631043B
:1016600041F14CF4B1E02B16310419F1E2E02E16F1
:10167000310489F009C0F5E02F163104D1F094F05F
:1016800086E02816310499F10E94CB331F921F92F5
:10169000A1E0AF9332C00E94CB331F921F92B1E002
:1016A000BF932BC00E94CB331F921F92E1E0EF93B8
:1016B00024C00E94CB339A8789876D817E818F8178
:1016C00098850E94D156AB01BC011F921F921F92B8
:1016D0001F921F92812C912CA12CB12C73016201BD
:1016E00009811A812B813C8189859A8515C00E94C8
:1016F000CB331F921F92F1E0FF931F921F92812C18
:10170000912CA12CB12C7301620109811A812B81CA
:101710003C8140E050E0BA010E945C220F900F90A3
:101720000F900F900F900E94050880915E07909196
:101730005F079A8789870E940508DC011E968C91B5
:1017400081110CC0E985FA85EF2B41F4FFEF2F1AC8
:101750003F0A27E02216310409F07FCF80E090E0B5
:101760002A960FB6F894DEBF0FBECDBFDF91CF91A2
:101770001F910F91FF90EF90DF90CF90BF90AF90AF
:101780009F908F907F906F905F904F903F902F90A1
:1017900008950E940508FC01168680E090E00895F7
:1017A000CF93DF938FE30E94B720EC010E940508DE
:1017B00081E0CD2B09F480E08093EC0B80E40E9463
:1017C000B720EC010E94050881E0CD2B09F480E0F0
:1017D0008093ED0B8EE00E94B720EC010E9405087B
:1017E00081E0CD2B09F480E08093EE0B8FE00E9426
:1017F000B720EC010E94050881E0CD2B09F480E0C0
:101800008093EF0B8CE00E94B720EC010E9405084A
:1018100081E0CD2B09F480E08093F00B89E00E94F9
:10182000B720EC010E94050881E0CD2B09F480E08F
:101830008093F10BDF91CF9108958FEF94E00E9498
:10184000F81D0E9405080E94D00B0E9405080E9406
:1018500019070E94AD3540E050E068E070E00E945A
:101860005A340E94AD3540E050E069E070E00E94DB
:101870005A340E94AD3540E050E06AE070E00E94CA
:101880005A340E94AD3540E050E06DE070E00E94B7
:101890005A3480E090E00895603E710508F049C434
:1018A000FB018827EE58FF4F8F4F0C94765881E04C
:1018B00090E0A0E0B0E08093640790936507A09368
:1018C0006607B0936707089510926807109269073A
:1018D00010926A0710926B07089510926C0710928D
:1018E0006D0710926E0710926F07089581E090E0E7
:1018F000A0E0B0E08093700790937107A093720707
:10190000B0937307089510927407109275071092A0
:10191000760710927707089583E090E0A0E0B0E0AA
:101920008093780790937907A0937A07B0937B0709
:10193000089588E790E0A0E0B0E08093900790934E
:101940009107A0939207B0939307089588E790E0DA
:10195000A0E0B0E08093940790939507A09396073A
:10196000B0939707089588E790E0A0E0B0E08093F7
:10197000980790939907A0939A07B0939B070895AF
:1019800081E090E0A0E0B0E08093A0079093A107F1
:10199000A093A207B093A307089581E090E0A0E090
:1019A000B0E08093A4079093A507A093A607B093F7
:1019B000A707089581E090E0A0E0B0E08093A80739
:1019C0009093A907A093AA07B093AB07089510922C
:1019D000AC071092AD071092AE071092AF070895B2
:1019E0001092B0071092B1071092B2071092B3078D
:1019F00008951092B4071092B5071092B60710928E
:101A0000B70708951092B8071092B9071092BA0755
:101A10001092BB0708951092BC071092BD07109258
:101A2000BE071092BF0708951092C0071092C10719
:101A30001092C2071092C30708951092C80710921F
:101A4000C9071092CA071092CB0708951092CC07CD
:101A50001092CD071092CE071092CF0708951092E2
:101A6000D0071092D1071092D2071092D307089591
:101A70001092E0071092E1071092E2071092E3073C
:101A800008951092E4071092E5071092E60710926D
:101A9000E70708951092E8071092E9071092EA0705
:101AA0001092EB07089581E090E0A0E0B0E0809311
:101AB000F4079093F507A093F607B093F7070895FE
:101AC00081E090E0A0E0B0E08093F8079093F90700
:101AD000A093FA07B093FB0708958CE291E0A0E091
:101AE000B0E08093080890930908A0930A08B09387
:101AF0000B0808958CE291E0A0E0B0E080930C0820
:101B000090930D08A0930E08B0930F0808958CE2EF
:101B100091E0A0E0B0E08093100890931108A093AA
:101B20001208B0931308089510921808109219081B
:101B300010921A0810921B08089510921C08109217
:101B40001D0810921E0810921F0808951092200878
:101B500010922108109222081092230808951092E2
:101B6000300810923108109232081092330808950C
:101B700010923408109235081092360810923708E7
:101B8000089581E090E0A0E0B0E080933808909361
:101B90003908A0933A08B0933B08089585E090E097
:101BA000A0E0B0E08093400890934108A0934208E1
:101BB000B0934308089585E090E0A0E0B0E0809302
:101BC000440890934508A0934608B09347080895A9
:101BD00089E190E0A0E0B0E0809348089093490844
:101BE000A0934A08B0934B08089582E390E0A0E0E8
:101BF000B0E08093580890935908A0935A08B09386
:101C00005B08089582E390E0A0E0B0E080935C0878
:101C100090935D08A0935E08B0935F08089582E3F7
:101C200090E0A0E0B0E08093600890936108A093FA
:101C30006208B0936308089582E390E0A0E0B0E00A
:101C40008093680890936908A0936A08B0936B0822
:101C5000089582E390E0A0E0B0E080936C08909358
:101C60006D08A0936E08B0936F08089582E390E02A
:101C7000A0E0B0E08093700890937108A093720880
:101C8000B0937308089580E991E0A0E0B0E08093FC
:101C9000800890938108A0938208B09383080895E8
:101CA00080E991E0A0E0B0E08093840890938508FB
:101CB000A0938608B0938708089580E991E0A0E09A
:101CC000B0E08093880890938908A0938A08B09325
:101CD0008B08089510929008109291081092920823
:101CE00010929308089510929408109295081092FB
:101CF00096081092970808951092980810929908E3
:101D000010929A0810929B0808951092A8091092B8
:101D1000A9091092AA091092AB0908951092AC0972
:101D20001092AD091092AE091092AF090895109269
:101D3000B0091092B1091092B2091092B309089536
:101D400088E592E0A0E0B0E08093A8089093A9080D
:101D5000A093AA08B093AB08089588E592E0A0E0AC
:101D6000B0E08093AC089093AD08A093AE08B09318
:101D7000AF08089588E592E0A0E0B0E08093B00855
:101D80009093B108A093B208B093B30808958EE180
:101D900090E0A0E0B0E08093B8089093B908A093D9
:101DA000BA08B093BB0808958EE190E0A0E0B0E0DF
:101DB0008093BC089093BD08A093BE08B093BF0861
:101DC00008958EE190E0A0E0B0E08093C008909389
:101DD000C108A093C208B093C30808951092D00818
:101DE0001092D1081092D2081092D3080895109240
:101DF000D4081092D5081092D6081092D7080895EA
:101E00001092D8081092D9081092DA081092DB08C4
:101E100008951092F8081092F9081092FA0810929A
:101E2000FB0808951092FC081092FD081092FE081D
:101E30001092FF0808951092000910920109109263
:101E400002091092030908951092080910920909D5
:101E500010920A0910920B09089510920C09109221
:101E60000D0910920E0910920F0908951092100991
:101E7000109211091092120910921309089585E029
:101E800090E0A0E0B0E08093200990932109A09316
:101E90002209B0932309089585E090E0A0E0B0E026
:101EA0008093240990932509A0932609B0932709CC
:101EB000089585E090E0A0E0B0E080932809909339
:101EC0002909A0932A09B0932B09089584EB95E181
:101ED000A0E0B0E08093300990933109A0933209DB
:101EE000B0933309089584EB95E1A0E0B0E08093CE
:101EF000340990933509A0933609B09337090895B2
:101F000084EB95E1A0E0B0E0809338099093390923
:101F1000A0933A09B0933B09089585E090E0A0E0D2
:101F2000B0E08093480990934909A0934A09B0937F
:101F30004B09089585E090E0A0E0B0E080934C0963
:101F400090934D09A0934E09B0934F09089585E0F1
:101F500090E0A0E0B0E08093500990935109A093E5
:101F60005209B093530908951092580910925909D3
:101F700010925A0910925B09089510925C09109210
:101F80005D0910925E0910925F0908951092600930
:101F900010926109109262091092630908951092DB
:101FA00070091092710910927209109273090895C4
:101FB000109274091092750910927609109277099F
:101FC0000895109278091092790910927A09109266
:101FD0007B0908951092880A1092890A10928A0A41
:101FE00010928B0A08958CE390E0A0E0B0E080931B
:101FF0008C0A90938D0AA0938E0AB0938F0A08954D
:1020000081E090E0A0E0B0E08093900A9093910A84
:10201000A093920AB093930A08951092980A10928E
:10202000990A10929A0A10929B0A08958CE390E004
:10203000A0E0B0E080939C0A90939D0AA0939E0A32
:10204000B0939F0A089581E090E0A0E0B0E0809313
:10205000A00A9093A10AA093A20AB093A30A08959C
:102060001092B00A1092B10A1092B20A1092B30AFA
:1020700008958CE390E0A0E0B0E08093B40A9093E0
:10208000B50AA093B60AB093B70A089581E090E02C
:10209000A0E0B0E08093B80A9093B90AA093BA0A7E
:1020A000B093BB0A08951092C00A1092C10A109210
:1020B000C20A1092C30A08958CE390E0A0E0B0E059
:1020C0008093C40A9093C50AA093C60AB093C70A26
:1020D000089581E090E0A0E0B0E08093C80A90937A
:1020E000C90AA093CA0AB093CB0A08951092D80ADD
:1020F0001092D90A1092DA0A1092DB0A08958CE342
:1021000090E0A0E0B0E08093DC0A9093DD0AA09319
:10211000DE0AB093DF0A089581E090E0A0E0B0E02D
:102120008093E00A9093E10AA093E20AB093E30A55
:102130000895660F771F660F771FFB01EC59F84F64
:10214000108211821282138208958FEF9FEF0895FB
:102150000F931F93CF93DF938C01C0E0D0E0BE01BB
:10216000C8010E941536882321F0BE01C8010E94D3
:102170004C0C2196C13ED10591F780E090E0DF91B3
:10218000CF911F910F9108954F925F926F927F921E
:102190008F929F92AF92BF92CF92DF92EF92FF9277
:1021A0000F931F93CF93DF938B01EB01CC0FDD1FB8
:1021B000CE010E94F157882E912CA12CB12CCE017A
:1021C00001960E94F157C82ED12CE12CF12C0D580C
:1021D00011090330110588F5CE0144960E94F1578C
:1021E000482E512C612C712CCE0145960E94F1573E
:1021F000482F50E060E070E08FEF48165104610412
:102200007104A9F44F3F51056105710581F48FEF09
:1022100088169104A104B10481F48FEFC816D1048B
:10222000E104F10451F46FEF7FEFCB012BC0403894
:102230005105610571056CF0F6CF80E8C816D10430
:10224000E104F10484F740E050E0BA01412C512C44
:102250003201FE2CED2CDC2CCC248C0C9D1CAE1CF5
:10226000BF1C320155244424840C951CA61CB71CA9
:10227000742F662755274427CB01BA01680D791DB5
:102280008A1D9B1DDF91CF911F910F91FF90EF90C1
:10229000DF90CF90BF90AF909F908F907F906F9086
:1022A0005F904F90089586E095E00E94F81D85E1CB
:1022B00093E00E94F81D0E9405080E94070780E035
:1022C00090E008950C94E0510C94E0510C94E0518E
:1022D0000C94E0510C94E0510C94E0510C94E051BA
:1022E0004F925F926F927F928F929F92AF92BF9226
:1022F000CF92DF92EF92FF920F931F93CF93DF93D2
:1023000000D000D0CDB7DEB7FB0126892D838789A9
:102310008E8382889388A684B784C284D384E4841D
:10232000F584468057806084718482819381A48182
:10233000B58189839A83AB83BC830E94CB331F9280
:102340001F921F92AE81AF93BD81BF939301820113
:1023500049815A816B817C810E945C220F900F9091
:102360000F900F900F9080E090E026960FB6F894B3
:10237000DEBF0FBECDBFDF91CF911F910F91FF90B8
:10238000EF90DF90CF90BF90AF909F908F907F9015
:102390006F905F904F900895CF93DF93EB0120E013
:1023A00030E040E85FE36A817B818C819D810E94FF
:1023B000CA5681110DC08BE095E00E94F81D0E9465
:1023C000CB338C5A9F4FFC011082118212821382F0
:1023D00020E030E040E85FE36E817F818885998569
:1023E0000E94CA5681110DC08BE195E00E94F81D34
:1023F0000E94CB338C529F4FFC01108211821282BB
:10240000138220E030E040E85FE36A857B858C85BD
:102410009D850E94CA5681110DC08BE295E00E94F5
:10242000F81D0E94CB338C5A9E4FFC011082118202
:10243000128213820E9405080E94070780E090E044
:10244000DF91CF910895CF92DF92EF92FF920F9399
:102450001F93CF93DF938B0169017A01EB01CC0FBE
:10246000DD1F6C2DCE010E94F9579927F7FC9A9534
:102470008F2D7E2D6D2DCE0101960E94F9570D589E
:1024800011090330110588F4B701992777FD90955C
:10249000892FCE0144960E94F9576F2D7727882700
:1024A0009927CE0145960E94F95780E090E0DF9190
:1024B000CF911F910F91FF90EF90DF90CF900895F3
:1024C000CF92DF92EF92FF92CF93DF93EB010E94C6
:1024D0001536882359F1FE01EE0FFF1FEE0FFF1F87
:1024E000EC59F84FC080D180E280F3808BE395E017
:1024F0000E94F81D89E095E00E94F81D8FE395E0A9
:102500000E94F81DCE010E94511F89E095E00E94B3
:10251000F81D84EB94E00E94F81DC701B6010E94EB
:10252000591E0E9405080E94070704C086EB94E02C
:102530000E94F81D80E090E0DF91CF91FF90EF9036
:10254000DF90CF900895EF92FF920F931F93CF9358
:10255000DF938091F20B9091F30B892B09F06EC001
:1025600084E090E00E944851EC0160E070E00E943D
:10257000C410161617060CF1CE010E94A81094E69E
:10258000E92E97E0F92E00E010E0B801CE010E949C
:102590001536882349F0F70120813181428153812A
:1025A000B801CE010E9423120F5F1F4FF4E0EF0E1F
:1025B000F11C0639110549F73DC063E070E0CE011A
:1025C0000E94C410613071058105910581F584E692
:1025D000E82E87E0F82E00E010E0B801CE010E945E
:1025E00015368823D9F0B801CE010E94C410F70136
:1025F00060837183828393836F3F7F4F8F4F9F4FA1
:1026000069F4B801CE010E944C0CF70120813181A0
:1026100042815381B801CE010E9423120F5F1F4FE8
:10262000F4E0EF0EF11C013E1105B9F603C0CE0136
:102630000E94A810D093F30BC093F20B8091F20B81
:102640009091F30BDF91CF911F910F91FF90EF903D
:1026500008954F925F926F927F928F929F92AF9266
:10266000BF92CF92DF92EF92FF920F931F93CF937F
:10267000DF9300D01F92CDB7DEB70E94A312409027
:1026800040085090410860904208709043080E94B2
:10269000A3128090440890904508A0904608B090FE
:1026A00047080E940508C0901E0ED0901F0EE090B3
:1026B000200EF090210E0E940508C701B6010E946D
:1026C000D1566B017C01C301B2010E94D1569B011E
:1026D000AC01C701B6010E94EB582B013C0160918F
:1026E000220E7091230E8091240E9091250E0E944F
:1026F000D1566B017C01C501B4010E94D1569B01EA
:10270000AC01C701B6010E94EB5869837A838B83C1
:102710009C830E94CB331F921F921F921F921F9285
:10272000812C912CA12CB12CC12CD12C76010981AA
:102730001A812B813C81B301A2010E945C220E947C
:10274000CB331F921F921F921F921F9297018601F7
:10275000B301A2010E945C220E94CB331F921F9200
:102760001F921F921F9297018601B701A6010E9436
:102770005C220FB6F894DEBF0FBECDBF80E090E0C4
:102780000F900F900F900F90DF91CF911F910F91AD
:10279000FF90EF90DF90CF90BF90AF909F908F9081
:1027A0007F906F905F904F900895089508950895D9
:1027B0000895089508950895DC01ED91FC9102803B
:1027C000F381E02D6FE619946F70DC0195962C91E2
:1027D0009597207F622B95966C93959792962D9165
:1027E0003D914D915C919597ED91FC910190F08117
:1027F000E02D6CE61994DC0194962C91949760FB83
:1028000021F994962C93949792962D913D914D9108
:102810005C919597ED91FC910190F081E02D6CE633
:102820001994DC0193968C91939760FB87F99396AA
:102830008C9393976695617094968C9194978E7F04
:10284000682B94966C93949792962D913D914D910F
:102850005C919597ED91FC9111970190F081E02D9D
:102860006CE6CD011994DC0192968C91929760FBF5
:1028700087F992968C9392976695677093968C9150
:102880009397887F682B93966C93939792962D914C
:102890003D914D915C919597ED91FC91119701902F
:1028A000F081E02D6CE6CD011994DC016770962F64
:1028B0009295907F92966C9192976F78692B9296F1
:1028C0006C93929792962D913D914D915C91959735
:1028D000ED91FC9111970190F081E02D6CE6CD0116
:1028E000199408950895FC01EB59FF4F208122238C
:1028F00061F0709780819181A281B3810196A11DC1
:10290000B11D80839183A283B38308950E947F20A9
:10291000892F8F7008950E947F2086958170089579
:102920000E947F20771F7727771F8170880F872B62
:1029300008950E947F20862F881F8827881F777020
:10294000770F872B08950E947F20862F82958770AE
:102950000895CF92DF92EF92FF920F931F93CF9340
:10296000DF936C018B017A01EC01CB50D44F88814D
:1029700087FF04C0FB011182108224C02CE02C9D33
:10298000C0012D9D900D11242881AC01420F511DD5
:1029900027FD5A952091070E30E04217530794F413
:1029A0002881AC01420F511D27FD5A959A01FA0169
:1029B000EE0FFF1F2E0F3F1FF901E958F24F208144
:1029C00026FD19C088818F5F88832CE02C9DC00173
:1029D0002D9D900D11242881AC01420F511D27FD22
:1029E0005A952091070E30E042175307BCF4288116
:1029F0002C3044F113C02881820F911D27FD9A9538
:102A0000FC01EE0FFF1F8E0F9F1FFC01E958F24FD4
:102A1000808160E08F730E94E020D4CFF801808134
:102A20009181049680349C4918F480E49CE904C0A8
:102A3000F801808191810496F701918380838FEF63
:102A4000888345C0F801408151812881BC01620F13
:102A5000711D27FD7A959B01FB01EE0FFF1F2E0FC5
:102A60003F1FF901E958F24F21813281240F351FB0
:102A7000F701318320832881AC01420F511D27FDCE
:102A80005A959A01FA01EE0FFF1F2E0F3F1FF90111
:102A9000E958F24F208126FF1AC02881820F911D2C
:102AA00027FD9A95FC01EE0FFF1F8E0F9F1FFC0163
:102AB000E958F24F808161E08F73DF91CF911F91D0
:102AC0000F91FF90EF90DF90CF900C94E020DF917A
:102AD000CF911F910F91FF90EF90DF90CF900895CD
:102AE000CF93DF93EC018F81882331F061E08989F6
:102AF0000E94E0201F8206C060E089890E94E020D9
:102B000081E08F83DF91CF910895CF93DF93EC0124
:102B10008E81882331F061E08B850E94E0201E8247
:102B200006C060E08B850E94E02081E08E83DF910B
:102B3000CF91089560E0FC0181890C94E02060E071
:102B4000FC0183850C94E02061E0FC0181890C94F8
:102B5000E02061E0FC0183850C94E0200CB405FCCE
:102B60000DC09EBD00000DB407FEFDCF9EB58EBD0D
:102B700000000DB407FEFDCF8EB508958EBD000098
:102B80000DB407FEFDCF8EB59EBD00000DB407FE4F
:102B9000FDCF9EB508958EBD00000DB407FEFDCF9C
:102BA0008EB508958CBD9DBD0895CF92DF92EF92B2
:102BB000FF92CF93DF93EC01603282E078070CF054
:102BC0003DC077FD06C0653B71052CF064EB70E0FD
:102BD00002C060E070E0898128E830E06901C81A2D
:102BE000D10887FDD394CC0CDD1CCC0CDD1C0D2C46
:102BF000000CEE08FF088A8128E532E0281B310925
:102C000087FD3395220F331F220F331FC901330F66
:102C1000AA0BBB0B9C01AD012C193D094E095F09A4
:102C2000DB010E94315824EB30E040E050E00E948C
:102C30000758C20ED31EE41EF51EB601388130338C
:102C400080F5298188E890E0821B910927FD939502
:102C5000880F991F880F991F6817790784F08A8158
:102C600048E552E0481B510987FD5395440F551F15
:102C7000440F551FCB01461757070CF4CA010297A2
:102C8000880F991F4FB7F894232F30E0F901EE0F0A
:102C9000FF1F2E0F3F1FF901E958F24F92838183E6
:102CA0004FBFDF91CF91FF90EF90DF90CF900895CD
:102CB0001F93CF93DF93EC01162F8881803308F0A8
:102CC0004EC061E0812F0E9413218881E82FF0E03F
:102CD0009F01220F331FE20FF31FE958F24F1F73BA
:102CE0009081907C192B108319821A826CE00E94CB
:102CF0006A589CE0899FB001112440E050E09B019C
:102D0000240F351FF901EE0FFF1F2E0F3F1FF90192
:102D1000E958F24F908196FD16C04F5F5F4F4C30DF
:102D2000510569F7813001F51092800082E08093AF
:102D300081001092850010928400B19A80916F00FA
:102D4000826080936F00E881F0E0CF01880F991FC7
:102D5000E80FF91FE958F24F8081806480838881F1
:102D6000DF91CF911F910895823061F4109290000D
:102D700080939100109295001092940088BB8093EC
:102D80007100E1CF833069F41092A00082E080935B
:102D9000A1001092A5001092A40089BB809372003C
:102DA000D2CF8111D0CF1092200182E080932101F7
:102DB00010922501109224018ABB80937300C3CF27
:102DC0001F920F920FB60F9211240BB60F922F93F2
:102DD0003F934F935F936F937F938F939F93AF93A3
:102DE000BF93EF93FF9348E251E064E271E080E02B
:102DF00090E00E94A914FF91EF91BF91AF919F9134
:102E00008F917F916F915F914F913F912F910F9093
:102E10000BBE0F900FBE0F901F9018951F920F9230
:102E20000FB60F9211240BB60F922F933F934F932F
:102E30005F936F937F938F939F93AF93BF93EF9322
:102E4000FF9348EA50E064EA70E083E090E00E947B
:102E5000A914FF91EF91BF91AF919F918F917F91B5
:102E60006F915F914F913F912F910F900BBE0F90FB
:102E70000FBE0F901F9018951F920F920FB60F92D2
:102E800011240BB60F922F933F934F935F936F9341
:102E90007F938F939F93AF93BF93EF93FF9348E9F3
:102EA00050E064E970E082E090E00E94A914FF9194
:102EB000EF91BF91AF919F918F917F916F915F91B2
:102EC0004F913F912F910F900BBE0F900FBE0F901F
:102ED0001F9018951F920F920FB60F9211240BB6E8
:102EE0000F922F933F934F935F936F937F938F93A3
:102EF0009F93AF93BF93EF93FF9348E850E064E84C
:102F000070E081E090E00E94A914FF91EF91BF91E1
:102F1000AF919F918F917F916F915F914F913F9171
:102F20002F910F900BBE0F900FBE0F901F90189512
:102F30001F920F920FB60F9211240BB60F922F9380
:102F40003F934F935F936F937F938F939F93AF9331
:102F5000BF93EF93FF93E0E0F0E01995FF91EF91BD
:102F6000BF91AF919F918F917F916F915F914F91A1
:102F70003F912F910F900BBE0F900FBE0F901F909F
:102F80001895CF92DF92EF92FF920F931F93CF93FA
:102F9000DF93FC016489758986899789C68DD78DF1
:102FA000603127E272078105910529F01616170690
:102FB0001806190644F02089318942895389DE01B7
:102FC0000E9431582AC08F010E94D15620E030E47F
:102FD0004CE156E40E94EB586B017C01F801608FD4
:102FE000718F828F938F60897189828993890E9402
:102FF000D156A70196010E9430576B017C01BE019A
:10300000DD0F880B990B0E94D1569B01AC01C701C3
:10301000B6010E9430570E945D59DF91CF911F91F8
:103020000F91FF90EF90DF90CF900895FC011182F7
:10303000108215821482108A118A128A138A158EC0
:10304000148E80E197E2A0E0B0E0848B958BA68B94
:10305000B78B1286108614861586168617860895F5
:10306000CF93DF93EC01FC01E159FF4F10823797BA
:1030700081E0808360E08B850E94E0208D899E89BD
:10308000892B31F060E08989DF91CF910C94E020A9
:10309000DF91CF910895CF93DF93EC01898D0E944A
:1030A000B7202C8D30E08217930711F48D8D01C06D
:1030B00080E0DF91CF910895CF93DF93EC018F896A
:1030C0000E94B7202C8D30E08217930711F48D8D6C
:1030D00001C080E0DF91CF910895CF93DF93EC01A1
:1030E0002BA988819981222311F061E001C060E061
:1030F0000E94571F8C81883579F42CA98A819B8185
:10310000222329F02DA9222311F061E001C060E003
:10311000DF91CF910C94571FDF91CF910895CF93FA
:10312000DF93EC012BA988819981222311F060E0C3
:1031300001C061E00E94571F8C81883579F42CA969
:103140008A819B81222329F02DA9222311F060E09E
:1031500001C061E0DF91CF910C94571FDF91CF91B7
:103160000895CF93DF93EC0161E08F850E94E0200A
:103170008CA9882321F061E08D890E94E020C35949
:10318000DF4F1882DF91CF910895CF93DF93EC0149
:1031900060E08F850E94E0208CA9882321F060E008
:1031A0008D890E94E020C359DF4F81E08883DF9141
:1031B000CF910895CF92DF92EF92FF920F931F93DA
:1031C000CF93DF93FC01DC01A05CBF4F4D935D9377
:1031D0006D937C93139714964D935D936D937C93AD
:1031E0001397EC01C85BDF4F088319832A833B8365
:1031F0001896EC9282AD882381F082A9811108C0D3
:1032000037FF0BC0188219821A821B8221E006C088
:103210001016110612061306ACF320E0C3ACD4ACB2
:10322000E5ACF6AC1C141D041E041F0434F587AD78
:10323000882319F1488159816A817B81C601D7FEB3
:1032400004C0882799278C199D09DA0157FF04C00B
:10325000AA27BB27A41BB50B8A179B0774F477FF1B
:1032600003C0919581959109092E000CAA0BBB0B07
:1032700088839983AA83BB8321E0DF01AB5ABF4FC8
:103280001D921D921D921C921397EB59FF4F81E0E6
:103290008083822FDF91CF911F910F91FF90EF904C
:1032A000DF90CF9008950F931F93CF93DF938C01FE
:1032B000D62FFC01838D81110BC0C8010E945C18C0
:1032C000C82FC8010E944B18D1110AC08C2F08C00A
:1032D000C8010E944B18C82FC8010E945C18F4CF87
:1032E000DF91CF911F910F910895CF93DF93EC0160
:1032F000FC01E159FF4F81E0808339978081B297CB
:10330000882341F080819181A281B3810196A11D22
:10331000B11D07C080819181A281B3810197A1096C
:10332000B10980839183A283B38361E08B850E947E
:10333000E0208D899E89892B31F061E08989DF91B8
:10334000CF910C94E020DF91CF9108958F929F92BE
:10335000AF92BF92CF92DF92EF92FF920F931F93A3
:10336000CF93DF93EC01FC01EB5AFF4F6081718139
:10337000828193810E94CF566B017C016EA97FA947
:1033800088AD99AD0E94D1569B01AC0160E074E21A
:1033900084E799E40E94EB584B015C01FE01EF5970
:1033A000FF4F60817181828193810E94CF569B0182
:1033B000AC01C501B4010E94EB584B015C018E01C8
:1033C000075A1F4F20E030E040E05FE30E94305793
:1033D000A70196010E947F580E946459F8016083FA
:1033E000718382839383C35ADF4FA5019401C70180
:1033F000B6010E947F580E946459688379838A834A
:103400009B83DF91CF911F910F91FF90EF90DF9001
:10341000CF90BF90AF909F908F9008950F931F9380
:10342000CF93DF93FC01E159FF4F20812223C9F0A4
:103430007A970081118122813381389640815181B0
:1034400062817381041715072607370728F1EC01FD
:103450000E943018CE01DF91CF911F910F910C94F3
:10346000A619FC01EB59FF4F20812223A9F0709788
:1034700000811181228133813496408151816281A2
:103480007381041715072607370730F0DF91CF91B6
:103490001F910F910C947519DF91CF911F910F918E
:1034A00008951F920F920FB60F9211240BB60F9230
:1034B000EF92FF920F931F932F933F934F935F933E
:1034C0006F937F938F939F93AF93BF93CF93DF932C
:1034D000EF93FF938091F40B811123C081E08093DF
:1034E000F40B0E94CB33EC017C0180E1E80EF11C6F
:1034F000C7010E9473148E0100571F4FC8010E941C
:103500007314C05FDE4FCE010E947314C7010E9486
:103510000E1AC8010E940E1ACE010E940E1A1092B5
:10352000F40BFF91EF91DF91CF91BF91AF919F91FC
:103530008F917F916F915F914F913F912F911F914B
:103540000F91FF90EF900F900BBE0F900FBE0F905A
:103550001F9018952F923F924F925F926F927F9299
:103560008F929F92AF92BF92CF92DF92EF92FF9293
:103570000F931F93CF93DF93CDB7DEB762970FB64C
:10358000F894DEBF0FBECDBFFC019C01245B3F4F12
:10359000D9014C918A599F4FBF0169597F4F3B0117
:1035A00018972D016F517109442339F042A9DC01AC
:1035B0004C9381E0D3018C9327C08D909D90AD906A
:1035C000BC90DB01CD90DD90ED90FC9041E08C143F
:1035D0009D04AE04BF040CF040E0DC014C93A40158
:1035E00097FE04C04427552748195909C601D7FE3C
:1035F00004C0882799278C199D0911E0481759079D
:103600000CF410E0D3011C93D2018D919D910D908B
:10361000BC91A02D8D879E87AF87B88B892B8A2B75
:103620008B2B69F4C2A0D3A0E4A0F5A0CF018F59E1
:103630009F4FDC01CD92DD92ED92FC921397DB015E
:103640004D915D916D917C918F01005C1F4FD80170
:10365000CD90DD90ED90FC900B5D1F4FC416D5060C
:10366000E606F70654F48D859E85AF85B8898417E4
:103670009507A607B707A4F00EC04C155D056E05AB
:103680007F054CF48D859E85AF85B889481759070D
:103690006A077B072CF0D9012C91222309F457C12A
:1036A000D8012C91222309F452C182A493A4A4A48A
:1036B000B5A4868D978DA0A1B1A189839A83AB8390
:1036C000BC8382A193A1A4A1B5A18D839E83AF8366
:1036D000B8879F0127593F4FD9011C922F5F3F4F59
:1036E000D9011C923F01BBE66B0E711CD3011C92E9
:1036F0002F01BCE64B0E511CD2011C922C5F3F4F98
:10370000D9011C929A012C193D0937FF03C031954C
:1037100021953109C901330FAA0BBB0B89879A8701
:10372000AB87BC87C416D506E606F7065CF42D8584
:103730003E854F8558892C193D094E095F0969015D
:103740007A0108C0CD84DE84EF84F888C41AD50AD3
:10375000E60AF70A8F0149855A856B857C85759540
:103760006795579547954D875E876F87788BBF0123
:1037700062597F4F1B01F7FC09C089859A85AB858B
:10378000BC858C159D05AE05BF0554F4D8019696F1
:103790000D90BC91A02DBA8BA98B81E0F201ADC038
:1037A0002D853E854F8558892C153D054E055F05B5
:1037B0000CF449C08C149D04AE04BF043CF4498150
:1037C0005A814F5F5F4F5A8B498B4FC0C701B6017B
:1037D0000E94D1562B013C01C501B4010E94D15673
:1037E0009B01AC01C301B2010E94EB582B013C01CB
:1037F00069817A818B819C812D813E814F815885A1
:10380000621B730B840B950B0E94D1569B01AC017C
:10381000C301B2010E9430572B013C016D817E81B2
:103820008F8198850E94D1569B01AC01C301B201E2
:103830000E947F580E945D597A8B698B81E0F80164
:10384000E759FF4F5AC089859A85AB85BC85881991
:103850009909AA09BB09C816D906EA06FB065CF451
:10386000E981FA813296FA8BE98B81E0D3018C935E
:10387000F101808345C069857A858B859C856C19AB
:103880007D098E099F090E94D1562B013C01C5017B
:10389000B4010E94D1569B01AC01C301B2010E9448
:1038A000EB582B013C0169817A818B819C812D81B0
:1038B0003E814F815885621B730B840B950B0E94D0
:1038C000D1569B01AC01C301B2010E9430572B01BC
:1038D0003C016D817E818F8198850E94D1569B012C
:1038E000AC01C301B2010E947F580E945D597A8BDE
:1038F000698B81E0F801E659FF4F8083D1018C93F9
:10390000F80182858823B1F00E94A645D801189657
:103910004D905C901997052C000C66087708DC0127
:10392000CB0184199509A609B709893E9340A105E1
:10393000B10580F4F801EF59FF4F29893A89C9018F
:10394000A0E0B0E080839183A283B3835EC0D801FE
:103950001C925BC00E94A645F801718760878AE3CC
:1039600094E00E94F81D81E495E00E94F81D60E05B
:1039700070E0CB010E94591E87E495E00E94F81D7B
:10398000C701B6010E94591E8DE495E00E94F81D02
:1039900069857A858B859C850E94591E83E595E013
:1039A0000E94F81D6D857E858F8598890E94591E1D
:1039B0008AE595E00E94F81DC501B4010E94591ED8
:1039C00080E695E00E94F81D6D817E818F8198854B
:1039D0000E94591E86E695E00E94F81D69817A8151
:1039E0008B819C810E94591E8CE695E00E94F81DF7
:1039F00089E095E00E94F81D89899A890E94511FEB
:103A000082EB93E00E94F81D95CF62960FB6F89472
:103A1000DEBF0FBECDBFDF91CF911F910F91FF9001
:103A2000EF90DF90CF90BF90AF909F908F907F905E
:103A30006F905F904F903F902F9008950F931F933A
:103A4000FC01E45BFF4F2081211110C038970081F9
:103A50001181228133813496408151816281738149
:103A600004171507260737074CF404C0FC0122A9E8
:103A7000222321F01F910F910C948F181F910F9109
:103A80000C946D18DC018D919C91DC01ED91FC9101
:103A90000084F185E02D1995CB019370089590E095
:103AA000FC013197E231F10508F04EC08827EE5A4B
:103AB000FE4F8F4F0C947658809180008F7703C013
:103AC000809180008F7D8093800008958091800098
:103AD000877FF9CF84B58F7702C084B58F7D84BD91
:103AE00008958091B0008F7703C08091B0008F7DE2
:103AF0008093B0000895809190008F7707C08091E7
:103B000090008F7D03C080919000877F809390000C
:103B100008958091A0008F7707C08091A0008F7DCD
:103B200003C08091A000877F8093A00008958091BA
:103B300020018F7707C0809120018F7D03C0809185
:103B40002001877F809320010895009769F0FC0190
:103B500001900020E9F73197AF01481B590BBC01D8
:103B60008AEF9BE00C94244180E090E008958F92CE
:103B70009F92AF92BF920F931F93CF93DF93CDB7D6
:103B8000DEB7A1970FB6F894DEBF0FBECDBF19A266
:103B9000423008F44AE08E010F5D1F4F842E912CB5
:103BA000A12CB12CA50194010E943958E62FB9012E
:103BB000CA0101501109EA3014F4E05D01C0E95C6A
:103BC000D801EC93232B242B252B61F7C8010E94ED
:103BD000A51DA1960FB6F894DEBF0FBECDBFDF9135
:103BE000CF911F910F91BF90AF909F908F900895AC
:103BF0000C94A51DEF92FF920F931F93CF93DF9329
:103C0000CDB7DEB764970FB6F894DEBF0FBECDBF59
:103C10007C01CB01BA018E010F5F1F4F22E044E00F
:103C20000E942851FC0101900020E9F73197AF0173
:103C3000481B590BBC01C7010E94AD4464960FB6E6
:103C4000F894DEBF0FBECDBFDF91CF911F910F91D2
:103C5000FF90EF900895CF93DF93EC0119821882C3
:103C60001B821A821D821C8260E070E00E948644E2
:103C70002881398181110FC02115310519F0C90141
:103C80000E94E051198218821D821C821B821A82B6
:103C9000DF91CF9108951D821C8264EB73E0C9010E
:103CA000DF91CF910C94995A682F8AEF9BE00C9486
:103CB000BB41CF92DF92EF92FF92CF93DF9397FFBA
:103CC00019C06B017C018DE20E94541EEC01662735
:103CD0007727CB016C197D098E099F094AE00E9464
:103CE000B71D8C0F9D1FDF91CF91FF90EF90DF905C
:103CF000CF9008954AE0DF91CF91FF90EF90DF9051
:103D0000CF900C94B71D8F929F92AF92BF92CF929B
:103D1000DF92EF92FF920F931F93CF93DF936B018C
:103D20007C01142F9B01AC010E949859882319F043
:103D300082E795E027C046015701E894B7F82FEFD6
:103D40003FEF4FE75FE7C501B4010E949859811129
:103D50000DC02FEF3FEF4FE75FE7C501B4010E94B1
:103D6000CA5618161CF486E795E00CC02FEF3FEFFB
:103D70004FE75FE4C701B6010E949359181684F417
:103D80008AE795E0DF91CF911F910F91FF90EF901F
:103D9000DF90CF90BF90AF909F908F900C94A51D17
:103DA0002FEF3FEF4FE75FECC701B6010E94CA5605
:103DB00087FDE6CF20E030E0A901C701B6010E94EF
:103DC000CA5687FF09C08DE20E94541EEC01F7FA23
:103DD000F094F7F8F09402C0C0E0D0E000E060E0BA
:103DE00070E080E09FE3101741F020E030E040E217
:103DF00051E40E94EB580F5FF6CFA70196010E9495
:103E00007F586B017C010E9464594B015C014AE0C0
:103E10000E94B71DC80FD91F1123A9F1C501B40114
:103E20000E94CF569B01AC01C701B6010E947E588B
:103E30006B017C018EE20E94541EC80FD91F20E046
:103E400030E040E251E4C701B6010E9430574B0117
:103E50005C010E9464596B01E12CF12C4AE0C7011E
:103E6000B6010E94B71DC80FD91FC701B6010E9435
:103E7000CF569B01AC01C501B4010E947E586B0175
:103E80007C011150E1F6CE01DF91CF911F910F918E
:103E9000FF90EF90DF90CF90BF90AF909F908F906A
:103EA0000895BC01990F880B990B0C94591EDC01E5
:103EB00052968C91529760FB84F952968C9352974C
:103EC000282F53963C91539754968C915497482F92
:103ED000437050E0ED91FC9111970190F081E02D3D
:103EE00060E0CD0119946031710509F441C088F496
:103EF0006230710509F454C020F4672B09F458C0EE
:103F000008956430710509F443C068307105C1F14A
:103F1000089560347105E1F020F46032710501F11B
:103F200008956038710561F06115714009F048C06D
:103F3000DC01ED91FC910288F389E02D60E03FC047
:103F4000DC01ED91FC910288F389E02D61E037C03E
:103F5000DC01ED91FC910288F389E02D62E02FC035
:103F6000DC01ED91FC910288F389E02D63E027C02C
:103F7000DC01ED91FC910288F389E02D64E01FC023
:103F8000DC01ED91FC910288F389E02D65E017C01A
:103F9000DC01ED91FC910288F389E02D66E00FC011
:103FA000DC01ED91FC910288F389E02D67E007C008
:103FB000DC01ED91FC910288F389E02D68E0199411
:103FC0000895CF92DF92EF92FF921F93CF93DF93EA
:103FD000EC0180E090E00E94CF5625ED34E045E30F
:103FE00052E40E94305720E030E04AE754E40E9457
:103FF000EB586B017C012AE037ED43EA5CE369850D
:104000007A858B859C850E947F58A70196010E9426
:10401000305726E636E646EA5EE30E94EB5820E09B
:1040200030E040E85FE30E947E580E946459162FFA
:10403000E881F9810480F581E02D603108F561E0C7
:10404000CE0119952AE037ED43EA5CE369857A856C
:104050008B859C850E947F58A70196010E9430574E
:104060002CEE31E548E35EE30E94EB5820E030E0BF
:1040700040E85FE30E947E580E946459162F03C0F7
:1040800060E0CE011995912F9F718B81807E892BE5
:104090008B832A81382F8C81482F4F7050E0E88124
:1040A000F9810190F081E02D60E1CE011995612F39
:1040B00070E080E090E00E94D1562D853E854F85CE
:1040C00058890E9430570E9464596F718A81807E9E
:1040D000682B6A83262F3B818C81482F4F7050E0DC
:1040E000E881F9810190F081E02D60E1CE01DF915E
:1040F000CF911F91FF90EF90DF90CF901994DC014A
:10410000ED91FC910280F381E02D6CE61994CF9241
:10411000DF92EF92FF92FC01C12C92E1D92E9AE737
:10412000E92EF12C20E04C155D056E057F0540F46D
:10413000F694E794D794C7942F5F2630A1F727E031
:1041400091E09227292F286B2695208391709183E7
:10415000FF90EF90DF90CF9008951F920F920FB6CF
:104160000F9211240F900FBE0F901F901895CF93B0
:10417000DF93282F30E0F901E952F84F8491F901DB
:10418000E35DF74FD491F901E954F74FC491CC2383
:1041900091F081110E944F1DEC2FF0E0EE0FFF1FF8
:1041A000ED57F74FA591B491EC91ED2381E090E0AC
:1041B00021F480E002C080E090E0DF91CF9108958B
:1041C0001F93CF93DF93282F30E0F901E952F84F86
:1041D0008491F901E35DF74FD491F901E954F74F68
:1041E000C491CC23C1F0162F81110E944F1DEC2FDA
:1041F000F0E0EE0FFF1FE356F74FA591B4919FB784
:10420000F894111104C08C91D095D82302C0EC9180
:10421000DE2BDC939FBFDF91CF911F910895FC01AE
:1042200081A90C94E020CF93DF9390E0FC01E35D43
:10423000F74F2491FC01E954F74F8491882361F1F1
:1042400090E0880F991FFC01E354F84FC591D49179
:10425000FC01E356F74FA591B491611109C09FB7D6
:10426000F8948881209582238883EC912E230BC0BB
:10427000623061F49FB7F8948881322F30958323A0
:104280008883EC912E2B2C939FBF06C08FB7F89498
:10429000E8812E2B28838FBFDF91CF9108950F9354
:1042A0001F93CF93DF93EC0161E089A90E94132152
:1042B00061E0CE010E940F210BA91CA90115110577
:1042C00009F456C061E0F80180810E94132161E089
:1042D000F80184810E94132162E0F80182810E942A
:1042E0001321F80140815181FA01E954F74FE4911B
:1042F000F0E0EE0FFF1FE356F74F85919491F80120
:104300009287818722813381F901E954F74FE49143
:10431000F0E0EE0FFF1FED57F74F85919491F801F4
:104320009487838784819581FC01E954F74FE49158
:10433000F0E0EE0FFF1FE356F74FA591B491F8019F
:10434000B687A587FA01E35DF74F4491F8014683EC
:10435000F901E35DF74F2491F8012783FC01E35D48
:10436000F74F9491F80190878C91E92FE82BEC930B
:104370002A893B898C89482F437050E0E881F98174
:104380000190F081E02D60E0CE0119952AA13BA1BA
:104390004CA15DA1E881F9810190F081E02D6CE6EE
:1043A000CE0119952EA13FA148A559A55170E881CC
:1043B000F9810190F081E02D6DE6CE0119952DA5D2
:1043C0003EA58FA5482F4F7350E0E881F9810190F9
:1043D000F081E02D60E7CE0119952A813B818C8127
:1043E000482F4F7050E0E881F9810190F081E02D75
:1043F00060E1CE0119958AA1807F88608AA32AA1F5
:104400003BA14CA15DA1E881F9810190F081E02DF3
:104410006CE6CE011995E881F9810688F789E02DCF
:1044200061E0CE01DF91CF911F910F9119948230FD
:10443000910538F0880F991F880F991F05970197EC
:10444000F1F708958F929F92AF92BF92CF92DF9231
:10445000EF92FF926B017C010E9481454B015C0150
:10446000C114D104E104F104F1F00E948145DC01A2
:10447000CB0188199909AA09BB09883E9340A10577
:10448000B10570F321E0C21AD108E108F10888EE05
:10449000880E83E0981EA11CB11CC114D104E10454
:1044A000F10419F7DDCFFF90EF90DF90CF90BF9030
:1044B000AF909F908F9008952F923F924F925F926E
:1044C0006F927F928F929F92AF92BF92CF92DF9224
:1044D000EF92FF920F931F93CF93DF93CDB7DEB789
:1044E000E3970FB6F894DEBF0FBECDBF3C014F83FC
:1044F000588769877A87098B1A8B2B8B3C8BCD8ADF
:10450000DE8AEF8AF88E2B960EAD1FAD2B970E9498
:10451000A6456E8F7F8F88A399A30E94A645698FB9
:104520007A8F8B8F9C8FF301E650FE4F11821082A1
:104530003B96A114B10479F0C501A0E0B0E0408140
:1045400051816281738184179507A607B7072CF400
:10455000AC01BD0102C040815181F301E75FFD4F15
:104560008114910479F0A12CB12C80819181A281D8
:10457000B38188169906AA06BB0614F4D501C401B6
:10458000BC0102C060817181F301E35FFD4F011541
:10459000110571F020E030E080819181A281B3812A
:1045A000081719072A073B072CF4D901C80102C0D4
:1045B000808191819301205F3F4F3E872D878A0143
:1045C00020E030E0F30106A717A720AB31AB1301C1
:1045D000F0E92F0E311CAB0160E070E0F101468F75
:1045E000578F60A371A32301F0EF4F1AFEEF5F0A0C
:1045F000A0E0B0E0F201868F978FA0A3B1A3EC59A1
:10460000FE4F108211821282138234961082118220
:10461000128213823496108211821282138234968F
:10462000118210823296118210823296118210828B
:104630000E94050880911E0E90911F0EA091200EE1
:10464000B091210E4301FAE78F1AFDEF9F0AF401A2
:1046500080839183A283B3830E9405088091220EF8
:104660009091230EA091240EB091250EF301E657F0
:10467000FD4F80839183A283B3830E9405088091BC
:10468000260E9091270EA091280EB091290EF301CD
:10469000E257FD4F80839183A283B3835301F8E9EE
:1046A000AF1AFDEFBF0AF5016081718182819381AC
:1046B0000E94D1562F81388549855A850E943057EE
:1046C0000E945D598B019C01F401408151816281FE
:1046D00073812C96EFAC2C978D859E850E94DA18FD
:1046E0008823F1F086E793E00E94F81D88E195E0C9
:1046F0000E94F81DF301E85AFF4F608171818281A9
:104700009381F50120813181428153810E940758B4
:10471000CA01B9010E94591E0E9405080E9407079C
:104720006301F4E9CF1AFDEFDF0AF60160817181C0
:10473000828193810E94D15629893A894B895C896B
:104740000E9430570E945D598B019C01F301E6578E
:10475000FD4F40815181628173812D96EFAC2D9781
:10476000C1010E94DA188823F1F082E793E00E94E9
:10477000F81D88E295E00E94F81DF301E852FF4F12
:104780006081718182819381F60120813181428132
:1047900053810E940758CA01B9010E94591E0E9404
:1047A00005080E9407076301F0E9CF1AFDEFDF0A51
:1047B000F60160817181828193810E94D1562D8999
:1047C0003E894F89588D0E9430570E945D598B0158
:1047D0009C01F301E257FD4F408151816281738159
:1047E0002E96EFAC2E97C2010E94DA188823F1F0C2
:1047F0008EE693E00E94F81D88E395E00E94F81D84
:10480000F301E85AFE4F6081718182819381F60144
:1048100020813181428153810E940758CA01B90128
:104820000E94591E0E9405080E940707F301158A7D
:10483000EB56FF4F1082E058FF4F1082C3010E94D9
:104840006C39C3010E9470398D859E850E941E1DA2
:10485000C1010E941E1DC2010E941E1D81E090E048
:10486000F301E450FE4F918380837301F2E0EF1A6D
:10487000FEEFFF0AF7019183808383011E5FF80139
:104880009183808341E050E06D857E85C3010E9465
:104890003933F70140815181B101C3010E9439339D
:1048A000F80140815181B201C3010E94393381E096
:1048B000F301EB52FD4F80838D859E850E94C518C4
:1048C000C1010E94C518C2010E94C51864E670E0CB
:1048D00080E090E00E9422222C96FFAD2C97F111EF
:1048E0000EC02D962FAD2D97211105C02E963FADF0
:1048F0002E973323B1F0F301EB58FF4F10822D9622
:104900004FAD2D97411104C0F301EB50FF4F1082C2
:104910002E965FAD2E97511104C0F301EB58FE4F58
:1049200010828D859E850E94AA1AC1010E94AA1A32
:10493000C2010E94AA1A8D859E850E94A619C101F6
:104940000E94A619C2010E94A6190E940508FC0136
:1049500086858D8F18861F8293012B583F4F3A8B87
:10496000298BA3014B505F4F5E8B4D8BC3018B583E
:104970009E4F988B8F87F301E450FE4FFDA3ECA36D
:1049800027573E4F3FA32EA3455F5E4F59A748A729
:104990008D5F91099BA38AA3EC54FF4FFBA7EAA765
:1049A0002A553F4F3DA72CA74B535F4F5FA74EA7FC
:1049B000865E9D4F99AB88ABBA97FBABEAABE989B2
:1049C000FA89808181110AC0ED89FE898081811177
:1049D00005C0EF85F8898081882321F0FD8DFF23B4
:1049E00009F4EAC083010C501E4FF80180819181C7
:1049F000892B21F0C3010E94C740F7CF83EA95E0DD
:104A00000E94F81D2C96FFAD2C97FF23F9F02F8103
:104A10003885232B09F041C03D8D311124C08EE52E
:104A200093E00E94F81D0E9405080E9407072D963A
:104A30004FAD2D97442309F494C48AE593E00E9476
:104A4000F81D0E9405080E9407078BC42D968FADA4
:104A50002D97882369F0EF81F885EF2B19F5FD8DEF
:104A6000F11120C0EACF2D963FAD2D9731111AC01C
:104A70002E962FAD2E972223A9F04F815885452BD6
:104A800089F45D8D51110EC086E593E00E94F81DFA
:104A90000E9405080E94070705C02D964FAD2D976F
:104AA000442331F3430184E0881A8EEF980A85E0AD
:104AB00090E0F401918380835301F2E0AF1AFEEF9E
:104AC000BF0AF5019183808383011E5FF801918302
:104AD000808345E050E06D857E85C3010E943933B7
:104AE000F50140815181B101C3010E943933F801C0
:104AF00040815181B201C3010E943933F301EB526D
:104B0000FD4F1082EE58F1098081811104C08D851E
:104B10009E850E94B118F301E85BFD4F80818111F1
:104B200003C0C1010E94B118F301E75BFD4F808112
:104B3000811103C0C2010E94B11864E670E080E0F8
:104B400090E00E942222C3010E947439C3010E9496
:104B50006C39C3010E9470390E9405080E946107E8
:104B6000F40111821082F50111821082F801118284
:104B7000108240E050E06D857E85C3010E9439338C
:104B8000F50140815181B101C3010E943933F8011F
:104B900040815181B201C3010E943933FD8DFF2351
:104BA00009F4E6C30E94050821E0FC01268721E004
:104BB00030E038872F83DCC34CA15DA16D857E85F5
:104BC000C3010E9492334EA15FA1B101C3010E94B3
:104BD000923348A559A5B201C3010E949233EAA1BC
:104BE000FBA180818823E1F08D859E850E94AA1A11
:104BF0008AA49BA4ACA4BDA4CEA4DFA4E8A8F9A871
:104C00000AA91BA993012C583D4FA30140575E4FA1
:104C10006D857E85C3010E949F2FEAA1FBA11082B2
:104C2000930128503F4F3C872B87F90180818823CF
:104C300039F1C1010E94AA1A4301FFE48F1AFDEF66
:104C40009F0A530128E5A21A2DEFB20A630139E346
:104C5000C31A3DEFD30A73014AE6E41A4DEFF40A92
:104C6000830106571D4F930128583D4FA30140551E
:104C70005E4FB101C3010E949F2FEB85FC8510821E
:104C8000930128583E4F3C872B87F9018081882368
:104C900039F1C2010E94AA1A4301FEE48F1AFDEF06
:104CA0009F0A530124E5A21A2DEFB20A630137E3EC
:104CB000C31A3DEFD30A730146E6E41A4DEFF40A36
:104CC000830102571D4F930124583D4FA3014053C8
:104CD0005E4FB201C3010E949F2FEB85FC851082BD
:104CE000E989FA8980818823D1F1F301E256FD4FE9
:104CF00060817181072E000C880B990B0E94D156A0
:104D00009B01AC01F301EC58FD4F60817181828100
:104D100093810E949359181614F5E989FA89108233
:104D20006AE374E0830100511E4FC8010E940B45E5
:104D30006CEB75E0C8010E940B4562EB73E0C801A3
:104D40000E940B452C96FFAD2C97FF2309F482C1DE
:104D5000F301EC5AFF4F1082118212821382ED8907
:104D6000FE8980818823D1F1F301E056FD4F6081F7
:104D70007181072E000C880B990B0E94D1569B0164
:104D8000AC01F301E858FD4F60817181828193810C
:104D90000E949359181614F5ED89FE8910826AE372
:104DA00074E0830100511E4FC8010E940B4564EE60
:104DB00075E0C8010E940B4562EB73E0C8010E94D8
:104DC0000B452D96FFAD2D97FF2309F448C1F30144
:104DD000EC52FF4F1082118212821382EF85F88904
:104DE00080818823D1F1F301EE55FD4F60817181FF
:104DF000072E000C880B990B0E94D1569B01AC0129
:104E0000F301E458FD4F60817181828193810E949A
:104E10009359181614F5EF85F88910826AE374E047
:104E2000830100511E4FC8010E940B456CE076E0E3
:104E3000C8010E940B4562EB73E0C8010E940B455C
:104E40002E96FFAD2E97FF2309F40EC1F301EC5A05
:104E5000FE4F1082118212821382F301EA58FF4F33
:104E600060818D859E850E945319882351F0F3013E
:104E7000EC5AFF4F1082118212821382E989FA895B
:104E80001082F301EA50FF4F6081C1010E94531963
:104E9000882351F0F301EC52FF4F108211821282ED
:104EA0001382ED89FE891082F301EA58FE4F60817A
:104EB000C2010E945319882351F0F301EC5AFE4FAE
:104EC0001082118212821382EF85F8891082C30149
:104ED0000E947439C3010E946C39E989FA89808182
:104EE0008823E9F00E94A6454B015C012E8D3F8D81
:104EF00048A159A1821A930AA40AB50AF301E45AF7
:104F0000FD4F2081318142815381A8EEB3E00E94A0
:104F10002658681579058A059B0508F4AAC0ED890D
:104F2000FE8980818823E9F00E94A6454B015C013F
:104F30002E8D3F8D48A159A1821A930AA40AB50A61
:104F4000F301E05AFD4F2081318142815381A8EE67
:104F5000B3E00E942658681579058A059B0508F478
:104F6000A2C0EF85F88980818823E9F00E94A645D8
:104F70004B015C012E8D3F8D48A159A1821A930AE5
:104F8000A40AB50AF301EC59FD4F20813181428119
:104F90005381A8EEB3E00E942658681579058A056A
:104FA0009B0508F49AC08AEF9BE00E948341181683
:104FB00019063CF58AEF9BE00E9461418F7D8534A4
:104FC0009105F9F46EE775E0C30180519E4F0E9490
:104FD0000B4582E993E00E94F81D0E9405080E949B
:104FE0000707E989FA891082ED89FE891082EF8529
:104FF000F8891082F1E0FD8F21E030E038872F83BF
:1050000004C04F815885452B39F063E975E0C30131
:1050100080519E4F0E940B45C3010E94C7400E94D1
:10502000A645DC01CB01298D3A8D4B8D5C8D821B11
:10503000930BA40BB50B8B3F9105A105B10508F4AB
:10504000BECCF301EC50FE4F80819181892B09F495
:105050005EC0B5CC23E030E038872F8380CE23E0DC
:1050600030E038872F83BACE23E030E038872F83B3
:10507000F4CEE989FA8910826AE673E0830100516F
:105080001E4FC8010E940B4562EB73E0C8010E94ED
:105090000B4564E376E0C8010E940B4522E030E056
:1050A00038872F833CCFED89FE89108266E673E056
:1050B000830100511E4FC8010E940B4562EB73E053
:1050C000C8010E940B4569E476E0C8010E940B45C7
:1050D00022E030E038872F8344CFEF85F8891082B3
:1050E00062E673E0830100511E4FC8010E940B4528
:1050F00062EB73E0C8010E940B456EE576E0C801E3
:105100000E940B4522E030E038872F834CCFF3011B
:10511000E650FE4F808191818130910509F0F0C009
:105120000E9405088C01FC0180819181A281B381DC
:10513000181619061A061B0644F081E090E0A0E05C
:10514000B0E080839183A283B383F8018481958149
:10515000A681B781181619061A061B0644F081E0CD
:1051600090E0A0E0B0E084839583A683B783F80144
:1051700080859185A285B385181619061A061B0627
:1051800044F081E090E0A0E0B0E080879187A287C2
:10519000B387CE0101960E942B1E67EF74E0CE010B
:1051A00001960E940B4568E175E0CE0101960E94D0
:1051B0000B4560911E0E70911F0E8091200E9091F4
:1051C000210E0E94D1566B017C01F8016081718132
:1051D000828193810E94D1569B01AC01C701B60127
:1051E0000E94EB58AB01BC01CE0101960E94FA1D52
:1051F00068E275E0CE0101960E940B456091220E97
:105200007091230E8091240E9091250E0E94D1560C
:105210006B017C01F80164817581868197810E9410
:10522000D1569B01AC01C701B6010E94EB58AB01FE
:10523000BC01CE0101960E94FA1D68E375E0CE0123
:1052400001960E940B456091260E7091270E809169
:10525000280E9091290E0E94D1566B017C01F80115
:1052600060857185828593850E94D1569B01AC0132
:10527000C701B6010E94EB58AB01BC01CE010196FB
:105280000E94FA1DBE016F5F7F4F830100511E4FC8
:10529000C8010E941A4589819A810E94E0510AC082
:1052A000892BC9F46EE873E0830100511E4FC801D9
:1052B0000E940B450E940508BC01CE0101960E9488
:1052C000C306BE016F5F7F4FC8010E941A458981E6
:1052D0009A810E94E051F301E650FE4F8081918156
:1052E0000196833091051CF49183808302C0118262
:1052F00010820E94A645698F7A8F8B8F9C8F5FCB1F
:105300008230910569F66FE975E0830100511E4F07
:10531000C8010E940B4568E175E0C8010E940B4579
:105320008D859E850E94421DBC01C8010E94DB4400
:1053300068E275E0C8010E940B45C1010E94421D50
:10534000BC01C8010E94DB4468E375E0C8010E940B
:105350000B45C2010E94421DBC01C8010E94DB44F2
:10536000A9CF2E965FAD2E97552309F49BCB8CCBFE
:1053700081EB95E00E94F81D8F8198850E94511F56
:1053800082EB93E00E94F81D0E9405084F8158852A
:1053900050935F0740935E07CA01E3960FB6F894F7
:1053A000DEBF0FBECDBFDF91CF911F910F91FF9058
:1053B000EF90DF90CF90BF90AF909F908F907F90B5
:1053C0006F905F904F903F902F9008952F923F9253
:1053D0004F925F926F927F928F929F92AF92BF9205
:1053E000CF92DF92EF92FF920F931F93CF93DF93B1
:1053F000CDB7DEB765970FB6F894DEBF0FBECDBF51
:105400008C010E94A312F801EE5FFD4F81E04091F4
:105410003008509131086091320870913308452B63
:10542000462B472B09F480E080830E94A312F801E9
:10543000ED5FFD4F81E04091340850913508609157
:10544000360870913708452B462B472B09F480E02E
:1054500080830E94A312F801EC5FFD4F81E0409130
:1054600038085091390860913A0870913B08452BF3
:10547000462B472B09F480E080830E94A312809181
:10548000800890918108A0918208B0918308F8016A
:10549000EB5FFD4F80839183A283B3830E94A312AD
:1054A0008091840890918508A0918608B091870822
:1054B000F801E75FFD4F80839183A283B3830E944D
:1054C000A3128091880890918908A0918A08B091D0
:1054D0008B08F801E35FFD4F80839183A283B38340
:1054E0000E94A3128091580890915908A0915A08DF
:1054F000B0915B08F801EF5EFD4F80839183A2833A
:10550000B3830E94A31280915C0890915D08A091E2
:105510005E08B0915F08F801EB5EFD4F80839183D8
:10552000A283B3830E94A3128091600890916108C6
:10553000A0916208B0916308F801E75EFD4F808397
:105540009183A283B3830E94A312809168089091F3
:105550006908A0916A08B0916B08F801E35EFD4FFD
:1055600080839183A283B3830E94A31280916C08ED
:1055700090916D08A0916E08B0916F08F801EF5DF1
:10558000FD4F80839183A283B3830E94A3128091F5
:10559000700890917108A0917208B0917308F80199
:1055A000EB5DFD4F80839183A283B3830E94A3129E
:1055B0008091080890910908A0910A08B0910B0801
:1055C000F801E75DFD4F80839183A283B3830E943E
:1055D000A31280910C0890910D08A0910E08B09133
:1055E0000F08F801E35DFD4F80839183A283B383AD
:1055F0000E94A3128091100890911108A0911208A6
:10560000B0911308F801EF5CFD4F80839183A28372
:10561000B3830E94A312F801EB5CFD4F81E020915F
:10562000E0073091E1072130310509F080E0808307
:105630000E94A312F801EA5CFD4F81E02091E4078B
:105640003091E5072130310509F080E080830E9428
:10565000A312F801E95CFD4F81E02091E807309149
:10566000E9072130310509F080E080830E94A31210
:10567000F801ED5AFD4F81E04091B8075091B9070C
:105680006091BA077091BB07452B462B472B09F455
:1056900080E080830E94A312F801EC5AFD4F81E064
:1056A0004091BC075091BD076091BE077091BF0744
:1056B000452B462B472B09F480E080830E94A312E0
:1056C000F801EB5AFD4F81E04091C0075091C107AE
:1056D0006091C2077091C307452B462B472B09F4F5
:1056E00080E080830E94A312F801EA5AFD4F81E016
:1056F00040919008509191086091920870919308A0
:10570000452B462B472B09F480E080830E94A3128F
:10571000F801E95AFD4F81E04091940850919508B5
:105720006091960870919708452B462B472B09F4FA
:1057300080E080830E94A312F801E85AFD4F81E0C7
:10574000409198085091990860919A0870919B082F
:10575000452B462B472B09F480E080830E94A3123F
:10576000F801E75AFD4F81E02091C8073091C90741
:105770002130310509F080E080830E94A312F801F6
:10578000E65AFD4F81E02091CC073091CD072130C2
:10579000310509F080E080830E94A312F801E55AE8
:1057A000FD4F81E02091D0073091D10721303105A4
:1057B00009F080E080830E94A3128091900790916D
:1057C0009107A0919207B0919307F801E45AFD4F19
:1057D00080839183A283B3830E94A3128091940754
:1057E00090919507A0919607B0919707F801E05A1C
:1057F000FD4F80839183A283B3830E94A312809183
:10580000980790919907A0919A07B0919B07F8018A
:10581000EC59FD4F80839183A283B3830E94A3122E
:10582000F801E95BFD4F81E04091A0075091A1078D
:105830006091A2077091A307452B462B472B09F4D3
:1058400080E080830E94A312F801E85BFD4F81E0B5
:105850004091A4075091A5076091A6077091A707F2
:10586000452B462B472B09F480E080830E94A3122E
:10587000F801E75BFD4F81E04091A8075091A9072F
:105880006091AA077091AB07452B462B472B09F473
:1058900080E080830E94A3128091980990919909D9
:1058A000A0919A09B0919B09F801E85CFD4F8083B3
:1058B0009183A283B3830E94A31280919C0990914B
:1058C0009D09A0919E09B0919F09F801E45CFD4FEC
:1058D00080839183A283B3830E94A3128091A00945
:1058E0009091A109A091A209B091A309F801E05CEF
:1058F000FD4F80839183A283B3830E94A312F8019A
:10590000E65BFD4F81E02091F8073091F9072130E7
:10591000310509F080E08083F801E55BFD4F1082DE
:10592000319610820E94A312F801E35BFD4F81E0E3
:105930002091F4073091F5072130310509F080E01E
:105940008083F801E25BFD4F1082319610820E9445
:10595000A312F801E05BFD4F81E02091180830911F
:1059600019082130310509F080E080830E94A312DC
:10597000F801EF5AFD4F81E020911C0830911D087D
:105980002130310509F080E080830E94A312F801E4
:10599000EE5AFD4F81E020912008309121082130FE
:1059A000310509F080E080830E94A312F801EC5BCE
:1059B000FD4F81E02091A8093091A90921303105DE
:1059C00009F080E080830E94A312F801EB5BFD4F99
:1059D00081E02091AC093091AD092130310509F009
:1059E00080E080830E94A312F801EA5BFD4F81E012
:1059F0002091B0093091B1092130310509F080E0E2
:105A000080830E94A312380128E9621A2DEF720ADE
:105A10008091400890914108A0914208B0914308BC
:105A2000F30180839183A283B3830E94A312580160
:105A3000F4E9AF1AFDEFBF0A809144089091450840
:105A4000A0914608B0914708F50180839183A28315
:105A5000B3830E94A3128091480890914908A091B5
:105A60004A08B0914B08980120593D4FF9018083B5
:105A70009183A283B383F301408151816281738159
:105A8000141615061606170644F041E050E060E0D3
:105A900070E04083518362837383F50140815181BB
:105AA00062817381141615061606170644F041E04C
:105AB00050E060E070E04083518362837383181686
:105AC00019061A061B064CF081E090E0A0E0B0E059
:105AD000F90180839183A283B383D901CD90DD90B6
