:100000000C9488040C94B9040C94B9040C94B904AD
:100010000C94B9040C94B9040C94B9040C94B9046C
:100020000C94B9040C94501F0C94501F0C94501F46
:100030000C94B9040C94B9040C94B9040C94B9044C
:100040000C94B9040C948C450C94B9040C94B90428
:100050000C94BC370C94B9040C94B9040C94644609
:100060000C94B9040C94C1430C9497430C94B904B8
:100070000C94B9040C94B9040C94B9040C94B9040C
:100080000C945E450C94B9040C94B9040C94B90416
:100090000C94B9040C94B9040C94B9040C94B904EC
:1000A0000C94B9040C94B9040C9430450C94B90424
:1000B0000C94B9040C94B9040C94B9040C94024542
:1000C0000C94B9040C94B9040C94B9040C94B904BC
:1000D0000C94B9040C94B9040C94B9040C94B904AC
:1000E0000C94B904E712F412FD12061313131C1337
:1000F000211721172117211721172913361343130D
:1001000021175013591362136F13781381138A1335
:1001100093139C132117A513AE13B713211721179F
:100120002117C013C913D21321172117DB13E813AA
:10013000211721172117F51302140F1421171C146E
:1001400025142E1421172117211737144014491490
:1001500021175614631470142117211721177D14C9
:100160008A1497142117A414B114BE14211721174F
:100170002117CB14D814E5142117F214FB1404151D
:1001800021172117211728153515421521174F154D
:100190005C15691521172117211776157F1588150C
:1001A0002117211721172117211721172117911521
:1001B0009A15A3152117AC15B515BE1521172117D2
:1001C0002117C715D415E1152117EE15FB150816D3
:1001D000211721172117151622162F1621173C1645
:1001E00045164E1621172117211757166016691646
:1001F000211721172117211721172117211721173F
:100200002117211721170D1516151F152117211755
:10021000211721172117211721172117211721171E
:10022000211721172117211721172117211721170E
:1002300021172117211721172117211721172117FE
:1002400021172117211721172117211721172117EE
:1002500021172117211721172117211721172117DE
:1002600021172117211721172117211721172117CE
:1002700021172117211772167B168816211795163C
:100280009E16AB16211721172117B816C116CE16C8
:100290002117DB16E416F116211721172117FE1678
:1002A000071714170A1C0D1CFC1B001C061C441C01
:1002B000111C151C1B1C1F1C231C291C2D1C311C54
:1002C000441C371C3B1C3F1C0B39103915391F3996
:1002D0002939A23933393B3943394D3957396139D5
:1002E00070397A39A23984398E3998390C94DA17F1
:1002F0000C946E060C940F140C9424050C941A059F
:100300000C94231C0C9433390C94A2390C947D1456
:100310000C948E390C9454350C9410390C942D0691
:100320000C94291C0C94FC1B0C941E050C94351584
:100330000C94311C0C9466060C94FD120C947813EA
:100340000C9470060C94FA340C948A140C94451690
:100350000C943B390C943A370C9404260C94BC262C
:100360000C946C060C947B160C94371C0C94631440
:100370000C9488160C94C0260C9470140C941008DD
:100380000C9469160C9402210C94050A0C941C140C
:100390000C94B9260C9425210C948B410C94EF17E6
:1003A0000C940E180C94F5130C9470520C94F412D7
:1003B0000C9415390C9436130C94E8130C946F13A9
:1003C0000C9404150C946E050C94E4160C9416050C
:1003D0000C942E140C9449140C943F1C0C9442154C
:1003E0000C945F050C9463210C94A5130C947F1559
:1003F0000C9410350C940B390C946A060C945C1513
:100400000C942E170C9497140C9420050C94A3159F
:100410000C94F2140C9457160C941C050C94534134
:100420000C9434370C942D210C94F4050C94720622
:100430000C9462130C9472160C9428150C942A05D3
:100440000C9413130C9459130C94B8160C94AE130B
:100450000C94E3340C9443130C9467060C940D1C19
:100460000C94010B0C9401080C949C130C94B8266A
:100470000C9407170C9434210C94B1140C941D2186
:100480000C94CB140C947A390C942A370C94D21314
:100490000C94F4400C9491150C94E5140C94FB14FA
:1004A0000C9415160C94001C0C9417370C942121F5
:1004B0000C9429390C94BA260C942B210C9457399E
:1004C0000C9440050C94F1160C9428050C94843976
:1004D0000C9440140C9470390C941F390C944F15E3
:1004E0000C942F160C9443390C943B1C0C94BB05B4
:1004F0000C9469150C941C370C94BF260C9429217C
:100500000C949A150C9422050C9404180C94232135
:100510000C94C1160C941F1C0C94061C0C94E7122E
:100520000C94BE260C94B7130C94FB150C94441C2D
:100530000C942D170C941C130C9421170C94FE167C
:100540000C948A130C9437140C9495160C94111C6B
:100550000C94BE150C94BD260C946F060C94FF20D1
:100560000C940A1C0C9413180C94B7260C94B51513
:100570000C94C9130C946B060C94D8040C9445414C
:100580000C9427210C94DB340C940D150C94D41589
:100590000C949E160C9470350C94EE150C940A096C
:1005A0000C942E050C9471060C94AC150C942D1C17
:1005B0000C9498390C9409180C943C160C94081659
:1005C0000C944D390C94DB160C94AB160C94CE168F
:1005D0000C9460160C946D060C9468060C943235DD
:1005E0000C9422410C9406130C94151C0C942514A5
:1005F0000C94D8140C9422160C9461390C941B1C86
:100600000C94D8410C9419210C9418050C94931354
:100610000C9431410C94E1150C9429130C941F2176
:100620000C9481130C9476150C94BB260C942C0519
:100630000C9421370C941F150C94BE140C944E1678
:100640000C9402140C9426050C9414170C94602638
:100650000C94A4140C9430050C9416150C941B21C6
:100660000C94BB040C94C0130C9458250C9488155E
:100670000C9469060C9403360C94C7150C94DB1388
:100680000C9456140C9450134E414E494E495459F3
:10069000494E46CDCCCC3D0AD7233C17B7D138774D
:1006A000CC2B329595E6241FB14F0A000020410063
:1006B00000C84200401C4620BCBE4CCA1B0E5AAEAD
:1006C000C59D7400407A10F35A00A0724E180900BC
:1006D00010A5D4E80000E87648170000E40B5402A7
:1006E0000000CA9A3B000000E1F5050000809698E2
:1006F00000000040420F000000A086010000001032
:100700002700000000E80300000000640000000073
:10071000000A00000000000100000000002C76D854
:1007200088DC674F0823DFC1DFAE59E1B1B796E53A
:10073000E3E453C63AE651997696E8E6C28426EB9E
:10074000898C9B62ED407C6FFCEFBC9C9F40F2BAB1
:10075000A56FA5F490055A2AF75C936B6CF9676D49
:10076000C11BFCE0E40D47FEF520E6B500D0ED909E
:100770002E0300943577050080841E080000204E6B
:100780000A000000C80C333333330F986E12831104
:1007900041EF8D2114893BE65516CFFEE6DB18D1DB
:1007A000844B381BF77C1D901DA4BBE424203284AD
:1007B000725E228100C9F124ECA1E53D27000021F1
:1007C00000240027002A002D003000330001010022
:1007D00000040107010A0100000A0B02090C0D0EBA
:1007E00008070304010000000000000000000000F2
:1007F00000000000000000000000000000000000F9
:1008000000000012111000000000000000000000B5
:1008100000000000000000000000000000000000D8
:1008200000000000000000000000000000010210B5
:1008300020200808102040102040800201020108FA
:1008400004020101020408102040808040201008AA
:100850000402018004020180402010080402010803
:100860000402010102040810204080010204081063
:100870002040801008040880102040044080102090
:10088000400480000020002300260029002C002FB7
:1008900000320000010000030106010901000022EE
:1008A00000250028002B002E00310034000201003A
:1008B00000050108010B01050505050705080808E5
:1008C00008020202020A0A080804040404010101E1
:1008D00001010101010303030303030303040707E9
:1008E000070C0C0C0C0C0C0C0C0202020206060687
:1008F00006060606060B0B0B0B0B0B0B0B07070A6A
:100900000A0A0A0A0A0505050404040808007052C8
:1009100011241FBECFEFD1E2DEBFCDBF00E00CBF80
:1009200018E0A0E0B2E0E2EEF8EB00E00BBF02C09E
:1009300007900D92A431B107D9F72EE0A4E1B8E0F9
:1009400001C01D92AE3EB207E1F714E0C8E8D4E062
:1009500000E006C021970109802FFE010E94455A40
:10096000C738D10780E00807A9F70E94AE460C946B
:100970006F5C0C940000EF92FF920F931F93CF9344
:10098000DF93FB01E2A8F3A802A113A1C68DD78DC6
:100990000E94AF399701A801BE010E94C83880E0CB
:1009A00090E0DF91CF911F910F91FF90EF9008950C
:1009B0004F925F926F927F92AF92BF92CF92DF92EF
:1009C000EF92FF920F931F93CF93DF93FB01E2A867
:1009D000F3A846A457A460A871A8C6A0D7A0A2A057
:1009E000B3A0068D178D0E94AF39EC019701A501C8
:1009F000B8010E94C838C301B2010E94C520970106
:100A0000A601B801CE010E94C83880E090E0DF91D5
:100A1000CF911F910F91FF90EF90DF90CF90BF90FB
:100A2000AF907F906F905F904F9008950C94AF536C
:100A30000C94AF530C94AF530C94AF530C94AF532E
:100A40000C94AF530C94AF530C94AF530C94AF531E
:100A50000C94AF530C94AF530C94AF530C94AF530E
:100A6000CF93DF93FB01D2A9C68D0E94AF396D2FC2
:100A70008C2F0E94B61F80E090E0DF91CF91089507
:100A80000F931F93CF93DF93FB0102A913A9C68D88
:100A9000D78D0E94AF39A801BE010E945C3880E06A
:100AA00090E0DF91CF911F910F910895662319F087
:100AB0008AE794E002C083E794E00C94981CCF93FB
:100AC000DF93FB01C68DD78D0E94B418BE010E9432
:100AD000551880E090E0DF91CF910895CF92DF929A
:100AE000EF92FF920F931F93CF93DF93FB01C2A06E
:100AF000D3A0E4A0F5A0068D178D0E94B418EC01D8
:100B00008A819B818F30F7E29F0724F401969B83B3
:100B10008A8302C01B821A82B801CE010E94173A52
:100B20008823B1F0F801EE0FFF1FEE0FFF1FE45E08
:100B3000F74FC082D182E282F382A7019601B80109
:100B4000CE010E941818B801CE010E94551804C0A9
:100B50008DE695E00E94981C0E942F380E94FA377B
:100B600080E090E0DF91CF911F910F91FF90EF9087
:100B7000DF90CF9008958F929F92AF92BF92CF92C5
:100B8000DF92EF92FF920F931F930E943E2562E047
:100B900070E00E94BF3A892BD1F40E943E2521E0EB
:100BA0002F931F921F921F921F92812C912CA12C88
:100BB000B12CC12CD12C760197018601B701A60179
:100BC0000E94550B0F900F900F900F900F9080E0A8
:100BD00090E01F910F91FF90EF90DF90CF90BF902A
:100BE000AF909F908F9008958F929F92AF92BF92F7
:100BF000CF92DF92EF92FF920F931F930E943E25B8
:100C000061E070E00E94BF3A892BD1F40E943E253A
:100C10001F9221E02F931F921F921F92812C912CE3
:100C2000A12CB12CC12CD12C760197018601B701E2
:100C3000A6010E94550B0F900F900F900F900F90F0
:100C400080E090E01F910F91FF90EF90DF90CF90A8
:100C5000BF90AF909F908F9008958F929F92AF9288
:100C6000BF92CF92DF92EF92FF920F931F930E9459
:100C70003E2560E070E00E94BF3A892BD1F40E94CB
:100C80003E251F921F9221E02F931F921F92812CCD
:100C9000912CA12CB12CC12CD12C7601970186016D
:100CA000B701A6010E94550B0F900F900F900F9067
:100CB0000F9080E090E01F910F91FF90EF90DF90F8
:100CC000CF90BF90AF909F908F9008950895089512
:100CD000089508950895089508950895089508952C
:100CE000089508950895EF92FF920F931F93CF9365
:100CF000DF93CDB7DEB72E970FB6F894DEBF0FBEE9
:100D0000CDBF8C010E94CB1C6FE875E0C8010E942A
:100D10008143609118087091190880911A08909188
:100D20001B082AE0AE014F5F5F4F7A010E947254A8
:100D3000F70101900020E9F73197AF014E195F09E3
:100D4000B701C8010E9423436EEE74E0C8010E94FF
:100D50008143C8012E960FB6F894DEBF0FBECDBFFB
:100D6000DF91CF911F910F91FF90EF9008958FE841
:100D700095E00E94981C6091180870911908809164
:100D80001A0890911B080E94F91C8EEE94E00C94B6
:100D9000981C0F931F93CF93DF93EC0182E995E0AA
:100DA0000E94981C86E995E00E94981C05EA1CE0C8
:100DB000F8016081CE010E9456058AE995E00E9403
:100DC000981CF8016181CE010E9456058EE995E0DC
:100DD0000E94981CF8016281CE010E94560582EAA9
:100DE00095E00E94981CF8016381CE010E9456058F
:100DF00086EA95E00E94981CF8016481CE010E9469
:100E000056058AEA95E00E94981CF8016581CE019A
:100E10000E945605CE01DF91CF911F910F910C9446
:100E2000B706CF92DF92EF92FF92CF93DF93EC0160
:100E300088819981AA81BB81181619061A061B069A
:100E400044F081E090E0A0E0B0E088839983AA8339
:100E5000BB838C819D81AE81BF81181619061A064D
:100E60001B0644F081E090E0A0E0B0E08C839D831D
:100E7000AE83BF8388859985AA85BB851816190618
:100E80001A061B0644F081E090E0A0E0B0E08887FD
:100E90009987AA87BB878EEA95E00E94981C86ED09
:100EA00096E00E94981C6091C60E7091C70E8091CA
:100EB000C80E9091C90E0E94A0586B017C016881F8
:100EC00079818A819B810E94A0589B01AC01C70156
:100ED000B6010E94BA5A42E00E94231D86EE96E0B7
:100EE0000E94981C6091CA0E7091CB0E8091CC0E1E
:100EF0009091CD0E0E94A0586B017C016C817D8188
:100F00008E819F810E94A0589B01AC01C701B60150
:100F10000E94BA5A42E00E94231D86EF96E00E948A
:100F2000981C6091CE0E7091CF0E8091D00E909152
:100F3000D10E0E94A0586B017C01688579858A8555
:100F40009B850E94A0589B01AC01C701B6010E947D
:100F5000BA5A42E00E94231DCE01DF91CF91FF904B
:100F6000EF90DF90CF900C94B7068091A30C9091F6
:100F7000A40C892B09F040C08FE090E00E94175329
:100F8000FC0181E090E0A0E0B0E080839183A28347
:100F9000B38384839583A683B78380879187A28751
:100FA000B3871586148616861092C60E1092C70E49
:100FB0001092C80E1092C90E1092CA0E1092CB0E4B
:100FC0001092CC0E1092CD0E1092CE0E1092CF0E2B
:100FD0001092D00E1092D10E10921808109219088B
:100FE00010921A0810921B081092170810921608F7
:100FF000F093A40CE093A30C8091A30C9091A40C0B
:1010000008950E94B4180E94981882EB95E00E94FF
:10101000981C0E94B5070E94B70680E090E00895F2
:101020002F923F924F925F926F927F928F929F92F8
:10103000AF92BF92CF92DF92EF92FF920F931F93E6
:10104000CF93DF93CDB7DEB72A970FB6F894DEBF04
:101050000FBECDBF0E94B4188091E8089091E908B6
:10106000019729F486EF9FEF9E838D8304C0AAE049
:10107000B0E0BE83AD830E94B5076091C60E70914B
:10108000C70E8091C80E9091C90E0E94A0586B01A6
:101090007C010E94B4186091F8087091F908809161
:1010A000FA089091FB080E94A0589B01AC01C7016F
:1010B000B6010E94BA5A69837A838B839C830E940B
:1010C000B5076091CA0E7091CB0E8091CC0E9091B5
:1010D000CD0E0E94A0586B017C010E94B418609153
:1010E000FC087091FD088091FE089091FF080E9415
:1010F000A0589B01AC01C701B6010E94BA5A2B014E
:101100003C01212C312C8D819E81092E000CAA0BD3
:10111000BB0B8D839E83AF83B88791E02916310482
:1011200049F0A2E02A16310419F10E943E25B1E0EF
:10113000BF9322C00E943E259A8789876D817E8158
:101140008F8198850E94A0586B017C011F921F928D
:101150001F921F921F92812C912CA12CB12C9301D4
:10116000820149815A816B817C8189859A8515C06C
:101170000E943E25E1E0EF931F921F921F921F9263
:10118000812C912CA12CB12CC12CD12C7601930156
:10119000820149815A816B817C810E94550B0F909D
:1011A0000F900F900F900F900E94B5078091160836
:1011B000909117089A8789870E94B507DC011E96CF
:1011C0008C9181110CC0E985FA85EF2B41F4FFEF7A
:1011D0002F1A3F0A23E02216310409F09ECF80E047
:1011E00090E02A960FB6F894DEBF0FBECDBFDF9118
:1011F000CF911F910F91FF90EF90DF90CF90BF9014
:10120000AF909F908F907F906F905F904F903F90A6
:101210002F9008952F923F924F925F926F927F92FC
:101220008F929F92AF92BF92CF92DF92EF92FF92F6
:101230000F931F93CF93DF93CDB7DEB72A970FB6E7
:10124000F894DEBF0FBECDBF0E94B4188091E808AD
:101250009091E908019729F486EF9FEF9E838D8393
:1012600004C0AAE0B0E0BE83AD830E94B5076091E0
:10127000C60E7091C70E8091C80E9091C90E0E9443
:10128000A0582B013C010E94B4186091F80870919D
:10129000F9088091FA089091FB080E94A0589B01E0
:1012A000AC01C301B2010E94BA5A69837A838B836D
:1012B0009C830E94B5076091CE0E7091CF0E8091F5
:1012C000D00E9091D10E0E94A0582B013C010E949B
:1012D000B418609100097091010980910209909100
:1012E00003090E94A0589B01AC01C301B2010E94F6
:1012F000BA5A2B013C01212C312C8D819E81092E63
:10130000000CAA0BBB0B8D839E83AF83B88791E043
:101310002916310451F0A2E02A16310421F10E946D
:101320003E251F92B1E0BF9323C00E943E259A87BD
:1013300089876D817E818F8198850E94A0588B015D
:101340009C011F921F921F921F921F92812C912C21
:10135000A12CB12C7301620149815A816B817C817E
:1013600089859A8515C00E943E251F92E1E0EF9382
:101370001F921F921F92812C912CA12CB12C7301D2
:10138000620100E010E0980149815A816B817C8103
:101390000E94550B0F900F900F900F900F900E948E
:1013A000B50780911608909117089A8789870E943F
:1013B000B507DC011E968C9181110CC0E985FA8578
:1013C000EF2B41F4FFEF2F1A3F0A23E022163104DE
:1013D00009F09DCF80E090E02A960FB6F894DEBF2A
:1013E0000FBECDBFDF91CF911F910F91FF90EF9076
:1013F000DF90CF90BF90AF909F908F907F906F9035
:101400005F904F903F902F9008952F923F924F9270
:101410005F926F927F928F929F92AF92BF92CF9284
:10142000DF92EF92FF920F931F93CF93DF93CDB78D
:10143000DEB72A970FB6F894DEBF0FBECDBF0E946D
:10144000B4188091E8089091E908019729F486EF93
:101450009FEF9E838D8304C0AAE0B0E0BE83AD837E
:101460000E94B5076091CA0E7091CB0E8091CC0E90
:101470009091CD0E0E94A0582B013C010E94B418FF
:101480006091FC087091FD088091FE089091FF0822
:101490000E94A0589B01AC01C301B2010E94BA5A3C
:1014A00069837A838B839C830E94B5076091CE0EFB
:1014B0007091CF0E8091D00E9091D10E0E94A058C5
:1014C0002B013C010E94B418609100097091010940
:1014D00080910209909103090E94A0589B01AC01E0
:1014E000C301B2010E94BA5A2B013C01212C312CBC
:1014F0008D819E81092E000CAA0BBB0B8D839E83D0
:10150000AF83B88791E02916310459F0A2E02A167A
:10151000310429F10E943E251F921F92B1E0BF9332
:1015200024C00E943E259A8789876D817E818F81A4
:1015300098850E94A058AB01BC011F921F921F9278
:101540001F921F92812C912CA12CB12C730162014E
:1015500009811A812B813C8189859A8515C00E9459
:101560003E251F921F92E1E0EF931F921F92812C64
:10157000912CA12CB12C7301620109811A812B815C
:101580003C8140E050E0BA010E94550B0F900F9053
:101590000F900F900F900E94B507809116089091C0
:1015A00017089A8789870E94B507DC011E968C91DF
:1015B00081110CC0E985FA85EF2B41F4FFEF2F1A5A
:1015C0003F0A23E02216310409F09CCF80E090E02E
:1015D0002A960FB6F894DEBF0FBECDBFDF91CF9134
:1015E0001F910F91FF90EF90DF90CF90BF90AF9041
:1015F0009F908F907F906F905F904F903F902F9033
:1016000008950E94B507FC01168680E090E00895D9
:10161000CF93DF938FE30E945A1FEC010E94B5071E
:1016200081E0CD2B09F480E08093A50C80E40E943A
:101630005A1FEC010E94B50781E0CD2B09F480E030
:101640008093A60C8EE00E945A1FEC010E94B50701
:1016500081E0CD2B09F480E08093A70C8FE00E94FD
:101660005A1FEC010E94B50781E0CD2B09F480E000
:101670008093A80C8CE00E945A1FEC010E94B507D1
:1016800081E0CD2B09F480E08093A90C89E00E94D1
:101690005A1FEC010E94B50781E0CD2B09F480E0D0
:1016A0008093AA0CDF91CF9108952F923F924F9291
:1016B0005F926F927F928F929F92AF92BF92CF92E2
:1016C000DF92EF92FF920F931F93CF93DF93CDB7EB
:1016D000DEB7E1970FB6F894DEBF0FBECDBF3C0179
:1016E0004F83588769877A87098B1A8B2B8B3C8BA2
:1016F000CD8ADE8AEF8AF88E29960EAD1FAD299726
:101700000E9458466E8F7F8F88A399A30E945846E7
:10171000698F7A8F8B8F9C8FF301EC5DFD4F118267
:1017200010823B96A114B10479F0C501A0E0B0E0AD
:10173000408151816281738184179507A607B7079D
:101740002CF4AC01BD0102C040815181F301ED5C7C
:10175000FD4F8114910479F0A12CB12C80819181ED
:10176000A281B38188169906AA06BB0614F4D50196
:10177000C401BC0102C060817181F301E95CFD4FCD
:101780000115110571F020E030E080819181A28186
:10179000B381081719072A073B072CF4D901C801A0
:1017A00002C0808191819301205F3F4F388B2F874A
:1017B0008A0120E030E0F30106A717A720AB31AB88
:1017C0001301F0E92F0E311CAB0160E070E0F10174
:1017D000468F578F60A371A32301F0EF4F1AFEEFDE
:1017E0005F0AA0E0B0E0F201868F978FA0A3B1A3BB
:1017F000E257FE4F108211821282138234961082B9
:101800001182128213823496108211821282138204
:101810003496118210823296118210823296118291
:1018200010820E94B5078091C60E9091C70EA091BC
:10183000C80EB091C90E4301F0E58F1AFDEF9F0A63
:10184000F40180839183A283B3830E94B5078091C2
:10185000CA0E9091CB0EA091CC0EB091CD0EF3019B
:10186000EC54FD4F80839183A283B3830E94B5071C
:101870008091CE0E9091CF0EA091D00EB091D10E4E
:10188000F301E854FD4F80839183A283B383530116
:10189000FEE6AF1AFDEFBF0AF5016081718182811A
:1018A00093810E94A0582F81388549855A850E94CE
:1018B000FF580E942C5B8B019C01F40140815181F7
:1018C000628173812A96EFAC2A978F8598890E944E
:1018D0006C1A8823F1F08BE393E00E94981C86ED4C
:1018E00096E00E94981CF301E85AFF4F60817181D5
:1018F00082819381F50120813181428153810E944F
:10190000D659CA01B9010E94F91C0E94B5070E946C
:10191000B7066301FAE6CF1AFDEFDF0AF601608130
:101920007181828193810E94A05829893A894B89CB
:101930005C890E94FF580E942C5B8B019C01F30183
:10194000EC54FD4F40815181628173812B96EFAC45
:101950002B97C1010E946C1A8823F1F087E393E072
:101960000E94981C86EE96E00E94981CF301E852B3
:10197000FF4F6081718182819381F60120813181E5
:10198000428153810E94D659CA01B9010E94F91CB3
:101990000E94B5070E94B7066301F6E6CF1AFDEF75
:1019A000DF0AF60160817181828193810E94A058D3
:1019B0002D893E894F89588D0E94FF580E942C5BCB
:1019C0008B019C01F301E854FD4F408151816281FC
:1019D00073812C96EFAC2C97C2010E946C1A88235D
:1019E000F1F083E393E00E94981C86EF96E00E945A
:1019F000981CF301E85AFE4F6081718182819381C6
:101A0000F60120813181428153810E94D659CA0159
:101A1000B9010E94F91C0E94B5070E94B706F301A4
:101A2000158AEB56FF4F1082E058FF4F1082C3011A
:101A30000E947E32C3010E9482328F8598890E9463
:101A40003D2FC1010E943D2FC2010E943D2F81E028
:101A500090E0F301EA5DFD4F918380837301F8ED1F
:101A6000EF1AFDEFFF0AF701918380838301065D82
:101A70001D4FF8019183808341E050E06F857889A4
:101A8000C3010E94AC24F70140815181B101C3011F
:101A90000E94AC24F80140815181B201C3010E942F
:101AA000AC2481E0F301E150FD4F80838F8598895C
:101AB0000E94571AC1010E94571AC2010E94571A68
:101AC0000E945846F301FD5F608371838283938394
:101AD00064E670E080E090E00E94C5202A96FFADA9
:101AE0002A97F1110EC02B962FAD2B97211105C00F
:101AF0002C963FAD2C973323B1F0F301EB58FF4FF9
:101B000010822B964FAD2B97411104C0F301EB507F
:101B1000FF4F10822C965FAD2C97511104C0F3013A
:101B2000EB58FE4F10828F8598890E94C82CC10106
:101B30000E94C82CC2010E94C82C8F8598890E94DF
:101B4000311BC1010E94311BC2010E94311B0E9446
:101B5000B507FC0186858D8F18861F8293012B584F
:101B60003F4F3A8B298BA3014B505F4F5E8B4D8BC0
:101B7000C3018B589E4F9E878D87F301EA5DFD4F11
:101B8000FDA3ECA32D543E4F3FA32EA34B5C5E4F11
:101B900059A748A78D5F91099BA38AA3EC54FF4FD7
:101BA000FBA7EAA72A553F4F3DA72CA74B535F4FF2
:101BB0005FA74EA78C5B9D4F99AB88ABE989FA89EB
:101BC000808181110AC0ED89FE898081811105C063
:101BD000ED85FE858081882321F0FD8DFF2309F4AA
:101BE000C6C08301025E1D4FF80180819181892B5F
:101BF00021F0C3010E949740F7CF8BED95E00E9442
:101C0000981C2A96FFAD2A97FF23F9F02F8138857B
:101C1000232B09F041C03D8D311124C08FE293E0A8
:101C20000E94981C0E94B5070E94B7062B964FADE4
:101C30002B97442309F48BC48BE293E00E94981CF9
:101C40000E94B5070E94B70682C42B968FAD2B97D2
:101C5000882369F0EF81F885EF2B19F5FD8DF111DF
:101C600020C0EACF2B963FAD2B9731111AC02C968E
:101C70002FAD2C972223A9F04F815885452B89F44D
:101C80005D8D51110EC087E293E00E94981C0E9466
:101C9000B5070E94B70605C02B964FAD2B9744237E
:101CA00031F373018AEDE81A8DEFF80A85E090E0D0
:101CB000F701918380835301F8EDAF1AFDEFBF0A5E
:101CC000F501918380838301065D1D4FF8019183A7
:101CD000808345E050E06F857889C3010E94AC2481
:101CE000F50140815181B101C3010E94AC24F8018A
:101CF00040815181B201C3010E94AC24C3010E9402
:101D00008632C3010E947E32C3010E9482320E9449
:101D1000B5070E941107F70111821082F5011182A7
:101D20001082F8011182108240E050E06F857889BE
:101D3000C3010E94AC24F50140815181B101C3016E
:101D40000E94AC24F80140815181B201C3010E947C
:101D5000AC24FD8DFF2309F401C40E94B50721E0E6
:101D6000FC01268721E030E038872F83F7C34CA1A0
:101D70005DA16F857889C3010E9405254EA15FA1F1
:101D8000B101C3010E94052548A559A5B201C301AF
:101D90000E940525E989FA898081882329F0EAA132
:101DA000FBA180818111DEC1ED89FE8980818823BC
:101DB00049F0930128503F4F3C872B87F9018081E0
:101DC0008111EEC1ED85FE858081882349F0930164
:101DD00028583E4F3C872B87F9018081811108C22A
:101DE000E989FA8980818823D1F1F301E853FD4F15
:101DF00060817181072E000C880B990B0E94A058FE
:101E00009B01AC01F301E256FD4F6081718182813B
:101E100093810E94625B181614F5E989FA89108291
:101E200061EF74E08301065E1D4FC8010E9481438B
:101E300064EF75E0C8010E9481436EEE74E0C80152
:101E40000E9481432A96FFAD2A97FF2309F4F8C127
:101E5000F301EC5AFF4F1082118212821382ED8936
:101E6000FE8980818823D1F1F301E653FD4F608123
:101E70007181072E000C880B990B0E94A0589B01C2
:101E8000AC01F301EE55FD4F608171818281938138
:101E90000E94625B181614F5ED89FE89108261EFCD
:101EA00074E08301065E1D4FC8010E9481436CE10E
:101EB00076E0C8010E9481436EEE74E0C8010E9482
:101EC00081432B96FFAD2B97FF2309F4BEC1F3018D
:101ED000EC52FF4F1082118212821382ED85FE8533
:101EE00080818823D1F1F301E453FD4F608171813A
:101EF000072E000C880B990B0E94A0589B01AC0187
:101F0000F301EA55FD4F60817181828193810E94C6
:101F1000625B181614F5ED85FE85108261EF74E0A2
:101F20008301065E1D4FC8010E94814364E476E090
:101F3000C8010E9481436EEE74E0C8010E94814393
:101F40002C96FFAD2C97FF2309F484C1F301EC5AC2
:101F5000FE4F1082118212821382F301EA58FF4F62
:101F600060818F8598890E94DF1A882351F0F301E0
:101F7000EC5AFF4F1082118212821382E989FA898A
:101F80001082F301EA50FF4F6081C1010E94DF1A05
:101F9000882351F0F301EC52FF4F1082118212821C
:101FA0001382ED89FE891082F301EA58FE4F6081A9
:101FB000C2010E94DF1A882351F0F301EC5AFE4F50
:101FC0001082118212821382ED85FE851082C30178
:101FD0000E948632C3010E947E32E989FA8980819B
:101FE0008823E9F00E9458466B017C012E8D3F8DBD
:101FF00048A159A1C21AD30AE40AF50AF301EA5723
:10200000FD4F2081318142815381A8EEB3E00E94CF
:10201000F5596C157D058E059F0508F420C1ED89E5
:10202000FE8980818823E9F00E9458466B017C017B
:102030002E8D3F8D48A159A1C21AD30AE40AF50A90
:10204000F301E657FD4F2081318142815381A8EE93
:10205000B3E00E94F5596C157D058E059F0508F4C7
:1020600018C1ED85FE8580818823E9F00E945846DD
:102070006B017C012E8D3F8D48A159A1C21AD30A54
:10208000E40AF50AF301E257FD4F208131814281D4
:102090005381A8EEB3E00E94F5596C157D058E05BD
:1020A0009F0508F410C10E945846F301FD5F60834C
:1020B0007183828393838EEA9CE00E9453411816B9
:1020C00019063CF58EEA9CE00E9431418F7D8534F3
:1020D0009105F9F466EB75E0C301865E9D4F0E94A1
:1020E000814386EA93E00E94981C0E94B5070E94F3
:1020F000B706E989FA891082ED89FE891082ED859B
:10210000FE851082F1E0FD8F21E030E038872F83DB
:1021100004C04F815885452B39F06BEC75E0C30145
:10212000865E9D4F0E948143C3010E9497400E949A
:102130005846DC01CB01298D3A8D4B8D5C8D821B7D
:10214000930BA40BB50B8B3F9105A105B10508F4CA
:1021500035CDF301E25EFD4F80819181892B09F439
:10216000CCC02CCD8F8598890E94C82C8AA49BA4B2
:10217000ACA4BDA4CEA4DFA4E8A8F9A883010055AF
:102180001D4F930122563D4FA30140575E4F6F856F
:102190007889C3010E947A2CEAA1FBA1108204CEA7
:1021A000C1010E94C82C4301F5E28F1AFDEF9F0A7E
:1021B00053012EE2A21A2DEFB20A63013FE0C31AC7
:1021C0003DEFD30A730140E4E41A4DEFF40A8301B2
:1021D0000C541D4F93012E553D4FA30142545E4FA9
:1021E000B101C3010E947A2CEB85FC851082EACDF7
:1021F000C2010E94C82C4301F4E28F1AFDEF9F0A2E
:1022000053012AE2A21A2DEFB20A63013DE0C31A7C
:102210003DEFD30A73014CE3E41A4DEFF40A830156
:1022200008541D4F93012A553D4FA30144515E4F61
:10223000B201C3010E947A2CEB85FC851082D0CDBF
:102240002FE130E038872F830ACE20E230E0388754
:102250002F8344CE21E230E038872F837ECEE98978
:10226000FA89108262EB73E08301065E1D4FC8019C
:102270000E9481436EEE74E0C8010E9481436CE6C7
:1022800076E0C8010E94814322E030E038872F8346
:10229000C6CEED89FE8910826EEA73E08301065E88
:1022A0001D4FC8010E9481436EEE74E0C8010E9478
:1022B000814361E876E0C8010E94814322E030E07A
:1022C00038872F83CECEED85FE8510826AEA73E0D3
:1022D0008301065E1D4FC8010E9481436EEE74E0CB
:1022E000C8010E94814366E976E0C8010E948143EB
:1022F00022E030E038872F83D6CEF301EC5DFD4F2E
:10230000808191818130910509F0F0C00E94B5076C
:102310008C01FC0180819181A281B381181619067C
:102320001A061B0644F081E090E0A0E0B0E0808354
:102330009183A283B383F80184819581A681B781BB
:10234000181619061A061B0644F081E090E0A0E07A
:10235000B0E084839583A683B783F8018085918557
:10236000A285B385181619061A061B0644F081E0EB
:1023700090E0A0E0B0E080879187A287B387CE018C
:1023800001960E94CB1C6EEA75E0CE0101960E9478
:10239000814366ED76E0CE0101960E948143609113
:1023A000C60E7091C70E8091C80E9091C90E0E9402
:1023B000A0586B017C01F801608171818281938159
:1023C0000E94A0589B01AC01C701B6010E94BA5AF5
:1023D000AB01BC01CE0101960E949A1C66EE76E02C
:1023E000CE0101960E9481436091CA0E7091CB0E7E
:1023F0008091CC0E9091CD0E0E94A0586B017C0173
:10240000F80164817581868197810E94A0589B01A3
:10241000AC01C701B6010E94BA5AAB01BC01CE01A2
:1024200001960E949A1C66EF76E0CE0101960E940A
:1024300081436091CE0E7091CF0E8091D00E90911D
:10244000D10E0E94A0586B017C01F8016085718556
:10245000828593850E94A0589B01AC01C701B601FB
:102460000E94BA5AAB01BC01CE0101960E949A1C8F
:10247000BE016F5F7F4F8301065E1D4FC8010E9442
:10248000904389819A810E94AF530AC0892BC9F475
:1024900062EA73E08301065E1D4FC8010E9481431A
:1024A0000E94B507BC01CE0101960E947306BE01D1
:1024B0006F5F7F4FC8010E94904389819A810E947B
:1024C000AF53F301EC5DFD4F808191810196833024
:1024D00091051CF49183808302C0118210820E94B6
:1024E0005846698F7A8F8B8F9C8F68CB823091058D
:1024F00069F667ED75E08301065E1D4FC8010E9415
:10250000814366ED76E0C8010E9481438F859889FA
:102510000E94612FBC01C8010E94514366EE76E023
:10252000C8010E948143C1010E94612FBC01C80102
:102530000E94514366EF76E0C8010E948143C201C8
:102540000E94612FBC01C8010E945143A9CF2C9663
:102550005FAD2C97552309F4A4CB95CB89EE95E07C
:102560000E94981C8F8198850E94F11D8EEE94E048
:102570000E94981C0E94B5074F81588550931708F8
:1025800040931608CA01E1960FB6F894DEBF0FBE5D
:10259000CDBFDF91CF911F910F91FF90EF90DF9012
:1025A000CF90BF90AF909F908F907F906F905F90F3
:1025B0004F903F902F900895603E710508F041C400
:1025C000FB018827EE58FF4F8F4F0C94455A81E04E
:1025D00090E0A0E0B0E080931C0890931D08A093C9
:1025E0001E08B0931F080895109220081092210829
:1025F0001092220810922308089510922408109235
:1026000025081092260810922708089581E090E08E
:10261000A0E0B0E08093280890932908A0932A08AE
:10262000B0932B08089510922C0810922D08109248
:102630002E0810922F08089583E090E0A0E0B0E00B
:102640008093300890933108A0933208B0933308F8
:10265000089588E790E0A0E0B0E080934808909368
:102660004908A0934A08B0934B08089588E790E082
:10267000A0E0B0E080934C0890934D08A0934E08E2
:10268000B0934F08089588E790E0A0E0B0E0809311
:10269000500890935108A0935208B093530808959E
:1026A000109258081092590810925A0810925B081C
:1026B000089510925C0810925D0810925E081092C6
:1026C0005F08089581E090E0A0E0B0E080936008AA
:1026D00090936108A0936208B093630808951092E4
:1026E00064081092650810926608109267080895B1
:1026F000109268081092690810926A0810926B088C
:10270000089510926C0810926D0810926E08109245
:102710006F08089510927008109271081092720854
:102720001092730808951092740810927508109210
:102730007608109277080895109278081092790818
:1027400010927A0810927B080895109280081092D7
:1027500081081092820810928308089510928408CC
:10276000109285081092860810928708089510929A
:1027700088081092890810928A0810928B08089590
:10278000109298081092990810929A0810929B083B
:10279000089510929C0810929D0810929E08109225
:1027A0009F0808951092A0081092A1081092A20804
:1027B0001092A308089581E090E0A0E0B0E080933B
:1027C000AC089093AD08A093AE08B093AF080895FD
:1027D00081E090E0A0E0B0E08093B0089093B10871
:1027E000A093B208B093B30808958CE291E0A0E002
:1027F000B0E08093C0089093C108A093C208B09342
:10280000C30808958CE291E0A0E0B0E08093C40892
:102810009093C508A093C608B093C70808958CE2AA
:1028200091E0A0E0B0E08093C8089093C908A0931D
:10283000CA08B093CB0808951092D0081092D1081E
:102840001092D2081092D30808951092D4081092D2
:10285000D5081092D6081092D70808951092D8087B
:102860001092D9081092DA081092DB08089510929D
:10287000E8081092E9081092EA081092EB0808950F
:102880001092EC081092ED081092EE081092EF08EA
:10289000089581E090E0A0E0B0E08093F00890938C
:1028A000F108A093F208B093F308089585E090E052
:1028B000A0E0B0E08093F8089093F908A093FA089C
:1028C000B093FB08089585E090E0A0E0B0E080932D
:1028D000FC089093FD08A093FE08B093FF080895AC
:1028E00089E190E0A0E0B0E08093000990930109B5
:1028F000A0930209B0930309089582E390E0A0E059
:10290000B0E08093100990931109A0931209B0933D
:102910001309089582E390E0A0E0B0E080931409E9
:1029200090931509A0931609B0931709089582E3AF
:1029300090E0A0E0B0E08093180990931909A0936B
:102940001A09B0931B09089582E390E0A0E0B0E07B
:102950008093200990932109A0932209B093230921
:10296000089582E390E0A0E0B0E080932409909382
:102970002509A0932609B0932709089582E390E0E2
:10298000A0E0B0E08093280990932909A0932A0938
:10299000B0932B09089580E991E0A0E0B0E0809326
:1029A000380990933909A0933A09B0933B090895E7
:1029B00080E991E0A0E0B0E080933C0990933D096C
:1029C000A0933E09B0933F09089580E991E0A0E00B
:1029D000B0E08093400990934109A0934209B093DD
:1029E00043090895109248091092490910924A0922
:1029F00010924B09089510924C0910924D091092B3
:102A00004E0910924F0908951092500910925109E1
:102A1000109252091092530908951092600A109270
:102A2000610A1092620A1092630A08951092640A71
:102A30001092650A1092660A1092670A0895109221
:102A4000680A1092690A10926A0A10926B0A089535
:102A500088E592E0A0E0B0E080936009909361097E
:102A6000A0936209B0936309089588E592E0A0E01D
:102A7000B0E08093640990936509A0936609B093D0
:102A80006709089588E592E0A0E0B0E080936809C6
:102A900090936909A0936A09B0936B0908958EE138
:102AA00090E0A0E0B0E08093700990937109A0934A
:102AB0007209B093730908958EE190E0A0E0B0E050
:102AC0008093740990937509A0937609B093770960
:102AD00008958EE190E0A0E0B0E0809378099093B3
:102AE0007909A0937A09B0937B0908951092880917
:102AF0001092890910928A0910928B0908951092F8
:102B00008C0910928D0910928E0910928F090895E8
:102B100010929009109291091092920910929309C3
:102B200008951092B0091092B1091092B209109252
:102B3000B30908951092B4091092B5091092B6091C
:102B40001092B70908951092B8091092B90910921D
:102B5000BA091092BB0908951092C0091092C109D8
:102B60001092C2091092C30908951092C4091092DC
:102B7000C5091092C6091092C70908951092C80994
:102B80001092C9091092CA091092CB09089585E0E4
:102B900090E0A0E0B0E08093D8099093D909A09389
:102BA000DA09B093DB09089585E090E0A0E0B0E099
:102BB0008093DC099093DD09A093DE09B093DF09CF
:102BC000089585E090E0A0E0B0E08093E009909364
:102BD000E109A093E209B093E309089584EB95E13C
:102BE000A0E0B0E08093E8099093E909A093EA0996
:102BF000B093EB09089584EB95E1A0E0B0E08093F9
:102C0000EC099093ED09A093EE09B093EF090895B4
:102C100084EB95E1A0E0B0E08093F0099093F10996
:102C2000A093F209B093F309089585E090E0A0E045
:102C3000B0E08093000A9093010AA093020AB09337
:102C4000030A089585E090E0A0E0B0E08093040AD4
:102C50009093050AA093060AB093070A089585E0A9
:102C600090E0A0E0B0E08093080A9093090AA09356
:102C70000A0AB0930B0A08951092100A1092110AD2
:102C80001092120A1092130A08951092140A1092C8
:102C9000150A1092160A1092170A08951092180A2F
:102CA0001092190A10921A0A10921B0A0895109293
:102CB000280A1092290A10922A0A10922B0A0895C3
:102CC00010922C0A10922D0A10922E0A10922F0A9E
:102CD00008951092300A1092310A1092320A10921E
:102CE000330A08951092400B1092410B1092420B40
:102CF0001092430B08958CE390E0A0E0B0E0809345
:102D0000440B9093450BA093460BB093470B08954B
:102D100081E090E0A0E0B0E08093480B9093490BF5
:102D2000A0934A0BB0934B0B08951092500B109246
:102D3000510B1092520B1092530B08958CE390E0BC
:102D4000A0E0B0E08093540B9093550BA093560BEA
:102D5000B093570B089581E090E0A0E0B0E080933D
:102D6000580B9093590BA0935A0BB0935B0B08959B
:102D70001092680B1092690B10926A0B10926B0BF9
:102D800008958CE390E0A0E0B0E080936C0B90930A
:102D90006D0BA0936E0BB0936F0B089581E090E0E4
:102DA000A0E0B0E08093700B9093710BA093720B36
:102DB000B093730B08951092780B1092790B1092C8
:102DC0007A0B10927B0B08958CE390E0A0E0B0E0CA
:102DD00080937C0B90937D0BA0937E0BB0937F0B25
:102DE000089581E090E0A0E0B0E08093800B9093A4
:102DF000810BA093820BB093830B08951092900BDC
:102E00001092910B1092920B1092930B08958CE3F9
:102E100090E0A0E0B0E08093940B9093950BA0938A
:102E2000960BB093970B089581E090E0A0E0B0E09E
:102E30008093980B9093990BA0939A0BB0939B0B54
:102E40000895660F771F660F771FFB01E45EF74F4B
:102E500010821182128213820895089508950F93AB
:102E60001F93CF93DF938C01C0E0D0E0BE01C80177
:102E70000E94173A882321F0BE01C8010E94DC128B
:102E80002196C13ED10591F780E090E0DF91CF918E
:102E90001F910F9108954F925F926F927F928F9240
:102EA0009F92AF92BF92CF92DF92EF92FF920F93D9
:102EB0001F93CF93DF938B01EB01CC0FDD1FCE016E
:102EC0000E94C059882E912CA12CB12CCE010196C4
:102ED0000E94C059C82ED12CE12CF12C0D5811099B
:102EE0000330110588F5CE0144960E94C059482E42
:102EF000512C612C712CCE0145960E94C059482F4F
:102F000050E060E070E08FEF4816510461047104F6
:102F1000A9F44F3F51056105710581F48FEF8816C3
:102F20009104A104B10481F48FEFC816D104E10427
:102F3000F10451F46FEF7FEFCB012BC04038510506
:102F4000610571056CF0F6CF80E8C816D104E10484
:102F5000F10484F740E050E0BA01412C512C3201D9
:102F6000FE2CED2CDC2CCC248C0C9D1CAE1CBF1C30
:102F7000320155244424840C951CA61CB71C742FC4
:102F8000662755274427CB01BA01680D791D8A1D94
:102F90009B1DDF91CF911F910F91FF90EF90DF90DC
:102FA000CF90BF90AF909F908F907F906F905F90E9
:102FB0004F900895CF93DF93EC018F81882331F0F8
:102FC00061E089890E94831F1F8206C060E08989B1
:102FD0000E94831F81E08F83DF91CF910895CF936B
:102FE000DF93EC018E81882331F061E08B850E94B4
:102FF000831F1E8206C060E08B850E94831F81E0D4
:103000008E83DF91CF91089560E0FC0181890C945B
:10301000831F60E0FC0183850C94831F61E0FC0149
:1030200081890C94831F61E0FC0183850C94831FCC
:10303000CF92DF92EF92FF920F931F93CF93DF9384
:103040008B0169017A01EB01CC0FDD1F6C2DCE01E4
:103050000E94C8599927F7FC9A958F2D7E2D6D2DCA
:10306000CE0101960E94C8590D581109033011056F
:1030700088F4B701992777FD9095892FCE01449662
:103080000E94C8596F2D772788279927CE0145962A
:103090000E94C85980E090E0DF91CF911F910F917D
:1030A000FF90EF90DF90CF900895CF92DF92EF9254
:1030B000FF92CF93DF93EB010E94173A882359F1D7
:1030C000FE01EE0FFF1FEE0FFF1FE45EF74FC08003
:1030D000D180E280F3808BEA96E00E94981C80EC1D
:1030E00096E00E94981C8FEA96E00E94981CCE0100
:1030F0000E94F11D80EC96E00E94981C8BE695E002
:103100000E94981CC701B6010E94F91C0E94B507D5
:103110000E94B70604C08DE695E00E94981C80E0EE
:1031200090E0DF91CF91FF90EF90DF90CF900895E6
:103130000F931F93CF93DF938C01C0E0D0E0BE01CB
:10314000C8010E94173A882321F0BE01C8010E94DD
:1031500055182196C13ED10591F780E090E0DF91AE
:10316000CF911F910F910895EF92FF920F931F93AC
:10317000CF93DF938091AB0C9091AC0C892B09F02D
:103180006EC084E090E00E941753EC0160E070E0B4
:103190000E944B17161617060CF1CE010E942F172E
:1031A0009CE1E92E98E0F92E00E010E0B801CE0194
:1031B0000E94173A882349F0F7012081318142812A
:1031C0005381B801CE010E9418180F5F1F4FF4E021
:1031D000EF0EF11C0639110549F73DC063E070E0C0
:1031E000CE010E944B17613071058105910581F573
:1031F0008CE1E82E88E0F82E00E010E0B801CE0166
:103200000E94173A8823D9F0B801CE010E944B17CB
:10321000F70160837183828393836F3F7F4F8F4F6A
:103220009F4F69F4B801CE010E94DC12F7012081A2
:10323000318142815381B801CE010E9418180F5F7D
:103240001F4FF4E0EF0EF11C013E1105B9F603C06B
:10325000CE010E942F17D093AC0CC093AB0C809181
:10326000AB0C9091AC0CDF91CF911F910F91FF901F
:10327000EF900895CF92DF92EF92FF920F931F93FA
:10328000CF93DF93FC016489758986899789C68D00
:10329000D78D603127E272078105910529F0161656
:1032A00017061806190644F0208931894289538986
:1032B000DE010E94005A2AC08F010E94A05820E01F
:1032C00030E44CE156E40E94BA5A6B017C01F801EB
:1032D000608F718F828F938F6089718982899389C2
:1032E0000E94A058A70196010E94FF586B017C0123
:1032F000BE01DD0F880B990B0E94A0589B01AC0109
:10330000C701B6010E94FF580E942C5BDF91CF914C
:103310001F910F91FF90EF90DF90CF900895FC01E7
:1033200011821082138212821582148217821682F1
:1033300010861186128613861486158616861786C1
:10334000108A118A128A138A108E118E128E138E91
:10335000158E148E178E168E10A211A212A213A211
:1033600014A215A216A217A210A611A612A613A6A1
:1033700014A615A680E197E2A0E0B0E0848B958BBF
:10338000A68BB78B0895CF93DF93EC01FC01E15935
:10339000FF4F1082379781E0808360E08B850E9429
:1033A000831F8CA9882331F060E08989DF91CF9158
:1033B0000C94831FDF91CF910895CF93DF93EC019D
:1033C000898D0E945A1F2C8D30E08217930711F4CB
:1033D0008D8D01C080E0DF91CF910895CF93DF9371
:1033E000EC018F890E945A1F2C8D30E082179307C1
:1033F00011F48D8D01C080E0DF91CF910895CF93BE
:10340000DF93EC012BA988819981222311F061E0DF
:1034100001C060E00E94F71D8C81883579F42CA9E9
:103420008A819B81222329F02DA9222311F061E0BA
:1034300001C060E0DF91CF910C94F71DDF91CF9137
:103440000895CF93DF93EC012BA9888199812223E2
:1034500011F060E001C061E00E94F71D8C818835A9
:1034600079F42CA98A819B81222329F02DA922237A
:1034700011F060E001C061E0DF91CF910C94F71D85
:10348000DF91CF910895CF93DF93EC0161E08F85B9
:103490000E94831F8CA9882321F061E08D890E94FE
:1034A000831FC359DF4F1882DF91CF910895CF93C7
:1034B000DF93EC0160E08F850E94831F8CA9882335
:1034C00021F060E08D890E94831FC359DF4F81E0A6
:1034D0008883DF91CF910895CF92DF92EF92FF9290
:1034E0000F931F93CF93DF93FC01DC01A05CBF4FD0
:1034F0004D935D936D937C93139714964D935D93C9
:103500006D937C931397EC01C85BDF4F088319839D
:103510002A833B831896EC9282AD882381F082A99E
:10352000811108C037FF0BC0188219821A821B82D2
:1035300021E006C01016110612061306ACF320E0B7
:10354000C3ACD4ACE5ACF6AC1C141D041E041F04C3
:1035500034F587AD882319F1488159816A817B81CF
:10356000C601D7FE04C0882799278C199D09DA0166
:1035700057FF04C0AA27BB27A41BB50B8A179B07BC
:1035800074F477FF03C0919581959109092E000C81
:10359000AA0BBB0B88839983AA83BB8321E0EB5AD8
:1035A000FF4F1082118212821382822FDF91CF91FE
:1035B0001F910F91FF90EF90DF90CF9008950F93A0
:1035C0001F93CF93DF938C01D62FFC01838D811144
:1035D0000BC0C8010E94EE19C82FC8010E94DD1956
:1035E000D1110AC08C2F08C0C8010E94DD19C82F54
:1035F000C8010E94EE19F4CFDF91CF911F910F9176
:103600000895CF93DF93EC01FC01E159FF4F81E076
:10361000808339978081B297882341F0808191819E
:10362000A281B3810196A11DB11D07C08081918146
:10363000A281B3810197A109B10980839183A283FB
:10364000B38361E08B850E94831F8CA9882331F0AE
:1036500061E08989DF91CF910C94831FDF91CF9135
:1036600008958F929F92AF92BF92CF92DF92EF9286
:10367000FF920F931F93CF93DF93EC01FC01EB5A62
:10368000FF4F60817181828193810E949E586B01FE
:103690007C016EA97FA988AD99AD0E94A0589B01BD
:1036A000AC0160E074E284E799E40E94BA5A4B01ED
:1036B0005C01FE01EF59FF4F60817181828193812E
:1036C0000E949E589B01AC01C501B4010E94BA5AE8
:1036D0004B015C018E01075A1F4F20E030E040E0B3
:1036E0005FE30E94FF58A70196010E944E5A0E9474
:1036F000335BF8016083718382839383C35ADF4F06
:10370000A5019401C701B6010E944E5A0E94335B85
:10371000688379838A839B83DF91CF911F910F9177
:10372000FF90EF90DF90CF90BF90AF909F908F90E1
:1037300008950F931F93CF93DF93FC01E159FF4F3F
:1037400020812223C9F07A9700811181228133815F
:1037500038964081518162817381041715072607CD
:10376000370728F1EC010E94C319CE01DF91CF91F8
:103770001F910F910C94311BFC01EB59FF4F2081DD
:103780002223A9F070970081118122813381349620
:10379000408151816281738104171507260737071D
:1037A00030F0DF91CF911F910F910C94011BDF91AD
:1037B000CF911F910F910895FC01EB59FF4F20818C
:1037C000222361F0709780819181A281B38101965B
:1037D000A11DB11D80839183A283B383089590E0DE
:1037E000FC013197E231F10508F04EC08827EE5A0E
:1037F000FE4F8F4F0C94455A809180008F7703C005
:10380000809180008F7D809380000895809180005A
:10381000877FF9CF84B58F7702C084B58F7D84BD53
:1038200008958091B0008F7703C08091B0008F7DA4
:103830008093B0000895809190008F7707C08091A9
:1038400090008F7D03C080919000877F80939000CF
:1038500008958091A0008F7707C08091A0008F7D90
:1038600003C08091A000877F8093A000089580917D
:1038700020018F7707C0809120018F7D03C0809148
:103880002001877F809320010895009769F0FC0153
:1038900001900020E9F73197AF01481B590BBC019B
:1038A0008EEA9CE00C94F44080E090E008958F92C2
:1038B0009F92AF92BF920F931F93CF93DF93CDB799
:1038C000DEB7A1970FB6F894DEBF0FBECDBF19A229
:1038D000423008F44AE08E010F5D1F4F842E912C78
:1038E000A12CB12CA50194010E94085AE62FB90120
:1038F000CA0101501109EA3014F4E05D01C0E95C2D
:10390000D801EC93232B242B252B61F7C8010E94AF
:10391000451CA1960FB6F894DEBF0FBECDBFDF9158
:10392000CF911F910F91BF90AF909F908F9008956E
:103930000C94451CEF92FF920F931F93CF93DF934C
:10394000CDB7DEB764970FB6F894DEBF0FBECDBF1C
:103950007C01CB01BA018E010F5F1F4F22E044E0D2
:103960000E94F752FC0101900020E9F73197AF0166
:10397000481B590BBC01C7010E94234364960FB634
:10398000F894DEBF0FBECDBFDF91CF911F910F9195
:10399000FF90EF900895CF93DF93EC011982188286
:1039A0001B821A821D821C8260E070E00E94FC4231
:1039B0002881398181110FC02115310519F0C90104
:1039C0000E94AF53198218821D821C821B821A82A8
:1039D000DF91CF9108951D821C8260EF74E0C901D0
:1039E000DF91CF910C94685C682F8EEA9CE00C9478
:1039F0008B41CF92DF92EF92FF92CF93DF9397FFAD
:103A000019C06B017C018DE20E94F41CEC01662759
:103A10007727CB016C197D098E099F094AE00E9426
:103A2000571C8C0F9D1FDF91CF91FF90EF90DF907F
:103A3000CF9008954AE0DF91CF91FF90EF90DF9013
:103A4000CF900C94571C8F929F92AF92BF92CF92BF
:103A5000DF92EF92FF920F931F93CF93DF936B014F
:103A60007C01142F9B01AC010E94675B882319F035
:103A700081EB96E027C046015701E894B7F82FEF95
:103A80003FEF4FE75FE7C501B4010E94675B81111B
:103A90000DC02FEF3FEF4FE75FE7C501B4010E9474
:103AA000995818161CF485EB96E00CC02FEF3FEFE9
:103AB0004FE75FE4C701B6010E94625B181684F409
:103AC00089EB96E0DF91CF911F910F91FF90EF90DE
:103AD000DF90CF90BF90AF909F908F900C94451C3B
:103AE0002FEF3FEF4FE75FECC701B6010E949958F7
:103AF00087FDE6CF20E030E0A901C701B6010E94B2
:103B0000995887FF09C08DE20E94F41CEC01F7FA76
:103B1000F094F7F8F09402C0C0E0D0E000E060E07C
:103B200070E080E09FE3101741F020E030E040E2D9
:103B300051E40E94BA5A0F5FF6CFA70196010E9486
:103B40004E5A6B017C010E94335B4B015C014AE0E1
:103B50000E94571CC80FD91F1123A9F1C501B40138
:103B60000E949E589B01AC01C701B6010E944D5AAC
:103B70006B017C018EE20E94F41CC80FD91F20E06B
:103B800030E040E251E4C701B6010E94FF584B010A
:103B90005C010E94335B6B01E12CF12C4AE0C70110
:103BA000B6010E94571CC80FD91FC701B6010E9459
:103BB0009E589B01AC01C501B4010E944D5A6B0196
:103BC0007C011150E1F6CE01DF91CF911F910F9151
:103BD000FF90EF90DF90CF90BF90AF909F908F902D
:103BE0000895BC01990F880B990B0C94F91CDC010A
:103BF00052968C91529760FB84F952968C9352970F
:103C0000282F53963C91539754968C915497482F54
:103C1000437050E0ED91FC9111970190F081E02DFF
:103C200060E0CD0119946031710509F441C088F458
:103C30006230710509F454C020F4672B09F458C0B0
:103C400008956430710509F443C068307105C1F10D
:103C5000089560347105E1F020F46032710501F1DE
:103C600008956038710561F06115714009F048C030
:103C7000DC01ED91FC910288F389E02D60E03FC00A
:103C8000DC01ED91FC910288F389E02D61E037C001
:103C9000DC01ED91FC910288F389E02D62E02FC0F8
:103CA000DC01ED91FC910288F389E02D63E027C0EF
:103CB000DC01ED91FC910288F389E02D64E01FC0E6
:103CC000DC01ED91FC910288F389E02D65E017C0DD
:103CD000DC01ED91FC910288F389E02D66E00FC0D4
:103CE000DC01ED91FC910288F389E02D67E007C0CB
:103CF000DC01ED91FC910288F389E02D68E01994D4
:103D00000895CF92DF92EF92FF921F93CF93DF93AC
:103D1000EC0180E090E00E949E5825ED34E045E300
:103D200052E40E94FF5820E030E04AE754E40E9449
:103D3000BA5A6B017C012AE037ED43EA5CE36985FE
:103D40007A858B859C850E944E5AA70196010E9418
:103D5000FF5826E636E646EA5EE30E94BA5A20E0BD
:103D600030E040E85FE30E944D5A0E94335B162F1B
:103D7000E881F9810480F581E02D603108F561E08A
:103D8000CE0119952AE037ED43EA5CE369857A852F
:103D90008B859C850E944E5AA70196010E94FF5870
:103DA0002CEE31E548E35EE30E94BA5A20E030E0B1
:103DB00040E85FE30E944D5A0E94335B162F03C018
:103DC00060E0CE011995103208F01FE1912F9F712C
:103DD0008B81807E892B8B832A81382F8C81482F81
:103DE0004F7050E0E881F9810190F081E02D60E1B1
:103DF000CE011995612F70E080E090E00E94A058FC
:103E00002D853E854F8558890E94FF580E94335B5F
:103E10006F718A81807E682B6A83262F3B818C811B
:103E2000482F4F7050E0E881F9810190F081E02D3A
:103E300060E1CE01DF91CF911F91FF90EF90DF9075
:103E4000CF901994DC01ED91FC910280F381E02D7B
:103E50006CE61994CF92DF92EF92FF92FC01C12C95
:103E600092E1D92E9AE7E92EF12C20E04C155D0560
:103E70006E057F0540F4F694E794D794C7942F5FBE
:103E80002630A1F727E091E09227292F286B26956D
:103E9000208391709183FF90EF90DF90CF900895F1
:103EA0001F920F920FB60F9211240F900FBE0F901A
:103EB0001F901895CF93DF93282F30E0F901E95236
:103EC000F84F8491F901E35DF74FD491F901E9547A
:103ED000F74FC491CC2391F081110E94EF1BEC2F7E
:103EE000F0E0EE0FFF1FED57F74FA591B491EC9165
:103EF000ED2381E090E021F480E002C080E090E0DA
:103F0000DF91CF9108951F93CF93DF93282F30E057
:103F1000F901E952F84F8491F901E35DF74FD4912B
:103F2000F901E954F74FC491CC23C1F0162F811148
:103F30000E94EF1BEC2FF0E0EE0FFF1FE356F74F50
:103F4000A591B4919FB7F894111104C08C91D095AC
:103F5000D82302C0EC91DE2BDC939FBFDF91CF9181
:103F60001F910895FC0181A90C94831FCF93DF93C7
:103F700090E0FC01E35DF74F2491FC01E954F74F19
:103F80008491882361F190E0880F991FFC01E3542C
:103F9000F84FC591D491FC01E356F74FA591B49128
:103FA000611109C09FB7F894888120958223888386
:103FB000EC912E230BC0623061F49FB7F894888196
:103FC000322F309583238883EC912E2B2C939FBF27
:103FD00006C08FB7F894E8812E2B28838FBFDF911E
:103FE000CF9108950F931F93CF93DF93EC0161E07E
:103FF00089A90E94B61F61E0CE010E94B21F0BA9E1
:104000001CA90115110509F456C061E0F801808171
:104010000E94B61F61E0F80184810E94B61F62E031
:10402000F80182810E94B61FF80140815181FA0196
:10403000E954F74FE491F0E0EE0FFF1FE356F74F1E
:1040400085919491F8019287818722813381F901CA
:10405000E954F74FE491F0E0EE0FFF1FED57F74FF3
:1040600085919491F8019487838784819581FC01DF
:10407000E954F74FE491F0E0EE0FFF1FE356F74FDE
:10408000A591B491F801B687A587FA01E35DF74FD2
:104090004491F8014683F901E35DF74F2491F8015B
:1040A0002783FC01E35DF74F9491F80190878C9191
:1040B000E92FE82BEC932A893B898C89482F4370A0
:1040C00050E0E881F9810190F081E02D60E0CE01BF
:1040D00019952AA13BA14CA15DA1E881F98101902C
:1040E000F081E02D6CE6CE0119952EA13FA148A5E7
:1040F00059A55170E881F9810190F081E02D6DE6BC
:10410000CE0119952DA53EA58FA5482F4F7350E0E0
:10411000E881F9810190F081E02D60E7CE011995E9
:104120002A813B818C81482F4F7050E0E881F981D2
:104130000190F081E02D60E1CE0119958AA1807F88
:1041400088608AA32AA13BA14CA15DA1E881F981E5
:104150000190F081E02D6CE6CE011995E881F9819E
:104160000688F789E02D61E0CE01DF91CF911F91A4
:104170000F9119948230910538F0880F991F880F9C
:10418000991F05970197F1F708958F929F92AF922B
:10419000BF92CF92DF92EF92FF926B017C010E945F
:1041A00033464B015C01C114D104E104F104F1F088
:1041B0000E943346DC01CB0188199909AA09BB0981
:1041C000883E9340A105B10570F321E0C21AD108E1
:1041D000E108F10888EE880E83E0981EA11CB11C4E
:1041E000C114D104E104F10419F7DDCFFF90EF9081
:1041F000DF90CF90BF90AF909F908F9008958FEFFA
:104200009FEF08958DEB96E00E94981C82E993E061
:104210000E94981C87E793E00E94981C80EF94E02E
:104220000E94981C0E94B5070E94B70680E090E0AB
:1042300008950C94AF530C94AF530C94AF530C945B
:10424000AF530C94AF530C94AF530C94AF530C94E6
:10425000AF530C94AF530C94AF530E94B5070E9418
:10426000110780E090E0089582EC96E00E94981C8F
:104270000E94B5070E94080B0E94B5070E94C9065C
:104280000E94AF3940E050E068E070E00E945C3886
:104290000E94AF3940E050E069E070E00E945C3875
:1042A0000E94AF3940E050E06AE070E00E945C3864
:1042B0000E94AF3940E050E06DE070E00E945C3851
:1042C00080E090E008950F931F93CF93DF93FB015D
:1042D00002A113A1C68DD78D0E94E737C530D10545
:1042E000E1F064F4249771F56DE070E08EED9DE0EF
:1042F0000E947A44B8018EED9DE022C0C630D105FF
:10430000B1F02B97F9F464E070E087EE9DE00E9435
:104310007A44B80187EE9DE013C06BE070E081EE57
:104320009DE00E947A44B80181EE9DE009C06AE0F8
:1043300070E084EE9DE00E947A44B80184EE9DE036
:104340000E94F74380E090E0DF91CF911F910F91A1
:104350000895CF93DF93EC0186E390E09C8F8B8FE1
:1043600087E390E09E8F8D8F86E290E098A38F8FF9
:104370008AE190E09AA389A38CE190E09CA38BA3AF
:1043800088E190E09EA38DA38FE390E098A78FA390
:1043900080E490E09AA789A7FE01E057FF4F8CE3E5
:1043A00090E0948783878DE390E09687858788E304
:1043B00090E0908B8787128A118A148A138A168A52
:1043C000158A8EE090E0908F878B8FE090E0928F3F
:1043D000818FE058FF4F8BE290E09487838780E3E2
:1043E00090E0968785878AE390E0908B8787128A92
:1043F000118A148A138A168A158A8CE090E0908FAD
:10440000878B89E090E0928F818FEA5EFE4F118268
:104410001082329611821082329611821082CE0161
:104420000E94C126CE010E94C632FE01EB50FD4F14
:104430008081918172974081518162817381E355BE
:10444000F140DE01A352BD4F2D913C91358F248F59
:10445000448B558B668B778B019719F48FEF9FEF09
:1044600002C081E090E0978F868FFE01E950FD4FFA
:104470008081918170974081518162817381E9527D
:10448000F140DE01A152BD4F2D913C91358F248F1B
:10449000448B558B668B778B019719F48FEF9FEFC9
:1044A00002C081E090E0978F868FFE01E750FD4FBC
:1044B000808191813E974081518162817381EF5F5C
:1044C000F109CF51DD4F28813981358F248F448BFD
:1044D000558B668B778B019719F48FEF9FEF02C096
:1044E00081E090E0978F868FDF91CF9108952F9292
:1044F0003F924F925F926F927F928F929F92AF9274
:10450000BF92CF92DF92EF92FF920F931F93CF93C0
:10451000DF93CDB7DEB7C058D1090FB6F894DEBF30
:104520000FBECDBF8C01FC0110821182128213825A
:1045300014821582168217821086118612861386BF
:1045400014861586168617864C01F0E18F0E911C95
:10455000C4010E94BD31580180E9A80EB11CC501FB
:104560000E94BD316801E0EFCE1AEEEFDE0AC6010F
:104570000E94BD317801F0E7EF1AFEEFFF0AC70194
:104580000E948F19380182E4681A8EEF780AC301FD
:104590000E948F192801E4E14E1AEEEF5E0AC20173
:1045A0000E948F19C801865E9D4F0E94CB1CF801A6
:1045B000E05EFD4F11821082329611821082329697
:1045C00011821082329611821082329611821082EC
:1045D0003296118210823296108231961082319674
:1045E00010823196108211821282138234961082C8
:1045F00011821282138234961082118212821382E7
:1046000034961082118212821382349610821182A3
:10461000128213823496108211821282138234968F
:1046200010821182128213823496108211821282B9
:104630001382349610821182128213823496108271
:104640001182128213823496108211821282138296
:10465000349610821182128213823496108231961F
:10466000108231961082319610821182128213824A
:104670003496108211821282138234961082118233
:1046800012821382349610823196108231961082F3
:1046900031961082319610823196108231961082B6
:1046A00031961082319610823196108231961082A6
:1046B0003196108231961082319610823196108296
:1046C0003196108231961082319610823196108286
:1046D0003196108231961082319610823196108276
:1046E0003196108231961082118212821382349692
:1046F00010821182128213823496108211821282E9
:104700001382D801AE56BD4F8CE0E6E8F3E001908D
:104710000D928A95E1F7F801E256FD4F1082118261
:10472000128213823496108211821282138234967E
:104730001082118212821382349611821082329674
:10474000118210823296118210823296108211826A
:10475000128213823496108211821282138234964E
:104760001082118212821382349610821182128278
:104770001382349610821182128213823496108230
:104780001182128213823496118210823296118223
:104790001082329611821082329610821182128219
:1047A0001382349610821182128213823496108200
:1047B00011821282138234961082319610823196C1
:1047C00010823196118210823296118210823296B6
:1047D00011821082329610821182128213823496D4
:1047E00010821182128213823496108211821282F8
:1047F0001382349611821082329611821082329680
:1048000011821082329611821082329611821082A9
:104810003296118210823296118210823296118263
:1048200010821801F1E02F1AFDEF3F0AF10110820A
:1048300031961082118212821382CE0101960E945B
:10484000BD3180E8FE013196D40101900D928A9528
:10485000E1F7CE0101960E94BD3180E8FE0131965C
:10486000D50101900D928A95E1F7CE0101960E9443
:10487000BD3180E8FE013196D60101900D928A95F6
:10488000E1F788E5F801848BEC56FF4F89E58083DA
:10489000E058FF4F8AE58083CE0101960E948F1970
:1048A0008EE2FE013196D70101900D928A95E1F7D3
:1048B000CE0101960E948F198EE2FE013196D3013E
:1048C00001900D928A95E1F7CE0101960E948F1911
:1048D0008EE2FE013196D20101900D928A95E1F7A8
:1048E000C8010E94A921F1011082C058DF4F0FB604
:1048F000F894DEBF0FBECDBFDF91CF911F910F9116
:10490000FF90EF90DF90CF90BF90AF909F908F90EF
:104910007F906F905F904F903F902F9008950F93EE
:104920001F93CF93DF938B01EA018EE993E00E94FE
:10493000981C80EC96E00E94981CF80184810E94EB
:10494000F41CCE010E94F11D0E94B507DF91CF91AA
:104950001F910F910C94B706CF92DF92EF92FF92C6
:104960000F931F93CF93DF93CDB7DEB728970FB682
:10497000F894DEBF0FBECDBF8B016A01865E9D4FEE
:104980007C016AE973E00E94814360EC76E0C70134
:104990000E948143F801848189831A8241E050E0BA
:1049A0008E010F5F1F4FB801C7010E9423434AE0E9
:1049B000B801C6010E946754F80101900020E9F790
:1049C0003197AF01401B510BB801C7010E9423432F
:1049D0000E94B507BC01C8010E947306B801C70157
:1049E0000E94904389819A810E94AF5328960FB606
:1049F000F894DEBF0FBECDBFDF91CF911F910F9115
:104A0000FF90EF90DF90CF900895FC01DB01A75954
:104A1000BF4F8C91882319F022E030E002C020E0E3
:104A200030E0DB01A559BF4F8C91882311F023E0C2
:104A300030E0DB01A659BF4F8C91882311F024E0B0
:104A400030E0DB01A459BF4F8C91882311F026E0A0
:104A500030E0DA018D919C912817390721F091E01F
:104A6000121613060CF090E0DA012D933C93992373
:104A700021F0A901CF010C94AC240895CF93DF93CA
:104A80008091C40E9091C50E892B59F484E093E077
:104A90000E941753EC010E947722D093C50EC09359
:104AA000C40E8091C40E9091C50EDF91CF910895F0
:104AB0004F925F926F927F928F929F92AF92BF922E
:104AC000CF92DF92EF92FF920F931F93CF93DF93DA
:104AD00000D01F92CDB7DEB70E94B4184090F808FE
:104AE0005090F9086090FA087090FB080E94B41882
:104AF0008090FC089090FD08A090FE08B090FF0800
:104B00000E94B507C090C60ED090C70EE090C80EA8
:104B1000F090C90E0E94B507C701B6010E94A058C7
:104B20006B017C01C301B2010E94A0589B01AC0142
:104B3000C701B6010E94BA5A2B013C016091CA0E0E
:104B40007091CB0E8091CC0E9091CD0E0E94A0580A
:104B50006B017C01C501B4010E94A0589B01AC010E
:104B6000C701B6010E94BA5A69837A838B839C83FA
:104B70000E943E251F921F921F921F921F92812C0E
:104B8000912CA12CB12CC12CD12C760109811A8138
:104B90002B813C81B301A2010E94550B0E943E254E
:104BA0001F921F921F921F921F9297018601B301BD
:104BB000A2010E94550B0E943E251F921F921F9238
:104BC0001F921F9297018601B701A6010E94550B03
:104BD0000FB6F894DEBF0FBECDBF80E090E00F901F
:104BE0000F900F900F90DF91CF911F910F91FF9039
:104BF000EF90DF90CF90BF90AF909F908F907F907D
:104C00006F905F904F9008954F925F926F927F9256
:104C10008F929F92AF92BF92CF92DF92EF92FF92CC
:104C20000F931F93CF93DF9300D000D0CDB7DEB7A3
:104C3000FB0126892D8387898E8382889388A684A9
:104C4000B784C284D384E484F5844680578060842A
:104C5000718482819381A481B58189839A83AB8396
:104C6000BC830E943E251F921F921F92AE81AF937C
:104C7000BD81BF939301820149815A816B817C81FF
:104C80000E94550B0F900F900F900F900F9080E0A7
:104C900090E026960FB6F894DEBF0FBECDBFDF9131
:104CA000CF911F910F91FF90EF90DF90CF90BF9029
:104CB000AF909F908F907F906F905F904F900895EE
:104CC000CF93DF93EB0120E030E040E85FE36A81BF
:104CD0007B818C819D810E94995881110DC089EC46
:104CE00096E00E94981C0E943E258C5A9F4FFC0122
:104CF000108211821282138220E030E040E85FE3EC
:104D00006E817F81888599850E94995881110DC097
:104D100089ED96E00E94981C0E943E258C529F4F80
:104D2000FC01108211821282138220E030E040E800
:104D30005FE36A857B858C859D850E9499588111EA
:104D40000DC089EE96E00E94981C0E943E258C5A68
:104D50009E4FFC0110821182128213820E94B507BD
:104D60000E94B70680E090E0DF91CF91089508950A
:104D7000089508950895089508950895089508954B
:104D800008952F923F924F925F926F927F928F92EF
:104D90009F92AF92BF92CF92DF92EF92FF920F93CA
:104DA0001F93CF93DF93CDB7DEB765970FB6F89417
:104DB000DEBF0FBECDBF8C010E94B418F801E45DC8
:104DC000FD4F81E04091E8085091E9086091EA08C0
:104DD0007091EB08452B462B472B09F480E080832C
:104DE0000E94B418F801E35DFD4F81E04091EC08AA
:104DF0005091ED086091EE087091EF08452B462B1D
:104E0000472B09F480E080830E94B418F801E25D2A
:104E1000FD4F81E04091F0085091F1086091F20857
:104E20007091F308452B462B472B09F480E08083D3
:104E30000E94B4188091380990913909A0913A09DB
:104E4000B0913B09F801E15DFD4F80839183A2831E
:104E5000B3830E94B41880913C0990913D09A091C0
:104E60003E09B0913F09F801ED5CFD4F80839183CD
:104E7000A283B3830E94B4188091400990914109A4
:104E8000A0914209B0914309F801E95CFD4F80838C
:104E90009183A283B3830E94B418809110099091EA
:104EA0001109A0911209B0911309F801E55CFD4FB9
:104EB00080839183A283B3830E94B41880911409E4
:104EC00090911509A0911609B0911709F801E15CBC
:104ED000FD4F80839183A283B3830E94B418809195
:104EE000180990911909A0911A09B0911B09F801AC
:104EF000ED5BFD4F80839183A283B3830E94B4183E
:104F00008091200990912109A0912209B091230953
:104F1000F801E95BFD4F80839183A283B3830E94F4
:104F2000B4188091240990912509A0912609B09187
:104F30002709F801E55BFD4F80839183A283B3834A
:104F40000E94B4188091280990912909A0912A09FA
:104F5000B0912B09F801E15BFD4F80839183A2831F
:104F6000B3830E94B4188091C0089091C108A091A9
:104F7000C208B091C308F801ED5AFD4F80839183B8
:104F8000A283B3830E94B4188091C4089091C5088D
:104F9000A091C608B091C708F801E95AFD4F808377
:104FA0009183A283B3830E94B4188091C808909122
:104FB000C908A091CA08B091CB08F801E55AFD4F85
:104FC00080839183A283B3830E94B418F801E15ACD
:104FD000FD4F81E0209198083091990821303105EA
:104FE00009F080E080830E94B418F801E05AFD4F78
:104FF00081E020919C0830919D082130310509F015
:1050000080E080830E94B418F801EF59FD4F81E0E1
:105010002091A0083091A1082130310509F080E0ED
:1050200080830E94B418F801E358FD4F81E040915D
:105030007008509171086091720870917308452B47
:10504000462B472B09F480E080830E94B418F801B6
:10505000E258FD4F81E040917408509175086091CD
:10506000760870917708452B462B472B09F480E092
:1050700080830E94B418F801E158FD4F81E040910F
:1050800078085091790860917A0870917B08452BD7
:10509000462B472B09F480E080830E94B418F80166
:1050A000E058FD4F81E040914809509149096091D5
:1050B0004A0970914B09452B462B472B09F480E098
:1050C00080830E94B418F801EF57FD4F81E04091B2
:1050D0004C0950914D0960914E0970914F09452B33
:1050E000462B472B09F480E080830E94B418F80116
:1050F000EE57FD4F81E04091500950915109609168
:10510000520970915309452B462B472B09F480E037
:1051100080830E94B418F801ED57FD4F81E0209183
:105120008008309181082130310509F080E08083CA
:105130000E94B418F801EC57FD4F81E020918408DB
:10514000309185082130310509F080E080830E948C
:10515000B418F801EB57FD4F81E020918808309199
:1051600089082130310509F080E080830E94B4185D
:105170008091480890914908A0914A08B0914B0845
:10518000F801EA57FD4F80839183A283B3830E9485
:10519000B41880914C0890914D08A0914E08B091A0
:1051A0004F08F801E657FD4F80839183A283B383B4
:1051B0000E94B4188091500890915108A091520813
:1051C000B0915308F801E257FD4F80839183A28389
:1051D000B3830E94B418F801EF58FD4F81E040916D
:1051E00058085091590860915A0870915B08452BF6
:1051F000462B472B09F480E080830E94B418F80105
:10520000EE58FD4F81E040915C0850915D0860913F
:105210005E0870915F08452B462B472B09F480E010
:1052200080830E94B418F801ED58FD4F81E0409151
:105230006008509161086091620870916308452B85
:10524000462B472B09F480E080830E94B41880919C
:10525000500A9091510AA091520AB091530AF80154
:10526000EE59FD4F80839183A283B3830E94B418CB
:105270008091540A9091550AA091560AB091570A0C
:10528000F801EA59FD4F80839183A283B3830E9482
:10529000B4188091580A9091590AA0915A0AB09175
:1052A0005B0AF801E659FD4F80839183A283B383A3
:1052B0000E94B418F801EC58FD4F81E02091B0082D
:1052C0003091B1082130310509F080E08083F80188
:1052D000EB58FD4F1082319610820E94B418F801ED
:1052E000E958FD4F81E02091AC083091AD082130A4
:1052F000310509F080E08083F801E858FD4F108205
:10530000319610820E94B418F801E658FD4F81E0F2
:105310002091D0083091D1082130310509F080E08A
:1053200080830E94B418F801E558FD4F81E0209178
:10533000D4083091D5082130310509F080E0808310
:105340000E94B418F801E458FD4F81E02091D8087C
:105350003091D9082130310509F080E080830E9426
:10536000B418F801E259FD4F81E02091600A3091B4
:10537000610A2130310509F080E080830E94B41871
:10538000F801E159FD4F81E02091640A3091650AEE
:105390002130310509F080E080830E94B418F801C3
:1053A000E059FD4F81E02091680A3091690A21306F
:1053B000310509F080E080830E94B41838012EE6A0
:1053C000621A2DEF720A8091F8089091F908A09165
:1053D000FA08B091FB08F30180839183A283B38321
:1053E0000E94B4185801FAE6AF1AFDEFBF0A809187
:1053F000FC089091FD08A091FE08B091FF08F5010E
:1054000080839183A283B3830E94B41880910009A2
:1054100090910109A0910209B091030998012656C3
:105420003D4FF90180839183A283B383F3014081CF
:10543000518162817381141615061606170644F011
:1054400041E050E060E070E0408351836283738309
:10545000F50140815181628173811416150616068B
:10546000170644F041E050E060E070E04083518373
:1054700062837383181619061A061B064CF081E026
:1054800090E0A0E0B0E0F90180839183A283B38330
:10549000D901CD90DD90ED90FC90F5018080918058
:1054A000A280B380D3014D905D906D907C900E945E
:1054B000B507FC01408251826282738284829582A8
:1054C000A682B782C086D186E286F386F801E259C9
:1054D000FD4FB081B9833C9780819181A281B381D6
:1054E0008A8B9B8BAC8BBD8B789690819E833996F3
:1054F00030803F97A081AA87339620803996B0816B
:10550000BF87339720812B877E973081F397208147
:10551000E65AFF4F4081518162817381F397C080C9
:10552000D180E280F3803C9780809180A280B3801C
:105530003C9740805180628073803C97808191814C
:10554000A281B381F80186A797A7A0ABB1AB42AA0D
:1055500053AA64AA75AA86AA97AAA0AEB1AEC2AE93
:10556000D3AEE4AEF5AEFE9640835183628373837F
:1055700034962083319630832B85F80123A78F85BD
:1055800084A735A6EA5BFF4F80E490E0A0E0B0E09E
:1055900080839183A283B3833297208231969A8548
:1055A00090833596AE81A08331968A899B89AC8998
:1055B000BD8980839183A283B3833496998190833C
:1055C000E05EFD4FA081A983399780819181A281FE
:1055D000B3818E839F83A887B987759690819A87B8
:1055E0003996A081AA833F97B081BB8733962081EB
:1055F0002F8739962080339730807E973081F397BC
:105600002081E35AFF4F80819181A281B381F3977A
:1056100040815181628173813C97C080D180E2805A
:10562000F3803C9780809180A280B380EF5AF14054
:10563000F98BE88BED55FE4F40805180628073807E
:10564000E889F989468E578E60A271A282A293A240
:10565000A4A2B5A2C6A2D7A2E0A6F1A642A753A7CC
:1056600064A775A786A797A7A0ABB1AB22AB33AB56
:10567000338E248E2A81258F80E490E0A0E0B0E074
:1056800086AB97ABA0AFB1AF2F8524AB8B8585AB35
:105690009A8592AF8E819F81A885B98583AF94AF9B
:1056A000A5AFB6AF298127AFF801E059FD4F808142
:1056B0008983369780819181A281B3818E839F8374
:1056C000A887B987729690819A87399630803F97DC
:1056D000A081AA83339620803996C0803397D080EA
:1056E0007E973081F3972081E05AFF4F808191812E
:1056F000A281B3818B879C87AD87BE87F39780811A
:105700009181A281B3813C974081518162817381F3
:105710003C9780809180A280B3807801E0EFEE1A00
:10572000EEEFFE0AF801E95CFD4F40805180628097
:105730007380F701468E578E60A271A282A293A257
:10574000A4A2B5A246A357A360A771A782A793A757
:10575000A4A7B5A78B859C85AD85BE8586A797A791
:10576000A0ABB1AB22AB33ABD38EC48E358E80E40D
:1057700090E0A0E0B0E086AB97ABA0AFB1AF24AAB9
:105780002A8125AB8A8582AF8E819F81A885B985C4
:1057900083AF94AFA5AFB6AF298127AF680180E191
:1057A000C80ED11CC6010E947231888999890E9455
:1057B0007231C7010E9472310E94B418A090600932
:1057C000B09061090E94B4188090000A9090010A7C
:1057D0000E94B4182091880930918909A401B5016B
:1057E000C6010E946E2F0E94B418A0906409B09068
:1057F00065090E94B4188090040A9090050A0E94DE
:10580000B41820918C0930918D09A401B5018889C3
:1058100099890E946E2F0E94B418A0906809B090D8
:1058200069090E94B4188090080A9090090A0E94A1
:10583000B4182091900930919109A401B501C701D4
:105840000E946E2FF801EF58FD4F8081882321F0D0
:10585000C6010E94571A03C0C6010E94431AF801EC
:10586000EE58FD4F8081882329F0888999890E940C
:10587000571A04C0888999890E94431AF801ED5883
:10588000FD4F80818823D9F0C70165960FB6F89443
:10589000DEBF0FBECDBFDF91CF911F910F91FF9063
:1058A000EF90DF90CF90BF90AF909F908F907F90C0
:1058B0006F905F904F903F902F900C94571AC701B4
:1058C00065960FB6F894DEBF0FBECDBFDF91CF91C6
:1058D0001F910F91FF90EF90DF90CF90BF90AF900E
:1058E0009F908F907F906F905F904F903F902F9000
:1058F0000C94431A8F929F92CF92DF92EF92FF9275
:105900000F931F93CF93DF93CDB7DEB7D4018C9164
:10591000882399F1780169018B01FB0180819181D4
:10592000DC01ED91FC910084F185E02D19950C5B73
:105930001F4F90FF18C020E030E040E85FE3F60121
:1059400060817181828193810E944E5AD6016D934C
:105950007D938D939C931397F70180819181A28110
:10596000B381F80106C0F80180819181A281B381E1
:10597000F70180839183A283B383DF91CF911F913D
:105980000F91FF90EF90DF90CF909F908F900895B0
:105990002F923F924F925F926F927F928F929F923F
:1059A000AF92BF92CF92DF92EF92FF920F931F932D
:1059B000CF93DF93CDB7DEB762970FB6F894DEBF13
:1059C0000FBECDBFFC013C012CE4620E711CD30163
:1059D0002C918A599F4FBF0169597F4FAF014C5B92
:1059E0005F4F2A014C5F5F4F222339F022A9DC016F
:1059F0002C9381E0DB018C9328C0D2018D909D9087
:105A0000AD90BC90DA01CD90DD90ED90FC9021E05E
:105A10008C149D04AE04BF040CF020E0DC012C9338
:105A2000940197FE04C02227332728193909C6019B
:105A3000D7FE04C0882799278C199D0911E02817E3
:105A400039070CF410E0DB011C93D201CD90DD90FE
:105A5000ED90FC90C114D104E104F10461F402A1C1
:105A600013A124A135A1DF01AF59BF4F0D931D93A1
:105A70002D933C931397DA018D919D910D90BC91DC
:105A8000A02D8D879E87AF87B88B9F01205C3F4FED
:105A9000D9014D915D916D917C918D859E85AF85EC
:105AA000B889481759076A077B0734F4C816D9061E
:105AB000EA06FB067CF413C08D859E85AF85B88908
:105AC00084179507A607B7072CF48C159D05AE051E
:105AD000BF052CF0D3012C91222309F454C182A4D8
