:100000000C9486040C94B7040C94B7040C94B704B5
:100010000C94B7040C94B7040C94B7040C94B70474
:100020000C94B7040C944E1F0C944E1F0C944E1F4E
:100030000C94B7040C94B7040C94B7040C94863752
:100040000C94B7040C94AD450C94B7040C94B7040D
:100050000C94DF370C94B7040C94B7040C948546C9
:100060000C94B7040C94E2430C94B8430C94B7047A
:100070000C94B7040C94B7040C94B7040C94B70414
:100080000C947F450C94B7040C94B7040C94B704FB
:100090000C94B7040C94B7040C94B7040C94B704F4
:1000A0000C94B7040C94B7040C9451450C94B70409
:1000B0000C94B7040C94B7040C94B7040C94234527
:1000C0000C94B7040C94B7040C94B7040C94B704C4
:1000D0000C94B7040C94B7040C94B7040C94B704B4
:1000E0000C94B704E512F212FB12041311131A1345
:1000F0001F171F171F171F171F172713341341131D
:100100001F174E13571360136D1376137F13881345
:1001100091139A131F17A313AC13B5131F171F17AF
:100120001F17BE13C713D0131F171F17D913E613BA
:100130001F171F171F17F31300140D141F171A147E
:1001400023142C141F171F171F1735143E144714A0
:100150001F17541461146E141F171F171F177B14D9
:10016000881495141F17A214AF14BC141F171F175F
:100170001F17C914D614E3141F17F014F91402152D
:100180001F171F171F172615331540151F174D155D
:100190005A1567151F171F171F1774157D1586151C
:1001A0001F171F171F171F171F171F171F178F1531
:1001B0009815A1151F17AA15B315BC151F171F17E2
:1001C0001F17C515D215DF151F17EC15F9150616E3
:1001D0001F171F171F17131620162D161F173A1655
:1001E00043164C161F171F171F1755165E16671656
:1001F0001F171F171F171F171F171F171F171F174F
:100200001F171F171F170B1514151D151F171F1765
:100210001F171F171F171F171F171F171F171F172E
:100220001F171F171F171F171F171F171F171F171E
:100230001F171F171F171F171F171F171F171F170E
:100240001F171F171F171F171F171F171F171F17FE
:100250001F171F171F171F171F171F171F171F17EE
:100260001F171F171F171F171F171F171F171F17DE
:100270001F171F171F177016791686161F1793164C
:100280009C16A9161F171F171F17B616BF16CC16D8
:100290001F17D916E216EF161F171F171F17FC1688
:1002A00005171217081C0B1CFA1BFE1B041C421C12
:1002B0000F1C131C191C1D1C211C271C2B1C2F1C64
:1002C000421C351C391C3D1C2C393139363940391A
:1002D0004A39C33954395C3964396E3978398239CD
:1002E00091399B39C339A539AF39B9390C94211CDF
:1002F0000C9419210C9400140C9411130C94434188
:100300000C940E350C94FF070C9482390C94331521
:100310000C94D9160C9435140C94D6140C941A130E
:100320000C9466060C94E6130C9432370C940F1C54
:100330000C94271C0C94B8260C9432210C947F1337
:100340000C9493160C94B3150C9436390C94421CEF
:100350000C9415370C94F8340C941B210C94081C45
:100360000C94F9140C94C5150C9430350C94951418
:100370000C9408090C9401360C943E140C940E084D
:100380000C941F170C94FD200C9469060C94B7264E
:100390000C942B060C94B6260C94BA260C940413D9
:1003A0000C94D0130C94B5130C94F3130C941541C6
:1003B0000C94D9340C941E050C942B170C946C05DA
:1003C0000C94FA1B0C94BE260C942C390C942D160C
:1003D0000C94AF140C941F370C94FC160C94AC4185
:1003E0000C9452410C94BD260C94FB120C9488136F
:1003F0000C94E5120C94B9050C945E160C946641AD
:100400000C9467150C9460130C94A2140C94AA1508
:100410000C9461210C941A370C94BB260C944D1546
:100420000C94E1340C946E390C94D6040C94B904F9
:100430000C9440150C9461140C942B1C0C94041C0B
:100440000C94191C0C942C050C94F9150C9476132F
:100450000C9470160C94EF160C94EC150C947441DB
:100460000C9402260C943D1C0C9423140C94F2055D
:100470000C9464390C94F0140C946B060C944C1688
:100480000C94D8170C94B9390C9441130C9427216F
:100490000C94A3130C9479160C9454140C942016F9
:1004A0000C943A160C9400210C947D150C949C1617
:1004B0000C9467160C946F060C9429210C94640616
:1004C0000C94D2150C941D1C0C94391C0C943413F0
:1004D0000C946A060C9431390C94131C0C943E0550
:1004E0000C9413160C94351C0C9416050C9457138D
:1004F0000C9455160C94FF0A0C9420050C942121A1
:100500000C945A150C94A5390C94C3390C94BE1351
:100510000C942C170C9491390C94BC140C947415F5
:100520000C9423210C94ED170C9427130C944A3946
:100530000C9488140C941A050C94C9140C94180586
:100540000C941F210C940B150C942E050C9414057F
:100550000C9428370C944E130C946C060C946E1467
:100560000C9498150C9414150C9452350C94861612
:100570000C9478390C94B6160C94F9410C942A0515
:100580000C940D140C94BC260C94D9130C941217D3
:100590000C9443160C948F150C941D210C94471445
:1005A0000C94FE1B0C940B1C0C9425210C949113A1
:1005B0000C94C7130C941C050C94A1150C940616EE
:1005C0000C949A130C9468060C9467060C94071804
:1005D0000C9402180C9486150C94A9160C94BF1652
:1005E0000C942F1C0C9426050C941A140C947C5219
:1005F0000C949B390C9454390C94B5260C94E31448
:100600000C946E060C94030A0C945D050C94E2168F
:100610000C9417210C9424050C946D060C94B926A7
:100620000C940C180C942C140C945C390C947B14C2
:100630000C94F2120C94BC150C9405170C945625CE
:100640000C94DF150C942B210C946D130C94220543
:100650000C9465060C9470060C945E260C94280588
:100660000C94AC130C9402150C946E350C94261556
:100670000C94AF390C9440390C94CC160C9411188E
:100680000C941D154E414E494E495459494E46CD84
:10069000CCCC3D0AD7233C17B7D13877CC2B329539
:1006A00095E6241FB14F0A000020410000C8420017
:1006B000401C4620BCBE4CCA1B0E5AAEC59D7400E1
:1006C000407A10F35A00A0724E18090010A5D4E821
:1006D0000000E87648170000E40B54020000CA9AB4
:1006E0003B000000E1F50500008096980000004006
:1006F000420F000000A0860100000010270000004B
:1007000000E803000000006400000000000A000090
:100710000000000100000000002C76D888DC674F44
:100720000823DFC1DFAE59E1B1B796E5E3E453C674
:100730003AE651997696E8E6C28426EB898C9B626C
:10074000ED407C6FFCEFBC9C9F40F2BAA56FA5F416
:1007500090055A2AF75C936B6CF9676DC11BFCE03E
:10076000E40D47FEF520E6B500D0ED902E03009491
:100770003577050080841E080000204E0A00000026
:10078000C80C333333330F986E12831141EF8D2130
:1007900014893BE65516CFFEE6DB18D1844B381B97
:1007A000F77C1D901DA4BBE424203284725E22815C
:1007B00000C9F124ECA1E53D270000210024002719
:1007C000002A002D00300033000101000004010761
:1007D000010A0100000A0B02090C0D0E08070304B0
:1007E0000100000000000000000000000000000008
:1007F00000000000000000000000000000000012E7
:1008000011100000000000000000000000000000C7
:1008100000000000000000000000000000000000D8
:100820000000000000000000000102102020080865
:100830001020401020408002010201080402010142
:10084000020408102040808040201008040201802B
:100850000402018040201008040201080402010182
:10086000020408102040800102040810204080107B
:1008700008040880102040044080102040048000BC
:100880000020002300260029002C002F0032000049
:1008900001000003010601090100002200250028D3
:1008A000002B002E00310034000201000005010879
:1008B000010B0105050505070508080808020202E5
:1008C000020A0A08080404040401010101010101EB
:1008D000010303030303030303040707070C0C0CC2
:1008E0000C0C0C0C0C02020202060606060606069A
:1008F000060B0B0B0B0B0B0B0B07070A0A0A0A0A5A
:100900000A0505050404040808007C5211241FBED2
:10091000CFEFD1E2DEBFCDBF00E00CBF18E0A0E01A
:10092000B2E0EAEFF8EB00E00BBF02C007900D92D7
:10093000A431B107D9F72EE0A4E1B8E001C01D92BF
:10094000AB3EB207E1F714E0C6E8D4E000E006C031
:1009500021970109802FFE010E94515AC538D10705
:1009600080E00807A9F70E94CF460C947B5C0C94AA
:100970000000EF92FF920F931F93CF93DF93FB0141
:10098000E2A8F3A802A113A1C68DD78D0E94D03989
:100990009701A801BE010E94E93880E090E0DF9154
:1009A000CF911F910F91FF90EF9008954F925F921A
:1009B0006F927F92AF92BF92CF92DF92EF92FF92AF
:1009C0000F931F93CF93DF93FB01E2A8F3A846A4F4
:1009D00057A460A871A8C6A0D7A0A2A0B3A0068DF6
:1009E000178D0E94D039EC019701A501B8010E9432
:1009F000E938C301B2010E94C3209701A601B801E2
:100A0000CE010E94E93880E090E0DF91CF911F9104
:100A10000F91FF90EF90DF90CF90BF90AF907F90BD
:100A20006F905F904F9008950C94BB530C94BB5300
:100A30000C94BB530C94BB530C94BB530C94BB53FE
:100A40000C94BB530C94BB530C94BB530C94BB53EE
:100A50000C94BB530C94BB530C94BB53CF93DF93B8
:100A6000FB01D2A9C68D0E94D0396D2F8C2F0E9418
:100A7000B41F80E090E0DF91CF9108950F931F9312
:100A8000CF93DF93FB0102A913A9C68DD78D0E94D6
:100A9000D039A801BE010E947D3880E090E0DF914E
:100AA000CF911F910F910895662319F08AE794E082
:100AB00002C083E794E00C94961CCF93DF93FB0174
:100AC000C68DD78D0E94B218BE010E94531880E0D7
:100AD00090E0DF91CF910895CF92DF92EF92FF9255
:100AE0000F931F93CF93DF93FB01C2A0D3A0E4A089
:100AF000F5A0068D178D0E94B218EC018A819B81AA
:100B00008F30F7E29F0724F401969B838A8302C00B
:100B10001B821A82B801CE010E94383A8823B1F0B4
:100B2000F801EE0FFF1FEE0FFF1FE65EF74FC082CA
:100B3000D182E282F382A7019601B801CE010E9420
:100B40001618B801CE010E94531804C08DE695E036
:100B50000E94961C0E9450380E941B3880E090E052
:100B6000DF91CF911F910F91FF90EF90DF90CF9089
:100B700008958F929F92AF92BF92CF92DF92EF92A1
:100B8000FF920F931F930E943C2562E070E00E9449
:100B9000E03A892BD1F40E943C2521E02F931F924B
:100BA0001F921F921F92812C912CA12CB12CC12C31
:100BB000D12C760197018601B701A6010E94530B43
:100BC0000F900F900F900F900F9080E090E01F918A
:100BD0000F91FF90EF90DF90CF90BF90AF909F90DC
:100BE0008F9008958F929F92AF92BF92CF92DF9293
:100BF000EF92FF920F931F930E943C2561E070E0FB
:100C00000E94E03A892BD1F40E943C251F9221E0FA
:100C10002F931F921F921F92812C912CA12CB12CEB
:100C2000C12CD12C760197018601B701A6010E9443
:100C3000530B0F900F900F900F900F9080E090E06B
:100C40001F910F91FF90EF90DF90CF90BF90AF90EA
:100C50009F908F9008958F929F92AF92BF92CF9264
:100C6000DF92EF92FF920F931F930E943C2560E06A
:100C700070E00E94E03A892BD1F40E943C251F923B
:100C80001F9221E02F931F921F92812C912CA12C57
:100C9000B12CC12CD12C760197018601B701A60198
:100CA0000E94530B0F900F900F900F900F9080E0C9
:100CB00090E01F910F91FF90EF90DF90CF90BF9049
:100CC000AF909F908F900895089508950895089586
:100CD000089508950895089508950895089508952C
:100CE0000895EF92FF920F931F93CF93DF93CDB7A9
:100CF000DEB72E970FB6F894DEBF0FBECDBF8C01C6
:100D00000E94C91C6FE875E0C8010E94A24360916F
:100D100016087091170880911808909119082AE018
:100D2000AE014F5F5F4F7A010E947E54F701019040
:100D30000020E9F73197AF014E195F09B701C801EB
:100D40000E9444436EEE74E0C8010E94A243C801B1
:100D50002E960FB6F894DEBF0FBECDBFDF91CF91B8
:100D60001F910F91FF90EF9008958FE895E00E94FA
:100D7000961C609116087091170880911808909140
:100D800019080E94F71C8EEE94E00C94961C0F93A9
:100D90001F93CF93DF93EC0182E995E00E94961CAC
:100DA00086E995E00E94961C02EA1CE0F801608149
:100DB000CE010E9454058AE995E00E94961CF80134
:100DC0006181CE010E9454058EE995E00E94961C37
:100DD000F8016281CE010E94540582EA95E00E94EA
:100DE000961CF8016381CE010E94540586EA95E0C5
:100DF0000E94961CF8016481CE010E9454058AEA83
:100E000095E00E94961CF8016581CE010E94540570
:100E1000CE01DF91CF911F910F910C94B506CF9227
:100E2000DF92EF92FF92CF93DF93EC01888199815B
:100E3000AA81BB81181619061A061B0644F081E028
:100E400090E0A0E0B0E088839983AA83BB838C8183
:100E50009D81AE81BF81181619061A061B0644F043
:100E600081E090E0A0E0B0E08C839D83AE83BF83FF
:100E700088859985AA85BB85181619061A061B064A
:100E800044F081E090E0A0E0B0E088879987AA87ED
:100E9000BB878EEA95E00E94961C86ED96E00E9444
:100EA000961C6091C30E7091C40E8091C50E9091F6
:100EB000C60E0E94AC586B017C01688179818A81E1
:100EC0009B810E94AC589B01AC01C701B6010E94F6
:100ED000C65A42E00E94211D86EE96E00E94961CB2
:100EE0006091C70E7091C80E8091C90E9091CA0E84
:100EF0000E94AC586B017C016C817D818E819F8149
:100F00000E94AC589B01AC01C701B6010E94C65AB1
:100F100042E00E94211D86EF96E00E94961C60919F
:100F2000CB0E7091CC0E8091CD0E9091CE0E0E9482
:100F3000AC586B017C01688579858A859B850E9408
:100F4000AC589B01AC01C701B6010E94C65A42E0F1
:100F50000E94211DCE01DF91CF91FF90EF90DF9095
:100F6000CF900C94B5068091A00C9091A10C892B88
:100F700009F040C08FE090E00E942353FC0181E023
:100F800090E0A0E0B0E080839183A283B383848368
:100F90009583A683B78380879187A287B3871586B9
:100FA000148616861092C30E1092C40E1092C50EAF
:100FB0001092C60E1092C70E1092C80E1092C90E53
:100FC0001092CA0E1092CB0E1092CC0E1092CD0E33
:100FD0001092CE0E10921608109217081092180850
:100FE000109219081092150810921408F093A10C91
:100FF000E093A00C8091A00C9091A10C08950E9408
:10100000B2180E94961882EB95E00E94961C0E94EE
:10101000B3070E94B50680E090E008952F923F92BA
:101020004F925F926F927F928F929F92AF92BF92F8
:10103000CF92DF92EF92FF920F931F93CF93DF93A4
:10104000CDB7DEB72A970FB6F894DEBF0FBECDBF7F
:101050000E94B2188091E6089091E708019729F460
:1010600086EF9FEF9E838D8304C0AAE0B0E0BE832D
:10107000AD830E94B3076091C30E7091C40E80913E
:10108000C50E9091C60E0E94AC586B017C010E9467
:10109000B2186091F6087091F7088091F808909165
:1010A000F9080E94AC589B01AC01C701B6010E942F
:1010B000C65A69837A838B839C830E94B3076091AD
:1010C000C70E7091C80E8091C90E9091CA0E0E94F1
:1010D000AC586B017C010E94B2186091FA087091C3
:1010E000FB088091FC089091FD080E94AC589B0180
:1010F000AC01C701B6010E94C65A2B013C01212C4C
:10110000312C8D819E81092E000CAA0BBB0B8D8387
:101110009E83AF83B88791E02916310449F0A2E09D
:101120002A16310419F10E943C25B1E0BF9322C078
:101130000E943C259A8789876D817E818F81988561
:101140000E94AC586B017C011F921F921F921F924C
:101150001F92812C912CA12CB12C930182014981E9
:101160005A816B817C8189859A8515C00E943C25B6
:10117000E1E0EF931F921F921F921F92812C912CFE
:10118000A12CB12CC12CD12C760193018201498173
:101190005A816B817C810E94530B0F900F900F90AE
:1011A0000F900F900E94B30780911408909115083A
:1011B0009A8789870E94B307DC011E968C91811162
:1011C0000CC0E985FA85EF2B41F4FFEF2F1A3F0A97
:1011D00023E02216310409F09ECF80E090E02A96A9
:1011E0000FB6F894DEBF0FBECDBFDF91CF911F9138
:1011F0000F91FF90EF90DF90CF90BF90AF909F90B6
:101200008F907F906F905F904F903F902F900895B8
:101210002F923F924F925F926F927F928F929F9206
:10122000AF92BF92CF92DF92EF92FF920F931F93F4
:10123000CF93DF93CDB7DEB72A970FB6F894DEBF12
:101240000FBECDBF0E94B2188091E6089091E708CA
:10125000019729F486EF9FEF9E838D8304C0AAE057
:10126000B0E0BE83AD830E94B3076091C30E70915E
:10127000C40E8091C50E9091C60E0E94AC582B01F1
:101280003C010E94B2186091F6087091F7088091B5
:10129000F8089091F9080E94AC589B01AC01C30179
:1012A000B2010E94C65A69837A838B839C830E9411
:1012B000B3076091CB0E7091CC0E8091CD0E9091C2
:1012C000CE0E0E94AC582B013C010E94B2186091D6
:1012D000FE087091FF0880910009909101090E9419
:1012E000AC589B01AC01C301B2010E94C65A2B014C
:1012F0003C01212C312C8D819E81092E000CAA0BE2
:10130000BB0B8D839E83AF83B88791E02916310490
:1013100051F0A2E02A16310421F10E943C251F92CF
:10132000B1E0BF9323C00E943C259A8789876D81D5
:101330007E818F8198850E94AC588B019C011F9201
:101340001F921F921F921F92812C912CA12CB12CC5
:101350007301620149815A816B817C8189859A85FB
:1013600015C00E943C251F92E1E0EF931F921F924F
:101370001F92812C912CA12CB12C7301620100E0F1
:1013800010E0980149815A816B817C810E94530B46
:101390000F900F900F900F900F900E94B3078091C5
:1013A0001408909115089A8789870E94B307DC0179
:1013B0001E968C9181110CC0E985FA85EF2B41F4C2
:1013C000FFEF2F1A3F0A23E02216310409F09DCFC8
:1013D00080E090E02A960FB6F894DEBF0FBECDBF36
:1013E000DF91CF911F910F91FF90EF90DF90CF9001
:1013F000BF90AF909F908F907F906F905F904F9035
:101400003F902F9008952F923F924F925F926F924C
:101410007F928F929F92AF92BF92CF92DF92EF9284
:10142000FF920F931F93CF93DF93CDB7DEB72A9729
:101430000FB6F894DEBF0FBECDBF0E94B2188091E8
:10144000E6089091E708019729F486EF9FEF9E83C5
:101450008D8304C0AAE0B0E0BE83AD830E94B307D1
:101460006091C70E7091C80E8091C90E9091CA0EFE
:101470000E94AC582B013C010E94B2186091FA08FE
:101480007091FB088091FC089091FD080E94AC5877
:101490009B01AC01C301B2010E94C65A69837A83E1
:1014A0008B839C830E94B3076091CB0E7091CC0E0E
:1014B0008091CD0E9091CE0E0E94AC582B013C0134
:1014C0000E94B2186091FE087091FF088091000997
:1014D000909101090E94AC589B01AC01C301B2017B
:1014E0000E94C65A2B013C01212C312C8D819E81FA
:1014F000092E000CAA0BBB0B8D839E83AF83B8878C
:1015000091E02916310459F0A2E02A16310429F19C
:101510000E943C251F921F92B1E0BF9324C00E94FD
:101520003C259A8789876D817E818F8198850E946D
:10153000AC58AB01BC011F921F921F921F921F92C9
:10154000812C912CA12CB12C7301620109811A818B
:101550002B813C8189859A8515C00E943C251F926C
:101560001F92E1E0EF931F921F92812C912CA12CEE
:10157000B12C7301620109811A812B813C8140E009
:1015800050E0BA010E94530B0F900F900F900F90F4
:101590000F900E94B30780911408909115089A87C4
:1015A00089870E94B307DC011E968C9181110CC0C3
:1015B000E985FA85EF2B41F4FFEF2F1A3F0A23E06C
:1015C0002216310409F09CCF80E090E02A960FB6F5
:1015D000F894DEBF0FBECDBFDF91CF911F910F9169
:1015E000FF90EF90DF90CF90BF90AF909F908F9043
:1015F0007F906F905F904F903F902F9008950E9442
:10160000B307FC01168680E090E00895CF93DF9346
:101610008FE30E94581FEC010E94B30781E0CD2B9D
:1016200009F480E08093A20C80E40E94581FEC0132
:101630000E94B30781E0CD2B09F480E08093A30CD6
:101640008EE00E94581FEC010E94B30781E0CD2B71
:1016500009F480E08093A40C8FE00E94581FEC01F5
:101660000E94B30781E0CD2B09F480E08093A50CA4
:101670008CE00E94581FEC010E94B30781E0CD2B43
:1016800009F480E08093A60C89E00E94581FEC01C9
:101690000E94B30781E0CD2B09F480E08093A70C72
:1016A000DF91CF9108952F923F924F925F926F9268
:1016B0007F928F929F92AF92BF92CF92DF92EF92E2
:1016C000FF920F931F93CF93DF93CDB7DEB7E197D0
:1016D0000FB6F894DEBF0FBECDBF3C014F835887D5
:1016E00069877A87098B1A8B2B8B3C8BCD8ADE8A94
:1016F000EF8AF88E29960EAD1FAD29970E94794684
:101700006E8F7F8F88A399A30E947946698F7A8F05
:101710008B8F9C8FF301EC5DFD4F118210823B9605
:10172000A114B10479F0C501A0E0B0E0408151817D
:101730006281738184179507A607B7072CF4AC0163
:10174000BD0102C040815181F301ED5CFD4F811468
:10175000910479F0A12CB12C80819181A281B38177
:1017600088169906AA06BB0614F4D501C401BC016B
:1017700002C060817181F301E95CFD4F0115110523
:1017800071F020E030E080819181A281B38108175F
:1017900019072A073B072CF4D901C80102C0808130
:1017A00091819301205F3F4F388B2F878A0120E082
:1017B00030E0F30106A717A720AB31AB1301F0E926
:1017C0002F0E311CAB0160E070E0F101468F578FA6
:1017D00060A371A32301F0EF4F1AFEEF5F0AA0E0B0
:1017E000B0E0F201868F978FA0A3B1A3E257FE4F1E
:1017F0001082118212821382349610821182128218
:1018000013823496108211821282138234961182CE
:1018100010823296118210823296118210820E94BA
:10182000B3078091C30E9091C40EA091C50EB091E4
:10183000C60E4301F0E58F1AFDEF9F0AF401808385
:101840009183A283B3830E94B3078091C70E9091C6
:10185000C80EA091C90EB091CA0EF301EC54FD4F11
:1018600080839183A283B3830E94B3078091CB0EC0
:101870009091CC0EA091CD0EB091CE0EF301E85414
:10188000FD4F80839183A283B3835301FEE6AF1A99
:10189000FDEFBF0AF50160817181828193810E9411
:1018A000AC582F81388549855A850E940B590E9472
:1018B000385B8B019C01F40140815181628173810D
:1018C0002A96EFAC2A978F8598890E946A1A8823F6
:1018D000F1F08BE393E00E94961C86ED96E00E9467
:1018E000961CF301E85AFF4F6081718182819381D8
:1018F000F50120813181428153810E94E259CA0160
:10190000B9010E94F71C0E94B3070E94B50663014B
:10191000FAE6CF1AFDEFDF0AF6016081718182815C
:1019200093810E94AC5829893A894B895C890E942D
:101930000B590E94385B8B019C01F301EC54FD4F65
:1019400040815181628173812B96EFAC2B97C1014D
:101950000E946A1A8823F1F087E393E00E94961CA4
:1019600086EE96E00E94961CF301E852FF4F6081DC
:10197000718182819381F60120813181428153817D
:101980000E94E259CA01B9010E94F71C0E94B307E4
:101990000E94B5066301F6E6CF1AFDEFDF0AF601F5
:1019A00060817181828193810E94AC582D893E892A
:1019B0004F89588D0E940B590E94385B8B019C0106
:1019C000F301E854FD4F40815181628173812C966F
:1019D000EFAC2C97C2010E946A1A8823F1F083E3CE
:1019E00093E00E94961C86EF96E00E94961CF301FD
:1019F000E85AFE4F6081718182819381F6012081D6
:101A00003181428153810E94E259CA01B9010E9489
:101A1000F71C0E94B3070E94B506F301158AEB5626
:101A2000FF4F1082E058FF4F1082C3010E947C32AA
:101A3000C3010E9480328F8598890E943B2FC1018B
:101A40000E943B2FC2010E943B2F81E090E0F301F6
:101A5000EA5DFD4F918380837301F8EDEF1AFDEF8E
:101A6000FF0AF701918380838301065D1D4FF80112
:101A70009183808341E050E06F857889C3010E94A3
:101A8000AA24F70140815181B101C3010E94AA2417
:101A9000F80140815181B201C3010E94AA2481E072
:101AA000F301E150FD4F80838F8598890E94551A7C
:101AB000C1010E94551AC2010E94551A0E9479461E
:101AC000F301FD5F608371838283938364E670E03A
:101AD00080E090E00E94C3202A96FFAD2A97F11182
:101AE0000EC02B962FAD2B97211105C02C963FAD24
:101AF0002C973323B1F0F301EB58FF4F10822B9654
:101B00004FAD2B97411104C0F301EB50FF4F1082F2
:101B10002C965FAD2C97511104C0F301EB58FE4F8A
:101B200010828F8598890E94C62CC1010E94C62C04
:101B3000C2010E94C62C8F8598890E942F1BC1016B
:101B40000E942F1BC2010E942F1B0E94B307FC01A1
:101B500086858D8F18861F8293012B583F4F3A8BB5
:101B6000298BA3014B505F4F5E8B4D8BC3018B586C
:101B70009E4F9E878D87F301EA5DFD4FFDA3ECA389
:101B80002D543E4F3FA32EA34B5C5E4F59A748A751
:101B90008D5F91099BA38AA3EC54FF4FFBA7EAA793
:101BA0002A553F4F3DA72CA74B535F4F5FA74EA72A
:101BB0008C5B9D4F99AB88ABE989FA898081811153
:101BC0000AC0ED89FE898081811105C0ED85FE8501
:101BD0008081882321F0FD8DFF2309F4C6C0830195
:101BE000025E1D4FF80180819181892B21F0C30194
:101BF0000E94B840F7CF8BED95E00E94961C2A9684
:101C0000FFAD2A97FF23F9F02F813885232B09F0A8
:101C100041C03D8D311124C08FE293E00E94961C9B
:101C20000E94B3070E94B5062B964FAD2B97442315
:101C300009F48BC48BE293E00E94961C0E94B307C8
:101C40000E94B50682C42B968FAD2B97882369F02E
:101C5000EF81F885EF2B19F5FD8DF11120C0EACF4A
:101C60002B963FAD2B9731111AC02C962FAD2C9788
:101C70002223A9F04F815885452B89F45D8D5111A0
:101C80000EC087E293E00E94961C0E94B3070E9458
:101C9000B50605C02B964FAD2B97442331F3730146
:101CA0008AEDE81A8DEFF80A85E090E0F70191835C
:101CB00080835301F8EDAF1AFDEFBF0AF501918360
:101CC00080838301065D1D4FF8019183808345E089
:101CD00050E06F857889C3010E94AA24F5014081F4
:101CE0005181B101C3010E94AA24F80140815181B0
:101CF000B201C3010E94AA24C3010E948432C3011D
:101D00000E947C32C3010E9480320E94B3070E946D
:101D10000F07F70111821082F50111821082F8017C
:101D20001182108240E050E06F857889C3010E94E3
:101D3000AA24F50140815181B101C3010E94AA2466
:101D4000F80140815181B201C3010E94AA24FD8D96
:101D5000FF2309F401C40E94B30721E0FC01268798
:101D600021E030E038872F83F7C34CA15DA16F8558
:101D70007889C3010E9403254EA15FA1B101C3016F
:101D80000E94032548A559A5B201C3010E9403255D
:101D9000E989FA898081882329F0EAA1FBA1808161
:101DA0008111DEC1ED89FE898081882349F093018C
:101DB00028503F4F3C872B87F90180818111EEC16C
:101DC000ED85FE858081882349F0930128583E4F98
:101DD0003C872B87F9018081811108C2E989FA8942
:101DE00080818823D1F1F301E853FD4F6081718137
:101DF000072E000C880B990B0E94AC589B01AC017C
:101E0000F301E256FD4F60817181828193810E94CE
:101E10006E5B181614F5E989FA89108261EF74E097
:101E20008301065E1D4FC8010E94A24364EF75E066
:101E3000C8010E94A2436EEE74E0C8010E94A24352
:101E40002A96FFAD2A97FF2309F4F8C1F301EC5A53
:101E5000FF4F1082118212821382ED89FE898081E8
:101E60008823D1F1F301E653FD4F60817181072E84
:101E7000000C880B990B0E94AC589B01AC01F3013C
:101E8000EE55FD4F60817181828193810E946E5B6E
:101E9000181614F5ED89FE89108261EF74E0830154
:101EA000065E1D4FC8010E94A2436CE176E0C801A6
:101EB0000E94A2436EEE74E0C8010E94A2432B96DA
:101EC000FFAD2B97FF2309F4BEC1F301EC52FF4F86
:101ED0001082118212821382ED85FE858081882313
:101EE000D1F1F301E453FD4F60817181072E000CA5
:101EF000880B990B0E94AC589B01AC01F301EA5589
:101F0000FD4F60817181828193810E946E5B181602
:101F100014F5ED85FE85108261EF74E08301065EA5
:101F20001D4FC8010E94A24364E476E0C8010E94EC
:101F3000A2436EEE74E0C8010E94A2432C96FFAD4E
:101F40002C97FF2309F484C1F301EC5AFE4F108251
:101F5000118212821382F301EA58FF4F60818F854C
:101F600098890E94DD1A882351F0F301EC5AFF4F43
:101F70001082118212821382E989FA891082F30198
:101F8000EA50FF4F6081C1010E94DD1A882351F0A1
:101F9000F301EC52FF4F1082118212821382ED89FD
:101FA000FE891082F301EA58FE4F6081C2010E944F
:101FB000DD1A882351F0F301EC5AFE4F1082118292
:101FC00012821382ED85FE851082C3010E94843245
:101FD000C3010E947C32E989FA8980818823E9F073
:101FE0000E9479466B017C012E8D3F8D48A159A13D
:101FF000C21AD30AE40AF50AF301EA57FD4F208119
:10200000318142815381A8EEB3E00E94015A6C15E0
:102010007D058E059F0508F420C1ED89FE8980812C
:102020008823E9F00E9479466B017C012E8D3F8D5B
:1020300048A159A1C21AD30AE40AF50AF301E657E6
:10204000FD4F2081318142815381A8EEB3E00E948F
:10205000015A6C157D058E059F0508F418C1ED85A4
:10206000FE8580818823E9F00E9479466B017C011E
:102070002E8D3F8D48A159A1C21AD30AE40AF50A50
:10208000F301E257FD4F2081318142815381A8EE57
:10209000B3E00E94015A6C157D058E059F0508F47A
:1020A00010C10E947946F301FD5F608371838283D2
:1020B00093838BEA9CE00E947441181619063CF544
:1020C0008BEA9CE00E9452418F7D85349105F9F4A2
:1020D00066EB75E0C301865E9D4F0E94A24386EACF
:1020E00093E00E94961C0E94B3070E94B506E989FE
:1020F000FA891082ED89FE891082ED85FE851082B5
:10210000F1E0FD8F21E030E038872F8304C04F815C
:102110005885452B39F06BEC75E0C301865E9D4F09
:102120000E94A243C3010E94B8400E947946DC018C
:10213000CB01298D3A8D4B8D5C8D821B930BA40BAB
:10214000B50B8B3F9105A105B10508F435CDF30121
:10215000E25EFD4F80819181892B09F4CCC02CCDAA
:102160008F8598890E94C62C8AA49BA4ACA4BDA488
:10217000CEA4DFA4E8A8F9A8830100551D4F930160
:1021800022563D4FA30140575E4F6F857889C301AA
:102190000E94782CEAA1FBA1108204CEC1010E940A
:1021A000C62C4301F5E28F1AFDEF9F0A53012EE280
:1021B000A21A2DEFB20A63013FE0C31A3DEFD30A22
:1021C000730140E4E41A4DEFF40A83010C541D4FEF
:1021D00093012E553D4FA30142545E4FB101C301FF
:1021E0000E94782CEB85FC851082EACDC2010E940A
:1021F000C62C4301F4E28F1AFDEF9F0A53012AE235
:10220000A21A2DEFB20A63013DE0C31A3DEFD30AD3
:1022100073014CE3E41A4DEFF40A830108541D4F97
:1022200093012A553D4FA30144515E4FB201C301B2
:102230000E94782CEB85FC851082D0CD2FE130E018
:1022400038872F830ACE20E230E038872F8344CEB0
:1022500021E230E038872F837ECEE989FA89108227
:1022600062EB73E08301065E1D4FC8010E94A2432A
:102270006EEE74E0C8010E94A2436CE676E0C801ED
:102280000E94A24322E030E038872F83C6CEED893A
:10229000FE8910826EEA73E08301065E1D4FC8015D
:1022A0000E94A2436EEE74E0C8010E94A24361E85E
:1022B00076E0C8010E94A24322E030E038872F83F5
:1022C000CECEED85FE8510826AEA73E08301065E5C
:1022D0001D4FC8010E94A2436EEE74E0C8010E9427
:1022E000A24366E976E0C8010E94A24322E030E002
:1022F00038872F83D6CEF301EC5DFD4F808191812D
:102300008130910509F0F0C00E94B3078C01FC01F7
:1023100080819181A281B381181619061A061B06C5
:1023200044F081E090E0A0E0B0E080839183A2835C
:10233000B383F80184819581A681B78118161906A7
:102340001A061B0644F081E090E0A0E0B0E0848330
:102350009583A683B783F80180859185A285B3858F
:10236000181619061A061B0644F081E090E0A0E05A
:10237000B0E080879187A287B387CE0101960E9443
:10238000C91C6EEA75E0CE0101960E94A24366ED7B
:1023900076E0CE0101960E94A2436091C30E709137
:1023A000C40E8091C50E9091C60E0E94AC586B0170
:1023B0007C01F80160817181828193810E94AC5817
:1023C0009B01AC01C701B6010E94C65AAB01BC011A
:1023D000CE0101960E94981C66EE76E0CE01019631
:1023E0000E94A2436091C70E7091C80E8091C90EE1
:1023F0009091CA0E0E94AC586B017C01F801648177
:102400007581868197810E94AC589B01AC01C70100
:10241000B6010E94C65AAB01BC01CE0101960E94D2
:10242000981C66EF76E0CE0101960E94A24360916F
:10243000CB0E7091CC0E8091CD0E9091CE0E0E945D
:10244000AC586B017C01F8016085718582859385AC
:102450000E94AC589B01AC01C701B6010E94C65A4C
:10246000AB01BC01CE0101960E94981CBE016F5FBA
:102470007F4F8301065E1D4FC8010E94B1438981D1
:102480009A810E94BB530AC0892BC9F462EA73E0A7
:102490008301065E1D4FC8010E94A2430E94B3073C
:1024A000BC01CE0101960E947106BE016F5F7F4F95
:1024B000C8010E94B14389819A810E94BB53F301F4
:1024C000EC5DFD4F808191810196833091051CF474
:1024D0009183808302C0118210820E947946698FA5
:1024E0007A8F8B8F9C8F68CB8230910569F667ED70
:1024F00075E08301065E1D4FC8010E94A24366ED90
:1025000076E0C8010E94A2438F8598890E945F2FC0
:10251000BC01C8010E94724366EE76E0C8010E94C9
:10252000A243C1010E945F2FBC01C8010E947243F7
:1025300066EF76E0C8010E94A243C2010E945F2FAD
:10254000BC01C8010E947243A9CF2C965FAD2C97A5
:10255000552309F4A4CB95CB89EE95E00E94961CF7
:102560008F8198850E94EF1D8EEE94E00E94961C4C
:102570000E94B3074F815885509315084093140863
:10258000CA01E1960FB6F894DEBF0FBECDBFDF9152
:10259000CF911F910F91FF90EF90DF90CF90BF9060
:1025A000AF909F908F907F906F905F904F903F90F3
:1025B0002F900895603E710508F041C4FB01882703
:1025C000EE58FF4F8F4F0C94515A81E090E0A0E0FD
:1025D000B0E080931A0890931B08A0931C08B09356
:1025E0001D08089510921E0810921F0810922008CE
:1025F0001092210808951092220810922308109238
:10260000240810922508089581E090E0A0E0B0E051
:102610008093260890932708A0932808B093290850
:10262000089510922A0810922B0810922C081092EC
:102630002D08089583E090E0A0E0B0E080932E089C
:1026400090932F08A0933008B0933108089588E73D
:1026500090E0A0E0B0E08093460890934708A093F4
:102660004808B0934908089588E790E0A0E0B0E0FA
:1026700080934A0890934B08A0934C08B0934D0860
:10268000089588E790E0A0E0B0E080934E08909332
:102690004F08A0935008B09351080895109256081F
:1026A00010925708109258081092590808951092E5
:1026B0005A0810925B0810925C0810925D08089509
:1026C00081E090E0A0E0B0E080935E0890935F0826
:1026D000A0936008B0936108089510926208109268
:1026E00063081092640810926508089510926608B5
:1026F0001092670810926808109269080895109265
:102700006A0810926B0810926C0810926D08089578
:1027100010926E0810926F08109270081092710853
:102720000895109272081092730810927408109213
:10273000750808951092760810927708109278081C
:1027400010927908089510927E0810927F081092D6
:1027500080081092810808951092820810928308D0
:10276000109284081092850808951092860810929D
:102770008708109288081092890808951092960888
:102780001092970810929808109299080895109244
:102790009A0810929B0810929C0810929D08089528
:1027A00010929E0810929F081092A0081092A10803
:1027B000089581E090E0A0E0B0E08093AA089093B3
:1027C000AB08A093AC08B093AD08089581E090E009
:1027D000A0E0B0E08093AE089093AF08A093B0085B
:1027E000B093B10808958CE291E0A0E0B0E080934E
:1027F000BE089093BF08A093C008B093C108089585
:102800008CE291E0A0E0B0E08093C2089093C3080E
:10281000A093C408B093C50808958CE291E0A0E0AD
:10282000B0E08093C6089093C708A093C808B093FF
:10283000C90808951092CE081092CF081092D008BF
:102840001092D10808951092D2081092D3081092D5
:10285000D4081092D50808951092D6081092D7087F
:102860001092D8081092D90808951092E608109294
:10287000E7081092E8081092E90808951092EA0813
:102880001092EB081092EC081092ED08089581E088
:1028900090E0A0E0B0E08093EE089093EF08A09362
:1028A000F008B093F108089585E090E0A0E0B0E072
:1028B0008093F6089093F708A093F808B093F9086E
:1028C000089585E090E0A0E0B0E08093FA0890934E
:1028D000FB08A093FC08B093FD08089589E190E0FF
:1028E000A0E0B0E08093FE089093FF08A093000959
:1028F000B0930109089582E390E0A0E0B0E08093F6
:102900000E0990930F09A0931009B093110908952F
:1029100082E390E0A0E0B0E0809312099093130965
:10292000A0931409B0931509089582E390E0A0E004
:10293000B0E08093160990931709A0931809B093FB
:102940001909089582E390E0A0E0B0E080931E09A9
:1029500090931F09A0932009B0932109089582E361
:1029600090E0A0E0B0E08093220990932309A09327
:102970002409B0932509089582E390E0A0E0B0E037
:102980008093260990932709A0932809B0932909D9
:10299000089580E991E0A0E0B0E08093360990933B
:1029A0003709A0933809B0933909089580E991E077
:1029B000A0E0B0E080933A0990933B09A0933C09D2
:1029C000B0933D09089580E991E0A0E0B0E08093E4
:1029D0003E0990933F09A0934009B093410908959F
:1029E000109246091092470910924809109249091D
:1029F000089510924A0910924B0910924C091092B6
:102A00004D09089510924E0910924F0910925009E5
:102A100010925109089510925E0A10925F0A109266
:102A2000600A1092610A08951092620A1092630A75
:102A30001092640A1092650A08951092660A109224
:102A4000670A1092680A1092690A089588E592E070
:102A5000A0E0B0E080935E0990935F09A0936009C5
:102A6000B0936109089588E592E0A0E0B0E080931A
:102A7000620990936309A0936409B093650908956E
:102A800088E592E0A0E0B0E0809366099093670942
:102A9000A0936809B093690908958EE190E0A0E0E1
:102AA000B0E080936E0990936F09A0937009B09382
:102AB000710908958EE190E0A0E0B0E08093720982
:102AC00090937309A0937409B093750908958EE1EA
:102AD00090E0A0E0B0E08093760990937709A0930E
:102AE0007809B093790908951092860910928709A0
:102AF0001092880910928909089510928A091092FB
:102B00008B0910928C0910928D09089510928E09EC
:102B100010928F09109290091092910908951092C5
:102B2000AE091092AF091092B0091092B109089540
:102B30001092B2091092B3091092B4091092B5091B
:102B400008951092B6091092B7091092B809109220
:102B5000B90908951092BE091092BF091092C009D8
:102B60001092C10908951092C2091092C3091092DF
:102B7000C4091092C50908951092C6091092C70998
:102B80001092C8091092C909089585E090E0A0E06C
:102B9000B0E08093D6099093D709A093D809B09359
:102BA000D909089585E090E0A0E0B0E08093DA09CB
:102BB0009093DB09A093DC09B093DD09089585E0CB
:102BC00090E0A0E0B0E08093DE099093DF09A0934D
:102BD000E009B093E109089584EB95E1A0E0B0E04D
:102BE0008093E6099093E709A093E809B093E90977
:102BF000089584EB95E1A0E0B0E08093EA0990931A
:102C0000EB09A093EC09B093ED09089584EB95E1ED
:102C1000A0E0B0E08093EE099093EF09A093F00953
:102C2000B093F109089585E090E0A0E0B0E08093D2
:102C3000FE099093FF09A093000AB093010A08953A
:102C400085E090E0A0E0B0E08093020A9093030A50
:102C5000A093040AB093050A089585E090E0A0E0EF
:102C6000B0E08093060A9093070AA093080AB093F5
:102C7000090A089510920E0A10920F0A1092100A73
:102C80001092110A08951092120A1092130A1092CB
:102C9000140A1092150A08951092160A1092170A33
:102CA0001092180A1092190A08951092260A10928A
:102CB000270A1092280A1092290A089510922A0AC7
:102CC00010922B0A10922C0A10922D0A089510923D
:102CD0002E0A10922F0A1092300A1092310A08958B
:102CE00010923E0B10923F0B1092400B1092410B32
:102CF00008958CE390E0A0E0B0E08093420B9093C5
:102D0000430BA093440BB093450B089581E090E0F2
:102D1000A0E0B0E08093460B9093470BA093480B44
:102D2000B093490B089510924E0B10924F0B1092D6
:102D3000500B1092510B08958CE390E0A0E0B0E0AE
:102D40008093520B9093530BA093540BB093550B5D
:102D5000089581E090E0A0E0B0E08093560B90935E
:102D6000570BA093580BB093590B08951092660B14
:102D70001092670B1092680B1092690B08958CE308
:102D800090E0A0E0B0E080936A0B90936B0BA0936F
:102D90006C0BB0936D0B089581E090E0A0E0B0E083
:102DA00080936E0B90936F0BA093700BB093710B8D
:102DB00008951092760B1092770B1092780B109268
:102DC000790B08958CE390E0A0E0B0E080937A0B5B
:102DD00090937B0BA0937C0BB0937D0B089581E0C7
:102DE00090E0A0E0B0E080937E0B90937F0BA093E7
:102DF000800BB093810B089510928E0B10928F0B65
:102E00001092900B1092910B08958CE390E0A0E04B
:102E1000B0E08093920B9093930BA093940BB0939C
:102E2000950B089581E090E0A0E0B0E08093960BD0
:102E30009093970BA093980BB093990B0895660FFE
:102E4000771F660F771FFB01E65EF74F1082118236
:102E5000128213820895089508950F931F93CF93BC
:102E6000DF938C01C0E0D0E0BE01C8010E94383A77
:102E7000882321F0BE01C8010E94DA122196C13ECA
:102E8000D10591F780E090E0DF91CF911F910F91F4
:102E900008954F925F926F927F928F929F92AF921E
:102EA000BF92CF92DF92EF92FF920F931F93CF9337
:102EB000DF938B01EB01CC0FDD1FCE010E94CC59BB
:102EC000882E912CA12CB12CCE0101960E94CC59B8
:102ED000C82ED12CE12CF12C0D581109033011050D
:102EE00088F5CE0144960E94CC59482E512C612C75
:102EF000712CCE0145960E94CC59482F50E060E0DD
:102F000070E08FEF4816510461047104A9F44F3F3B
:102F100051056105710581F48FEF88169104A104B4
:102F2000B10481F48FEFC816D104E104F10451F427
:102F30006FEF7FEFCB012BC0403851056105710564
:102F40006CF0F6CF80E8C816D104E104F10484F7F0
:102F500040E050E0BA01412C512C3201FE2CED2C06
:102F6000DC2CCC248C0C9D1CAE1CBF1C32015524C7
:102F70004424840C951CA61CB71C742F6627552767
:102F80004427CB01BA01680D791D8A1D9B1DDF9175
:102F9000CF911F910F91FF90EF90DF90CF90BF9056
:102FA000AF909F908F907F906F905F904F9008951B
:102FB000CF93DF93EC018F81882331F061E0898921
:102FC0000E94811F1F8206C060E089890E94811FC4
:102FD00081E08F83DF91CF910895CF93DF93EC0150
:102FE0008E81882331F061E08B850E94811F1E82D3
:102FF00006C060E08B850E94811F81E08E83DF9197
:10300000CF91089560E0FC0181890C94811F60E0FC
:10301000FC0183850C94811F61E0FC0181890C9483
:10302000811F61E0FC0183850C94811FCF92DF92A8
:10303000EF92FF920F931F93CF93DF938B01690160
:103040007A01EB01CC0FDD1F6C2DCE010E94D4590B
:103050009927F7FC9A958F2D7E2D6D2DCE01019627
:103060000E94D4590D5811090330110588F4B70195
:10307000992777FD9095892FCE0144960E94D459C7
:103080006F2D772788279927CE0145960E94D4591E
:1030900080E090E0DF91CF911F910F91FF90EF9032
:1030A000DF90CF900895CF92DF92EF92FF92CF936F
:1030B000DF93EB010E94383A882359F1FE01EE0FAD
:1030C000FF1FEE0FFF1FE65EF74FC080D180E2804A
:1030D000F3808BEA96E00E94961C80EC96E00E94BA
:1030E000961C8FEA96E00E94961CCE010E94EF1D6E
:1030F00080EC96E00E94961C8BE695E00E94961C60
:10310000C701B6010E94F71C0E94B3070E94B506D2
:1031100004C08DE695E00E94961C80E090E0DF916F
:10312000CF91FF90EF90DF90CF9008950F931F9372
:10313000CF93DF938C01C0E0D0E0BE01C8010E94B4
:10314000383A882321F0BE01C8010E945318219605
:10315000C13ED10591F780E090E0DF91CF911F91C2
:103160000F910895EF92FF920F931F93CF93DF93E8
:103170008091A80C9091A90C892B09F06EC084E075
:1031800090E00E942353EC0160E070E00E94491738
:10319000161617060CF1CE010E942D179AE1E92EA2
:1031A00098E0F92E00E010E0B801CE010E94383A14
:1031B000882349F0F7012081318142815381B80190
:1031C000CE010E9416180F5F1F4FF4E0EF0EF11CA6
:1031D0000639110549F73DC063E070E0CE010E9459
:1031E0004917613071058105910581F58AE1E82E65
:1031F00088E0F82E00E010E0B801CE010E94383AD5
:103200008823D9F0B801CE010E944917F7016083E5
:103210007183828393836F3F7F4F8F4F9F4F69F4FA
:10322000B801CE010E94DA12F7012081318142817A
:103230005381B801CE010E9416180F5F1F4FF4E0B2
:10324000EF0EF11C013E1105B9F603C0CE010E943C
:103250002D17D093A90CC093A80C8091A80C909125
:10326000A90CDF91CF911F910F91FF90EF900895DE
:10327000CF92DF92EF92FF920F931F93CF93DF9342
:10328000FC016489758986899789C68DD78D6031DF
:1032900027E272078105910529F016161706180610
:1032A000190644F02089318942895389DE010E9440
:1032B0000C5A2AC08F010E94AC5820E030E44CE147
:1032C00056E40E94C65A6B017C01F801608F718F31
:1032D000828F938F60897189828993890E94AC580B
:1032E000A70196010E940B596B017C01BE01DD0F05
:1032F000880B990B0E94AC589B01AC01C701B60129
:103300000E940B590E94385BDF91CF911F910F9162
:10331000FF90EF90DF90CF900895FC011182108212
:1033200013821282158214821782168210861186E9
:10333000128613861486158616861786108A118AB9
:10334000128A138A108E118E128E138E158E148E81
:10335000178E168E10A211A212A213A214A215A2E9
:1033600016A217A210A611A612A613A614A615A699
:1033700080E197E2A0E0B0E0848B958BA68BB78BC1
:103380000895CF93DF93EC01FC01E159FF4F1082C8
:10339000379781E0808360E08B850E94811F8CA934
:1033A000882331F060E08989DF91CF910C94811FEF
:1033B000DF91CF910895CF93DF93EC01898D0E9427
:1033C000581F2C8D30E08217930711F48D8D01C0AA
:1033D00080E0DF91CF910895CF93DF93EC018F8947
:1033E0000E94581F2C8D30E08217930711F48D8DA9
:1033F00001C080E0DF91CF910895CF93DF93EC017E
:103400002BA988819981222311F061E001C060E03D
:103410000E94F51D8C81883579F42CA98A819B81C5
:10342000222329F02DA9222311F061E001C060E0E0
:10343000DF91CF910C94F51DDF91CF910895CF933B
:10344000DF93EC012BA988819981222311F060E0A0
:1034500001C061E00E94F51D8C81883579F42CA9AA
:103460008A819B81222329F02DA9222311F060E07B
:1034700001C061E0DF91CF910C94F51DDF91CF91F8
:103480000895CF93DF93EC0161E08F850E94811F47
:103490008CA9882321F061E08D890E94811FC35986
:1034A000DF4F1882DF91CF910895CF93DF93EC0126
:1034B00060E08F850E94811F8CA9882321F060E045
:1034C0008D890E94811FC359DF4F81E08883DF917E
:1034D000CF910895CF92DF92EF92FF920F931F93B7
:1034E000CF93DF93FC01DC01A05CBF4F4D935D9354
:1034F0006D937C93139714964D935D936D937C938A
:103500001397EC01C85BDF4F088319832A833B8341
:103510001896EC9282AD882381F082A9811108C0AF
:1035200037FF0BC0188219821A821B8221E006C065
:103530001016110612061306ACF320E0C3ACD4AC8F
:10354000E5ACF6AC1C141D041E041F0434F587AD55
:10355000882319F1488159816A817B81C601D7FE90
:1035600004C0882799278C199D09DA0157FF04C0E8
:10357000AA27BB27A41BB50B8A179B0774F477FFF8
:1035800003C0919581959109092E000CAA0BBB0BE4
:1035900088839983AA83BB8321E0EB5AFF4F108273
:1035A000118212821382822FDF91CF911F910F918E
:1035B000FF90EF90DF90CF9008950F931F93CF93DC
:1035C000DF938C01D62FFC01838D81110BC0C801C4
:1035D0000E94EC19C82FC8010E94DB19D1110AC042
:1035E0008C2F08C0C8010E94DB19C82FC8010E9497
:1035F000EC19F4CFDF91CF911F910F910895CF93E4
:10360000DF93EC01FC01E159FF4F81E080833997A2
:103610008081B297882341F080819181A281B3811A
:103620000196A11DB11D07C080819181A281B38146
:103630000197A109B10980839183A283B38361E0DB
:103640008B850E94811F8CA9882331F061E08989D4
:10365000DF91CF910C94811FDF91CF9108958F92CC
:103660009F92AF92BF92CF92DF92EF92FF920F9311
:103670001F93CF93DF93EC01FC01EB5AFF4F608166
:103680007181828193810E94AA586B017C016EA98D
:103690007FA988AD99AD0E94AC589B01AC0160E058
:1036A00074E284E799E40E94C65A4B015C01FE0172
:1036B000EF59FF4F60817181828193810E94AA58E6
:1036C0009B01AC01C501B4010E94C65A4B015C01CB
:1036D0008E01075A1F4F20E030E040E05FE30E9478
:1036E0000B59A70196010E945A5A0E943F5BF801AC
:1036F0006083718382839383C35ADF4FA501940152
:10370000C701B6010E945A5A0E943F5B68837983C1
:103710008A839B83DF91CF911F910F91FF90EF9050
:10372000DF90CF90BF90AF909F908F9008950F93B0
:103730001F93CF93DF93FC01E159FF4F2081222398
:10374000C9F07A97008111812281338138964081B6
:10375000518162817381041715072607370728F105
:10376000EC010E94C119CE01DF91CF911F910F9101
:103770000C942F1BFC01EB59FF4F20812223A9F051
:10378000709700811181228133813496408151816B
:1037900062817381041715072607370730F0DF9120
:1037A000CF911F910F910C94FF1ADF91CF911F9130
:1037B0000F910895FC01EB59FF4F2081222361F006
:1037C000709780819181A281B3810196A11DB11D65
:1037D00080839183A283B383089590E0FC013197A5
:1037E000E231F10508F04EC08827EE5AFE4F8F4FA8
:1037F0000C94515A809180008F7703C08091800093
:103800008F7D80938000089580918000877FF9CF1D
:1038100084B58F7702C084B58F7D84BD0895809173
:10382000B0008F7703C08091B0008F7D8093B0008F
:103830000895809190008F7707C0809190008F7DD0
:1038400003C080919000877F8093900008958091BD
:10385000A0008F7707C08091A0008F7D03C080916A
:10386000A000877F8093A0000895809120018F772A
:1038700007C0809120018F7D03C080912001877F48
:10388000809320010895009769F0FC0101900020C9
:10389000E9F73197AF01481B590BBC018BEA9CE05B
:1038A0000C94154180E090E008958F929F92AF9222
:1038B000BF920F931F93CF93DF93CDB7DEB7A1973E
:1038C0000FB6F894DEBF0FBECDBF19A2423008F488
:1038D0004AE08E010F5D1F4F842E912CA12CB12C3C
:1038E000A50194010E94145AE62FB901CA010150A2
:1038F0001109EA3014F4E05D01C0E95CD801EC93F1
:10390000232B242B252B61F7C8010E94431CA19671
:103910000FB6F894DEBF0FBECDBFDF91CF911F91E0
:103920000F91BF90AF909F908F9008950C94431C7F
:10393000EF92FF920F931F93CF93DF93CDB7DEB734
:1039400064970FB6F894DEBF0FBECDBF7C01CB01EC
:10395000BA018E010F5F1F4F22E044E00E94035323
:10396000FC0101900020E9F73197AF01481B590B8A
:10397000BC01C7010E94444364960FB6F894DEBFB1
:103980000FBECDBFDF91CF911F910F91FF90EF90B0
:103990000895CF93DF93EC01198218821B821A825B
:1039A0001D821C8260E070E00E941D4328813981E5
:1039B00081110FC02115310519F0C9010E94BB53B7
:1039C000198218821D821C821B821A82DF91CF917C
:1039D00008951D821C8260EF74E0C901DF91CF91D0
:1039E0000C94745C682F8BEA9CE00C94AC41CF92F1
:1039F000DF92EF92FF92CF93DF9397FF19C06B0195
:103A00007C018DE20E94F21CEC0166277727CB0136
:103A10006C197D098E099F094AE00E94551C8C0F84
:103A20009D1FDF91CF91FF90EF90DF90CF90089591
:103A30004AE0DF91CF91FF90EF90DF90CF900C9410
:103A4000551C8F929F92AF92BF92CF92DF92EF92CE
:103A5000FF920F931F93CF93DF936B017C01142F81
:103A60009B01AC010E94735B882319F081EB96E007
:103A700027C046015701E894B7F82FEF3FEF4FE713
:103A80005FE7C501B4010E94735B81110DC02FEF88
:103A90003FEF4FE75FE7C501B4010E94A558181634
:103AA0001CF485EB96E00CC02FEF3FEF4FE75FE48F
:103AB000C701B6010E946E5B181684F489EB96E08C
:103AC000DF91CF911F910F91FF90EF90DF90CF90FA
:103AD000BF90AF909F908F900C94431C2FEF3FEFBF
:103AE0004FE75FECC701B6010E94A55887FDE6CFFE
:103AF00020E030E0A901C701B6010E94A55887FF68
:103B000009C08DE20E94F21CEC01F7FAF094F7F87C
:103B1000F09402C0C0E0D0E000E060E070E080E03F
:103B20009FE3101741F020E030E040E251E40E94B2
:103B3000C65A0F5FF6CFA70196010E945A5A6B0131
:103B40007C010E943F5B4B015C014AE00E94551CD6
:103B5000C80FD91F1123A9F1C501B4010E94AA58A9
:103B60009B01AC01C701B6010E94595A6B017C014F
:103B70008EE20E94F21CC80FD91F20E030E040E224
:103B800051E4C701B6010E940B594B015C010E9430
:103B90003F5B6B01E12CF12C4AE0C701B6010E94AA
:103BA000551CC80FD91FC701B6010E94AA589B0116
:103BB000AC01C501B4010E94595A6B017C0111503E
:103BC000E1F6CE01DF91CF911F910F91FF90EF9021
:103BD000DF90CF90BF90AF909F908F900895BC01E1
:103BE000990F880B990B0C94F71CDC0152968C9161
:103BF000529760FB84F952968C935297282F5396D4
:103C00003C91539754968C915497482F437050E0B1
:103C1000ED91FC9111970190F081E02D60E0CD01D4
:103C200019946031710509F441C088F4623071055E
:103C300009F454C020F4672B09F458C00895643087
:103C4000710509F443C068307105C1F1089560340D
:103C50007105E1F020F46032710501F108956038DA
:103C6000710561F06115714009F048C0DC01ED910A
:103C7000FC910288F389E02D60E03FC0DC01ED910A
:103C8000FC910288F389E02D61E037C0DC01ED9101
:103C9000FC910288F389E02D62E02FC0DC01ED91F8
:103CA000FC910288F389E02D63E027C0DC01ED91EF
:103CB000FC910288F389E02D64E01FC0DC01ED91E6
:103CC000FC910288F389E02D65E017C0DC01ED91DD
:103CD000FC910288F389E02D66E00FC0DC01ED91D4
:103CE000FC910288F389E02D67E007C0DC01ED91CB
:103CF000FC910288F389E02D68E019940895CF9231
:103D0000DF92EF92FF921F93CF93DF93EC0180E05D
:103D100090E00E94AA5825ED34E045E352E40E9469
:103D20000B5920E030E04AE754E40E94C65A6B0188
:103D30007C012AE037ED43EA5CE369857A858B856F
:103D40009C850E945A5AA70196010E940B5926E6AB
:103D500036E646EA5EE30E94C65A20E030E040E8DC
:103D60005FE30E94595A0E943F5B162FE881F98158
:103D70000480F581E02D603108F561E0CE011995F0
:103D80002AE037ED43EA5CE369857A858B859C857B
:103D90000E945A5AA70196010E940B592CEE31E558
:103DA00048E35EE30E94C65A20E030E040E85FE36B
:103DB0000E94595A0E943F5B162F03C060E0CE015B
:103DC0001995103208F01FE1912F9F718B81807E31
:103DD000892B8B832A81382F8C81482F4F7050E09C
:103DE000E881F9810190F081E02D60E1CE01199523
:103DF000612F70E080E090E00E94AC582D853E85F8
:103E00004F8558890E940B590E943F5B6F718A81D0
:103E1000807E682B6A83262F3B818C81482F4F70D0
:103E200050E0E881F9810190F081E02D60E1CE0160
:103E3000DF91CF911F91FF90EF90DF90CF90199479
:103E4000DC01ED91FC910280F381E02D6CE6199488
:103E5000CF92DF92EF92FF92FC01C12C92E1D92E1A
:103E60009AE7E92EF12C20E04C155D056E057F05E3
:103E700040F4F694E794D794C7942F5F2630A1F7C7
:103E800027E091E09227292F286B269520839170B7
:103E90009183FF90EF90DF90CF9008951F920F9243
:103EA0000FB60F9211240F900FBE0F901F90189510
:103EB000CF93DF93282F30E0F901ED52F84F849132
:103EC000F901E75DF74FD491F901ED54F74FC49133
:103ED000CC2391F081110E94ED1BEC2FF0E0EE0F4E
:103EE000FF1FE158F74FA591B491EC91ED2381E0CC
:103EF00090E021F480E002C080E090E0DF91CF917B
:103F000008951F93CF93DF93282F30E0F901ED52EE
:103F1000F84F8491F901E75DF74FD491F901ED5421
:103F2000F74FC491CC23C1F0162F81110E94ED1BD5
:103F3000EC2FF0E0EE0FFF1FE756F74FA591B4917D
:103F40009FB7F894111104C08C91D095D82302C06A
:103F5000EC91DE2BDC939FBFDF91CF911F910895F1
:103F6000FC0181A90C94811FCF93DF9390E0FC01A9
:103F7000E75DF74F2491FC01ED54F74F84918823BE
:103F800061F190E0880F991FFC01E754F84FC5914B
:103F9000D491FC01E756F74FA591B491611109C086
:103FA0009FB7F8948881209582238883EC912E23F3
:103FB0000BC0623061F49FB7F8948881322F30953E
:103FC00083238883EC912E2B2C939FBF06C08FB741
:103FD000F894E8812E2B28838FBFDF91CF9108952D
:103FE0000F931F93CF93DF93EC0161E089A90E94A7
:103FF000B41F61E0CE010E94B01F0BA91CA90115DE
:10400000110509F456C061E0F80180810E94B41FD7
:1040100061E0F80184810E94B41F62E0F8018281AE
:104020000E94B41FF80140815181FA01ED54F74F0D
:10403000E491F0E0EE0FFF1FE756F74F8591949162
:10404000F8019287818722813381F901ED54F74F7E
:10405000E491F0E0EE0FFF1FE158F74F8591949146
:10406000F8019487838784819581FC01ED54F74F93
:10407000E491F0E0EE0FFF1FE756F74FA591B491E2
:10408000F801B687A587FA01E75DF74F4491F8017B
:104090004683F901E75DF74F2491F8012783FC017E
:1040A000E75DF74F9491F80190878C91E92FE82B09
:1040B000EC932A893B898C89482F437050E0E88132
:1040C000F9810190F081E02D60E0CE0119952AA1DF
:1040D0003BA14CA15DA1E881F9810190F081E02D27
:1040E0006CE6CE0119952EA13FA148A559A55170A6
:1040F000E881F9810190F081E02D6DE6CE011995FE
:104100002DA53EA58FA5482F4F7350E0E881F9817A
:104110000190F081E02D60E7CE0119952A813B8165
:104120008C81482F4F7050E0E881F9810190F08137
:10413000E02D60E1CE0119958AA1807F88608AA375
:104140002AA13BA14CA15DA1E881F9810190F081F8
:10415000E02D6CE6CE011995E881F9810688F78992
:10416000E02D61E0CE01DF91CF911F910F91199465
:104170008230910538F0880F991F880F991F059795
:104180000197F1F708958F929F92AF92BF92CF92CD
:10419000DF92EF92FF926B017C010E9454464B012B
:1041A0005C01C114D104E104F104F1F00E94544611
:1041B000DC01CB0188199909AA09BB09883E934003
:1041C000A105B10570F321E0C21AD108E108F10898
:1041D00088EE880E83E0981EA11CB11CC114D10486
:1041E000E104F10419F7DDCFFF90EF90DF90CF905D
:1041F000BF90AF909F908F9008958FEF9FEF08959D
:104200008DEB96E00E94961C82E993E00E94961C3A
:1042100087E793E00E94961C80EF94E00E94961C32
:104220000E94B3070E94B50680E090E008950C94C8
:10423000BB530C94BB530C94BB530C94BB530C94C6
:10424000BB530C94BB530C94BB530C94BB530C94B6
:10425000BB530C94BB530E94B3070E940F0780E02E
:1042600090E0089582EC96E00E94961C0E94B307AD
:104270000E94060B0E94B3070E94C7060E94D03915
:1042800040E050E068E070E00E947D380E94D03944
:1042900040E050E069E070E00E947D380E94D03933
:1042A00040E050E06AE070E00E947D380E94D03922
:1042B00040E050E06DE070E00E947D3880E090E0EA
:1042C00008950F931F93CF93DF93FB0102A113A1D6
:1042D000C68DD78D0E940838C530D105E1F064F451
:1042E000249771F56DE070E08BED9DE00E949B449A
:1042F000B8018BED9DE022C0C630D105B1F02B97FF
:10430000F9F464E070E084EE9DE00E949B44B80103
:1043100084EE9DE013C06BE070E08EED9DE00E94A6
:104320009B44B8018EED9DE009C06AE070E081EE2B
:104330009DE00E949B44B80181EE9DE00E941844DC
:1043400080E090E0DF91CF911F910F910895CF937E
:10435000DF93EC0186E390E09C8F8B8F87E390E006
:104360009E8F8D8F86E290E098A38F8F8AE190E0F8
:104370009AA389A38CE190E09CA38BA388E190E0B1
:104380009EA38DA38FE390E098A78FA380E490E095
:104390009AA789A7FE01E057FF4F8CE390E094872E
:1043A00083878DE390E09687858788E390E0908B04
:1043B0008787128A118A148A138A168A158A8EE0D0
:1043C00090E0908F878B8FE090E0928F818FE05804
:1043D000FF4F8BE290E09487838780E390E096879D
:1043E00085878AE390E0908B8787128A118A148AE6
:1043F000138A168A158A8CE090E0908F878B89E06B
:1044000090E0928F818FEA5EFE4F11821082329689
:1044100011821082329611821082CE010E94BF2634
:10442000CE010E94C432FE01EB50FD4F808191818C
:1044300072974081518162817381E355F140DE01C1
:10444000A352BD4F2D913C91358F248F448B558BBA
:10445000668B778B019719F48FEF9FEF02C081E095
:1044600090E0978F868FFE01E950FD4F808191810A
:1044700070974081518162817381E952F140DE0180
:10448000A152BD4F2D913C91358F248F448B558B7C
:10449000668B778B019719F48FEF9FEF02C081E055
:1044A00090E0978F868FFE01E750FD4F80819181CC
:1044B0003E974081518162817381EF5FF109CF5155
:1044C000DD4F28813981358F248F448B558B668B46
:1044D000778B019719F48FEF9FEF02C081E090E096
:1044E000978F868FDF91CF9108952F923F924F92B1
:1044F0005F926F927F928F929F92AF92BF92CF9274
:10450000DF92EF92FF920F931F93CF93DF93CDB77C
:10451000DEB7C058D1090FB6F894DEBF0FBECDBFCD
:104520008C01FC0110821182128213821482158286
:1045300016821782108611861286138614861586B7
:10454000168617864C01F0E18F0E911CC4010E9463
:10455000BB31580180E9A80EB11CC5010E94BB31D6
:104560006801E0EFCE1AEEEFDE0AC6010E94BB3111
:104570007801F0E7EF1AFEEFFF0AC7010E948D19DC
:10458000380182E4681A8EEF780AC3010E948D19FF
:104590002801E4E14E1AEEEF5E0AC2010E948D1975
:1045A000C801865E9D4F0E94C91CF801E05EFD4F68
:1045B00011821082329611821082329611821082FC
:1045C00032961182108232961182108232961182B6
:1045D0001082329610823196108231961082319676
:1045E00010821182128213823496108211821282FA
:1045F00013823496108211821282138234961082B2
:1046000011821282138234961082118212821382D6
:104610003496108211821282138234961082118293
:10462000128213823496108211821282138234967F
:1046300010821182128213823496108211821282A9
:104640001382349610821182128213823496108261
:104650001182128213823496108231961082319622
:104660001082319610821182128213823496108247
:104670001182128213823496108211821282138266
:1046800034961082319610823196108231961082C3
:1046900031961082319610823196108231961082B6
:1046A00031961082319610823196108231961082A6
:1046B0003196108231961082319610823196108296
:1046C0003196108231961082319610823196108286
:1046D0003196108231961082319610823196108276
:1046E00031961082118212821382349610821182C6
:1046F0001282138234961082118212821382D801A0
:10470000AE56BD4F8CE0E6E8F3E001900D928A953D
:10471000E1F7F801E256FD4F1082118212821382F6
:104720003496108211821282138234961082118282
:104730001282138234961182108232961182108274
:104740003296118210823296108211821282138266
:104750003496108211821282138234961082118252
:10476000128213823496108211821282138234963E
:104770001082118212821382349610821182128268
:1047800013823496118210823296118210823296F0
:104790001182108232961082118212821382349614
:1047A0001082118212821382349610821182128238
:1047B000138234961082319610823196108231968F
:1047C00011821082329611821082329611821082EA
:1047D00032961082118212821382349610821182D4
:1047E00012821382349610821182128213823496BE
:1047F00011821082329611821082329611821082BA
:104800003296118210823296118210823296118273
:104810001082329611821082329611821082180113
:10482000F1E02F1AFDEF3F0AF1011082319610825C
:10483000118212821382CE0101960E94BB3180E860
:10484000FE013196D40101900D928A95E1F7CE01D7
:1048500001960E94BB3180E8FE013196D50101909E
:104860000D928A95E1F7CE0101960E94BB3180E856
:10487000FE013196D60101900D928A95E1F788E507
:10488000F801848BEC56FF4F89E58083E058FF4F99
:104890008AE58083CE0101960E948D198EE2FE0189
:1048A0003196D70101900D928A95E1F7CE010196DC
:1048B0000E948D198EE2FE013196D30101900D9276
:1048C0008A95E1F7CE0101960E948D198EE2FE01D4
:1048D0003196D20101900D928A95E1F7C8010E94AC
:1048E000A721F1011082C058DF4F0FB6F894DEBF48
:1048F0000FBECDBFDF91CF911F910F91FF90EF9031
:10490000DF90CF90BF90AF909F908F907F906F90EF
:104910005F904F903F902F9008950F931F93CF93E8
:10492000DF938B01EA018EE993E00E94961C80ECF4
:1049300096E00E94961CF80184810E94F21CCE0130
:104940000E94EF1D0E94B307DF91CF911F910F913D
:104950000C94B506CF92DF92EF92FF920F931F93C4
:10496000CF93DF93CDB7DEB728970FB6F894DEBFAD
:104970000FBECDBF8B016A01865E9D4F7C016AE947
:1049800073E00E94A24360EC76E0C7010E94A2435C
:10499000F801848189831A8241E050E08E010F5F23
:1049A0001F4FB801C7010E9444434AE0B801C60145
:1049B0000E947354F80101900020E9F73197AF018C
:1049C000401B510BB801C7010E9444430E94B3072A
:1049D000BC01C8010E947106B801C7010E94B14321
:1049E00089819A810E94BB5328960FB6F894DEBF46
:1049F0000FBECDBFDF91CF911F910F91FF90EF9030
:104A0000DF90CF900895FC01DB01A759BF4F8C9137
:104A1000882319F022E030E002C020E030E0DB0122
:104A2000A559BF4F8C91882311F023E030E0DB01C2
:104A3000A659BF4F8C91882311F024E030E0DB01B0
:104A4000A459BF4F8C91882311F026E030E0DA01A1
:104A50008D919C912817390721F091E012161306C9
:104A60000CF090E0DA012D933C93992321F0A901F9
:104A7000CF010C94AA240895CF93DF938091C10EA7
:104A80009091C20E892B59F484E093E00E94235345
:104A9000EC010E947522D093C20EC093C10E80918A
:104AA000C10E9091C20EDF91CF9108954F925F9207
:104AB0006F927F928F929F92AF92BF92CF92DF922E
:104AC000EF92FF920F931F93CF93DF9300D01F922B
:104AD000CDB7DEB70E94B2184090F6085090F708A4
:104AE0006090F8087090F9080E94B2188090FA0857
:104AF0009090FB08A090FC08B090FD080E94B307BE
:104B0000C090C30ED090C40EE090C50EF090C60EBB
:104B10000E94B307C701B6010E94AC586B017C012B
:104B2000C301B2010E94AC589B01AC01C701B601A0
:104B30000E94C65A2B013C016091C70E7091C80EAD
:104B40008091C90E9091CA0E0E94AC586B017C01F5
:104B5000C501B4010E94AC589B01AC01C701B6016C
:104B60000E94C65A69837A838B839C830E943C256A
:104B70001F921F921F921F921F92812C912CA12C89
:104B8000B12CC12CD12C760109811A812B813C8159
:104B9000B301A2010E94530B0E943C251F921F9259
:104BA0001F921F921F9297018601B301A2010E94DA
:104BB000530B0E943C251F921F921F921F921F921F
:104BC00097018601B701A6010E94530B0FB6F89416
:104BD000DEBF0FBECDBF80E090E00F900F900F9032
:104BE0000F90DF91CF911F910F91FF90EF90DF9089
:104BF000CF90BF90AF909F908F907F906F905F907D
:104C00004F9008954F925F926F927F928F929F92F2
:104C1000AF92BF92CF92DF92EF92FF920F931F93CA
:104C2000CF93DF9300D000D0CDB7DEB7FB0126894C
:104C30002D8387898E8382889388A684B784C284D3
:104C4000D384E484F58446805780608471848281B3
:104C50009381A481B58189839A83AB83BC830E94AD
:104C60003C251F921F921F92AE81AF93BD81BF93CF
:104C70009301820149815A816B817C810E94530B8F
:104C80000F900F900F900F900F9080E090E026967D
:104C90000FB6F894DEBF0FBECDBFDF91CF911F914D
:104CA0000F91FF90EF90DF90CF90BF90AF909F90CB
:104CB0008F907F906F905F904F900895CF93DF9388
:104CC000EB0120E030E040E85FE36A817B818C818A
:104CD0009D810E94A55881110DC089EC96E00E942B
:104CE000961C0E943C258C5A9F4FFC011082118219
:104CF0001282138220E030E040E85FE36E817F8122
:104D0000888599850E94A55881110DC089ED96E08E
:104D10000E94961C0E943C258C529F4FFC011082E1
:104D200011821282138220E030E040E85FE36A855E
:104D30007B858C859D850E94A55881110DC089EECB
:104D400096E00E94961C0E943C258C5A9E4FFC01C6
:104D500010821182128213820E94B3070E94B5064C
:104D600080E090E0DF91CF9108950895089508952F
:104D700008950895089508950895089508952F9227
:104D80003F924F925F926F927F928F929F92AF92DB
:104D9000BF92CF92DF92EF92FF920F931F93CF9328
:104DA000DF93CDB7DEB765970FB6F894DEBF0FBEC1
:104DB000CDBF8C010E94B218F801E45DFD4F81E087
:104DC0004091E6085091E7086091E8087091E90881
:104DD000452B462B472B09F480E080830E94B218B4
:104DE000F801E35DFD4F81E04091EA085091EB0846
:104DF0006091EC087091ED08452B462B472B09F488
:104E000080E080830E94B218F801E25DFD4F81E0EE
:104E10004091EE085091EF086091F0087091F10810
:104E2000452B462B472B09F480E080830E94B21863
:104E30008091360990913709A0913809B0913909CC
:104E4000F801E15DFD4F80839183A283B3830E94CB
:104E5000B21880913A0990913B09A0913C09B09118
:104E60003D09F801ED5CFD4F80839183A283B383FC
:104E70000E94B21880913E0990913F09A09140098B
:104E8000B0914109F801E95CFD4F80839183A283D1
:104E9000B3830E94B21880910E0990910F09A091DE
:104EA0001009B0911109F801E55CFD4F80839183F1
:104EB000A283B3830E94B2188091120990911309C2
:104EC000A0911409B0911509F801E15CFD4F8083B0
:104ED0009183A283B3830E94B218809116099091A6
:104EE0001709A0911809B0911909F801ED5BFD4F60
:104EF00080839183A283B3830E94B21880911E099C
:104F000090911F09A0912009B0912109F801E95B56
:104F1000FD4F80839183A283B3830E94B218809156
:104F2000220990912309A0912409B0912509F80143
:104F3000E55BFD4F80839183A283B3830E94B21807
:104F40008091260990912709A0912809B0912909FB
:104F5000F801E15BFD4F80839183A283B3830E94BC
:104F6000B2188091BE089091BF08A091C008B0917E
:104F7000C108F801ED5AFD4F80839183A283B3836A
:104F80000E94B2188091C2089091C308A091C408F1
:104F9000B091C508F801E95AFD4F80839183A2833F
:104FA000B3830E94B2188091C6089091C708A0915F
:104FB000C808B091C908F801E55AFD4F8083918374
:104FC000A283B3830E94B218F801E15AFD4F81E039
:104FD00020919608309197082130310509F080E042
:104FE00080830E94B218F801E05AFD4F81E02091C1
:104FF0009A0830919B082130310509F080E08083C8
:105000000E94B218F801EF59FD4F81E020919E08EF
:1050100030919F082130310509F080E080830E94A3
:10502000B218F801E358FD4F81E040916E085091AD
:105030006F086091700870917108452B462B472BC3
:1050400009F480E080830E94B218F801E258FD4F15
:1050500081E04091720850917308609174087091DA
:105060007508452B462B472B09F480E080830E946E
:10507000B218F801E158FD4F81E040917608509157
:1050800077086091780870917908452B462B472B5B
:1050900009F480E080830E94B218F801E058FD4FC7
:1050A00081E040914609509147096091480970910B
:1050B0004909452B462B472B09F480E080830E9449
:1050C000B218F801EF57FD4F81E040914A09509125
:1050D0004B0960914C0970914D09452B462B472B8C
:1050E00009F480E080830E94B218F801EE57FD4F6A
:1050F00081E040914E0950914F09609150097091A3
:105100005109452B462B472B09F480E080830E94F0
:10511000B218F801ED57FD4F81E020917E083091E3
:105120007F082130310509F080E080830E94B218A9
:10513000F801EC57FD4F81E02091820830918308FF
:105140002130310509F080E080830E94B218F80117
:10515000EB57FD4F81E02091860830918708213080
:10516000310509F080E080830E94B21880914608E2
:1051700090914708A0914808B0914908F801EA5772
:10518000FD4F80839183A283B3830E94B2188091E4
:105190004A0890914B08A0914C08B0914D08F80135
:1051A000E657FD4F80839183A283B3830E94B21898
:1051B00080914E0890914F08A0915008B0915108ED
:1051C000F801E257FD4F80839183A283B3830E944D
:1051D000B218F801EF58FD4F81E040915608509108
:1051E00057086091580870915908452B462B472B5A
:1051F00009F480E080830E94B218F801EE58FD4F58
:1052000081E040915A0850915B0860915C08709170
:105210005D08452B462B472B09F480E080830E94D4
:10522000B218F801ED58FD4F81E040915E085091B1
:105230005F086091600870916108452B462B472BF1
:1052400009F480E080830E94B21880914E0A909108
:105250004F0AA091500AB091510AF801EE59FD4F42
:1052600080839183A283B3830E94B2188091520AF3
:105270009091530AA091540AB091550AF801EA5945
:10528000FD4F80839183A283B3830E94B2188091E3
:10529000560A9091570AA091580AB091590AF801FC
:1052A000E659FD4F80839183A283B3830E94B21895
:1052B000F801EC58FD4F81E02091AE083091AF0825
:1052C0002130310509F080E08083F801EB58FD4F73
:1052D0001082319610820E94B218F801E958FD4FF1
:1052E00081E02091AA083091AB082130310509F006
:1052F00080E08083F801E858FD4F108231961082DB
:105300000E94B218F801E658FD4F81E02091CE08C6
:105310003091CF082130310509F080E080830E9470
:10532000B218F801E558FD4F81E02091D208309184
:10533000D3082130310509F080E080830E94B21843
:10534000F801E458FD4F81E02091D6083091D7084C
:105350002130310509F080E080830E94B218F80105
:10536000E259FD4F81E020915E0A30915F0A2130C1
:10537000310509F080E080830E94B218F801E159FC
:10538000FD4F81E02091620A3091630A213031059E
:1053900009F080E080830E94B218F801E059FD4FC7
:1053A00081E02091660A3091670A2130310509F0C9
:1053B00080E080830E94B21838012EE6621A2DEF39
:1053C000720A8091F6089091F708A091F808B091C0
:1053D000F908F30180839183A283B3830E94B218FA
:1053E0005801FAE6AF1AFDEFBF0A8091FA089091D2
:1053F000FB08A091FC08B091FD08F5018083918322
:10540000A283B3830E94B2188091FE089091FF0896
:10541000A0910009B0910109980126563D4FF9016C
:1054200080839183A283B383F301408151816281A0
:105430007381141615061606170644F041E050E075
:1054400060E070E04083518362837383F5014081A3
:10545000518162817381141615061606170644F0F1
:1054600041E050E060E070E04083518362837383E9
:10547000181619061A061B064CF081E090E0A0E011
:10548000B0E0F90180839183A283B383D901CD90E9
:10549000DD90ED90FC90F50180809180A280B3803A
:1054A000D3014D905D906D907C900E94B307FC01FC
:1054B000408251826282738284829582A682B78200
:1054C000C086D186E286F386F801E259FD4FB081AD
:1054D000B9833C9780819181A281B3818A8B9B8B18
:1054E000AC8BBD8B789690819E83399630803F97A8
:1054F000A081AA87339620803996B081BF873397E1
:1055000020812B877E973081F3972081E65AFF4FC9
:105510004081518162817381F397C080D180E280A4
:10552000F3803C9780809180A280B3803C9740803C
:105530005180628073803C9780819181A281B38188
:10554000F80186A797A7A0ABB1AB42AA53AA64AA59
:1055500075AA86AA97AAA0AEB1AEC2AED3AEE4AE8B
:10556000F5AEFE9640835183628373833496208325
:10557000319630832B85F80123A78F8584A735A624
:10558000EA5BFF4F80E490E0A0E0B0E0808391838D
:10559000A283B3833297208231969A859083359681
:1055A000AE81A08331968A899B89AC89BD8980832D
:1055B0009183A283B383349699819083E05EFD4FFB
:1055C000A081A983399780819181A281B3818E8343
:1055D0009F83A887B987759690819A873996A0810D
:1055E000AA833F97B081BB87339620812F87399656
:1055F0002080339730807E973081F3972081E35A63
:10560000FF4F80819181A281B381F39740815181C5
:10561000628173813C97C080D180E280F3803C97A7
:1056200080809180A280B380EF5AF140F98BE88BA3
:10563000ED55FE4F4080518062807380E889F98982
:10564000468E578E60A271A282A293A2A4A2B5A296
:10565000C6A2D7A2E0A6F1A642A753A764A775A742
:1056600086A797A7A0ABB1AB22AB33AB338E248E0A
:105670002A81258F80E490E0A0E0B0E086AB97AB74
:10568000A0AFB1AF2F8524AB8B8585AB9A8592AF48
:105690008E819F81A885B98583AF94AFA5AFB6AF42
:1056A000298127AFF801E059FD4F80818983369722
:1056B00080819181A281B3818E839F83A887B987DE
:1056C000729690819A87399630803F97A081AA83FD
:1056D000339620803996C0803397D0807E97308172
:1056E000F3972081E05AFF4F80819181A281B3819D
:1056F0008B879C87AD87BE87F39780819181A2813C
:10570000B3813C9740815181628173813C97808055
:105710009180A280B3807801E0EFEE1AEEEFFE0AEE
:10572000F801E95CFD4F4080518062807380F70191
:10573000468E578E60A271A282A293A2A4A2B5A2A5
:1057400046A357A360A771A782A793A7A4A7B5A74D
:105750008B859C85AD85BE8586A797A7A0ABB1AB91
:1057600022AB33ABD38EC48E358E80E490E0A0E0C4
:10577000B0E086AB97ABA0AFB1AF24AA2A8125AB2E
:105780008A8582AF8E819F81A885B98583AF94AFCA
:10579000A5AFB6AF298127AF680180E1C80ED11C43
:1057A000C6010E947031888999890E947031C701B1
:1057B0000E9470310E94B218A0905E09B0905F09FB
:1057C0000E94B21880906E0990906F090E94B218E2
:1057D0002091860930918709A401B501C6010E9474
:1057E0006C2F0E94B218A0906209B09063090E94C9
:1057F000B21880907209909073090E94B21820919B
:105800008A0930918B09A401B501888999890E9480
:105810006C2F0E94B218A0906609B09067090E9490
:10582000B21880907609909077090E94B218209162
:105830008E0930918F09A401B501C7010E946C2F18
:10584000F801EF58FD4F8081882321F0C6010E94A6
:10585000551A03C0C6010E94411AF801EE58FD4FC7
:105860008081882329F0888999890E94551A04C06B
:10587000888999890E94411AF801ED58FD4F80816D
:105880008823D9F0C70165960FB6F894DEBF0FBE26
:10589000CDBFDF91CF911F910F91FF90EF90DF90DF
:1058A000CF90BF90AF909F908F907F906F905F90C0
:1058B0004F903F902F900C94551AC70165960FB6E4
:1058C000F894DEBF0FBECDBFDF91CF911F910F9136
:1058D000FF90EF90DF90CF90BF90AF909F908F9010
:1058E0007F906F905F904F903F902F900C94411A53
:1058F0008F929F92CF92DF92EF92FF920F931F931E
:10590000CF93DF93CDB7DEB7D4018C91882399F183
:10591000780169018B01FB0180819181DC01ED91AE
:10592000FC910084F185E02D19950C5B1F4F90FFD1
:1059300018C020E030E040E85FE3F601608171814B
:10594000828193810E945A5AD6016D937D938D93E3
:105950009C931397F70180819181A281B381F80113
:1059600006C0F80180819181A281B381F701808313
:105970009183A283B383DF91CF911F910F91FF9009
:10598000EF90DF90CF909F908F9008952F923F924D
:105990004F925F926F927F928F929F92AF92BF923F
:1059A000CF92DF92EF92FF920F931F93CF93DF93EB
:1059B000CDB7DEB762970FB6F894DEBF0FBECDBF8E
:1059C000FC013C012CE4620E711CD3012C918A591C
:1059D0009F4FBF0169597F4FAF014C5B5F4F2A0159
:1059E0004C5F5F4F222339F022A9DC012C9381E028
:1059F000DB018C9328C0D2018D909D90AD90BC901E
:105A0000DA01CD90DD90ED90FC9021E08C149D04A6
:105A1000AE04BF040CF020E0DC012C93940197FE4F
:105A200004C02227332728193909C601D7FE04C02C
:105A3000882799278C199D0911E0281739070CF43C
:105A400010E0DB011C93D201CD90DD90ED90FC9035
:105A5000C114D104E104F10461F402A113A124A151
:105A600035A1DF01AF59BF4F0D931D932D933C938B
:105A70001397DA018D919D910D90BC91A02D8D878A
:105A80009E87AF87B88B9F01205C3F4FD9014D9116
:105A90005D916D917C918D859E85AF85B889481704
:105AA00059076A077B0734F4C816D906EA06FB06CD
:105AB0007CF413C08D859E85AF85B88984179507C2
:105AC000A607B7072CF48C159D05AE05BF052CF075
:105AD000D3012C91222309F454C182A493A4A4A439
