:100000000C9488040C94B9040C94B9040C94B904AD
:100010000C94B9040C94B9040C94B9040C94B9046C
:100020000C94B9040C946E1F0C946E1F0C946E1FEC
:100030000C94B9040C94B9040C94B9040C94B9044C
:100040000C94B9040C94DA450C94B9040C94B904DA
:100050000C94DA370C94B9040C94B9040C94B2469D
:100060000C94B9040C940F440C94E5430C94B9041B
:100070000C94B9040C94B9040C94B9040C94B9040C
:100080000C94AC450C94B9040C94B9040C94B904C8
:100090000C94B9040C94B9040C94B9040C94B904EC
:1000A0000C94B9040C94B9040C947E450C94B904D6
:1000B0000C94B9040C94B9040C94B9040C945045F4
:1000C0000C94B9040C94B9040C94B9040C94B904BC
:1000D0000C94B9040C94B9040C94B9040C94B904AC
:1000E0000C94B904051312131B13241331133A1380
:1000F0003F173F173F173F173F174713541361131D
:100100003F176E13771380138D1396139F13A81345
:10011000B113BA133F17C313CC13D5133F173F17AF
:100120003F17DE13E713F0133F173F17F9130614B9
:100130003F173F173F17131420142D143F173A147D
:1001400043144C143F173F173F1755145E146714A0
:100150003F17741481148E143F173F173F179B14D9
:10016000A814B5143F17C214CF14DC143F173F175F
:100170003F17E914F61403153F171015191522152A
:100180003F173F173F174615531560153F176D155D
:100190007A1587153F173F173F1794159D15A6151C
:1001A0003F173F173F173F173F173F173F17AF1531
:1001B000B815C1153F17CA15D315DC153F173F17E2
:1001C0003F17E515F215FF153F170C1619162616E1
:1001D0003F173F173F17331640164D163F175A1655
:1001E00063166C163F173F173F1775167E16871656
:1001F0003F173F173F173F173F173F173F173F174F
:100200003F173F173F172B1534153D153F173F1765
:100210003F173F173F173F173F173F173F173F172E
:100220003F173F173F173F173F173F173F173F171E
:100230003F173F173F173F173F173F173F173F170E
:100240003F173F173F173F173F173F173F173F17FE
:100250003F173F173F173F173F173F173F173F17EE
:100260003F173F173F173F173F173F173F173F17DE
:100270003F173F173F1790169916A6163F17B3164C
:10028000BC16C9163F173F173F17D616DF16EC16D8
:100290003F17F91602170F173F173F173F171C1785
:1002A00025173217281C2B1C1A1C1E1C241C621C10
:1002B0002F1C331C391C3D1C411C471C4B1C4F1C64
:1002C000621C551C591C5D1C29392E3933393D39A6
:1002D0004739C0395139593961396B3975397F39E5
:1002E0008E399839C039A239AC39B6390C94F8171F
:1002F0000C946E060C942D140C9424050C94CB26AF
:100300000C941A050C94411C0C9451390C94C0396E
:100310000C949B140C94AC390C9472350C942E39BB
:100320000C942D060C94471C0C941A1C0C941E055E
:100330000C9453150C944F1C0C9466060C941B13D0
:100340000C9496130C9470060C9418350C94A81405
:100350000C9463160C9459390C9458370C946C0611
:100360000C9499160C94551C0C9481140C94A6169C
:100370000C948E140C9410080C94C9260C948716B7
:100380000C9420210C94050A0C943A140C944321EB
:100390000C94A9410C940D180C942C180C94C8269C
:1003A0000C9413140C94CE260C94BE520C9412137D
:1003B0000C9433390C9454130C9406140C948D1330
:1003C0000C9422150C946E050C9402170C941605CF
:1003D0000C944C140C9467140C945D1C0C946015D4
:1003E0000C945F050C9481210C94C3130C949D15FF
:1003F0000C942E350C9429390C946A060C947A15B9
:100400000C944C170C94B5140C9420050C94C11545
:100410000C9410150C9475160C941C050C947141D9
:100420000C9452370C944B210C94F4050C947206E6
:100430000C9480130C9490160C9446150C942A0579
:100440000C9431130C9477130C94D6160C94CC1393
:100450000C9401350C9461130C9467060C942B1CBE
:100460000C94010B0C9401080C94BA130C942517EE
:100470000C9452210C94CF140C943B210C94142610
:100480000C94E9140C9498390C9448370C94F0139C
:100490000C9412410C94AF150C9403150C9419157F
:1004A0000C9433160C941E1C0C9435370C943F217D
:1004B0000C9447390C9449210C9475390C944005DF
:1004C0000C940F170C94CA260C9428050C94A2398E
:1004D0000C945E140C948E390C943D390C946D156B
:1004E0000C944D160C9461390C94591C0C94BB055A
:1004F0000C9487150C943A370C94D0260C94472111
:100500000C94B8150C9422050C9422180C94CD264A
:100510000C9441210C94DF160C943D1C0C94241C6B
:100520000C9405130C94D5130C9419160C94621C9E
:100530000C944B170C943A130C943F170C941C1703
:100540000C94A8130C9455140C94B3160C942F1CF3
:100550000C94DC150C946F060C941D210C94281C33
:100560000C9431180C94D3150C94E7130C946B066F
:100570000C94D8040C9463410C9445210C94F934E8
:100580000C942B150C94CF260C94F2150C94BC16DD
:100590000C948E350C940C160C940A090C942E05B0
:1005A0000C9471060C94CA150C944B1C0C94B6391F
:1005B0000C9427180C945A160C9426160C946B392C
:1005C0000C94F9160C9468250C94C9160C94EC162E
:1005D0000C947E160C946D060C9468060C945035A1
:1005E0000C94CC260C9440410C9424130C94331C92
:1005F0000C9443140C94F6140C9440160C947F390C
:100600000C94391C0C94F6410C9437210C947026F0
:100610000C9418050C94B1130C944F410C94FF15D5
:100620000C9447130C943D210C949F130C94941537
:100630000C942C050C943F370C943D150C94DC1451
:100640000C946C160C9420140C9426050C94321700
:100650000C94C2140C9430050C9434150C9439216C
:100660000C94BB040C94DE130C94A6150C94690630
:100670000C9421360C94E5150C94F9130C94741415
:100680000C946E130C94C7264E414E494E49545952
:10069000494E46CDCCCC3D0AD7233C17B7D138774D
:1006A000CC2B329595E6241FB14F0A000020410063
:1006B00000C84200401C4620BCBE4CCA1B0E5AAEAD
:1006C000C59D7400407A10F35A00A0724E180900BC
:1006D00010A5D4E80000E87648170000E40B5402A7
:1006E0000000CA9A3B000000E1F5050000809698E2
:1006F00000000040420F000000A086010000001032
:100700002700000000E80300000000640000000073
:10071000000A00000000000100000000002C76D854
:1007200088DC674F0823DFC1DFAE59E1B1B796E53A
:10073000E3E453C63AE651997696E8E6C28426EB9E
:10074000898C9B62ED407C6FFCEFBC9C9F40F2BAB1
:10075000A56FA5F490055A2AF75C936B6CF9676D49
:10076000C11BFCE0E40D47FEF520E6B500D0ED909E
:100770002E0300943577050080841E080000204E6B
:100780000A000000C80C333333330F986E12831104
:1007900041EF8D2114893BE65516CFFEE6DB18D1DB
:1007A000844B381BF77C1D901DA4BBE424203284AD
:1007B000725E228100C9F124ECA1E53D27000021F1
:1007C00000240027002A002D003000330001010022
:1007D00000040107010A0100000A0B02090C0D0EBA
:1007E00008070304010000000000000000000000F2
:1007F00000000000000000000000000000000000F9
:1008000000000012111000000000000000000000B5
:1008100000000000000000000000000000000000D8
:1008200000000000000000000000000000010210B5
:1008300020200808102040102040800201020108FA
:1008400004020101020408102040808040201008AA
:100850000402018004020180402010080402010803
:100860000402010102040810204080010204081063
:100870002040801008040880102040044080102090
:10088000400480000020002300260029002C002FB7
:1008900000320000010000030106010901000022EE
:1008A00000250028002B002E00310034000201003A
:1008B00000050108010B01050505050705080808E5
:1008C00008020202020A0A080804040404010101E1
:1008D00001010101010303030303030303040707E9
:1008E000070C0C0C0C0C0C0C0C0202020206060687
:1008F00006060606060B0B0B0B0B0B0B0B07070A6A
:100900000A0A0A0A0A050505040404080800BE527A
:1009100011241FBECFEFD1E2DEBFCDBF00E00CBF80
:1009200018E0A0E0B2E0E6EAF9EB00E00BBF02C09D
:1009300007900D92AA31B107D9F72EE0AAE1B8E0ED
:1009400001C01D92A43FB207E1F714E0C8E8D4E06B
:1009500000E006C021970109802FFE010E94A75ADE
:10096000C738D10780E00807A9F70E94FC460C941D
:10097000D15C0C940000EF92FF920F931F93CF93E2
:10098000DF93FB01E2A8F3A802A113A1C68DD78DC6
:100990000E94CD399701A801BE010E94E63880E08F
:1009A00090E0DF91CF911F910F91FF90EF9008950C
:1009B0004F925F926F927F92AF92BF92CF92DF92EF
:1009C000EF92FF920F931F93CF93DF93FB01E2A867
:1009D000F3A846A457A460A871A8C6A0D7A0A2A057
:1009E000B3A0068D178D0E94CD39EC019701A501AA
:1009F000B8010E94E638C301B2010E94E3209701CA
:100A0000A601B801CE010E94E63880E090E0DF91B7
:100A1000CF911F910F91FF90EF90DF90CF90BF90FB
:100A2000AF907F906F905F904F9008950C94FD531E
:100A30000C94FD530C94FD530C94FD530C94FD53F6
:100A40000C94FD530C94FD530C94FD530C94FD53E6
:100A50000C94FD530C94FD530C94FD530C94FD53D6
:100A6000CF93DF93FB01D2A9C68D0E94CD396D2FA4
:100A70008C2F0E94D41F80E090E0DF91CF910895E9
:100A80000F931F93CF93DF93FB0102A913A9C68D88
:100A9000D78D0E94CD39A801BE010E947A3880E02E
:100AA00090E0DF91CF911F910F910895662319F087
:100AB0008AE794E002C083E794E00C94B61CCF93DD
:100AC000DF93FB01C68DD78D0E94D218BE010E9414
:100AD000731880E090E0DF91CF910895CF92DF927C
:100AE000EF92FF920F931F93CF93DF93FB01C2A06E
:100AF000D3A0E4A0F5A0068D178D0E94D218EC01BA
:100B00008A819B818F30F7E29F0724F401969B83B3
:100B10008A8302C01B821A82B801CE010E94353A34
:100B20008823B1F0F801EE0FFF1FEE0FFF1FEE5DFF
:100B3000F74FC082D182E282F382A7019601B80109
:100B4000CE010E943618B801CE010E94731804C06D
:100B50008DE695E00E94B61C0E944D380E94183820
:100B600080E090E0DF91CF911F910F91FF90EF9087
:100B7000DF90CF9008958F929F92AF92BF92CF92C5
:100B8000DF92EF92FF920F931F930E944E2562E037
:100B900070E00E94DD3A892BD1F40E944E2521E0BD
:100BA0002F931F921F921F921F92812C912CA12C88
:100BB000B12CC12CD12C760197018601B701A60179
:100BC0000E94550B0F900F900F900F900F9080E0A8
:100BD00090E01F910F91FF90EF90DF90CF90BF902A
:100BE000AF909F908F9008958F929F92AF92BF92F7
:100BF000CF92DF92EF92FF920F931F930E944E25A8
:100C000061E070E00E94DD3A892BD1F40E944E250C
:100C10001F9221E02F931F921F921F92812C912CE3
:100C2000A12CB12CC12CD12C760197018601B701E2
:100C3000A6010E94550B0F900F900F900F900F90F0
:100C400080E090E01F910F91FF90EF90DF90CF90A8
:100C5000BF90AF909F908F9008958F929F92AF9288
:100C6000BF92CF92DF92EF92FF920F931F930E9459
:100C70004E2560E070E00E94DD3A892BD1F40E949D
:100C80004E251F921F9221E02F931F921F92812CBD
:100C9000912CA12CB12CC12CD12C7601970186016D
:100CA000B701A6010E94550B0F900F900F900F9067
:100CB0000F9080E090E01F910F91FF90EF90DF90F8
:100CC000CF90BF90AF909F908F9008950895089512
:100CD000089508950895089508950895089508952C
:100CE000089508950895EF92FF920F931F93CF9365
:100CF000DF93CDB7DEB72E970FB6F894DEBF0FBEE9
:100D0000CDBF8C010E94E91C6FE875E0C8010E940C
:100D1000CF4360911E0870911F0880912008909128
:100D200021082AE0AE014F5F5F4F7A010E94C05454
:100D3000F70101900020E9F73197AF014E195F09E3
:100D4000B701C8010E9441436EEE74E0C8010E94E1
:100D5000CF43C8012E960FB6F894DEBF0FBECDBFAD
:100D6000DF91CF911F910F91FF90EF9008958FE841
:100D700095E00E94B61C60911E0870911F0880913A
:100D80002008909121080E94171D8EEE94E00C948B
:100D9000B61C0F931F93CF93DF93EC0182E995E08C
:100DA0000E94B61C86E995E00E94B61C0BEA1CE086
:100DB000F8016081CE010E9456058AE995E00E9403
:100DC000B61CF8016181CE010E9456058EE995E0BE
:100DD0000E94B61CF8016281CE010E94560582EA8B
:100DE00095E00E94B61CF8016381CE010E94560571
:100DF00086EA95E00E94B61CF8016481CE010E944B
:100E000056058AEA95E00E94B61CF8016581CE017C
:100E10000E945605CE01DF91CF911F910F910C9446
:100E2000B706CF92DF92EF92FF92CF93DF93EC0160
:100E300088819981AA81BB81181619061A061B069A
:100E400044F081E090E0A0E0B0E088839983AA8339
:100E5000BB838C819D81AE81BF81181619061A064D
:100E60001B0644F081E090E0A0E0B0E08C839D831D
:100E7000AE83BF8388859985AA85BB851816190618
:100E80001A061B0644F081E090E0A0E0B0E08887FD
:100E90009987AA87BB878EEA95E00E94B61C8CEDE5
:100EA00096E00E94B61C6091CC0E7091CD0E8091A0
:100EB000CE0E9091CF0E0E94EE586B017C0168819E
:100EC00079818A819B810E94EE589B01AC01C70108
:100ED000B6010E941C5B42E00E94411D8CEE96E030
:100EE0000E94B61C6091D00E7091D10E8091D20EEE
:100EF0009091D30E0E94EE586B017C016C817D8134
:100F00008E819F810E94EE589B01AC01C701B60102
:100F10000E941C5B42E00E94411D8CEF96E00E9403
:100F2000B61C6091D40E7091D50E8091D60E909122
:100F3000D70E0E94EE586B017C01688579858A8501
:100F40009B850E94EE589B01AC01C701B6010E942F
:100F50001C5B42E00E94411DCE01DF91CF91FF90CA
:100F6000EF90DF90CF900C94B7068091A90C9091F0
:100F7000AA0C892B09F040C08FE090E00E946553D5
:100F8000FC0181E090E0A0E0B0E080839183A28347
:100F9000B38384839583A683B78380879187A28751
:100FA000B3871586148616861092CC0E1092CD0E3D
:100FB0001092CE0E1092CF0E1092D00E1092D10E33
:100FC0001092D20E1092D30E1092D40E1092D50E13
:100FD0001092D60E1092D70E10921E0810921F0873
:100FE000109220081092210810921D0810921C08DF
:100FF000F093AA0CE093A90C8091A90C9091AA0CF3
:1010000008950E94D2180E94B61882EB95E00E94C3
:10101000B61C0E94B5070E94B70680E090E00895D4
:101020002F923F924F925F926F927F928F929F92F8
:10103000AF92BF92CF92DF92EF92FF920F931F93E6
:10104000CF93DF93CDB7DEB72A970FB6F894DEBF04
:101050000FBECDBF0E94D2188091EE089091EF088C
:10106000019729F486EF9FEF9E838D8304C0AAE049
:10107000B0E0BE83AD830E94B5076091CC0E709145
:10108000CD0E8091CE0E9091CF0E0E94EE586B0146
:101090007C010E94D2186091FE087091FF08809137
:1010A0000009909101090E94EE589B01AC01C70113
:1010B000B6010E941C5B69837A838B839C830E94A8
:1010C000B5076091D00E7091D10E8091D20E9091A3
:1010D000D30E0E94EE586B017C010E94D2186091E1
:1010E00002097091030980910409909105090E94F9
:1010F000EE589B01AC01C701B6010E941C5B2B019D
:101100003C01212C312C8D819E81092E000CAA0BD3
:10111000BB0B8D839E83AF83B88791E02916310482
:1011200049F0A2E02A16310419F10E944E25B1E0DF
:10113000BF9322C00E944E259A8789876D817E8148
:101140008F8198850E94EE586B017C011F921F923F
:101150001F921F921F92812C912CA12CB12C9301D4
:10116000820149815A816B817C8189859A8515C06C
:101170000E944E25E1E0EF931F921F921F921F9253
:10118000812C912CA12CB12CC12CD12C7601930156
:10119000820149815A816B817C810E94550B0F909D
:1011A0000F900F900F900F900E94B50780911C0830
:1011B00090911D089A8789870E94B507DC011E96C9
:1011C0008C9181110CC0E985FA85EF2B41F4FFEF7A
:1011D0002F1A3F0A23E02216310409F09ECF80E047
:1011E00090E02A960FB6F894DEBF0FBECDBFDF9118
:1011F000CF911F910F91FF90EF90DF90CF90BF9014
:10120000AF909F908F907F906F905F904F903F90A6
:101210002F9008952F923F924F925F926F927F92FC
:101220008F929F92AF92BF92CF92DF92EF92FF92F6
:101230000F931F93CF93DF93CDB7DEB72A970FB6E7
:10124000F894DEBF0FBECDBF0E94D2188091EE0889
:101250009091EF08019729F486EF9FEF9E838D838D
:1012600004C0AAE0B0E0BE83AD830E94B5076091E0
:10127000CC0E7091CD0E8091CE0E9091CF0E0E942B
:10128000EE582B013C010E94D2186091FE0870912B
:10129000FF0880910009909101090E94EE589B017E
:1012A000AC01C301B2010E941C5B69837A838B830A
:1012B0009C830E94B5076091D40E7091D50E8091E9
:1012C000D60E9091D70E0E94EE582B013C010E9441
:1012D000D2186091060970910709809108099091D0
:1012E00009090E94EE589B01AC01C301B2010E94A2
:1012F0001C5B2B013C01212C312C8D819E81092E00
:10130000000CAA0BBB0B8D839E83AF83B88791E043
:101310002916310451F0A2E02A16310421F10E946D
:101320004E251F92B1E0BF9323C00E944E259A879D
:1013300089876D817E818F8198850E94EE588B010F
:101340009C011F921F921F921F921F92812C912C21
:10135000A12CB12C7301620149815A816B817C817E
:1013600089859A8515C00E944E251F92E1E0EF9372
:101370001F921F921F92812C912CA12CB12C7301D2
:10138000620100E010E0980149815A816B817C8103
:101390000E94550B0F900F900F900F900F900E948E
:1013A000B50780911C0890911D089A8789870E9433
:1013B000B507DC011E968C9181110CC0E985FA8578
:1013C000EF2B41F4FFEF2F1A3F0A23E022163104DE
:1013D00009F09DCF80E090E02A960FB6F894DEBF2A
:1013E0000FBECDBFDF91CF911F910F91FF90EF9076
:1013F000DF90CF90BF90AF909F908F907F906F9035
:101400005F904F903F902F9008952F923F924F9270
:101410005F926F927F928F929F92AF92BF92CF9284
:10142000DF92EF92FF920F931F93CF93DF93CDB78D
:10143000DEB72A970FB6F894DEBF0FBECDBF0E946D
:10144000D2188091EE089091EF08019729F486EF69
:101450009FEF9E838D8304C0AAE0B0E0BE83AD837E
:101460000E94B5076091D00E7091D10E8091D20E7E
:101470009091D30E0E94EE582B013C010E94D2188D
:101480006091020970910309809104099091050906
:101490000E94EE589B01AC01C301B2010E941C5B8B
:1014A00069837A838B839C830E94B5076091D40EF5
:1014B0007091D50E8091D60E9091D70E0E94EE5865
:1014C0002B013C010E94D218609106097091070916
:1014D00080910809909109090E94EE589B01AC0186
:1014E000C301B2010E941C5B2B013C01212C312C59
:1014F0008D819E81092E000CAA0BBB0B8D839E83D0
:10150000AF83B88791E02916310459F0A2E02A167A
:10151000310429F10E944E251F921F92B1E0BF9322
:1015200024C00E944E259A8789876D817E818F8194
:1015300098850E94EE58AB01BC011F921F921F922A
:101540001F921F92812C912CA12CB12C730162014E
:1015500009811A812B813C8189859A8515C00E9459
:101560004E251F921F92E1E0EF931F921F92812C54
:10157000912CA12CB12C7301620109811A812B815C
:101580003C8140E050E0BA010E94550B0F900F9053
:101590000F900F900F900E94B50780911C089091BA
:1015A0001D089A8789870E94B507DC011E968C91D9
:1015B00081110CC0E985FA85EF2B41F4FFEF2F1A5A
:1015C0003F0A23E02216310409F09CCF80E090E02E
:1015D0002A960FB6F894DEBF0FBECDBFDF91CF9134
:1015E0001F910F91FF90EF90DF90CF90BF90AF9041
:1015F0009F908F907F906F905F904F903F902F9033
:1016000008950E94B507FC01168680E090E00895D9
:10161000CF93DF938FE30E94781FEC010E94B50700
:1016200081E0CD2B09F480E08093AB0C80E40E9434
:10163000781FEC010E94B50781E0CD2B09F480E012
:101640008093AC0C8EE00E94781FEC010E94B507DD
:1016500081E0CD2B09F480E08093AD0C8FE00E94F7
:10166000781FEC010E94B50781E0CD2B09F480E0E2
:101670008093AE0C8CE00E94781FEC010E94B507AD
:1016800081E0CD2B09F480E08093AF0C89E00E94CB
:10169000781FEC010E94B50781E0CD2B09F480E0B2
:1016A0008093B00CDF91CF9108952F923F924F928B
:1016B0005F926F927F928F929F92AF92BF92CF92E2
:1016C000DF92EF92FF920F931F93CF93DF93CDB7EB
:1016D000DEB7E1970FB6F894DEBF0FBECDBF3C0179
:1016E0004F83588769877A87098B1A8B2B8B3C8BA2
:1016F000CD8ADE8AEF8AF88E29960EAD1FAD299726
:101700000E94A6466E8F7F8F88A399A30E94A6464B
:10171000698F7A8F8B8F9C8FF301EC5DFD4F118267
:1017200010823B96A114B10479F0C501A0E0B0E0AD
:10173000408151816281738184179507A607B7079D
:101740002CF4AC01BD0102C040815181F301ED5C7C
:10175000FD4F8114910479F0A12CB12C80819181ED
:10176000A281B38188169906AA06BB0614F4D50196
:10177000C401BC0102C060817181F301E95CFD4FCD
:101780000115110571F020E030E080819181A28186
:10179000B381081719072A073B072CF4D901C801A0
:1017A00002C0808191819301205F3F4F388B2F874A
:1017B0008A0120E030E0F30106A717A720AB31AB88
:1017C0001301F0E92F0E311CAB0160E070E0F10174
:1017D000468F578F60A371A32301F0EF4F1AFEEFDE
:1017E0005F0AA0E0B0E0F201868F978FA0A3B1A3BB
:1017F000E257FE4F108211821282138234961082B9
:101800001182128213823496108211821282138204
:101810003496118210823296118210823296118291
:1018200010820E94B5078091CC0E9091CD0EA091B0
:10183000CE0EB091CF0E4301F0E58F1AFDEF9F0A57
:10184000F40180839183A283B3830E94B5078091C2
:10185000D00E9091D10EA091D20EB091D30EF30183
:10186000EC54FD4F80839183A283B3830E94B5071C
:101870008091D40E9091D50EA091D60EB091D70E36
:10188000F301E854FD4F80839183A283B383530116
:10189000FEE6AF1AFDEFBF0AF5016081718182811A
:1018A00093810E94EE582F81388549855A850E9480
:1018B0004D590E948E5B8B019C01F4014081518146
:1018C000628173812A96EFAC2A978F8598890E944E
:1018D0008A1A8823F1F08BE393E00E94B61C8CED0A
:1018E00096E00E94B61CF301E85AFF4F60817181B7
:1018F00082819381F50120813181428153810E944F
:10190000245ACA01B9010E94171D0E94B5070E94FE
:10191000B7066301FAE6CF1AFDEFDF0AF601608130
:101920007181828193810E94EE5829893A894B897D
:101930005C890E944D590E948E5B8B019C01F301D2
:10194000EC54FD4F40815181628173812B96EFAC45
:101950002B97C1010E948A1A8823F1F087E393E054
:101960000E94B61C8CEE96E00E94B61CF301E85271
:10197000FF4F6081718182819381F60120813181E5
:10198000428153810E94245ACA01B9010E94171D45
:101990000E94B5070E94B7066301F6E6CF1AFDEF75
:1019A000DF0AF60160817181828193810E94EE5885
:1019B0002D893E894F89588D0E944D590E948E5B1A
:1019C0008B019C01F301E854FD4F408151816281FC
:1019D00073812C96EFAC2C97C2010E948A1A88233F
:1019E000F1F083E393E00E94B61C8CEF96E00E9436
:1019F000B61CF301E85AFE4F6081718182819381A8
:101A0000F60120813181428153810E94245ACA010A
:101A1000B9010E94171D0E94B5070E94B706F30185
:101A2000158AEB56FF4F1082E058FF4F1082C3011A
:101A30000E949C32C3010E94A0328F8598890E9427
:101A40004D2FC1010E944D2FC2010E944D2F81E0F8
:101A500090E0F301EA5DFD4F918380837301F8ED1F
:101A6000EF1AFDEFFF0AF701918380838301065D82
:101A70001D4FF8019183808341E050E06F857889A4
:101A8000C3010E94CA24F70140815181B101C30101
:101A90000E94CA24F80140815181B201C3010E9411
:101AA000CA2481E0F301E150FD4F80838F8598893E
:101AB0000E94751AC1010E94751AC2010E94751A0E
:101AC0000E94A646F301FD5F608371838283938346
:101AD00064E670E080E090E00E94E3202A96FFAD8B
:101AE0002A97F1110EC02B962FAD2B97211105C00F
:101AF0002C963FAD2C973323B1F0F301EB58FF4FF9
:101B000010822B964FAD2B97411104C0F301EB507F
:101B1000FF4F10822C965FAD2C97511104C0F3013A
:101B2000EB58FE4F10828F8598890E94D82CC101F6
:101B30000E94D82CC2010E94D82C8F8598890E94BF
:101B40004F1BC1010E944F1BC2010E944F1B0E94EC
:101B5000B507FC0186858D8F18861F8293012B584F
:101B60003F4F3A8B298BA3014B505F4F5E8B4D8BC0
:101B7000C3018B589E4F9E878D87F301EA5DFD4F11
:101B8000FDA3ECA32D543E4F3FA32EA34B5C5E4F11
:101B900059A748A78D5F91099BA38AA3EC54FF4FD7
:101BA000FBA7EAA72A553F4F3DA72CA74B535F4FF2
:101BB0005FA74EA78C5B9D4F99AB88ABE989FA89EB
:101BC000808181110AC0ED89FE898081811105C063
:101BD000ED85FE858081882321F0FD8DFF2309F4AA
:101BE000C6C08301025E1D4FF80180819181892B5F
:101BF00021F0C3010E94B540F7CF81EE95E00E942D
:101C0000B61C2A96FFAD2A97FF23F9F02F8138855D
:101C1000232B09F041C03D8D311124C08FE293E0A8
:101C20000E94B61C0E94B5070E94B7062B964FADC6
:101C30002B97442309F4A9C48BE293E00E94B61CBD
:101C40000E94B5070E94B706A0C42B968FAD2B97B4
:101C5000882369F0EF81F885EF2B19F5FD8DF111DF
:101C600020C0EACF2B963FAD2B9731111AC02C968E
:101C70002FAD2C972223A9F04F815885452B89F44D
:101C80005D8D51110EC087E293E00E94B61C0E9448
:101C9000B5070E94B70605C02B964FAD2B9744237E
:101CA00031F373018AEDE81A8DEFF80A85E090E0D0
:101CB000F701918380835301F8EDAF1AFDEFBF0A5E
:101CC000F501918380838301065D1D4FF8019183A7
:101CD000808345E050E06F857889C3010E94CA2463
:101CE000F50140815181B101C3010E94CA24F8016C
:101CF00040815181B201C3010E94CA24C3010E94E4
:101D0000A432C3010E949C32C3010E94A0320E94EF
:101D1000B5070E941107F70111821082F5011182A7
:101D20001082F8011182108240E050E06F857889BE
:101D3000C3010E94CA24F50140815181B101C30150
:101D40000E94CA24F80140815181B201C3010E945E
:101D5000CA24FD8DFF2309F41FC40E94B50721E0AA
:101D6000FC01268721E030E038872F8315C44CA181
:101D70005DA16F857889C3010E9415254EA15FA1E1
:101D8000B101C3010E94152548A559A5B201C3019F
:101D90000E941525E989FA898081882329F0EAA122
:101DA000FBA180818111DEC1ED89FE8980818823BC
:101DB00049F0930128503F4F3C872B87F9018081E0
:101DC0008111EEC1ED85FE858081882349F0930164
:101DD00028583E4F3C872B87F9018081811108C22A
:101DE000E989FA8980818823D1F1F301E853FD4F15
:101DF00060817181072E000C880B990B0E94EE58B0
:101E00009B01AC01F301E256FD4F6081718182813B
:101E100093810E94C45B181614F5E989FA8910822F
:101E200061EF74E08301065E1D4FC8010E94CF433D
:101E30006AEF75E0C8010E94CF436EEE74E0C801FE
:101E40000E94CF432A96FFAD2A97FF2309F4F8C1D9
:101E5000F301EC5AFF4F1082118212821382ED8936
:101E6000FE8980818823D1F1F301E653FD4F608123
:101E70007181072E000C880B990B0E94EE589B0174
:101E8000AC01F301EE55FD4F608171818281938138
:101E90000E94C45B181614F5ED89FE89108261EF6B
:101EA00074E08301065E1D4FC8010E94CF4362E2C9
:101EB00076E0C8010E94CF436EEE74E0C8010E9434
:101EC000CF432B96FFAD2B97FF2309F4BEC1F3013F
:101ED000EC52FF4F1082118212821382ED85FE8533
:101EE00080818823D1F1F301E453FD4F608171813A
:101EF000072E000C880B990B0E94EE589B01AC0139
:101F0000F301EA55FD4F60817181828193810E94C6
:101F1000C45B181614F5ED85FE85108261EF74E040
:101F20008301065E1D4FC8010E94CF436AE476E03C
:101F3000C8010E94CF436EEE74E0C8010E94CF43F7
:101F40002C96FFAD2C97FF2309F484C1F301EC5AC2
:101F5000FE4F1082118212821382F301EA58FF4F62
:101F600060818F8598890E94FD1A882351F0F301C2
:101F7000EC5AFF4F1082118212821382E989FA898A
:101F80001082F301EA50FF4F6081C1010E94FD1AE7
:101F9000882351F0F301EC52FF4F1082118212821C
:101FA0001382ED89FE891082F301EA58FE4F6081A9
:101FB000C2010E94FD1A882351F0F301EC5AFE4F32
:101FC0001082118212821382ED85FE851082C30178
:101FD0000E94A432C3010E949C32E989FA8980815F
:101FE0008823E9F00E94A6466B017C012E8D3F8D6F
:101FF00048A159A1C21AD30AE40AF50AF301EA5723
:10200000FD4F2081318142815381A8EEB3E00E94CF
:10201000435A6C157D058E059F0508F420C1ED8996
:10202000FE8980818823E9F00E94A6466B017C012D
:102030002E8D3F8D48A159A1C21AD30AE40AF50A90
:10204000F301E657FD4F2081318142815381A8EE93
:10205000B3E00E94435A6C157D058E059F0508F478
:1020600018C1ED85FE8580818823E9F00E94A6468F
:102070006B017C012E8D3F8D48A159A1C21AD30A54
:10208000E40AF50AF301E257FD4F208131814281D4
:102090005381A8EEB3E00E94435A6C157D058E056E
:1020A0009F0508F410C10E94A646F301FD5F6083FE
:1020B00071838283938384EB9CE00E9471411816A4
:1020C00019063CF584EB9CE00E944F418F7D8534DE
:1020D0009105F9F466EB75E0C301865E9D4F0E94A1
:1020E000CF4386EA93E00E94B61C0E94B5070E9487
:1020F000B706E989FA891082ED89FE891082ED859B
:10210000FE851082F1E0FD8F21E030E038872F83DB
:1021100004C04F815885452B39F06BEC75E0C30145
:10212000865E9D4F0E94CF43C3010E94B5400E942E
:10213000A646DC01CB01298D3A8D4B8D5C8D821B2F
:10214000930BA40BB50B8B3F9105A105B10508F4CA
:1021500035CDF301E25EFD4F80819181892B09F439
:10216000CCC02CCD8F8598890E94D82C8AA49BA4A2
:10217000ACA4BDA4CEA4DFA4E8A8F9A883010055AF
:102180001D4F930122563D4FA30140575E4F6F856F
:102190007889C3010E948A2CEAA1FBA1108204CE97
:1021A000C1010E94D82C4301F5E28F1AFDEF9F0A6E
:1021B00053012EE2A21A2DEFB20A63013FE0C31AC7
:1021C0003DEFD30A730140E4E41A4DEFF40A8301B2
:1021D0000C541D4F93012E553D4FA30142545E4FA9
:1021E000B101C3010E948A2CEB85FC851082EACDE7
:1021F000C2010E94D82C4301F4E28F1AFDEF9F0A1E
:1022000053012AE2A21A2DEFB20A63013DE0C31A7C
:102210003DEFD30A73014CE3E41A4DEFF40A830156
:1022200008541D4F93012A553D4FA30144515E4F61
:10223000B201C3010E948A2CEB85FC851082D0CDAF
:102240002FE130E038872F830ACE20E230E0388754
:102250002F8344CE21E230E038872F837ECEE98978
:10226000FA89108262EB73E08301065E1D4FC8019C
:102270000E94CF436EEE74E0C8010E94CF4362E734
:1022800076E0C8010E94CF4322E030E038872F83F8
:10229000C6CEED89FE8910826EEA73E08301065E88
:1022A0001D4FC8010E94CF436EEE74E0C8010E942A
:1022B000CF4367E876E0C8010E94CF4322E030E0D8
:1022C00038872F83CECEED85FE8510826AEA73E0D3
:1022D0008301065E1D4FC8010E94CF436EEE74E07D
:1022E000C8010E94CF436CE976E0C8010E94CF4349
:1022F00022E030E038872F83D6CEF301EC5DFD4F2E
:10230000808191818130910509F0F0C00E94B5076C
:102310008C01FC0180819181A281B381181619067C
:102320001A061B0644F081E090E0A0E0B0E0808354
:102330009183A283B383F80184819581A681B781BB
:10234000181619061A061B0644F081E090E0A0E07A
:10235000B0E084839583A683B783F8018085918557
:10236000A285B385181619061A061B0644F081E0EB
:1023700090E0A0E0B0E080879187A287B387CE018C
:1023800001960E94E91C6EEA75E0CE0101960E945A
:10239000CF436CED76E0CE0101960E94CF43609171
:1023A000CC0E7091CD0E8091CE0E9091CF0E0E94EA
:1023B000EE586B017C01F80160817181828193810B
:1023C0000E94EE589B01AC01C701B6010E941C5B44
:1023D000AB01BC01CE0101960E94B81C6CEE76E008
:1023E000CE0101960E94CF436091D00E7091D10E24
:1023F0008091D20E9091D30E0E94EE586B017C0119
:10240000F80164817581868197810E94EE589B0155
:10241000AC01C701B6010E941C5BAB01BC01CE013F
:1024200001960E94B81C6CEF76E0CE0101960E94E6
:10243000CF436091D40E7091D50E8091D60E9091BD
:10244000D70E0E94EE586B017C01F8016085718502
:10245000828593850E94EE589B01AC01C701B601AD
:102460000E941C5BAB01BC01CE0101960E94B81C0E
:10247000BE016F5F7F4F8301065E1D4FC8010E9442
:10248000DE4389819A810E94FD530AC0892BC9F4D9
:1024900062EA73E08301065E1D4FC8010E94CF43CC
:1024A0000E94B507BC01CE0101960E947306BE01D1
:1024B0006F5F7F4FC8010E94DE4389819A810E942D
:1024C000FD53F301EC5DFD4F8081918101968330D6
:1024D00091051CF49183808302C0118210820E94B6
:1024E000A646698F7A8F8B8F9C8F68CB823091053F
:1024F00069F667ED75E08301065E1D4FC8010E9415
:10250000CF436BED75E0C8010E94CF4360E070E0FF
:10251000C8010E949F436CED76E0C8010E94CF4342
:102520008F8598890E94712FBC01C8010E946F435A
:102530006AE675E0C8010E94CF4360E070E0C80120
:102540000E949F436CEE76E0C8010E94CF43C10118
:102550000E94712FBC01C8010E946F436EED75E0AF
:10256000C8010E94CF4360E070E0C8010E949F4311
:102570006CEF76E0C8010E94CF43C2010E94712F28
:10258000BC01C8010E946F438BCF2C965FAD2C9786
:10259000552309F486CB77CB8FEE95E00E94B61CCD
:1025A0008F8198850E940F1E8EEE94E00E94B61CCB
:1025B0000E94B5074F81588550931D0840931C0811
:1025C000CA01E1960FB6F894DEBF0FBECDBFDF9112
:1025D000CF911F910F91FF90EF90DF90CF90BF9020
:1025E000AF909F908F907F906F905F904F903F90B3
:1025F0002F900895603E710508F041C4FB018827C3
:10260000EE58FF4F8F4F0C94A75A81E090E0A0E066
:10261000B0E08093220890932308A0932408B093FD
:10262000250808951092260810922708109228086D
:1026300010922908089510922A0810922B081092DF
:102640002C0810922D08089581E090E0A0E0B0E001
:1026500080932E0890932F08A0933008B0933108F0
:102660000895109232081092330810923408109294
:102670003508089583E090E0A0E0B0E0809336084C
:1026800090933708A0933808B0933908089588E7E5
:1026900090E0A0E0B0E080934E0890934F08A093A4
:1026A0005008B0935108089588E790E0A0E0B0E0AA
:1026B0008093520890935308A0935408B093550800
:1026C000089588E790E0A0E0B0E0809356089093EA
:1026D0005708A0935808B0935908089510925E08BF
:1026E00010925F081092600810926108089510928D
:1026F00062081092630810926408109265080895A9
:1027000081E090E0A0E0B0E08093660890936708D5
:10271000A0936808B0936908089510926A0810920F
:102720006B0810926C0810926D08089510926E0854
:1027300010926F081092700810927108089510920C
:102740007208109273081092740810927508089518
:1027500010927608109277081092780810927908F3
:10276000089510927A0810927B0810927C081092BB
:102770007D08089510927E0810927F0810928008BC
:10278000109281080895109286081092870810927E
:10279000880810928908089510928A0810928B0870
:1027A00010928C0810928D08089510928E08109245
:1027B0008F081092900810929108089510929E0828
:1027C00010929F081092A0081092A10808951092EC
:1027D000A2081092A3081092A4081092A5080895C8
:1027E0001092A6081092A7081092A8081092A908A3
:1027F000089581E090E0A0E0B0E08093B20890936B
:10280000B308A093B408B093B508089581E090E0B0
:10281000A0E0B0E08093B6089093B708A093B80802
:10282000B093B90808958CE291E0A0E0B0E0809305
:10283000C6089093C708A093C808B093C908089524
:102840008CE291E0A0E0B0E08093CA089093CB08BE
:10285000A093CC08B093CD0808958CE291E0A0E05D
:10286000B0E08093CE089093CF08A093D008B093A7
:10287000D10808951092D6081092D7081092D8085F
:102880001092D90808951092DA081092DB0810927D
:10289000DC081092DD0808951092DE081092DF081F
:1028A0001092E0081092E10808951092EE0810923C
:1028B000EF081092F0081092F10808951092F208B3
:1028C0001092F3081092F4081092F508089581E030
:1028D00090E0A0E0B0E08093F6089093F708A09312
:1028E000F808B093F908089585E090E0A0E0B0E022
:1028F0008093FE089093FF08A0930009B09301090C
:10290000089585E090E0A0E0B0E080930209909304
:102910000309A0930409B0930509089589E190E0A3
:10292000A0E0B0E08093060990930709A0930809FE
:10293000B0930909089582E390E0A0E0B0E08093AD
:10294000160990931709A0931809B09319090895CF
:1029500082E390E0A0E0B0E080931A0990931B0915
:10296000A0931C09B0931D09089582E390E0A0E0B4
:10297000B0E080931E0990931F09A0932009B093A3
:102980002109089582E390E0A0E0B0E08093260959
:1029900090932709A0932809B0932909089582E309
:1029A00090E0A0E0B0E080932A0990932B09A093D7
:1029B0002C09B0932D09089582E390E0A0E0B0E0E7
:1029C00080932E0990932F09A0933009B093310979
:1029D000089580E991E0A0E0B0E080933E099093F3
:1029E0003F09A0934009B0934109089580E991E01F
:1029F000A0E0B0E08093420990934309A09344097A
:102A0000B0934509089580E991E0A0E0B0E080939B
:102A1000460990934709A0934809B093490908953E
:102A200010924E0910924F091092500910925109BC
:102A3000089510925209109253091092540910925D
:102A40005509089510925609109257091092580985
:102A50001092590908951092660A1092670A10920E
:102A6000680A1092690A089510926A0A10926B0A15
:102A700010926C0A10926D0A089510926E0A1092CC
:102A80006F0A1092700A1092710A089588E592E018
:102A9000A0E0B0E08093660990936709A09368096D
:102AA000B0936909089588E592E0A0E0B0E08093D2
:102AB0006A0990936B09A0936C09B0936D0908950E
:102AC00088E592E0A0E0B0E080936E0990936F09F2
:102AD000A0937009B093710908958EE190E0A0E091
:102AE000B0E08093760990937709A0937809B0932A
:102AF000790908958EE190E0A0E0B0E080937A0932
:102B000090937B09A0937C09B0937D0908958EE191
:102B100090E0A0E0B0E080937E0990937F09A093BD
:102B20008009B0938109089510928E0910928F093F
:102B300010929009109291090895109292091092A2
:102B4000930910929409109295090895109296098C
:102B5000109297091092980910929909089510926D
:102B6000B6091092B7091092B8091092B9090895E0
:102B70001092BA091092BB091092BC091092BD09BB
:102B800008951092BE091092BF091092C0091092C8
:102B9000C10908951092C6091092C7091092C80978
:102BA0001092C90908951092CA091092CB09109287
:102BB000CC091092CD0908951092CE091092CF0938
:102BC0001092D0091092D109089585E090E0A0E01C
:102BD000B0E08093DE099093DF09A093E009B09301
:102BE000E109089585E090E0A0E0B0E08093E2097B
:102BF0009093E309A093E409B093E509089585E073
:102C000090E0A0E0B0E08093E6099093E709A093FC
:102C1000E809B093E909089584EB95E1A0E0B0E0FC
:102C20008093EE099093EF09A093F009B093F10916
:102C3000089584EB95E1A0E0B0E08093F2099093D1
:102C4000F309A093F409B093F509089584EB95E195
:102C5000A0E0B0E08093F6099093F709A093F809FB
:102C6000B093F909089585E090E0A0E0B0E080938A
:102C7000060A9093070AA093080AB093090A0895D8
:102C800085E090E0A0E0B0E080930A0A90930B0A00
:102C9000A0930C0AB0930D0A089585E090E0A0E09F
:102CA000B0E080930E0A90930F0AA093100AB0939D
:102CB000110A08951092160A1092170A1092180A13
:102CC0001092190A089510921A0A10921B0A109273
:102CD0001C0A10921D0A089510921E0A10921F0AD3
:102CE0001092200A1092210A089510922E0A109232
:102CF0002F0A1092300A1092310A08951092320A67
:102D00001092330A1092340A1092350A08951092E4
:102D1000360A1092370A1092380A1092390A08952A
:102D20001092460B1092470B1092480B1092490BD1
:102D300008958CE390E0A0E0B0E080934A0B90937C
:102D40004B0BA0934C0BB0934D0B089581E090E09A
:102D5000A0E0B0E080934E0B90934F0BA093500BEC
:102D6000B093510B08951092560B1092570B10927E
:102D7000580B1092590B08958CE390E0A0E0B0E05E
:102D800080935A0B90935B0BA0935C0BB0935D0BFD
:102D9000089581E090E0A0E0B0E080935E0B909316
:102DA0005F0BA093600BB093610B089510926E0BB4
:102DB00010926F0B1092700B1092710B08958CE3B0
:102DC00090E0A0E0B0E08093720B9093730BA0931F
:102DD000740BB093750B089581E090E0A0E0B0E033
:102DE0008093760B9093770BA093780BB093790B2D
:102DF000089510927E0B10927F0B1092800B109210
:102E0000810B08958CE390E0A0E0B0E08093820B0A
:102E10009093830BA093840BB093850B089581E06E
:102E200090E0A0E0B0E08093860B9093870BA09396
:102E3000880BB093890B08951092960B1092970B04
:102E40001092980B1092990B08958CE390E0A0E0FB
:102E5000B0E080939A0B90939B0BA0939C0BB09344
:102E60009D0B089581E090E0A0E0B0E080939E0B80
:102E700090939F0BA093A00BB093A10B0895660FA6
:102E8000771F660F771FFB01EE5DF74F10821182EF
:102E9000128213820895089508950F931F93CF937C
:102EA000DF938C01C0E0D0E0BE01C8010E94353A3A
:102EB000882321F0BE01C8010E94FA122196C13E6A
:102EC000D10591F780E090E0DF91CF911F910F91B4
:102ED00008954F925F926F927F928F929F92AF92DE
:102EE000BF92CF92DF92EF92FF920F931F93CF93F7
:102EF000DF938B01EB01CC0FDD1FCE010E940E5A38
:102F0000882E912CA12CB12CCE0101960E940E5A34
:102F1000C82ED12CE12CF12C0D58110903301105CC
:102F200088F5CE0144960E940E5A482E512C612CF1
:102F3000712CCE0145960E940E5A482F50E060E059
:102F400070E08FEF4816510461047104A9F44F3FFB
:102F500051056105710581F48FEF88169104A10474
:102F6000B10481F48FEFC816D104E104F10451F4E7
:102F70006FEF7FEFCB012BC0403851056105710524
:102F80006CF0F6CF80E8C816D104E104F10484F7B0
:102F900040E050E0BA01412C512C3201FE2CED2CC6
:102FA000DC2CCC248C0C9D1CAE1CBF1C3201552487
:102FB0004424840C951CA61CB71C742F6627552727
:102FC0004427CB01BA01680D791D8A1D9B1DDF9135
:102FD000CF911F910F91FF90EF90DF90CF90BF9016
:102FE000AF909F908F907F906F905F904F900895DB
:102FF000CF93DF93EC018F81882331F061E08989E1
:103000000E94A11F1F8206C060E089890E94A11F43
:1030100081E08F83DF91CF910895CF93DF93EC010F
:103020008E81882331F061E08B850E94A11F1E8272
:1030300006C060E08B850E94A11F81E08E83DF9136
:10304000CF91089560E0FC0181890C94A11F60E09C
:10305000FC0183850C94A11F61E0FC0181890C9423
:10306000A11F61E0FC0183850C94A11FCF92DF9228
:10307000EF92FF920F931F93CF93DF938B01690120
:103080007A01EB01CC0FDD1F6C2DCE010E94165A88
:103090009927F7FC9A958F2D7E2D6D2DCE010196E7
:1030A0000E94165A0D5811090330110588F4B70112
:1030B000992777FD9095892FCE0144960E94165A44
:1030C0006F2D772788279927CE0145960E94165A9B
:1030D00080E090E0DF91CF911F910F91FF90EF90F2
:1030E000DF90CF900895CF92DF92EF92FF92CF932F
:1030F000DF93EB010E94353A882359F1FE01EE0F70
:10310000FF1FEE0FFF1FEE5DF74FC080D180E28002
:10311000F38081EB96E00E94B61C86EC96E00E945C
:10312000B61C85EB96E00E94B61CCE010E940F1ED5
:1031300086EC96E00E94B61C8BE695E00E94B61CD9
:10314000C701B6010E94171D0E94B5070E94B7066D
:1031500004C08DE695E00E94B61C80E090E0DF910F
:10316000CF91FF90EF90DF90CF9008950F931F9332
:10317000CF93DF938C01C0E0D0E0BE01C8010E9474
:10318000353A882321F0BE01C8010E9473182196A8
:10319000C13ED10591F780E090E0DF91CF911F9182
:1031A0000F910895EF92FF920F931F93CF93DF93A8
:1031B0008091B10C9091B20C892B09F06EC084E023
:1031C00090E00E946553EC0160E070E00E94691796
:1031D000161617060CF1CE010E944D1792E2E92E49
:1031E00098E0F92E00E010E0B801CE010E94353AD7
:1031F000882349F0F7012081318142815381B80150
:10320000CE010E9436180F5F1F4FF4E0EF0EF11C45
:103210000639110549F73DC063E070E0CE010E9418
:103220006917613071058105910581F582E2E82E0B
:1032300088E0F82E00E010E0B801CE010E94353A97
:103240008823D9F0B801CE010E946917F701608385
:103250007183828393836F3F7F4F8F4F9F4F69F4BA
:10326000B801CE010E94FA12F7012081318142811A
:103270005381B801CE010E9436180F5F1F4FF4E052
:10328000EF0EF11C013E1105B9F603C0CE010E94FC
:103290004D17D093B20CC093B10C8091B10C9091AA
:1032A000B20CDF91CF911F910F91FF90EF90089595
:1032B000CF92DF92EF92FF920F931F93CF93DF9302
:1032C000FC016489758986899789C68DD78D60319F
:1032D00027E272078105910529F0161617061806D0
:1032E000190644F02089318942895389DE010E9400
:1032F0004E5A2AC08F010E94EE5820E030E44CE183
:1033000056E40E941C5B6B017C01F801608F718F99
:10331000828F938F60897189828993890E94EE5888
:10332000A70196010E944D596B017C01BE01DD0F82
:10333000880B990B0E94EE589B01AC01C701B601A6
:103340000E944D590E948E5BDF91CF911F910F918A
:10335000FF90EF90DF90CF900895FC0111821082D2
:1033600013821282158214821782168210861186A9
:10337000128613861486158616861786108A118A79
:10338000128A138A108E118E128E138E158E148E41
:10339000178E168E10A211A212A213A214A215A2A9
:1033A00016A217A210A611A612A613A614A615A659
:1033B00080E197E2A0E0B0E0848B958BA68BB78B81
:1033C0000895CF93DF93EC01FC01E159FF4F108288
:1033D000379781E0808360E08B850E94A11F8CA9D4
:1033E000882331F060E08989DF91CF910C94A11F8F
:1033F000DF91CF910895CF93DF93EC01898D0E94E7
:10340000781F2C8D30E08217930711F48D8D01C049
:1034100080E0DF91CF910895CF93DF93EC018F8906
:103420000E94781F2C8D30E08217930711F48D8D48
:1034300001C080E0DF91CF910895CF93DF93EC013D
:103440002BA988819981222311F061E001C060E0FD
:103450000E94151E8C81883579F42CA98A819B8164
:10346000222329F02DA9222311F061E001C060E0A0
:10347000DF91CF910C94151EDF91CF910895CF93DA
:10348000DF93EC012BA988819981222311F060E060
:1034900001C061E00E94151E8C81883579F42CA949
:1034A0008A819B81222329F02DA9222311F060E03B
:1034B00001C061E0DF91CF910C94151EDF91CF9197
:1034C0000895CF93DF93EC0161E08F850E94A11FE7
:1034D0008CA9882321F061E08D890E94A11FC35926
:1034E000DF4F1882DF91CF910895CF93DF93EC01E6
:1034F00060E08F850E94A11F8CA9882321F060E0E5
:103500008D890E94A11FC359DF4F81E08883DF911D
:10351000CF910895CF92DF92EF92FF920F931F9376
:10352000CF93DF93FC01DC01A05CBF4F4D935D9313
:103530006D937C93139714964D935D936D937C9349
:103540001397EC01C85BDF4F088319832A833B8301
:103550001896EC9282AD882381F082A9811108C06F
:1035600037FF0BC0188219821A821B8221E006C025
:103570001016110612061306ACF320E0C3ACD4AC4F
:10358000E5ACF6AC1C141D041E041F0434F587AD15
:10359000882319F1488159816A817B81C601D7FE50
:1035A00004C0882799278C199D09DA0157FF04C0A8
:1035B000AA27BB27A41BB50B8A179B0774F477FFB8
:1035C00003C0919581959109092E000CAA0BBB0BA4
:1035D00088839983AA83BB8321E0EB5AFF4F108233
:1035E000118212821382822FDF91CF911F910F914E
:1035F000FF90EF90DF90CF9008950F931F93CF939C
:10360000DF938C01D62FFC01838D81110BC0C80183
:103610000E940C1AC82FC8010E94FB19D1110AC0C0
:103620008C2F08C0C8010E94FB19C82FC8010E9436
:103630000C1AF4CFDF91CF911F910F910895CF9382
:10364000DF93EC01FC01E159FF4F81E08083399762
:103650008081B297882341F080819181A281B381DA
:103660000196A11DB11D07C080819181A281B38106
:103670000197A109B10980839183A283B38361E09B
:103680008B850E94A11F8CA9882331F061E0898974
:10369000DF91CF910C94A11FDF91CF9108958F926C
:1036A0009F92AF92BF92CF92DF92EF92FF920F93D1
:1036B0001F93CF93DF93EC01FC01EB5AFF4F608126
:1036C0007181828193810E94EC586B017C016EA90B
:1036D0007FA988AD99AD0E94EE589B01AC0160E0D6
:1036E00074E284E799E40E941C5B4B015C01FE01DB
:1036F000EF59FF4F60817181828193810E94EC5864
:103700009B01AC01C501B4010E941C5B4B015C0133
:103710008E01075A1F4F20E030E040E05FE30E9437
:103720004D59A70196010E94B05A0E94955BF8017D
:103730006083718382839383C35ADF4FA501940111
:10374000C701B6010E94B05A0E94955B68837983D5
:103750008A839B83DF91CF911F910F91FF90EF9010
:10376000DF90CF90BF90AF909F908F9008950F9370
:103770001F93CF93DF93FC01E159FF4F2081222358
:10378000C9F07A9700811181228133813896408176
:10379000518162817381041715072607370728F1C5
:1037A000EC010E94E119CE01DF91CF911F910F91A1
:1037B0000C944F1BFC01EB59FF4F20812223A9F0F1
:1037C000709700811181228133813496408151812B
:1037D00062817381041715072607370730F0DF91E0
:1037E000CF911F910F910C941F1BDF91CF911F91CF
:1037F0000F910895FC01EB59FF4F2081222361F0C6
:10380000709780819181A281B3810196A11DB11D24
:1038100080839183A283B383089590E0FC01319764
:10382000E231F10508F04EC08827EE5AFE4F8F4F67
:103830000C94A75A809180008F7703C080918000FC
:103840008F7D80938000089580918000877FF9CFDD
:1038500084B58F7702C084B58F7D84BD0895809133
:10386000B0008F7703C08091B0008F7D8093B0004F
:103870000895809190008F7707C0809190008F7D90
:1038800003C080919000877F80939000089580917D
:10389000A0008F7707C08091A0008F7D03C080912A
:1038A000A000877F8093A0000895809120018F77EA
:1038B00007C0809120018F7D03C080912001877F08
:1038C000809320010895009769F0FC010190002089
:1038D000E9F73197AF01481B590BBC0184EB9CE021
:1038E0000C94124180E090E008958F929F92AF92E5
:1038F000BF920F931F93CF93DF93CDB7DEB7A197FE
:103900000FB6F894DEBF0FBECDBF19A2423008F447
:103910004AE08E010F5D1F4F842E912CA12CB12CFB
:10392000A50194010E94565AE62FB901CA0101501F
:103930001109EA3014F4E05D01C0E95CD801EC93B0
:10394000232B242B252B61F7C8010E94631CA19611
:103950000FB6F894DEBF0FBECDBFDF91CF911F91A0
:103960000F91BF90AF909F908F9008950C94631C1F
:10397000EF92FF920F931F93CF93DF93CDB7DEB7F4
:1039800064970FB6F894DEBF0FBECDBF7C01CB01AC
:10399000BA018E010F5F1F4F22E044E00E944553A1
:1039A000FC0101900020E9F73197AF01481B590B4A
:1039B000BC01C7010E94414364960FB6F894DEBF74
:1039C0000FBECDBFDF91CF911F910F91FF90EF9070
:1039D0000895CF93DF93EC01198218821B821A821B
:1039E0001D821C8260E070E00E941A4328813981A8
:1039F00081110FC02115310519F0C9010E94FD5335
:103A0000198218821D821C821B821A82DF91CF913B
:103A100008951D821C8260EF74E0C901DF91CF918F
:103A20000C94CA5C682F84EB9CE00C94A941CF9263
:103A3000DF92EF92FF92CF93DF9397FF19C06B0154
:103A40007C018DE20E94121DEC0166277727CB01D5
:103A50006C197D098E099F094AE00E94751C8C0F24
:103A60009D1FDF91CF91FF90EF90DF90CF90089551
:103A70004AE0DF91CF91FF90EF90DF90CF900C94D0
:103A8000751C8F929F92AF92BF92CF92DF92EF926E
:103A9000FF920F931F93CF93DF936B017C01142F41
:103AA0009B01AC010E94C95B882319F087EB96E06B
:103AB00027C046015701E894B7F82FEF3FEF4FE7D3
:103AC0005FE7C501B4010E94C95B81110DC02FEFF2
:103AD0003FEF4FE75FE7C501B4010E94E7581816B2
:103AE0001CF48BEB96E00CC02FEF3FEF4FE75FE449
:103AF000C701B6010E94C45B181684F48FEB96E0F0
:103B0000DF91CF911F910F91FF90EF90DF90CF90B9
:103B1000BF90AF909F908F900C94631C2FEF3FEF5E
:103B20004FE75FECC701B6010E94E75887FDE6CF7B
:103B300020E030E0A901C701B6010E94E75887FFE5
:103B400009C08DE20E94121DEC01F7FAF094F7F81B
:103B5000F09402C0C0E0D0E000E060E070E080E0FF
:103B60009FE3101741F020E030E040E251E40E9472
:103B70001C5B0F5FF6CFA70196010E94B05A6B0144
:103B80007C010E94955B4B015C014AE00E94751C20
:103B9000C80FD91F1123A9F1C501B4010E94EC5827
:103BA0009B01AC01C701B6010E94AF5A6B017C01B9
:103BB0008EE20E94121DC80FD91F20E030E040E2C3
:103BC00051E4C701B6010E944D594B015C010E94AE
:103BD000955B6B01E12CF12C4AE0C701B6010E9414
:103BE000751CC80FD91FC701B6010E94EC589B0174
:103BF000AC01C501B4010E94AF5A6B017C011150A8
:103C0000E1F6CE01DF91CF911F910F91FF90EF90E0
:103C1000DF90CF90BF90AF909F908F900895BC01A0
:103C2000990F880B990B0C94171DDC0152968C91FF
:103C3000529760FB84F952968C935297282F539693
:103C40003C91539754968C915497482F437050E071
:103C5000ED91FC9111970190F081E02D60E0CD0194
:103C600019946031710509F441C088F4623071051E
:103C700009F454C020F4672B09F458C00895643047
:103C8000710509F443C068307105C1F108956034CD
:103C90007105E1F020F46032710501F1089560389A
:103CA000710561F06115714009F048C0DC01ED91CA
:103CB000FC910288F389E02D60E03FC0DC01ED91CA
:103CC000FC910288F389E02D61E037C0DC01ED91C1
:103CD000FC910288F389E02D62E02FC0DC01ED91B8
:103CE000FC910288F389E02D63E027C0DC01ED91AF
:103CF000FC910288F389E02D64E01FC0DC01ED91A6
:103D0000FC910288F389E02D65E017C0DC01ED919C
:103D1000FC910288F389E02D66E00FC0DC01ED9193
:103D2000FC910288F389E02D67E007C0DC01ED918A
:103D3000FC910288F389E02D68E019940895CF92F0
:103D4000DF92EF92FF921F93CF93DF93EC0180E01D
:103D500090E00E94EC5825ED34E045E352E40E94E7
:103D60004D5920E030E04AE754E40E941C5B6B01AF
:103D70007C012AE037ED43EA5CE369857A858B852F
:103D80009C850E94B05AA70196010E944D5926E6D3
:103D900036E646EA5EE30E941C5B20E030E040E845
:103DA0005FE30E94AF5A0E94955B162FE881F9816C
:103DB0000480F581E02D603108F561E0CE011995B0
:103DC0002AE037ED43EA5CE369857A858B859C853B
:103DD0000E94B05AA70196010E944D592CEE31E580
:103DE00048E35EE30E941C5B20E030E040E85FE3D4
:103DF0000E94AF5A0E94955B162F03C060E0CE016F
:103E00001995103208F01FE1912F9F718B81807EF0
:103E1000892B8B832A81382F8C81482F4F7050E05B
:103E2000E881F9810190F081E02D60E1CE011995E2
:103E3000612F70E080E090E00E94EE582D853E8575
:103E40004F8558890E944D590E94955B6F718A81F8
:103E5000807E682B6A83262F3B818C81482F4F7090
:103E600050E0E881F9810190F081E02D60E1CE0120
:103E7000DF91CF911F91FF90EF90DF90CF90199439
:103E8000DC01ED91FC910280F381E02D6CE6199448
:103E9000CF92DF92EF92FF92FC01C12C92E1D92EDA
:103EA0009AE7E92EF12C20E04C155D056E057F05A3
:103EB00040F4F694E794D794C7942F5F2630A1F787
:103EC00027E091E09227292F286B26952083917077
:103ED0009183FF90EF90DF90CF9008951F920F9203
:103EE0000FB60F9211240F900FBE0F901F901895D0
:103EF000CF93DF93282F30E0F901E952F84F8491F6
:103F0000F901E35DF74FD491F901E954F74FC491FA
:103F1000CC2391F081110E940D1CEC2FF0E0EE0FEC
:103F2000FF1FED57F74FA591B491EC91ED2381E080
:103F300090E021F480E002C080E090E0DF91CF913A
:103F400008951F93CF93DF93282F30E0F901E952B2
:103F5000F84F8491F901E35DF74FD491F901E954E9
:103F6000F74FC491CC23C1F0162F81110E940D1C74
:103F7000EC2FF0E0EE0FFF1FE356F74FA591B49141
:103F80009FB7F894111104C08C91D095D82302C02A
:103F9000EC91DE2BDC939FBFDF91CF911F910895B1
:103FA000FC0181A90C94A11FCF93DF9390E0FC0149
:103FB000E35DF74F2491FC01E954F74F8491882386
:103FC00061F190E0880F991FFC01E354F84FC5910F
:103FD000D491FC01E356F74FA591B491611109C04A
:103FE0009FB7F8948881209582238883EC912E23B3
:103FF0000BC0623061F49FB7F8948881322F3095FE
:1040000083238883EC912E2B2C939FBF06C08FB700
:10401000F894E8812E2B28838FBFDF91CF910895EC
:104020000F931F93CF93DF93EC0161E089A90E9466
:10403000D41F61E0CE010E94D01F0BA91CA901155D
:10404000110509F456C061E0F80180810E94D41F77
:1040500061E0F80184810E94D41F62E0F80182814E
:104060000E94D41FF80140815181FA01E954F74FB1
:10407000E491F0E0EE0FFF1FE356F74F8591949126
:10408000F8019287818722813381F901E954F74F42
:10409000E491F0E0EE0FFF1FED57F74F85919491FB
:1040A000F8019487838784819581FC01E954F74F57
:1040B000E491F0E0EE0FFF1FE356F74FA591B491A6
:1040C000F801B687A587FA01E35DF74F4491F8013F
:1040D0004683F901E35DF74F2491F8012783FC0142
:1040E000E35DF74F9491F80190878C91E92FE82BCD
:1040F000EC932A893B898C89482F437050E0E881F2
:10410000F9810190F081E02D60E0CE0119952AA19E
:104110003BA14CA15DA1E881F9810190F081E02DE6
:104120006CE6CE0119952EA13FA148A559A5517065
:10413000E881F9810190F081E02D6DE6CE011995BD
:104140002DA53EA58FA5482F4F7350E0E881F9813A
:104150000190F081E02D60E7CE0119952A813B8125
:104160008C81482F4F7050E0E881F9810190F081F7
:10417000E02D60E1CE0119958AA1807F88608AA335
:104180002AA13BA14CA15DA1E881F9810190F081B8
:10419000E02D6CE6CE011995E881F9810688F78952
:1041A000E02D61E0CE01DF91CF911F910F91199425
:1041B0008230910538F0880F991F880F991F059755
:1041C0000197F1F708958F929F92AF92BF92CF928D
:1041D000DF92EF92FF926B017C010E9481464B01BE
:1041E0005C01C114D104E104F104F1F00E948146A4
:1041F000DC01CB0188199909AA09BB09883E9340C3
:10420000A105B10570F321E0C21AD108E108F10857
:1042100088EE880E83E0981EA11CB11CC114D10445
:10422000E104F10419F7DDCFFF90EF90DF90CF901C
:10423000BF90AF909F908F9008958FEF9FEF08955C
:1042400083EC96E00E94B61C82E993E00E94B61CC3
:1042500087E793E00E94B61C80EF94E00E94B61CB2
:104260000E94B5070E94B70680E090E008950C9484
:10427000FD530C94FD530C94FD530C94FD530C947E
:10428000FD530C94FD530C94FD530C94FD530C946E
:10429000FD530C94FD530E94B5070E94110780E066
:1042A00090E0089588EC96E00E94B61C0E94B50745
:1042B0000E94080B0E94B5070E94C9060E94CD39D2
:1042C00040E050E068E070E00E947A380E94CD390A
:1042D00040E050E069E070E00E947A380E94CD39F9
:1042E00040E050E06AE070E00E947A380E94CD39E8
:1042F00040E050E06DE070E00E947A3880E090E0AD
:1043000008950F931F93CF93DF93FB0102A113A195
:10431000C68DD78D0E940538C530D105E1F064F413
:10432000249771F56DE070E084EE9DE00E94C84432
:10433000B80184EE9DE022C0C630D105B1F02B97C4
:10434000F9F464E070E08DEE9DE00E94C844B8018D
:104350008DEE9DE013C06BE070E087EE9DE00E9463
:10436000C844B80187EE9DE009C06AE070E08AEEBB
:104370009DE00E94C844B8018AEE9DE00E94454439
:1043800080E090E0DF91CF911F910F910895CF933E
:10439000DF93EC0186E390E09C8F8B8F87E390E0C6
:1043A0009E8F8D8F86E290E098A38F8F8AE190E0B8
:1043B0009AA389A38CE190E09CA38BA388E190E071
:1043C0009EA38DA38FE390E098A78FA380E490E055
:1043D0009AA789A7FE01E057FF4F8CE390E09487EE
:1043E00083878DE390E09687858788E390E0908BC4
:1043F0008787128A118A148A138A168A158A8EE090
:1044000090E0908F878B8FE090E0928F818FE058C3
:10441000FF4F8BE290E09487838780E390E096875C
:1044200085878AE390E0908B8787128A118A148AA5
:10443000138A168A158A8CE090E0908F878B89E02A
:1044400090E0928F818FEA5EFE4F11821082329649
:1044500011821082329611821082CE010E94D126E2
:10446000CE010E94E432FE01EB50FD4F808191812C
:1044700072974081518162817381E355F140DE0181
:10448000A352BD4F2D913C91358F248F448B558B7A
:10449000668B778B019719F48FEF9FEF02C081E055
:1044A00090E0978F868FFE01E950FD4F80819181CA
:1044B00070974081518162817381E952F140DE0140
:1044C000A152BD4F2D913C91358F248F448B558B3C
:1044D000668B778B019719F48FEF9FEF02C081E015
:1044E00090E0978F868FFE01E750FD4F808191818C
:1044F0003E974081518162817381EF5FF109CF5115
:10450000DD4F28813981358F248F448B558B668B05
:10451000778B019719F48FEF9FEF02C081E090E055
:10452000978F868FDF91CF9108952F923F924F9270
:104530005F926F927F928F929F92AF92BF92CF9233
:10454000DF92EF92FF920F931F93CF93DF93CDB73C
:10455000DEB7C058D1090FB6F894DEBF0FBECDBF8D
:104560008C01FC0110821182128213821482158246
:104570001682178210861186128613861486158677
:10458000168617864C01F0E18F0E911CC4010E9423
:10459000DB31580180E9A80EB11CC5010E94DB3156
:1045A0006801E0EFCE1AEEEFDE0AC6010E94DB31B1
:1045B0007801F0E7EF1AFEEFFF0AC7010E94AD197C
:1045C000380182E4681A8EEF780AC3010E94AD199F
:1045D0002801E4E14E1AEEEF5E0AC2010E94AD1915
:1045E000C801865E9D4F0E94E91CF801E05EFD4F08
:1045F00011821082329611821082329611821082BC
:104600003296118210823296118210823296118275
:104610001082329610823196108231961082319635
:1046200010821182128213823496108211821282B9
:104630001382349610821182128213823496108271
:104640001182128213823496108211821282138296
:104650003496108211821282138234961082118253
:10466000128213823496108211821282138234963F
:104670001082118212821382349610821182128269
:104680001382349610821182128213823496108221
:1046900011821282138234961082319610823196E2
:1046A0001082319610821182128213823496108207
:1046B0001182128213823496108211821282138226
:1046C0003496108231961082319610823196108283
:1046D0003196108231961082319610823196108276
:1046E0003196108231961082319610823196108266
:1046F0003196108231961082319610823196108256
:104700003196108231961082319610823196108245
:104710003196108231961082319610823196108235
:104720003196108211821282138234961082118285
:104730001282138234961082118212821382D8015F
:10474000AE56BD4F8CE0E6E8F3E001900D928A95FD
:10475000E1F7F801E256FD4F1082118212821382B6
:104760003496108211821282138234961082118242
:104770001282138234961182108232961182108234
:104780003296118210823296108211821282138226
:104790003496108211821282138234961082118212
:1047A00012821382349610821182128213823496FE
:1047B0001082118212821382349610821182128228
:1047C00013823496118210823296118210823296B0
:1047D00011821082329610821182128213823496D4
:1047E00010821182128213823496108211821282F8
:1047F000138234961082319610823196108231964F
:1048000011821082329611821082329611821082A9
:104810003296108211821282138234961082118293
:10482000128213823496108211821282138234967D
:104830001182108232961182108232961182108279
:104840003296118210823296118210823296118233
:1048500010823296118210823296118210821801D3
:10486000F1E02F1AFDEF3F0AF1011082319610821C
:10487000118212821382CE0101960E94DB3180E800
:10488000FE013196D40101900D928A95E1F7CE0197
:1048900001960E94DB3180E8FE013196D50101903E
:1048A0000D928A95E1F7CE0101960E94DB3180E8F6
:1048B000FE013196D60101900D928A95E1F788E5C7
:1048C000F801848BEC56FF4F89E58083E058FF4F59
:1048D0008AE58083CE0101960E94AD198EE2FE0129
:1048E0003196D70101900D928A95E1F7CE0101969C
:1048F0000E94AD198EE2FE013196D30101900D9216
:104900008A95E1F7CE0101960E94AD198EE2FE0173
:104910003196D20101900D928A95E1F7C8010E946B
:10492000C721F1011082C058DF4F0FB6F894DEBFE7
:104930000FBECDBFDF91CF911F910F91FF90EF90F0
:10494000DF90CF90BF90AF909F908F907F906F90AF
:104950005F904F903F902F9008950F931F93CF93A8
:10496000DF938B01EA018EE993E00E94B61C86EC8E
:1049700096E00E94B61CF80184810E94121DCE01AF
:104980000E940F1E0E94B507DF91CF911F910F91DA
:104990000C94B706CF92DF92EF92FF920F931F9382
:1049A000CF93DF9300D000D0CDB7DEB76B017A0193
:1049B0008C01065E1D4F6AE973E0C8010E94CF4377
:1049C00066EC76E0C8010E94CF43F60184818983BA
:1049D0001A8241E050E0BE016F5F7F4FC8010E9424
:1049E0004143B701C8010E949F430E94B507BC0123
:1049F000CE0101960E947306BE016F5F7F4FC80112
:104A00000E94DE4389819A810E94FD5326960FB64B
:104A1000F894DEBF0FBECDBFDF91CF911F910F91F4
:104A2000FF90EF90DF90CF900895FC01DB01A75934
:104A3000BF4F8C91882319F022E030E002C020E0C3
:104A400030E0DB01A559BF4F8C91882311F023E0A2
:104A500030E0DB01A659BF4F8C91882311F024E090
:104A600030E0DB01A459BF4F8C91882311F026E080
:104A700030E0DA018D919C912817390721F091E0FF
:104A8000121613060CF090E0DA012D933C93992353
:104A900021F0A901CF010C94CA240895CF93DF938C
:104AA0008091CA0E9091CB0E892B59F484E093E04B
:104AB0000E946553EC010E949522D093CB0EC093C7
:104AC000CA0E8091CA0E9091CB0EDF91CF910895BE
:104AD0004F925F926F927F928F929F92AF92BF920E
:104AE000CF92DF92EF92FF920F931F93CF93DF93BA
:104AF00000D01F92CDB7DEB70E94D2184090FE08BA
:104B00005090FF0860900009709001090E94D2182F
:104B10008090020990900309A0900409B0900509C3
:104B20000E94B507C090CC0ED090CD0EE090CE0E76
:104B3000F090CF0E0E94B507C701B6010E94EE5853
:104B40006B017C01C301B2010E94EE589B01AC01D4
:104B5000C701B6010E941C5B2B013C016091D00E85
:104B60007091D10E8091D20E9091D30E0E94EE588A
:104B70006B017C01C501B4010E94EE589B01AC01A0
:104B8000C701B6010E941C5B69837A838B839C8377
:104B90000E944E251F921F921F921F921F92812CDE
:104BA000912CA12CB12CC12CD12C760109811A8118
:104BB0002B813C81B301A2010E94550B0E944E251E
:104BC0001F921F921F921F921F9297018601B3019D
:104BD000A2010E94550B0E944E251F921F921F9208
:104BE0001F921F9297018601B701A6010E94550BE3
:104BF0000FB6F894DEBF0FBECDBF80E090E00F90FF
:104C00000F900F900F90DF91CF911F910F91FF9018
:104C1000EF90DF90CF90BF90AF909F908F907F905C
:104C20006F905F904F9008954F925F926F927F9236
:104C30008F929F92AF92BF92CF92DF92EF92FF92AC
:104C40000F931F93CF93DF9300D000D0CDB7DEB783
:104C5000FB0126892D8387898E8382889388A68489
:104C6000B784C284D384E484F5844680578060840A
:104C7000718482819381A481B58189839A83AB8376
:104C8000BC830E944E251F921F921F92AE81AF934C
:104C9000BD81BF939301820149815A816B817C81DF
:104CA0000E94550B0F900F900F900F900F9080E087
:104CB00090E026960FB6F894DEBF0FBECDBFDF9111
:104CC000CF911F910F91FF90EF90DF90CF90BF9009
:104CD000AF909F908F907F906F905F904F900895CE
:104CE000CF93DF93EB0120E030E040E85FE36A819F
:104CF0007B818C819D810E94E75881110DC08FECD2
:104D000096E00E94B61C0E944E258C5A9F4FFC01D3
:104D1000108211821282138220E030E040E85FE3CB
:104D20006E817F81888599850E94E75881110DC029
:104D30008FED96E00E94B61C0E944E258C529F4F2C
:104D4000FC01108211821282138220E030E040E8E0
:104D50005FE36A857B858C859D850E94E75881117C
:104D60000DC08FEE96E00E94B61C0E944E258C5A14
:104D70009E4FFC0110821182128213820E94B5079D
:104D80000E94B70680E090E0DF91CF9108950895EA
:104D9000089508950895089508950895089508952B
:104DA00008952F923F924F925F926F927F928F92CF
:104DB0009F92AF92BF92CF92DF92EF92FF920F93AA
:104DC0001F93CF93DF93CDB7DEB765970FB6F894F7
:104DD000DEBF0FBECDBF8C010E94D218F801E45D8A
:104DE000FD4F81E04091EE085091EF086091F0088E
:104DF0007091F108452B462B472B09F480E0808306
:104E00000E94D218F801E35DFD4F81E04091F20865
:104E10005091F3086091F4087091F508452B462BEA
:104E2000472B09F480E080830E94D218F801E25DEC
:104E3000FD4F81E04091F6085091F7086091F80825
:104E40007091F908452B462B472B09F480E08083AD
:104E50000E94D21880913E0990913F09A09140098B
:104E6000B0914109F801E15DFD4F80839183A283F8
:104E7000B3830E94D2188091420990914309A09176
:104E80004409B0914509F801ED5CFD4F80839183A1
:104E9000A283B3830E94D21880914609909147095A
:104EA000A0914809B0914909F801E95CFD4F808360
:104EB0009183A283B3830E94D218809116099091A6
:104EC0001709A0911809B0911909F801E55CFD4F87
:104ED00080839183A283B3830E94D21880911A09A0
:104EE00090911B09A0911C09B0911D09F801E15C8A
:104EF000FD4F80839183A283B3830E94D218809157
:104F00001E0990911F09A0912009B0912109F80173
:104F1000ED5BFD4F80839183A283B3830E94D218FF
:104F20008091260990912709A0912809B09129091B
:104F3000F801E95BFD4F80839183A283B3830E94D4
:104F4000D21880912A0990912B09A0912C09B09137
:104F50002D09F801E55BFD4F80839183A283B38324
:104F60000E94D21880912E0990912F09A0913009AA
:104F7000B0913109F801E15BFD4F80839183A283F9
:104F8000B3830E94D2188091C6089091C708A0915F
:104F9000C808B091C908F801ED5AFD4F808391838C
:104FA000A283B3830E94D2188091CA089091CB0843
:104FB000A091CC08B091CD08F801E95AFD4F80834B
:104FC0009183A283B3830E94D2188091CE089091DE
:104FD000CF08A091D008B091D108F801E55AFD4F53
:104FE00080839183A283B3830E94D218F801E15A8F
:104FF000FD4F81E020919E0830919F0821303105BE
:1050000009F080E080830E94D218F801E05AFD4F39
:1050100081E02091A2083091A3082130310509F0E8
:1050200080E080830E94D218F801EF59FD4F81E0A3
:105030002091A6083091A7082130310509F080E0C1
:1050400080830E94D218F801E358FD4F81E040911F
:105050007608509177086091780870917908452B0F
:10506000462B472B09F480E080830E94D218F80178
:10507000E258FD4F81E040917A0850917B086091A1
:105080007C0870917D08452B462B472B09F480E066
:1050900080830E94D218F801E158FD4F81E04091D1
:1050A0007E0850917F086091800870918108452B9F
:1050B000462B472B09F480E080830E94D218F80128
:1050C000E058FD4F81E040914E0950914F096091A9
:1050D000500970915109452B462B472B09F480E06C
:1050E00080830E94D218F801EF57FD4F81E0409174
:1050F0005209509153096091540970915509452BFB
:10510000462B472B09F480E080830E94D218F801D7
:10511000EE57FD4F81E0409156095091570960913B
:10512000580970915909452B462B472B09F480E00B
:1051300080830E94D218F801ED57FD4F81E0209145
:105140008608309187082130310509F080E080839E
:105150000E94D218F801EC57FD4F81E020918A0897
:1051600030918B082130310509F080E080830E9466
:10517000D218F801EB57FD4F81E020918E08309155
:105180008F082130310509F080E080830E94D21819
:1051900080914E0890914F08A0915008B09151080D
:1051A000F801EA57FD4F80839183A283B3830E9465
:1051B000D2188091520890915308A0915408B09150
:1051C0005508F801E657FD4F80839183A283B3838E
:1051D0000E94D2188091560890915708A0915808C3
:1051E000B0915908F801E257FD4F80839183A28363
:1051F000B3830E94D218F801EF58FD4F81E040912F
:105200005E0850915F086091600870916108452BBD
:10521000462B472B09F480E080830E94D218F801C6
:10522000EE58FD4F81E04091620850916308609113
:10523000640870916508452B462B472B09F480E0E4
:1052400080830E94D218F801ED58FD4F81E0409113
:105250006608509167086091680870916908452B4D
:10526000462B472B09F480E080830E94D21880915E
:10527000560A9091570AA091580AB091590AF8011C
:10528000EE59FD4F80839183A283B3830E94D2188D
:1052900080915A0A90915B0AA0915C0AB0915D0AD4
:1052A000F801EA59FD4F80839183A283B3830E9462
:1052B000D21880915E0A90915F0AA091600AB09125
:1052C000610AF801E659FD4F80839183A283B3837D
:1052D0000E94D218F801EC58FD4F81E02091B608E9
:1052E0003091B7082130310509F080E08083F80162
:1052F000EB58FD4F1082319610820E94D218F801AF
:10530000E958FD4F81E02091B2083091B308213077
:10531000310509F080E08083F801E858FD4F1082E4
:10532000319610820E94D218F801E658FD4F81E0B4
:105330002091D6083091D7082130310509F080E05E
:1053400080830E94D218F801E558FD4F81E020913A
:10535000DA083091DB082130310509F080E08083E4
:105360000E94D218F801E458FD4F81E02091DE0838
:105370003091DF082130310509F080E080830E9400
:10538000D218F801E259FD4F81E02091660A309170
:10539000670A2130310509F080E080830E94D2182D
:1053A000F801E159FD4F81E020916A0A30916B0AC2
:1053B0002130310509F080E080830E94D218F80185
:1053C000E059FD4F81E020916E0A30916F0A213043
:1053D000310509F080E080830E94D21838012EE662
:1053E000621A2DEF720A8091FE089091FF08A09139
:1053F0000009B0910109F30180839183A283B383F3
:105400000E94D2185801FAE6AF1AFDEFBF0A809148
:10541000020990910309A0910409B0910509F501D1
:1054200080839183A283B3830E94D218809106095E
:1054300090910709A0910809B09109099801265691
:105440003D4FF90180839183A283B383F3014081AF
:10545000518162817381141615061606170644F0F1
:1054600041E050E060E070E04083518362837383E9
:10547000F50140815181628173811416150616066B
:10548000170644F041E050E060E070E04083518353
:1054900062837383181619061A061B064CF081E006
:1054A00090E0A0E0B0E0F90180839183A283B38310
:1054B000D901CD90DD90ED90FC90F5018080918038
:1054C000A280B380D3014D905D906D907C900E943E
:1054D000B507FC0140825182628273828482958288
:1054E000A682B782C086D186E286F386F801E259A9
:1054F000FD4FB081B9833C9780819181A281B381B6
:105500008A8B9B8BAC8BBD8B789690819E833996D2
:1055100030803F97A081AA87339620803996B0814A
:10552000BF87339720812B877E973081F397208127
:10553000E65AFF4F4081518162817381F397C080A9
:10554000D180E280F3803C9780809180A280B380FC
:105550003C9740805180628073803C97808191812C
:10556000A281B381F80186A797A7A0ABB1AB42AAED
:1055700053AA64AA75AA86AA97AAA0AEB1AEC2AE73
:10558000D3AEE4AEF5AEFE9640835183628373835F
:1055900034962083319630832B85F80123A78F859D
:1055A00084A735A6EA5BFF4F80E490E0A0E0B0E07E
:1055B00080839183A283B3833297208231969A8528
:1055C00090833596AE81A08331968A899B89AC8978
:1055D000BD8980839183A283B3833496998190831C
:1055E000E05EFD4FA081A983399780819181A281DE
:1055F000B3818E839F83A887B987759690819A8798
:105600003996A081AA833F97B081BB8733962081CA
:105610002F8739962080339730807E973081F3979B
:105620002081E35AFF4F80819181A281B381F3975A
:1056300040815181628173813C97C080D180E2803A
:10564000F3803C9780809180A280B380EF5AF14034
:10565000F98BE88BED55FE4F40805180628073805E
:10566000E889F989468E578E60A271A282A293A220
:10567000A4A2B5A2C6A2D7A2E0A6F1A642A753A7AC
:1056800064A775A786A797A7A0ABB1AB22AB33AB36
:10569000338E248E2A81258F80E490E0A0E0B0E054
:1056A00086AB97ABA0AFB1AF2F8524AB8B8585AB15
:1056B0009A8592AF8E819F81A885B98583AF94AF7B
:1056C000A5AFB6AF298127AFF801E059FD4F808122
:1056D0008983369780819181A281B3818E839F8354
:1056E000A887B987729690819A87399630803F97BC
:1056F000A081AA83339620803996C0803397D080CA
:105700007E973081F3972081E05AFF4F808191810D
:10571000A281B3818B879C87AD87BE87F3978081F9
:105720009181A281B3813C974081518162817381D3
:105730003C9780809180A280B3807801E0EFEE1AE0
:10574000EEEFFE0AF801E95CFD4F40805180628077
:105750007380F701468E578E60A271A282A293A237
:10576000A4A2B5A246A357A360A771A782A793A737
:10577000A4A7B5A78B859C85AD85BE8586A797A771
:10578000A0ABB1AB22AB33ABD38EC48E358E80E4ED
:1057900090E0A0E0B0E086AB97ABA0AFB1AF24AA99
:1057A0002A8125AB8A8582AF8E819F81A885B985A4
:1057B00083AF94AFA5AFB6AF298127AF680180E171
:1057C000C80ED11CC6010E949031888999890E9417
:1057D0009031C7010E9490310E94D218A0906609B2
:1057E000B09067090E94D2188090060A9090070A2C
:1057F0000E94D21820918E0930918F09A401B50121
:10580000C6010E948C2F0E94D218A0906A09B09005
:105810006B090E94D21880900A0A90900B0A0E948D
:10582000D2182091920930919309A401B501888979
:1058300099890E948C2F0E94D218A0906E09B09076
:105840006F090E94D21880900E0A90900F0A0E9451
:10585000D2182091960930919709A401B501C7018A
:105860000E948C2FF801EF58FD4F8081882321F092
:10587000C6010E94751A03C0C6010E94611AF80190
:10588000EE58FD4F8081882329F0888999890E94EC
:10589000751A04C0888999890E94611AF801ED5827
:1058A000FD4F80818823D9F0C70165960FB6F89423
:1058B000DEBF0FBECDBFDF91CF911F910F91FF9043
:1058C000EF90DF90CF90BF90AF909F908F907F90A0
:1058D0006F905F904F903F902F900C94751AC70176
:1058E00065960FB6F894DEBF0FBECDBFDF91CF91A6
:1058F0001F910F91FF90EF90DF90CF90BF90AF90EE
:105900009F908F907F906F905F904F903F902F90DF
:105910000C94611A8F929F92CF92DF92EF92FF9236
:105920000F931F93CF93DF93CDB7DEB7D4018C9144
:10593000882399F1780169018B01FB0180819181B4
:10594000DC01ED91FC910084F185E02D19950C5B53
:105950001F4F90FF18C020E030E040E85FE3F60101
:1059600060817181828193810E94B05AD6016D93CA
:105970007D938D939C931397F70180819181A281F0
:10598000B381F80106C0F80180819181A281B381C1
:10599000F70180839183A283B383DF91CF911F911D
:1059A0000F91FF90EF90DF90CF909F908F90089590
:1059B0002F923F924F925F926F927F928F929F921F
:1059C000AF92BF92CF92DF92EF92FF920F931F930D
:1059D000CF93DF93CDB7DEB762970FB6F894DEBFF3
:1059E0000FBECDBFFC013C012CE4620E711CD30143
:1059F0002C918A599F4FBF0169597F4FAF014C5B72
:105A00005F4F2A014C5F5F4F222339F022A9DC014E
:105A10002C9381E0DB018C9328C0D2018D909D9066
:105A2000AD90BC90DA01CD90DD90ED90FC9021E03E
:105A30008C149D04AE04BF040CF020E0DC012C9318
:105A4000940197FE04C02227332728193909C6017B
:105A5000D7FE04C0882799278C199D0911E02817C3
:105A600039070CF410E0DB011C93D201CD90DD90DE
:105A7000ED90FC90C114D104E104F10461F402A1A1
:105A800013A124A135A1DF01AF59BF4F0D931D9381
:105A90002D933C931397DA018D919D910D90BC91BC
:105AA000A02D8D879E87AF87B88B9F01205C3F4FCD
:105AB000D9014D915D916D917C918D859E85AF85CC
:105AC000B889481759076A077B0734F4C816D906FE
:105AD000EA06FB067CF413C08D859E85AF85B889E8
