:100000000C9486040C94B7040C94B7040C94B704B5
:100010000C94B7040C94B7040C94B7040C94B70474
:100020000C94B7040C94B40E0C94B40E0C94B40E4F
:100030000C94B7040C94B7040C94B7040C94EB1D07
:100040000C94B7040C94BD1D0C94B7040C94B70425
:100050000C94441E0C94B7040C94B7040C9475468D
:100060000C94B7040C94F21B0C94C81B0C94B704AA
:100070000C94B7040C94B7040C94B7040C94B70414
:100080000C948F1D0C94B7040C94B7040C94B70413
:100090000C94B7040C94B7040C94B7040C94B704F4
:1000A0000C94B7040C94B7040C94611D0C94B70421
:1000B0000C94B7040C94B7040C94B7040C94331D3F
:1000C0000C94B7040C94B7040C94B7040C94B704C4
:1000D0000C94B7040C94B7040C94B7040C94B704B4
:1000E0000C94B7046E0B710B600B640B6A0BA80BBE
:1000F000750B790B7F0B830B870B8D0B910B950B7E
:10010000A80B9B0B9F0BA30BC534CA34CF34D93437
:10011000E3345C35ED34F534FD34073511351B35EA
:100120002A3534355C353E3548355235843691367E
:100130009A36A336B036B936BE3ABE3ABE3ABE3A61
:10014000BE3AC636D336E036BE3AED36F636FF3620
:100150000C3715371E37273730373937BE3A423715
:100160004B375437BE3ABE3ABE3A5D3766376F37C3
:10017000BE3ABE3A78378537BE3ABE3ABE3A923773
:100180009F37AC37BE3AB937C237CB37BE3ABE3AE3
:10019000BE3AD437DD37E637BE3AF33700380D388C
:1001A000BE3ABE3ABE3A1A3827383438BE3A4138D9
:1001B0004E385B38BE3ABE3ABE3A68387538823837
:1001C000BE3A8F389838A138BE3ABE3ABE3AC538E2
:1001D000D238DF38BE3AEC38F9380639BE3ABE3A82
:1001E000BE3A13391C392539BE3ABE3ABE3ABE3A38
:1001F000BE3ABE3ABE3A2E3937394039BE3A49394D
:1002000052395B39BE3ABE3ABE3A643971397E39E9
:10021000BE3A8B399839A539BE3ABE3ABE3AB239A0
:10022000BF39CC39BE3AD939E239EB39BE3ABE3A98
:10023000BE3AF439FD39063ABE3ABE3ABE3ABE3A43
:10024000BE3ABE3ABE3ABE3ABE3ABE3ABE3AAA3804
:10025000B338BC38BE3ABE3ABE3ABE3ABE3ABE3AEF
:10026000BE3ABE3ABE3ABE3ABE3ABE3ABE3ABE3ACE
:10027000BE3ABE3ABE3ABE3ABE3ABE3ABE3ABE3ABE
:10028000BE3ABE3ABE3ABE3ABE3ABE3ABE3ABE3AAE
:10029000BE3ABE3ABE3ABE3ABE3ABE3ABE3ABE3A9E
:1002A000BE3ABE3ABE3ABE3ABE3ABE3ABE3ABE3A8E
:1002B000BE3ABE3ABE3ABE3ABE3ABE3ABE3A0F3A2D
:1002C000183A253ABE3A323A3B3A483ABE3ABE3A32
:1002D000BE3A553A5E3A6B3ABE3A783A813A8E3A2D
:1002E000BE3ABE3ABE3A9B3AA43AB13A0C94CA34EA
:1002F0000C949C180C9439370C94A30B0C94B13AC1
:100300000C942E390C9427380C9475380C94750B7A
:100310000C94870B0C94FF070C94E0360C94783AFD
:100320000C94D9390C9466060C941F160C946439FD
:100330000C94A5390C944B370C94063A0C94E63780
:100340000C94DF380C947E180C9498380C94BC14E0
:100350000C94813A0C9468150C9427370C948B10EC
:100360000C9420160C9415370C948F100C94FF2BC2
:100370000C94BE3A0C940D180C9453160C94323A0B
:100380000C9408090C940E080C94ED360C94ED3482
:100390000C94F6360C9469060C94D2380C94B3384D
:1003A0000C9440390C942B060C9468380C948310F0
:1003B0000C9407350C94DD370C946B3A0C949839F7
:1003C0000C94FF360C941E050C946C050C94C538E7
:1003D0000C94DA2C0C9484160C948E3A0C948B3971
:1003E0000C948D0B0C94AC370C94B9050C949B3A7F
:1003F0000C9478370C942F190C94B2390C94F53472
:100400000C9400380C9471390C94A80B0C94553A48
:100410000C9481100C94D6040C94790B0C94B904B0
:100420000C942C050C9413390C94431A0C949110D1
:100430000C94F9380C9462160C94F2050C9449391A
:100440000C946B060C94BF390C9434380C9405183A
:100450000C94710B0C94C2370C9409170C94DF2C7C
:100460000C94CF340C946F370C9476160C94CC39D2
:100470000C94EC380C94F4390C94B0360C941D1692
:100480000C948D100C946E0B0C9425390C946F0603
:100490000C945B390C94561A0C945C180C940C3721
:1004A0000C9464060C946A060C940D380C94600B42
:1004B0000C943E050C9416050C94FF0A0C94A3367C
:1004C0000C9420050C947E390C941C160C94CB379C
:1004D0000C94950B0C9489100C9437390C946C5235
:1004E0000C943A180C943B3A0C941A050C94BC38B2
:1004F0000C949A360C9418050C9406390C942E051D
:100500000C9414050C9485370C94830B0C946C0696
:100510000C94EB390C944D1A0C9448350C94C02C67
:100520000C942A050C949B0B0C941B160C94241809
:100530000C9441380C946A0B0C9491360C945C35F5
:100540000C947F0B0C949F0B0C9454370C94FD343B
:100550000C94B9360C947D100C945D370C943435A2
:100560000C941C050C94FD390C941E160C94241646
:100570000C9425160C94D9340C94A1380C94F337B0
:100580000C94A43A0C9468060C9467060C94AA3850
:100590000C94C4150C9466370C94E42C0C9482389B
:1005A0000C9426050C94FE2B0C9421160C94D52C3F
:1005B0000C941C390C946E060C94183A0C94E33489
:1005C0000C949F370C94030A0C945D050C948F389F
:1005D0000C945E3A0C9442370C9424050C94BC168F
:1005E0000C9452390C946D060C94C6360C94483A0F
:1005F0000C9422160C9485100C9452350C94E2390C
:100600000C941A380C94B9370C940F3A0C945B384C
:100610000C941B350C9463100C9423160C94923795
:100620000C94640B0C9411350C9430370C94C53435
:100630000C94C7100C9487100C94253A0C946610F7
:100640000C94D4370C94910B0C944E380C94AB2C26
:100650000C9422050C9465060C947F100C94700683
:100660000C94481A0C9484360C9428050C94D336B8
:100670000C941E370C94601A0C9498100C943E3510
:100680000C942A354E414E494E495459494E46CD57
:10069000CCCC3D0AD7233C17B7D13877CC2B329539
:1006A00095E6241FB14F0A000020410000C8420017
:1006B000401C4620BCBE4CCA1B0E5AAEC59D7400E1
:1006C000407A10F35A00A0724E18090010A5D4E821
:1006D0000000E87648170000E40B54020000CA9AB4
:1006E0003B000000E1F50500008096980000004006
:1006F000420F000000A0860100000010270000004B
:1007000000E803000000006400000000000A000090
:100710000000000100000000002C76D888DC674F44
:100720000823DFC1DFAE59E1B1B796E5E3E453C674
:100730003AE651997696E8E6C28426EB898C9B626C
:10074000ED407C6FFCEFBC9C9F40F2BAA56FA5F416
:1007500090055A2AF75C936B6CF9676DC11BFCE03E
:10076000E40D47FEF520E6B500D0ED902E03009491
:100770003577050080841E080000204E0A00000026
:10078000C80C333333330F986E12831141EF8D2130
:1007900014893BE65516CFFEE6DB18D1844B381B97
:1007A000F77C1D901DA4BBE424203284725E22815C
:1007B00000C9F124ECA1E53D270000210024002719
:1007C000002A002D00300033000101000004010761
:1007D000010A0100000A0B02090C0D0E08070304B0
:1007E0000100000000000000000000000000000008
:1007F00000000000000000000000000000000012E7
:1008000011100000000000000000000000000000C7
:1008100000000000000000000000000000000000D8
:100820000000000000000000000102102020080865
:100830001020401020408002010201080402010142
:10084000020408102040808040201008040201802B
:100850000402018040201008040201080402010182
:10086000020408102040800102040810204080107B
:1008700008040880102040044080102040048000BC
:100880000020002300260029002C002F0032000049
:1008900001000003010601090100002200250028D3
:1008A000002B002E00310034000201000005010879
:1008B000010B0105050505070508080808020202E5
:1008C000020A0A08080404040401010101010101EB
:1008D000010303030303030303040707070C0C0CC2
:1008E0000C0C0C0C0C02020202060606060606069A
:1008F000060B0B0B0B0B0B0B0B07070A0A0A0A0A5A
:100900000A0505050404040808006C5211241FBEE2
:10091000CFEFD1E2DEBFCDBF00E00CBF18E0A0E01A
:10092000B2E0EAEDF8EB00E00BBF02C007900D92D9
:10093000A431B107D9F72EE0A4E1B8E001C01D92BF
:10094000AB3EB207E1F714E0C6E8D4E000E006C031
:1009500021970109802FFE010E94415AC538D10715
:1009600080E00807A9F70E94BF460C946B5C0C94CA
:100970000000EF92FF920F931F93CF93DF93FB0141
:10098000E2A8F3A802A113A1C68DD78D0E946935F4
:100990009701A801BE010E94823480E090E0DF91BF
:1009A000CF911F910F91FF90EF9008954F925F921A
:1009B0006F927F92AF92BF92CF92DF92EF92FF92AF
:1009C0000F931F93CF93DF93FB01E2A8F3A846A4F4
:1009D00057A460A871A8C6A0D7A0A2A0B3A0068DF6
:1009E000178D0E946935EC019701A501B8010E949D
:1009F0008234C301B2010E9429109701A601B801F7
:100A0000CE010E94823480E090E0DF91CF911F916F
:100A10000F91FF90EF90DF90CF90BF90AF907F90BD
:100A20006F905F904F9008950C94AB530C94AB5320
:100A30000C94AB530C94AB530C94AB530C94AB533E
:100A40000C94AB530C94AB530C94AB530C94AB532E
:100A50000C94AB530C94AB530C94AB53CF93DF93E8
:100A6000FB01D2A9C68D0E9469356D2F8C2F0E9483
:100A70001A0F80E090E0DF91CF9108950F931F93BC
:100A8000CF93DF93FB0102A913A9C68DD78D0E94D6
:100A90006935A801BE010E94163480E090E0DF9124
:100AA000CF911F910F910895662319F08AE794E082
:100AB00002C083E794E00C94FC0BCF93DF93FB011F
:100AC000C68DD78D0E94852DBE010E94262D80E007
:100AD00090E0DF91CF910895CF92DF92EF92FF9255
:100AE0000F931F93CF93DF93FB01C2A0D3A0E4A089
:100AF000F5A0068D178D0E94852DEC018A819B81C2
:100B00008F30F7E29F0724F401969B838A8302C00B
:100B10001B821A82B801CE010E94D1358823B1F020
:100B2000F801EE0FFF1FEE0FFF1FE65EF74FC082CA
:100B3000D182E282F382A7019601B801CE010E9420
:100B4000E92CB801CE010E94262D04C08DE695E067
:100B50000E94FC0B0E94E9330E94B43380E090E0D5
:100B6000DF91CF911F910F91FF90EF90DF90CF9089
:100B700008958F929F92AF92BF92CF92DF92EF92A1
:100B8000FF920F931F930E94A21462E070E00E94F4
:100B9000CA3A892BD1F40E94A21421E02F931F920C
:100BA0001F921F921F92812C912CA12CB12CC12C31
:100BB000D12C760197018601B701A6010E94801E03
:100BC0000F900F900F900F900F9080E090E01F918A
:100BD0000F91FF90EF90DF90CF90BF90AF909F90DC
:100BE0008F9008958F929F92AF92BF92CF92DF9293
:100BF000EF92FF920F931F930E94A21461E070E0A6
:100C00000E94CA3A892BD1F40E94A2141F9221E0BB
:100C10002F931F921F921F92812C912CA12CB12CEB
:100C2000C12CD12C760197018601B701A6010E9443
:100C3000801E0F900F900F900F900F9080E090E02B
:100C40001F910F91FF90EF90DF90CF90BF90AF90EA
:100C50009F908F9008958F929F92AF92BF92CF9264
:100C6000DF92EF92FF920F931F930E94A21460E015
:100C700070E00E94CA3A892BD1F40E94A2141F92FC
:100C80001F9221E02F931F921F92812C912CA12C57
:100C9000B12CC12CD12C760197018601B701A60198
:100CA0000E94801E0F900F900F900F900F9080E089
:100CB00090E01F910F91FF90EF90DF90CF90BF9049
:100CC000AF909F908F900895089508950895089586
:100CD000089508950895089508950895089508952C
:100CE0000895EF92FF920F931F93CF93DF93CDB7A9
:100CF000DEB72E970FB6F894DEBF0FBECDBF8C01C6
:100D00000E942F0C6FE875E0C8010E94B21B609131
:100D100016087091170880911808909119082AE018
:100D2000AE014F5F5F4F7A010E946E54F701019050
:100D30000020E9F73197AF014E195F09B701C801EB
:100D40000E94541B6EEE74E0C8010E94B21BC801E1
:100D50002E960FB6F894DEBF0FBECDBFDF91CF91B8
:100D60001F910F91FF90EF9008958FE895E00E94FA
:100D7000FC0B6091160870911708809118089091EB
:100D800019080E945D0C8EEE94E00C94FC0B0F93FE
:100D90001F93CF93DF93EC0182E995E00E94FC0B57
:100DA00086E995E00E94FC0B02EA1CE0F8016081F4
:100DB000CE010E9454058AE995E00E94FC0BF801DF
:100DC0006181CE010E9454058EE995E00E94FC0BE2
:100DD000F8016281CE010E94540582EA95E00E94EA
:100DE000FC0BF8016381CE010E94540586EA95E070
:100DF0000E94FC0BF8016481CE010E9454058AEA2E
:100E000095E00E94FC0BF8016581CE010E9454051B
:100E1000CE01DF91CF911F910F910C94B506CF9227
:100E2000DF92EF92FF92CF93DF93EC01888199815B
:100E3000AA81BB81181619061A061B0644F081E028
:100E400090E0A0E0B0E088839983AA83BB838C8183
:100E50009D81AE81BF81181619061A061B0644F043
:100E600081E090E0A0E0B0E08C839D83AE83BF83FF
:100E700088859985AA85BB85181619061A061B064A
:100E800044F081E090E0A0E0B0E088879987AA87ED
:100E9000BB878EEA95E00E94FC0B8BED95E00E94EB
:100EA000FC0B6091CE0E7091CF0E8091D00E909180
:100EB000D10E0E949C586B017C01688179818A81E6
:100EC0009B810E949C589B01AC01C701B6010E9406
:100ED000B65A42E00E94870C8BEE95E00E94FC0B14
:100EE0006091D20E7091D30E8091D40E9091D50E58
:100EF0000E949C586B017C016C817D818E819F8159
:100F00000E949C589B01AC01C701B6010E94B65AD1
:100F100042E00E94870C8BEF95E00E94FC0B6091F1
:100F2000D60E7091D70E8091D80E9091D90E0E9456
:100F30009C586B017C01688579858A859B850E9418
:100F40009C589B01AC01C701B6010E94B65A42E011
:100F50000E94870CCE01DF91CF91FF90EF90DF9040
:100F6000CF900C94B5068091A00C9091A10C892B88
:100F700009F040C08FE090E00E941353FC0181E033
:100F800090E0A0E0B0E080839183A283B383848368
:100F90009583A683B78380879187A287B3871586B9
:100FA000148616861092CE0E1092CF0E1092D00E8E
:100FB0001092D10E1092D20E1092D30E1092D40E27
:100FC0001092D50E1092D60E1092D70E1092D80E07
:100FD0001092D90E10921608109217081092180845
:100FE000109219081092150810921408F093A10C91
:100FF000E093A00C8091A00C9091A10C08950E9408
:10100000852D0E94692D82EB95E00E94FC0B0E94C9
:10101000B3070E94B50680E090E008952F923F92BA
:101020004F925F926F927F928F929F92AF92BF92F8
:10103000CF92DF92EF92FF920F931F93CF93DF93A4
:10104000CDB7DEB72A970FB6F894DEBF0FBECDBF7F
:101050000E94852D8091E6089091E708019729F478
:1010600086EF9FEF9E838D8304C0AAE0B0E0BE832D
:10107000AD830E94B3076091CE0E7091CF0E809128
:10108000D00E9091D10E0E949C586B017C010E9461
:10109000852D6091F6087091F7088091F80890917D
:1010A000F9080E949C589B01AC01C701B6010E943F
:1010B000B65A69837A838B839C830E94B3076091BD
:1010C000D20E7091D30E8091D40E9091D50E0E94C5
:1010D0009C586B017C010E94852D6091FA087091EB
:1010E000FB088091FC089091FD080E949C589B0190
:1010F000AC01C701B6010E94B65A2B013C01212C5C
:10110000312C8D819E81092E000CAA0BBB0B8D8387
:101110009E83AF83B88791E02916310449F0A2E09D
:101120002A16310419F10E94A214B1E0BF9322C023
:101130000E94A2149A8789876D817E818F8198850C
:101140000E949C586B017C011F921F921F921F925C
:101150001F92812C912CA12CB12C930182014981E9
:101160005A816B817C8189859A8515C00E94A21461
:10117000E1E0EF931F921F921F921F92812C912CFE
:10118000A12CB12CC12CD12C760193018201498173
:101190005A816B817C810E94801E0F900F900F906E
:1011A0000F900F900E94B30780911408909115083A
:1011B0009A8789870E94B307DC011E968C91811162
:1011C0000CC0E985FA85EF2B41F4FFEF2F1A3F0A97
:1011D00023E02216310409F09ECF80E090E02A96A9
:1011E0000FB6F894DEBF0FBECDBFDF91CF911F9138
:1011F0000F91FF90EF90DF90CF90BF90AF909F90B6
:101200008F907F906F905F904F903F902F900895B8
:101210002F923F924F925F926F927F928F929F9206
:10122000AF92BF92CF92DF92EF92FF920F931F93F4
:10123000CF93DF93CDB7DEB72A970FB6F894DEBF12
:101240000FBECDBF0E94852D8091E6089091E708E2
:10125000019729F486EF9FEF9E838D8304C0AAE057
:10126000B0E0BE83AD830E94B3076091CE0E709153
:10127000CF0E8091D00E9091D10E0E949C582B01E0
:101280003C010E94852D6091F6087091F7088091CD
:10129000F8089091F9080E949C589B01AC01C30189
:1012A000B2010E94B65A69837A838B839C830E9421
:1012B000B3076091D60E7091D70E8091D80E9091A1
:1012C000D90E0E949C582B013C010E94852D6091F3
:1012D000FE087091FF0880910009909101090E9419
:1012E0009C589B01AC01C301B2010E94B65A2B016C
:1012F0003C01212C312C8D819E81092E000CAA0BE2
:10130000BB0B8D839E83AF83B88791E02916310490
:1013100051F0A2E02A16310421F10E94A2141F927A
:10132000B1E0BF9323C00E94A2149A8789876D8180
:101330007E818F8198850E949C588B019C011F9211
:101340001F921F921F921F92812C912CA12CB12CC5
:101350007301620149815A816B817C8189859A85FB
:1013600015C00E94A2141F92E1E0EF931F921F92FA
:101370001F92812C912CA12CB12C7301620100E0F1
:1013800010E0980149815A816B817C810E94801E06
:101390000F900F900F900F900F900E94B3078091C5
:1013A0001408909115089A8789870E94B307DC0179
:1013B0001E968C9181110CC0E985FA85EF2B41F4C2
:1013C000FFEF2F1A3F0A23E02216310409F09DCFC8
:1013D00080E090E02A960FB6F894DEBF0FBECDBF36
:1013E000DF91CF911F910F91FF90EF90DF90CF9001
:1013F000BF90AF909F908F907F906F905F904F9035
:101400003F902F9008952F923F924F925F926F924C
:101410007F928F929F92AF92BF92CF92DF92EF9284
:10142000FF920F931F93CF93DF93CDB7DEB72A9729
:101430000FB6F894DEBF0FBECDBF0E94852D809100
:10144000E6089091E708019729F486EF9FEF9E83C5
:101450008D8304C0AAE0B0E0BE83AD830E94B307D1
:101460006091D20E7091D30E8091D40E9091D50ED2
:101470000E949C582B013C010E94852D6091FA0826
:101480007091FB088091FC089091FD080E949C5887
:101490009B01AC01C301B2010E94B65A69837A83F1
:1014A0008B839C830E94B3076091D60E7091D70EF8
:1014B0008091D80E9091D90E0E949C582B013C012E
:1014C0000E94852D6091FE087091FF0880910009AF
:1014D000909101090E949C589B01AC01C301B2018B
:1014E0000E94B65A2B013C01212C312C8D819E810A
:1014F000092E000CAA0BBB0B8D839E83AF83B8878C
:1015000091E02916310459F0A2E02A16310429F19C
:101510000E94A2141F921F92B1E0BF9324C00E94A8
:10152000A2149A8789876D817E818F8198850E9418
:101530009C58AB01BC011F921F921F921F921F92D9
:10154000812C912CA12CB12C7301620109811A818B
:101550002B813C8189859A8515C00E94A2141F9217
:101560001F92E1E0EF931F921F92812C912CA12CEE
:10157000B12C7301620109811A812B813C8140E009
:1015800050E0BA010E94801E0F900F900F900F90B4
:101590000F900E94B30780911408909115089A87C4
:1015A00089870E94B307DC011E968C9181110CC0C3
:1015B000E985FA85EF2B41F4FFEF2F1A3F0A23E06C
:1015C0002216310409F09CCF80E090E02A960FB6F5
:1015D000F894DEBF0FBECDBFDF91CF911F910F9169
:1015E000FF90EF90DF90CF90BF90AF909F908F9043
:1015F0007F906F905F904F903F902F9008950E9442
:10160000B307FC01168680E090E00895CF93DF9346
:101610008FE30E94BE0EEC010E94B30781E0CD2B48
:1016200009F480E08093A20C80E40E94BE0EEC01DD
:101630000E94B30781E0CD2B09F480E08093A30CD6
:101640008EE00E94BE0EEC010E94B30781E0CD2B1C
:1016500009F480E08093A40C8FE00E94BE0EEC01A0
:101660000E94B30781E0CD2B09F480E08093A50CA4
:101670008CE00E94BE0EEC010E94B30781E0CD2BEE
:1016800009F480E08093A60C89E00E94BE0EEC0174
:101690000E94B30781E0CD2B09F480E08093A70C72
:1016A000DF91CF91089590E0FC013197E231F1058F
:1016B00008F04EC08827EE58FF4F8F4F0C94415AC8
:1016C000809180008F7703C0809180008F7D809310
:1016D0008000089580918000877FF9CF84B58F774F
:1016E00002C084B58F7D84BD08958091B0008F774E
:1016F00003C08091B0008F7D8093B00008958091E9
:1017000090008F7707C0809190008F7D03C08091FB
:101710009000877F8093900008958091A0008F773C
:1017200007C08091A0008F7D03C08091A000877FBB
:101730008093A0000895809120018F7707C0809149
:1017400020018F7D03C080912001877F809320013D
:101750000895009769F0FC0101900020E9F73197A6
:10176000AF01481B590BBC0189EA9CE00C9425167B
:1017700080E090E008958F929F92AF92BF920F9376
:101780001F93CF93DF93CDB7DEB7A1970FB6F89431
:10179000DEBF0FBECDBF19A2423008F44AE08E0171
:1017A0000F5D1F4F842E912CA12CB12CA50194010B
:1017B0000E94045AE62FB901CA0101501109EA300A
:1017C00014F4E05D01C0E95CD801EC93232B242BD9
:1017D000252B61F7C8010E94A90BA1960FB6F894BA
:1017E000DEBF0FBECDBFDF91CF911F910F91BF9094
:1017F000AF909F908F9008950C94A90BEF92FF9259
:101800000F931F93CF93DF93CDB7DEB764970FB6D7
:10181000F894DEBF0FBECDBF7C01CB01BA018E01B3
:101820000F5F1F4F22E044E00E94F352FC01019041
:101830000020E9F73197AF01481B590BBC01C701E4
:101840000E94541B64960FB6F894DEBF0FBECDBF46
:10185000DF91CF911F910F91FF90EF900895CF935B
:10186000DF93EC01198218821B821A821D821C826E
:1018700060E070E00E942D1B2881398181110FC02A
:101880002115310519F0C9010E94AB531982188244
:101890001D821C821B821A82DF91CF9108951D82C6
:1018A0001C8260EF74E0C901DF91CF910C94645CFD
:1018B000682F89EA9CE00C94BC16CF92DF92EF92DD
:1018C000FF92CF93DF9397FF19C06B017C018DE2EC
:1018D0000E94580CEC0166277727CB016C197D0913
:1018E0008E099F094AE00E94BB0B8C0F9D1FDF9160
:1018F000CF91FF90EF90DF90CF9008954AE0DF9175
:10190000CF91FF90EF90DF90CF900C94BB0B8F9214
:101910009F92AF92BF92CF92DF92EF92FF920F937E
:101920001F93CF93DF936B017C01142F9B01AC01BC
:101930000E94635B882319F086EB95E027C046017F
:101940005701E894B7F82FEF3FEF4FE75FE7C50186
:10195000B4010E94635B81110DC02FEF3FEF4FE791
:101960005FE7C501B4010E94955818161CF48AEB74
:1019700095E00CC02FEF3FEF4FE75FE4C701B601E2
:101980000E945E5B181684F48EEB95E0DF91CF9198
:101990001F910F91FF90EF90DF90CF90BF90AF908D
:1019A0009F908F900C94A90B2FEF3FEF4FE75FECC8
:1019B000C701B6010E94955887FDE6CF20E030E0D0
:1019C000A901C701B6010E94955887FF09C08DE2A1
:1019D0000E94580CEC01F7FAF094F7F8F09402C06A
:1019E000C0E0D0E000E060E070E080E09FE310172E
:1019F00041F020E030E040E251E40E94B65A0F5F2F
:101A0000F6CFA70196010E944A5A6B017C010E9401
:101A10002F5B4B015C014AE00E94BB0BC80FD91F32
:101A20001123A9F1C501B4010E949A589B01AC0190
:101A3000C701B6010E94495A6B017C018EE20E94E7
:101A4000580CC80FD91F20E030E040E251E4C70134
:101A5000B6010E94FB584B015C010E942F5B6B0199
:101A6000E12CF12C4AE0C701B6010E94BB0BC80F64
:101A7000D91FC701B6010E949A589B01AC01C5014C
:101A8000B4010E94495A6B017C011150E1F6CE016C
:101A9000DF91CF911F910F91FF90EF90DF90CF904A
:101AA000BF90AF909F908F900895BC01990F880BC5
:101AB000990B0C945D0CDC0152968C91529760FB53
:101AC00084F952968C935297282F53963C915397B2
:101AD00054968C915497482F437050E0ED91FC91AF
:101AE00011970190F081E02D60E0CD0119946031F3
:101AF000710509F441C088F46230710509F454C0DD
:101B000020F4672B09F458C008956430710509F476
:101B100043C068307105C1F1089560347105E1F08A
:101B200020F46032710501F108956038710561F0AB
:101B30006115714009F048C0DC01ED91FC9102880B
:101B4000F389E02D60E03FC0DC01ED91FC9102885B
:101B5000F389E02D61E037C0DC01ED91FC91028852
:101B6000F389E02D62E02FC0DC01ED91FC91028849
:101B7000F389E02D63E027C0DC01ED91FC91028840
:101B8000F389E02D64E01FC0DC01ED91FC91028837
:101B9000F389E02D65E017C0DC01ED91FC9102882E
:101BA000F389E02D66E00FC0DC01ED91FC91028825
:101BB000F389E02D67E007C0DC01ED91FC9102881C
:101BC000F389E02D68E019940895CF92DF92EF92A7
:101BD000FF921F93CF93DF93EC0180E090E00E948F
:101BE0009A5825ED34E045E352E40E94FB5820E08A
:101BF00030E04AE754E40E94B65A6B017C012AE0C7
:101C000037ED43EA5CE369857A858B859C850E9484
:101C10004A5AA70196010E94FB5826E636E646EA94
:101C20005EE30E94B65A20E030E040E85FE30E94A5
:101C3000495A0E942F5B162FE881F9810480F581B3
:101C4000E02D603108F561E0CE0119952AE037ED0D
:101C500043EA5CE369857A858B859C850E944A5AB4
:101C6000A70196010E94FB582CEE31E548E35EE3A4
:101C70000E94B65A20E030E040E85FE30E94495AF3
:101C80000E942F5B162F03C060E0CE011995103221
:101C900008F01FE1912F9F718B81807E892B8B83B0
:101CA0002A81382F8C81482F4F7050E0E881F981CC
:101CB0000190F081E02D60E1CE011995612F70E077
:101CC00080E090E00E949C582D853E854F85588984
:101CD0000E94FB580E942F5B6F718A81807E682B67
:101CE0006A83262F3B818C81482F4F7050E0E8811A
:101CF000F9810190F081E02D60E1CE01DF91CF917B
:101D00001F91FF90EF90DF90CF901994DC01ED913F
:101D1000FC910280F381E02D6CE61994CF92DF9262
:101D2000EF92FF92FC01C12C92E1D92E9AE7E92EA5
:101D3000F12C20E04C155D056E057F0540F4F6940E
:101D4000E794D794C7942F5F2630A1F727E091E05E
:101D50009227292F286B2695208391709183FF90DD
:101D6000EF90DF90CF9008951F920F920FB60F92D1
:101D700011240F900FBE0F901F901895CF93DF93F3
:101D8000282F30E0F901ED52F84F8491F901E75D19
:101D9000F74FD491F901ED54F74FC491CC2391F052
:101DA00081110E94530BEC2FF0E0EE0FFF1FE15862
:101DB000F74FA591B491EC91ED2381E090E021F4EF
:101DC00080E002C080E090E0DF91CF9108951F9302
:101DD000CF93DF93282F30E0F901ED52F84F849133
:101DE000F901E75DF74FD491F901ED54F74FC49134
:101DF000CC23C1F0162F81110E94530BEC2FF0E081
:101E0000EE0FFF1FE756F74FA591B4919FB7F894D7
:101E1000111104C08C91D095D82302C0EC91DE2B17
:101E2000DC939FBFDF91CF911F910895FC0181A9A1
:101E30000C94E70ECF93DF9390E0FC01E75DF74F42
:101E40002491FC01ED54F74F8491882361F190E0D7
:101E5000880F991FFC01E754F84FC591D491FC01FC
:101E6000E756F74FA591B491611109C09FB7F89457
:101E70008881209582238883EC912E230BC06230C9
:101E800061F49FB7F8948881322F3095832388833B
:101E9000EC912E2B2C939FBF06C08FB7F894E8814E
:101EA0002E2B28838FBFDF91CF9108950F931F931F
:101EB000CF93DF93EC0161E089A90E941A0F61E0E2
:101EC000CE010E94160F0BA91CA90115110509F4DA
:101ED00056C061E0F80180810E941A0F61E0F801AC
:101EE00084810E941A0F62E0F80182810E941A0F19
:101EF000F80140815181FA01ED54F74FE491F0E08F
:101F0000EE0FFF1FE756F74F85919491F8019287E6
:101F1000818722813381F901ED54F74FE491F0E09C
:101F2000EE0FFF1FE158F74F85919491F8019487C8
:101F3000838784819581FC01ED54F74FE491F0E0B3
:101F4000EE0FFF1FE756F74FA591B491F801B68742
:101F5000A587FA01E75DF74F4491F8014683F9013F
:101F6000E75DF74F2491F8012783FC01E75DF74F08
:101F70009491F80190878C91E92FE82BEC932A89B2
:101F80003B898C89482F437050E0E881F9810190AA
:101F9000F081E02D60E0CE0119952AA13BA14CA172
:101FA0005DA1E881F9810190F081E02D6CE6CE0120
:101FB00019952EA13FA148A559A55170E881F98135
:101FC0000190F081E02D6DE6CE0119952DA53EA57D
:101FD0008FA5482F4F7350E0E881F9810190F0817F
:101FE000E02D60E7CE0119952A813B818C81482F35
:101FF0004F7050E0E881F9810190F081E02D60E1BF
:10200000CE0119958AA1807F88608AA32AA13BA16D
:102010004CA15DA1E881F9810190F081E02D6CE691
:10202000CE011995E881F9810688F789E02D61E0F4
:10203000CE01DF91CF911F910F91199482309105BC
:1020400038F0880F991F880F991F05970197F1F7AE
:1020500008958F929F92AF92BF92CF92DF92EF92AC
:10206000FF926B017C010E9444464B015C01C1144C
:10207000D104E104F104F1F00E944446DC01CB01FB
:1020800088199909AA09BB09883E9340A105B105A1
:1020900070F321E0C21AD108E108F10888EE880E39
:1020A00083E0981EA11CB11CC114D104E104F10409
:1020B00019F7DDCFFF90EF90DF90CF90BF90AF90FA
:1020C0009F908F9008958FEF9FEF089582EC95E099
:1020D0000E94FC0B8AE793E00E94FC0B8FE593E0E3
:1020E0000E94FC0B80EF94E00E94FC0B0E94B3075F
:1020F0000E94B50680E090E008950C94AB530C94D8
:10210000AB530C94AB530C94AB530C94AB530C9457
:10211000AB530C94AB530C94AB530C94AB530C9447
:10212000AB530E94B3070E940F0780E090E0089530
:1021300087EC95E00E94FC0B0E94B3070E94060BFF
:102140000E94B3070E94C7060E94693540E050E034
:1021500068E070E00E9416340E94693540E050E06B
:1021600069E070E00E9416340E94693540E050E05A
:102170006AE070E00E9416340E94693540E050E049
:102180006DE070E00E94163480E090E008950F93B7
:102190001F93CF93DF93FB0102A113A1C68DD78DAF
:1021A0000E946D1EC530D105E1F064F4249771F5ED
:1021B0006DE070E089ED9DE00E94AB1CB80189EDF7
:1021C0009DE022C0C630D105B1F02B97F9F464E050
:1021D00070E082EE9DE00E94AB1CB80182EE9DE0B3
:1021E00013C06BE070E08CED9DE00E94AB1CB80169
:1021F0008CED9DE009C06AE070E08FED9DE00E94EB
:10220000AB1CB8018FED9DE00E94281C80E090E09F
:10221000DF91CF911F910F910895CF93DF93EC0140
:1022200086E390E09C8F8B8F87E390E09E8F8D8F6D
:1022300086E290E098A38F8F8AE190E09AA389A329
:102240008CE190E09CA38BA388E190E09EA38DA3FA
:102250008FE390E098A78FA380E490E09AA789A7E6
:10226000FE01E057FF4F8CE390E0948783878DE376
:1022700090E09687858788E390E0908B8787128A25
:10228000118A148A138A168A158A8EE090E0908F3C
:10229000878B8FE090E0928F818FE058FF4F8BE229
:1022A00090E09487838780E390E0968785878AE330
:1022B00090E0908B8787128A118A148A138A168A73
:1022C000158A8CE090E0908F878B89E090E0928F68
:1022D000818FEA5EFE4F1182108232961182108247
:1022E000329611821082CE010E94F725CE010E9403
:1022F0005744FE01EB50FD4F8081918172974081E0
:10230000518162817381E355F140DE01A352BD4FDB
:102310002D913C91358F248F448B558B668B778B19
:10232000019719F48FEF9FEF02C081E090E0978F43
:10233000868FFE01E950FD4F808191817097408129
:10234000518162817381E952F140DE01A152BD4F9A
:102350002D913C91358F248F448B558B668B778BD9
:10236000019719F48FEF9FEF02C081E090E0978F03
:10237000868FFE01E750FD4F808191813E9740811D
:10238000518162817381EF5FF109CF51DD4F288167
:102390003981358F248F448B558B668B778B0197D2
:1023A00019F48FEF9FEF02C081E090E0978F868F46
:1023B000DF91CF9108952F923F924F925F926F924B
:1023C0007F928F929F92AF92BF92CF92DF92EF92C5
:1023D000FF920F931F93CF93DF93CDB7DEB7C05813
:1023E000D1090FB6F894DEBF0FBECDBF8C01FC0142
:1023F0001082118212821382148215821682178231
:102400001086118612861386148615861686178600
:102410004C01F0E18F0E911CC4010E944E43580103
:1024200080E9A80EB11CC5010E944E436801E0EF8F
:10243000CE1AEEEFDE0AC6010E944E437801F0E7A5
:10244000EF1AFEEFFF0AC7010E94602E380182E4F6
:10245000681A8EEF780AC3010E94602E2801E4E119
:102460004E1AEEEF5E0AC2010E94602EC801865E1F
:102470009D4F0E942F0CF801E05EFD4F11821082EB
:102480003296118210823296118210823296118217
:102490001082329611821082329611821082329608
:1024A00010823196108231961082319610821182FC
:1024B0001282138234961082118212821382349611
:1024C000108211821282138234961082118212823B
:1024D00013823496108211821282138234961082F3
:1024E0001182128213823496108211821282138218
:1024F00034961082118212821382349610821182D5
:1025000012821382349610821182128213823496C0
:1025100010821182128213823496108211821282EA
:102520001382349610823196108231961082319641
:1025300010821182128213823496108211821282CA
:102540001382349610821182128213823496108282
:102550003196108231961082319610823196108217
:102560003196108231961082319610823196108207
:1025700031961082319610823196108231961082F7
:1025800031961082319610823196108231961082E7
:1025900031961082319610823196108231961082D7
:1025A00031961082319610823196108231961082C7
:1025B0001182128213823496108211821282138247
:1025C00034961082118212821382D801AE56BD4F0A
:1025D0008CE0EEE6F3E001900D928A95E1F7F801C8
:1025E000E256FD4F108211821282138234961082BD
:1025F0001182128213823496108211821282138207
:102600003496118210823296118210823296118293
:1026100010823296108211821282138234961082B6
:1026200011821282138234961082118212821382D6
:102630003496108211821282138234961082118293
:10264000128213823496108211821282138234967F
:10265000118210823296118210823296118210827B
:102660003296108211821282138234961082118265
:10267000128213823496108211821282138234964F
:10268000108231961082319610823196118210821A
:102690003296118210823296118210823296108206
:1026A0001182128213823496108211821282138256
:1026B0003496108211821282138234961182108213
:1026C00032961182108232961182108232961182D5
:1026D00010823296118210823296118210823296C6
:1026E000118210823296118210821801F1E02F1AA5
:1026F000FDEF3F0AF10110823196108211821282A1
:102700001382CE0101960E944E4380E8FE0131966D
:10271000D40101900D928A95E1F7CE0101960E94B5
:102720004E4380E8FE013196D50101900D928A95C5
:10273000E1F7CE0101960E944E4380E8FE013196FA
:10274000D60101900D928A95E1F788E5F801848B16
:10275000EC56FF4F89E58083E058FF4F8AE5808380
:10276000CE0101960E94602E8EE2FE013196D701C5
:1027700001900D928A95E1F7CE0101960E94602E9C
:102780008EE2FE013196D30101900D928A95E1F718
:10279000CE0101960E94602E8EE2FE013196D2019A
:1027A00001900D928A95E1F7C8010E940D11F10187
:1027B0001082C058DF4F0FB6F894DEBF0FBECDBFFA
:1027C000DF91CF911F910F91FF90EF90DF90CF900D
:1027D000BF90AF909F908F907F906F905F904F9041
:1027E0003F902F9008950F931F93CF93DF938B010A
:1027F000EA0186E893E00E94FC0B85EC95E00E94DC
:10280000FC0BF80184810E94580CCE010E94550DEA
:102810000E94B307DF91CF911F910F910C94B506E1
:10282000CF92DF92EF92FF920F931F93CF93DF939C
:10283000CDB7DEB728970FB6F894DEBF0FBECDBF79
:102840008B016A01865E9D4F7C0162E873E00E9405
:10285000B21B65EC75E0C7010E94B21BF8018481D0
:1028600089831A8241E050E08E010F5F1F4FB8014B
:10287000C7010E94541B4AE0B801C6010E9463547C
:10288000F80101900020E9F73197AF01401B510B8F
:10289000B801C7010E94541B0E94B307BC01C801C4
:1028A0000E947106B801C7010E94C11B89819A81EB
:1028B0000E94AB5328960FB6F894DEBF0FBECDBF73
:1028C000DF91CF911F910F91FF90EF90DF90CF900C
:1028D0000895FC01DB01A759BF4F8C91882319F0A3
:1028E00022E030E002C020E030E0DB01A559BF4F1C
:1028F0008C91882311F023E030E0DB01A659BF4F13
:102900008C91882311F024E030E0DB01A459BF4F03
:102910008C91882311F026E030E0DA018D919C91B2
:102920002817390721F091E0121613060CF090E0F9
:10293000DA012D933C93992321F0A901CF010C9446
:1029400010140895CF93DF938091BF0E9091C00E25
:10295000892B59F484E093E00E941353EC010E9408
:10296000DB11D093C00EC093BF0E8091BF0E90912B
:10297000C00EDF91CF9108954F925F926F927F9238
:102980008F929F92AF92BF92CF92DF92EF92FF927F
:102990000F931F93CF93DF9300D01F92CDB7DEB775
:1029A0000E94852D4090F6085090F7086090F80836
:1029B0007090F9080E94852D8090FA089090FB088D
:1029C000A090FC08B090FD080E94B307C090CE0E06
:1029D000D090CF0EE090D00EF090D10E0E94B307B1
:1029E000C701B6010E949C586B017C01C301B20172
:1029F0000E949C589B01AC01C701B6010E94B65AC7
:102A00002B013C016091D20E7091D30E8091D40EB7
:102A10009091D50E0E949C586B017C01C501B401B8
:102A20000E949C589B01AC01C701B6010E94B65A96
:102A300069837A838B839C830E94A2141F921F92C6
:102A40001F921F921F92812C912CA12CB12CC12C72
:102A5000D12C760109811A812B813C81B301A2011D
:102A60000E94801E0E94A2141F921F921F921F920A
:102A70001F9297018601B301A2010E94801E0E944D
:102A8000A2141F921F921F921F921F9297018601FC
:102A9000B701A6010E94801E0FB6F894DEBF0FBEDC
:102AA000CDBF80E090E00F900F900F900F90DF91DE
:102AB000CF911F910F91FF90EF90DF90CF90BF903B
:102AC000AF909F908F907F906F905F904F90089500
:102AD0004F925F926F927F928F929F92AF92BF922E
:102AE000CF92DF92EF92FF920F931F93CF93DF93DA
:102AF00000D000D0CDB7DEB7FB0126892D838789B2
:102B00008E8382889388A684B784C284D384E48425
:102B1000F584468057806084718482819381A4818A
:102B2000B58189839A83AB83BC830E94A2141F92D0
:102B30001F921F92AE81AF93BD81BF93930182011B
:102B400049815A816B817C810E94801E0F900F9079
:102B50000F900F900F9080E090E026960FB6F894BB
:102B6000DEBF0FBECDBFDF91CF911F910F91FF90C0
:102B7000EF90DF90CF90BF90AF909F908F907F901D
:102B80006F905F904F900895CF93DF93EB0120E01B
:102B900030E040E85FE36A817B818C819D810E9407
:102BA000955881110DC08EEC95E00E94FC0B0E949F
:102BB000A2148C5A9F4FFC01108211821282138240
:102BC00020E030E040E85FE36E817F818885998571
:102BD0000E94955881110DC08EED95E00E94FC0B6E
:102BE0000E94A2148C529F4FFC011082118212820B
:102BF000138220E030E040E85FE36A857B858C85C6
:102C00009D850E94955881110DC08EEE95E00E9421
:102C1000FC0B0E94A2148C5A9E4FFC011082118260
:102C2000128213820E94B3070E94B50680E090E0F2
:102C3000DF91CF9108950895089508950895089516
:102C400008950895089508950895CF92DF92EF9220
:102C5000FF920F931F93CF93DF936C017A018B0147
:102C6000C0E0D0E0CE15DF0581F0D8016D918D0177
:102C7000D601ED91FC910190F081E02DC6011995EE
:102C8000892B11F02196EECF7E01C701DF91CF9104
:102C90001F910F91FF90EF90DF90CF9008950895CE
:102CA00080E090E00895FC01538D448D252F30E0A5
:102CB000842F90E0821B930B541710F0CF96089549
:102CC00001970895FC01918D828D981761F0828D96
:102CD000DF01A80FB11D5D968C91928D9F5F9F7350
:102CE000928F90E008958FEF9FEF0895FC01918DF2
:102CF000828D981731F0828DE80FF11D858D90E05F
:102D000008958FEF9FEF0895FC01918D228D892FFB
:102D100090E0805C9F4F821B91098F7399270895E3
:102D200089EA9CE00E94841621E0892B09F420E0C6
:102D3000822F0895FC01848DDF01A80FB11DA35AD5
:102D4000BF4F2C91848D90E001968F739927848FCB
:102D5000A689B7892C93A089B1898C9183708064EE
:102D60008C93938D848D981306C00288F389E02D8F
:102D700080818F7D80830895EF92FF920F931F9340
:102D8000CF93DF93EC0181E0888F9B8D8C8D98131E
:102D900005C0E889F989808185FD26C0F62E0B8D56
:102DA00010E00F5F1F4F0F731127E02E8C8DE8127C
:102DB0000CC00FB607FCFACFE889F989808185FF3E
:102DC000F5CFCE010E949A16F1CF8B8DFE01E80F50
:102DD000F11DE35AFF4FF0829FB7F8940B8FEA89F9
:102DE000FB89808180620AC09FB7F894EE89FF89D1
:102DF0006083E889F98980818370806480839FBFC4
:102E000081E090E0DF91CF911F910F91FF90EF90C3
:102E10000895CF93DF93EC01888D8823C9F0EA8968
:102E2000FB89808185FD05C0A889B9898C9186FDC3
:102E30000FC00FB607FCF5CF808185FFF2CFA889C0
:102E4000B9898C9185FFEDCFCE010E949A16E7CF0C
:102E5000DF91CF91089580E090E0892B21F00E94CE
:102E60009016811125C080E090E0892B41F080E030
:102E700090E0892B21F00E94000081111CC080E0AD
:102E800090E0892B41F080E090E0892B21F00E94B6
:102E90000000811113C080E090E0892BA1F080E058
:102EA00090E0892B81F00E94000081110AC00895F2
:102EB0000E940000D8CF0E940000E1CF0E940000D5
:102EC000EACF0C9400000895CF93DF93FC01A58511
:102ED000B6859C918085809589238C9327E030E08E
:102EE00080E0C62FD0E0722FA185B2859681AE0119
:102EF000022E02C0559547950A94E2F740FF03C0A1
:102F00004C91942B03C04C91909594239C93A58550
:102F1000B6854C919085942B9C93A385B4854C9158
:102F20009781942341E050E011F440E050E001C06B
:102F3000440F7A95EAF7842BA585B6854C91908548
:102F4000909594239C932150310969F6A185B2850F
:102F500096812C9160FF02C0922B02C09095922323
:102F60009C93A585B6852C919085922B9C93A385E7
:102F7000B4852C919781922321E009F420E0822BE3
:102F8000DF91CF9108950F931F93CF93DF938C011F
:102F9000D62F672F0E946417C82F6D2FC8010E947B
:102FA00064172C2F30E0322F2227A901482BCA01A9
:102FB000DF91CF911F910F91089508950CB405FCF6
:102FC0000DC09EBD00000DB407FEFDCF9EB58EBDA9
:102FD00000000DB407FEFDCF8EB508958EBD000034
:102FE0000DB407FEFDCF8EB59EBD00000DB407FEEB
:102FF000FDCF9EB508958EBD00000DB407FEFDCF38
:103000008EB508958CBD9DBD0895DC01ED91FC91B8
:103010000280F381E02D6FE619946F70DC019596C4
:103020002C919597207F622B95966C93959792960D
:103030002D913D914D915C919597ED91FC91019071
:10304000F081E02D6CE61994DC0194962C91949714
:1030500060FB21F994962C93949792962D913D9133
:103060004D915C919597ED91FC910190F081E02D4F
:103070006CE61994DC0193968C91939760FB87F929
:1030800093968C9393976695617094968C91949790
:103090008E7F682B94966C93949792962D913D9188
:1030A0004D915C919597ED91FC9111970190F08174
:1030B000E02D6CE6CD011994DC0192968C919297EB
:1030C00060FB87F992968C939297669567709396BA
:1030D0008C919397887F682B93966C939397929695
:1030E0002D913D914D915C919597ED91FC911197AA
:1030F0000190F081E02D6CE6CD011994DC01677040
:10310000962F9295907F92966C9192976F78692BFB
:1031100092966C93929792962D913D914D915C91E0
:103120009597ED91FC9111970190F081E02D6CE65F
:10313000CD0119940E944D5C4F925F926F927F92E5
:103140008F929F92AF92BF92FF920F931F93CF9354
:10315000DF931F921F92CDB7DEB78C0149015A0150
:103160006068F62EFC0183A994A9250166247724C2
:10317000892B99F160E0C8010E94160F6F2DF801AC
:1031800083A994A90E946417F801818BB20183A9D5
:1031900094A90E94C317B401F80183A994A90E94BD
:1031A000C317FF24F394F80185A9F8160CF043C067
:1031B00060E070E083A994A90E94C31760E070E00A
:1031C000F80183A994A90E94C31760E0F80183A9BC
:1031D00094A90E946417F394E6CF40E854E86EE1A6
:1031E00070E0CE0101960E948E0E89819A810E9424
:1031F000021860E0C8010E94160F8F2D0E94FB1775
:10320000F801818BC2010E94DE17C4010E94DE1703
:10321000FF24F394F80185A9F8166CF480E090E09F
:103220000E94DE1780E090E00E94DE1780E00E949E
:10323000FB17F394EFCF61E0C8010E94160F0F90C7
:103240000F90DF91CF911F910F91FF90BF90AF90A2
:103250009F908F907F906F905F904F900895CF9246
:10326000DF92EF92FF920F931F93CF93DF931F9202
:103270001F92CDB7DEB78C01E62EFC0183A994A97D
:10328000892B09F484C060E0C8010E94160F6E2DDE
:10329000F80183A994A90E94641760E070E0F80126
:1032A00083A994A90E94C31760E070E0F80183A984
:1032B00094A90E94C317FF24F394F80185A9F81676
:1032C000ACF460E070E083A994A90E94C31760E0A9
:1032D00070E0F80183A994A90E94C31760E0F80187
:1032E00083A994A90E946417F394E7CF61E0C80111
:1032F0000E94160F60E0C8010E94160F2091A80CD2
:10330000F80183A994A9F2169CF460E070E00E9491
:10331000C31760E070E0F80183A994A90E94C31765
:1033200060E0F80183A994A90E946417F394E6CFA2
:103330006E2D0E946417F801818B60E083A994A927
:103340000E946417C82ED12CE12CF12CFE2CED2C00
:10335000DC2CCC2460E0F80183A994A90E946417B6
:10336000C82AFE2CED2CDC2CCC2460E0F80183A9CB
:1033700094A90E946417C82AFE2CED2CDC2CCC24C6
:1033800060E0F80183A994A90E9464176AC040E82C
:1033900054E86EE170E0CE0101960E948E0E8981A4
:1033A0009A810E94021860E0C8010E94160F8E2DBB
:1033B0000E94FB1780E090E00E94DE1780E090E022
:1033C0000E94DE17FF24F394F80185A9F8166CF427
:1033D00080E090E00E94DE1780E090E00E94DE171F
:1033E00080E00E94FB17F394EFCF61E0C8010E94D8
:1033F000160F60E0C8010E94160F8091A80CF81605
:103400006CF480E090E00E94DE1780E090E00E9483
:10341000DE1780E00E94FB17F394EFCF8E2D0E9401
:10342000FB17F801818B80E00E94FB17C82ED12C7E
:10343000E12CF12CFE2CED2CDC2CCC2480E00E9425
:10344000FB17C82AFE2CED2CDC2CCC2480E00E943B
:10345000FB17C82AFE2CED2CDC2CCC2480E00E942B
:10346000FB17C82A61E0C8010E94160FC701B60108
:103470000F900F90DF91CF911F910F91FF90EF90E0
:10348000DF90CF9008950E94860E892F8F70089547
:103490000E94860E8695817008950E94860E771F81
:1034A0007727771F8170880F872B08950E94860EDB
:1034B000862F881F8827881F7770770F872B08959E
:1034C0000E94860E862F829587700895CF92DF9294
:1034D000EF92FF920F931F93CF93DF936C018B01B9
:1034E0007A01EC01CC53D14F888187FF04C0FB01E6
:1034F0001182108224C02CE02C9DC0012D9D900DC6
:1035000011242881AC01420F511D27FD5A952091AD
:10351000D80D30E04217530794F42881AC01420FD4
:10352000511D27FD5A959A01FA01EE0FFF1F2E0F2C
:103530003F1FF901E85BF24F208126FD19C0888109
:103540008F5F88832CE02C9DC0012D9D900D112450
:103550002881AC01420F511D27FD5A952091D80DAD
:1035600030E042175307BCF428812C3044F113C0DB
:103570002881820F911D27FD9A95FC01EE0FFF1FF8
:103580008E0F9F1FFC01E85BF24F808160E08F731C
:103590000E94E70ED4CFF801808191810496803497
:1035A0009C4918F480E49CE904C0F8018081918171
:1035B0000496F701918380838FEF888345C0F801DB
:1035C000408151812881BC01620F711D27FD7A95D0
:1035D0009B01FB01EE0FFF1F2E0F3F1FF901E85B60
:1035E000F24F21813281240F351FF701318320836F
:1035F0002881AC01420F511D27FD5A959A01FA010D
:10360000EE0FFF1F2E0F3F1FF901E85BF24F2081E5
:1036100026FF1AC02881820F911D27FD9A95FC0173
:10362000EE0FFF1F8E0F9F1FFC01E85BF24F8081A2
:1036300061E08F73DF91CF911F910F91FF90EF9019
:10364000DF90CF900C94E70EDF91CF911F910F91F7
:10365000FF90EF90DF90CF9008950F931F93CF933B
:10366000DF93EC0188819981009729F02A813B81C1
:103670002617370788F48B016F5F7F4F0E94685BC6
:10368000009761F0998388831B830A832C813D8195
:10369000232B11F4FC01108281E001C080E0DF9156
:1036A000CF911F910F910895EF92FF920F931F9367
:1036B000CF93DF936115710511F480E01CC04115B3
:1036C0005105C1F07B01EC018C819D818A01080FBD
:1036D000191FB801CE010E942D1B882371F3288188
:1036E00039818C819D81B701820F931F0E94645C98
:1036F0001D830C8381E0DF91CF911F910F91FF908B
:10370000EF900895EF92FF920F931F93CF93DF9363
:10371000CDB7DEB727970FB6F894DEBF0FBECDBF8B
:103720007C01CB014AE08E010F5F1F4FB8010E9460
:103730009F54F80101900020E9F73197AF01401B39
:10374000510BB801C7010E94541B27960FB6F8947D
:10375000DEBF0FBECDBFDF91CF911F910F91FF90C4
:10376000EF9008956115710551F0FB010190002063
:10377000E9F73197AF01461B570B0C94541B80E0BF
:103780000895FB0144815581608171810C94541B23
:103790001F920F920FB60F9211240BB60F922F9318
:1037A0003F934F935F936F937F938F939F93AF93C9
:1037B000BF93EF93FF9389EA9CE00E949A16FF91D2
:1037C000EF91BF91AF919F918F917F916F915F9199
:1037D0004F913F912F910F900BBE0F900FBE0F9006
:1037E0001F9018951F920F920FB60F9211240BB6CF
:1037F0000F922F938F939F93EF93FF93E091B90CC8
:10380000F091BA0C8081E091BF0CF091C00C82FD68
:1038100012C090818091C20C8F5F8F732091C30C76
:10382000821751F0E091C20CF0E0E755F34F958F0D
:103830008093C20C01C08081FF91EF919F918F9185
:103840002F910F900BBE0F900FBE0F901F901895E9
:10385000CF92DF92EF92FF92CF93DF93EC01603231
:1038600082E078070CF03DC077FD06C0653B71052E
:103870002CF064EB70E002C060E070E0898128E821
:1038800030E06901C81AD10887FDD394CC0CDD1C47
:10389000CC0CDD1C0D2C000CEE08FF088A8128E5FD
:1038A00032E0281B310987FD3395220F331F220F89
:1038B000331FC901330FAA0BBB0B9C01AD012C199F
:1038C0003D094E095F09DB010E94FC5924EB30E001
:1038D00040E050E00E94D259C20ED31EE41EF51EF5
:1038E000B6013881303380F5298188E890E0821B69
:1038F000910927FD9395880F991F880F991F6817C5
:10390000790784F08A8148E552E0481B510987FD18
:103910005395440F551F440F551FCB0146175707AA
:103920000CF4CA010297880F991F4FB7F894232F00
:1039300030E0F901EE0FFF1F2E0F3F1FF901E85B8A
:10394000F24F928381834FBFDF91CF91FF90EF9031
:10395000DF90CF9008951F93CF93DF93EC01162F44
:103960008881803308F04EC061E0812F0E941A0FD9
:103970008881E82FF0E09F01220F331FE20FF31F31
:10398000E85BF24F1F739081907C192B1083198292
:103990001A826CE00E94355A9CE0899FB001112484
:1039A00040E050E09B01240F351FF901EE0FFF1F8F
:1039B0002E0F3F1FF901E85BF24F908196FD16C074
:1039C0004F5F5F4F4C30510569F7813001F5109220
:1039D000800082E080938100109285001092840024
:1039E000B19A80916F00826080936F00E881F0E06F
:1039F000CF01880F991FE80FF91FE85BF24F808114
:103A0000806480838881DF91CF911F9108958230F7
:103A100061F41092900080939100109295001092A2
:103A2000940088BB80937100E1CF833069F41092D9
:103A3000A00082E08093A1001092A5001092A40043
:103A400089BB80937200D2CF8111D0CF1092200118
:103A500082E08093210110922501109224018ABBFB
:103A600080937300C3CF1F920F920FB60F92112451
:103A70000BB60F922F933F934F935F936F937F9368
:103A80008F939F93AF93BF93EF93FF9348E251E0DF
:103A900064E271E080E090E00E94661AFF91EF918D
:103AA000BF91AF919F918F917F916F915F914F9156
:103AB0003F912F910F900BBE0F900FBE0F901F9054
:103AC00018951F920F920FB60F9211240BB60F92FA
:103AD0002F933F934F935F936F937F938F939F9316
:103AE000AF93BF93EF93FF9348EA50E064EA70E02E
:103AF00083E090E00E94661AFF91EF91BF91AF9131
:103B00009F918F917F916F915F914F913F912F91F5
:103B10000F900BBE0F900FBE0F901F9018951F9225
:103B20000F920FB60F9211240BB60F922F933F9363
:103B30004F935F936F937F938F939F93AF93BF93B5
:103B4000EF93FF9348E950E064E970E082E090E091
:103B50000E94661AFF91EF91BF91AF919F918F9153
:103B60007F916F915F914F913F912F910F900BBE7D
:103B70000F900FBE0F901F9018951F920F920FB6C7
:103B80000F9211240BB60F922F933F934F935F9395
:103B90006F937F938F939F93AF93BF93EF93FF9315
:103BA00048E850E064E870E081E090E00E94661A26
:103BB000FF91EF91BF91AF919F918F917F916F9105
:103BC0005F914F913F912F910F900BBE0F900FBEC1
:103BD0000F901F9018951F920F920FB60F921124FD
:103BE0000BB60F92EF92FF920F931F932F933F9379
:103BF0004F935F936F937F938F939F93AF93BF93F5
:103C0000CF93DF93EF93FF938091C30E811123C075
:103C100081E08093C30E0E94A214EC017C0180E13C
:103C2000E80EF11CC7010E94AD308E0100571F4FF6
:103C3000C8010E94AD30C05FDE4FCE010E94AD30A2
:103C4000C7010E946A30C8010E946A30CE010E94FA
:103C50006A301092C30EFF91EF91DF91CF91BF9127
:103C6000AF919F918F917F916F915F914F913F9114
:103C70002F911F910F91FF90EF900F900BBE0F901F
:103C80000FBE0F901F9018951F920F920FB60F92B4
:103C900011240BB60F922F933F934F935F936F9323
:103CA0007F938F939F93AF93BF93EF93FF93E0E046
:103CB000F0E01995FF91EF91BF91AF919F918F9196
:103CC0007F916F915F914F913F912F910F900BBE1C
:103CD0000F900FBE0F901F9018958091C10E90917C
:103CE000C20E892B41F481E090E00E94135390931F
:103CF000C20E8093C10E8091C10E9091C20E0895A4
:103D00002F923F924F925F926F927F928F929F92EB
:103D1000AF92BF92CF92DF92EF92FF920F931F93D9
:103D2000CF93DF93CDB7DEB7E3970FB6F894DEBF3E
:103D30000FBECDBF3C014F83588769877A87098BB7
:103D40001A8B2B8B3C8BCD8ADE8AEF8AF88E2B96D2
:103D50000EAD1FAD2B970E9469466E8F7F8F88A393
:103D600099A30E946946698F7A8F8B8F9C8FF3018C
:103D7000EC5DFD4F118210823B96A114B10479F0E5
:103D8000C501A0E0B0E04081518162817381841758
:103D90009507A607B7072CF4AC01BD0102C040810E
:103DA0005181F301ED5CFD4F8114910479F0A12C58
:103DB000B12C80819181A281B38188169906AA06CF
:103DC000BB0614F4D501C401BC0102C0608171813D
:103DD000F301E95CFD4F0115110571F020E030E0C1
:103DE00080819181A281B381081719072A073B07B7
:103DF0002CF4D901C80102C0808191819301205F18
:103E00003F4F3E872D878A0120E030E0F30106A76F
:103E100017A720AB31AB1301F0E92F0E311CAB011A
:103E200060E070E0F101468F578F60A371A323011A
:103E3000F0EF4F1AFEEF5F0AA0E0B0E0F201868FCC
:103E4000978FA0A3B1A3E257FE4F10821182128276
:103E50001382349610821182128213823496108259
:103E6000118212821382349611821082329611824C
:103E700010823296118210820E94B3078091CE0E7A
:103E80009091CF0EA091D00EB091D10E4301F0E5EC
:103E90008F1AFDEF9F0AF40180839183A283B3837D
:103EA0000E94B3078091D20E9091D30EA091D40EB0
:103EB000B091D50EF301EC54FD4F80839183A28322
:103EC000B3830E94B3078091D60E9091D70EA09134
:103ED000D80EB091D90EF301E854FD4F8083918341
:103EE000A283B3835301FEE6AF1AFDEFBF0AF501CB
:103EF00060817181828193810E949C582F813885D5
:103F000049855A850E94FB580E94285B8B019C01C1
:103F1000F40140815181628173812C96EFAC2C9722
:103F20008D859E850E943D2F8823F1F08EE993E0D8
:103F30000E94FC0B8BED95E00E94FC0BF301E85A0C
:103F4000FF4F6081718182819381F50120813181F0
:103F5000428153810E94D259CA01B9010E945D0C6D
:103F60000E94B3070E94B5066301FAE6CF1AFDEF7F
:103F7000DF0AF60160817181828193810E949C58E1
:103F800029893A894B895C890E94FB580E94285BE9
:103F90008B019C01F301EC54FD4F40815181628102
:103FA00073812D96EFAC2D97C1010E943D2F882380
:103FB000F1F08AE993E00E94FC0B8BEE95E00E9401
:103FC000FC0BF301E852FF4F608171818281938184
:103FD000F60120813181428153810E94D259CA0168
:103FE000B9010E945D0C0E94B3070E94B5066301EF
:103FF000F6E6CF1AFDEFDF0AF6016081718182815A
:1040000093810E949C582D893E894F89588D0E942A
:10401000FB580E94285B8B019C01F301E854FD4F83
:1040200040815181628173812E96EFAC2E97C2013F
:104030000E943D2F8823F1F086E993E00E94FC0B5B
:104040008BEF95E00E94FC0BF301E85AFE4F608174
:10405000718182819381F601208131814281538176
:104060000E94D259CA01B9010E945D0C0E94B30797
:104070000E94B506F301158AEB56FF4F1082E058F7
:10408000FF4F1082C3010E940F44C3010E941344DA
:104090008D859E850E943533C1010E943533C20152
:1040A0000E94353381E090E0F301EA5DFD4F91839A
:1040B00080837301F8EDEF1AFDEFFF0AF70191839A
:1040C00080838301065D1D4FF8019183808341E069
:1040D00050E06D857E85C3010E941014F701408178
:1040E0005181B101C3010E941014F8014081518136
:1040F000B201C3010E94101481E0F301E150FD4FB1
:1041000080838D859E850E94282FC1010E94282FC3
:10411000C2010E94282F0E946946F301FD5F60835F
:1041200071838283938364E670E080E090E00E9474
:1041300029102C96FFAD2C97F1110EC02D962FADA6
:104140002D97211105C02E963FAD2E973323B1F048
:10415000F301EB58FF4F10822D964FAD2D97411173
:1041600004C0F301EB50FF4F10822E965FAD2E97E7
:10417000511104C0F301EB58FE4F10828D859E85CE
:104180000E94C030C1010E94C030C2010E94C030F4
:104190008D859E850E940230C1010E940230C201BD
:1041A0000E9402300E94B307FC0186858D8F18861D
:1041B0001F8293012B583F4F3A8B298BA3014B5001
:1041C0005F4F5E8B4D8BC3018B589E4F988B8F87B3
:1041D000F301EA5DFD4FFDA3ECA32D543E4F3FA339
:1041E0002EA34B5C5E4F59A748A78D5F91099BA3F7
:1041F0008AA3EC54FF4FFBA7EAA72A553F4F3DA7E0
:104200002CA74B535F4F5FA74EA78C5B9D4F99AB7D
:1042100088ABBA97FBABEAABE989FA898081811157
:104220000AC0ED89FE898081811105C0EF85F8897A
:104230008081882321F0FD8DFF2309F4C6C083010E
:10424000025E1D4FF80180819181892B21F0C3010D
:104250000E94A240F7CF83E296E00E94FC0B2C96CE
:10426000FFAD2C97FF23F9F02F813885232B09F020
:1042700041C03D8D311124C082E993E00E94FC0BC6
:104280000E94B3070E94B5062D964FAD2D9744238B
:1042900009F478C48EE893E00E94FC0B0E94B307F7
:1042A0000E94B5066FC42D968FAD2D97882369F0B7
:1042B000EF81F885EF2B19F5FD8DF11120C0EACFC4
:1042C0002D963FAD2D9731111AC02E962FAD2E97FA
:1042D0002223A9F04F815885452B89F45D8D51111A
:1042E0000EC08AE893E00E94FC0B0E94B3070E9474
:1042F000B50605C02D964FAD2D97442331F34301EC
:104300008AED881A8DEF980A85E090E0F401918398
:1043100080835301F8EDAF1AFDEFBF0AF5019183D9
:1043200080838301065D1D4FF8019183808345E002
:1043300050E06D857E85C3010E941014F501408117
:104340005181B101C3010E941014F80140815181D3
:10435000B201C3010E941014C3010E941744C3019B
:104360000E940F44C3010E9413440E94B3070E949D
:104370000F07F40111821082F50111821082F801F9
:104380001182108240E050E06D857E85C3010E945D
:104390001014F50140815181B101C3010E94101434
:1043A000F80140815181B201C3010E941014FD8DBA
:1043B000FF2309F4EEC30E94B30721E0FC01268726
:1043C00021E030E038872F83E4C34CA15DA16D85E7
:1043D0007E85C3010E9469144EA15FA1B101C30192
:1043E0000E94691448A559A5B201C3010E9469142D
:1043F000EAA1FBA180818823E1F08D859E850E9442
:10440000C0308AA49BA4ACA4BDA4CEA4DFA4E8A819
:10441000F9A80AA91BA9930122563D4FA3014057B1
:104420005E4F6D857E85C3010E94B02BEAA1FBA182
:104430001082930128503F4F3C872B87F9018081E0
:10444000882339F1C1010E94C0304301F5E28F1A7F
:10445000FDEF9F0A53012EE2A21A2DEFB20A63016B
:104460003FE0C31A3DEFD30A730140E4E41A4DEF75
:10447000F40A83010C541D4F93012E553D4FA301A7
:1044800042545E4FB101C3010E94B02BEB85FC8505
:104490001082930128583E4F3C872B87F901808179
:1044A000882339F1C2010E94C0304301F4E28F1A1F
:1044B000FDEF9F0A53012AE2A21A2DEFB20A63010F
:1044C0003DE0C31A3DEFD30A73014CE3E41A4DEF0C
:1044D000F40A830108541D4F93012A553D4FA3014F
:1044E00044515E4FB201C3010E94B02BEB85FC85A5
:1044F0001082E989FA8980818823D1F1F301E85398
:10450000FD4F60817181072E000C880B990B0E9472
:104510009C589B01AC01F301E256FD4F6081718113
:10452000828193810E945E5B181614F5E989FA89ED
:10453000108261EF74E08301065E1D4FC8010E9486
:10454000B21B6CE376E0C8010E94B21B6EEE74E011
:10455000C8010E94B21B2C96FFAD2C97FF2309F4D3
:104560008AC1F301EC5AFF4F10821182128213822A
:10457000ED89FE8980818823D1F1F301E653FD4F57
:1045800060817181072E000C880B990B0E949C584A
:104590009B01AC01F301EE55FD4F60817181828179
:1045A00093810E945E5B181614F5ED89FE891082D6
:1045B00061EF74E08301065E1D4FC8010E94B21BCB
:1045C00064E676E0C8010E94B21B6EEE74E0C8019A
:1045D0000E94B21B2D96FFAD2D97FF2309F450C109
:1045E000F301EC52FF4F1082118212821382EF8589
:1045F000F88980818823D1F1F301E453FD4F608174
:104600007181072E000C880B990B0E949C589B010E
:10461000AC01F301EA55FD4F608171818281938184
:104620000E945E5B181614F5EF85F889108261EF21
:1046300074E08301065E1D4FC8010E94B21B6CE846
:1046400076E0C8010E94B21B6EEE74E0C8010E94C1
:10465000B21B2E96FFAD2E97FF2309F416C1F3016E
:10466000EC5AFE4F1082118212821382F301EA5833
:10467000FF4F60818D859E850E94B02F882351F069
:10468000F301EC5AFF4F1082118212821382E989E2
:10469000FA891082F301EA50FF4F6081C1010E9444
:1046A000B02F882351F0F301EC52FF4F108211829A
:1046B00012821382ED89FE891082F301EA58FE4FBF
:1046C0006081C2010E94B02F882351F0F301EC5A9F
:1046D000FE4F1082118212821382EF85F8891082B8
:1046E000C3010E941744C3010E940F44E989FA895B
:1046F00080818823E9F00E9469464B015C012E8D80
:104700003F8D48A159A1821A930AA40AB50AF30160
:10471000EA57FD4F2081318142815381A8EEB3E0F9
:104720000E94F159681579058A059B0508F4B2C005
:10473000ED89FE8980818823E9F00E9469464B015A
:104740005C012E8D3F8D48A159A1821A930AA40ABB
:10475000B50AF301E657FD4F208131814281538133
:10476000A8EEB3E00E94F159681579058A059B050A
:1047700008F4AAC0EF85F88980818823E9F00E94B7
:1047800069464B015C012E8D3F8D48A159A1821ACB
:10479000930AA40AB50AF301E257FD4F2081318143
:1047A00042815381A8EEB3E00E94F1596815790562
:1047B0008A059B0508F4A2C00E946946F301FD5FCB
:1047C000608371838283938389EA9CE00E948416CC
:1047D000181619063CF589EA9CE00E9462168F7D46
:1047E00085349105F9F46EEF75E0C301865E9D4F47
:1047F0000E94B21B86EA93E00E94FC0B0E94B30762
:104800000E94B506E989FA891082ED89FE89108235
:10481000EF85F8891082F1E0FD8F21E030E03887E4
:104820002F8304C04F815885452B39F063E176E032
:10483000C301865E9D4F0E94B21BC3010E94A2402D
:104840000E946946DC01CB01298D3A8D4B8D5C8D30
:10485000821B930BA40BB50B8B3F9105A105B105F2
:1048600008F4DACCF301E25EFD4F80819181892B5F
:1048700009F45EC0D1CC2FE130E038872F8378CEA9
:1048800020E230E038872F83B2CE21E230E0388753
:104890002F83ECCEE989FA89108262EB73E0830101
:1048A000065E1D4FC8010E94B21B6EEE74E0C80187
:1048B0000E94B21B64EB76E0C8010E94B21B22E0AA
:1048C00030E038872F8334CFED89FE8910826EEA7D
:1048D00073E08301065E1D4FC8010E94B21B6EEE9D
:1048E00074E0C8010E94B21B69EC76E0C8010E9426
:1048F000B21B22E030E038872F833CCFEF85F88968
:1049000010826AEA73E08301065E1D4FC8010E94AF
:10491000B21B6EEE74E0C8010E94B21B6EED76E031
:10492000C8010E94B21B22E030E038872F8344CFB9
:10493000F301EC5DFD4F808191818130910509F09B
:10494000F0C00E94B3078C01FC0180819181A2819B
:10495000B381181619061A061B0644F081E090E090
:10496000A0E0B0E080839183A283B383F8018481C7
:104970009581A681B781181619061A061B0644F000
:1049800081E090E0A0E0B0E084839583A683B783C4
:10499000F80180859185A285B385181619061A0637
:1049A0001B0644F081E090E0A0E0B0E080879187B2
:1049B000A287B387CE0101960E942F0C6EEA75E0A4
:1049C000CE0101960E94B21B6BED75E0CE010196FF
:1049D0000E94B21B6091CE0E7091CF0E8091D00ECE
:1049E0009091D10E0E949C586B017C01F80160816E
:1049F0007181828193810E949C589B01AC01C70107
:104A0000B6010E94B65AAB01BC01CE0101960E94CC
:104A1000FE0B6BEE75E0CE0101960E94B21B609119
:104A2000D20E7091D30E8091D40E9091D50E0E942B
:104A30009C586B017C01F8016481758186819781A6
:104A40000E949C589B01AC01C701B6010E94B65A56
:104A5000AB01BC01CE0101960E94FE0B6BEF75E02D
:104A6000CE0101960E94B21B6091D60E7091D70EB6
:104A70008091D80E9091D90E0E949C586B017C01B8
:104A8000F80160857185828593850E949C589B0101
:104A9000AC01C701B6010E94B65AAB01BC01CE0100
:104AA00001960E94FE0BBE016F5F7F4F8301065E81
:104AB0001D4FC8010E94C11B89819A810E94AB537E
:104AC0000AC0892BC9F462EA73E08301065E1D4FB8
:104AD000C8010E94B21B0E94B307BC01CE0101961F
:104AE0000E947106BE016F5F7F4FC8010E94C11B0B
:104AF00089819A810E94AB53F301EC5DFD4F808167
:104B000091810196833091051CF49183808302C0CA
:104B1000118210820E946946698F7A8F8B8F9C8FD9
:104B20007BCB8230910569F66FE176E08301065E0A
:104B30001D4FC8010E94B21B6BED75E0C8010E94B9
:104B4000B21B8D859E850E945933BC01C8010E940D
:104B5000821B6BEE75E0C8010E94B21BC1010E946E
:104B60005933BC01C8010E94821B6BEF75E0C8017C
:104B70000E94B21BC2010E945933BC01C8010E94AD
:104B8000821BA9CF2E965FAD2E97552309F4B7CB84
:104B9000A8CB81E396E00E94FC0B8F8198850E9450
:104BA000550D8EEE94E00E94FC0B0E94B3074F81DE
:104BB00058855093150840931408CA01E3960FB620
:104BC000F894DEBF0FBECDBFDF91CF911F910F9143
:104BD000FF90EF90DF90CF90BF90AF909F908F901D
:104BE0007F906F905F904F903F902F9008952F92FD
:104BF0003F924F925F926F927F928F929F92AF926D
:104C0000BF92CF92DF92EF92FF920F931F93CF93B9
:104C1000DF93CDB7DEB765970FB6F894DEBF0FBE52
:104C2000CDBF8C010E94852DF801E45DFD4F81E030
:104C30004091E6085091E7086091E8087091E90812
:104C4000452B462B472B09F480E080830E94852D5D
:104C5000F801E35DFD4F81E04091EA085091EB08D7
:104C60006091EC087091ED08452B462B472B09F419
:104C700080E080830E94852DF801E25DFD4F81E098
:104C80004091EE085091EF086091F0087091F108A2
:104C9000452B462B472B09F480E080830E94852D0D
:104CA0008091360990913709A0913809B09139095E
:104CB000F801E15DFD4F80839183A283B3830E945D
:104CC000852D80913A0990913B09A0913C09B091C2
:104CD0003D09F801ED5CFD4F80839183A283B3838E
:104CE0000E94852D80913E0990913F09A091400935
:104CF000B0914109F801E95CFD4F80839183A28363
:104D0000B3830E94852D80910E0990910F09A09187
:104D10001009B0911109F801E55CFD4F8083918382
:104D2000A283B3830E94852D80911209909113096B
:104D3000A0911409B0911509F801E15CFD4F808341
:104D40009183A283B3830E94852D8091160990914F
:104D50001709A0911809B0911909F801ED5BFD4FF1
:104D600080839183A283B3830E94852D80911E0945
:104D700090911F09A0912009B0912109F801E95BE8
:104D8000FD4F80839183A283B3830E94852D809100
:104D9000220990912309A0912409B0912509F801D5
:104DA000E55BFD4F80839183A283B3830E94852DB1
:104DB0008091260990912709A0912809B09129098D
:104DC000F801E15BFD4F80839183A283B3830E944E
:104DD000852D8091BE089091BF08A091C008B09128
:104DE000C108F801ED5AFD4F80839183A283B383FC
:104DF0000E94852D8091C2089091C308A091C4089B
:104E0000B091C508F801E95AFD4F80839183A283D0
:104E1000B3830E94852D8091C6089091C708A09108
:104E2000C808B091C908F801E55AFD4F8083918305
:104E3000A283B3830E94852DF801E15AFD4F81E0E2
:104E400020919608309197082130310509F080E0D3
:104E500080830E94852DF801E05AFD4F81E020916A
:104E60009A0830919B082130310509F080E0808359
:104E70000E94852DF801EF59FD4F81E020919E0899
:104E800030919F082130310509F080E080830E9435
:104E9000852DF801E358FD4F81E040916E08509157
:104EA0006F086091700870917108452B462B472B55
:104EB00009F480E080830E94852DF801E258FD4FBF
:104EC00081E040917208509173086091740870916C
:104ED0007508452B462B472B09F480E080830E9400
:104EE000852DF801E158FD4F81E040917608509101
:104EF00077086091780870917908452B462B472BED
:104F000009F480E080830E94852DF801E058FD4F70
:104F100081E040914609509147096091480970919C
:104F20004909452B462B472B09F480E080830E94DA
:104F3000852DF801EF57FD4F81E040914A095091CE
:104F40004B0960914C0970914D09452B462B472B1D
:104F500009F480E080830E94852DF801EE57FD4F13
:104F600081E040914E0950914F0960915009709134
:104F70005109452B462B472B09F480E080830E9482
:104F8000852DF801ED57FD4F81E020917E0830918D
:104F90007F082130310509F080E080830E94852D53
:104FA000F801EC57FD4F81E0209182083091830891
:104FB0002130310509F080E080830E94852DF801C1
:104FC000EB57FD4F81E02091860830918708213012
:104FD000310509F080E080830E94852D809146088C
:104FE00090914708A0914808B0914908F801EA5704
:104FF000FD4F80839183A283B3830E94852D80918E
:105000004A0890914B08A0914C08B0914D08F801C6
:10501000E657FD4F80839183A283B3830E94852D41
:1050200080914E0890914F08A0915008B09151087E
:10503000F801E257FD4F80839183A283B3830E94DE
:10504000852DF801EF58FD4F81E0409156085091B1
:1050500057086091580870915908452B462B472BEB
:1050600009F480E080830E94852DF801EE58FD4F01
:1050700081E040915A0850915B0860915C08709102
:105080005D08452B462B472B09F480E080830E9466
:10509000852DF801ED58FD4F81E040915E0850915B
:1050A0005F086091600870916108452B462B472B83
:1050B00009F480E080830E94852D80914E0A9091B2
:1050C0004F0AA091500AB091510AF801EE59FD4FD4
:1050D00080839183A283B3830E94852D8091520A9D
:1050E0009091530AA091540AB091550AF801EA59D7
:1050F000FD4F80839183A283B3830E94852D80918D
:10510000560A9091570AA091580AB091590AF8018D
:10511000E659FD4F80839183A283B3830E94852D3E
:10512000F801EC58FD4F81E02091AE083091AF08B6
:105130002130310509F080E08083F801EB58FD4F04
:105140001082319610820E94852DF801E958FD4F9A
:1051500081E02091AA083091AB082130310509F097
:1051600080E08083F801E858FD4F1082319610826C
:105170000E94852DF801E658FD4F81E02091CE0870
:105180003091CF082130310509F080E080830E9402
:10519000852DF801E558FD4F81E02091D20830912E
:1051A000D3082130310509F080E080830E94852DED
:1051B000F801E458FD4F81E02091D6083091D708DE
:1051C0002130310509F080E080830E94852DF801AF
:1051D000E259FD4F81E020915E0A30915F0A213053
:1051E000310509F080E080830E94852DF801E159A6
:1051F000FD4F81E02091620A3091630A2130310530
:1052000009F080E080830E94852DF801E059FD4F70
:1052100081E02091660A3091670A2130310509F05A
:1052200080E080830E94852D38012EE6621A2DEFE2
:10523000720A8091F6089091F708A091F808B09151
:10524000F908F30180839183A283B3830E94852DA3
:105250005801FAE6AF1AFDEFBF0A8091FA08909163
:10526000FB08A091FC08B091FD08F50180839183B3
:10527000A283B3830E94852D8091FE089091FF0840
:10528000A0910009B0910109980126563D4FF901FE
:1052900080839183A283B383F30140815181628132
:1052A0007381141615061606170644F041E050E007
:1052B00060E070E04083518362837383F501408135
:1052C000518162817381141615061606170644F083
:1052D00041E050E060E070E040835183628373837B
:1052E000181619061A061B064CF081E090E0A0E0A3
:1052F000B0E0F90180839183A283B383D901CD907B
:10530000DD90ED90FC90F50180809180A280B380CB
:10531000D3014D905D906D907C900E94B307FC018D
:10532000408251826282738284829582A682B78291
:10533000C086D186E286F386F801E259FD4FB0813E
:10534000B9833C9780819181A281B3818A8B9B8BA9
:10535000AC8BBD8B789690819E83399630803F9739
:10536000A081AA87339620803996B081BF87339772
:1053700020812B877E973081F3972081E65AFF4F5B
:105380004081518162817381F397C080D180E28036
:10539000F3803C9780809180A280B3803C974080CE
:1053A0005180628073803C9780819181A281B3811A
:1053B000F80186A797A7A0ABB1AB42AA53AA64AAEB
:1053C00075AA86AA97AAA0AEB1AEC2AED3AEE4AE1D
:1053D000F5AEFE96408351836283738334962083B7
:1053E000319630832B85F80123A78F8584A735A6B6
:1053F000EA5BFF4F80E490E0A0E0B0E0808391831F
:10540000A283B3833297208231969A859083359612
:10541000AE81A08331968A899B89AC89BD898083BE
:105420009183A283B383349699819083E05EFD4F8C
:10543000A081A983399780819181A281B3818E83D4
:105440009F83A887B987759690819A873996A0819E
:10545000AA833F97B081BB87339620812F873996E7
:105460002080339730807E973081F3972081E35AF4
:10547000FF4F80819181A281B381F3974081518157
:10548000628173813C97C080D180E280F3803C9739
:1054900080809180A280B380EF5AF140F98BE88B35
:1054A000ED55FE4F4080518062807380E889F98914
:1054B000468E578E60A271A282A293A2A4A2B5A228
:1054C000C6A2D7A2E0A6F1A642A753A764A775A7D4
:1054D00086A797A7A0ABB1AB22AB33AB338E248E9C
:1054E0002A81258F80E490E0A0E0B0E086AB97AB06
:1054F000A0AFB1AF2F8524AB8B8585AB9A8592AFDA
:105500008E819F81A885B98583AF94AFA5AFB6AFD3
:10551000298127AFF801E059FD4F808189833697B3
:1055200080819181A281B3818E839F83A887B9876F
:10553000729690819A87399630803F97A081AA838E
:10554000339620803996C0803397D0807E97308103
:10555000F3972081E05AFF4F80819181A281B3812E
:105560008B879C87AD87BE87F39780819181A281CD
:10557000B3813C9740815181628173813C978080E7
:105580009180A280B3807801E0EFEE1AEEEFFE0A80
:10559000F801E95CFD4F4080518062807380F70123
:1055A000468E578E60A271A282A293A2A4A2B5A237
:1055B00046A357A360A771A782A793A7A4A7B5A7DF
:1055C0008B859C85AD85BE8586A797A7A0ABB1AB23
:1055D00022AB33ABD38EC48E358E80E490E0A0E056
:1055E000B0E086AB97ABA0AFB1AF24AA2A8125ABC0
:1055F0008A8582AF8E819F81A885B98583AF94AF5C
:10560000A5AFB6AF298127AF680180E1C80ED11CD4
:10561000C6010E940343888999890E940343C701F8
:105620000E9403430E94852DA0905E09B0905F09FF
:105630000E94852D80906E0990906F090E94852DA3
:105640002091860930918709A401B501C6010E9405
:10565000FF400E94852DA0906209B09063090E94CE
:10566000852D80907209909073090E94852D20915C
:105670008A0930918B09A401B501888999890E9412
:10568000FF400E94852DA0906609B09067090E9496
:10569000852D80907609909077090E94852D209124
:1056A0008E0930918F09A401B501C7010E94FF4006
:1056B000F801EF58FD4F8081882321F0C6010E9438
:1056C000282F03C0C6010E94142FF801EE58FD4F89
:1056D0008081882329F0888999890E94282F04C015
:1056E000888999890E94142FF801ED58FD4F808117
:1056F0008823D9F0C70165960FB6F894DEBF0FBEB8
:10570000CDBFDF91CF911F910F91FF90EF90DF9070
:10571000CF90BF90AF909F908F907F906F905F9051
:105720004F903F902F900C94282FC70165960FB68D
:10573000F894DEBF0FBECDBFDF91CF911F910F91C7
:10574000FF90EF90DF90CF90BF90AF909F908F90A1
:105750007F906F905F904F903F902F900C94142FFC
:105760008F929F92CF92DF92EF92FF920F931F93AF
:10577000CF93DF93CDB7DEB7D4018C91882399F115
:10578000780169018B01FB0180819181DC01ED9140
:10579000FC910084F185E02D19950C5B1F4F90FF63
:1057A00018C020E030E040E85FE3F60160817181DD
:1057B000828193810E944A5AD6016D937D938D9385
:1057C0009C931397F70180819181A281B381F801A5
:1057D00006C0F80180819181A281B381F7018083A5
:1057E0009183A283B383DF91CF911F910F91FF909B
:1057F000EF90DF90CF909F908F9008950895089537
:105800000F931F93CF93DF938C01C0E0D0E0BE01D4
:10581000C8010E94D135882321F0BE01C8010E9431
:1058200079362196C13ED10591F780E090E0DF9175
:10583000CF911F910F9108954F925F926F927F9237
:105840008F929F92AF92BF92CF92DF92EF92FF9290
:105850000F931F93CF93DF938B01EB01CC0FDD1FD1
:10586000CE010E94BC59882E912CA12CB12CCE01C6
:1058700001960E94BC59C82ED12CE12CF12C0D5858
:1058800011090330110588F5CE0144960E94BC59D8
:10589000482E512C612C712CCE0145960E94BC598A
:1058A000482F50E060E070E08FEF4816510461042B
:1058B0007104A9F44F3F51056105710581F48FEF23
:1058C00088169104A104B10481F48FEFC816D104A5
:1058D000E104F10451F46FEF7FEFCB012BC04038AE
:1058E0005105610571056CF0F6CF80E8C816D1044A
:1058F000E104F10484F740E050E0BA01412C512C5E
:105900003201FE2CED2CDC2CCC248C0C9D1CAE1C0E
:10591000BF1C320155244424840C951CA61CB71CC2
:10592000742F662755274427CB01BA01680D791DCE
:105930008A1D9B1DDF91CF911F910F91FF90EF90DA
:10594000DF90CF90BF90AF909F908F907F906F909F
:105950005F904F900895CF93DF93EC018F81882360
:1059600031F061E089890E94E70E1F8206C060E085
:1059700089890E94E70E81E08F83DF91CF9108959E
:10598000CF93DF93EC018E81882331F061E08B852A
:105990000E94E70E1E8206C060E08B850E94E70E23
:1059A00081E08E83DF91CF91089560E0FC018189D1
:1059B0000C94E70E60E0FC0183850C94E70E61E037
:1059C000FC0181890C94E70E61E0FC0183850C9455
:1059D000E70ECF92DF92EF92FF920F931F93CF9338
:1059E000DF938B0169017A01EB01CC0FDD1F6C2D78
:1059F000CE010E94C4599927F7FC9A958F2D7E2DD0
:105A00006D2DCE0101960E94C4590D581109033025
:105A1000110588F4B701992777FD9095892FCE015C
:105A200044960E94C4596F2D772788279927CE0165
:105A300045960E94C45980E090E0DF91CF911F917C
:105A40000F91FF90EF90DF90CF900895CF92DF926B
:105A5000EF92FF92CF93DF93EB010E94D135882321
:105A600059F1FE01EE0FFF1FEE0FFF1FE65EF74F2D
:105A7000C080D180E280F38083EF96E00E94FC0B2F
:105A800085EC95E00E94FC0B87EF96E00E94FC0BF2
:105A9000CE010E94550D85EC95E00E94FC0B8BE633
:105AA00095E00E94FC0BC701B6010E945D0C0E94AC
:105AB000B3070E94B50604C08DE695E00E94FC0B7A
:105AC00080E090E0DF91CF91FF90EF90DF90CF905A
:105AD00008950F931F93CF93DF938C01C0E0D0E024
